:1000000000000320D1010000312C0000F52B00007E
:10001000F52B0000F52B0000F52B0000F52B000060
:10002000F52B0000F52B0000F52B0000312C000013
:10003000312C0000F52B0000312C0000E52B0000D6
:10004000312C0000312C0000312C0000312C00003C
:10005000312C0000312C0000312C0000312C00002C
:10006000312C0000312C0000312C0000312C00001C
:10007000312C0000312C0000312C0000312C00000C
:10008000312C0000312C0000312C0000312C0000FC
:10009000312C0000312C0000312C0000312C0000EC
:1000A000312C0000312C0000312C0000312C0000DC
:1000B000312C0000312C0000312C0000F9320000FE
:1000C000312C0000013A0000312C0000893F000073
:1000D000312C000099440000312C0000312C00002C
:1000E000312C0000312C0000312C0000312C00009C
:1000F000312C0000312C0000312C0000312C00008C
:10010000312C0000312C0000312C0000312C00007B
:10011000312C0000BD1E0000312C0000312C0000ED
:10012000312C0000312C0000312C0000312C00005B
:10013000312C0000312C0000312C0000312C00004B
:10014000312C0000312C0000E9490000312C000066
:10015000312C0000312C0000312C0000312C00002B
:10016000312C0000312C0000312C0000312C00001B
:10017000312C0000312C0000312C0000312C00000B
:10018000312C0000312C0000312C0000312C0000FB
:10019000312C0000312C000049500000312C0000AF
:1001A000312C0000312C0000312C0000312C0000DB
:1001B000312C0000312C0000312C0000312C0000CB
:1001C000312C0000312C0000312C0000312C0000BB
:1001D0005C4B4CF2205210B51A804DF628121A8052
:1001E00000BF00BF02F028FD574B4FF030621A608D
:1001F000564A9A60564ADA60564B4FF470021A60BB
:10020000554B564A1A60564B1A6812F4807204D144
:1002100054490A604FF4A8521A60534B1A781107D8
:1002200003D51A7842F008021A70504B504C5148CE
:10023000AA221A70504A00239918A14203D21958D1
:1002400099500433F8E74D4B4D4900228B4202D2BE
:1002500043F8042BFAE74B484B4900235A581A50ED
:100260000433B3F5E87FF9D1484B494A802103F8BC
:10027000011B9342FBD1474B424A1A60464B0A226C
:100280001A70A3F5805324225A70A0221A709A790A
:100290009207FCD59A79D406FCD4404B9A7902F0A7
:1002A0000C02082AFAD13E4B60221A7002331A78E7
:1002B000802AFCD1394B00221A714E225A719A7948
:1002C0009006FCD59979354A4906FBD5354B364918
:1002D00019600821596020231370937903F00C03EF
:1002E0000C2BFAD1314B324A1A60324B324A1A6027
:1002F00000225A60072243F8042C304AC3F80C2D20
:1003000062B601F07DFC174B1B68DA0705D52C4857
:1003100001F096F92B4B2C4A1A602C4B1B785B068C
:1003200009D5284C284A2368934204D1244801F077
:1003300087F90023236005F027FB02F083FC02F01D
:1003400027FBFEE70E20054030800440823F04007A
:100350000100002B88ED00E0002008E0030000858C
:1003600010D0034014D0034002D0074000E0074003
:10037000480CFF1F246000006007FF1F480CFF1F90
:1003800028F902200002FF1F0000000000E400E046
:1003900064E400E008ED00E0005006400040064044
:1003A00001E007404480044000000703048004404B
:1003B000C010050014E000E07FA903000000202029
:1003C000663CD5571CE00340A5C3945A00F0074093
:1003D000FFFFFFFFFFFFFFFFFFFFFFFFFFFFFFFF2D
:1003E000FFFFFFFFFFFFFFFFFFFFFFFFFFFFFFFF1D
:1003F000FFFFFFFFFFFFFFFFFFFFFFFFFFFFFFFF0D
:10040000FFFFFFFFFFFFFFFFFFFFFFFFDEF9FFFF23
:1004100010B5054C237833B9044B13B10448AFF33E
:1004200000800123237010BD480CFF1F0000000056
:100430002460000008B5064B1BB106480649AFF31F
:1004400000800648036813B1054B03B1984708BD07
:1004500000000000246000004C0CFF1F480CFF1F30
:100460000000000038B5314B186007EE100AF8EEB6
:10047000C77A9FED2F7AC7EE877A9FED2E7AF4EE3A
:10048000C77AF1EE10FA17DC9FED2B7AF4EEC77AFB
:10049000F1EE10FA13DC9FED297AF4EEC77AF1EE53
:1004A00010FA0FDC9FED267AF4EEC77AF1EE10FA1F
:1004B0000BDC012425460AE00424012507E003247F
:1004C000012504E00224012501E0032402251D4B3F
:1004D00003FB05F393FBF4F300EE103A0320B8EEB0
:1004E000C00A01F0BDF80320802101F0E5F946F2D1
:1004F000A81303FB05F595FBF4F500EE105A062052
:10050000B8EEC00A01F0ACF80620402101F0D4F9A1
:1005100014207C2101F0D0F91520802101F0CCF9C4
:100520000520C02101F0C8F938BD00BF6007FF1FDA
:10053000C0E1644C295C7F40295C3F4052B8FE3FDB
:1005400052B8BE3F404B4C0010B5722800F20C81EF
:10055000DFE810F073007E0077000A0185000A01D1
:100560000A010A010A010A0113010A010A01130121
:100570000A010A010A0113010A0113010A010A0111
:100580000A010A010A010A010A010A010A010A0113
:100590000A010A010A010A010A010A010A010A0103
:1005A0000A010A010A010A010A010A010A010A01F3
:1005B0000A010A010A011301850077000A011301EB
:1005C0000A010A010A010A010A010A010A010A01D3
:1005D0000A010A010A010A010A010A010A010A01C3
:1005E0000A010A010A010A010A010A010A010A01B3
:1005F0000A010A010A010A010A010A010A010A01A3
:100600000A010A010A010A010A010A010A010A0192
:100610000A010A010A010A010A010A010A010A0182
:100620000A010A010A010A010A010A010A010A0172
:100630000A010A010A010A01F80000224F4B1A6060
:1006400010BD4F4803685B684E490422984710BDAF
:1006500020224D4B1A600122484B1A6010BD484CB5
:1006600023681B6820460121984723685B68204661
:1006700046490422984723685B68204644490C2277
:10068000984723681B6820460021984723681B6809
:1006900020460221984723685B6820463D49032293
:1006A000984723681B6820460021984723681B68E9
:1006B00020462121984723681B682046002198473F
:1006C00023681B6820460021984723681B68204642
:1006D0001021984723681B6820460021984723680B
:1006E0001B6820462321984723681B682046002169
:1006F000984723681B6820460F21984723681B688A
:1007000020464221984723681B682046402198478D
:1007100023681B6820464021984723681B682046B1
:100720000821984723681B68204641219847236881
:100730001B6820460221984723681B682046002139
:10074000984710BD4FF400638B624B620023CB606F
:1007500007230B60104B8B6020234B600A4A136009
:100760000122064B1A6010BD0C4B187004225A71FE
:1007700000229A7101220A4B1A7010BD6C0CFF1FE7
:100780009CF50220305B000084F00F40385B0000D5
:10079000405B0000505B0000E070720098F40220A3
:1007A00090F40220874B1B78803B4E2B00F209818E
:1007B000DFE813F0D700C1000701F900EA000701E4
:1007C00007010701070107010701070107010701E9
:1007D00007010701070107010701070107010701D9
:1007E00007010701070107010701070107010701C9
:1007F00007010701070107010701070107010701B9
:1008000007010701070107010701070107010701A8
:100810000701070107010701070107010701070198
:100820000701070107010701070107010701070188
:10083000070107014F0063007A00070154006B00B5
:100840008C000701590070009D0007015E007500D3
:10085000AF005C4B5B7881F834307047594B5B7864
:1008600081F835307047574B5B7881F836307047E8
:10087000544B5B7881F837307047524B5B7881F886
:1008800038304FF0FF330B6370474E4B5B7881F885
:10089000393070474B4B5B7881F83A307047494BA1
:1008A0005B7881F83B307047464B98785A7802EB7A
:1008B00000228A871B7913F0080F00F082800B6BEF
:1008C000B3F1FF3F7DD100230B6370473D4B987818
:1008D0005A7802EB0022CA871B7913F0080F70D0F8
:1008E0000B6BB3F1FF3F6CD101230B637047354BAA
:1008F00098785A7802EB0022A1F840201B7913F077
:10090000080F5ED00B6BB3F1FF3F5AD102230B638C
:1009100070472C4B98785A7802EB0022A1F84220BD
:100920001B7913F0080F4CD00B6BB3F1FF3F48D18C
:1009300003230B637047234B98785A7842EA0022CE
:10094000013292008A621879DB7843EA00239B0027
:100950000633CB60B2F5503F33D14FF4E8238B62BE
:100960007047184BD8789A7842EA00225B7843EABD
:1009700002230B600133144AB2FBF3F38B60134A7A
:10098000B2FBF3F34B6070470E4B1879DA7842EA0A
:1009900000209A7842EA00225B7843EA022301337E
:1009A0009B008B627047074B1879DA7842EA002087
:1009B0009A7842EA00225B7843EA02239B000633DE
:1009C000CB60704798F4022000879303001C4E0E02
:1009D00010B52024054B1C60962001F0FBF8044B59
:1009E0001C60642001F0F6F810BD00BF84F00F40D9
:1009F00088F00F4008B50220002100F00DFF0E2006
:100A0000002100F009FF0720002100F005FF082069
:100A1000002100F001FF0620002100F0FDFE14205F
:100A2000002100F0F9FE1520002100F0F5FE052060
:100A3000002100F0F1FE0D20012100F0EDFEFFF796
:100A4000C7FF0348FFF70EFD0022024B1A6008BDE6
:100A5000008793036C0CFF1F08B50F4B1B7813B175
:100A6000012B03D012E0FFF76FFD08BD0B4B9A7905
:100A70000132D2B29A7198545B7993420BD10748F4
:100A8000FFF790FE0022044B1A7008BDFFF7A0FF8D
:100A90000022014B1A7008BD90F4022098F4022045
:100AA00084B0124B1B6893B1114A12680192019AEB
:100AB00093420CD220220F4B1A6000220B4B1A607B
:100AC0000B4B1B680293029A0F320B4B1A600A4BB6
:100AD0001B6843B1064A12680392039A934202D2FA
:100AE0000022054B1A6004B0704700BF94F4022046
:100AF000A4F4022088F00F40640CFF1F82B0074B63
:100B00001B684BB9064B1B680193019A9632054B43
:100B10001A602022044B1A6002B07047640CFF1F59
:100B2000A4F4022094F4022084F00F4082B0074B1A
:100B30001B684BB9064B1B680193019A0A32054B9F
:100B40001A602022044B1A6002B07047640CFF1F29
:100B5000A4F4022094F4022084F00F400A4B1A6897
:100B600042F400021A60094B1A6822F002021A606D
:100B700003F5847300221A60054A10601A6842F077
:100B800001021A60704700BF3C80044000700340BF
:100B900000710340064B1A6822F002021A604FF4FB
:100BA000001203F5BA731A600122024B1A707047E3
:100BB00010E000E0680CFF1F0B4B1B6813F4803F34
:100BC00004D00A4B1A6842F080621A60064B1A6819
:100BD00042F002021A604FF40012F4331A6000224D
:100BE000034B1A70704700BF10E000E004ED00E016
:100BF000680CFF1F2DE9F84F80468946476C10F1BD
:100C0000340F04D00123C3602022304B1A60FFF759
:100C1000C1FFD8F8486098F8345098F838209346C7
:100C2000DFF8B8C02A4C00233946624618461F46F2
:100C3000002D00F011801378237813F0FB0F40F0A3
:100C40002A801F46137803EA050058457FF4F4AF65
:100C500003EB072700F004B8177813783F021F440E
:100C600013783F021F4413783F0207EB0300177805
:100C700041F8040B137803EB0727137803EB0727DE
:100C8000137803EB0720B14241F8040B1778FFF605
:100C9000E4AF00F002B84FF00104C8F8486088F8EB
:100CA000345088F838B0FFF787FF012C05D1202297
:100CB000084B1A600022084B1A600123C9F8003063
:100CC0002022044B1A60BDE8F88F00BF84F00F406B
:100CD0008020074088F00F406C0CFF1FD0F00F40C1
:100CE0002DE9F04F8DB003908946446C0594856CD6
:100CF000066A049606F1FF385FFA88F80369013343
:100D00009A00A246C4EB050B5B0303EB9B2B90F808
:100D100034302BB1151F25442022674B1A6000E0A8
:100D2000043DFFF737FF039FBB6C97F8340097F83B
:100D300038107A6C0093059C02940A958DF8270070
:100D40008DF826105D4D0B955D4E08960792CDF8F7
:100D500004B0002706970A989DF827C05FFA81FE25
:100D60003946BCF1000F00F0528000BF297800BF67
:100D700000BF00BF00BF00BF00BF2F7807EB0121FD
:100D800000BF00BF00BF00BF2F7807EB012100BFED
:100D900000BF00BF00BF2F7807EB012144F8041B00
:100DA0008442FFF6E3AF297800BF00BF2F7807EB3E
:100DB0000121377817F0FB0F2F7807EB012140F066
:100DC0004A8000BF2F7807EB012144F8041BA3429F
:100DD00098BF1446297807EA0C0777457FF4E6AFF9
:100DE0002F7807EB0121A4EBDB2090422F7807EB53
:100DF00001214FEA4B5B38BF00EBDB202F7807EB7C
:100E0000012144F8041BA34298BF4FEA0204297849
:100E100000BF00BF00BF2F7807EB012100BF00BF5C
:100E200000BF00BF2F7807EB012100BF00BF00BF4C
:100E300000BF2F7807EB012144F8041BA34298BFA1
:100E4000144600BF297800BF00BF00BF84427FF472
:100E5000E2AF00F002B84FF001060A90039CA364D1
:100E600084F834C084F838E06264FFF7A5FE012EF0
:100E700005D12022134B1A600022134B1A60039DE8
:100E800095F8343033B12E690A9F07EB8606059634
:100E9000032300E04346059CCAEB0406B610049DFC
:100EA000EFB207FB0687FF1AC9F800702022054B36
:100EB0001A600DB0BDE8F08F84F00F40D0F00F4005
:100EC0008020074088F00F406C0CFF1F2DE9F04F89
:100ED0008FB080460D91056A0B95836AB3FBF5FAD6
:100EE000456C0895D0F848908669C7690B9D6B1EC4
:100EF000DBB209935C1C90F83450059590F838509B
:100F00000495858F0395059D4DB10369089D05EBFB
:100F1000830BD94588BF002505D8002500E00425AE
:100F2000A9F1040BFFE7FFF735FE4FEA8A0ACDF877
:100F300030A009980A90089900220792764B4FF04A
:100F4000010EDFF8E0C10290069104E0019D0495D6
:100F5000022500E00525186870B9186860B918689E
:100F600050B9186840B9186830B9186820B91868BD
:100F700010B918680028EED0C3F800E0BA40DCF8D9
:100F8000000030400244013C28D141F8042B89453F
:100F90000ED8DFF894A19AF8002012F0FB0F06D0CB
:100FA00020225E4B1A6000225D4B1A6093E0069986
:100FB0001A6872B91A6862B91A6852B91A6842B9DD
:100FC0001A6832B91A6822B91A6812B91A68002A5E
:100FD000EED0C3F800E0DCF80020029C012D27D100
:100FE000059810400190DDF810A05045B3D103984A
:100FF0000028ABD1DDF81CA0D8F83000824508DB12
:10100000D8F81000A1EB800B019804900A940325F6
:10101000A1E7DDF81CA00AF1010ACDF81CA0C2442A
:101020009AF8340005909AF838A0CDF810A092E70D
:10103000052D90D80FF2040A5AF825F0A7100000E9
:10104000570F000055100000CD100000BB1000002D
:101050009F1000000398013803907FF47CAFD8F80C
:101060003000079D854206DBD8F81000A1EB800B0D
:101070000A9403256FE7DDF81CA00AF1010ACDF8F8
:101080001CA05046404490F83450059590F8380024
:10109000049008EB4A00808F039075465BE7594542
:1010A0007FF459AF17E05945FFF455AF2020DFF822
:1010B0007CA0CAF8000075464DE7089DAB45BFF41B
:1010C00049AFDDF830A0D344052544E72020134D77
:1010D000286004253FE7FFF76FFDD8F810300BEBD1
:1010E0008303089D5B1B9B10DDF82CA05FFA8AF23E
:1010F000099D02FB0353DDF828A0CAEB03030D9DF5
:101100002B60D8F82820934224BFC2EB03032B6046
:101110000FB0BDE8F08F00BF0C71034088F00F40A6
:101120006C0CFF1FD0F00F408020074084F00F4070
:1011300084B08DE80F001399089BB1FBF3F2581EA1
:1011400003FB1213C31A079800FB03F3119850F81E
:101150002200D840069A1040C0B204B0704700BFC9
:1011600084B02DE9F04F95B01EAC84E80F002A9FA3
:10117000002F6DDB239C12940DF1780A56464FF038
:1011800000094FF0FF3411946FF0060807F11C03BB
:101190000AEB4304139451E0B4F1704F41D22A9703
:1011A0000F94EE460DF1880CBCE80F00AEE80F007E
:1011B000BCE80F00AEE80F00BCE80F00AEE80F007F
:1011C0009CE807008EE807000DF1780E9EE80F00FE
:1011D000FFF7AEFF96F8342096F83830104083427F
:1011E0001FD122464F4510D115F1070F04D0139C93
:1011F000A388D318119300E01194129C022C16D1ED
:101200000BF1FF33319C236011E015F1070F0DD076
:10121000BAF83C80A844B8F1000FC8BF6FF00608C8
:1012200005E001350134012DB6D100E0A84609F1F1
:1012300001090AF1020A0136B9450CDCB8F1000FC8
:10124000F5DC319CD4F800B008EB0B044546A3E76D
:101250004FF0FF341194319C2368119CA34224BFAA
:1012600031990C6015B0BDE8F04F04B0704700BF75
:1012700084B02DE9F04F95B01EAC84E80F00219F9B
:10128000249C1094279EDDF8A0B0DDF8A4809DF882
:10129000AC309BB131AB0F936C4622AD0FCD0FC478
:1012A0000FCD0FC40FCD0FC495E8070084E80700E9
:1012B0000DF1780E9EE80F00FFF752FF319BBB4205
:1012C00004D313F5803F88BF3B4600E03B46DB1B61
:1012D000129308F1FF33129C1C4411945C4523BF08
:1012E000CBEB04041194012400241394B04512D2D2
:1012F0004546544C4FF0550A4FF0AA0923681B6825
:1013000020465146984723681B682046494698471F
:101310000235B542F2D3139C4CB10BF1FF35DDF829
:1013200044904C46002CB8BF552449DB02E0119D87
:10133000552445E05524DDF840E05FFA8EFA6FEA67
:101340000A02119213954D4633464646B9465F460A
:1013500093469846CDF88490109B2493CDF89C80BA
:10136000289729960F95EE460DF1880CBCE80F00E2
:10137000AEE80F00BCE80F00AEE80F00BCE80F00BD
:10138000AEE80F009CE807008EE807000DF1780E2C
:101390009EE80F00FFF7CCFE00EA0A0004EA0B0308
:1013A0001844C0B201F092FAE443E4B2013DB5F151
:1013B000FF3FCFD1139DBB464346B0464F461E4626
:1013C000129AAA4239DC109B5FFA83F96FEA090A84
:1013D0001196464690463B465F469B46CDF884B004
:1013E000109A2492119B2793289729960F95EE46E1
:1013F0000DF1880CBCE80F00AEE80F00BCE80F0050
:10140000AEE80F00BCE80F00AEE80F009CE8070054
:101410008EE807000DF1780E9EE80F00FFF788FEBA
:1014200000EA090004EA0A031844C0B201F04EFAC7
:10143000E443E4B2013DA845D0DD15B0BDE8F04F6E
:1014400004B070479CF5022070B592B0044620228B
:10145000594B1A60836A4362B3F5FA1F05D94FF4FA
:10146000FA1383620123436111E0B3F57A2F02D9A5
:10147000012343610BE0B3F5FA2F02D90223436144
:1014800005E0B3F57A3F8CBF042308234361A36AC8
:10149000E2689A4288BFE3606268082A0FD808228F
:1014A0006261B3F57A3F0AD9E26893420CBF4FF408
:1014B0007A334FF4FA33E3604FF47A33A362236B49
:1014C000002BBCBF002323636369022B09D0042BCC
:1014D0000ED0012B13D1202323620123A361E361EA
:1014E00013E0102323620323A3610223E3610CE0D2
:1014F000082323620F23A3610423E36105E004238F
:101500002362FF23A3610823E361A26AE262236AE4
:1015100002EB8302A26229496164B2FBF3F001EBA2
:101520008001A16494F8341019B1E168521AE260A4
:1015300001E00022E260E268B2FBF3F301332361D1
:10154000002311932068FFF709FB6368052B07D878
:1015500002221B4B1A70204611A9FFF74BFB10E02B
:10156000082B07D80222164B1A70204611A9FFF744
:10157000B7FB06E00022124B1A70204611A9FFF7B4
:10158000A5FC104B1B6893B1119B0F936D4604F1A2
:1015900010060FCE0FC50FCE0FC50FCE0FC596E8A4
:1015A000070085E8070094E80F00FFF761FE0022BE
:1015B000044B1A6012B070BD88F00F40780CFF1F0A
:1015C000700CFF1F6C0CFF1F70B596B000230693C4
:1015D000079308220892FF2109910A9204220B9294
:1015E0000C930D938DF840300F93124E124D134C07
:1015F00001F0C4F8002807DDFFF798FA01F072F84F
:10160000C0B203A9FFF728FA336813B103A8FFF7A4
:101610001BFF2B680193019A2368D31AB3F5FA6F65
:1016200005D92B680293029B2360FFF767FAFFF747
:1016300037FADDE76C0CFF1FA4F40220A0F40220AF
:10164000044B00221A6004490A60044A1060102208
:101650001A60704714D0034004D0034000D0034008
:1016600030B4DFED4C7AB4EEE70AF1EE10FA4CBF7D
:1016700002240124484A47F6122148BF0A4607EED1
:10168000902AFBEEC87AB4EEE70AF1EE10FA13DA0C
:1016900001239FED427A22FA03F107EE901AF8EE49
:1016A000677A67EE877AB4EEE70AF1EE10FA04DAA9
:1016B0000133072BEFD100E00023DA4007EE102AB8
:1016C000F8EE477A87EE800AF6EE007A30EE670A87
:1016D000BCEEC00A4FF6FF7210EE101A914228BFFE
:1016E0001146C21ED2B2012A0CD82D4A0020106029
:1016F0002C4D28602C48016003F0070343EAC40422
:10170000146045E0A0F10902D2B2012A08D9A0F183
:101710001402D2B2032A03D9421FD2B2012A0CD832
:10172000224A00201060224D28602248016003F008
:10173000070343EAC40414602AE0A0F11D02D2B2F8
:10174000012A0CD81C4A002010601C4D28601C483F
:10175000016003F0070343EAC404146018E00228A0
:101760000AD00E2808D0C21FD2B2012A04D9A0F193
:101770002302D2B2032A0BD8124A00201060124D65
:1017800028601248016003F0070343EAC4041460B0
:1017900030BC7047C0E1E44000879303000080370D
:1017A00000900340049003400890034000800340F1
:1017B000048003400880034000800B4004800B40FD
:1017C00008800B4000900B4004900B4008900B40A9
:1017D00039281ED80F4B53F8303093F8802212F07E
:1017E000FF0F08D019B1012283F880207047012231
:1017F00083F800217047074B03EBC000436821B119
:101800001A6842F003021A6070471A6822F0020256
:101810001A607047545B000039284AD8254B03EB07
:10182000C0035B68012911D004291DD0214A52F858
:101830003020002082F8800200292FD0022931D0E8
:1018400003291FD040F203121A607047194A52F858
:101850003020012182F880124FF4A2721A601A68B7
:1018600022F020021A607047124A52F830200121FB
:1018700082F880124FF4A2721A601A6842F02002B5
:101880001A6070474FF480721A601A6842F00202C0
:101890001A601A6822F001021A6070474FF48072D1
:1018A0001A6070474FF480721A601A6842F003029F
:1018B0001A607047545B000010B50446A0F12A037B
:1018C000DBB2012B15D8854B1B780B2B03D8C3F14A
:1018D0000C03994003E00C2B84BF0C3B19412A2CCC
:1018E00003D1084601F046F910BD084601F05EF943
:1018F00010BD7A4B1B78012202FA03F0002908DCA4
:1019000020460021FFF764FF20460121FFF784FFF6
:1019100010BD884208D820460121FFF759FF204614
:101920000121FFF779FF10BDE01EC0B2012806D8E3
:101930006B48006800FB011222FA03F30BE0A4F1EC
:101940001D00C0B2012894BF66486748006800FBCC
:10195000011222FA03F3A01E242800F2B380DFE86C
:1019600010F079005D0064005600410087008E0091
:1019700033003A00B100B100B1008000B100B10005
:10198000B100B100B10048004F0025002C00B100AB
:10199000B100B100B100B1006B007200B100B10044
:1019A000B100B10095009C00A300AA004F4A13604B
:1019B00040F244424E4B1A6010BD4E4A136040F252
:1019C00044424D4B1A6010BD4C4A136040F24442F1
:1019D0004B4B1A6010BD4B4A136040F244424A4BD5
:1019E0001A6010BD494A136040F24442484B1A60E5
:1019F00010BD484A136040F24442474B1A6010BD84
:101A0000464A136040F24442454B1A6010BD454AB5
:101A1000136040F24442444B1A6010BD434A1360C5
:101A20004FF45172424B1A6010BD424A13604FF49A
:101A30005172414B1A6010BD404A13604FF451720D
:101A40003F4B1A6010BD3F4A13604FF451723E4B3A
:101A50001A6010BD3D4A136040F244423C4B1A608C
:101A600010BD3C4A136040F244423B4B1A6010BD2B
:101A70003A4A136040F24442394B1A6010BD394A69
:101A8000136040F24442384B1A6010BD374A13606D
:101A90004FF45172364B1A6010BD364A13604FF442
:101AA0005172354B1A6010BD344A13604FF45172B5
:101AB000334B1A6010BD334A13604FF45172324BEE
:101AC0001A6010BD20467F29D4BF00210121FFF7F5
:101AD0007FFE20460121FFF79FFE10BD6407FF1F18
:101AE0000890034008800B400880034010800340AA
:101AF00004B004401880034008B004402080034034
:101B00000CB004402880034010B0044030800340F3
:101B100010C004403880034014C00440408003409B
:101B200018C00440488003401CC00440109003408B
:101B300030900440189003403490044010800B40D3
:101B400048A0044018800B404CA0044010900B406B
:101B500000C0044018900B4004C0044020900B408B
:101B600008C0044028900B400CC0044030900B404B
:101B700020B0044038900B4024B0044040900B400B
:101B800028B0044048900B402CB0044072B60D4B76
:101B90001B680D4A12680D49096862B611F0806F22
:101BA00002D0322B88BF0132C3F56A3303F27F13B0
:101BB0000749A1FB0303DB094FF47A7000FB0230F5
:101BC000704700BF18E000E0A4F4022004ED00E03C
:101BD0008988888838B50546FFF7D8FF044625B9B7
:101BE00038BD013D0AD004F57A74FFF7CFFF001B22
:101BF000B0F57A7FF5D200F003FFF6E738BD00BFFD
:101C000070B5344B4FF000621A604FF080521A608A
:101C10004FF000521A604FF080421A604FF00042BD
:101C20001A6000202C4B18604EF6FF7104331960C7
:101C300028232A4A136008321360083213600832DE
:101C400013600832136008321360083213600832E0
:101C50001360234D2B60234C236002F5002202F613
:101C6000D8721360083213600832136008321360B0
:101C7000083213600832136009221B4E326006F5E9
:101C800080560436306004363160043633600836DE
:101C90003360143E326006F5FE26043630600436AA
:101CA00031600436336008363360143E326006F526
:101CB0008056043630600D4801602B6023600C4B69
:101CC0001A6000F0CDFE4FF4C870FFF783FF00F0FC
:101CD00075FC70BD04E100E0048003400C8003400B
:101CE0000C900B4014900B400080034008900B4078
:101CF00000900B4030B40E4B1B7843F002020D4CA9
:101D000004EBC20460600C48007800280CBF8824F3
:101D1000C82444EA0141074D45F8321080F0010023
:101D2000054A107083F00103014A137030BC7047FC
:101D300010F502200000FF1F89F5022010B4431E99
:101D4000032B11D872B60A4A52F8230050B14268E8
:101D5000074941F82320074A32F813400188611AE5
:101D600022F8131062B600E000205DF8044B7047C3
:101D700000F5022014F90220013803280DD872B6AC
:101D8000074B53F820302BB1002001305B68002B4B
:101D9000FBD100E0002062B670470020704700BF12
:101DA00054F5022038B572B601231B491B4C5A1852
:101DB00012F8012C12F0080F24D09A0054F8325077
:101DC0006DB9164B03EBC20108304860144943F863
:101DD0003210144B1A78013A1A7062B638BD42F0CC
:101DE000010254F832506DB90C4B03EBC2010830BC
:101DF00048600D4943F832100A4B1A78013A1A70BC
:101E000062B638BD0133052BD1D162B60022054B35
:101E10001A7000F03DFC38BD505D00000000FF1F4F
:101E2000880040007EF50220C800400010B4431E28
:101E3000032B37D8400140F010001C4A104472B602
:101E40001B4AD25C032A09D8DFE802F019021B05FD
:101E50000830022216E00830042213E0154A52F836
:101E600023201AB9134A42F8231003E0124A52F809
:101E700023205160104A42F8231062B612E0032278
:101E800000E005220A4CE25401F10803436000F02F
:101E90000803002B0CBF8823C8230A8843EA0243A7
:101EA000036062B65DF8044B704700BF0000FF1F7F
:101EB000BCF4022054F5022064F502202DE9F84F0D
:101EC000A34CDFF8E092DFF8E0A2DFF8E0B225787B
:101ED000EDB215F0040F1DD09E4B1B7813F0FF0FD1
:101EE00016D09D4B1B7803F0FF022BB1531EDBB2C3
:101EF000994A137003B900BE984B1B7803F0FF0298
:101F000033B1531EDBB2954A13700BB900F01CFDC0
:101F10000423237015F0080F00F0E48299F80030D4
:101F2000DBB21D0940F021828D4D9E0805EBC603F2
:101F30005A6855F83630C3F38303013B0C2B00F28B
:101F40001082DFE813F0CB01CB010E020E020E026D
:101F50000E020E020E02E8010E020E020E020D002B
:101F6000804913680B6052684A607F4A45F8362002
:101F700000227E490A607A490A618A6101217C4A0D
:101F800011709BB240F28162934218D8B3F5D06FC2
:101F90002ED2B3F5817F00F01E8106D8802B00F091
:101FA000C980822B00F0CC8066E140F2023293427D
:101FB00000F02681B3F5A06F00F062815CE142F28F
:101FC0002102934200F0868107D8B3F5086F00F034
:101FD000AB80B3F5106F11D04EE142F22122934253
:101FE00000F0418142F22132934200F0498143E105
:101FF000604B5D68002D40F0188130E1594B9A78B4
:10200000544B1A70564D05F180062B6A13F0800F61
:1020100003D0686A083800F03BFB0835B542F4D1BC
:10202000DFF88C8100263746534AB05828B14568FE
:1020300000F02EFB0DB12846F9E700234E497350FE
:102040004E4AB3504E4BF05828B1456800F020FB83
:102050000DB12846F9E7002349497350494AB35066
:1020600028F8023F484BFB5C023B032B0AD8DFE811
:1020700003F0020602060022434BDA5502E0012279
:10208000414BDA5501370436102ECDD100223F4B9B
:102090001A7001253E4EDFF81C81314F05EB080315
:1020A00013F8013C06F8043B13F0080F2DD000F0A4
:1020B000CFFA48B1A90007EB451200F108035360BD
:1020C000344A47F8312007E0AB00002247F83320BC
:1020D0002E4B1A7801321A7000F0BAFA58B1AB00E0
:1020E00043F0010307EBC30100F108024A601E4AF6
:1020F00047F8332009E0AB0043F00103002247F822
:102100003320224B1A7801321A70AA0042F00201E1
:10211000002347F8313042F0030247F832300135EE
:102120001D4B9E42BAD11EE20A4B1B781B4D2B70F1
:102130000127AAE0194D00232B706B700227A4E041
:10214000084B9B88042B37D90F22154B1A70C1E01E
:102150008020074088F5022011F502208AF5022030
:102160000000FF1F74F50220C8004000A8F4022000
:1021700089F50220545D000000F50220ACF4022035
:1021800054F5022064F50220BCF402207EF5022002
:10219000C420074088004000D420074080F502207A
:1021A000C020074090200740942007409820074017
:1021B00012F90220505D0000A04A002111705170F8
:1021C0009F4A12F8233013F0020F5CD09B4D01237D
:1021D0002B70022759E09B4B9B8803F07F03042B55
:1021E00002DC984A52881AB10F22954B1A7071E09E
:1021F000934A12F8231021F0020102F82310B2E1F1
:10220000904B9B8803F07F03042B02DC8D4A52889D
:102210001AB10F228A4B1A705CE0894A12F8231017
:1022200041F0020102F823109DE1864B5E889F88F1
:10223000854BA3F10C02114633F80C0CB04209D1C6
:1022400033F80A0CB84205D1360A032E0CBF2F789A
:1022500017891AE00D690C330C32002DEBD10F22D7
:10226000774B1A7036E0794B1A68794B1A60754BC8
:102270009A78784B1A7076E10F22714B1A7029E028
:1022800000273D4601E002276C4D6E4BDB889F42E4
:1022900028BF1F46402F34BF3E46402628463146C1
:1022A000FFF728FD3544BF1B03D13F2E00F26081AC
:1022B00010E0402F34BF3E46402628463146FFF707
:1022C00019FD3544BF1B01D13F2E03D9624B1D6060
:1022D000624B1F8001238AF8003042E0594B198875
:1022E00042F22103994212D15D4BD81D12F8011B15
:1022F00003F8011F8342F9D15A4B1B68862B02D188
:102300000F22594B1A7000200146FFF7F3FC574B80
:1023100045F8363025E0504B1E68BEB14F4FB7F838
:102320000080B8F1400F34BF45464025304629466D
:10233000FFF7E0FCC5EB08039BB23B800BB9402DD7
:1023400001D1354400E00025434B1D603D4B1B8807
:10235000B3F5A06F05D13B4B00225A709B788BF8E8
:10236000003001238AF80030B9E0414E9F0806EBA7
:10237000C708D8F80420A2F10800013DEDB213F01F
:10238000080F47D000F084F93A4B53F825304BB38F
:102390005A68384941F8252003F10802C8F804209A
:1023A000354A525D032A12D8DFE802F002060A0E0F
:1023B0000321314A51550AE002212F4A515506E0C6
:1023C00005212D4A515502E004212B4A515518F0A0
:1023D000080F0CBF8822C8221B8842EA034346F834
:1023E00037307CE0244B5B5D032B0BD8DFE803F038
:1023F000777702060022204B5A5570E001221E4BCF
:102400005A556CE018F0080F0CBF022203221A4B39
:102410005A5564E056F837301B0C22F8083C002B64
:1024200055D0002322F8063C42F8043C134B53F8E5
:1024300025302BBB114B43F8250025E080F5022009
:10244000C020074074F50220605D0000A4F4022063
:1024500024F9022098F50220A8F402207CF502203D
:102460001BF902201CF9022011F50220C8004000CF
:102470000000FF1F54F50220BCF4022000F50220EA
:102480003F4B53F8253058603D4B43F825003D4BFA
:1024900033F8151032F8082C0A4423F8152000F000
:1024A000D7F860B100F10803C8F8043018F0080F3D
:1024B000354B364A08BF134646F837300FE0002345
:1024C00046F83730324B1A7801321A7007E018F0AC
:1024D000080F2D4B2D4A08BF134646F83730082306
:1024E0002370F4E415F0010F22D02A4902230B7067
:1024F0000022294B1A70294B24481860284C5C6034
:1025000098602848D8601A619A610D20264B18708F
:10251000FF23264803700838037018300270244ADD
:1025200013709F22234B1A7001230B70BDE8F88FA4
:1025300015F0800F05D00D221B4B1A708022403BF6
:102540001A7015F0020F06D0184B1A78D2B21A7012
:102550000222083B1A7015F0100F0ED01022164BF5
:102560001A70BDE8F88F00200146FFF7C3FBB1E603
:1025700028460021FFF7BEFBACE6BDE8F88F00BFA0
:10258000ACF4022014F90220C8004000880040008A
:102590007EF502209420074010F502200000FF1F66
:1025A000C0F4022014F50220C02007408820074014
:1025B0008C200740842007408020074008B502F0A7
:1025C000BDFD00231C491A465A50C8184260083302
:1025D000882BF9D1194B1A6842F480221A60184BE3
:1025E0001A6842F040721A60134BC3F30721154A70
:1025F0001170C3F30741143211701B0E04321370B3
:10260000FF23343A137008321370783A13700123A1
:102610008432137000216C3211707C3A1370702276
:10262000094B1A704FF40012A3F231331A601022D2
:10263000064B1A7008BD00BF0000FF1F3480044025
:1026400000D800409C20074035E400E00821074006
:1026500072B60D4B1A68B2FA82F30B2B02D962B62E
:10266000002070474FF00041D94022EA010206499C
:102670000A6062B6054903EBC303DB00C8180022F9
:10268000CA504260704700BF6807FF1F0004FF1F69
:1026900008B50F4BC31A0F4AA2FB03131B090B2BE0
:1026A00014D80D4A12783AB10C4A127812F0FF0F82
:1026B00002D0FFF777FB08BD72B6094A4FF0004120
:1026C00021FA03F311681943116062B608BD00BF17
:1026D0000004FF1F398EE3387EF5022088F50220C2
:1026E0006807FF1F10B5134B1B6853B9124B1B78BB
:1026F00013F0FF0F18D00320FFF720FB0D4B1860DD
:10270000A8B10C4B186843885A1C03441C7A0388F0
:102710009A4206D3FFF7BCFF0022064B1A60204600
:1027200010BD4280204610BD4FF0FF3010BD4FF06D
:10273000FF3010BD94F5022088F5022008B50D4B3E
:102740001B6883B90C4B1B7813F0FF0F08D00320D4
:10275000FFF7F4FA074B186028B94FF0FF3008BDB7
:102760004FF0FF3008BD034B1B685A881344187A9A
:1027700008BD00BF94F5022088F50220044B98881C
:10278000044B1B681BB11A885B88D31A1844704726
:1027900014F9022094F5022010B50B4B1B7813F0AE
:1027A000FF0F0FD0094B186820B1FFF771FF00220F
:1027B000064B1A6003242046FFF7C0FA10B1FFF75A
:1027C00067FFF8E710BD00BF88F5022094F50220EE
:1027D0002DE9F04704460122364B1A700E460029B7
:1027E00063D0DFF8E080DFF8E0909A46324FD8F807
:1027F00000307BBB99F8003013F0FF0F06D10022A8
:102800002C4B1A704FF0FF30BDE8F0872B4D0420A1
:10281000FFF7B2FA07280AD801238AF80030FFF739
:1028200017FFC8F80000A8B900238AF80030013D5E
:1028300001D03B7833B101221F4B1A704FF0FF30AB
:10284000BDE8F08700F0DCF899F8003013F0FF0FD6
:10285000DDD1D4E700233B70D8F800104A88C2F1DC
:102860004005AE4238BF354602F108030B442A4406
:102870004A80761B3DB1254414F8012B03F8012B47
:10288000AC42F9D100E025464B883F2B07D94023C5
:102890000B800420FFF7CAFA0023C8F80030052295
:1028A000074B1A700EB12C46A1E70020014B18709F
:1028B000BDE8F0878BF5022090F5022081B501007C
:1028C0008AF502208CF5022088F5022000B583B03D
:1028D00002AB03F8010D18460121FFF779FF03B0A1
:1028E0005DF804FB10B5144B1B7813F0FF0F21D0DB
:1028F0000122124B1A70124B196851B10024114B6E
:102900001C704B880B800420FFF790FA0C4B1C6066
:102910000DE0FFF79DFE014630B10022094B1A7011
:102920000420FFF783FA02E00122064B1A7000220E
:10293000024B1A7010BD00BF88F502208BF50220F3
:102940008CF502208AF5022008B50E4B1B7813F097
:10295000FF0F16D10C4B196841B14B880B80042036
:10296000FFF764FA0022084B1A6008BDFFF770FEFB
:10297000014618B10420FFF759FA08BD0122034BA4
:102980001A7008BD8BF502208CF502208AF5022012
:1029900008B5FEF72FF8FEF717FE00F031F8FAE75A
:1029A00008B5FFF7EBFE08BD08B5FFF79BFE08BDB5
:1029B00008B5FFF7C3FE08BD08B5FFF793FF08BDD4
:1029C00008B5FFF7E9FE08BD08B50846FFF77EFF2A
:1029D00008BD00BF08B508461146FFF7F9FE08BD5F
:1029E000704700BF044B00221A714FF47A7199604E
:1029F0001A73024A1A6070479CF50220305D00008D
:102A000008B5164B1B7843BB0122144B1A70FFF715
:102A1000B5FE08B1FFF7E4FF00F0E4FB08B102F0F7
:102A200063FC00F063FF08B102F000FD01F036FA2C
:102A300008B102F09DFD01F0B9FC08B102F03AFEC8
:102A400001F05CFF08B102F0D7FE02F087FA08B18E
:102A500002F068FF0022014B1A7008BDACF502209D
:102A600060223A4B1A70E12201331A70384B1B78FE
:102A7000082B10D1212203F1804303F56C331A6037
:102A8000132334490B6001F5FF2101F2FC710A6048
:102A9000314A13601FE00A2B0DD139222F4B1A60E7
:102AA00013232C490B6001F5FF2101F2FC710A6030
:102AB000294A13600FE00C2B0CBF35225D22274BF7
:102AC0001A60122323490B6001F5FF2101F2FC710A
:102AD0000A60214A1360224B1B7833B10123214A3B
:102AE000136002F50022136005E000231D4A136005
:102AF00002F5002213601C4B1B78012B06D88023A3
:102B00001A4A136002F5002213601AE0042B06D85B
:102B10008423164A136002F50022136011E0082B8B
:102B200006D88523114A136002F50022136008E0DD
:102B3000102B94BF862387230C4A136002F50022D2
:102B4000136001220A4B1A70704700BF0040074013
:102B50006C07FF1F0CB003400CB00B4008B00340E3
:102B6000AEF5022020B003406D07FF1F24B00340E4
:102B7000ADF50220094B1A6842F480521A60084BE6
:102B80001B781BB18022074B1A7002E0C022054B54
:102B90001A7080F30C00044B188070472C8004409E
:102BA000AEF5022021C00C4000C00C40094B1A6851
:102BB00042F400521A60084B1B781BB18022074B6D
:102BC0001A7002E0C022054B1A7080F30C00044B0F
:102BD000188070472C800440AEF5022021D00C40B4
:102BE00000D00C40024B1A6801321A60704700BFD7
:102BF000A4F4022008B50D4C236813F4802F01D0F3
:102C0000FFF75CF9236813F4806F01D000F074FBC8
:102C1000236813F4006F01D000F0F2FE236813F470
:102C2000805FE9D001F0B0F9E6E700BF34800440EE
:102C300008B5FFF7DFFF00BF1022014B1A80704775
:102C400000200540704700BFEFF31383ABB9EFF3EB
:102C50001083ABB9EFF3058323B10F2B05D9094AD4
:102C6000985C03E04FF4807000E00020EFF31183E4
:102C70003BB1834238BF184670474FF0FF30704772
:102C800000207047F0E300E02B4B1A6842F48062AA
:102C90001A600023294A1370294A1370294A1370B5
:102CA000294A1370294A1370294B1B78152B07D01A
:102CB0001B2B0AD06BB940F21332264B1A6008E086
:102CC00040F21332244B1A6003E040F21332234BDC
:102CD0001A60234B1B78052B08D01A2B0BD0012B25
:102CE0000DD14FF451721F4B1A6008E04FF451722E
:102CF0001D4B1A6003E04FF451721C4B1A60C0F375
:102D000044321B4B1A70C0F347125A7000F01F0078
:102D1000987204229A700221D9745A7588221A7402
:102D20003C22DA704022134B1A704FF00042A3F29B
:102D30001F331A60704700BF348004403CF6022005
:102D4000B5F5022044F602203DF60220B4F502203B
:102D5000F8F5022040A0044018C004403C90044014
:102D60006E07FF1F44A004401CC00440389004407C
:102D700000A006401FE400E01B4B9B7803F0EC032F
:102D800000F00302134310F0040F18BF43F01003C8
:102D9000154A937000F00F03042B04D11346927967
:102DA00042F040029A71104B5A7902F0EF0210F093
:102DB000100F18BF42F010020B4B5A719B7903F0B1
:102DC000EF0310F0200F18BF43F01003064A937171
:102DD00010F4807F07D013465278D2B2197841F0B0
:102DE000200119705A70704700A0064010B5144BAE
:102DF0001B6813F4806F21D0124B1B7813F0FF0F68
:102E000006D0104CFFF7FCFD237813F0FF0FF9D12B
:102E10004FF000420C4B1A6000230C4AD37040F272
:102E200003120B490A6004310A600A4A13700A4A05
:102E300013700A4B1B680BB101221A7010BD00BF42
:102E400034800440B4F5022080E100E000A0064098
:102E500040A004403CF60220B5F50220B0F5022067
:102E600010B50446094A137813F0FF0FFBD1204632
:102E70000121FEF7D1FC20460021FEF7A9FC044BFE
:102E800053F83420034B1A6010BD00BFB4F5022084
:102E9000545B000040F6022010B40C4609B140F02B
:102EA00080001D4B1B78984233D01C4A126812F4E4
:102EB000806F2CD003F07F03052B07D01A2B09D08D
:102EC000012B0AD10022164B1A6006E00022154B96
:102ED0001A6002E00022144B1A60002C0CBF44223E
:102EE000602200F07F03052B08D01A2B0BD0012B9A
:102EF0000DD142F440720A4B1A6008E042F440726D
:102F0000084B1A6003E042F44072074B1A60024B10
:102F100018705DF8044B70476E07FF1F3480044043
:102F200044A004401CC0044038900440174B1B7858
:102F3000984229D0164A126812F4806F22D0152BBD
:102F400006D01B2B08D053B90022124B1A6006E0A2
:102F50000022114B1A6002E00022104B1A60152863
:102F600007D01B280AD068B940F21332094B1A6007
:102F700008E040F21332084B1A6003E040F21332CB
:102F8000064B1A60014B1870704700BFF8F502201D
:102F90003480044040A0044018C004403C900440E9
:102FA00010B50D4B1B6813F4806F12D039280CD864
:102FB0000A4C0B4B53F8303023600121FEF72CFCF8
:102FC000236800221A70012010BD0020034B1860F6
:102FD00010BD002010BD00BF34800440B0F50220B9
:102FE000545B0000114B1B6813F4806F1BD0122838
:102FF00004D140F202320E4B1A600DE0142804D1C5
:1030000040F202320B4B1A6006E00B4B5A7B02F087
:10301000FE025A7300207047074B5A7B42F00102B0
:103020005A73012070470020704700BF348004406D
:103030000CA0044014C0044000A006402DE9F0415B
:1030400007461F4B1B6813F4806F37D01D4B1B685E
:103050000BB101221A701C4B1C780134402C28BF84
:1030600000241A4D1A4EDFF86C8017E0FFF7ECFDD4
:1030700040280FDC337913F0800F0FD02B78013309
:10308000402B28BF002318F80320D2B2F271DBB224
:103090002B7003E0FF2801DDFFF7B2FC2B78DBB2D9
:1030A0009C42E3D0FFB20B4B1F5501220A4B1A7012
:1030B000E4B2054B1C70BC22054BDA70BDE8F08110
:1030C0003480044040F6022044F602203DF60220FF
:1030D00000A00640B8F50220B4F502202DE9F84F13
:1030E0000746284B1B6813F4806F49D0264B1B689A
:1030F0000BB101221A7007EB010B5F453DD2DFF8DF
:103100009890224EDFF88C80DFF890A099F800406C
:103110000134402C28BF00243578EDB2A54220D1DF
:10312000BC2388F80330FFF78FFD402811DC98F8A6
:10313000043013F0800F10D033780133402B28BFB8
:1031400000231AF80320D2B288F80720DBB23370CC
:1031500003E0FF2801DDFFF753FC3378DBB29D422B
:10316000E1D017F8013B0AF804300122084B1A702D
:10317000E4B289F800405F45C8D1BC22054BDA7043
:10318000BDE8F88F3480044040F602203DF602206E
:10319000B4F5022000A0064044F60220B8F5022053
:1031A00010B5064B1B7813F0FF0F06D0034CFFF74A
:1031B00027FC237813F0FF0FF9D110BDB4F50220DE
:1031C000064B1B78DBB2064A1278D2B293422CBF70
:1031D0003F3202F1FF32D01A704700BF44F602209E
:1031E0003DF60220054B1878C0B2054B1B78DBB2C8
:1031F000984238BF4030C01A704700BF3CF60220EA
:10320000B5F5022010B4184B1A78D2B2174B1B78C0
:10321000DBB29A4218D001333F2B18D81449C85C4E
:10322000C0B2DCB211490C7012490968C9B19A42A6
:1032300003D300E00023D31A01E04032D31A1A2B43
:103240000FDC00230B700CE04FF0FF3009E0084B5F
:103250001878C0B20021054B1970064B1968002977
:10326000E8D15DF8044B70473CF60220B5F502202A
:10327000FCF50220B0F50220094B1A78D2B2094BB6
:103280001B78DBB29A4207D00133402B28BF0023C2
:10329000054AD05CC0B270474FF0FF30704700BFA6
:1032A0003CF60220B5F50220FCF502200D4B1B6810
:1032B00013F4806F14D00C4BDA7802F0CB02DA7082
:1032C00040225A74DA7842F03402DA70074B1A78E6
:1032D000D2B2074B1A70074B1B680BB100221A7051
:1032E000704700BF3480044000A00640B5F50220BE
:1032F0003CF60220B0F5022070B43D4B1B7913F070
:10330000300F33D072B63A4B9B7D03F0FF022BB9DE
:10331000374BDA7940225A7462B627E062B6354BF1
:103320001978C9B2344B1C78E4B2314D334EEB7985
:10333000D8B24B1C402B28BF0023A3421CBFF05423
:103340001946531E13F0FF02F1D1CAB2294B1A706D
:103350002B4B1B6853B1A1422EBFC4EB0101C4F13A
:10336000400409192729C4BF01221A70204BDA78BA
:10337000D2B212F0800F27D01B7913F0800F23D028
:10338000204B1C78E4B2204B1B78DBB29C4210D05F
:1033900017491E4D01E0A3420BD00133402B28BF3B
:1033A00000230879E85CC0B2C871087DC0B2072864
:1033B000F1D9DBB214490B700D4B1B7913F0800F60
:1033C00002D07C210A4BD97012F0400F0ED0084B6E
:1033D0001B7913F0400F09D000220D4B1A700D4BD2
:1033E0001B6803B11A703C22014BDA7070BC704745
:1033F00000A006403CF60220B5F50220FCF50220B4
:10340000B0F5022044F602203DF60220B8F5022075
:10341000B4F5022040F60220244B1A6842F4006200
:103420001A600023224A1370224A1370224A137032
:10343000224A1370224A1370224B1B78092B02D0A8
:103440001A2B05D008E040F213321F4B1A6003E03C
:1034500040F213321D4B1A601D4B1B780A2B02D011
:103460001F2B05D008E04FF451721A4B1A6003E08D
:103470004FF45172184B1A60C0F34432174B1A7054
:10348000C0F347125A7000F01F009872042199701F
:103490000222DA745975882119743C21D9704021AF
:1034A0000F4B1970A3F21D331A607047348004402B
:1034B000B8F602204DF60220C0F60220B9F602202E
:1034C0004CF602206F07FF1F0CB0044038900440F8
:1034D0007007FF1F10B0044028A0044000B0064051
:1034E00021E400E01B4B9B7803F0EC0300F00302A7
:1034F000134310F0040F18BF43F01003154A9370E4
:1035000000F00F03042B04D11346927942F04002DD
:103510009A71104B5A7902F0EF0210F0100F18BF99
:1035200042F010020B4B5A719B7903F0EF0310F03D
:10353000200F18BF43F01003064A937110F4807FE8
:1035400007D013465278D2B2197841F02001197091
:103550005A70704700B0064010B51A4B1B6813F440
:10356000006F2DD0184B1B7813F0FF0F06D0164CB0
:10357000FFF746FA237813F0FF0FF9D10222134B1D
:103580001A600022124BDA70124B1B78092B03D100
:1035900040F20312104B1A60104B1B7803F07F03AC
:1035A0000A2B03D140F203120D4B1A6000230D4A7F
:1035B00013700D4A13700D4B1B680BB101221A706A
:1035C00010BD00BF348004404CF6022084E100E0CE
:1035D00000B006406F07FF1F0CB004407007FF1FCC
:1035E00010B00440B8F602204DF6022048F6022042
:1035F00010B50446094A137813F0FF0FFBD120469B
:103600000121FEF709F920460021FEF7E1F8044BFD
:1036100053F83420034B1A6010BD00BF4CF6022053
:10362000545B0000BCF6022010B40C4609B140F017
:103630008000104B1B78984219D00F4A126812F480
:10364000006F12D003F07F030A2B02D100220B4B34
:103650001A60002C0CBF4422602200F07F030A2B6A
:1036600003D142F44072054B1A60024B18705DF8AA
:10367000044B70477007FF1F3480044010B00440B3
:103680000B4B1B78984211D00A4A126812F4006F53
:103690000AD0092B02D10022074B1A60092803D156
:1036A00040F21332044B1A60014B1870704700BF90
:1036B0006F07FF1F348004400CB0044010B50D4B61
:1036C0001B6813F4006F12D039280CD80A4C0B4B2E
:1036D00053F8303023600121FEF79EF82368002262
:1036E0001A70012010BD0020034B186010BD00208F
:1036F00010BD00BF3480044048F60220545B000037
:103700000D4B1B6813F4006F13D017280AD140F239
:1037100002320A4B1A600A4B5A7B42F001025A737A
:1037200001207047064B5A7B02F0FE025A730020BC
:1037300070470020704700BF3480044008B0044048
:1037400000B006402DE9F04107461F4B1B6813F4FB
:10375000006F37D01D4B1B680BB101221A701C4B38
:103760001C780134282C28BF00241A4D1A4EDFF88B
:103770006C8017E0FFF768FA40280FDC337913F00C
:10378000800F0FD02B780133282B28BF002318F887
:103790000320D2B2F271DBB22B7003E0FF2801DD0F
:1037A000FFF72EF92B78DBB29C42E3D0FFB20B4B34
:1037B0001F5501220A4B1A70E4B2054B1C70BC2243
:1037C000054BDA70BDE8F08134800440BCF602207D
:1037D000C0F60220B9F6022000B0064050F60220E2
:1037E0004CF602202DE9F84F0746284B1B6813F4CE
:1037F000006F49D0264B1B680BB101221A7007EBF2
:10380000010B5F453DD2DFF89890224EDFF88C80A7
:10381000DFF890A099F800400134282C28BF00243C
:103820003578EDB2A54220D1BC2388F80330FFF7EC
:103830000BFA402811DC98F8043013F0800F10D0F8
:1038400033780133282B28BF00231AF80320D2B283
:1038500088F80720DBB2337003E0FF2801DDFFF7B3
:10386000CFF83378DBB29D42E1D017F8013B0AF87C
:1038700004300122084B1A70E4B289F800405F4519
:10388000C8D1BC22054BDA70BDE8F88F3480044003
:10389000BCF60220B9F602204CF6022000B0064029
:1038A000C0F6022050F6022010B5064B1B7813F02C
:1038B000FF0F06D0034CFFF7A3F8237813F0FF0F98
:1038C000F9D110BD4CF60220064B1B78DBB2064A3C
:1038D0001278D2B293422CBF273202F1FF32D01AB3
:1038E000704700BFC0F60220B9F60220054B1878D9
:1038F000C0B2054B1B78DBB2984238BF4030C01ACB
:10390000704700BFB8F602204DF6022010B4184BE5
:103910001A78D2B2174B1B78DBB29A4218D0013317
:103920003F2B18D81449C85CC0B2DCB211490C70E6
:1039300012490968C9B19A4203D300E00023D31A9F
:1039400001E04032D31A1A2B0FDC00230B700CE07D
:103950004FF0FF3009E0084B1878C0B20021054B4A
:103960001970064B19680029E8D15DF8044B7047BF
:10397000B8F602204DF6022078F6022048F6022022
:10398000094B1A78D2B2094B1B78DBB29A4207D0A6
:103990000133402B28BF0023054AD05CC0B27047DA
:1039A0004FF0FF30704700BFB8F602204DF60220FE
:1039B00078F602200D4B1B6813F4006F14D00C4BEB
:1039C000DA7802F0CB02DA7040225A74DA7842F0E8
:1039D0003402DA70074B1A78D2B2074B1A70074BD1
:1039E0001B680BB100221A70704700BF348004407E
:1039F00000B006404DF60220B8F6022048F602203C
:103A000070B43D4B1B7913F0300F33D072B63A4B84
:103A10009B7D03F0FF022BB9374BDA7940225A74B1
:103A200062B627E062B6354B1978C9B2344B1C78C0
:103A3000E4B2314D334EEB79D8B24B1C402B28BF4A
:103A40000023A3421CBFF0541946531E13F0FF027B
:103A5000F1D1CAB2294B1A702B4B1B6853B1A1424A
:103A60002EBFC4EB0101C4F1400409192729C4BFCA
:103A700001221A70204BDA78D2B212F0800F27D0D0
:103A80001B7913F0800F23D0204B1C78E4B2204B1D
:103A90001B78DBB29C4210D017491E4D01E0A342B7
:103AA0000BD00133282B28BF00230879E85CC0B273
:103AB000C871087DC0B20728F1D9DBB214490B7078
:103AC0000D4B1B7913F0800F02D07C210A4BD9706B
:103AD00012F0400F0ED0084B1B7913F0400F09D0A5
:103AE00000220D4B1A700D4B1B6803B11A703C225B
:103AF000014BDA7070BC704700B00640B8F6022087
:103B00004DF6022078F6022048F60220C0F6022088
:103B1000B9F6022050F602204CF60220BCF6022034
:103B2000164B1A6842F480521A600023144A13702C
:103B3000144A1370144A1370144A1370144A137001
:103B400040F21331134A11604FF451710432116085
:103B5000C0F34431104A1170C0F34711517000F0A6
:103B60001F009072937013742C23D37040220B4B60
:103B70001A700822A3F21F331A6070473480044081
:103B800034F70220C9F602203CF7022035F7022064
:103B9000C8F6022008C0044000C0064023E400E04C
:103BA0001B4B9B7803F0EC0300F00302134310F06F
:103BB000040F18BF43F01003154A937000F00F0371
:103BC000042B04D11346927942F040029A71104BB3
:103BD0005A7902F0EF0210F0100F18BF42F01002F5
:103BE0000B4B5A719B7903F0EF0310F0200F18BFB5
:103BF00043F01003064A937110F4807F07D01346F8
:103C00005278D2B2197841F0200119705A70704779
:103C100000C0064010B5134B1B6813F4805F20D022
:103C2000114B1B7813F0FF0F06D00F4CFEF7E8FE88
:103C3000237813F0FF0FF9D108220C4B1A600023F0
:103C40000B4AD37040F203120A490A6004310A6039
:103C5000094A1370094A1370094B1B680BB1012202
:103C60001A7010BD34800440C8F6022084E100E0E0
:103C700000C0064008C0044034F70220C9F6022004
:103C8000C4F6022010B50446094A137813F0FF0F5A
:103C9000FBD120460121FDF7BFFD20460021FDF7A5
:103CA00097FD044B53F83420034B1A6010BD00BF3E
:103CB000C8F60220545B000038F7022010B40C460E
:103CC00009B140F08000104B1B78984219D00F4A80
:103CD000126812F4805F12D003F07F03082B02D128
:103CE00000220B4B1A60002C0CBF4422602200F013
:103CF0007F03082B03D142F44072054B1A60024B3C
:103D000018705DF8044B70477107FF1F3480044042
:103D10000CC00440704700BF10B50D4B1B6813F476
:103D2000805F12D039280CD80A4C0B4B53F8303036
:103D300023600121FDF770FD236800221A70012025
:103D400010BD0020034B186010BD002010BD00BF47
:103D500034800440C4F60220545B00000D4B1B6805
:103D600013F4805F13D00E280AD140F202320A4BBE
:103D70001A600A4B5A7B42F001025A7301207047C5
:103D8000064B5A7B02F0FE025A7300207047002057
:103D9000704700BF3480044004C0044000C00640A7
:103DA0002DE9F04107461F4B1B6813F4805F37D0A5
:103DB0001D4B1B680BB101221A701C4B1C7801347F
:103DC000282C28BF00241A4D1A4EDFF86C8017E00B
:103DD000FEF73AFF40280FDC337913F0800F0FD045
:103DE0002B780133282B28BF002318F80320D2B2E8
:103DF000F271DBB22B7003E0FF2801DDFEF700FE5D
:103E00002B78DBB29C42E3D0FFB20B4B1F55012253
:103E10000A4B1A70E4B2054B1C70AC22054BDA70E9
:103E2000BDE8F0813480044038F702203CF70220DE
:103E300035F7022000C00640CCF60220C8F602206A
:103E400038B505460C4629B115F8010BFFF7A8FF58
:103E5000013CF9D138BD00BF10B5064B1B7813F0FB
:103E6000FF0F06D0034CFEF7CBFD237813F0FF0FB6
:103E7000F9D110BDC8F60220064B1B78DBB2064A0A
:103E80001278D2B293422CBF273202F1FF32D01AFD
:103E9000704700BF3CF7022035F70220054B187829
:103EA000C0B2054B1B78DBB2984238BF4030C01A15
:103EB000704700BF34F70220C9F6022010B4184B37
:103EC0001A78D2B2174B1B78DBB29A4218D0013362
:103ED0003F2B18D81449C85CC0B2DCB211490C7031
:103EE00012490968C9B19A4203D300E00023D31AEA
:103EF00001E04032D31A1A2B0FDC00230B700CE0C8
:103F00004FF0FF3009E0084B1878C0B20021054B94
:103F10001970064B19680029E8D15DF8044B704709
:103F200034F70220C9F60220F4F60220C4F602207B
:103F3000094B1A78D2B2094B1B78DBB29A4207D0F0
:103F40000133402B28BF0023054AD05CC0B2704724
:103F50004FF0FF30704700BF34F70220C9F602204F
:103F6000F4F60220054B1A78D2B2054B1A70054BB5
:103F70001B680BB100221A70704700BFC9F60220FF
:103F800034F70220C4F602202F4B1B7913F0200FC8
:103F900023D02D4BDB79D9B22C4B1B780133402B2E
:103FA00028BF00232A4A1278D2B29A4204D0294A62
:103FB000D154D9B2254A1170274A116869B1274AEC
:103FC0001278D2B293422EBFC2EB0303C2F1400279
:103FD0009B18272BC4BF01230B701B4BDB78DBB274
:103FE00013F0800F1CD0184A127912F0800F17D0EE
:103FF0001B4A1178C9B2194A1278D2B2914203D140
:104000006C21114AD1700BE00132282A28BF00220E
:104010001449885CC0B20C49C871D2B20F490A7009
:1040200013F0400F0ED0084B1B7913F0400F09D04E
:1040300000220D4B1A700D4B1B6803B11A702C2215
:10404000014BDA70704700BF00C0064034F7022011
:10405000C9F60220F4F60220C4F6022035F7022049
:104060003CF70220CCF60220C8F6022038F70220E6
:10407000164B1A6842F400521A600023144A137057
:10408000144A1370144A1370144A1370144A1370AC
:1040900040F21331134A11604FF451710432116030
:1040A000C0F34431104A1170C0F34711517000F051
:1040B0001F009072937013742C23D37040220B4B0B
:1040C0001A702022A3F221331A6070473480044012
:1040D000B0F7022045F70220B8F70220B1F702201E
:1040E00044F7022028A0044000D0064025E400E068
:1040F0001B4B9B7803F0EC0300F00302134310F01A
:10410000040F18BF43F01003154A937000F00F031B
:10411000042B04D11346927942F040029A71104B5D
:104120005A7902F0EF0210F0100F18BF42F010029F
:104130000B4B5A719B7903F0EF0310F0200F18BF5F
:1041400043F01003064A937110F4807F07D01346A2
:104150005278D2B2197841F0200119705A70704724
:1041600000D0064010B5134B1B6813F4005F20D03D
:10417000114B1B7813F0FF0F06D00F4CFEF740FCDD
:10418000237813F0FF0FF9D120220C4B1A60002383
:104190000B4AD37040F203120A490A6004310A60E4
:1041A000094A1370094A1370094B1B680BB10122AD
:1041B0001A7010BD3480044044F7022084E100E00E
:1041C00000D0064028A00440B0F7022045F70220A6
:1041D00040F7022010B50446094A137813F0FF0F88
:1041E000FBD120460121FDF717FB20460021FDF7FA
:1041F000EFFA044B53F83420034B1A6010BD00BF94
:1042000044F70220545B0000B4F7022010B40C46BF
:1042100009B140F08000104B1B78984219D00F4A2A
:10422000126812F4005F12D003F07F03202B02D13A
:1042300000220B4B1A60002C0CBF4422602200F0BD
:104240007F03202B03D142F44072054B1A60024BCE
:1042500018705DF8044B70477207FF1F34800440EC
:104260002CA00440704700BF10B50D4B1B6813F421
:10427000005F12D039280CD80A4C0B4B53F8303061
:1042800023600121FDF7C8FA236800221A7001207B
:1042900010BD0020034B186010BD002010BD00BFF2
:1042A0003480044040F70220545B00000020704737
:1042B0002DE9F04107461F4B1B6813F4005F37D010
:1042C0001D4B1B680BB101221A701C4B1C7801346A
:1042D000282C28BF00241A4D1A4EDFF86C8017E0F6
:1042E000FEF7B2FC40280FDC337913F0800F0FD0BB
:1042F0002B780133282B28BF002318F80320D2B2D3
:10430000F271DBB22B7003E0FF2801DDFEF778FBD2
:104310002B78DBB29C42E3D0FFB20B4B1F5501223E
:104320000A4B1A70E4B2054B1C70AC22054BDA70D4
:10433000BDE8F08134800440B4F70220B8F70220D1
:10434000B1F7022000D0064048F7022044F70220CF
:1043500038B505460C4629B115F8010BFFF7A8FF43
:10436000013CF9D138BD00BF10B5064B1B7813F0E6
:10437000FF0F06D0034CFEF743FB237813F0FF0F2B
:10438000F9D110BD44F70220064B1B78DBB2064A78
:104390001278D2B293422CBF273202F1FF32D01AE8
:1043A000704700BFB8F70220B1F70220054B18781C
:1043B000C0B2054B1B78DBB2984238BF4030C01A00
:1043C000704700BFB0F7022045F7022010B4184B29
:1043D0001A78D2B2174B1B78DBB29A4218D001334D
:1043E0003F2B18D81449C85CC0B2DCB211490C701C
:1043F00012490968C9B19A4203D300E00023D31AD5
:1044000001E04032D31A1A2B0FDC00230B700CE0B2
:104410004FF0FF3009E0084B1878C0B20021054B7F
:104420001970064B19680029E8D15DF8044B7047F4
:10443000B0F7022045F7022070F7022040F7022073
:10444000094B1A78D2B2094B1B78DBB29A4207D0DB
:104450000133402B28BF0023054AD05CC0B270470F
:104460004FF0FF30704700BFB0F7022045F7022041
:1044700070F70220054B1A78D2B2054B1A70054B23
:104480001B680BB100221A70704700BF45F702206D
:10449000B0F7022040F702202F4B1B7913F0200FBA
:1044A00023D02D4BDB79D9B22C4B1B780133402B19
:1044B00028BF00232A4A1278D2B29A4204D0294A4D
:1044C000D154D9B2254A1170274A116869B1274AD7
:1044D0001278D2B293422EBFC2EB0303C2F1400264
:1044E0009B18272BC4BF01230B701B4BDB78DBB25F
:1044F00013F0800F1CD0184A127912F0800F17D0D9
:104500001B4A1178C9B2194A1278D2B2914203D12A
:104510006C21114AD1700BE00132282A28BF0022F9
:104520001449885CC0B20C49C871D2B20F490A70F4
:1045300013F0400F0ED0084B1B7913F0400F09D039
:1045400000220D4B1A700D4B1B6803B11A702C2200
:10455000014BDA70704700BF00D00640B0F7022070
:1045600045F7022070F7022040F70220B1F7022041
:10457000B8F7022048F7022044F70220B4F70220DF
:10458000164B1A6842F480621A600023144A1370B2
:10459000144A1370144A1370144A1370144A137097
:1045A00040F21331134A11604FF45171043A116013
:1045B000C0F34431104A1170C0F34711517000F03C
:1045C0001F009072937013742C23D37040220B4BF6
:1045D0001A700422A3F23A331A607047288004400C
:1045E0002CF80220C1F7022034F802202DF8022016
:1045F000C0F7022064D0044000A00E4042E400E076
:104600001B4B9B7803F0EC0300F00302134310F004
:10461000040F18BF43F01003154A937000F00F0306
:10462000042B04D11346927942F040029A71104B48
:104630005A7902F0EF0210F0100F18BF42F010028A
:104640000B4B5A719B7903F0EF0310F0200F18BF4A
:1046500043F01003064A937110F4807F07D013468D
:104660005278D2B2197841F0200119705A7070470F
:1046700000A00E4010B5134B1B6813F4806F20D0C0
:10468000114B1B7813F0FF0F06D00F4CFEF7B8F953
:10469000237813F0FF0FF9D104220C4B1A6000238A
:1046A0000B4AD37040F203120A490A6004390A60C7
:1046B000094A1370094A1370094B1B680BB1012298
:1046C0001A7010BD28800440C0F7022088E100E085
:1046D00000A00E4064D004402CF80220C1F7022054
:1046E000BCF7022010B50446094A137813F0FF0FF7
:1046F000FBD120460121FDF78FF820460021FDF770
:1047000067F8044B53F83420034B1A6010BD00BF08
:10471000C0F70220545B000030F8022010B40C46B1
:1047200009B140F08000104B1B78984219D00F4A15
:10473000126812F4805F12D003F07F03212B02D1A4
:1047400000220B4B1A60002C0CBF4422602200F0A8
:104750007F03212B03D142F44072054B1A60024BB8
:1047600018705DF8044B70477307FF1F34800440D6
:1047700060D00440704700BF10B50D4B1B6813F4A8
:10478000806F12D039280CD80A4C0B4B53F83030BC
:1047900023600121FDF740F8236800221A700120F0
:1047A00010BD0020034B186010BD002010BD00BFDD
:1047B00028800440BCF70220545B00000D4B1B68AE
:1047C00013F4806F13D018280AD140F202320A4B3A
:1047D0001A600A4B5A7B42F001025A73012070475B
:1047E000064B5A7B02F0FE025A73002070470020ED
:1047F000704700BF2880044068D0044000A00E40ED
:104800002DE9F04107461F4B1B6813F4806F37D02A
:104810001D4B1B680BB101221A701C4B1C78013414
:10482000282C28BF00241A4D1A4EDFF86C8017E0A0
:10483000FEF70AFA40280FDC337913F0800F0FD00F
:104840002B780133282B28BF002318F80320D2B27D
:10485000F271DBB22B7003E0FF2801DDFEF7D0F828
:104860002B78DBB29C42E3D0FFB20B4B1F550122E9
:104870000A4B1A70E4B2054B1C70AC22054BDA707F
:10488000BDE8F0812880044030F8022034F802208E
:104890002DF8022000A00E40C4F70220C0F702202D
:1048A00038B505460C4629B115F8010BFFF7A8FFEE
:1048B000013CF9D138BD00BF10B5064B1B7813F091
:1048C000FF0F06D0034CFEF79BF8237813F0FF0F81
:1048D000F9D110BDC0F70220064B1B78DBB2064AA7
:1048E0001278D2B293422CBF273202F1FF32D01A93
:1048F000704700BF34F802202DF80220054B1878CD
:10490000C0B2054B1B78DBB2984238BF4030C01AAA
:10491000704700BF2CF80220C1F7022010B4184BDA
:104920001A78D2B2174B1B78DBB29A4218D00133F7
:104930003F2B18D81449C85CC0B2DCB211490C70C6
:1049400012490968C9B19A4203D300E00023D31A7F
:1049500001E04032D31A1A2B0FDC00230B700CE05D
:104960004FF0FF3009E0084B1878C0B20021054B2A
:104970001970064B19680029E8D15DF8044B70479F
:104980002CF80220C1F70220ECF70220BCF702202D
:10499000094B1A78D2B2094B1B78DBB29A4207D086
:1049A0000133402B28BF0023054AD05CC0B27047BA
:1049B0004FF0FF30704700BF2CF80220C1F70220F3
:1049C000ECF70220054B1A78D2B2054B1A70054B52
:1049D0001B680BB100221A70704700BFC1F702209C
:1049E0002CF80220BCF702202F4B1B7913F0200F6C
:1049F00023D02D4BDB79D9B22C4B1B780133402BC4
:104A000028BF00232A4A1278D2B29A4204D0294AF7
:104A1000D154D9B2254A1170274A116869B1274A81
:104A20001278D2B293422EBFC2EB0303C2F140020E
:104A30009B18272BC4BF01230B701B4BDB78DBB209
:104A400013F0800F1CD0184A127912F0800F17D083
:104A50001B4A1178C9B2194A1278D2B2914203D1D5
:104A60006C21114AD1700BE00132282A28BF0022A4
:104A70001449885CC0B20C49C871D2B20F490A709F
:104A800013F0400F0ED0084B1B7913F0400F09D0E4
:104A900000220D4B1A700D4B1B6803B11A702C22AB
:104AA000014BDA70704700BF00A00E402CF80220C6
:104AB000C1F70220ECF70220BCF702202DF80220FB
:104AC00034F80220C4F70220C0F7022030F8022098
:104AD0002DE9F003504B1A6842F010021A60283B8F
:104AE0001B6803F44033B3F5403F06D04B4A4C4DAE
:104AF000B3F5803F08BF154600E04A4D8300B5FB83
:104B0000F3F31FFA83F8B8F1000F00F082804FEA48
:104B10008807B5FBF7F73F1A67D008F101039B0040
:104B2000B5FBF3F3C31A9F425FD908F101081FFADE
:104B300088F81F4659E0B5FBF4F291B25E1C0444BC
:104B4000E1B19C4633465E1E92B206FB02F2B5FB13
:104B5000F2F2121ABA4202D81746E14688465AB112
:104B6000013189B206FB01F6B5FBF6F6861BB742AA
:104B700002D33746E1468846212BDCD109F1FF33C9
:104B800003F01F03C8F30C0848EA0363B9F1070FE9
:104B900001D843F40033244A1360244B196841F0D0
:104BA00080611960002322490B7022490B70224951
:104BB0000B7022490B7022490B7040F213502149AF
:104BC000086040F244500431086093601361536000
:104BD000936843F43013936040221B4B1A704FF4D8
:104BE0008002A3F24E331A6013E000EB8002B5FBA3
:104BF000F2F291B241B100EB4004640006234FF0A1
:104C0000050C4FF004099EE7C8F30C0343F0407312
:104C1000BFE7BDE8F00370472C800440001C4E0E37
:104C200000879303006CDC0200400C4004800440C9
:104C3000A8F802203DF80220B0F80220A9F80220CE
:104C40003CF8022020C0044056E400E01E4B9B6864
:104C500023F0130300F00302134310F0040F18BFF6
:104C600043F01003184A936000F00F03042B04D1A3
:104C70001346926842F080429A6010F0080F04D008
:104C8000114B1A6842F000521A600F4B5A6822F01A
:104C9000805210F0100F18BF42F080520A4B5A6039
:104CA0009B6823F0805310F0200F18BF43F080530F
:104CB000054A936010F4807F04D01346126842F4D2
:104CC00000521A60704700BF00400C4010B5144BF2
:104CD0001B6813F0100F21D0124B1B7813F0FF0F3D
:104CE00006D0104CFDF78CFE237813F0FF0FF9D19E
:104CF0004FF480020C4B1A6000230C4A936040F280
:104D000003120B490A6004310A600A4A13700A4A06
:104D100013700A4B1B680BB101221A7010BD00BF43
:104D20002C8004403CF8022088E100E000400C4068
:104D300020C00440A8F802203DF8022038F80220E4
:104D400010B50446094A137813F0FF0FFBD1204633
:104D50000121FCF761FD20460021FCF739FD044BE1
:104D600053F83420034B1A6010BD00BF3CF80220FA
:104D7000545B0000ACF8022010B40C4609B140F0BE
:104D80008000104B1B78984219D00F4A126812F419
:104D9000805F12D003F07F03302B02D100220B4B37
:104DA0001A60002C0CBF4422602200F07F03302BDD
:104DB00003D142F44072054B1A60024B18705DF843
:104DC000044B70477407FF1F3480044024C0044024
:104DD000704700BF10B50D4B1B6813F0100F12D0B9
:104DE00039280CD80A4C0B4B53F830302360012182
:104DF000FCF712FD236800221A70012010BD00206C
:104E0000034B186010BD002010BD00BF2C80044073
:104E100038F80220545B00000D4B1B6813F0100F94
:104E200013D038280AD140F202320A4B1A600A4BDA
:104E30005A7B42F001025A7301207047064B5A7B9D
:104E400002F0FE025A73002070470020704700BF36
:104E50002C80044028D0044000B00E402DE9F041E1
:104E600080461F4B1B6813F0100F36D01D4B1B687C
:104E70000BB101221A701C4B1D780135282D28BF5B
:104E800000251A4C1A4E1B4F16E0FDF7DDFE402898
:104E90000EDC736813F4000F0ED023780133282B37
:104EA00028BF0023FA5CD2B2F260DBB2237003E0C9
:104EB000FF2801DDFDF7A4FD2378DBB29D42E4D09D
:104EC0005FFA88F80B4B03F8058001230A4A137038
:104ED000EDB2054A1570094A1360BDE8F08100BFC4
:104EE0002C800440ACF80220B0F80220A9F802207F
:104EF00000400C4040F802203CF802205C0188434E
:104F000038B505460C4629B115F8010BFFF7A6FF89
:104F1000013CF9D138BD00BF10B5064B1B7813F02A
:104F2000FF0F06D0034CFDF76BFD237813F0FF0F46
:104F3000F9D110BD3CF80220064B1B78DBB2064AC3
:104F40001278D2B293422CBF273202F1FF32D01A2C
:104F5000704700BFB0F80220A9F80220054B18786E
:104F6000C0B2054B1B78DBB2984238BF4030C01A44
:104F7000704700BFA8F802203DF8022010B4184B7B
:104F80001A78D2B2174B1B78DBB29A4218D0013391
:104F90003F2B18D81449C85CC0B2DCB211490C7060
:104FA00012490968C9B19A4203D300E00023D31A19
:104FB00001E04032D31A1A2B0FDC00230B700CE0F7
:104FC0004FF0FF3009E0084B1878C0B20021054BC4
:104FD0001970064B19680029E8D15DF8044B704739
:104FE000A8F802203DF8022068F8022038F80220D4
:104FF000094B1A78D2B2094B1B78DBB29A4207D020
:105000000133402B28BF0023054AD05CC0B2704753
:105010004FF0FF30704700BFA8F802203DF8022093
:1050200068F80220054B1A78D2B2054B1A70054B6E
:105030001B680BB100221A70704700BF3DF80220B8
:10504000A8F8022038F80220304B5B6813F4001FE8
:1050500023D02E4BD9682E4B1B780133402B28BF11
:1050600000232C4A1278D2B29A4205D0C9B22A4AF9
:10507000D154D9B2264A1170284A116869B1284A18
:105080001278D2B293422EBFC2EB0303C2F14002A8
:105090009B18272BC4BF01230B701C4B9B6813F478
:1050A000000F1FD0194A526812F4000F1AD01D4A7F
:1050B0001178C9B21A4A1278D2B2914206D10021AF
:1050C000194A11600121043A11600BE00132282ACB
:1050D00028BF00221549885CC0B20C49C860D2B212
:1050E0000F490A7013F4800F0ED0084B5B6813F45D
:1050F000800F09D000220E4B1A700E4B1B6803B1B3
:105100001A7000220C4B1A60704700BF00400C4020
:10511000A8F802203DF8022068F8022038F80220A2
:10512000A9F80220B0F802205C01884340F8022070
:105130003CF80220ACF802205801884300B585B045
:1051400072B61A4B70221A7019491A4A11608022DD
:105150001A701A46137813F0800FFBD0164B18689C
:1051600062B6164B98429CBF00EB8000400001A93C
:105170000A2200F0E7FB9DF804307BB908E001A9A2
:10518000595C31B19180023201330A2BF7D100E032
:10519000002301335B000A4A137003E0084A53807E
:1051A0000123ECE705B05DF804FB00BF00000240FE
:1051B00000000741040002400C0002407F96980066
:1051C0000408FF1F08B503681B68C9B2984708BDEB
:1051D00008B503681B68C9B2984708BD08B50368DD
:1051E0001B68C9B2984708BD08B503681B68C9B2F7
:1051F000984708BD08B5044800EB5100B0FBF1F03A
:10520000FDF742FD08BD00BF00389C1C10B51446D8
:10521000054800EB5100B0FBF1F0FDF735FD2046ED
:10522000FDF7AAFD10BD00BF00389C1C08B5FDF7B6
:10523000DDFD08BD08B50846FDF712FE08BD00BF3C
:1052400008B50846FDF772FE08BD00BF08B5084660
:105250001146FDF721FE08BD08B50846FDF7A0FE82
:10526000003018BF012008BD08B50846FDF7BAFE9A
:10527000003018BF012008BD08B5FDF7B3FF08BD19
:1052800008B5FDF7F9FF08BD08B5FDF7BBFF08BD80
:1052900008B5FDF785FF08BD08B5FEF707F808BD9E
:1052A00008B5FDF78DFF08BD08B50846FDF7C6FE39
:1052B000012008BD08B50846FDF7C0FE012008BD65
:1052C00010B5144608461146FDF708FF204610BDEC
:1052D00038B50D46084600F07FFB044628462146B7
:1052E000FDF7FCFE204638BD704700BF044B00228E
:1052F0001A714FF47A7199601A73024A1A607047F2
:10530000B4F80220B05D000008B503681B68C9B29C
:10531000984708BD08B503681B68C9B2984708BD1F
:1053200008B503681B68C9B2984708BD08B503688B
:105330001B68C9B2984708BD08B5044800EB510086
:10534000B0FBF1F0FEF768F808BD00BF00389C1C08
:1053500010B51446054800EB5100B0FBF1F0FEF724
:105360005BF82046FEF7BEF810BD00BF00389C1C5D
:1053700008B5FEF7F1F808BD08B50846FEF738F99C
:1053800008BD00BF08B50846FEF77AF908BD00BFA2
:1053900008B508461146FEF747F908BD08B50846A6
:1053A000FEF78CF9003018BF012008BD08B508468B
:1053B000FEF7A6F9003018BF012008BD08B5FEF7BA
:1053C00095FA08BD08B5FEF7DBFA08BD08B5FEF78B
:1053D0009DFA08BD08B5FEF767FA08BD08B5FEF7E7
:1053E000E9FA08BD08B5FEF76FFA08BD08B508462A
:1053F000FEF7A8F9012008BD08B50846FEF7A2F996
:10540000012008BD10B5144608461146FEF7EAF91A
:10541000204610BD38B50D46084600F0DDFA0446BA
:1054200028462146FEF7DEF9204638BD704700BF0A
:10543000044B00221A714FF47A7199601A73024A70
:105440001A607047C4F80220105E000008B50368B7
:105450001B68C9B2984708BD08B503681B68C9B284
:10546000984708BD08B503681B68C9B2984708BDCE
:1054700008B503681B68C9B2984708BD08B5044859
:1054800000EB5100B0FBF1F0FEF74AFB08BD00BF96
:10549000000E270710B51446054800EB5100B0FB7D
:1054A000F1F0FEF73DFB2046FEF77AFB10BD00BF92
:1054B000000E270708B5FEF7ADFB08BD08B5084686
:1054C000FEF7E0FB08BD00BF08B50846FEF722FC6A
:1054D00008BD00BF08B508461146FEF7EFFB08BD42
:1054E00008B50846FEF718FC003018BF012008BDBB
:1054F00008B50846FEF732FC003018BF012008BD91
:1055000008B5FEF7CBFC08BD08B5FEF711FD08BDD8
:1055100008B5FEF7D3FC08BD08B5FEF79DFC08BD35
:1055200008B5FEF71FFD08BD08B5FEF7A5FC08BDD0
:1055300008B50846FEF734FC012008BD08B508464A
:10554000FEF72EFC012008BD10B514460846114692
:10555000FEF776FC204610BD38B50D46084600F033
:105560003BFA044628462146FEF76AFC204638BD31
:10557000704700BF044B00221A714FF47A71996092
:105580001A73024A1A607047D4F80220705E000055
:1055900008B503681B68C9B2984708BD08B5036819
:1055A0001B68C9B2984708BD08B503681B68C9B233
:1055B000984708BD08B503681B68C9B2984708BD7D
:1055C00008B5044800EB5100B0FBF1F0FEF750FDC8
:1055D00008BD00BF000E270710B51446054800EBB4
:1055E0005100B0FBF1F0FEF743FD2046FEF780FDD1
:1055F00010BD00BF000E270708B5FEF7B3FD08BDBC
:1056000008B50846FEF7E6FD08BD00BF08B5084628
:10561000FEF728FE08BD00BF08B508461146FEF794
:10562000F5FD08BD08B50846FEF71EFE003018BFA0
:10563000012008BD08B50846FEF738FE003018BF47
:10564000012008BD08B5FEF7B1FE08BD08B5FEF79C
:10565000F7FE08BD08B5FEF7B9FE08BD08B5FEF7B0
:1056600083FE08BD08B5FEF705FF08BD08B5FEF7C7
:105670008BFE08BD08B50846FEF71AFE012008BDDE
:1056800008B50846FEF714FE012008BD10B5144603
:1056900008461146FEF75CFE204610BD38B50D46A3
:1056A000084600F099F9044628462146FEF750FEC8
:1056B000204638BD704700BF044B00221A714FF4DA
:1056C0007A7199601A73024A1A607047E4F80220EE
:1056D000D05E000008B503681B68C9B2984708BDD2
:1056E00008B503681B68C9B2984708BD08B50368C8
:1056F0001B68C9B2984708BD08B503681B68C9B2E2
:10570000984708BD08B5044800EB5100B0FBF1F024
:10571000FEF736FF08BD00BF000E270710B5144680
:10572000054800EB5100B0FBF1F0FEF729FF2046E1
:10573000FEF766FF10BD00BF000E270708B5FEF795
:1057400099FF08BD08B50846FEF7CCFF08BD00BFAD
:1057500008B50846FFF70EF808BD00BF08B50846B3
:105760001146FEF7DBFF08BD08B50846FFF704F851
:10577000003018BF012008BD08B50846FFF71EF825
:10578000003018BF012008BD08B5FFF7B7F808BD05
:1057900008B5FFF7FDF808BD08B5FFF7BFF808BD6D
:1057A00008B5FFF789F808BD08B5FFF70BF908BD84
:1057B00008B5FFF791F808BD08B50846FFF720F8CF
:1057C000012008BD08B50846FFF71AF8012008BDFA
:1057D00010B5144608461146FFF762F8204610BD82
:1057E00038B50D46084600F0F7F80446284621462D
:1057F000FFF756F8204638BD704700BF044B002223
:105800001A714FF47A7199601A73024A1A607047DC
:10581000F4F80220305F000008B503681B68C9B2C5
:10582000984708BD08B503681B68C9B2984708BD0A
:1058300008B503681B68C9B2984708BD08B5036876
:105840001B68C9B2984708BD08B50846FFF740F97C
:1058500008BD00BF10B514460846FFF739F92046C9
:10586000FFF7F4F910BD00BF08B5FFF72FFA08BD28
:1058700008B50846FFF764FA08BD00BF08B508463A
:10588000FFF7A6FA08BD00BF08B508461146FFF7A6
:1058900073FA08BD08B50846FFF79CFA003018BF38
:1058A000012008BD08B50846FFF7B6FA003018BF5A
:1058B000012008BD08B5FFF751FB08BD08B5FFF78B
:1058C00097FB08BD08B5FFF759FB08BD08B5FFF702
:1058D00023FB08BD08B5FFF7A5FB08BD08B5FFF71A
:1058E0002BFB08BD08B50846FFF7B8FA012008BD34
:1058F00008B50846FFF7B2FA012008BD10B51446F6
:1059000008461146FFF7FCFA204610BD38B50D4693
:10591000084600F061F8044628462146FFF7F0FAF1
:10592000204638BD704700BF044B00221A714FF467
:105930007A7199601A73024A1A60704704F902205A
:10594000905F000030B40023B0FBF2F402FB1404BB
:105950001D46092C94BF30343734E4B2CC54B0FB2C
:10596000F2F008B10133EFE70D4400226A70934270
:1059700007DD885CCC5C8C54C8540132013B9A42F0
:10598000F7DB084630BC704770B50F4E0F4D761BE5
:10599000B61007D0043D0024013455F8043F984761
:1059A000A642F9D10A4E0B4D761B00F021FBB61032
:1059B00008D0043D0024013455F8043F9847A6421E
:1059C000F9D170BD70BD00BFFC5F0000FC5F00003E
:1059D00020600000FC5F000020F0030110F00300D5
:1059E000C0F1000051F8043B00F1040C4FEACC0C6C
:1059F0006FF000021CBF22FA0CF213434FF0010CAF
:105A00004CEA0C2C4CEA0C4CA3EB0C0222EA0302ED
:105A100012EACC1204BF51F8043B0430F4D013F066
:105A2000FF0F1FBF013013F47F4F013013F47F0FBE
:105A300018BF0130704700BF024B13B1024800F09D
:105A400005B8704700000000595A000001460020C8
:105A50000246034600F018B838B5094D094C641BDE
:105A6000A41018BF05EB840505D0013C55F8043D92
:105A70009847002CF9D1BDE8384000F0D1BA00BFFA
:105A80000000000000000000F0B5274C2668D6F8A2
:105A9000484185B00746002C41D065681F2D1EDDAA
:105AA000224818B94FF0FF3005B0F0BD4FF4C87070
:105AB000039102920193AFF300800399029A019B34
:105AC00004460028EED0D6F84851256000206060DA
:105AD0000546C6F84841C4F88801C4F88C013FB9AE
