:1000000000800020BD010000512B0000152B0000D6
:10001000152B0000152B0000152B0000152B0000E0
:10002000152B0000152B0000152B0000512B000094
:10003000512B0000152B0000512B0000052B000058
:10004000512B0000512B0000512B0000512B0000C0
:10005000512B0000512B0000512B0000512B0000B0
:10006000512B0000512B0000512B0000512B0000A0
:10007000512B0000512B0000512B0000512B000090
:10008000512B0000512B0000512B0000512B000080
:10009000512B0000512B0000512B0000512B000070
:1000A000512B0000512B0000512B0000512B000060
:1000B000512B0000512B0000512B0000512B000050
:1000C000512B0000512B0000512B0000512B000040
:1000D000512B0000512B0000512B0000512B000030
:1000E000512B0000512B0000512B0000512B000020
:1000F000512B000099300000512B000039360000D0
:10010000512B0000DD3A0000512B0000512B000064
:10011000512B0000512B0000512B0000512B0000EF
:10012000512B0000512B0000512B0000512B0000DF
:10013000512B0000512B0000512B0000512B0000CF
:10014000512B0000512B0000512B0000512B0000BF
:10015000512B0000512B0000512B0000512B0000AF
:10016000512B0000C51E0000512B0000512B000038
:10017000512B0000512B0000512B0000512B00008F
:10018000512B0000512B0000512B0000512B00007F
:10019000512B0000512B0000512B0000512B00006F
:1001A000512B0000512B0000512B0000512B00005F
:1001B000512B0000512B0000512B0000574B4CF2EB
:1001C000205210B51A804DF628121A8000BF00BFC9
:1001D00002F0C2FC524B4FF010621A60514A9A6012
:1001E000514ADA60A3F53043203B1A6812F480725A
:1001F00004D14E490A604FF4A8521A604C4B1A7849
:10020000110703D51A7842F008021A70494B4A4C7C
:100210004A482A221A704A4A00239918A14203D256
:10022000195899500433F8E7464B474900228B424E
:1002300002D243F8042BFAE74448454900235A58B0
:100240001A500433B3F5DE7FF9D1424B424A802184
:1002500003F8011B9342FBD1404B3C4A1A60404BD0
:100260000A221A70A3F5805324225A70A0221A7011
:100270009A799207FCD59A79D406FCD4394A9379B5
:1002800003F00C03082B374BF9D103221A714622D5
:100290005A719A799006FCD5324A9179314B4906C8
:1002A000FBD5314A4FF08271116009215160202243
:1002B0001A709A7902F00C020C2AFAD12B4B2C4AB4
:1002C0001A602C4B2C4A1A6000225A60072243F80D
:1002D000042C2A4AC3F80C2D62B601F0B5FC134B6E
:1002E0001B68DA0705D5264801F022FC254B264A73
:1002F0001A60264B1B785B0609D5224C224A2368DC
:10030000934204D11E4801F013FC0023236003F044
:100310006DFE02F027FC02F015FBFEE70E20054003
:1003200030800440823F04000100002B14D00340C1
:1003300002D0074000E00740388CFF1F78440000DF
:100340006087FF1F388CFF1F707700200082FF1F1F
:100350000000000000E400E05FE400E008ED00E0E1
:1003600000500640004006404480044004800440A1
:10037000C010050014E000E0BFD401000000202000
:10038000185A49571CE00340A5C3945A00F007408F
:10039000FFFFFFFFFFFFFFFFFFFFFFFFFFFFFFFF6D
:1003A000FFFFFFFFFFFFFFFFFFFFFFFFFFFFFFFF5D
:1003B000FFFFFFFFFFFFFFFFFFFFFFFFFFFFFFFF4D
:1003C000FFFFFFFFFFFFFFFFFFFFFFFFFFFFFFFF3D
:1003D000FFFFFFFFFFFFFFFFFFFFFFFFFFFFFFFF2D
:1003E000FFFFFFFFFFFFFFFFFFFFFFFFFFFFFFFF1D
:1003F000FFFFFFFFFFFFFFFFFFFFFFFFFFFFFFFF0D
:10040000FFFFFFFFFFFFFFFFFFFFFFFFFEFFFFFFFD
:1004100010B5054C237833B9044B13B10448AFF33E
:1004200000800123237010BD388CFF1F00000000E6
:100430007844000008B5064B1BB106480649AFF3E7
:1004400000800648036813B1054B03B1984708BD07
:1004500000000000784400003C8CFF1F388CFF1F18
:10046000000000005C4B984272D85C4B984272D8F6
:100470005B4B984271D8A3F53713A3F5D863984224
:100480006DD8A3F5F413A3F59063984269D8554B42
:10049000984269D8544B984269D8A3F57423A3F5C0
:1004A0001073984266D8514B984265D8504B984289
:1004B00065D8A3F5F423A3F59073984261D8A3F50A
:1004C0001823A3F6681398425DD84A4B98425DD82A
:1004D000A3F57433903B98425AD8A3F52E33A3F575
:1004E000C673984256D8444B984255D8434B9842CD
:1004F00055D8434B984254D8424B984253D8424B1C
:10050000984253D8414B984252D8414B984251D8C7
:10051000404B984251D8404B984250D83F4B98425C
:100520004FD83F4B98424FD83E4B98424ED84BF253
:100530001A7398424CD845F68C3398424AD83A4BB5
:100540003A4A42F6C551884294BF10461846704751
:100550004FF00040704736487047002070473548DC
:1005600070474FF48030704741F2010070474FF4FC
:10057000003070473048704742F2030070472F4800
:1005800070472F48704743F2040070472D4870476A
:100590002D4870472D48704744F2050070472C489D
:1005A00070472C48704745F2060070472A4870474C
:1005B0002A48704746F20700704729487047294883
:1005C000704747F208007047274870472748704730
:1005D00027487047274870477FC3C901FF2C310166
:1005E000BFE1E400DF7072007F8D5B006F3839007F
:1005F000BFC62D005FE316001B4E0E00AF710B004F
:10060000678909000D270700D7B80500B3C40400A7
:10061000869303006BDC020059620200C2C901002C
:10062000356E01002C3101000A9002000BA0010080
:1006300000000180000002800110010001000200A2
:100640000320010003200200043001000320030006
:100650000430020005400100054002000650010080
:1006600006500200076001000760020008700100E8
:10067000086002000980020010B5722800F21381A0
:10068000DFE810F073007E00770011018500110192
:1006900011011101110111011A01110111011A01B8
:1006A0001101110111011A0111011A0111011101A8
:1006B00011011101110111011101110111011101AA
:1006C000110111011101110111011101110111019A
:1006D000110111011101110111011101110111018A
:1006E0001101110111011A018500770011011A0190
:1006F000110111011101110111011101110111016A
:100700001101110111011101110111011101110159
:100710001101110111011101110111011101110149
:100720001101110111011101110111011101110139
:100730001101110111011101110111011101110129
:100740001101110111011101110111011101110119
:100750001101110111011101110111011101110109
:100760001101110111011101F8000022534B1A600F
:1007700010BD534803685B6852490422984710BD76
:100780002022514B1A6001224C4B1A6010BD4C4C78
:1007900023681B6820460121984723685B68204630
:1007A0004A490822984723685B682046484909223D
:1007B000984723681B6820460021984723681B68D8
:1007C00020460221984723685B682046414903225E
:1007D000984723681B6820460021984723681B68B8
:1007E00020462121984723681B682046002198470E
:1007F00023681B6820460021984723681B68204611
:100800001021984723681B682046002198472368D9
:100810001B6820462321984723681B682046002137
:10082000984723681B6820460F21984723681B6858
:1008300020464221984723681B682046402198475C
:1008400023681B6820464021984723681B68204680
:100850000821984723681B68204641219847236850
:100860001B6820460221984723681B682046002108
:10087000984710BD4FF40063174A1360174A13607E
:100880000022174B1A600722164B1A60164A174BA4
:100890001A601022164B1A6020220B4B1A6001229C
:1008A000064B1A6010BD134B187004225A710022B7
:1008B0009A710122104B1A7010BD00BF708CFF1F7F
:1008C000A07500209441000084F00F409C4100007E
:1008D000A8410000B441000098740020548CFF1F10
:1008E000608CFF1F748CFF1FE0707200588CFF1F1C
:1008F000788CFF1F9C7400206C8CFF1F944B1B781E
:10090000803B4E2B00F22381DFE813F00C01C40082
:1009100021012101210121012101210121012101C7
:1009200021012101210121012101210121012101B7
:1009300021012101210121012101210121012101A7
:100940002101210121012101210121012101210197
:100950002101210121012101210121012101210187
:100960002101210121012101210121012101210177
:100970002101210121012101210121012101210167
:100980002101210121012101210121014F006300E9
:100990007A00210154006B008D0021015900700084
:1009A000A00021015E007500B200694B5B7881F800
:1009B00034307047664B5B7881F835307047644B54
:1009C0005B7881F836307047614B5B7881F837305F
:1009D00070475F4B5B7881F838304FF0FF330B6323
:1009E00070475B4B5B7881F839307047584B5B78C8
:1009F00081F83A307047564B5B7881F83B3070474E
:100A0000534B98785A7802EB00228A871B7913F0AF
:100A1000080F00F09C800B6BB3F1FF3F40F0978014
:100A200000230B6370474A4B98785A7802EB0022F8
:100A3000CA871B7913F0080F00F089800B6BB3F1A4
:100A4000FF3F40F0848001230B637047404B987850
:100A50005A7802EB0022A1F840201B7913F0080F0E
:100A600075D00B6BB3F1FF3F71D102230B6370475D
:100A7000374B98785A7802EB0022A1F842201B7974
:100A800013F0080F63D00B6BB3F1FF3F5FD103236B
:100A90000B6370472E4B99785A7842EA0122013253
:100AA00092002C490A601979DB7843EA0121890018
:100AB0000631294B1960B2F5503F06D14FF4E823B7
:100AC000244A1360254A136011E0224B1B68234A15
:100AD0001360B3F5E82F07D94FF4E8221D4B1A60D5
:100AE00001221F4B1A7014E0B3F5683F03D90122AD
:100AF0001B4B1A700DE0B3F5E83F03D90222184BE7
:100B00001A7006E0B3F5684F8CBF04220822144B1C
:100B10001A70104B1B68104A12689A4217D90E4A75
:100B2000136070470A4BD9789A7842EA01215A78C3
:100B300042EA01230B4A136001330B4AB2FBF3F381
:100B40000A4A13600A4AB2FBF3F30A4A1360704779
:100B50009C74002098740020608CFF1F548CFF1F31
:100B6000648CFF1F748CFF1F00879303588CFF1F3A
:100B7000000E2707788CFF1F10B52024054B1C6042
:100B8000962001F04DF8044B1C60642001F048F8F9
:100B900010BD00BF84F00F4088F00F4008B5012061
:100BA000002100F0F9FF0820002100F0F5FF0D20E2
:100BB000012100F0F1FFFFF7DFFF0022014B1A6077
:100BC00008BD00BF708CFF1F08B50F4B1B7813B119
:100BD000012B03D012E0FFF74FFD08BD0B4B9A79B4
:100BE0000132D2B29A7198545B7993420BD1074883
:100BF000FFF784FE0022044B1A7008BDFFF7BCFF0C
:100C00000022014B1A7008BD6C8CFF1F9C740020E1
:100C100010B52024054B1C600A2001F001F8044B9C
:100C20001C600F2000F0FCFF10BD00BF84F00F40DF
:100C300088F00F400A4B1A6842F400021A60094B10
:100C40001A6822F002021A6003F5847300221A6007
:100C5000054A10601A6842F001021A60704700BF2E
:100C60003C8004400070034000710340064B1A684A
:100C700022F002021A604FF4007203F5BC731A608E
:100C80000122024B1A70704710E000E05C8CFF1FDD
:100C90000B4B1B6813F4803F04D00A4B1A6842F0D8
:100CA00080621A60064B1A6842F002021A604FF422
:100CB0000072F8331A600022034B1A70704700BFAD
:100CC00010E000E004ED00E05C8CFF1F2DE9F00F68
:100CD00086B001904369012B5CD9D0F84490D9F8D3
:100CE0000430DB0F816C0091894553D25B00039384
:100CF00009F1080A002302931E2504950593D346A3
:100D00005AF8086CD9F804701F231E214FF00040D8
:100D1000002503E002950499059D013B1C4600EA6D
:100D2000060C2CFA03FC0CFA01FCAC4442B900EAB4
:100D30000705DD4001F1010805FA08F5654415E0F5
:100D4000002B08DD00EA4705DD4001F1010805FA46
:100D500008F565440AE0009DAB4505D2D9F80C7052
:100D6000FD0F0CEB450501E0039D65444008023989
:100D7000102CCFD0012BD0D502994BF8081CC9F804
:100D8000045009F10809019B9B6C00930AF1080AC1
:100D90004B45B4D806B0BDE8F00F7047054B1A6854
:100DA00042F440521A604FF4007203F57F5310333F
:100DB0001A6070473C800440084B1A6842F4405265
:100DC0001A604FF4007203F5005308331A604FF4B1
:100DD000407203F5FE5318331A6070473C8004409C
:100DE00010B5054C054B2360FFF73CFB40F0F0408D
:100DF000E060034BE36210BD00C00240014C1F00E5
:100E000000000A0810B5124B1A68124B1A60124BF8
:100E100098420BD90E4B1A6822F070621A601A6859
:100E200022F4702242F440321A6006E0084B1A683D
:100E300022F0706242F080721A60084C084B236006
:100E4000FFF710FB40F0F040E060064BE36210BD9E
:100E500044800440688CFF1FFF86930300D002404B
:100E6000014C1F0000000A0810B504460A2000F0DB
:100E7000D7FE084A084B1A6014B1A3F580531A60D4
:100E8000064B1A6822F440521A60054B1A68054B4B
:100E90001A6010BD01401F0000D002403C80044099
:100EA000688CFF1F448004402DE9F04107468846C6
:100EB000446C866C083EFFF77FFFB868FFF7A2FF1F
:100EC000FFF7D4FE144B9A6B9A6B9A6B9A6B9A6BE2
:100ED000124A1A604FF000425A635A635A635A63C7
:100EE0001A464FF00045D36A13F0E00FFBD0916B28
:100EF000936B03EB014344F8043B55635563A642EF
:100F0000F1D1FFF7C5FE3B6AC8F800300020FFF7BB
:100F1000ABFFBDE8F08100BF00D0024000001FC061
:100F20002DE9F04F85B006460291D0F84490856CCB
:100F300090F8343090F83800326AB16AB1FBF2FAB6
:100F4000013AD2B2039213F0010314D0326906328F
:100F500009EB82073BB110F0010F14BF4FF00008FE
:100F60004FF0010801E04FF00108BD4288BF0024A6
:100F700007D8002402E003244FF00108A5F1080778
:100F8000FFE7FFF719FFB068FFF73CFFFFF76EFEC2
:100F90004C4B9A6B9A6B9A6B9A6B9A6B4A4A1A6093
:100FA0004FF000425A635A635A635A634FEA8A0AFF
:100FB000CDF804A04A464FF0000C4FF00040DFF897
:100FC00018E14FF0200A00E00424D96A11F0E00F84
:100FD000FBD0D3F838B0996B01EB0B4142F8041BFE
:100FE0005863586395420CD8726C9EF800B01BF0A1
:100FF000FB0F06D02022354B1A600022344B1A60BA
:1010000042E0052CE1D80FF2080B5BF824F000BF9A
:101010006710000029100000CB0F0000C90F00006E
:101020007510000061100000B8F1000F03D0B8F196
:10103000000F06D10AE011F1000C18BF4FF0010CAF
:1010400004E011F1010C18BF4FF0010CBCF1000FCE
:10105000BBD03169A2EB8101A1F108070324B4E7F9
:10106000BA42B2D110E0BA42AFD31A49C1F800A0D7
:101070000124AAE7B94584BFDDF804B05F441349F1
:10108000C1F800A00524A0E7FFF702FE336907EBD3
:101090008303C9EB03029210336ADDF80CB003FB43
:1010A00002B3DDF808B0CBF80030B26A934224BF37
:1010B000C2EB0303CBF800300020FFF7D5FE05B0EC
:1010C000BDE8F08F00D0024000001FC088F00F4044
:1010D000708CFF1F84F00F40802007402DE9F843FB
:1010E00080468946446C876C083FFFF765FED8F858
:1010F0000800FFF787FEFFF751FED8F80800FFF75A
:101100006FFEFFF7B3FDD8F80420594B996B996B2C
:10111000996B996B9B6B574B996B996B996B996B0F
:101120009B6B022A0DD8544B544A4FF00041514852
:101130004F4D534E06602E601960116019601160AA
:101140006BE0042A11D84C4B4C4A4FF000414948FF
:10115000474D4B4E066000BF00BF2E60196000BFB8
:1011600000BF11601960116057E0082A19D8424B7E
:10117000424A4FF000413F483D4D414E066000BF9E
:1011800000BF00BF00BF00BF00BF2E60196000BFDE
:1011900000BF00BF00BF00BF00BF11601960116039
:1011A0003BE00C2A21D8344B344A4FF000413148FF
:1011B0002F4D334E066000BF00BF00BF00BF00BF11
:1011C00000BF00BF00BF00BF00BF2E60196000BF9E
:1011D00000BF00BF00BF00BF00BF00BF00BF00BF17
:1011E00000BF11601960116017E0224A25491160A3
:1011F0001F4B1960996B996B996B996B996B916BFC
:10120000916B916B916B916B1D49116019604FF05F
:1012100000415163516359635963164A4FF00043CB
:101220005363536302F58052536353631E46114D5B
:10123000D36A13F0E00FFBD0916B936B03EB014388
:10124000236056635663A96BAB6B03EB014363608A
:1012500008346E636E63A742EAD1FFF719FDD8F830
:101260002030C9F800300120FFF7FEFDBDE8F8830B
:1012700000D0024000C0024034C0024034D00240DE
:1012800000001FC0000C1F802DE9F04F85B00646FE
:101290000291446C0094856C90F8342090F83830BA
:1012A000016A806AB0FBF1F90139C9B2039112F009
:1012B000030220D003F003033169063104EB810BF4
:1012C000012A05D113F1FF3818BF4FF001080CE0D7
:1012D000022A40F09C81002B00F0A08190E1002BBD
:1012E00000F0A7819DE14FF007085D4588BF00240D
:1012F00007D8002402E003244FF00108A5F1080BF1
:10130000FFE7FFF759FDB068FFF77CFDFFF746FDEB
:10131000B068FFF765FDFFF7A9FC72689D4B996BFC
:10132000996B996B996B9B6B9B4B996B996B996BB9
:10133000996B9B6B022A12D8984B994A4FF0004147
:101340009548DFF850E2DFF860C200BFC0F800C087
:10135000CEF800C0196011601960116077E0042AAE
:1013600015D88E4B8E4A4FF000418B48DFF824E2AF
:10137000DFF834C2C0F800C000BF00BFCEF800C024
:10138000196000BF00BF1160196011605FE0082A9A
:101390001DD8824B824A4FF000417F48DFF8F4E1CC
:1013A000DFF804C2C0F800C000BF00BF00BF00BF2C
:1013B00000BF00BFCEF800C0196000BF00BF00BF73
:1013C00000BF00BF00BF1160196011603FE00C2A30
:1013D00025D8724B724A4FF000416F48DFF8B4E1F4
:1013E000DFF8C4C1C0F800C000BF00BF00BF00BF2D
:1013F00000BF00BF00BF00BF00BF00BFCEF800C0ED
:10140000196000BF00BF00BF00BF00BF00BF00BF2A
:1014100000BF00BF00BF11601960116017E05E4A95
:10142000604911605B4B1960996B996B996B996B73
:10143000996B916B916B916B916B916B5A491160A8
:1014400019604FF000415163516359635963524A27
:101450004FF000435363536302F580525363536369
:101460004FEA8909CDF80490009A4FF0000A494BE1
:101470004FF000404849DFF84091AE4600E00424B8
:10148000DD6A15F0E00FFBD09F6B9D6B05EB074706
:10149000176058635863D1F838C08D6B05EB0C4565
:1014A000556008324863486396450CD8726C99F8C9
:1014B00000C01CF0FB0F06D020223C4B1A6000221B
:1014C0003B4B1A6084E0052CDAD80FF2080C5CF86C
:1014D00024F000BF85150000ED1400008114000009
:1014E0007F140000BD1500007D150000B8F1070F46
:1014F0003AD8DFE808F0040A10161C232A3217F144
:10150000000A18BF4FF0010A2EE017F1010A18BFB8
:101510004FF0010A28E015F1000A18BF4FF0010A48
:1015200022E015F1010A18BF4FF0010A1CE03D420C
:101530000CBF4FF0000A4FF0010A15E03D4315F1D2
:10154000010A18BF4FF0010A0EE037EA05050CBF8B
:101550004FF0000A4FF0010A06E067EA050515F1B1
:10156000010A18BF4FF0010ABAF1000F88D03469A0
:10157000A2EB8404A4F1080B032481E75A457FF40D
:101580007FAF25E05A45FFF47BAF2024094D2C6046
:10159000012475E700D0024000C0024034C0024080
:1015A00034D00240000C1F8000001FC088F00F40A4
:1015B000708CFF1F84F00F4080200740009C5C452A
:1015C00084BF019DAB442024204D2C60052457E7A7
:1015D000FFF75EFB33690BEB8303009C1A1B921031
:1015E000336A039D03FB0253029C2360B26A934259
:1015F00024BFC2EB030323600120FFF735FC22E088
:10160000022B0CBF4FF002084FF001086DE6032AD1
:1016100018BF4FF001087FF468AE60E64FF0030892
:1016200063E6012B0CD0022B3FF45DAE4FF00108B6
:1016300001E04FF00508032B08BF4FF0040854E603
:101640004FF0060851E605B0BDE8F08F88F00F4076
:1016500038B504460D464369012B08D990F834305B
:1016600013B1FFF711FE0BE0FFF738FD08E090F82B
:10167000343013B1FFF754FC38BDFFF715FC38BD0B
:10168000626820462946102A8CBF00220122FFF7FB
:101690001DFB38BD84B08DE80F001399089BB1FB8A
:1016A000F3F2581E03FB1213C31A079800FB03F34F
:1016B000119850F82200D840069A1040C0B204B0E9
:1016C000704700BF84B02DE9F04F95B01EAC84E8A0
:1016D0000F002A9F002F6DDB239C12940DF1780AD6
:1016E00056464FF000094FF0FF3411946FF00D088B
:1016F00007F11C030AEB4304139451E0B4F1704F5B
:1017000041D22A970F94EE460DF1880CBCE80F00E9
:10171000AEE80F00BCE80F00AEE80F00BCE80F0019
:10172000AEE80F009CE807008EE807000DF1780E88
:101730009EE80F00FFF7AEFF96F8342096F8383099
:10174000104083421FD122464F4510D115F10E0F94
:1017500004D0139CA388D318119300E01194129C19
:10176000022C16D10BF1FF33319C236011E015F1EF
:101770000E0F0DD0BAF83C80A844B8F1110FA8BFE5
:101780006FF00D0805E001350134112DB6D100E0F0
:10179000A84609F101090AF1020A0136B9450CDC33
:1017A000B8F1100FF5DC319CD4F800B008EB0B0455
:1017B0004546A3E74FF0FF341194319C2368103362
:1017C000119CA34224BF31990C6015B0BDE8F04FC5
:1017D00004B0704784B02DE9F04F95B01EAC84E89A
:1017E0000F00DDF88480249C1194279E289C10947F
:1017F000DDF8A4909DF8AC309BB131AB0F936C46F3
:1018000022AD0FCD0FC40FCD0FC40FCD0FC495E87F
:10181000070084E807000DF1780E9EE80F00FFF73F
:1018200051FF319B434504D313F5803F88BF4346A6
:1018300000E04346C8EB030312931F464F44013FA9
:10184000109CA742A6BFC4EB0707012400241394F1
:10185000B14512DA4D464D4C4FF0550B4FF0AA0AE8
:1018600023681B6820465946984723681B68204612
:10187000514698470235B542F2DB139C002C40D00C
:10188000109C651E002F3FDB5524DDF844E05FFA15
:101890008EFA6FEA0A0B13954D46F146CDF8848017
:1018A000CDF890902796109B289329950F97EE4698
:1018B0000DF1880CBCE80F00AEE80F00BCE80F008B
:1018C000AEE80F00BCE80F00AEE80F009CE8070090
:1018D0008EE807000DF1780E9EE80F00FFF7DAFEA4
:1018E00000EA0A0004EA0B031844C0B200F0C8FF83
:1018F000E443E4B2013FB7F1FF3FCFD1A946139DC6
:1019000003E03D46552400E05524129BAB4238DCF1
:10191000DDF844E05FFA8EF76FEA070ABB46374608
:101920004E469946CDF88480119B24932797109BAF
:10193000289329960F95EE460DF1880CBCE80F0010
:10194000AEE80F00BCE80F00AEE80F00BCE80F00E7
:10195000AEE80F009CE807008EE807000DF1780E56
:101960009EE80F00FFF796FE00EA0B0004EA0A0368
:101970001844C0B200F084FFE443E4B2013DA9453D
:10198000D0DD15B0BDE8F04F04B07047A075002061
:1019900070B592B00446434B1B78022B02D9022249
:1019A000404B1A70236B002BBCBF002323633D4BBD
:1019B0001B78022B09D0042B0ED0012B13D120232E
:1019C00023620123A361E36113E010232362032355
:1019D000A3610223E3610CE0082323620F23A361C8
:1019E0000423E36105E004232362FF23A3610823AA
:1019F000E3612D4B1B6823602C4B1B6863602C4BF1
:101A00001B68A360274B1B786361236A294A12680D
:101A100002EB8300A062284909686162E2622749FB
:101A20006164B0FBF3F001EB8001A16494F8341021
:101A300021B123490968521AE26001E00022E26004
:101A4000E268B2FBF3F35A1C12F0010F0EBF2261E1
:101A50000233236112AD002345F8043D124B186890
:101A6000FFF7E8F820462946FFF7F2FD154B1B6803
:101A700093B1119B0F936D4604F110060FCE0FC565
:101A80000FCE0FC50FCE0FC596E8070085E80700FB
:101A900094E80F00FFF79EFE00220A4B1A6012B076
:101AA00070BD00BF648CFF1F748CFF1F788CFF1FFC
:101AB000588CFF1F98740020548CFF1F808CFF1FD0
:101AC000608CFF1F708CFF1F70B594B000230493CF
:101AD000059308220692FF21079108920422099299
:101AE0008DF838300D930F4E0F4D104C00F03CFE2A
:101AF000002807DDFFF78CF800F0EAFDC0B201A96D
:101B0000FFF762F8336813B101A8FFF741FF2A68B5
:101B10002368D31AB3F5FA6FE8D92B682360FFF76F
:101B20002BF8E3E7708CFF1FA8740020A47400203A
:101B3000044B00221A6004490A60044A1060102213
:101B40001A60704714D0034004D0034000D0034013
:101B500021281ED80F4B53F8303093F8802212F012
:101B6000FF0F08D019B1012283F8802070470122AD
:101B700083F800217047074B03EBC000436821B195
:101B80001A6842F003021A6070471A6822F00202D3
:101B90001A607047B841000021281CD80E4B03EB97
:101BA000C0035B68012908D10B4A52F8302082F843
:101BB00080124FF4A2721A607047074A52F8302020
:101BC000002082F8800219B94FF480721A607047C1
:101BD00040F203121A607047B841000072B60C4B15
:101BE0001B680C4A12680C49096862B611F0806FD4
:101BF00002D0322B88BF0132C3F5EA33BF33074925
:101C0000A1FB03039B094FF47A7000FB023070477D
:101C100018E000E0A874002004ED00E089888888BE
:101C200038B50546FFF7DAFF044665B1FFF7D6FF82
:101C3000001BB0F57A7F03D3013D04D004F57A741C
:101C400000F0B4FEF2E738BD10B5254B4FF40002AA
:101C50001A604FF080721A604FF000721A604FF0F5
:101C600080621A604FF000621A6000201D4B1860FD
:101C70004EF6FF710433196028231B4A13600832A3
:101C800013600832136008321360083213600832A0
:101C9000136008321360083213600922134C22606B
:101CA00004F580540434206004342160043423603B
:101CB00008342360143C226004F5FE2404342060C0
:101CC0000B4801600B490B6008310B600A4B1A602E
:101CD00000F08EFEFA20FFF7A3FF00F06BFC10BDB2
:101CE00008E100E0048003400C80034000800340D2
:101CF00008800B400C800B4000800B4030B40E4B32
:101D00001B7843F002020D4C04EBC20460600C48E7
:101D1000007800280CBF8824C82444EA0141074DFC
:101D200045F8321080F00100054A107083F001037D
:101D3000014A137030BC7047147500200080FF1FEB
:101D40008D75002010B4431E032B11D872B60A4AB9
:101D500052F8230050B14268074941F82320074A4E
:101D600032F813400188611A22F8131062B600E0BD
:101D700000205DF8044B7047047500206077002058
:101D8000013803280DD872B6074B53F820302BB119
:101D9000002001305B68002BFBD100E0002062B620
:101DA00070470020704700BF5875002038B572B6E4
:101DB00001231B491B4C5A1812F8012C12F0080F72
:101DC00024D09A0054F832506DB9164B03EBC2017F
:101DD00008304860144943F83210144B1A78013A1D
:101DE0001A7062B638BD42F0010254F832506DB933
:101DF0000C4B03EBC201083048600D4943F8321028
:101E00000A4B1A78013A1A7062B638BD0133052BB5
:101E1000D1D162B60022054B1A7000F02FFC38BDFC
:101E2000E84200000080FF1F88004000827500200B
:101E3000C800400010B4431E032B37D8400140F0C7
:101E400010001C4A104472B61B4AD25C032A09D8FF
:101E5000DFE802F019021B050830022216E0083004
:101E6000042213E0154A52F823201AB9134A42F803
:101E7000231003E0124A52F823205160104A42F81E
:101E8000231062B612E0032200E005220A4CE2545D
:101E900001F10803436000F00803002B0CBF882306
:101EA000C8230A8843EA0243036062B65DF8044B24
:101EB000704700BF0080FF1FC074002058750020CD
:101EC000687500202DE9F84FA34CDFF8E092DFF8A9
:101ED000E0A2DFF8E0B22578EDB215F0040F1DD0D6
:101EE0009E4B1B7813F0FF0F16D09D4B1B7803F011
:101EF000FF022BB1531EDBB2994A137003B900BE27
:101F0000984B1B7803F0FF0233B1531EDBB2954AA6
:101F100013700BB900F0F2FC0423237015F0080FC6
:101F200000F0DC8299F80030DBB21D0940F01D8220
:101F30008D4D9E0805EBC6035A6855F83630C3F33D
:101F40008303013B0C2B00F20C82DFE813F0C70186
:101F5000C7010A020A020A020A020A020A02E4018C
:101F60000A020A020A020D00804913680B605268D7
:101F70004A607F4A45F8362000227E490A607A4945
:101F80000A618A6101217C4A11709BB240F2816230
:101F9000934218D8B3F5D06F2ED2B3F5817F00F0FD
:101FA0001E8106D8802B00F0C980822B00F0CC80E7
:101FB00062E140F20232934200F02681B3F5A06F55
:101FC00000F05E8158E142F22102934200F08281EA
:101FD00007D8B3F5086F00F0AB80B3F5106F11D0E0
:101FE0004AE142F22122934200F0418142F2213241
:101FF000934200F045813FE1604B5D68002D40F069
:10200000188130E1594B9A78544B1A70564D05F1AE
:1020100080062B6A13F0800F03D0686A083800F03E
:102020002DFB0835B542F4D1DFF88C810026374608
:10203000534AB05828B1456800F020FB0DB128463E
:10204000F9E700234E4973504E4AB3504E4BF058B7
:1020500028B1456800F012FB0DB12846F9E70023CE
:1020600049497350494AB35028F8023F484BFB5C3A
:10207000023B032B0AD8DFE803F002060206002227
:10208000434BDA5502E00122414BDA550137043661
:10209000102ECDD100223F4B1A7001253E4EDFF8A5
:1020A0001C81314F05EB080313F8013C06F8043B93
:1020B00013F0080F2DD000F0C1FA48B1A90007EBCA
:1020C000451200F108035360344A47F8312007E015
:1020D000AB00002247F833202E4B1A7801321A70D9
:1020E00000F0ACFA58B1AB0043F0010307EBC301B9
:1020F00000F108024A601E4A47F8332009E0AB00AD
:1021000043F00103002247F83320224B1A780132B2
:102110001A70AA0042F00201002347F8313042F061
:10212000030247F8323001351D4B9E42BAD116E208
:102130000A4B1B781B4D2B700127A6E0194D00237D
:102140002B706B700227A0E0084B9B88042B37D9BB
:102150000F22154B1A70BDE0802007408C750020BF
:10216000157500208E7500200080FF1F78750020F7
:10217000C8004000AC7400208D750020EC420000C7
:1021800004750020B0740020587500206875002088
:10219000C074002082750020C420074088004000E1
:1021A000D420074084750020C020074090200740BD
:1021B00094200740982007405E770020E842000006
:1021C0009E4A0021117051709D4A12F8233013F07D
:1021D000020F58D0994D01232B70022755E0994BDF
:1021E0009B8803F07F03042B02DC964A52881AB1C5
:1021F0000F22934B1A706DE0914A12F8231021F0D0
:10220000020102F82310AAE18E4B9B8803F07F03A2
:10221000042B02DC8B4A52881AB10F22884B1A70A9
:1022200058E0874A12F8231041F0020102F8231007
:1022300095E1844B5E889F88834BA3F10C02114685
:1022400033F80C0CB04209D133F80A0CB84205D16E
:10225000360A032E0CBF2F78178916E00D690C3350
:102260000C32002DEBD10F22754B1A7032E0754BFA
:102270009A78764B1A7072E10F22714B1A7029E02E
:1022800000273D4601E002276C4D6E4BDB889F42E4
:1022900028BF1F46402F34BF3E46402628463146C1
:1022A000FFF72CFD3544BF1B03D13F2E00F25C81AC
:1022B00010E0402F34BF3E46402628463146FFF707
:1022C0001DFD3544BF1B01D13F2E03D9604B1D605E
:1022D000604B1F8001238AF8003042E0594B198877
:1022E00042F22103994212D15B4BD81D12F8011B17
:1022F00003F8011F8342F9D1584B1B68862B02D18A
:102300000F22574B1A7000200146FFF7F7FC554B80
:1023100045F8363025E04E4B1E68BEB14D4FB7F83C
:102320000080B8F1400F34BF45464025304629466D
:10233000FFF7E4FCC5EB08039BB23B800BB9402DD3
:1023400001D1354400E00025414B1D603D4B1B8809
:10235000B3F5A06F05D13B4B00225A709B788BF8E8
:10236000003001238AF80030B5E03F4E9F0806EBAD
:10237000C708D8F80420A2F10800013DEDB213F01F
:10238000080F47D000F07AF9384B53F825304BB39B
:102390005A68364941F8252003F10802C8F804209C
:1023A000334A525D032A12D8DFE802F002060A0E11
:1023B00003212F4A51550AE002212D4A515506E0CA
:1023C00005212B4A515502E00421294A515518F0A4
:1023D000080F0CBF8822C8221B8842EA034346F834
:1023E000373078E0224B5B5D032B0BD8DFE803F03E
:1023F0007373020600221E4B5A556CE001221C4BDF
:102400005A5568E018F0080F0CBF02220322184B3F
:102410005A5560E056F837301B0C22F8083C002B68
:1024200051D0002322F8063C42F8043C114B53F8EB
:1024300025300BBB0F4B43F8250021E084750020AD
:10244000C020074078750020F84200009C750020ED
:10245000AC7400208075002067770020687700202A
:1024600015750020C80040000080FF1F587500202F
:10247000C0740020047500203F4B53F8253058608D
:102480003D4B43F825003D4B33F8151032F8082C2E
:102490000A4423F8152000F0D1F860B100F10803D8
:1024A000C8F8043018F0080F354B364A08BF1346F9
:1024B00046F837300FE0002346F83730324B1A78B1
:1024C00001321A7007E018F0080F2D4B2D4A08BF93
:1024D000134646F8373008232370FCE415F0010F4B
:1024E00022D02A4902230B700022294B1A70294B53
:1024F00024481860284C5C6098602848D8601A61AD
:102500009A610D20264B1870FF2326480370083867
:10251000037018300270244A13709F22234B1A70E4
:1025200001230B70BDE8F88F15F0800F05D00D2248
:102530001B4B1A708022403B1A7015F0020F06D018
:10254000184B1A78D2B21A700222083B1A7015F092
:10255000100F0ED01022164B1A70BDE8F88F002015
:102560000146FFF7CBFBB5E628460021FFF7C6FB87
:10257000B0E6BDE8F88F00BFB0740020607700209F
:10258000C800400088004000827500209420074069
:10259000147500200080FF1FC474002018750020EF
:1025A000C0200740882007408C2007408420074037
:1025B0008020074008B501F0F1FA00231B491A46B4
:1025C0005A50C81842600833882BF9D1184B1A6842
:1025D00042F480221A60154BC3F30721154A11708B
:1025E000C3F30741143211701B0E04321370FF2322
:1025F000343A137008321370783A1370012384321E
:10260000137000216C3211707C3A137070220A4BE7
:102610001A704FF40072A3F241331A60102203F1D2
:10262000C04303F5C8231A7008BD00BF0080FF1F18
:10263000348004409C20074049E400E072B60D4B12
:102640001A68B2FA82F30B2B02D962B600207047E7
:102650004FF00041D94022EA010206490A6062B601
:10266000054903EBC303DB00C8180022CA504260CF
:10267000704700BF6087FF1F0084FF1F08B50F4B26
:10268000C31A0F4AA2FB03131B090B2B14D80D4AC4
:1026900012783AB10C4A127812F0FF0F02D0FFF70D
:1026A00085FB08BD72B6094A4FF0004121FA03F3D9
:1026B00011681943116062B608BD00BF0084FF1F96
:1026C000398EE338827500208C7500206087FF1FEB
:1026D00010B5134B1B6853B9124B1B7813F0FF0F47
:1026E00018D00320FFF72EFB0D4B1860A8B10C4B40
:1026F000186843885A1C03441C7A03889A4206D3FC
:10270000FFF7BCFF0022064B1A60204610BD428036
:10271000204610BD4FF0FF3010BD4FF0FF3010BD10
:10272000987500208C75002008B50D4B1B6883B987
:102730000C4B1B7813F0FF0F08D00320FFF702FBB0
:10274000074B186028B94FF0FF3008BD4FF0FF303D
:1027500008BD034B1B685A881344187A08BD00BF94
:10276000987500208C750020044B9888044B1B68DA
:102770001BB11A885B88D31A184470476077002011
:10278000987500202DE9F04704460122374B1A7056
:102790000E46002964D0DFF8E080DFF8E0909A462A
:1027A000334FD8F8003083BB99F8003013F0FF0F97
:1027B00006D100222D4B1A704FF0FF30BDE8F08794
:1027C0004DF2E9050420FFF7DBFA07280AD80123B8
:1027D0008AF80030FFF732FFC8F80000A8B90023DC
:1027E0008AF80030013D01D03B7833B10122204B03
:1027F0001A704FF0FF30BDE8F08700F0D7F899F875
:10280000003013F0FF0FDDD1D3E700233B70D8F881
:1028100000104A88C2F14005AE4238BF354602F189
:1028200008030B442A444A80761B3DB1254414F822
:10283000012B03F8012BAC42F9D100E025464B886F
:102840003F2B07D940230B800420FFF7F3FA002326
:10285000C8F800300522074B1A700EB12C46A0E7CD
:102860000020024B1870BDE8F08700BF8F75002074
:10287000947500208E750020907500208C750020C6
:1028800000B583B002AB03F8010D18460121FFF734
:1028900079FF03B05DF804FB10B5144B1B7813F0FF
:1028A000FF0F21D00122124B1A70124B196851B13F
:1028B0000024114B1C704B880B800420FFF7BAFAE0
:1028C0000C4B1C600DE0FFF7B9FE014630B1002251
:1028D000094B1A700420FFF7ADFA02E00122064B03
:1028E0001A700022024B1A7010BD00BF8C750020B8
:1028F0008F750020907500208E75002008B50E4B56
:102900001B7813F0FF0F16D10C4B196841B14B889F
:102910000B800420FFF78EFA0022084B1A6008BDD6
:10292000FFF78CFE014618B10420FFF783FA08BDBB
:102930000122034B1A7008BD8F750020907500208E
:102940008E75002008B5FEF729F9FFF7BDF800F0F5
:102950002DF8FAE708B5FFF707FF08BD08B5FFF740
:10296000B7FE08BD08B5FFF7DFFE08BD08B5FFF7E5
:1029700093FF08BD08B50846FFF782FF08BD00BFFA
:1029800008B508461146FFF7FDFE08BD704700BFB9
:10299000044B00221A714FF47A7199601A73024A3B
:1029A0001A607047A0750020D042000008B50F4B98
:1029B0001B78CBB901220D4B1A70FFF7D5FE08B179
:1029C000FFF7E4FF00F0DEFA08B101F0B1F900F022
:1029D000CFFD08B101F042FA01F030F808B101F082
:1029E000D3FA0022014B1A7008BD00BFB075002059
:1029F00060223A4B1A70E12201331A70384B1B786F
:102A0000082B10D1212203F1804303F56C331A60A7
:102A1000132334490B6001F5FF2101F2FC710A60B8
:102A2000314A13601FE00A2B0DD139222F4B1A6057
:102A300013232C490B6001F5FF2101F2FC710A60A0
:102A4000294A13600FE00C2B0CBF35225D22274B67
:102A50001A60122323490B6001F5FF2101F2FC717A
:102A60000A60214A1360224B1B7833B10123214AAB
:102A7000136002F50022136005E000231D4A136075
:102A800002F5002213601C4B1B78012B06D8802313
:102A90001A4A136002F5002213601AE0042B06D8CC
:102AA0008423164A136002F50022136011E0082BFC
:102AB00006D88523114A136002F50022136008E04E
:102AC000102B94BF862387230C4A136002F5002243
:102AD000136001220A4B1A70704700BF0040074084
:102AE0006487FF1F0CB003400CB00B4008B00340DC
:102AF000B275002020B003406587FF1F24B003405B
:102B0000B1750020024B1A6801321A60704700BF8D
:102B1000A874002008B50D4C236813F4802F01D051
:102B2000FFF7D0F9236813F4806F01D000F0B4FAF6
:102B3000236813F4006F01D000F07EFD236813F4C6
:102B4000805FE9D000F0CAFFE6E700BF34800440B0
:102B500008B5FFF7DFFF00BF1022014B1A80704756
:102B600000200540704700BFEFF31383ABB9EFF3CC
:102B70001083ABB9EFF3058323B10F2B05D9094AB5
:102B8000985C03E04FF4807000E00020EFF31183C5
:102B90003BB1834238BF184670474FF0FF30704753
:102BA00000207047F0E300E0194B1A6842F480629D
:102BB0001A600023174A1370174A1370174A1370CC
:102BC000174A1370174A137040F21332164B1A60EB
:102BD0004FF4517204331A60C0F34432134B1A702D
:102BE000C0F347125A7000F01F00987204229A70C6
:102BF0000221D9745A7588221A743C22DA70402254
:102C00000B4B1A704FF40052A3F229331A6070472D
:102C1000348004403C760020B975002044760020C2
:102C20003D760020B875002040A0044000A006407A
:102C30002DE400E0164B9B7803F0EC0300F0030258
:102C4000134310F0040F18BF43F01003104A9370A1
:102C500000F00F03042B04D11346927942F0400296
:102C60009A710B4B5A7902F0EF0210F0100F18BF57
:102C700042F01002064B5A719B7903F0EF0310F0FB
:102C8000200F18BF43F01003014A9371704700BF33
:102C900000A0064010B5144B1B6813F4806F21D0C0
:102CA000124B1B7813F0FF0F06D0104CFFF77EFE7F
:102CB000237813F0FF0FF9D14FF400520C4B1A6038
:102CC00000230C4AD37040F203120B490A6004310E
:102CD0000A600A4A13700A4A13700A4B1B680BB148
:102CE00001221A7010BD00BF34800440B875002066
:102CF00084E100E000A0064040A004403C760020B3
:102D0000B9750020B475002010B50446094A13783F
:102D100013F0FF0FFBD120460121FEF73DFF2046B7
:102D20000021FEF715FF044B53F83420034B1A60C3
:102D300010BD00BFB8750020B841000040760020EB
:102D400010B50D4B1B6813F4806F12D021280CD8DE
:102D50000A4C0B4B53F8303023600121FEF71CFF67
:102D6000236800221A70012010BD0020034B186058
:102D700010BD002010BD00BF34800440B475002099
:102D8000B8410000114B1B6813F4806F1BD0122850
:102D900004D140F202320E4B1A600DE0142804D127
:102DA00040F202320B4B1A6006E00B4B5A7B02F0EA
:102DB000FE025A7300207047074B5A7B42F0010213
:102DC0005A73012070470020704700BF34800440D0
:102DD0000CA0044014C0044000A006402DE9F041BE
:102DE00007461F4B1B6813F4806F37D01D4B1B68C1
:102DF0000BB101221A701C4B1C780134402C28BFE7
:102E000000241A4D1A4EDFF86C8017E0FFF7ACFE75
:102E100040280FDC337913F0800F0FD02B7801336B
:102E2000402B28BF002318F80320D2B2F271DBB286
:102E30002B7003E0FF2801DDFFF7B8FD2B78DBB234
:102E40009C42E3D0FFB20B4B1F5501220A4B1A7074
:102E5000E4B2054B1C70BC22054BDA70BDE8F08172
:102E60003480044040760020447600203D760020E7
:102E700000A00640BC750020B87500202DE9F84F71
:102E80000746284B1B6813F4806F49D0264B1B68FC
:102E90000BB101221A7007EB010B5F453DD2DFF841
:102EA0009890224EDFF88C80DFF890A099F80040CF
:102EB0000134402C28BF00243578EDB2A54220D142
:102EC000BC2388F80330FFF74FFE402811DC98F848
:102ED000043013F0800F10D033780133402B28BF1B
:102EE00000231AF80320D2B288F80720DBB233702F
:102EF00003E0FF2801DDFFF759FD3378DBB29D4287
:102F0000E1D017F8013B0AF804300122084B1A708F
:102F1000E4B289F800405F45C8D1BC22054BDA70A5
:102F2000BDE8F88F34800440407600203D760020D4
:102F3000B875002000A0064044760020BC75002033
:102F400010B5064B1B7813F0FF0F06D0034CFFF7AC
:102F50002DFD237813F0FF0FF9D110BDB8750020B7
:102F6000064B1B78DBB2064A1278D2B293422CBFD2
:102F70003F3202F1FF32D01A704700BF4476002082
:102F80003D760020054B1878C0B2054B1B78DBB2AC
:102F9000984238BF4030C01A704700BF3C760020CE
:102FA000B975002010B4184B1A78D2B2174B1B78A1
:102FB000DBB29A4218D001333F2B18D81449C85CB1
:102FC000C0B2DCB211490C7012490968C9B19A4209
:102FD00003D300E00023D31A01E04032D31A1A2BA6
:102FE0000FDC00230B700CE04FF0FF3009E0084BC2
:102FF0001878C0B20021054B1970064B19680029DA
:10300000E8D15DF8044B70473C760020B97500208C
:10301000FC750020B4750020094B1A78D2B2094B18
:103020001B78DBB29A4207D00133402B28BF002324
:10303000054AD05CC0B270474FF0FF30704700BF08
:103040003C760020B9750020FC7500200D4B1B68F4
:1030500013F4806F14D00C4BDA7802F0CB02DA70E4
:1030600040225A74DA7842F03402DA70074B1A7848
:10307000D2B2074B1A70074B1B680BB100221A70B3
:10308000704700BF3480044000A00640B97500209E
:103090003C760020B475002070B43D4B1B7913F0D2
:1030A000300F33D072B63A4B9B7D03F0FF022BB941
:1030B000374BDA7940225A7462B627E062B6354B54
:1030C0001978C9B2344B1C78E4B2314D334EEB79E8
:1030D000D8B24B1C402B28BF0023A3421CBFF05486
:1030E0001946531E13F0FF02F1D1CAB2294B1A70D0
:1030F0002B4B1B6853B1A1422EBFC4EB0101C4F19D
:10310000400409192729C4BF01221A70204BDA781C
:10311000D2B212F0800F27D01B7913F0800F23D08A
:10312000204B1C78E4B2204B1B78DBB29C4210D0C1
:1031300017491E4D01E0A3420BD00133402B28BF9D
:1031400000230879E85CC0B2C871087DC0B20728C6
:10315000F1D9DBB214490B700D4B1B7913F0800FC2
:1031600002D07C210A4BD97012F0400F0ED0084BD0
:103170001B7913F0400F09D000220D4B1A700D4B34
:103180001B6803B11A703C22014BDA7070BC7047A7
:1031900000A006403C760020B9750020FC75002098
:1031A000B4750020447600203D760020BC750020D8
:1031B000B875002040760020194B1A6842F400626E
:1031C0001A600023174A1370174A1370174A1370B6
:1031D000174A1370174A137040F21332164B1A60D5
:1031E0004FF4517204331A60C0F34432134B1A7017
:1031F000C0F347125A7000F01F00987204229A70B0
:103200000221D9745A7588221A743C22DA7040223D
:103210000B4B1A704FF40042A3F22B331A60704725
:1032200034800440B076002046760020B876002036
:10323000B1760020457600200CB0044000B0064076
:103240002FE400E0164B9B7803F0EC0300F0030240
:10325000134310F0040F18BF43F01003104A93708B
:1032600000F00F03042B04D11346927942F0400280
:103270009A710B4B5A7902F0EF0210F0100F18BF41
:1032800042F01002064B5A719B7903F0EF0310F0E5
:10329000200F18BF43F01003014A9371704700BF1D
:1032A00000B0064010B5114B1B6813F4006F1CD022
:1032B0000F4B1B7813F0FF0F06D00D4CFFF776FB7A
:1032C000237813F0FF0FF9D14FF40042094B1A6035
:1032D0000023094AD37040F2031208490A600431FE
:1032E0000A60074A1370074A137010BD3480044007
:1032F0004576002084E100E000B006400CB00440B8
:10330000B07600204676002010B50446094A1378AE
:1033100013F0FF0FFBD120460121FEF73DFC2046B4
:103320000021FEF715FC044B53F83420034B1A60C0
:1033300010BD00BF45760020B8410000B4760020E3
:103340000D4B1B6813F4006F13D016280AD14FF4ED
:1033500040720A4B1A600A4B5A7B42F008025A73B9
:1033600001207047064B5A7B02F0F7025A73002087
:1033700070470020704700BF3480044004B0044010
:1033800000B006400D4B1B6813F4006F13D01728D4
:103390000AD14FF440720A4B1A600A4B5A7B42F032
:1033A00001025A7301207047064B5A7B02F0FE025D
:1033B0005A73002070470020704700BF34800440DB
:1033C00008B0044000B006402DE9F04107461F4B0D
:1033D0001B6813F4006F37D01D4B1B680BB1012223
:1033E0001A701C4B1C780134282C28BF00241A4D5D
:1033F0001A4EDFF86C8017E0FFF7B6FB40280FDCB1
:10340000337913F0800F0FD02B780133282B28BF8E
:10341000002318F80320D2B2F271DBB22B7003E064
:10342000FF2801DDFFF7C2FA2B78DBB29C42E3D024
:10343000FFB20B4B1F5501220A4B1A70E4B2054B29
:103440001C70BC22054BDA70BDE8F081348004406A
:10345000B4760020B8760020B176002000B0064097
:1034600048760020457600202DE9F84F0746284B86
:103470001B6813F4006F49D0264B1B680BB1012267
:103480001A7007EB010B5F453DD2DFF89890224E92
:10349000DFF88C80DFF890A099F800400134282CE8
:1034A00028BF00243578EDB2A54220D1BC2388F88E
:1034B0000330FFF759FB402811DC98F8043013F073
:1034C000800F10D033780133282B28BF00231AF83F
:1034D0000320D2B288F80720DBB2337003E0FF2864
:1034E00001DDFFF763FA3378DBB29D42E1D017F8D4
:1034F000013B0AF804300122084B1A70E4B289F843
:1035000000405F45C8D1BC22054BDA70BDE8F88F9A
:1035100034800440B4760020B17600204576002047
:1035200000B00640B87600204876002010B5064B63
:103530001B7813F0FF0F06D0034CFFF737FA237800
:1035400013F0FF0FF9D110BD45760020064B1B7814
:10355000DBB2064A1278D2B293422CBF273202F174
:10356000FF32D01A704700BFB8760020B176002035
:10357000054B1878C0B2054B1B78DBB2984238BFB8
:103580004030C01A704700BFB07600204676002059
:103590000A4B1A78D2B20A4B1B78DBB29A4209D096
:1035A0000133402B28BF0023064AD05CDBB2044A1B
:1035B000137070474FF0FF30704700BFB0760020A7
:1035C0004676002070760020094B1A78D2B2094B5B
:1035D0001B78DBB29A4207D00133402B28BF00236F
:1035E000054AD05CC0B270474FF0FF30704700BF53
:1035F000B076002046760020707600200A4B1B68CB
:1036000013F4006F0FD0094BDA7802F0CB02DA70B6
:1036100040225A74DA7842F03402DA70044B1A7895
:10362000D2B2044B1A7070473480044000B0064098
:1036300046760020B076002070B4364B1B7913F02C
:10364000300F25D072B6334B9B7D03F0FF022BB9B0
:10365000304BDA7940225A7462B619E062B62E4BCA
:103660001978C9B22D4B1D78EDB22A4C2C4EE37956
:10367000D8B24B1C402B28BF0023AB421CBFF054D8
:103680001946531E13F0FF02F1D1C9B2224B197033
:10369000204BDA78D2B212F0800F27D01B7913F0CA
:1036A000800F23D01F4B1C78E4B21F4B1B78DBB27A
:1036B0009C4210D017491D4D01E0A3420BD00133AD
:1036C000282B28BF00230879E85CC0B2C871087DA8
:1036D000C0B20728F1D9DBB213490B700D4B1B792F
:1036E00013F0800F02D07C210A4BD97012F0400FEA
:1036F0000ED0084B1B7913F0400F09D000220C4B61
:103700001A700C4B1B6803B11A703C22014BDA7023
:1037100070BC704700B00640B076002046760020AE
:1037200070760020B8760020B17600204876002020
:1037300045760020B4760020174B1A6842F4805278
:103740001A600023154A1370154A1370154A137036
:10375000154A1370154A137040F21331144A116060
:103760004FF4517104321160C0F34431114A1170A9
:10377000C0F34711517000F01F00907293701374E2
:103780002C23D37040220C4B1A704FF40032A3F25A
:103790002D331A60704700BF348004402477002026
:1037A000BA7600202C77002025770020B9760020FB
:1037B00008C0044000C0064031E400E0164B9B788E
:1037C00003F0EC0300F00302134310F0040F18BFE2
:1037D00043F01003104A937000F00F03042B04D140
:1037E0001346927942F040029A710B4B5A7902F0DB
:1037F000EF0210F0100F18BF42F01002064B5A7182
:103800009B7903F0EF0310F0200F18BF43F0100373
:10381000014A9371704700BF00C0064010B5114BBC
:103820001B6813F4805F1CD00F4B1B7813F0FF0F45
:1038300006D00D4CFFF7BAF8237813F0FF0FF9D13B
:103840004FF40032094B1A600023094AD37040F24A
:10385000031208490A6004310A60074A1370074AD4
:10386000137010BD34800440B976002084E100E07C
:1038700000C0064008C0044024770020BA7600202B
:1038800010B50446094A137813F0FF0FFBD1204608
:103890000121FEF781F920460021FEF759F9044B7A
:1038A00053F83420034B1A6010BD00BFB9760020D6
:1038B000B8410000287700200D4B1B6813F4805F8F
:1038C00014D002280BD14FF440720A4B1A6003F552
:1038D00000335A7B42F008025A7301207047064BAE
:1038E0005A7B02F0F7025A7300207047002070479D
:1038F0003480044000C0044000C006400D4B1B68EB
:1039000013F4805F13D00E280AD14FF440720A4B93
:103910001A600A4B5A7B42F001025A730120704729
:10392000064B5A7B02F0FE025A73002070470020BB
:10393000704700BF3480044004C0044000C006400B
:103940002DE9F04107461F4B1B6813F4805F37D009
:103950001D4B1B680BB101221A701C4B1C780134E3
:10396000282C28BF00241A4D1A4EDFF86C8017E06F
:10397000FFF7FAF840280FDC337913F0800F0FD0EF
:103980002B780133282B28BF002318F80320D2B24C
:10399000F271DBB22B7003E0FF2801DDFFF706F8C0
:1039A0002B78DBB29C42E3D0FFB20B4B1F550122B8
:1039B0000A4B1A70E4B2054B1C70AC22054BDA704E
:1039C000BDE8F08134800440287700202C77002067
:1039D0002577002000C00640BC760020B976002084
:1039E00038B505460C4629B115F8010BFFF7A8FFBD
:1039F000013CF9D138BD00BF10B5064B1B7813F060
:103A0000FF0F06D0034CFEF7D1FF237813F0FF0F12
:103A1000F9D110BDB9760020064B1B78DBB2064AFF
:103A20001278D2B293422CBF273202F1FF32D01A61
:103A3000704700BF2C77002025770020054B1878B1
:103A4000C0B2054B1B78DBB2984238BF4030C01A79
:103A5000704700BF24770020BA7600200A4B1A78FE
:103A6000D2B20A4B1B78DBB29A4209D00133402B09
:103A700028BF0023064AD05CDBB2044A13707047AB
:103A80004FF0FF30704700BF24770020BA76002047
:103A9000E4760020094B1A78D2B2094B1B78DBB2CE
:103AA0009A4207D00133402B28BF0023054AD05C3F
:103AB000C0B270474FF0FF30704700BF247700203E
:103AC000BA760020E4760020024B1A78D2B2024B7C
:103AD0001A707047BA76002024770020264B1B7995
:103AE00013F0200F12D0244BDB79D9B2234B1B7873
:103AF0000133402B28BF0023214A1278D2B29A42C8
:103B000004D0204AD154DBB21C4A13701A4BDB7824
:103B1000DBB213F0800F1CD0174A127912F0800F1D
:103B200017D0194A1178C9B2184A1278D2B2914204
:103B300003D16C21104AD1700BE00132282A28BF32
:103B400000221349885CC0B20B49C871D2B20F4938
:103B50000A7013F0400F0ED0074B1B7913F0400F83
:103B600009D000220B4B1A700B4B1B6803B11A7063
:103B70002C22014BDA70704700C0064024770020E9
:103B8000BA760020E47600202C77002025770020EC
:103B9000BC760020B97600202877002000B585B0DB
:103BA00072B61B4B70221A7041211A4A11700F21F4
:103BB000013A117080221A701A46137813F0800FA0
:103BC000FBD0154B186862B6144B98429CBF00EBB3
:103BD0008000400001A90A2200F0E6F99DF80430B7
:103BE0007BB908E001A9595C31B1918002320133FF
:103BF0000A2BF7D100E0002301335B00084A137061
:103C000003E0074A53800123ECE705B05DF804FBAD
:103C10000000024007000240080002407F96980022
:103C2000F487FF1F08B503681B68C9B2984708BD31
:103C300008B503681B68C9B2984708BD08B5036892
:103C40001B68C9B2984708BD08B503681B68C9B2AC
:103C5000984708BD08B5044800EB5100B0FBF1F0EF
:103C6000FEF7A2FF08BD00BF001C4E0E10B51446A3
:103C7000054800EB5100B0FBF1F0FEF795FF204640
:103C8000FEF7D8FF10BD00BF001C4E0E08B5FFF7B1
:103C900001F808BD08B50846FFF736F808BD00BFB3
:103CA00008B50846FFF74CF8003018BF012008BDE2
:103CB00008B50846FFF766F8003018BF012008BDB8
:103CC00008B5FFF75FF908BD08B5FFF7A5F908BD0E
:103CD00008B5FFF767F908BD08B5FFF731F908BD6A
:103CE00008B5FFF7B3F908BD08B5FFF739F908BD06
:103CF00008B50846FFF772F8012008BD08B5084668
:103D0000FFF76CF8012008BD10B5144608461146AF
:103D1000FFF7B4F8204610BD38B50D46084600F050
:103D20008DF9044628462146FFF7A8F8204638BDFD
:103D3000704700BF044B00221A714FF47A719960EA
:103D40001A73024A1A607047307700204843000017
:103D500008B503681B68C9B2984708BD08B5036871
:103D60001B68C9B2984708BD08B503681B68C9B28B
:103D7000984708BD08B503681B68C9B2984708BDD5
:103D800008B5044800EB5100B0FBF1F0FFF714FA5E
:103D900008BD00BF001C4E0E10B51446054800EBD0
:103DA0005100B0FBF1F0FFF707FA2046FFF74AFA9F
:103DB00010BD00BF001C4E0E08B5FFF773FA08BD1A
:103DC00008B50846FFF7A0FA08BD00BF08B50846C9
:103DD000FFF7B6FA003018BF012008BD08B5084645
:103DE000FFF7D0FA003018BF012008BD08B5FFF773
:103DF000BFFB08BD08B5FFF7E7FB08BD08B5FFF737
:103E0000C7FB08BD08B5FFF791FB08BD08B5FFF774
:103E1000F5FB08BD08B5FFF799FB08BD08B50846D6
:103E2000FFF7D2FA012008BD08B50846FFF7CCFA23
:103E3000012008BD10B5144608461146FFF714FBD3
:103E4000204610BD38B50D46084600F0F7F8044688
:103E500028462146FFF708FB204638BD704700BFC3
:103E6000044B00221A714FF47A7199601A73024A56
:103E70001A60704740770020A043000008B503682F
:103E80001B68C9B2984708BD08B503681B68C9B26A
:103E9000984708BD08B503681B68C9B2984708BDB4
:103EA00008B503681B68C9B2984708BD08B504483F
:103EB00000EB5100B0FBF1F0FFF73EFC08BD00BF86
:103EC000000E270710B51446054800EB5100B0FB63
:103ED000F1F0FFF731FC2046FFF770FC10BD00BF8A
:103EE000000E270708B5FFF799FC08BD08B508467E
:103EF000FFF7C6FC08BD00BF08B50846FFF7DCFCAD
:103F0000003018BF012008BD08B50846FFF7F6FCD1
:103F1000003018BF012008BD08B5FFF78FFD08BDB0
:103F200008B5FFF7B7FD08BD08B5FFF797FD08BD59
:103F300008B5FFF761FD08BD08B5FFF7C5FD08BD71
:103F400008B5FFF769FD08BD08B50846FFF7F8FC9E
:103F5000012008BD08B50846FFF7F2FC012008BDA6
:103F600010B5144608461146FFF73AFD204610BD2D
:103F700038B50D46084600F061F80446284621464B
:103F8000FFF72EFD204638BD704700BF044B0022CE
:103F90001A714FF47A7199601A73024A1A60704765
:103FA00050770020F843000030B40023B0FBF2F457
:103FB00002FB14041D46092C94BF30343734E4B29C
:103FC000CC54B0FBF2F008B10133EFE70D4400220E
:103FD0006A70934207DD885CCC5C8C54C854013213
:103FE000013B9A42F7DB084630BC704770B50F4E74
:103FF0000F4D761BB61007D0043D0024013455F850
:10400000043F9847A642F9D10A4E0B4D761B00F0AB
:104010001FFAB61008D0043D0024013455F8043FBF
:104020009847A642F9D170BD70BD00BF5C44000046
:104030005C440000744400005C44000020F0030174
:1040400010F00300C0F1000051F8043B00F1040C33
:104050004FEACC0C6FF000021CBF22FA0CF21343A3
:104060004FF0010C4CEA0C2C4CEA0C4CA3EB0C026C
:1040700022EA030212EACC1204BF51F8043B0430D6
:10408000F4D013F0FF0F1FBF013013F47F4F013046
:1040900013F47F0F18BF0130704700BF024B13B1FC
:1040A000024800F005B8704700000000BD40000065
:1040B000014600200246034600F018B838B5094D05
:1040C000094C641BA41018BF05EB840505D0013C06
:1040D00055F8043D9847002CF9D1BDE8384000F070
:1040E000C9B900BF0000000000000000F0B5274C77
:1040F0002668D6F8484185B00746002C41D065684F
:104100001F2D1EDD224818B94FF0FF3005B0F0BD5D
:104110004FF4C870039102920193AFF300800399AA
:10412000029A019B04460028EED0D6F8485125603B
:10413000002060600546C6F84841C4F88801C4F80C
:104140008C013FB9AB1C00200135656044F8231099
:1041500005B0F0BD04EB85004FF0010CC0F88820DD
:10416000D4F888610CFA05F21643022FC4F888616E
:10417000C0F80831E6D1D4F88C311A43C4F88C2148
:10418000E0E706F5A674C6F84841B8E74C440000DD
:104190000000000031414C5300000000486172648F
:1041A00077617265000000005465656E7379313285
:1041B00030000000332E30004008FE4340A0044091
:1041C0004408FE4344A004400018FE4300C00440DD
:1041D0003000FE43309004403400FE4334900440ED
:1041E0001C18FE431CC004401018FE4310C00440BD
:1041F0000818FE4308C004400C18FE430CC00440DD
:104200000C10FE430CB004401010FE4310B00440EC
:104210001810FE4318B004401C10FE431CB00440AC
:104220001410FE4314B004400418FE4304C00440BC
:104230000010FE4300B004400008FE4300A004400C
:104240000408FE4304A004400C08FE430CA00440F4
:104250000808FE4308A004401418FE4314C004409C
:104260001818FE4318C004400410FE4304B0044074
:104270000810FE4308B004401400FE4314900440AC
:104280004C08FE434CA004400420FE4304D00440EC
:104290002410FE4324B004402010FE4320B004400C
:1042A0002810FE4328B004402C10FE432CB00440DC
:1042B0000020FE4300D004404808FE4348A00440CC
:1042C0001000FE43109004400000000000000000B9
:1042D0007529000081290000552900005D29000092
:1042E000652900006D290000001519150001000066
:1042F0006887FF1F12000000000200009487FF1F64
:104300004300000000030000F087FF1F00000000D2
:10431000010309047C87FF1F000000000203090459
:10432000D887FF1F0000000003030904F487FF1F64
:10433000000000000000000000000000000000007D
:104340000000000000000000F13C0000093D0000FA
:10435000C13C0000D13C0000C93C0000D93C000039
:10436000553C00006D3C00008D3C0000953C000079
:10437000A13C0000B13C0000E13C0000E93C000031
:10438000253C0000313C00003D3C0000493C000061
:10439000193D0000FD3C000000000000000000008E
:1043A0001D3E0000353E0000ED3D0000FD3D0000DB
:1043B000F53D0000053E0000813D0000993D0000F4
:1043C000B93D0000C13D0000CD3D0000DD3D0000D5
:1043D0000D3E0000153E0000513D00005D3D000017
:1043E000693D0000753D0000453E0000293E00008B
:1043F0000000000000000000493F0000613F000095
:10440000193F0000293F0000213F0000313F00001C
:10441000AD3E0000C53E0000E53E0000ED3E000060
:10442000F93E0000093F0000393F0000413F000015
:104430007D3E0000893E0000953E0000A13E000048
:10444000713F0000553F0000430000001088FF1F2F
:10445000F8B500BFF8BC08BC9E4670479D40000000
:104460003504000091290000353D0000613E000048
:044470008D3F00007C
:04447400F8B500BFD8
:10447800FFFFFFFF0A0400001201000202000040D3
:10448800C016830400010102030100001803540050
:10449800650065006E0073007900640075006900AE
:1044A8006E006F0009024300020100C032090400D7
:1044B8000001020201000524001001052401010188
:1044C80004240206052406000107058203100040A3
:1044D80009040100020A0000000705030240000069
:1044E80007058402400000001603550053004200EF
:1044F8002000530065007200690061006C00000034
:10450800040309040C030000000000000000000080
:104518000000000000000000000000000000000093
:1045280000000000FC8AFF1F648BFF1FCC8BFF1F5D
:104538000000000000000000000000000000000073
:104548000000000000000000000000000000000063
:1045580000000000484400000000000000000000C7
:104568000000000000000000000000000000000043
:104578000000000000000000000000000000000033
:104588000000000000000000000000000000000023
:104598000000000000000000000000000000000013
:1045A8000000000000000000000000000000000003
:1045B80000000000000000000000000000000000F3
:1045C80000000000000000000100000000000000E2
:1045D8000E33CDAB34126DE6ECDE05000B000000A7
:1045E80000000000000000000000000000000000C3
:1045F80000000000000000000000000000000000B3
:1046080000000000000000000000000000000000A2
:104618000000000000000000000000000000000092
:00000001FF
