:1000000000180020C10000001D2D0000E12C0000A0
:10001000E12C0000E12C0000E12C0000E12C0000AC
:10002000E12C0000E12C0000E12C00001D2D00005F
:100030001D2D0000E12C00001D2D0000D12C000022
:100040001D2D00001D2D00001D2D00001D2D000088
:100050001D2D00001D2D00001D2D00001D2D000078
:100060001D2D00001D2D00001D2D00001D2D000068
:10007000F5310000913600002D3B00001D2D0000E1
:100080001D2D00001D2D00001D2D00001D2D000048
:100090001D2D00001D2D00001D2D00001D2D000038
:1000A000A92000001D2D00001D2D00001D2D0000A9
:1000B0001D2D00001D2D00001D2D00001D2D000018
:1000C000F8B502F02FFE494A494B1A60494A4A4B9B
:1000D0001A604A4A4A4B1A604A4B08221978114260
:1000E00002D019780A431A70474B2A22474C4848D5
:1000F00048491A7000231A19824203D2CD5804339A
:100100001560F8E7444B45490022181D043B8B421B
:1001100002D21A60031CF8E7414A424900235858AA
:10012000944698500433C02BF9D100230326FF25B1
:1001300080249A083C4992005218191C3140C90089
:1001400010682F1C8F40B843071C201C8840011CDE
:10015000394301331160202BEBD1344B61461960D8
:10016000334B8A221A70334B24225A70A0221A7001
:10017000022299791142FCD0102299791142FCD1C6
:100180000C2198792B4A08400828FAD103211171D3
:1001900040215171202299791142FCD04022997955
:1001A0001142FCD02449254A1160224A20211170B5
:1001B0000C22997911400C29FBD1214A214B1A605C
:1001C000214A224B1A60224B00221A60214B07223F
:1001D0001A60214A214B1A6062B601F023FE03F037
:1001E000B5FF02F0A5FD02F0B9FCFEE7300004F017
:1001F00034800440823F0000388004400100000F3A
:100200003C80044002D0074000E0074060FDFF1F33
:1002100038020020F04900003C0200206C1500204C
:1002200000F9FF1F0000000000E400E008ED00E01E
:100230000050064000400640000001104480044089
:10024000C0000505048004407FBB000014E000E00E
:1002500018E000E010E000E00000202020ED00E0C9
:10026000FFFFFFFFFFFFFFFFFFFFFFFFFFFFFFFF9E
:10027000FFFFFFFFFFFFFFFFFFFFFFFFFFFFFFFF8E
:10028000FFFFFFFFFFFFFFFFFFFFFFFFFFFFFFFF7E
:10029000FFFFFFFFFFFFFFFFFFFFFFFFFFFFFFFF6E
:1002A000FFFFFFFFFFFFFFFFFFFFFFFFFFFFFFFF5E
:1002B000FFFFFFFFFFFFFFFFFFFFFFFFFFFFFFFF4E
:1002C000FFFFFFFFFFFFFFFFFFFFFFFFFFFFFFFF3E
:1002D000FFFFFFFFFFFFFFFFFFFFFFFFFFFFFFFF2E
:1002E000FFFFFFFFFFFFFFFFFFFFFFFFFFFFFFFF1E
:1002F000FFFFFFFFFFFFFFFFFFFFFFFFFFFFFFFF0E
:10030000FFFFFFFFFFFFFFFFFFFFFFFFFFFFFFFFFD
:10031000FFFFFFFFFFFFFFFFFFFFFFFFFFFFFFFFED
:10032000FFFFFFFFFFFFFFFFFFFFFFFFFFFFFFFFDD
:10033000FFFFFFFFFFFFFFFFFFFFFFFFFFFFFFFFCD
:10034000FFFFFFFFFFFFFFFFFFFFFFFFFFFFFFFFBD
:10035000FFFFFFFFFFFFFFFFFFFFFFFFFFFFFFFFAD
:10036000FFFFFFFFFFFFFFFFFFFFFFFFFFFFFFFF9D
:10037000FFFFFFFFFFFFFFFFFFFFFFFFFFFFFFFF8D
:10038000FFFFFFFFFFFFFFFFFFFFFFFFFFFFFFFF7D
:10039000FFFFFFFFFFFFFFFFFFFFFFFFFFFFFFFF6D
:1003A000FFFFFFFFFFFFFFFFFFFFFFFFFFFFFFFF5D
:1003B000FFFFFFFFFFFFFFFFFFFFFFFFFFFFFFFF4D
:1003C000FFFFFFFFFFFFFFFFFFFFFFFFFFFFFFFF3D
:1003D000FFFFFFFFFFFFFFFFFFFFFFFFFFFFFFFF2D
:1003E000FFFFFFFFFFFFFFFFFFFFFFFFFFFFFFFF1D
:1003F000FFFFFFFFFFFFFFFFFFFFFFFFFFFFFFFF0D
:10040000FFFFFFFFFFFFFFFFFFFFFFFFFEFFFFFFFD
:1004100010B5064C2378002B07D1054B002B02D0DA
:10042000044800E000BF0123237010BD3802002003
:1004300000000000F049000008B5084B002B03D075
:100440000748084900E000BF07480368002B03D0B5
:10045000064B002B00D0984708BDC04600000000A6
:10046000F04900003C02002038020020000000009B
:1004700038B5041C0D1C4A080020A24200D8ECE04C
:100480008A081020944200D3E7E0081C062103F0FC
:10049000EFFD031C20209C4200D3DEE0EA08302060
:1004A000944200D3D9E0281C0A2103F0E1FD031C8B
:1004B00040209C4200D3D0E0281C0C2103F0D8FD42
:1004C000031C50209C4200D3C7E0281C0E2103F0DF
:1004D000CFFD031C60209C4200D3BEE02A0970209F
:1004E000944200D3B9E0281C142103F0C1FD031C81
:1004F00041209C4200D3B0E0281C182103F0B8FD35
:10050000031C51209C4200D3A7E0281C1C2103F0AF
:10051000AFFD031C61209C4200D39EE06A0971205C
:10052000944200D399E0281C282103F0A1FD031C6C
:1005300042209C4200D390E0281C302103F098FD1B
:10054000031C52209C4200D387E0281C382103F072
:100550008FFD031C62209C427FD2AA097220944224
:100560007BD2281C502103F083FD031C43209C42B6
:1005700073D2281C602103F07BFD031C53209C4296
:100580006BD2281C702103F073FD031C63209C4276
:1005900063D2EA09732094425FD2281CA02103F0A1
:1005A00067FD031C44209C4257D2281CC02103F045
:1005B0005FFD031C54209C424FD2281CE02103F015
:1005C00057FD031C64209C4247D22A0A742094429F
:1005D00043D2281CA021490003F04AFD031C4520FA
:1005E0009C423AD2281CC021490003F041FD031C63
:1005F00055209C4231D2281CE021490003F038FDEF
:10060000031C65209C4228D26A0A7520944224D299
:10061000281CA021890003F02BFD031C46209C42CE
:100620001BD2281CC021890003F022FD031C562088
:100630009C4212D2281CA021C90003F019FD031C02
:1006400047209C4209D2281CA021090103F010FD7B
:10065000031C78209C4200D3482038BD10B5722876
:1006600000D9A1E08300554AD3589F460022544B3D
:100670001A60A2E0534803685B6853490422984714
:100680009BE02022514B1A6001224D4B1A6094E0EE
:100690004C4C23681B68201C0121984723685B6829
:1006A000201C4B490822984723685B68201C494955
:1006B0000A22984723681B68201C0021984723685A
:1006C0001B68201C0221984723685B68201C424954
:1006D0000322984723681B68201C00219847236841
:1006E0001B68201C2121984723681B68201C0021BF
:1006F000984723681B68201C0021984723681B68C3
:10070000201C1021984723681B68201C0021984753
:1007100023681B68201C2321984723681B68201C22
:100720000021984723681B68201C0F2198472368E5
:100730001B68201C4221984723681B68201C40210D
:10074000984723681B68201C4021984723681B6832
:10075000201C0821984723681B68201C41219847CA
:1007600023681B68201C0221984723681B68201CF3
:100770000021984721E080231B01184A1360184A82
:1007800013600022174B1A600722174B1A60174A92
:10079000174B1A601022174B1A6020220B4B1A605D
:1007A0000122074B1A6008E0134B187004225A719B
:1007B00000229A710122114B1A7010BD40430000B3
:1007C0006802002098130020D8460000840000F83A
:1007D000E0460000EC460000F846000090120020C1
:1007E00054020020600200206C020020C0C62D00D0
:1007F00058020020700200209412002065020020A0
:1008000008B56E4B1B78803BDAB24E2A00D9D4E093
:1008100093006B4AD3589F46684B5A783423CA5486
:10082000CBE0664B5A783523CA54C6E0634B5A78FE
:100830003623CA54C1E0614B5A783723CA54BCE00E
:100840005E4B5A783823CA5401235B420B63B4E0F1
:100850005A4B5A783923CA54AFE0584B5A783A2346
:10086000CA54AAE0554B5A783B23CA54A5E0534BCF
:100870009A781202587882188A871B791A0700D44E
:100880009BE00B6B013300D097E000230B6394E0F7
:100890004A4B9A78120258788218CA871B791A072D
:1008A00000D48AE00B6B013300D086E001230B6398
:1008B00083E0424B987800025A7810184022885200
:1008C0001B791A0779D50B6B013376D102230B63A1
:1008D00073E03A4B987800025A78101842228852F6
:1008E0001B791A0769D50B6B013366D103230B63A0
:1008F00063E0324B9A78120259780A43013292002F
:1009000030490A6019790902DB78194389000631F8
:100910002D4B1960D0239B029A4204D1E822D202C7
:100920002A4B1A6007E0274B1B68284A1360802275
:100930001202934207D980221202224B1A6001222E
:10094000234B1A701AE08022D201934203D901226C
:100950001F4B1A7012E080229201934203D90222A7
:100960001B4B1A700AE080225201934203D90422E1
:10097000174B1A7002E00822154B1A70114B1B68B6
:10098000114A12689A4218D90F4A136015E00B4BAE
:10099000D97809029A78114309025B7819430D4B03
:1009A000196001310C4803F063FB011C0B4B18600C
:1009B0000B4803F05DFB0B4B186008BD9412002040
:1009C0000C4500009012002060020020540200201C
:1009D000640200206C02002000366E0158020020E4
:1009E000006CDC027002002010B52024054B1C6056
:1009F000962001F0FDF9044B1C60642001F0F8F929
:100A000010BDC046840000F8880000F808B5012039
:100A1000002101F097F90820002101F093F90D2041
:100A2000012101F08FF9FFF7DFFF0022014B1A606F
:100A300008BDC0466802002008B5104B1B78002B8B
:100A400002D0012B03D012E0FFF708FE14E00C4B9C
:100A50009A790132D2B29A7198545B7993420BD150
:100A60000748FFF7CDFE0022044B1A7004E0FFF7A1
:100A7000BBFF0022014B1A7008BDC0466502002072
:100A80009412002010B52024054B1C600A2001F0B0
:100A9000AFF9044B1C600F2001F0AAF910BDC0464D
:100AA000840000F8880000F80A4B196880221204BC
:100AB0000A431A60084B1A6802218A431A60074BDE
:100AC00000221A60064A1060196801220A431A605F
:100AD0007047C0463C8004400070034008710340EA
:100AE00000710340064B1A6802218A431A60802273
:100AF0005204044B1A600122034B1A707047C0461F
:100B000010E000E080E100E05C0200200B4B1B687D
:100B1000DA0305D50A4B19688022D2040A431A6009
:100B2000064B196802220A431A6080225204054BC0
:100B30001A600022044B1A707047C04610E000E0B3
:100B400004ED00E000E100E05C020020F0B55F464B
:100B500056464D464446F0B485B0824694464269B6
:100B6000012A56D9436C99465D68EB0F876C019753
:100B7000B9454ED25B000393002202924B461D689A
:100B80005E680827BB46CB441F231E22802109062E
:100B9000002700956046B446061C03E002971E221B
:100BA0000027013B181C009C0C40DC4094403C1981
:100BB000002E06D167460F40DF40551CAF40E719B5
:100BC00015E0002B08DD67467D002F1C0F40DF403D
:100BD000551CAF403F190AE0039D6719019DAB45C5
:100BE00005D24D46EF68BC46FF0F7F00E719490864
:100BF000023A1028D2D0012BD3D5B446029A4B46E4
:100C00001A605F605546AD6C01955D4501D9D946C6
:100C1000B4E705B03CBC90469946A246AB46F0BD51
:100C2000074B19688022D2030A431A60054B5422ED
:100C3000DA7040229A7080229200034B1A6070474B
:100C400034800440006007400CC00440074B196822
:100C5000802212040A431A60054B5422DA704022A3
:100C60009A7080229200034B1A60704734800440CF
:100C70000070074044A0044008B50449FFF7F8FBA2
:100C8000C0B2034B58701B7808BDC04600366E01D9
:100C90000060074008B50449FFF7EAFBC0B2034B08
:100CA00058701B7808BDC046006CDC02007007401D
:100CB000F0B5474680B4061C8846446C856C083DF8
:100CC000FFF7C4FFB068FFF7E5FFFFF70BFF194B15
:100CD00000229A71DA71191C20220B781342FCD081
:100CE000144B00229A71DA7100211A7852B2002A4C
:100CF000FBDA9A79D879000210439971D9711A7880
:100D000052B2002AFBDA00049F79DA791202BA188B
:100D1000121804C49971D971A542E6D1FFF7F6FE05
:100D2000366A424616600022024BDA7004BC9046D6
:100D3000F0BDC04600700740F0B55F4656464D46D0
:100D40004446F0B489B0071C0691446C0494866C48
:100D50003423C35C3822825C914601241C40056A1E
:100D6000A846806A291C03F083F9051C4346013B11
:100D7000DBB20793002C13D03B6906339B00049829
:100D8000C018804601220292012C05D101234C4655
:100D90002340013B5B4202930024464507D802E012
:100DA0000324012002900822524292199046FFF734
:100DB0004DFFB868FFF76EFFFFF794FE4B4B002224
:100DC0009A71DA71191C20220B781342FCD0474B20
:100DD00000229A71DA71AD000595049900230393FE
:100DE000424B434DAB4604208246424DA94600E0AB
:100DF0005446187840B20028FBDA9879DD792D0244
:100E000005439A71DA71187840B20028FBDA2D0494
:100E100098798446D879000260444019019001C154
:100E20009A71DA718E420CD8796C5D462D785046F5
:100E3000854306D02022304B1A6000222F4B1A60C7
:100E400037E0052CD5D8A500AC464D46654428684A
:100E50008746029D002D02D0012D06D00BE001989F
:100E6000451EA841C0B2039005E001980130451E1F
:100E7000A841C0B2039003980028BAD03C69A000F2
:100E8000081A083880460324B3E74145B1D110E081
:100E90004145AED31A48202505600124A9E7049CEA
:100EA000444501D9059DA8442020134C2060052409
:100EB0009FE7FFF72BFE3D69AB004344049C1B1BDF
:100EC0009B103D6A6B43079C1B19069D2B60BA6AF9
:100ED000934201D39B1A2B600022044BDA7009B0B5
:100EE0003CBC90469946A246AB46F0BD0070074018
:100EF0008020074048460000880000F86802002073
:100F0000840000F8F8B55F4656464D464446F0B4B6
:100F1000051C8B46446C806C80463423EB5C382285
:100F2000A95C012213400126002B07D00022EA60B1
:100F30002A61012B02D1194001394E42FFF786FE8A
:100F4000A868FFF7A7FEFFF7CDFD3423EB5C002B6D
:100F50004FD047498A460123464A9146464884462F
:100F6000B2004649571852461168490C1940494287
:100F700089B248460268D2081A40524292B2072EFD
:100F800069D8386887464A1E9141C9B221E03C4A77
:100F900089184A1E9141C9B21BE0511E8A41D1B243
:100FA00017E037481218511E8A41D1B211E01140A2
:100FB0004A1E9141C9B20CE01143314A89184A1EB8
:100FC0009141C9B205E091434A1E9141C9B200E086
:100FD000191C604602780420824308D02022294B45
:100FE0001A600022284B1A60FFF790FD39E00029B3
:100FF000B9D0264B00229A71DA71191C20220B7885
:101000001342FCD0214B00229A71DA71002147462D
:10101000083F1A7852B2002AFBDA9A79D87900028E
:1010200010439971D9711A7852B2002AFBDA000480
:101030009E79DA791202B218121804C49971D97122
:10104000BC42E6D1FFF762FD2D6A59460D600022D1
:101050000E4BDA7005E06046027804218A4382D0A4
:10106000BCE73CBC90469946A246AB46F8BDC0469C
:10107000500000F8D00000F88020074060460000D3
:101080000100FFFF880000F86802002000700740A0
:10109000F8B55F4656464D464446F0B4061C8A46AF
:1010A000446C826C9346082252429344FFF7CEFD73
:1010B000B068FFF7EFFDFFF7B3FDB068FFF7DCFDA9
:1010C000FFF710FD7268002343498B7143498B7110
:1010D000042A08D8424B434A0021C0461970C04632
:1010E000C046117028E0082A0BD83D4B3D4A00212C
:1010F0001970C046C046C046C046C046C0461170C2
:101100001AE0102A13D8364B364A00211970C0460F
:10111000C046C046C046C046C046C046C046C0469F
:10112000C046C046C046C046C046117004E0002319
:101130002A4AD371284AD371274920220B781342B7
:10114000FCD0254A00239371D371244A11789371FE
:10115000D371214B0020111C1A7852B2002AFBDAFD
:101160009F79DA7912021743B8469871D8710A78D4
:101170008F79CA79120217438871C8711A7852B2EE
:10118000002AFBDA45462A049D79A946DD792D021D
:10119000A846C844424422609871D8710A783A043B
:1011A0008D79A846CF793F024744BA186260083467
:1011B0008871C871A345CFD1FFF7A8FC366A5246A3
:1011C00016600023044AD370044AD3703CBC904696
:1011D0009946A246AB46F8BD007007400060074044
:1011E0000760074007700740F0B55F4656464D461A
:1011F0004446F0B489B0061C0691476C0597806C94
:1012000083463423F35C3822B75C03241C40356AE0
:10121000B06A291C02F02CFF80466B1EDBB20793DC
:10122000002C22D003233B4037690637BF000599C5
:10123000CF190297012C05D1013B5A1E9341DBB215
:1012400004930DE0022C00D045E103270497002B06
:1012500006D03AE1002B00D14DE142E1042704978A
:101260000024029FBB4506D802E00324012704970F
:101270005F46083F0297FFF7E9FCB068FFF70AFDF9
:10128000FFF7CEFCB068FFF7F7FCFFF72BFC7368A5
:101290000022A1498A71A1498A71042B07D8A04B69
:1012A000A04A00211970C046C046117028E0082BE2
:1012B0000BD89B4B9B4A00211970C046C046C046C4
:1012C000C046C046C04611701AE0102B13D8944B8C
:1012D000944A00211970C046C046C046C046C04668
:1012E000C046C046C046C046C046C046C046C046CE
:1012F000C046117004E00023884AD371864AD37136
:10130000854920220B781342FCD0834A0023937135
:10131000D371824A11789371D3714046800084461C
:10132000059D002103917C4B049FB8007E4909185C
:101330008A4600E00424187840B20028FBDA9F793E
:10134000D87900020743B84600279F71DF711078F3
:101350009079D7793F02074300209071D0711878B7
:1013600040B20028FBDA4046010498798146D879DA
:1013700000028046C84441440191296000219971CE
:10138000D97110783F0491798946D079000280465E
:10139000C844474400976F60083500279771D7719C
:1013A000AB450CD8756C614801780427B94306D069
:1013B00020225F4B1A6000225E4B1A606BE0052C06
:1013C000B9D8A1005C4F78588746049F072F3ED8B4
:1013D0005046006887460198471EB841C0B2039046
:1013E00035E001980130471EB841C0B203902EE0AD
:1013F0000098471EB841C0B2039028E00098013021
:10140000471EB841C0B2039021E0019800990840FE
:10141000471EB841C0B2039019E00198009F3843BD
:101420000130471EB841C0B2039010E00198009906
:101430008843471EB841C0B2039008E00098C743F4
:10144000019838430130471EB841C0B20390039958
:10145000002900D16FE73769B800281A08380290D0
:10146000032468E7029FBD4200D064E713E0029FB7
:10147000BD4200D25FE720243048046001245AE7CF
:10148000059F0298874201D9604402902024284891
:10149000046005244FE7FFF739FB32699300029F90
:1014A000FB18059FDB1B9B10306A4343079FDB192A
:1014B000069F3B60B26A934201D39B1A3B600023B4
:1014C000154AD370154AD3701EE0023B5A4253416D
:1014D00001330493C4E6032C00D1BBE60127049733
:1014E000BEE6012B0DD007270497022B00D1B7E6EB
:1014F0000127049701E005270497032B00D0AFE6EE
:10150000ACE606270497ABE609B03CBC904699468A
:10151000A246AB46F0BDC0460070074000600740E1
:10152000076007400770074098460000802007408A
:10153000880000F86802002080460000840000F85F
:10154000F8B55F4656464D464446F0B4051C8B46FA
:10155000446C806C80463423EB5C3822A95C032207
:1015600013400127002B17D011400022EA602A61A6
:10157000012B05D101390B1C591E8B41DFB20BE049
:10158000022B00D0F6E00327002905D0EDE000296A
:1015900000D1FCE0F3E00427FFF758FBA868FFF751
:1015A00079FBFFF73DFBA868FFF766FBFFF79AFAA8
:1015B0003423EB5C002B50D07F498A4601237F4ABD
:1015C00091467F4EB446BA007E48161852461168BE
:1015D000490C1940494289B248460268D2081A406B
:1015E000524292B2072F00D9D8E0306887464A1E8F
:1015F0009141C9B221E0744A89184A1E9141C9B289
:101600001BE0511E8A41D1B217E06F481218511EDB
:101610008A41D1B211E011404A1E9141C9B20CE099
:101620001143694A89184A1E9141C9B205E09143A4
:101630004A1E9141C9B200E0191C6046027804209C
:10164000824308D02022614B1A600022604B1A604E
:10165000FFF75CFAA9E00029B8D06A6800235D4969
:101660008B715D498B71042A07D85C4B5C4A002161
:101670001970C046C046117028E0082A0BD8574B95
:10168000574A00211970C046C046C046C046C046F1
:10169000C04611701AE0102A13D8504B504A00214E
:1016A0001970C046C046C046C046C046C046C04687
:1016B000C046C046C046C046C046C046C04611707F
:1016C00004E00023444AD371424AD37141492022A5
:1016D0000B781342FCD03F4A00239371D3713E4AEA
:1016E00011789371D3713B4B0020111C0822524298
:1016F0009446C4441A7852B2002AFBDA9F79DA7908
:1017000012021743B8469871D8710A788A79CF794E
:101710003F0217438871C8711A7852B2002AFBDA67
:10172000464632049E79B146DE793602B046C84458
:10173000424422609871D8710A783F048A799046B1
:10174000CA7912024244D219626008348871C871A1
:101750006445CFD1FFF7DAF92D6A5B461D6000239F
:101760001C4AD3701C4AD3701FE002394B424B41D4
:101770005F1C11E70127032B00D00DE707E70129C4
:101780000AD00727022900D106E7012700E0052734
:10179000032900D000E7FEE60627FDE66046027852
:1017A00004218A4300D111E74CE73CBC904699469E
:1017B000A246AB46F8BDC046500000F8D00000F885
:1017C00080200740B84600000100FFFF880000F8B5
:1017D0006802002000700740006007400760074073
:1017E0000770074038B5041C0D1C4169012912D946
:1017F0003423C35C002B0AD04368042B03D8291C74
:10180000FFF79EFE1AE0291CFFF7EEFC16E0291CEC
:10181000FFF73EFC12E03423C35C002B0AD0416882
:10182000022903D8291CFFF76DFB11E0291CFFF7E3
:1018300083FA0DE0291CFFF73BFA09E00022102390
:1018400061688B425241D2B2201C291CFFF77EF9FD
:1018500038BDC04684B0F8B5069007910892099348
:101860000E9C1998211C02F003FC179E8700651E30
:101870001998211C02F040FC681A0D9B5843BB5973
:10188000C340181C0C9B1840C0B2F8BC08BC04B084
:101890001847C04684B0F0B55F4656464D464446AC
:1018A000F0B497B0209021912292239333998B46E4
:1018B0002C9A9046002A62DB259914912FAA119246
:1018C0002DAE00239A4601235B4213930E235B4205
:1018D000994643461C335B0020A9C918159143E083
:1018E000BC422FD842462C920F94684624A93C2231
:1018F00002F050FC20982199229A239BFFF7AAFF1F
:1019000032783379104083421CD12B1CD0450FD143
:101910000E3304D015998B88E318139300E01394C9
:10192000149A022A18D1129B013B59460B6013E00E
:101930002A1C0E320BD011990A88AB189946102B2D
:1019400007DC09E001350134112DC9D104E0A946B5
:1019500002E00E235B42994601229244119B02331E
:1019600011930136C2450DDC49461029F4DC5A4674
:1019700012681292141C4C444D460B4FB0E70123E1
:101980005B42139359460B681033139A934200D36A
:101990000A6017B03CBC90469946A246AB46F0BCE4
:1019A00008BC04B01847C046FFFFFFEF84B0F0B595
:1019B0005F4656464D464446F0B495B01E901F9182
:1019C000209221939946249A1192279E289B9A4609
:1019D000299A904634231EAAD35C002B0CD031AB3D
:1019E0000F93684622A93C2202F0D4FB1E981F994F
:1019F000209A219BFFF74EFF319B4B4503D34D4A65
:101A0000934202D802E04B4600E04B464A469A1AFF
:101A10001292171C4744013F00229346574503DBAF
:101A20005346FF1A01229346B0450EDA4546424C12
:101A300023681B68201C5521984723681B68201CBD
:101A4000AA2198470235B542F2DB5B46002B34D021
:101A50005546013D002F33DB5524119AD2B29346EF
:101A6000D2431392331C5646AA46454698464B46E7
:101A70002193119A249243462793289629950F97EC
:101A8000684622A93C2202F085FB1E981F99209AE5
:101A9000219BFFF7DFFE5A461040139B2340C018DE
:101AA000C0B200F0F9FFE443E4B2013FDFD24346A5
:101AB000A8465546B2461E1C03E03D1C552400E0D6
:101AC0005524129BAB422BDC119AD7B2FB439B46A9
:101AD000331C46463A1C5746924698464A4621923F
:101AE000119B249342462792289729960F95684682
:101AF00022A93C2202F04EFB1E981F99209A219B9E
:101B0000FFF7A8FE534618405B462340C018C0B2FA
:101B100000F0C2FFE443E4B2013D129AAA42DDDDC7
:101B200015B03CBC90469946A246AB46F0BC08BCFA
:101B300004B018470000FFFF98130020F0B593B0E1
:101B4000041C454B1B78022B02D90222424B1A700F
:101B5000424B1B68022B02D801223F4B1A70226BAA
:101B6000002A01DA002323633B4B1B78022B09D0A8
:101B7000042B0ED0012B13D1202323620123A36158
:101B8000E36113E0102323620323A3610223E361D3
:101B90000CE0082323620F23A3610423E36105E023
:101BA00004232362FF23A3610823E3612C4B1B68FA
:101BB00023602A4B1B6863602A4B1B68A360264B7B
:101BC0001B786361256A284B1E68A8008019A062F3
:101BD000264B1B686362E662254F6764291C02F08E
:101BE00047FA80003F18A7643423E35C002B04D03D
:101BF000204B1B68F61AE66001E00023E360E06812
:101C0000291C02F035FA431CDA0701D4236101E0F4
:101C10000230206100231193114B1868FEF744FF36
:101C2000201C11A9FFF7DEFD134B1B68002B0DD004
:101C3000119B0F93211C103168463C2202F0AAFA36
:101C400020686168A268E368FFF7B0FE00220A4BD3
:101C50001A6013B0F0BDC04664020020700200207C
:101C60006C02002058020020901200205402002034
:101C700078020020600200206802002070B594B055
:101C800001AB00220492059208210691FF200790E3
:101C900008910421099134215A540D92114E124D8C
:101CA000124C00F06BFE002807DDFEF7EBFE00F0A3
:101CB00017FEC0B201A9FEF7BFFE3368002B02D0A9
:101CC00001A8FFF73BFF2A682368D21AFA23DB003A
:101CD0009A42E6D9044B1A68044B1A60FEF784FE58
:101CE000DFE7C04668020020A01200209C120020FE
:101CF00030B51A2822D8124B42001418A400E45818
:101D0000257D121892009B181B7A1D4205D00029D0
:101D100001D0237112E0237210E0430018188000F4
:101D2000074B18184368002904D0196803220A4396
:101D30001A6003E01A6802218A431A6030BDC04667
:101D4000FC46000070B51A282BD843001B189B00D6
:101D5000144AD3185D6801290ED141000B189B006D
:101D60009B581C7D081880001218127A22431A759D
:101D7000A2235B002B6014E00A4A440023189B0056
:101D80009B581E7D201880001218127A96431E75EB
:101D9000002903D180235B002B6002E00423FF3382
:101DA0002B6070BDFC46000072B60C4B1A680C4BE1
:101DB0001B680C49096862B6480104D5322191427A
:101DC000894149425B18FA20800043430648821A41
:101DD00006484243920D98187047C04618E000E04C
:101DE000A012002004ED00E07FBB0000555501006B
:101DF00070B5051CFFF7D8FF041C002D0ED0084E4F
:101E0000FFF7D2FF001BB04205D9013D002D05D0E0
:101E1000FA239B00E41800F0D5FEF1E770BDC04640
:101E2000E703000010B51C4B8022D2051A60802207
:101E300012061A600020194B18601949194B1960D5
:101E40002823194A1360194A1360194A1360194A62
:101E50001360194A1360194A13600922184C226052
:101E6000184C2060184C2160184C2360184C2360DB
:101E7000184C2260184C20601848016018490B600B
:101E800018490B60184B1A6000F0C2FEFA20FFF7E9
:101E9000AFFF00F085FC10BD00E100E004800340CE
:101EA000FFBF0000088003400C8003401480034003
:101EB0001C800340248003402C8003403480034076
:101EC0000080034004900340089003400C900340BE
:101ED000149003400090034004A0034008A0034076
:101EE0000CA0034014A0034000A0034030B50D4BEC
:101EF0001A7802231343DC000B4D2C1960600B4849
:101F000000788824002800D0C824DB0009040C4392
:101F1000054D5C5101235840044908705340014964
:101F20000B7030BD0C13002000F8FF1F851300203C
:101F300010B5431E032B11D872B69A0008495058A9
:101F4000002809D0111C064A44688C50054A5B00E1
:101F50009C5A0188611A995262B600E0002010BDB7
:101F6000FC1200205C150020431E0020032B0CD81F
:101F700072B69B00054A9B58002B04D001305B6869
:101F8000002BFBD100E0002062B670475013002008
:101F9000F8B572B601231B4C082101261A19013A23
:101FA0001278114223D09A005D01174FED59002D90
:101FB0000BD1D200B918083048601449D151144BE4
:101FC0001A78013A1A7062B61AE03243D5000E4F01
:101FD000ED59002D0BD1D200B918083048600D49D9
:101FE000D1510B4B1A78013A1A7062B608E00133EE
:101FF000052BD3D162B60022054B1A7000F048FCC5
:10200000F8BDC0466048000000F8FF1F880040008F
:102010007A130020C800400010B5431E032B39D8A6
:10202000800002221043C0001B4A101872B61B4ADF
:10203000D25C012A06D0002A1BD0022A1BD0032A18
:1020400003D005E00830022416E00830042413E031
:102050009A0013481258002A02D19A00115003E046
:102060009A001048125851609B000E4A995062B66F
:1020700010E0032400E00524084AD4540B1C083364
:1020800043608823020700D5C8230A88120413433B
:10209000036062B610BDC04600F8FF1FB8120020F2
:1020A0005013002060130020F8B55F4656464D4699
:1020B0004446F0B4C34DC44FA037C44B1C78E4B2BF
:1020C00060071ED52B78002B18D0C14B1B78DBB2D4
:1020D000002B06D0013BDBB2BD4A1370002B00D1B0
:1020E00000BEBC4B1B78DBB2002B07D0013BDBB240
:1020F000B84A1370002B01D100F00CFD0422B34B41
:102100001A70210700D4C7E2B34B1B78DBB21A095F
:1021100000D02BE29B08DB00AB4CE418626820681F
:1021200083061B0F092B00D1F4E104D8013B012BDE
:1021300000D8D5E116E20D2B00D013E2A7491368B1
:102140000B6052684A60A64A22600022A5490A60D4
:102150009D490A618A610121A34A11709BB2A34A79
:1021600093421DD8D022D200934231D28122520014
:10217000934200D1F9E081225200934206D8802B8D
:1021800000D1D4E0822B00D1D7E073E1984A93428A
:1021900000D100E1A022D200934200D16EE169E1BA
:1021A000944A934200D197E109D8882212019342C0
:1021B00000D1B6E09022120193420FD05AE18E4A2C
:1021C000934200D151E18D4A934200D156E151E151
:1021D0008B4B5C68002C00D02EE142E17F4B9A785B
:1021E000784B1A70784C203480262168314203D015
:1021F0006068083800F04CFB0834BC42F5D1814AD5
:102200009146814B984600268048834682465A462E
:10221000B058002806D0446800F03AFB002C01D0EA
:10222000201CF8E700235046335079497350794B0E
:10223000F058002806D0446800F02AFB002C01D09A
:10224000201CF8E70023734AB350734AB3504A4640
:10225000138042461378032B0DD0D9B2032902D83C
:10226000022B05D009E0042B02D0052B03D004E09B
:102270000023137001E001231370043602239944F4
:1022800001208044102EC2D10022644B1A70012418
:10229000634E644988464246A318013B1B7833705D
:1022A000043618072DD500F0D3FA002807D0464B86
:1022B00062019918083048605B49D15007E063011A
:1022C0000021414A9950554B1A7801321A7000F09A
:1022D000BFFA00280AD0A20001231A433A4BD200C9
:1022E0009918083048603E49D1500AE0A200012305
:1022F0001343DB00002234495A50484A1378013313
:102300001370A100304B02200843C0000022C250CD
:1023100003200143C900CA500134444B9E42BAD144
:10232000F6E1284B1B78424C23700126ABE0404C71
:102330000023237063700226A5E0284B9B88042BA2
:1023400003D90F223B4B1A70C6E0394A00211170A5
:1023500051709B0037481B181B78990700D490E0F8
:10236000141C0123137002268DE01C4B9B887F22D6
:102370001340042B03DC194A5288002A03D00F2291
:102380002C4B1A70A8E09B002A4A9B181A7802214D
:102390008A431A70BCE1114B9B887F221340042BA7
:1023A00003DC0E4A5288002A03D00F22214B1A70F8
:1023B00092E09B001F481B18197802220A431A70EA
:1023C000A6E1C0468413002000F8FF1F80200740CC
:1023D0000D1300208613002090200740701300206A
:1023E000C8004000A41200208513002081060000D0
:1023F0000203000021200000212200002123000010
:10240000644800005C150020B8120020FC12002077
:10241000A812002050130020601300207A1300201F
:10242000C42007406048000088004000D4200740D6
:102430007C130020C0200740BA4B59889888BA4BBB
:102440001A888A4209D15A88824206D1090A032988
:1024500001D1267817E01E8915E00C335C68002C4A
:10246000EED10F22B14B1A7036E0AE4B9A78B04BDA
:102470001A704DE10F22AD4B1A702DE0002600249A
:1024800001E00226AB4CA74BDB889E4200D91E1C04
:10249000B046402E01D940218846201C4146FFF716
:1024A00025FDA146C1444346F61A03D13F2B00D96E
:1024B00033E111E0341E402C00D940244846211C51
:1024C000FFF714FD48460319361B01D13F2C03D9F1
:1024D000994A1360994B1E800122994B1A7041E072
:1024E000904B1988974B994211D100239648D15CA3
:1024F000C1540133072BFAD1934B1B68862B02D1B1
:102500000F22924B1A7000200021FFF7EFFC904B36
:10251000236027E0884B19688846002916D0874B2E
:102520001E88341E402C00D940244046211CFFF751
:10253000DDFC361BB6B2814B1E80002E02D100237B
:10254000402C01D1404603197B4A1360754B1A8811
:10255000A023DB009A4205D1724B00225A709A7870
:102560007C4B1A700122764B1A7091E09C08E400B3
:1025700079490C196168081C0838013AD6B21A0763
:102580004BD500F085F9B300744A9B58002B29D035
:10259000B2007249586850501A1C08326260704A82
:1025A000925D012A0AD0002A04D0022A0AD0032A06
:1025B0000CD00EE003216A4A91550AE00221684AD4
:1025C000915506E00521664A915502E00421644ACE
:1025D00091558822210700D5C8221B881B041A4365
:1025E000226055E05E4B9B5D022B05D0DAB2022AD9
:1025F0004ED3032B04D007E00022594B9A5547E0F5
:102600000122574B9A5543E008231C406342634123
:102610000322D21A524B9A553AE063880A1C083AB0
:102620001380002B2ED000220B1C083B5A805A60CE
:10263000B3004C4A9B58002B02D1B300985003E0E2
:10264000B300494A9B585860B200474BD050474BA3
:1026500076000839F05A0A888218F25200F0F8F829
:10266000002808D008306060220701D5384B00E010
:102670003F4B23600CE0002323603E4B1A7801326D
:102680001A7005E0230701D5314B00E0384B236079
:102690000822394B1A7010E5E00721D5284902239A
:1026A0000B700022354B1A702B4B31481860344C9C
:1026B0005C6098603348D8601A619A610D201B4BAA
:1026C0001870FF23304803702B48037021480270B4
:1026D0002E4A13709F222E4B1A7001230B7059E063
:1026E00063B2002B05DA0D22104B1A708022224BA8
:1026F0001A70A10706D5244B1A78D2B21A7002229A
:102700001D4B1A70E20645D510221B4B1A7041E092
:1027100000200021FFF7EAFBDEE648460021FFF734
:10272000E5FBD9E67013002064480000C020074094
:10273000941300207C130020A412002078130020A2
:102740009420074021200000641500200D13002074
:10275000C80040009820074000F8FF1F50130020D9
:10276000B8120020FC120020A81200205C150020E6
:10277000880040007A130020802007400C130020BE
:10278000BC12002010130020882007408C20074036
:10279000842007403CBC90469946A246AB46F8BD13
:1027A00008B501F02BFA1C4B181C191C88310022AB
:1027B0001A605A6008338B42FAD1184B196880228C
:1027C000D2020A431A60020AD2B2154B1A70020CE6
:1027D000D2B2144B1A70000E134B1870FF23134A19
:1027E0001370134A1370134A1370012212490A70AE
:1027F00000201249087012490A70124A1168994360
:1028000070230B431360802252040F4B1A60102276
:102810000E4B1A7008BDC04600F8FF1F34800440FC
:102820009C200740B0200740B4200740802007408C
:1028300088200740102007409420074000210740CF
:102840008420074018E400E000E100E00821074090
:1028500010B572B60C4B1C68201C01F059FC0B28FB
:1028600002D962B600200EE080231B06C3409C43C1
:10287000054B1C6062B6C3001818C000034B181843
:1028800000230360436010BD60FDFF1F00FAFF1FBF
:1028900010B5041C0E48201A482101F0E9FB0B2852
:1028A00015D80C4A1278002A07D00B4A1278002A51
:1028B00003D0201CFFF76CFB09E072B6074A8021A9
:1028C00009060B1CC34011680B43136062B610BDB0
:1028D00000FAFF1F7A1300208413002060FDFF1F01
:1028E00010B5144B1B68002B0AD1134B1B78002B1F
:1028F00019D00320FFF71CFB0E4B1860002815D0E1
:102900000C4B186843885A1CC3181C7A03889A42D7
:1029100006D3FFF7BDFF0022064B1A60201C07E01C
:102920004280201C04E00120404201E0012040429E
:1029300010BDC046901300208413002008B50D4B35
:102940001B68002B10D10C4B1B78002B09D00320E7
:10295000FFF7EEFA074B1860002805D1012040422E
:1029600007E00120404204E0024B1B685A889B1894
:10297000187A08BD9013002084130020054B988816
:10298000054B1B68002B03D01A885B88D31AC0182C
:102990007047C0465C15002090130020F0B54746F4
:1029A00080B4061C0F1C0122354B1A70002960D020
:1029B000344D2A68002A31D1334A1378002B05D1CF
:1029C00000222F4B1A700120404256E02F4C2D4B15
:1029D00098460420FFF7C8FA07280BD80123284A95
:1029E0001370FFF735FF43461860002816D1002307
:1029F000234A1370013C002C03D0254B1B78002B7D
:102A000005D00122224B1A700120404235E000F02F
:102A1000D9F81D4B1B78002BDBD1D1E700221C4BD2
:102A20001A70184B19684B884022D21A3C1E9442E7
:102A300000D9141C181C083008181B194B803F1BA8
:102A4000002C06D00023F25CC2540133A342FAD119
:102A500036194B883F2B07D940230B800420FFF702
:102A6000DBFA0022074B1A6005220A4B1A70002F6E
:102A70009FD10022024B1A70002004BC9046F0BD8A
:102A8000871300208813002084130020097500009C
:102A90008C1300208613002000B583B06B46D871DC
:102AA0000733181C0121FFF779FF03B000BDC046B2
:102AB00010B5144B1B78002B22D00122124B1A7038
:102AC000124B196800290AD00024114B1C704B8846
:102AD0000B800420FFF7A0FA0C4B1C600DE0FFF701
:102AE000B7FE011E06D00022094B1A700420FFF722
:102AF00093FA02E00122064B1A700022024B1A7070
:102B000010BDC046841300208713002088130020C6
:102B10008613002008B50E4B1B78002B17D10D4BE8
:102B20001968002908D04B880B800420FFF774FA3D
:102B30000022084B1A600AE0FFF78AFE011E03D04C
:102B40000420FFF769FA02E00122034B1A7008BD66
:102B500087130020881300208613002008B5FDF796
:102B600055FFFFF78BF800F02DF8FAE708B5FFF7EF
:102B700005FF08BD08B5FFF7B3FE08BD08B5FFF7B0
:102B8000DDFE08BD08B5FFF793FF08BD08B5081CBA
:102B9000FFF782FF08BDC04608B5081C111CFFF7EF
:102BA000FDFE08BD7047C046044B00221A71FA2191
:102BB000890099601A73024A1A60704798130020BE
:102BC0004848000008B5114B1B78002B1DD101228D
:102BD0000E4B1A70FFF7D2FE002801D0FFF7E2FF7C
:102BE00000F084FA002801D001F0D8F800F0FAFCD7
:102BF000002801D001F068F900F042FF002801D060
:102C000001F0F8F90022014B1A7008BDA81300204A
:102C1000274B1B78082B06D10022264B1A60132263
:102C2000254B1A6017E00A2B06D13822214B1A6077
:102C30001322214B1A600EE00C2B06D134221D4BBF
:102C40001A6012221C4B1A6005E03C22194B1A60D4
:102C50001222194B1A60194B1B78002B03D000224B
:102C6000174B1A6002E00122154B1A60154B1B78B6
:102C7000012B03D88022144B1A6014E0042B03D8D4
:102C80008422114B1A600EE0082B03D885220E4BCC
:102C90001A6008E0102B03D886220B4B1A6002E062
:102CA0008722094B1A600122084B1A707047C046F0
:102CB00064FDFF1F08B003400CB00340AA130020BE
:102CC00020B0034065FDFF1F24B00340A91300207E
:102CD000024B1A6801321A607047C046A0120020E9
:102CE00070B50D4C8026F6028025ED002368334236
:102CF00001D0FFF7D9F923682B4201D000F07AFA0E
:102D000023681A0501D500F0C3FC2368DA04EDD569
:102D100000F00CFFEAE7C0463480044008B5FFF736
:102D2000DFFFC0460022014B1A607047008104405B
:102D30007047C046EFF31383002B23D1EFF31083CA
:102D40000020002B20D1EFF30582002A0FD00F2A9C
:102D50000FD9111C1039890889000C4BC91803239D
:102D60001A40D2000B68D340FF22134001E08023B9
:102D70005B00EFF31182181C002A05D09A4203D29F
:102D8000101C01E0012040427047C04600E400E012
:102D9000164B19688022D2000A431A600023144A95
:102DA0001370144A1370144A1370144A1370144A9F
:102DB00013701449144A1160D1218900134A11601B
:102DC000C104C90E124A1170C0B2507093702C2306
:102DD000D370104BFF221968914340220A431A60B6
:102DE000802252010C4B1A607047C0463480044068
:102DF00039140020B1130020401400203A140020A0
:102E0000B01300201303000040A0044044A004407D
:102E100000A006400CE400E000E100E0144B9A78CA
:102E200013239A43032303401343420701D510227F
:102E300013430F4A93700F230340042B04D1131C38
:102E4000917940220A439A71094B5A7910239A4387
:102E5000034200D01A43064B5A719B7910229343C8
:102E6000820601D510221343014A93717047C04670
:102E700000A0064010B5134B1B685A0521D5124B14
:102E80001B78002B05D0104CFFF79CFE2378002BFD
:102E9000FAD1802252010D4B1A6000230C4AD370E4
:102EA0000422FF320B490A600B490A600B4A137077
:102EB0000B4A13700B4B1B68002B02D00A4A127886
:102EC0001A7110BD34800440B013002080E100E08E
:102ED00000A0064040A0044044A004403914002053
:102EE000B1130020AC130020F413002010B5041C13
:102EF0000C4A1378002BFCD1201C0121FEF722FF85
:102F0000201C0021FEF7F4FE074B62001119890016
:102F1000C85806490860121992009B181A7A044B87
:102F20001A7010BDB0130020FC4600003C140020B5
:102F30003814002038B5114B1A68002351051AD5F2
:102F40001A2814D80E4D0F4B420011188900C95889
:102F500029600D4C121892009B181B7A23700121D6
:102F6000FEF7F0FE2B6822781A72012303E000229C
:102F7000034B1A600023181C38BDC046348004403F
:102F8000AC130020FC460000F41300200F4B1A681D
:102F90000023510518D5122803D10D4A0D4B1A6094
:102FA0000CE0142803D10A4A0B4B1A6006E00B4BC5
:102FB0005A7B01218A435A73002305E0074B597B52
:102FC00001220A435A730123181C704734800440BD
:102FD000020300000CA0044014C0044000A00640FE
:102FE00070B5061C224B1B685A0540D5214B1B6847
:102FF000002B02D0204A12781A71204B1C78013421
:1030000000233F22A2425B415B421C401C4D1EE05C
:10301000FFF790FE402816DC1A4B1B795BB2002BA1
:1030200015DA174A1378013300223F2199425241A1
:1030300052421340144AD15CC9B2124AD171DBB278
:103040000F4A137003E0FF2801DDFFF7BBFD2B786B
:10305000DBB29C42DCD0F6B20B4B1E5501220B4B6F
:103060001A70E4B2054B1C70AC22064BDA7070BDCE
:10307000348004403C140020381400204014002008
:103080003A14002000A00640B4130020B013002022
:1030900038B5002908D0051C0C1C2878FFF7A0FFC4
:1030A0000135013C002CF8D138BDC04610B5054BA8
:1030B0001B78002B05D0034CFFF784FD2378002BF1
:1030C000FAD110BDB0130020064B1B78DBB2064AC4
:1030D0001078C0B2834202D33F30C01A01E00138F9
:1030E000C01A7047401400203A140020064B18788C
:1030F000C0B2064B1B78DBB2984201D3C01A01E084
:103100004030C01A7047C04639140020B113002067
:1031100010B51A4B1A78D2B2194B1B78DBB29A420F
:1031200019D001333F2B1BD81649CC5CE4B2D9B27D
:10313000134801701449096800290FD09A4201D33D
:10314000D31A01E04032D31A201C1A2B14DC0F4B87
:103150001B780B7210E0012040420DE0201C0BE0B8
:10316000084B1C78E4B20021054B1970064B196816
:1031700000239942E4D1201C10BDC0463914002020
:10318000B1130020F8130020AC130020F41300202A
:103190000A4B1A78D2B20A4B1B78DBB29A420AD099
:1031A000013300223F219942524152421340054AC5
:1031B000D05CC0B201E001204042704739140020C9
:1031C000B1130020F8130020064B1A78D2B2064B38
:1031D0001A70064B1B68002B02D0054A12781A722F
:1031E0007047C046B113002039140020AC130020F2
:1031F000F4130020294B1B799A0615D5274BDB7950
:10320000D8B2274B1B78013300223F21994252410B
:1032100052421340234A1278D2B29A4204D0224A30
:10322000D054DBB21E4A13701C4BDB78DBB25AB2AF
:10323000002A1FDA194A127952B2002A1ADA1B4AF6
:103240001178C9B21A4A1278D2B2914203D16C21D4
:10325000124AD1700EE0013200213F2090424941D4
:1032600049420A401349885CC0B20C49C871D2B2C5
:103270000F490A705A0610D5084B1B795A060CD50F
:1032800000220D4B1A700D4B1B68002B02D00C4A0C
:1032900012781A722C22014BDA70704700A0064097
:1032A00039140020B1130020F8130020401400202E
:1032B0003A140020B4130020B01300203C14002066
:1032C00038140020164B1968802212010A431A6034
:1032D0000023144A1370144A1370144A1370144ACA
:1032E0001370144A13701449144A1160D1218900D3
:1032F000134A1160C104C90E124A1170C0B2507055
:1033000093702C23D370104B104A19680A40802107
:10331000C9010A431A60802292010D4B1A6070475E
:1033200034800440AD14002042140020B414002066
:10333000AE14002041140020130300000CB0044020
:1033400010B0044000B006400CE400E0FF00FFFFB6
:1033500000E100E0144B9A7813239A4303230340BF
:103360001343420701D5102213430F4A93700F23D2
:103370000340042B04D1131C917940220A439A7113
:10338000094B5A7910239A43034200D01A43064B43
:103390005A719B7910229343820601D51022134360
:1033A000014A93717047C04600B0064010B5104BFB
:1033B0001B681A051AD50F4B1B78002B05D00D4C36
:1033C000FFF700FC2378002BFAD1802292010A4BF0
:1033D0001A600023094AD3700422FF3208490A60A8
:1033E00008490A60084A1370084A137010BDC046A5
:1033F000348004404114002080E100E000B0064029
:103400000CB0044010B00440AD1400204214002061
:1034100010B5041C0C4A1378002BFCD1201C012190
:10342000FEF790FC201C0021FEF762FC074B6200B7
:1034300011198900C85806490860121992009B1892
:103440001A7A044B1A7010BD41140020FC4600008B
:10345000B0140020AC1400200C4B1A680023110596
:1034600012D516280AD1C0229200094B1A60094BC6
:10347000597B08220A435A73012305E0054B5A7B06
:1034800008218A435A730023181C70473480044073
:1034900004B0044000B006400C4B1A68002311052C
:1034A00012D517280AD1C0229200094B1A60094B85
:1034B000597B01220A435A73012305E0054B5A7BCD
:1034C00001218A435A730023181C7047348004403A
:1034D00008B0044000B0064070B5061C224B1B68C3
:1034E0001A0540D5214B1B68002B02D0204A1278C8
:1034F0001A71204B1C78013400232722A2425B4121
:103500005B421C401C4D1EE0FFF714FC402816DCFB
:103510001A4B1B795BB2002B15DA174A137801336B
:10352000002227219942524152421340144AD15C51
:10353000C9B2124AD171DBB20F4A137003E0FF28FF
:1035400001DDFFF73FFB2B78DBB29C42DCD0F6B20B
:103550000B4B1E5501220B4B1A70E4B2054B1C702D
:10356000AC22064BDA7070BD34800440B0140020E9
:10357000AC140020B4140020AE14002000B00640AB
:10358000441400204114002038B5002908D0051C3F
:103590000C1C2878FFF7A0FF0135013C002CF8D166
:1035A00038BDC04610B5054B1B78002B05D0034C29
:1035B000FFF708FB2378002BFAD110BD411400203F
:1035C000064B1B78DBB2064A1078C0B2834202D3A6
:1035D0002730C01A01E00138C01A7047B414002027
:1035E000AE140020064B1878C0B2064B1B78DBB235
:1035F000984201D3C01A01E04030C01A7047C0465B
:10360000AD140020421400200B4B1A78D2B20B4BA1
:103610001B78DBB29A420CD0013300223F21994241
:10362000524152421340064AD05CDBB2034A137047
:1036300001E0012040427047AD14002042140020F8
:103640006C1400200A4B1A78D2B20A4B1B78DBB2FA
:103650009A420AD0013300223F21994252415242FC
:103660001340054AD05CC0B201E0012040427047DF
:10367000AD140020421400206C140020024B1A7874
:10368000D2B2024B1A70704742140020AD140020D1
:10369000294B1B799A0615D5274BDB79D8B2274BD6
:1036A0001B78013300223F2199425241524213407C
:1036B000234A1278D2B29A4204D0224AD054DBB2C2
:1036C0001E4A13701C4BDB78DBB25AB2002A1FDA99
:1036D000194A127952B2002A1ADA1B4A1178C9B271
:1036E0001A4A1278D2B2914203D16C21124AD17097
:1036F0000EE00132002127209042494149420A4010
:103700001349885CC0B20C49C871D2B20F490A7023
:103710005A0610D5084B1B795A060CD500220D4BC2
:103720001A700D4B1B68002B02D00C4A12781A72CB
:103730002C22014BDA70704700B00640AD14002017
:10374000421400206C140020B4140020AE14002099
:103750004414002041140020B0140020AC140020B8
:10376000164B1968802252010A431A600023144A3A
:103770001370144A1370144A1370144A1370144AC5
:1037800013701449144A1160D1218900134A116041
:10379000C104C90E124A1170C0B2507093702C232C
:1037A000D370104B104A19680A408021C9030A439C
:1037B0001A608022D2010D4B1A6070473480044099
:1037C00021150020B6140020281500202215002005
:1037D000B51400201303000008C004400CC00440CE
:1037E00000C006400CE400E0FFFF00FF00E100E045
:1037F000144B9A7813239A4303230340134342073D
:1038000001D5102213430F4A93700F230340042B5A
:1038100004D1131C917940220A439A71094B5A79B9
:1038200010239A43034200D01A43064B5A719B79E6
:1038300010229343820601D510221343014A93714B
:103840007047C04600C0064010B5104B1B68DA0434
:103850001AD50F4B1B78002B05D00D4CFFF7B2F992
:103860002378002BFAD18022D2010A4B1A60002360
:10387000094AD3700422FF3208490A6008490A60E5
:10388000084A1370084A137010BDC04634800440C3
:10389000B514002080E100E000C0064008C00440EC
:1038A0000CC0044021150020B614002010B5041CE3
:1038B0000C4A1378002BFCD1201C0121FEF742FAA0
:1038C000201C0021FEF714FA074B62001119890031
:1038D000C85806490860121992009B181A7A044BBE
:1038E0001A7010BDB5140020FC46000024150020FD
:1038F000201500200C4B1A680023D10412D5022891
:103900000AD1C0229200094B1A60094B597B082248
:103910000A435A73012305E0054B5A7B08218A4369
:103920005A730023181C70473480044000C00440C0
:1039300000C006400C4B1A680023D10412D50E2893
:103940000AD1C0229200094B1A60094B597B01220F
:103950000A435A73012305E0054B5A7B01218A4330
:103960005A730023181C70473480044004C004407C
:1039700000C0064070B5061C224B1B68DA0440D517
:10398000214B1B68002B02D0204A12781A71204B61
:103990001C78013400232722A2425B415B421C4079
:1039A0001C4D1EE0FFF7C6F9402816DC1A4B1B79A8
:1039B0005BB2002B15DA174A137801330022272156
:1039C0009942524152421340144AD15CC9B2124A40
:1039D000D171DBB20F4A137003E0FF2801DDFFF75E
:1039E000F1F82B78DBB29C42DCD0F6B20B4B1E55C3
:1039F00001220B4B1A70E4B2054B1C70AC22064B33
:103A0000DA7070BD34800440241500202015002099
:103A1000281500202215002000C00640B814002000
:103A2000B514002038B5002908D0051C0C1C2878D6
:103A3000FFF7A0FF0135013C002CF8D138BDC0468E
:103A400010B5054B1B78002B05D0034CFFF7BAF8D7
:103A50002378002BFAD110BDB5140020064B1B783B
:103A6000DBB2064A1078C0B2834202D32730C01AB4
:103A700001E00138C01A70472815002022150020E7
:103A8000064B1878C0B2064B1B78DBB2984201D3C4
:103A9000C01A01E04030C01A7047C046211500200E
:103AA000B61400200B4B1A78D2B20B4B1B78DBB24A
:103AB0009A420CD0013300223F2199425241524296
:103AC0001340064AD05CDBB2034A137001E00120C8
:103AD0004042704721150020B6140020E014002059
:103AE0000A4B1A78D2B20A4B1B78DBB29A420AD040
:103AF000013300223F219942524152421340054A6C
:103B0000D05CC0B201E00120404270472115002086
:103B1000B6140020E0140020024B1A78D2B2024BF7
:103B20001A707047B614002021150020294B1B790C
:103B30009A0615D5274BDB79D8B2274B1B78013372
:103B400000223F219942524152421340234A1278A7
:103B5000D2B29A4204D0224AD054DBB21E4A137029
:103B60001C4BDB78DBB25AB2002A1FDA194A1279F1
:103B700052B2002A1ADA1B4A1178C9B21A4A1278CC
:103B8000D2B2914203D16C21124AD1700EE00132BF
:103B9000002127209042494149420A401349885C4C
:103BA000C0B20C49C871D2B20F490A705A0610D57A
:103BB000084B1B795A060CD500220D4B1A700D4B81
:103BC0001B68002B02D00C4A12781A722C22014B6F
:103BD000DA70704700C0064021150020B61400209E
:103BE000E01400202815002022150020B814002021
:103BF000B5140020241500202015002010B584B035
:103C000072B61D4B70221A7041211C4A11700F218F
:103C10001B4A117080221A701A1C13785BB2002B99
:103C2000FBDA184B186862B6174B984202D883002B
:103C30001818400001AC211C0A2200F0EBF923788F
:103C4000002B11D10AE001AA9A5C002A07D0590082
:103C500041184A8001330A2BF5D100E000230133DB
:103C60005B000A4A137004E0084A53800123101CC9
:103C7000E9E704B010BDC046000002400700024062
:103C800006000240080002407F969800F4FDFF1FE6
:103C900008B50368C9B21B68984708BD08B5036832
:103CA000C9B21B68984708BD08B50368C9B21B684C
:103CB000984708BD08B50368C9B21B68984708BD96
:103CC00008B54808034BC01800F0D2F9FFF760F8B8
:103CD00008BDC046C0C62D0010B5141C4808054BD1
:103CE000C01800F0C5F9FFF753F8201CFFF796F84D
:103CF00010BDC046C0C62D0008B5FFF7BBF808BD13
:103D000008B5081CFFF7F2F808BDC04608B5081C46
:103D1000FFF710F9431E9841C0B208BD08B5081C52
:103D2000FFF734F9431E9841C0B208BD08B5FFF74C
:103D3000DDF908BD08B5FFF72BFA08BD08B5FFF798
:103D4000E7F908BD08B5FFF7B1F908BD08B5FFF7F9
:103D50003BFA08BD08B5FFF7B7F908BD08B5081C60
:103D6000FFF73EF9012008BD08B5081CFFF738F938
:103D7000012008BD10B5141C081C111CFFF788F9A0
:103D8000201C10BD38B50D1C081C00F045FA041CA1
:103D9000281C211CFFF77CF9201C38BD7047C04649
:103DA000044B00221A71FA21890099601A73024AA1
:103DB0001A6070472C150020C048000008B5036841
:103DC000C9B21B68984708BD08B50368C9B21B682B
:103DD000984708BD08B50368C9B21B68984708BD75
:103DE00008B50368C9B21B68984708BD08B54808FC
:103DF000034BC01800F03CF9FFF764FA08BDC04659
:103E000060E3160010B5141C4808054BC01800F0FC
:103E10002FF9FFF757FA201CFFF79CFA10BDC04698
:103E2000C0C62D0008B5FFF7C1FA08BD08B5081CCB
:103E3000FFF7EEFA08BDC04608B5081CFFF70CFBFB
:103E4000431E9841C0B208BD08B5081CFFF724FB0B
:103E5000431E9841C0B208BD08B5FFF7C3FB08BDBB
:103E600008B5FFF7EFFB08BD08B5FFF7CDFB08BDB0
:103E700008B5FFF797FB08BD08B5FFF7FFFB08BDC6
:103E800008B5FFF79DFB08BD08B5081CFFF724FB2C
:103E9000012008BD08B5081CFFF71EFB012008BD66
:103EA00010B5141C081C111CFFF76EFB201C10BD64
:103EB00038B50D1C081C00F0AFF9041C281C211C8F
:103EC000FFF762FB201C38BD7047C046044B002240
:103ED0001A71FA21890099601A73024A1A607047B0
:103EE0003C1500201849000008B50368C9B21B68DA
:103EF000984708BD08B50368C9B21B68984708BD54
:103F000008B50368C9B21B68984708BD08B50368BF
:103F1000C9B21B68984708BD08B54808034BC018CC
:103F200000F0A6F8FFF71CFC08BDC04660E31600D1
:103F300010B5141C4808054BC01800F099F8FFF79D
:103F40000FFC201CFFF754FC10BDC04660E31600B8
:103F500008B5FFF779FC08BD08B5081CFFF7A6FCFB
:103F600008BDC04608B5081CFFF7C4FC431E9841B5
:103F7000C0B208BD08B5081CFFF7DCFC431E984121
:103F8000C0B208BD08B5FFF77BFD08BD08B5FFF757
:103F9000A7FD08BD08B5FFF785FD08BD08B5FFF70B
:103FA0004FFD08BD08B5FFF7B7FD08BD08B5FFF721
:103FB00055FD08BD08B5081CFFF7DCFC012008BD55
:103FC00008B5081CFFF7D6FC012008BD10B5141C6D
:103FD000081C111CFFF726FD201C10BD38B50D1C58
:103FE000081C00F019F9041C281C211CFFF71AFDFD
:103FF000201C38BD7047C046044B00221A71FA21BC
:10400000890099601A73024A1A6070474C150020A3
:1040100070490000F0B5474680B4061C0D1C904660
:104020000024301C414600F067F8271C092902D8FB
:104030003031C9B201E03731C9B2E955301C4146CF
:1040400000F016F8061E01D00134EAE7EF1900234C
:104050007B70002C07DDEA5C295DE9542A550133A9
:10406000013CA342F7DB281C04BC9046F0BDC046CF
:10407000002934D00123002210B488422CD301241B
:104080002407A14204D2814202D209011B01F8E7B0
:10409000E400A14204D2814202D249005B00F8E769
:1040A000884201D3401A1A434C08A04202D3001B95
:1040B0005C0822438C08A04202D3001B9C082243C8
:1040C000CC08A04202D3001BDC082243002803D006
:1040D0001B0901D00909E3E7101C10BC7047002838
:1040E00001D00020C04307B4024802A1401802904A
:1040F00003BDC046190000000029F0D003B5FFF74A
:10410000B9FF0EBC4243891A1847C0467047C046E3
:104110001C2101231B04984201D3000C10391B0AF7
:10412000984201D3000A08391B09984201D30009BB
:10413000043902A2105C40187047C0460403020212
:1041400001010101000000000000000070B50D4EEB
:104150000D4D0024AD1BAD1005D0A300F358013464
:104160009847A542F9D100F02FFC084E084D0024D5
:10417000AD1BAD1005D0A300F35801349847A542FC
:10418000F9D170BDD4490000D4490000D4490000E1
:10419000EC490000F0B50F2A35D9031C0B439C07EE
:1041A00035D1161C103E36093501451910350C1C49
:1041B000031C27681F6067685F60A7689F60E768E7
:1041C0001034DF601033AB42F3D1731C1B01C518F0
:1041D000C9180F231340032B1BD91C1FA40801343B
:1041E000A4000023CE58EE500433A342FAD1ED18B8
:1041F000C91803231A4005D00023CC5CEC540133CA
:104200009342FAD1F0BD051C002AF5D1FAE7051C4E
:10421000F2E71A1CF8E7C0460023C25C0133002A0B
:10422000FBD1581E7047C04608B5034B002B02D087
:10423000024800F005F808BD0000000051420000EF
:1042400008B5011C00220020002300F019F808BD69
:1042500038B5094B094DED1AAD1009D0013DAC0040
:10426000E41800E0013D23689847043C002DF9D193
:1042700000F0BCFB38BDC04600000000000000009C
:10428000F0B54F464646C0B498462B4BA4251B6854
:104290006D005C5983B0061C0F1C91460193002CE5
:1042A00044D065681F2D1ADD244B002B02D101205C
:1042B00040421CE0C820400000E000BF041EF6D0D1
:1042C00000254560A42301985B00C0580199206037
:1042D000CC50C4235B00E550C6235B00E550002EA4
:1042E0000AD16B1C0235AD00636000202F5103B072
:1042F0000CBC90469946F0BDAB00E31888224846B6
:104300009850C4204000221810680121A940084399
:1043100010608422520040469850022EE1D1C622FD
:104320005200A318186801431960DAE71C1C4D34C9
:10433000FF345C51B5E7C046C449000000000000EE
:104340006C0600008206000074060000A80700004A
:1043500090060000A8070000A8070000A8070000BA
:10436000A8070000A8070000BA070000A80700007F
:10437000A8070000BA070000A8070000A80700006F
:10438000A8070000BA070000A8070000BA0700004D
:10439000A8070000A8070000A8070000A807000061
:1043A000A8070000A8070000A8070000A807000051
:1043B000A8070000A8070000A8070000A807000041
:1043C000A8070000A8070000A8070000A807000031
:1043D000A8070000A8070000A8070000A807000021
:1043E000A8070000A8070000A8070000A807000011
:1043F000A8070000A8070000A8070000A807000001
:10440000A8070000BA07000090060000740600002C
:10441000A8070000BA070000A8070000A8070000CE
:10442000A8070000A8070000A8070000A8070000D0
:10443000A8070000A8070000A8070000A8070000C0
:10444000A8070000A8070000A8070000A8070000B0
:10445000A8070000A8070000A8070000A8070000A0
:10446000A8070000A8070000A8070000A807000090
:10447000A8070000A8070000A8070000A807000080
:10448000A8070000A8070000A8070000A807000070
:10449000A8070000A8070000A8070000A807000060
:1044A000A8070000A8070000A8070000A807000050
:1044B000A8070000A8070000A8070000A807000040
:1044C000A8070000A8070000A8070000A807000030
:1044D000A8070000A8070000A8070000A807000020
:1044E000A8070000A8070000A8070000A807000010
:1044F000A8070000A8070000A8070000A807000000
:10450000A8070000A8070000760700008E09000039
:10451000F2080000BA090000BA090000BA09000058
:10452000BA090000BA090000BA090000BA0900007F
:10453000BA090000BA090000BA090000BA0900006F
:10454000BA090000BA090000BA090000BA0900005F
:10455000BA090000BA090000BA090000BA0900004F
:10456000BA090000BA090000BA090000BA0900003F
:10457000BA090000BA090000BA090000BA0900002F
:10458000BA090000BA090000BA090000BA0900001F
:10459000BA090000BA090000BA090000BA0900000F
:1045A000BA090000BA090000BA090000BA090000FF
:1045B000BA090000BA090000BA090000BA090000EF
:1045C000BA090000BA090000BA090000BA090000DF
:1045D000BA090000BA090000BA090000BA090000CF
:1045E000BA090000BA090000BA090000BA090000BF
:1045F000BA090000BA090000BA090000BA090000AF
:10460000BA090000BA090000BA0900001808000041
:10461000400800006E080000BA09000022080000EF
:104620005008000090080000BA0900002C080000A3
:104630005A080000B2080000BA090000360800005D
:1046400064080000D2080000900E0000520E000026
:10465000F20D0000F00D00009E0E00008A0E00001A
:10466000860F00008E0F00009A0F0000A20F0000BE
:10467000AE0F0000B80F0000C60F0000D00F000002
:104680006E140000CA13000036130000341300003B
:104690008014000064140000D6130000E213000030
:1046A000F0130000FC1300000A1400001A140000AC
:1046B0002C1400003C140000EE150000F61500005C
:1046C000021600000A160000161600002016000050
:1046D0002E1600003816000031414C530000000037
:1046E0004861726477617265000000005465656E10
:1046F00073794C4334380000332E3000420000F808
:1047000040A0044001000000420000F844A0044022
:1047100002000000C00000F800C0044001000000DA
:10472000000000F80490044002000000000000F8BF
:104730000890044004000000C00000F81CC00440C1
:1047400080000000C00000F810C00440100000000D
:10475000C00000F808C0044004000000C00000F8D9
:104760000CC0044008000000800000F80CB00440B9
:1047700008000000800000F810B0044010000000A5
:10478000800000F818B0044040000000800000F8ED
:104790001CB0044080000000800000F814B0044009
:1047A00020000000C00000F804C004400200000027
:1047B000800000F800B0044001000000400000F854
:1047C00000A0044001000000400000F804A00440E4
:1047D00002000000400000F80CA0044008000000A7
:1047E000400000F808A0044004000000C00000F8E9
:1047F00014C0044020000000C00000F818C00440AD
:1048000040000000800000F804B0044002000000F6
:10481000800000F808B0044004000000020100F825
:1048200050D0044010000000020100F854D00440B1
:1048300020000000030100F878D004404000000090
:1048400000000000000000008D2B0000992B0000EC
:104850006D2B0000752B00007D2B0000852B0000C8
:10486000001519150001000068FDFF1F120000006F
:104870000002000094FDFF1F430000000003000041
:10488000F0FDFF1F00000000010309047CFDFF1F75
:104890000000000002030904D8FDFF1F0000000013
:1048A00003030904F4FDFF1F0000000000000000E6
:1048B00000000000000000000000000000000000F8
:1048C0005D3D0000753D00002D3D00003D3D0000B8
:1048D000353D0000453D0000C13C0000D93C0000D2
:1048E000F93C0000013D00000D3D00001D3D0000B1
:1048F0004D3D0000553D0000913C00009D3C0000F6
:10490000A93C0000B53C0000853D0000693D000069
:104910000000000000000000893E0000A13E0000F1
:10492000593E0000693E0000613E0000713E0000FB
:10493000ED3D0000053E0000253E00002D3E00003C
:10494000393E0000493E0000793E0000813E0000F3
:10495000BD3D0000C93D0000D53D0000E13D000027
:10496000B13E0000953E0000000000000000000085
:10497000B53F0000CD3F0000853F0000953F00009F
:104980008D3F00009D3F0000193F0000313F0000B7
:10499000513F0000593F0000653F0000753F000097
:1049A000A53F0000AD3F0000E93E0000F53E0000DD
:1049B000013F00000D3F0000DD3F0000C13F00004F
:1049C0004300000010FEFF1FF8B5C046F8BC08BC4D
:1049D0009E4670472942000039040000A92B0000C0
:0C49E000A13D0000CD3E0000F93F0000AA
:0449EC00F8B5C04614
:1049F000FFFFFFFF0A040000120100020200004056
:104A0000C0168304000101020301000018035400D2
:104A1000650065006E007300790064007500690030
:104A20006E006F0009024300020100C03209040059
:104A3000000102020100052400100105240101010A
:104A40000424020605240600010705820310004025
:104A500009040100020A00000007050302400000EB
:104A60000705840240000000160355005300420071
:104A70002000530065007200690061006C000000B6
:104A8000040309040C030000000000000000000003
:104A90000000000000000000000000000000000016
:104AA00000000000FC00002064010020CC01002078
:104AB00000000000000000000000000000000000F6
:104AC00000000000000000000000000000000000E6
:104AD00000000000C04900000000000000000000CD
:104AE00000000000000000000000000000000000C6
:104AF00000000000000000000000000000000000B6
:104B000000000000000000000000000000000000A5
:104B10000000000000000000000000000000000095
:104B20000000000000000000000000000000000085
:104B30000000000000000000000000000000000075
:104B40000000000000000000010000000000000064
:104B50000E33CDAB34126DE6ECDE05000B00000029
:104B60000000000000000000000000000000000045
:104B70000000000000000000000000000000000035
:104B80000000000000000000000000000000000025
:104B90000000000000000000000000000000000015
:00000001FF
