:10000000F8FF0220990100008150000039500000E3
:1000100039500000395000003950000039500000BC
:100020003950000039500000395000008150000064
:1000300081500000395000002D5800003159000057
:10004000815000008150000081500000815000006C
:10005000815000008150000081500000815000005C
:10006000815000008150000081500000815000004C
:10007000815000008150000081500000815000003C
:10008000815000008150000081500000815000002C
:10009000815000008150000081500000815000001C
:1000A000815000008150000081500000815000000C
:1000B000815000008150000081500000B9500000C4
:1000C00081500000E55100008150000011530000F4
:1000D0008150000009540000815000008150000050
:1000E00081500000815000008150000081500000CC
:1000F00081500000815000008150000081500000BC
:1001000081500000815000008150000081500000AB
:1001100081500000694000008150000081500000C3
:10012000815000008150000081500000815000008B
:10013000815000008150000081500000815000007B
:1001400081500000815000000155000081500000E6
:10015000F9550000815000008150000081500000DE
:10016000815000008150000081500000815000004B
:10017000815000008150000081500000815000003B
:10018000815000008150000081500000815000002B
:100190008150000081500000584B4CF2205210B5A5
:1001A0001A804DF628121A8000BF00BF04F06CFFC1
:1001B000534B4FF030621A60524A9A60524ADA60EA
:1001C000524B4FF470021A60514A136813F4807353
:1001D00004D150490B604FF4A85313604E4B1A786A
:1001E000110703D51A7842F008021A704B4B4C499C
:1001F0002A221A704B4A4C4B8B4204D252F8040FFD
:1002000043F8040BF8E7494B494900228B4202D2DC
:1002100043F8042BFAE74749474A002352F82300E2
:1002200041F823000133662BF8D1444B444A802126
:1002300003F8011B9342FBD1424B3E4A1A60424BEA
:100240008A221A70A3F5805324225A70A0221A70B1
:100250009A799207FCD59A79D406FCD43B4A9379D3
:1002600003F00C03082B394BF9D103221A714622F3
:100270005A719A799006FCD5344A9179334B4906E4
:10028000FBD5334A4FF08271116009215160202261
:100290001A709A7902F00C020C2AFAD12D4B2E4AD0
:1002A0001A602E4B2E4A1A6000225A60072243F829
:1002B000042C2C4AC3F80C2D62B603F067FD154BD5
:1002C0001B68DA0705D5284803F0FAFC274B284AB3
:1002D0001A60284B1B785B0609D5244C244B2268F6
:1002E0009A4204D1204803F0EBFC0023236005F080
:1002F0005BFB04F0CFFE04F0C5FDFEE70E200540D9
:1003000030800440823F04000100002B88ED00E0B3
:1003100010D0034014D0034002D0074000E0074053
:10032000F010FF1F785D0000F806FF1FF010FF1FA0
:10033000A4ED02200002FF1F0000000000E400E026
:1003400056E400E008ED00E00050064000400640A2
:100350004480044004800440C010050014E000E024
:10036000BFD4010000002020388EF95B1CE0034060
:10037000A5C3945A00F00740FFFFFFFFFFFFFFFFF8
:10038000FFFFFFFFFFFFFFFFFFFFFFFFFFFFFFFF7D
:10039000FFFFFFFFFFFFFFFFFFFFFFFFFFFFFFFF6D
:1003A000FFFFFFFFFFFFFFFFFFFFFFFFFFFFFFFF5D
:1003B000FFFFFFFFFFFFFFFFFFFFFFFFFFFFFFFF4D
:1003C000FFFFFFFFFFFFFFFFFFFFFFFFFFFFFFFF3D
:1003D000FFFFFFFFFFFFFFFFFFFFFFFFFFFFFFFF2D
:1003E000FFFFFFFFFFFFFFFFFFFFFFFFFFFFFFFF1D
:1003F000FFFFFFFFFFFFFFFFFFFFFFFFFFFFFFFF0D
:10040000FFFFFFFFFFFFFFFFFFFFFFFFDEF9FFFF23
:1004100010B5054C237833B9044B13B10448AFF33E
:1004200000800123237010BDF010FF1F00000000AA
:100430007C5D0000084B10B51BB108490848AFF3BC
:1004400000800848036803B910BD074B002BFBD0A0
:10045000BDE81040184700BF00000000F410FF1F67
:100460007C5D0000F010FF1F00000000064B0748F5
:100470001B68074A82B020210193019B96330360D9
:10048000116002B0704700BF74E902201C11FF1F09
:1004900084F00F40064B07481B68074A82B02021B2
:1004A0000193019B0A330360116002B0704700BFE3
:1004B00074E902201C11FF1F84F00F40014B002241
:1004C0001A6070471411FF1F10B533281BD8DFE8DE
:1004D00000F0676B721A241A1A1A1A1A231A1A23AE
:1004E0001A1A1A231A231A1A1A1A1A1A1A1A1A1A5A
:1004F0001A1A1A1A1A1A1A1A1A1A1A1A1A1A1A1A5C
:100500001A1A1A2324722F4B2F4A18700424002021
:1005100001215C719871117010BD012004F082FC02
:100520000C212A4804F0FAFB002004F07BFC022096
:1005300004F078FC0321264804F0F0FB002004F0CE
:1005400071FC212004F06EFC002004F06BFC002004
:1005500004F068FC102004F065FC002004F062FC4C
:10056000232004F05FFC002004F05CFC0F2004F06A
:1005700059FC422004F056FC402004F053FC40207B
:1005800004F050FC082004F04DFC412004F04AFC2B
:10059000022004F047FC0020BDE8104004F042BCFB
:1005A0000C4B00221A6010BD0B490A4B202001227F
:1005B00008601A6010BD04210848BDE8104004F02E
:1005C000ADBB00BF2011FF1F1911FF1FEC5A000027
:1005D000FC5A00001411FF1F84F00F40E45A000081
:1005E0007C4A1378803B4E2B50D8DFE813F05F0035
:1005F000D300CD00E500A7004F004F004F004F0093
:100600004F004F004F004F004F004F004F004F0072
:100610004F004F004F004F004F004F004F004F0062
:100620004F004F004F004F004F004F004F004F0052
:100630004F004F004F004F004F004F004F004F0042
:100640004F004F004F004F004F004F004F004F0032
:100650004F004F004F004F004F004F004F004F0022
:100660004F004F004F004F004F004F004F00B300AE
:10067000B700BE004F007100750079004F00880080
:100680008C0090004F009F00A300500070479078AE
:100690005378127903EB0023A1F85030130716D5D5
:1006A000CB6B013313D10323CB63704710B4538852
:1006B0005278494C494842EA03234B600133B0FB6E
:1006C000F3F3CB60B4FBF3F35DF8044B8B6070473E
:1006D000537881F842307047537881F8463070473C
:1006E00090785378127903EB00231007A1F84C306F
:1006F000EDD5CB6B0133EAD10123CB63704753783F
:1007000081F843307047537881F8473070479078CC
:100710005378127903EB00231207A1F84E30D6D597
:10072000CB6B0133D3D10223CB637047537881F86D
:1007300044307047537881F848307047B2F803006E
:100740009378527843EA002342EA032301339B0063
:100750004B637047537881F841307047537881F884
:1007600045304FF0FF33CB63704790785378127960
:1007700003EB0023A1F84A301307A8D5CB6B013354
:10078000A5D10023CB637047937803F0010381F870
:1007900060307047B2F80130B2F8032001339B009B
:1007A00001329200B3F5503F4B630A614A618ED12A
:1007B0004FF4E8234B637047B2F803009378527804
:1007C00043EA002342EA032301339B000B614B61A0
:1007D000704700BF2011FF1F000E270700879303FB
:1007E00010B5064B20241C60962003F081FA044BC0
:1007F00064201C60BDE8104003F07ABA84F00F401A
:1008000088F00F4008B50021022003F06BFA0021A8
:100810000E2003F067FA0021072003F063FA00219D
:10082000082003F05FFA0021062003F05BFA0021A4
:10083000142003F057FA0021152003F053FA002189
:10084000052003F04FFA01210D2003F04BFAFFF7CA
:10085000C7FF034A034B0449116000221A6008BD18
:10086000180CFF1F1411FF1F0087930338B50E4C9F
:100870002378ABB1012B04D0FFF7B2FF0023237024
:1008800038BD02460948837945790133DBB29D4280
:100890008371C254F4D1FFF7A3FE0023237038BD47
:1008A000BDE83840FFF710BE1911FF1F2011FF1FD0
:1008B00010B412490B6885B0EBB11148026801927F
:1008C000019A934217D20F4B0F4A20241C600368F1
:1008D0000293029B00200F33136008603BB108496C
:1008E000096803910399994284BF0023136005B0FE
:1008F0005DF8044B7047044A1368EFE71C11FF1FB3
:1009000074E9022088F00F400C11FF1F30B4074A31
:10091000074C136807494FF4001523F00203012028
:1009200013602560087030BC704700BF10E000E025
:1009300084E100E01011FF1F0B4B1B68DB0330B498
:1009400004D50A4A136843F080631360064A084CD2
:10095000136808494FF4001543F0020300201360A8
:100960002560087030BC704710E000E004ED00E046
:1009700004E100E01011FF1F4B4B826DDFF848C10E
:100980002DE9F04FDFF830E1476D484EDFF83C913C
:10099000474C01254FF020080561C3F80080DEF8C0
:1009A00000304FF4001823F00203CEF8003083B07B
:1009B000C6F8008090F845A08DF803A00023924669
:1009C00001948CF800503D46834690F8416088467B
:1009D0004F462A46184619465446019D9DF80390F5
:1009E000002E0DD03B78287810F0FB0F28D1194647
:1009F0003B7803EA06004845F5D103EB012103E00B
:100A000039783B78090219443B78090219443B784C
:100A1000090201EB0300397800BF42F8040B00BF64
:100A20003B7803EB01213B7803EB01213B7803EB9F
:100A30000120A24242F8040B00BF3978E1DB01E05B
:100A40004FF001055FFA89F38BF841608BF8453070
:100A5000DEF800308DF80390DB030195CBF85840A9
:100A600004D5144A136843F080631360124A134894
:100A7000136843F002031360019B4FF4001500213B
:100A8000012B05608CF8001004D10D4A0D4B20207D
:100A9000106019600A4B01212022C8F808101A6062
:100AA00003B0BDE8F08F00BF84F00F4084E100E0A8
:100AB0008020074004ED00E010E000E004E100E0E9
:100AC00088F00F401411FF1F1011FF1FD0F00F40CE
:100AD0002DE9F04F8B4685B09BF80020D0F854806C
:100AE000846D8169029290F84130C26A0392C8EB2A
:100AF00004054A03844602EB9525002B00F0E980AB
:100B00007B4B8900202241441A607A4BDFF804E2D3
:100B10001B68784A7848794E23F002034FF4001797
:100B20001360CEF800709CF8457001912946744D11
:100B30008DF803700023A14601222A70374605462E
:100B40001C4618464E469CF841E0019B9DF80390D8
:100B50004246C246BEF1000F55D000BF287800BF04
:100B600000BF00BF00BF00BF00BF2C7804EB002017
:100B700000BF00BF00BF00BF2C7804EB002000BF07
:100B800000BF00BF00BF2C7804EB002042F8040B2C
:100B90009A42E3DB287800BF00BF01E000BF00BF3E
:100BA0002C7804EB002000BF3C7814F0FB0F2C786D
:100BB00004EB002049D100BF00BF2C7804EB0020DB
:100BC00042F8040B964298BF5246287804EA0E0475
:100BD0004C45E5D100BF2C7804EB0020A2EBD123DB
:100BE000534500BF2C7804EB00204FEA415138BF39
:100BF00003EBD1232C7804EB002042F8040B96423F
:100C000098BF4FEA0A02287800BF00BF00BFFFE785
:100C10002C7804EB002000BF00BF00BF00BF2C7881
:100C200004EB002000BF00BF00BF00BF2C7804EB26
:100C3000002042F8040B964298BF5246287800BF25
:100C400000BF00BF9A42E3D101E04FF001078DF8E9
:100C5000039001939DF803308CF84530254B8CF8B8
:100C600041E01B68CCF85860DB03CCF854A004D5F5
:100C70002448036843F0806303601E48224C0368E5
:100C800043F0020303604FF4001020601C4800236F
:100C9000012F037025D09CF84130E3B1DCF8183007
:100CA000019901EB8301C8EB01019DF80C3089101B
:100CB00003FB01F1CBF8081008F1040842451CBF02
:100CC00001238BF80030114B20221A6005B0BDE8DB
:100CD000F08F211F19E7CBF80830029B002BF2D0D0
:100CE000EAE70A4C0A48202525600360D3E700BFE5
:100CF00084F00F4010E000E0D0F00F40802007406B
:100D00001011FF1F04ED00E004E100E088F00F4047
:100D10001411FF1F84E100E02DE9F843C66D836BD9
:100D200090F8417006F16046B34228BF33469E0AF0
:100D30008146B3024FF000501A180024C9F854003D
:100D40008C604FF4FA70C9F83430C9F83830C9F8FB
:100D5000582002F0CDFF99F8413023B10F4BC9F86C
:100D6000104020221A60DFF844E00D4ADEF800301F
:100D7000DFF83CC00B480C4C23F002034FF4001189
:100D8000CEF800304FF001081160002399F845209B
:100D90008CF800804FF000511D460BE084F00F40AE
:100DA00084E100E0D0F00F408020074010E000E038
:100DB0001011FF1F01F10301002F11D005782378D6
:100DC00013F0FB0F41F010840D70057805EA07035E
:100DD0009342F4D1A1F1010101F8015906E000BFED
:100DE000057801F80159057801F80159057801F8ED
:100DF0000159057801F8075B057801F80159057874
:100E000001F80159057801F80159057801F8075BE7
:100E1000057801F80159057801F80159057801F8BC
:100E20000159057801F8075B057801F80159057843
:100E300001F80159057801F80159057801F8075BB7
:100E4000057801F80159057801F80159057801F88C
:100E50000159057801F8075B057801F80159057813
:100E600001F80159057801F80159057801F8075B87
:100E7000057801F80159057801F80159057801F85C
:100E80000159057801F8075B057801F801590578E3
:100E900001F80159057801F80159057801F8075B57
:100EA000057801F80159057801F80159057801F82C
:100EB0000159057801F8075B057801F801590578B3
:100EC00001F80159057801F80159057801F8075B27
:100ED000057801F80159057801F80159057801F8FC
:100EE0000159057801F8075B057801F80159057883
:100EF00001F80159057801F80159057801F8075BF7
:100F0000057801F80159057801F80159057801F8CB
:100F10000159057801F8075B057801F80159057852
:100F200001F80159057801F80159057801F8075BC6
:100F3000057801F80159057801F80159057801F89B
:100F40000159057801F8075B057801F80159057822
:100F500001F80159057801F80159057801F8075B96
:100F6000057801F80159057801F80159057801F86B
:100F70000159057801F8075B057801F801590578F2
:100F800001F80159057801F80159057801F8075B66
:100F9000057801F80159057801F80159057801F83B
:100FA0000159057801F8075B057801F801590578C2
:100FB00001F80159057801F80159057801F8075B36
:100FC000057801F80159057801F80159057801F80B
:100FD0000159057801F8075B057801F80159057892
:100FE00001F80159057801F80159057801F8075B06
:100FF000057801F80159057801F80159057801F8DB
:101000000159057801F8075B057801F80159057861
:1010100001F80159057801F80159057801F8075BD5
:10102000057801F80159057801F80159057801F8AA
:101030000159057801F8075B057801F80159057831
:1010400001F80159057801F80159057801F8075BA5
:10105000057801F80159057801F80159057801F87A
:101060000159057801F8075B057801F80159057801
:1010700001F80159057801F80159057801F8075B75
:10108000057801F80159057801F80159057801F84A
:101090000159057801F8075B057801F801590578D1
:1010A00001F80159057801F80159057801F8075B45
:1010B000057801F80159057801F80159057801F81A
:1010C0000159057801F8075B057801F801590578A1
:1010D00001F80159057801F80159057801F8075B15
:1010E000057801F80159057801F80159057801F8EA
:1010F0000159057801F8075B057801F80159057871
:1011000001F80159057801F80159057801F8075BE4
:10111000057801F80159057801F80159057801F8B9
:101120000159057801F8075B057801F80159057840
:1011300001F80159057801F80159057801F8075BB4
:10114000057801F80159057801F80159057801F889
:101150000159057801F8075B057801F80159057810
:1011600001F80159057801F80159057801F8075B84
:10117000057801F80159057801F80159057801F859
:101180000159057801F8075B057801F801590578E0
:1011900001F80159057801F80159057801F8075B54
:1011A000057801F80159057801F80159057801F829
:1011B0000159057801F8075B057801F801590578B0
:1011C00001F80159057801F80159057801F8075B24
:1011D000057801F80159057801F80159057801F8F9
:1011E0000159057801F8075B057801F80159057880
:1011F00001F80159057801F80159057801F8075BF4
:10120000057801F80159057801F80159057801F8C8
:101210000159057801F8075B057801F8015905784F
:1012200001F80159057801F80159057801F8075BC3
:10123000057801F80159057801F80159057801F898
:101240000159057801F8075B057801F8015905781F
:1012500001F80159057801F80159057801F8075B93
:10126000057801F80159057801F80159057801F868
:101270000159057801F8075B057801F801590578EF
:1012800001F80159057801F80159057801F8075B63
:10129000057801F80159057801F80159057801F838
:1012A0000159057801F8075B057801F801590578BF
:1012B00001F80159057801F80159057801F8075B33
:1012C000057801F80159057801F80159057801F808
:1012D0000159057801F8075B057801F8015905788F
:1012E00001F80159057801F80159057801F8075B03
:1012F000057801F80159057801F80159057801F8D8
:101300000159057801F8075B057801F8015905785E
:1013100001F80159057801F80159057801F8075BD2
:10132000057801F80159057801F80159057801F8A7
:101330000159057801F8075B057801F8015905782E
:1013400001F80159057801F80159057801F8075BA2
:10135000057801F80159057801F80159057801F877
:101360000159057801F8075B057801F801590578FE
:1013700001F80159057801F80159057801F8075B72
:10138000057801F80159057801F80159057801F847
:101390000159057801F8075B057801F801590578CE
:1013A00001F80159057801F80159057801F8075B42
:1013B000057801F80159057801F80159057801F817
:1013C0000159057801F8075B057801F8015905789E
:1013D00001F80159057801F80159057801F8075B12
:1013E000057801F80159057801F80159057801F8E7
:1013F0000159057801F8075B057801F8015905786E
:1014000001F80159057801F80159057801F8075BE1
:10141000057801F80159057801F80159057801F8B6
:101420000159057801F8075B057801F8015905783D
:1014300001F80159057801F80159057801F8075BB1
:10144000057801F80159057801F80159057801F886
:101450000159057801F8075B057801F8015905780D
:1014600001F80159057801F80159057801F8075B81
:10147000057801F80159057801F80159057801F856
:101480000159057801F8075B057801F801590578DD
:1014900001F80159057801F80159057801F8075B51
:1014A000057801F80159057801F80159057801F826
:1014B0000159057801F8075B057801F801590578AD
:1014C00001F80159057801F80159057801F8075B21
:1014D000057801F80159057801F80159057801F8F6
:1014E0000159057801F8075B057801F8015905787D
:1014F00001F80159057801F80159057801F8075BF1
:10150000057801F80159057801F80159057801F8C5
:101510000159057801F8075B057801F8015905784C
:1015200001F80159057801F80159057801F8075BC0
:10153000057801F80159057801F80159057801F895
:101540000159057801F8075B057801F8015905781C
:1015500001F80159057801F80159057801F8075B90
:10156000057801F80159057801F80159057801F865
:101570000159057801F8075B057801F801590578EC
:1015800001F80159057801F80159057801F8075B60
:10159000057801F80159057801F80159057801F835
:1015A0000159057801F8075B057801F801590578BC
:1015B00001F80159057801F80159057801F8075B30
:1015C000057801F80159057801F80159057801F805
:1015D0000159057801F8075B057801F8015905788C
:1015E00001F80159057801F80159057801F8075B00
:1015F000057801F80159057801F80159057801F8D5
:101600000159057801F8075B057801F8015905785B
:1016100001F80159057801F80159057801F8075BCF
:10162000057801F80159057801F80159057801F8A4
:101630000159057801F8075B057801F8015905782B
:1016400001F80159057801F80159057801F8075B9F
:10165000057801F80159057801F80159057801F874
:101660000159057801F8075B057801F801590578FB
:1016700001F80159057801F80159057801F8075B6F
:10168000057801F80159057801F80159057801F844
:101690000159057801F8075B057801F801590578CB
:1016A00001F80159057801F80159057801F8075B3F
:1016B000057801F80159057801F80159057801F814
:1016C0000159057801F8075B057801F8015905789B
:1016D00001F80159057801F80159057801F8075B0F
:1016E000057801F80159057801F80159057801F8E4
:1016F0000159057801F8075B057801F8015905786B
:1017000001F80159057801F80159057801F8075BDE
:10171000057801F80159057801F80159057801F8B3
:101720000159057801F8075B057801F8015905783A
:1017300001F80159057801F80159057801F8075BAE
:10174000057801F80159057801F80159057801F883
:101750000159057801F8075B057801F8015905780A
:1017600001F80159057801F80159057801F8075B7E
:10177000057801F80159057801F80159057801F853
:101780000159057801F8075B057801F801590578DA
:1017900001F80159057801F80159057801F8075B4E
:1017A000057801F80159057801F80159057801F823
:1017B0000159057801F8075B057801F801590578AA
:1017C00001F80159057801F80159057801F8075B1E
:1017D000057801F80159057801F80159057801F8F3
:1017E0000159057801F8075B057801F8015905787A
:1017F00001F80159057801F80159057801F8075BEE
:10180000057801F80159057801F80159057801F8C2
:101810000159057801F8075B057801F80159057849
:1018200001F80159057801F80159057801F8075BBD
:10183000057801F80159057801F80159057801F892
:101840000159057801F8075B057801F80159057819
:1018500001F80159057801F80159057801F8075B8D
:10186000057801F80159057801F80159057801F862
:101870000159057801F8075B057801F801590578E9
:1018800001F80159057801F80159057801F8075B5D
:10189000057801F80159057801F80159057801F832
:1018A0000159057801F8075B057801F801590578B9
:1018B00001F80159057801F80159057801F8075B2D
:1018C000057801F80159057801F80159057801F802
:1018D0000159057801F8075B057801F80159057889
:1018E00001F80159057801F80159057801F8075BFD
:1018F000057801F80159057801F80159057801F8D2
:101900000159057801F8075B057801F80159057858
:1019100001F80159057801F80159057801F8075BCC
:10192000057801F80159057801F80159057801F8A1
:101930000159057801F8075B057801F80159057828
:1019400001F80159057801F80159057801F8075B9C
:10195000057801F80159057801F80159057801F871
:101960000159057801F8075B057801F801590578F8
:1019700001F80159057801F80159057801F8075B6C
:10198000057801F80159057801F80159057801F841
:101990000159057801F8075B057801F801590578C8
:1019A00001F80159057801F80159057801F8075B3C
:1019B000057801F80159057801F80159057801F811
:1019C0000159057801F8075B057801F80159057898
:1019D00001F80159057801F80159057801F8075B0C
:1019E000057801F80159057801F80159057801F8E1
:1019F0000159057801F8075B057801F80159057868
:101A000001F80159057801F80159057801F8075BDB
:101A1000057801F80159057801F80159057801F8B0
:101A20000159057801F8075B057801F80159057837
:101A300001F80159057801F80159057801F8075BAB
:101A4000057801F80159057801F80159057801F880
:101A50000159057801F8075B057801F80159057807
:101A600001F80159057801F80159057801F8075B7B
:101A7000057801F80159057801F80159057801F850
:101A80000159057801F8075B057801F801590578D7
:101A900001F80159057801F80159057801F8075B4B
:101AA000057801F80159057801F80159057801F820
:101AB0000159057801F8075B057801F801590578A7
:101AC00001F80159057801F80159057801F8075B1B
:101AD000057801F80159057801F80159057801F8F0
:101AE0000159057801F8075B057801F80159057877
:101AF00001F80159057801F80159057801F8075BEB
:101B0000057801F80159057801F80159057801F8BF
:101B10000159057801F8075B057801F80159057846
:101B200001F80159057801F80159057801F8075BBA
:101B3000057801F80159057801F80159057801F88F
:101B40000159057801F8075B057801F80159057816
:101B500001F80159057801F80159057801F8075B8A
:101B6000057801F80159057801F80159057801F85F
:101B70000159057801F8075B057801F801590578E6
:101B800001F80159057801F80159057801F8075B5A
:101B9000057801F80159057801F80159057801F82F
:101BA0000159057801F8075B057801F801590578B6
:101BB00001F80159057801F80159057801F8075B2A
:101BC000057801F80159057801F80159057801F8FF
:101BD0000159057801F8075B057801F80159057886
:101BE00001F80159057801F80159057801F8075BFA
:101BF000057801F80159057801F80159057801F8CF
:101C00000159057801F8075B057801F80159057855
:101C100001F80159057801F80159057801F8075BC9
:101C2000057801F80159057801F80159057801F89E
:101C30000159057801F8075B057801F80159057825
:101C400001F80159057801F80159057801F8075B99
:101C5000057801F80159057801F80159057801F86E
:101C60000159057801F8075B057801F801590578F5
:101C700001F80159057801F80159057801F8075B69
:101C8000057801F80159057801F80159057801F83E
:101C90000159057801F8075B057801F801590578C5
:101CA00001F80159057801F80159057801F8075B39
:101CB000057801F80159057801F80159057801F80E
:101CC0000159057801F8075B057801F80159057895
:101CD00001F80159057801F80159057801F8075B09
:101CE000057801F80159057801F80159057801F8DE
:101CF0000159057801F8075B057801F80159057865
:101D000001F80159057801F80159057801F8075BD8
:101D1000057801F80159057801F80159057801F8AD
:101D20000159057801F8075B057801F80159057834
:101D300001F80159057801F80159057801F8075BA8
:101D4000057801F80159057801F80159057801F87D
:101D50000159057801F8075B057801F80159057804
:101D600001F80159057801F80159057801F8075B78
:101D7000057801F80159057801F80159057801F84D
:101D80000159057801F8075B057801F801590578D4
:101D900001F80159057801F80159057801F8075B48
:101DA000057801F80159057801F80159057801F81D
:101DB0000159057801F8075B057801F801590578A4
:101DC00001F80159057801F80159057801F8075B18
:101DD000057801F80159057801F80159057801F8ED
:101DE0000159057801F8075B057801F80159057874
:101DF00001F80159057801F80159057801F8075BE8
:101E0000057801F80159057801F80159057801F8BC
:101E10000159057801F8075B057801F80159057843
:101E200001F80159057801F80159057801F8075BB7
:101E3000057801F80159057801F80159057801F88C
:101E40000159057801F8075B057801F80159057813
:101E500001F80159057801F80159057801F8075B87
:101E6000057801F80159057801F80159057801F85C
:101E70000159057801F8075B057801F801590578E3
:101E800001F80159057801F80159057801F8075B57
:101E9000057801F80159057801F80159057801F82C
:101EA0000159057801F8075B057801F801590578B3
:101EB00001F80159057801F80159057801F8075B27
:101EC000057801F80159057801F80159057801F8FC
:101ED0000159057801F8075B057801F80159057883
:101EE00001F80159057801F80159057801F8075BF7
:101EF000057801F80159057801F80159057801F8CC
:101F00000159057801F8075B057801F80159057852
:101F100001F80159057801F80159057801F8075BC6
:101F2000057801F80159057801F80159057801F89B
:101F30000159057801F8075B057801F80159057822
:101F400001F80159057801F80159057801F8075B96
:101F5000057801F80159057801F80159057801F86B
:101F60000159057801F8075B057801F801590578F2
:101F700001F80159057801F80159057801F8075B66
:101F8000057801F80159057801F80159057801F83B
:101F90000159057801F8075B057801F801590578C2
:101FA00001F80159057801F80159057801F8075B36
:101FB000057801F80159057801F80159057801F80B
:101FC0000159057801F8075B057801F80159057892
:101FD00001F80159057801F80159057801F8075B06
:101FE000057801F80159057801F80159057801F8DB
:101FF0000159057801F8075B057801F80159057862
:1020000001F80159057801F80159057801F8075BD5
:10201000057801F80159057801F80159057801F8AA
:102020000159057801F8075B057801F80159057831
:1020300001F80159057801F80159057801F8075BA5
:10204000057801F80159057801F80159057801F87A
:102050000159057801F8075B057801F80159057801
:1020600001F80159057801F80159057801F8075B75
:10207000057801F80159057801F80159057801F84A
:102080000159057801F8075B057801F801590578D1
:1020900001F80159057801F80159057801F8075B45
:1020A000057801F80159057801F80159057801F81A
:1020B0000159057801F8075B057801F801590578A1
:1020C00001F80159057801F80159057801F8075B15
:1020D000057801F80159057801F80159057801F8EA
:1020E0000159057801F8075B057801F80159057871
:1020F00001F80159057801F80159057801F8075BE5
:10210000057801F80159057801F80159057801F8B9
:102110000159057801F8075B057801F80159057840
:1021200001F80159057801F80159057801F8075BB4
:10213000057801F80159057801F80159057801F889
:102140000159057801F8075B057801F80159057810
:1021500001F80159057801F80159057801F8075B84
:10216000057801F80159057801F80159057801F859
:102170000159057801F8075B057801F801590578E0
:1021800001F80159057801F80159057801F8075B54
:10219000057801F80159057801F80159057801F829
:1021A0000159057801F8075B057801F801590578B0
:1021B00001F80159057801F80159057801F8075B24
:1021C000057801F80159057801F80159057801F8F9
:1021D0000159057801F8075B057801F80159057880
:1021E00001F80159057801F80159057801F8075BF4
:1021F000057801F80159057801F80159057801F8C9
:102200000159057801F8075B057801F8015905784F
:1022100001F80159057801F80159057801F8075BC3
:10222000057801F80159057801F80159057801F898
:102230000159057801F8075B057801F8015905781F
:1022400001F80159057801F80159057801F8075B93
:10225000057801F80159057801F80159057801F868
:102260000159057801F8075B057801F801590578EF
:1022700001F80159057801F80159057801F8075B63
:10228000057801F80159057801F80159057801F838
:102290000159057801F8075B057801F801590578BF
:1022A00001F80159057801F80159057801F8075B33
:1022B000057801F80159057801F80159057801F808
:1022C0000159057801F8075B057801F8015905788F
:1022D00001F80159057801F80159057801F8075B03
:1022E000057801F80159057801F80159057801F8D8
:1022F0000159057801F8075B057801F8015905785F
:1023000001F80159057801F80159057801F8075BD2
:10231000057801F80159057801F80159057801F8A7
:102320000159057801F8075B057801F8015905782E
:1023300001F80159057801F80159057801F8075BA2
:10234000057801F80159057801F80159057801F877
:102350000159057801F8075B057801F801590578FE
:1023600001F80159057801F80159057801F8075B72
:10237000057801F80159057801F80159057801F847
:102380000159057801F8075B057801F801590578CE
:1023900001F80159057801F80159057801F8075B42
:1023A000057801F80159057801F80159057801F817
:1023B0000159057801F8075B057801F8015905789E
:1023C00001F80159057801F80159057801F8075B12
:1023D000057801F80159057801F80159057801F8E7
:1023E0000159057801F8075B057801F8015905786E
:1023F00001F80159057801F80159057801F8075BE2
:10240000057801F80159057801F80159057801F8B6
:102410000159057801F8075B057801F8015905783D
:1024200001F80159057801F80159057801F8075BB1
:10243000057801F80159057801F80159057801F886
:102440000159057801F8075B057801F8015905780D
:1024500001F80159057801F80159057801F8075B81
:10246000057801F80159057801F80159057801F856
:102470000159057801F8075B057801F801590578DD
:1024800001F80159057801F80159057801F8075B51
:10249000057801F80159057801F80159057801F826
:1024A0000159057801F8075B057801F801590578AD
:1024B00001F80159057801F80159057801F8075B21
:1024C000057801F80159057801F80159057801F8F6
:1024D0000159057801F8075B057801F8015905787D
:1024E00001F80159057801F80159057801F8075BF1
:1024F000057801F80159057801F80159057801F8C6
:102500000159057801F8075B057801F8015905784C
:1025100001F80159057801F80159057801F8075BC0
:10252000057801F80159057801F80159057801F895
:102530000159057801F8075B057801F8015905781C
:1025400001F80159057801F80159057801F8075B90
:10255000057801F80159057801F80159057801F865
:102560000159057801F8075B057801F801590578EC
:1025700001F80159057801F80159057801F8075B60
:10258000057801F80159057801F80159057801F835
:102590000159057801F8075B057801F801590578BC
:1025A00001F80159057801F80159057801F8075B30
:1025B000057801F80159057801F80159057801F805
:1025C0000159057801F8075B057801F8015905788C
:1025D00001F80159057801F80159057801F8075B00
:1025E000013E7EF4FDAB01E04FF0010489F8452087
:1025F000DEF80030DB0304D50E4A136843F0806335
:1026000013600D4A0D4813684FF4001543F00203A0
:102610000021012C136005608CF8001004D1084AD9
:10262000084B202010601960054B20221A60BDE87D
:10263000F88300BF04ED00E010E000E004E100E0FA
:1026400088F00F401411FF1F2DE9F04FD0F82CE057
:1026500090F841308BB081461A460293406BB0FB34
:10266000FEF300930EF1FF33DBB209910793591C7F
:1026700099F845300393B9F84A30D9F854B0D9F8ED
:102680005880D9F82450D9F828600193002A00F026
:102690006C82D9F818700BEB870CE0454FF00007FF
:1026A00040F264829548964B026822F0020205923D
:1026B0005FFA8EF20892009A920000240692059A20
:1026C0000494A646026022464FF40014C0F87441F8
:1026D0008C48079CCDF800E04FF0010A80F800A07C
:1026E000DDF820A005945846D3F800E0BEF1000FB5
:1026F00018D1D3F800E0BEF1000F13D196460DE0DB
:102700001A6872B91A6862B91A6852B91A6842B975
:102710001A6832B91A6822B91A6812B91A68002AF6
:10272000EED072464FF0010E774CC3F800E0D4F8BB
:1027300000E0B24005EA0E0E013972440DD140F8B6
:10274000042B804508D87149097811F0FB0F40F03F
:1027500002820121584600915146012F50D0062F88
:10276000C2D801A454F827F0C1270000E9260000D0
:10277000E926000053290000EB2800005328000040
:1027800099280000D3F800E0BEF1000FB1D0012479
:102790001C605D4CD4F800E0B24005EA0E0E013931
:1027A0007244DAD140F8042B8045D5D857490978CE
:1027B000012011F0FB0F009040F0CD8158465146AA
:1027C0008445DFD8524C202727601F6827B34FF07D
:1027D000010EC3F800E0E76CB2402F4001393A44E3
:1027E0000ED140F8042B80457746B5D84749097883
:1027F00011F0FB0F40F0AF81CDF800E05846514694
:10280000029F039C1740A7424FF0010E00F0198170
:102810001F68002F40F0F48001276AE74FF0010E97
:10282000C3F800E0A76CB2402F4001393A4440F0B1
:10283000608140F8042B80454FF005078CD8334960
:10284000097811F0FB0F40F08681CDF800E0584682
:102850005146E3451F6801D9069CA4442FB34FF0AD
:10286000010E294CC3F800E02768B2402F4001391F
:102870003A4440F0EF8040F8042B80454FF00607C3
:102880003FF66AAF2149097811F0FB0F40F06381F0
:10289000CDF800E05846514684454FF0010E00F057
:1028A000F7801F68002F40F0D780062721E7164CDD
:1028B0004FF0010EC3F800E02768B2402F404C1ED5
:1028C0003A4440F0428140F8042B80454FF0040721
:1028D00000F23F810D480078059110F0FB0F40F0A9
:1028E0003A81CDF800E0584651460A4C202727602F
:1028F0001F68002F92D10527FBE600BF10E000E023
:102900000C7103401011FF1FD0F00F4080200740D2
:1029100084F00F4088F00F404FF0010E954CC3F843
:1029200000E02768B2402F4001393A4440F00B8163
:1029300040F8042B80454FF003073FF60DAF8E495A
:10294000097811F0FB0F40F00681CDF800E0584601
:1029500051464FF0010E019C013C019440F0CB80A8
:10296000D9F83C40049FBC4240F3E280049C01340F
:1029700009EB040709EB440E04941C68019797F8CF
:1029800041700297019F97F845700397BEF84A700F
:102990000197002C3FF440AF4FF0010E754CC3F887
:1029A00000E02768B2402F4001393A447FF428AF55
:1029B00040F8042B804577463FF6CEAE6E49097845
:1029C000CDF800E011F0FB0F40F0C58058465146AD
:1029D00016E7D9F83C70049CA74240F3A980049CF8
:1029E000013409EB040704941C68039797F84170BD
:1029F0000297039F97F845700397002C3FF40CAFA4
:102A00005C4CC3F800E02768B2402F4001393A44DB
:102A10007FF4F6AE40F8042B80454FF001073FF6F7
:102A20009BAE5549097811F0FB0F40F09480029F4E
:102A3000039C17400121A7420091584651467FF45C
:102A4000E7AE019C002CC4D01F68002F7FF464AF58
:102A500003274EE6062782E6464CC3F800E02768C7
:102A6000B2402F4001393A444FF00607F2D140F806
:102A7000042B80453FF670AE3F490978012011F0E4
:102A8000FB0F009067D15846844551467FF409AF4B
:102A90003A4B1B68DB0304D5394A136843F0806363
:102AA0001360364A37491368099C43F002031360E8
:102AB0004FF400130B60D9F818300899D9F8342076
:102AC00000EB8303CBEB030307989B1001FB03038D
:102AD00005992D485B1A0021A3600170934220469E
:102AE0009DF80040047024BF9B1A83600BB0BDE8C2
:102AF000F08F052733E61F68002FA9D01D4CC3F8BF
:102B000000E02768B2402F4001393A444FF00307F4
:102B100019D140F8042B80453FF61EAE16490978BE
:102B2000012011F0FB0F009015D15846514612E7D5
:102B3000D9F818401F68A0EB840C002F7FF4B7AEC3
:102B400005910427D5E5032709E6059104272146C9
:102B500005E6059100E60D4A0D4B2021116000228B
:102B60001A6001236046009392E70527A8F1040C40
:102B700098E500BFD0F00F408020074010E000E053
:102B800004ED00E004E100E01011FF1F88F00F40A9
:102B90001411FF1F2DE9F04FD0F82CB090F8413000
:102BA000466AD0F858C0D0F828A091B01A460893C9
:102BB000436BB3FBFBF30F930BF1FF33DBB20493D7
:102BC0005C1C03680A9390F840300B9390F84530F2
:102BD0000E910993416DB0F84A300191864676080E
:102BE0000393002A00F05F818369DFF8F08201EB34
:102BF0008309CC4540F25981AD4DAE4B2A68002780
:102C000022F002025FFA8BF1069107972A60AA4A26
:102C1000AA49019D4FF4001010604FF001000870A8
:102C20000F99029789000C9104990D913A46384604
:102C300005974FF0FF31D3F800B0BBF1000F18D16A
:102C4000D3F800B0BBF1000F13D193460DE01A6822
:102C500072B91A6862B91A6852B91A6842B91A6820
:102C600032B91A6822B91A6812B91A68002AEED065
:102C70005A464FF0010B924FC3F800B0D7F800B09E
:102C800006EA0B0B8B4500F0DF8039683140002CE1
:102C900040F0C18045F8042BAC4500F2E480894A3D
:102CA000127812F0FB0F40F025810120019D049C59
:102CB00005900A46002C00F0B5800020012C08D1B8
:102CC000D5F800B00A9F37EA0B07029F18BF5F468E
:102CD000029748F0010B5847089F01EA070B099F2C
:102CE0005F45A8D1039F002F40F0DA80079FBB46C5
:102CF000DEF83C70BB4580F2CB80079F01370EEBBE
:102D0000070B07979BF8417008979BF84570099748
:102D100091E7039F013F03978DD1079FB846DEF8E7
:102D20003C70B84580F2B480079F01370EEB07086E
:102D30000EEB470B0797BBF84AB098F8417008971D
:102D400098F8457009970BF1FF37DFF894810397E6
:102D500071E7A9457FF46FAF4D46554B1B68DB0308
:102D600004D5594A136843F080631360504A5749A9
:102D7000136804980E9C43F0020313604FF4001391
:102D80000B60DEF818300299CEF81C100199DEF8BD
:102D9000342009EB83035B1A06999B1001FB0303A4
:102DA0000D9946485B1A0021934201702046A360AA
:102DB00028BF9B1A9DF8144028BF8360A945047062
:102DC0000BD0019BED1AAD1044BF0F9BED18069B75
:102DD00003FB05F31D460E9B5D6011B0BDE8F08F4F
:102DE000A9453FF628AF3A4F4FF02008C7F80080BA
:102DF000DFF8EC801FE7019FB94537D20C9FDFF861
:102E0000E480B94417E7334F4FF02008C7F800803B
:102E1000DFF8D4800FE702FA0AF2013C0A44002CE2
:102E20007FF44BAF45F8042BAC4507D8254A127800
:102E300012F0FB0F67D10122019D0592002048F09E
:102E4000010B0246069C584720B90B9802FA0AF279
:102E50000244013C013236EA02000AD00120002C73
:102E60003FF437AF2AE70A46049C23E7DFF8748073
:102E7000E1E6002CD6D01348007810F0FB003FF4B8
:102E80001DAF144A144B2021116000221A6064E720
:102E9000DEF81870DFF854800D94A5EB8709CAE6B8
:102EA000DFF84C80C7E6DFF84080ACF10409A3E608
:102EB00010E000E00C71034084E100E01011FF1FFE
:102EC000D0F00F408020074004ED00E004E100E076
:102ED00084F00F4088F00F401411FF1FE02D000018
:102EE000D82C0000522D0000F62D0000062E000008
:102EF000122D0000094B0A4A019D202111601C601F
:102F00000123059329E7064A044B019D2021116006
:102F100000221A60012305931FE700BF1411FF1F51
:102F200088F00F4084B02DE9F04F8DB0259C0994B6
:102F300026461F9C029416ACDDF880E0219D9DF88A
:102F400098C084E80F001E9B0B932F9B2B9F9B68C0
:102F50009DF8B9400793002EC0F29C809DF8B830D0
:102F600001930DF1A2030493099B013308930023FD
:102F700003934FF0FF330A936FF006030693029B0F
:102F80000DF1990901226E1E03EA0C0B069B0799AD
:102F9000184659186FEA0C03059322E0A046002C4E
:102FA00041D1CAB1B1FBF5F205FB1213F31A57F880
:102FB00022200EFB03F322FA03F3029A1340019A34
:102FC000002A46D1DDF8048099F8002099F804A081
:102FD00013409A4546D001220130012801F1010138
:102FE00009D0B1F1704FD9D9E4B901300128224696
:102FF00001F10101F5D10499039B02310491089973
:1030000001338B42039309F10109BFD10A9A079951
:103010008A4202D82F9B19468A600DB0BDE8F04F56
:1030200004B070470022B1FBF5F805FB1813F31A42
:1030300057F828800EFB03F328FA03F30BEA030882
:10304000C445C9D0002AC7D0029A4FF001081340E6
:10305000BAE7059A99F804A0134099F800201340A4
:103060009A45B8D1039B099A934217D0C31D0ED03D
:10307000B8F1000F0BD1049B1B880344002B06936F
:103080004FF00102B7DD6FF006030693B3E7069039
:103090000122B0E74FF0FF330A93B7E7073005D0BE
:1030A000B8F1000F02D1049B1B8819440B9B022B23
:1030B00002D00A9101229EE7079B2F9A0A91013BB9
:1030C00093600793012296E784B02DE9F04FA1B0F9
:1030D000379D3F9C19959DF8E85018941795349C9E
:1030E0009DF8E9E0DDF8B8B0319FDDF8CC901A9496
:1030F0002AAD359E369C85E80F009DF809319DF874
:1031000008811693389DBEF1000F40F02281459B47
:10311000B3EB0B0B00F14C81CDF874E0449A002A1C
:103120000CDB05EB0B03013B9B1A48BF199A19995D
:1031300048BF9B18994298BF5B1AED1A05EB0B0725
:10314000199A013FBA4278D8AC42A7EB020715D9C9
:1031500043464FF0010AB0461E46552001F062FE7C
:103160002A2006B9AA20023501F05CFEAC42F4D850
:10317000334646469846BAF1000F66D0199B002F99
:1031800003F1FF3AC0F21A815FFA89F31B93DB4324
:103190001C93179BCDF878A0741E5525DB43AA46D7
:1031A000CDF87CB03D46B346199346461A9FA046DB
:1031B000189C12E0169B002B40F0B180199B03EA8B
:1031C0000E0E5FFA8EF001F02DFE6FEA0A03DBB2FD
:1031D00003F07F0A15F1FF3527D3B5FBFBF00BFB9E
:1031E000105ECEEB080E54F8200007FB0EFE20FA0E
:1031F0000EFE0EEA090E002EDCD1169B5FFA8EF051
:103200001BB1179B034240F097801B9B18401C9BEF
:103210000AEA030E7044C0B201F004FE6FEA0A032A
:1032200015F1FF355FFA83FAD7D25546B046DDF87F
:1032300078A05E46DDF87CB009E0AC4205D9434693
:103240004FF0000AB0461E4687E7BA465525DA45D4
:1032500041DB9DF87470179B3B401993731E4446E5
:10326000DDF868801A97374656469A460FE0002BDD
:1032700036D1179B2EEA030E5FFA8EF001F0D2FDD5
:10328000EA43D5B205F07F05013E5E4523DBB6FB80
:10329000F7F0189B07FB106ECEEB0A0E53F82000D8
:1032A000169B08FB0EFE20FA0EFE0EEA090E002CFD
:1032B000DDD1ABB95FFA8EF05FFA89FC0CEA000E43
:1032C00025EA0C007044C0B2013E01F0ABFDEA43B8
:1032D0005E45D5B2DBDA21B0BDE8F04F04B07047EF
:1032E0005E456DD05CB1179B5FFA8EF00342C5D08E
:1032F000179B2EEA030060F07F00C0B2BEE7179B69
:103300005FFA8EF00342D7D0179B2EEA030060F0DD
:103310007F00C0B201F086FDEA43D5B2B4E7179B47
:103320005FFA8EF018423FF44EAF199B03EA0E008D
:1033300060F07F00C0B246E7199B03EA0E0060F020
:103340007F00C0B201F06EFD6FEA0A035FFA83FAF4
:1033500040E743AB54222EA96846159300F0DAFBF0
:103360002AAB0FCBFFF7DEFD459BB3EB0B0B22D453
:10337000169BD3B1721E38D41A9BDDF868C0DDF8F5
:103380005CA002FB03F100235FFA89F09E4627FA56
:1033900001F303401AEA030F02F1FF3208BF9E4611
:1033A000531CCCEB0101F2D1B6E6169B1D93B5E69A
:1033B000199B9B44B0E6199B9B44D9E7552546E7EA
:1033C0001EF0800F8ED0199B1A988BB1179A1D9BF7
:1033D00023EA020060F07F00C0B201F023FDEA435F
:1033E000D5B2002C7FF44EAF4EE700231D9395E637
:1033F000002C3FF461AF41E7BB4BBC492022F0B544
:103400001A60426B02635300A1FB03135B080021A7
:10341000B3F5762F9DB0044680F8611040F2B3807A
:1034200001230362A168032900F2B680B04D94F82D
:103430006000042608232E702362B2F5F61F00F206
:10344000B880B2F5762F00F22281B2F5F62F00F2A5
:10345000B080B2F5763F00F22181002800F0B580FF
:103460002369934288BF2261082900F2BA800823A9
:10347000B2F5763F236240F2F280236993420CBF9B
:103480004FF476334FF4F63323614FF47632994B91
:103490006263E16B002980F2CF80082100200229BD
:1034A000E06300F0A880042900F0DC80012940F0EE
:1034B000C38020276162A162E7624FF4F6408E4923
:1034C00094F841E0B3FBF7F6084401EB8606A263EB
:1034D0006363A665E0656165BEF1000F00F0BB8027
:1034E0002169521A22611032002084491B90B2FBDC
:1034F000F7F3A3610B68824E8DF8640043F4000378
:103500004FF0FF321A92D4F804E00B6031687D4A24
:103510007D4F2B7821F0020131601060C7F800E088
:103520001168052B41F00101116000F0CE80042BE1
:1035300000F0D080062B00F0EB80002B00F0C08064
:10354000012B00F0EA80022B00F0EC80032B00F04E
:10355000F9806E4D2B6813B994F860307BB11CABC9
:1035600013E9070015AB83E80700542204F11001AA
:10357000684600F0CFFA94E80F00FFF7A5FD00239E
:103580002B601DB0F0BDB3F5F62F4ED9A168022314
:10359000032903627FF64AAF052934D8544D94F8C5
:1035A000600005260823B2F5F61F2E7023627FF611
:1035B00048AF236A042B00F09280082B04BF4FF41D
:1035C0007632626300287FF44BAF6369092994BFA8
:1035D000013302339342236188BF226108297FF6B9
:1035E00046AFE36B216A002B02F12003FFF656AFD2
:1035F00002297FF458AF032010276062A162E762BE
:103600004FF476405BE7082939D994F86000002828
:1036100046D0236A072B43D9302940F29880344D95
:1036200001232B7084F861303FE0B3F5763FCCBFC7
:10363000042308230362F5E6FF21802004270826DF
:1036400061624FF0803184F84000E762A662216039
:103650004FF4763033E7C4F810E0102244E702F16B
:10366000200316E708274FF088300F262060A1625C
:10367000E76284F8407066624FF4F6301FE71C4D35
:1036800094F86000062608232E702362D5E6236A8C
:10369000022B8FD14FF476226263DEE6236A8CE739
:1036A000302944D9124D00232B70B2F5F61F7FF656
:1036B000C8AE236A012BEBD14FF4F6126263CCE65D
:1036C00019A92046FEF7C0FF43E719A92046FDF7D8
:1036D00053F93EE719A92046FDF71EFB39E74FF4E1
:1036E000F6226263B9E600BF88F00F40ABAAAAAA2F
:1036F0001811FF1F20D803002811FF1F3C80044031
:103700000070034008710340007103401411FF1F53
:1037100019A92046FDF7DCF91BE719A92046FFF798
:1037200039FA16E719A9204600F070F811E71829B0
:1037300002D9236A072BB5D9094D022608232E701A
:1037400023627AE619A9204602F00EFB01E7182948
:10375000F2D9034D032601232E7084F86130A4E7CB
:103760001811FF1F2DE9F0439DB00023234E244D77
:1037700007930822089309930A930F9310938DF8E7
:103780004C308DF86C308DF86D308DF84D301293D3
:10379000FF2104231B4C1C4F0B92B146A8460D92EF
:1037A0000C910E9311E033680193019B2A689B1AD8
:1037B000B3F5FA6F07D9D9F8003002932368029A5B
:1037C000C8F80020BBB1FDF773F801F099FA0028A2
:1037D00007DD236863B101F06FFA03A9C0B2FDF7FA
:1037E00045F83B68002BDED003A8FFF705FEDAE7BB
:1037F000FCF750FEEFE7FCF739FEE4E774E902203E
:1038000048E902200C11FF1F1411FF1F00B50246EA
:1038100097B0034692F84120019090F84500059238
:10382000CDF828A060F30F2A0598DFF8D0E20391C5
:103830001A46B3F84A300293504460F3070A0298DC
:10384000536D079300EB1A40936D049380B2936815
:1038500006901293936906990893536BD26A099262
:10386000079ACDF83090CDF82CC0CEF80C2061F33B
:103870001F4ACEF810200999DDF810C0B3FBF1F310
:10388000CEF80830089BCEF80430129BCDF824B057
:10389000182B019B11964FF000006FF3000B88BFAF
:1038A00060F3041BCEF800000646D86B0E9598BF57
:1038B0004BF0100B0D941097914675468D4C8E4F22
:1038C000CDF83C806FF3820B002875D1029B002B52
:1038D00000F08980069B03EB4300059B801060F39A
:1038E0001F4A002B62D0079B089ADFF8208203EB67
:1038F0008203CEF81030814B04991B698B4202D3AE
:103900007E4A0B1F13616FF3410BFCF7FFFF237817
:103910001E46237803EB0626C047237803EB0626D2
:10392000C047237876484A4603EB062342F8043B17
:103930009146E14521461E4607D30378D5F80C9001
:1039400013F0FB0F4BF0010B50D13A68072AFCD85B
:1039500000BF00BF0B781E46C0471BF0020FD8D037
:10396000FCF7EAFF019B2A6998690199EB68496BAA
:10397000DDF828A0DDF82CC0DDF83090109F119EF6
:1039800002EB80020DACD31A94E8300103330398A4
:10399000CBF300028B42DDF824B0836028BF5B1AB2
:1039A000027028BF836017B05DF804FB049BDFF84A
:1039B0006081CEF810309EE701281DD002286DD01E
:1039C00003282ED0002885DD4E4B02930022029B57
:1039D00003EB820101324B8803EB43039B109042BF
:1039E0004B80F4DC76E74BF0040B73E7464B202268
:1039F0001A60FCF763FDB3E7019ACEF8000092F875
:103A0000461092F84230B2F84C2003EB012303EB4E
:103A10000242130C3B4903EB43039B100A604B80AB
:103A200058E70199CEF8000091F8462091F842300D
:103A300091F847101291019991F84310139101994F
:103A400091F84810149103EB0221019BB3F84C202C
:103A50000292139A93F8443015931346129A03EB8B
:103A600002221292159B149A03EB02231393029BDA
:103A700001EB0342234902910199B1F84E302149EB
:103A80008A60129A019902EB0343B1F850201D4954
:103A90004B60139B03EB02420A6097E70199CEF853
:103AA000000091F8462091F8423091F847101291A9
:103AB000019991F84310139103EB0221019AB2F896
:103AC0004C300293B2F84E301493139B1A46129B5B
:103AD00002EB0323029A01EB02421292149A094963
:103AE000029103EB02431393129B4B60139B0B60F9
:103AF0006CE700BFD0F00F40047103405CE9022086
:103B0000802007404CE9022088F00F40BD0AFF1FCB
:103B1000210BFF1F844641EA000313F003036DD11C
:103B2000403A41D351F8043B40F8043B51F8043B80
:103B300040F8043B51F8043B40F8043B51F8043B87
:103B400040F8043B51F8043B40F8043B51F8043B77
:103B500040F8043B51F8043B40F8043B51F8043B67
:103B600040F8043B51F8043B40F8043B51F8043B57
:103B700040F8043B51F8043B40F8043B51F8043B47
:103B800040F8043B51F8043B40F8043B51F8043B37
:103B900040F8043B51F8043B40F8043B51F8043B27
:103BA00040F8043B403ABDD2303211D351F8043BC7
:103BB00040F8043B51F8043B40F8043B51F8043B07
:103BC00040F8043B51F8043B40F8043B103AEDD276
:103BD0000C3205D351F8043B40F8043B043AF9D2C7
:103BE000043208D0D2071CBF11F8013B00F8013B9A
:103BF00001D30B8803806046704700BF082A13D3A7
:103C00008B078DD010F003038AD0C3F10403D21ABE
:103C1000DB071CBF11F8013B00F8013B80D331F8F2
:103C2000023B20F8023B7BE7043AD9D3013A11F872
:103C3000013B00F8013BF9D20B7803704B784370DD
:103C40008B788370604670471C4A02EBC0030129E1
:103C50005B6811D004291BD052F83000002280F894
:103C6000802229B1022920D0032922D01A6070476E
:103C70004FF480721A60704752F830004FF4A2720D
:103C800080F880121A601A6822F020021A607047C9
:103C900052F830104FF4A272012081F880021A60AD
:103CA0001A6842F020021A60704740F203121A604C
:103CB00070474FF481721A60704700BF005B0000CC
:103CC00030B4054B054D064C002210211A602A60C5
:103CD0002060196030BC704714D0034004D003400A
:103CE00000D003403F2801D8FFF7AEBF704700BFA8
:103CF0002DE9F843054672B6204F214B214A1B6837
:103D00003C68126862B6520102D5322B88BF01347A
:103D100095B3C3F5EA331C4EDFF86490DFF8648096
:103D2000BF334FF47A72A6FB031302FB04F404EBD7
:103D3000931472B6D9F800103A68D8F800E062B669
:103D4000C1F5EA33BF33A6FB03031EF0806FC4EB5B
:103D500093134FF47A7002D0322988BF013200FBEE
:103D60000233B3F57A7F04D3013D05D004F57A74AC
:103D7000DFE701F08FF8DCE7BDE8F88374E90220A3
:103D800018E000E004ED00E089888888F8B53E4B33
:103D90003E49DFF818C13E4E3E4ADFF814E13E4D81
:103DA0003E4C3F4F4FF0006018604FF0805018605D
:103DB0004FF0005018604FF0804018604FF0004006
:103DC00018600020086028234EF6FF71CCF8001020
:103DD000CEF8003033600EF5012E13602B602360A7
:103DE00005F500253B6004F50024B36207F50027C4
:103DF000936206F5012602F501220EF1100E05F67A
:103E0000E87504F6E87407F57F67103220362B60FA
:103E10002360CEF800303B6013603360214EBB61FD
:103E2000936109223260A7F5002706F58056203FEE
:103E3000083638603160BB60F36047F8042C06F543
:103E4000FD2607F5FE2706F2FC7604373060396060
:103E5000B360FB6046F8042C0836C7F8FC0F06F682
:103E6000FC76114831602B602360026001F074F829
:103E70001920FFF73DFF00F05FFE40F21310BDE890
:103E8000F840FFF735BF00BF04E100E004800340C5
:103E9000148003401C800340248003402C80034096
:103EA000348003400080034000900B4008800340B2
:103EB0000C800340431E032B14D872B60A4951F8F4
:103EC000230068B170B4094C058834F813204668A3
:103ED00041F82360521B24F8132062B670BC70476F
:103EE00062B6704700207047D0E9022090ED0220B2
:103EF000013803280BD872B6074B53F8203043B172
:103F000000205B680130002BFBD162B670470020B7
:103F100070471846F9E700BF24EA022030B472B6B1
:103F20002B4A13781D0706D52A4B196A002936D06B
:103F3000996A002941D053781C0706D5254B196C86
:103F400000293ED0996C002939D09378190705D5FE
:103F5000204B196E002936D0996E89B1D3781B0792
:103F600007D51C4BD3F880207AB3D3F888201121D1
:103F70003AB162B6184B00221A7030BC00F076BE1F
:103F80000D21154C154D227843F8315003EBC10338
:103F90000830013A5860227062B630BC7047042283
:103FA0000D4C0F4D217843F8325003EBC20308301B
:103FB0004A1E5860227062B6EFE70521E1E7092149
:103FC000DFE70822ECE70C22EAE71022E8E700BF6F
:103FD000005D00000000FF1F4DEA0220C800400005
:103FE00088004000431E032B1DD81B4A400140F0AF
:103FF000100030B4104472B6184CE25C032A1BD88F
:10400000DFE802F00212151703220D88E25410F0C7
:10401000080F14BFC823882343EA0543083103600F
:10402000416062B630BC704708300222EDE70522DD
:10403000EBE708300422E8E7094A52F8230038B1D8
:10404000084A52F82300416042F8231062B6E9E7BB
:1040500042F82310034AF7E70000FF1F5CEA022042
:1040600024EA022034EA02202DE9F04FDFF80CB3F5
:10407000DFF80CA387B044E0AB4F4FEA930807EB9F
:10408000C809013ED9F8042003F00803F6B2A2F1F2
:10409000080003F0FF04002B40F0028157F838308D
:1040A0001B0C99B222F8081C002B00F0F0809F4BEB
:1040B00022F8064C42F8044C53F82620002A00F05F
:1040C000C5829B4D55F8263058609A4C45F826001D
:1040D00034F81630194424F8161000F0A7FD002813
:1040E00000F0AD82944A954B19F0080F00F10800DA
:1040F00018BF1346C9F8040047F8383008238BF876
:1041000000309BF80040E4B261071AD58C4B1B7855
:10411000A3B18C490A7802F0FF0322B1013BDBB264
:104120000B7003B900BE88490A7802F0FF032AB178
:10413000013BDBB20B70002B00F0578204238BF89D
:10414000003004F0080303F0FF02002B00F0CC80E5
:104150009AF80030DBB21E098ED19C08DFF8C891B6
:1041600059F8342009EBC401C2F38302013A4968CB
:104170000C2A00F28880DFE802F07C7C8686868646
:1041800086864786868607000868704D4A68704FA5
:10419000704E286081B240F28160674B6A604FF0D8
:1041A000010E0022814249F834303A60C9F81020EB
:1041B000C9F8182086F800E05B4C00F2E380B1F506
:1041C000D06F80F04683B1F5817F00F0FC8200F271
:1041D0008D82802900F07783822940F0FA82A988B5
:1041E00001F07F01042900F2F4825B485B4C8900F6
:1041F0000844227062700278930740F1588484F872
:1042000000E04FF0020E42E3514F3A6832B3544B94
:10421000504E5449188834780D784028864645F029
:10422000020828BF4FF0400E002C84F001043470C7
:10423000CEEB00000CBF8824C82409EBC80680B26E
:1042400085F0010544EA0E447260188049F8384050
:1042500072440D70002800F045813A603B4B1A888B
:10426000B2F5A06F0FD100219A7859703E4B1A70A9
:1042700009E0364A108842F22102904200F037816C
:104280002D4A49F83420394A0123137036E72A4A67
:104290002A4B19F0080F18BF134647F838302DE79E
:1042A00000F0E4FC324A334952F82630002B00F08B
:1042B000D18158688C5D42F8260003F10802C9F8E4
:1042C0000420032C05D8DFE804F02C022926022262
:1042D0008A551A8819F0080F0CBF8823C82343EAAF
:1042E000024347F8383009E7E00700F181812106F1
:1042F00000F1F281A20706D51F4A20491378022057
:10430000DBB213700870E30602D51C4B10221A7042
:1043100007B0BDE8F08F04228A55DAE705228A55F6
:10432000D7E703228A55D4E70000FF1FD0E9022017
:104330007CE9022090ED0220C80040008800400087
:1043400058EA0220E1E9022060EA022044EA022061
:1043500078E90220E0E90220C020074050EA02206C
:104360008CE902204CEA0220982007409420074064
:1043700024EA02205CEA02208820074080200740CF
:104380009020074042F22100814200F02A8100F291
:10439000D880B1F5086F00F07682B1F5106F40F06B
:1043A0001882226AB349A8780870120600F13A838D
:1043B000D9F82820B049130600F10C83D9F8302031
:1043C000AD49150600F10183D9F83820AA49140631
:1043D00000F1F682D9F84020A749100600F14A837F
:1043E000D9F84820A449120600F13F83D9F850209B
:1043F000A149130600F13483D9F858209E491506C7
:1044000000F12983D9F860209B49140600F11E832E
:10441000D9F868209849100600F11383D9F8702064
:104420009549120600F10883D9F8782092491306BD
:1044300000F1FD82D9F880208F49150600F1318303
:10444000D9F888208C49140600F12583D9F89020EA
:104450008949100600F11983D9F898208649120677
:1044600000F10D838548864A864901908648874D2C
:10447000874C049700230596029580460F46164602
:104480001D460394306828B1446800F0EFFB2046D5
:10449000002CF9D100233360029B38681A460023B0
:1044A00042F8253028B1446800F0E0FB2046002C9B
:1044B000F9D100223A60019A98F8003011460022A2
:1044C00041F8042B039A0191023B4FF0000122F8BE
:1044D0001510032B00F22B81DFE813F0700125018A
:1044E00070012501BEF1400F18BF0022B5E6694AF0
:1044F0000D784878157050708D78C8789570D070A8
:1045000010680D79157186284D79897955719171E9
:1045100000F09B816049614E0A78307882F0010595
:10452000002842F002020D700CBF8821C82149F812
:10453000321009EBC20280F001000021307051609E
:104540009EE642F22120814240F0CB81544B554CF3
:104550005549A8781D682560CDF804E00870002052
:1045600002908046844604464B490D7845F0020E81
:1045700009EBCE030393019B002B039B5C600CBFF4
:104580008824C82444EA080385F0010449F83E3031
:1045900032700C70DFF8E0E0404BDFF8FC80002860
:1045A00040F01E81BCF1400F1BD144F0020C09EB1E
:1045B000CC03029CDFF8C0E05C60002A40F026815A
:1045C000020442F088029DF804304EF83C20044476
:1045D00033700D702346402803D10020334A3B60DE
:1045E0001080334A012313704DE600F027FCA5E547
:1045F000214B2F4828491A614FF0020E80F800E045
:104600002C4F0A702C49196099602C4E2C4D2D4C62
:104610009A610D213970FF213170DFF8B8E02970FF
:104620002270294D294A8EF800109F27012406F890
:10463000047C5D600470DA6007B0BDE8F08F244A46
:1046400047F8380013780133137057E543F8260014
:104650000E4D3AE58B5D032B00F2F08001A252F87B
:1046600023F000BFFD400000FD4000002147000096
:104670001B47000058EA02200000FF1F34EA022016
:10468000D0E9022024EA02205CEA02207CE9022030
:1046900090ED022098ED02204CEA0220E0E9022091
:1046A00074E90220A0ED022070EA02208CE90220C9
:1046B00094200740C0200740880040008820074021
:1046C000802007409820074090E90220E4E902207A
:1046D0004DEA02208C200740C149C24B80220D20A8
:1046E00008701A70A2077FF50EAE05E640F202329E
:1046F000914240F0EE80A98801F07F01042968D83A
:104700006A88002A65D1B648CDF804E089000844DB
:10471000017841F00201017021E701238B55EDE49E
:1047200000238B55EAE44FF0010388F8003001358F
:10473000042D06F1040607F1040708F101087FF4CF
:10474000A1AEA94CA94B2278A94D049F059E00213A
:1047500029701A70130700F105816278A549DFF806
:10476000A0820A7010074FF00001C9F83010C9F894
:10477000381000F1E080A049A2780A700021C9F841
:104780005010C9F858101107DFF8748200F1018148
:10479000E2789A499A4C0A7000211207C9F8701001
:1047A000C9F8781000F1B08033780193002183F0CC
:1047B0000102C9F89010C9F89810D0E64FF0000334
:1047C00088F80030B3E7A98801F07F01042940F29E
:1047D0008D80834A0F2313708A4A0123137052E598
:1047E00040287FF6E2AE44F002040EEBC401029EC4
:1047F0004E60BAB19DF80410834A197033464038B0
:1048000088F8005040334EF83420E7E69DF8043035
:1048100033700204029B0D7042F0C80203444EF84C
:104820003C20D8E69DF804101970029B774A88F85E
:104830000050403840334EF83420CFE619F0080FCE
:104840000CBF022303238B5558E4714A0F211170CA
:1048500060E6704A5468002CBBD06888B5F804E064
:1048600003E00C325468002CB3D013888342F8D193
:1048700053887345F5D1000A03280CBF94F800E073
:10488000B2F808E003E0644A644C12782270E888C9
:10489000704580F03F8162490D784028844645F09C
:1048A000020E28BF4FF0400C04EB0C0309EBCE02C4
:1048B000029301235460CCEB00004FEA0C48002225
:1048C0000193C8245EE6554C4FF0020E22706270D0
:1048D000DDE7B1F5A06F7FF47CAF012300220193E7
:1048E0003DE642F221329142F7D072E76A88002A0F
:1048F0007FF46FAF3A48CDF804E0890008440178AE
:1049000021F0020101702AE600F090F9002800F081
:10491000EF8008303D4AC4F88400C4F8802000F0DD
:1049200085F9002800F0DE800830374AC9F88C008D
:10493000C9F8882038E700F079F9002800F0C08035
:104940000830324AC8F84400C8F8402000F06EF938
:10495000002800F0AF8008302B4AC9F84C00C9F895
:10496000482008E700F062F9002800F0CD80083008
:10497000264AC9F82400C9F8202000F057F9002879
:1049800000F0BC800830204AC9F82C00C9F8282063
:10499000E3E600F04BF9002800F09E8008301B4A47
:1049A000C8F86400C8F8602000F040F9002800F062
:1049B0008D800830144AC9F86C00C9F86820E7E611
:1049C000C86B083800F052F904E5486B083800F06D
:1049D0004DF9F9E4C86A083800F048F9EEE400BF80
:1049E000C020074080200740005D0000C420074031
:1049F0004DEA0220C8200740CC200740D0200740C5
:104A00000000FF1F94200740C800400088004000BD
:104A1000E1E90220045D000058EA022050EA022089
:104A20004CEA0220606A083800F020F9C0E4C86F40
:104A3000083800F01BF9FDE4486F083800F016F95B
:104A4000F2E4C86E083800F011F9E7E4486E08385F
:104A500000F00CF9DCE4C86D083800F007F9D1E487
:104A6000486D083800F002F9C6E4C86C083800F058
:104A7000FDF8BBE4486C083800F0F8F8B0E4D1F871
:104A80009C00083800F0F2F8ECE4D1F89400083803
:104A900000F0ECF8E0E4D1F88C00083800F0E6F81B
:104AA000D4E4D1F88400083800F0E0F8C8E44FF00E
:104AB000020EECE62A78C9F8480001322A705AE65C
:104AC0002A78C8F8400001322A703FE72A78C9F8EE
:104AD000680001322A705BE62A78C8F8600001326B
:104AE0002A7061E72A78C9F8880001322A705BE6EB
:104AF0002A78C4F8800001322A7010E72A78C9F8B1
:104B0000280001322A7028E62A78C9F820000132EC
:104B10002A7032E7BEF1400FF44628BF4FF0400C38
:104B200004EB0C0302930123CCEB0E004FEA0C487C
:104B30000022019318E500BF2DE9F04100F0C8FD07
:104B40002F4C304B3048DFF8D880304F304D314E4D
:104B5000DFF8D0C0DFF8D0E000221A605A609A6017
:104B6000DA601A615A619A61DA611A625A629A626B
:104B7000DA621A635A639A63DA631A645A649A644B
:104B8000DA641A655A659A65DA651A665A669A662B
:104B9000DA661A675A679A67DA67C3F8802021686D
:104BA000C3F8842041F480212160016841F0407104
:104BB0000160C3F3072188F8001004F52834C3F31B
:104BC00007411B0E3970CC342B7000F12040FF23BD
:104BD0008CF80030104D8EF8003000F60410337061
:104BE0000E49012308F8083C702622704FF4001487
:104BF000102207F82C3C2E7004600A70BDE8F0818A
:104C0000348004400000FF1F00D80040B02007405F
:104C1000B42007401020074035E400E00821074099
:104C20009C200740802007408820074072B60D482E
:104C30000268B2FA82F30B2B10DC4FF00041D9402E
:104C400022EA0102026062B6074803EBC303DB00FD
:104C5000C2180021C15010465160704762B6002052
:104C6000704700BF1C0CFF1F9803FF1F0D4B0E4A1F
:104C7000C31AA2FB03231B090B2B0CD80B4A127877
:104C800052B972B60A484FF00041026821FA03F3A4
:104C90001A43026062B67047064A1278002AF0D0C2
:104CA000FFF73CB99803FF1F398EE3384DEA022025
:104CB0001C0CFF1F58EA022038B50F4D286878B148
:104CC00043880288C118013393420C7A02D2438090
:104CD000204638BDFFF7CAFF002320462B6038BDB1
:104CE000064B1B782BB10320FFF7E4F8286000285F
:104CF000E6D14FF0FF3038BD6CEA022058EA0220BE
:104D0000044B054A1B6890881BB11A885B88D31A2C
:104D1000184470476CEA022090ED02202DE9F04F14
:104D2000DFF8F89083B0012289F80020019169B37F
:104D3000DFF8EC80364F019E8346D8F80000B0B310
:104D4000344D4488C4F14001B14228BF314604EBE0
:104D5000010E00221FFA8EFE2A70761AA0F802E0D9
:104D600000F1080251B1013C224459441BF8014BA7
:104D700002F8014F8B45F9D1B0F802E0BEF13F0FC8
:104D80000BD8254A05211170002ED6D10198002399
:104D900089F8003003B0BDE8F08F40220280014660
:104DA0000420FFF71FF90022C8F80020E9E73A784D
:104DB0002AB3184D4DF2E9044FF0010A07E0013C17
:104DC00016D02A78A2B900F065F83A78BAB1042072
:104DD000FFF78EF80728F2D889F800A0FFF726FF22
:104DE000C8F800000028ACD10C4B013C1870E8D189
:104DF00001234FF0FF302B7003B0BDE8F08F00238C
:104E00004FF0FF3089F8003003B0BDE8F08F00BFED
:104E100058EA022068EA022060EA022061EA0220E1
:104E200064EA022000B583B002AB012103F8010D52
:104E30001846FFF773FF03B05DF804FB38B50E4B5F
:104E40001B7873B90D4C216861B103F0FF054B88E5
:104E50000B800420FFF7C6F8256038BD084B0122FF
:104E60001A7038BDFFF7E2FE0028F7D00146BDE812
:104E700038400420FFF7B6B861EA022064EA022055
:104E800060EA022008B5FBF7BDFCFEF76BFC00F002
:104E900001F8FAE738B52C4C237803B138BD01236B
:104EA0002370FFF72DFF002842D100F0F5F800280D
:104EB0003BD100F087F9002834D100F019FA70BB1B
:104EC00000F092FA40BB00F00BFB10BB00F084FB3B
:104ED000E0B900232370EFF30583002BDED1EFF35D
:104EE000108172B6194B186828B3194C227812BB7E
:104EF00045691D60012323700DB3AA6101B962B633
:104F000000254577836898472570C7E700F022FDA4
:104F1000DFE700F01DFDD9E700F018FDD3E700F052
:104F200013FDCDE700F00EFDC7E700F009FDC0E777
:104F300000F012FDB9E70029B0D162B638BD054BCB
:104F40001D600029DCD1DAE771EA022084ED02203D
:104F500088ED022080ED022030B42948294A2A4BEE
:104F60002A4D6024E121047011701B78284C082B15
:104F700030D00A2B2748284937D00C2B0CBF3522BC
:104F80005D2212232A60236002600B60234B2449B8
:104F90001B78244ABBB101230B601360224B2349C9
:104FA0001B78234A012B26D9042B0FD9082B1ED995
:104FB000102B94BF862387230B6013601D4B0122A7
:104FC0001A7030BC70470B601360E7E784230B60F6
:104FD0001360F3E700F58E200F49083021221323D8
:104FE0002A60236002600B60D0E73922F7E785234F
:104FF0000B601360E2E780230B601360DEE700BF05
:105000000040074001400740200CFF1F08B003404C
:105010000CB0034008B00B400CB00B4073EA022008
:1050200020B0034020B00B40210CFF1F24B00340F0
:1050300024B00B4072EA022008B5104C08E0236847
:1050400059050DD423681A050FD42368DB0411D445
:1050500023685803F3D5FFF707F823685905F1D5FE
:1050600000F02AF823681A05EFD500F0BBF8236892
:10507000DB04EDD500F04CF9EAE700BF34800440D2
:1050800008B5FFF7D9FF00BF014B10221A80704707
:1050900000200540704700BF054A064B10781B787A
:1050A000C0B2DBB2984238BF4030C01A704700BF70
:1050B00078EA022079EA0220F0B4384B1A7912F02B
:1050C000300F2CD072B6997D01F0FF0200293DD03F
:1050D00062B6334F334938780D78334E1C46C0B230
:1050E000EDB2431C402BE17928BF0023AB4202F113
:1050F000FF32C9B21CBFF154184612F0FF02F0D1C2
:105100002A4B1B68C2B23A704BB1A84236BFC5F1F8
:105110004005401B40192728C4BF01221A701F49AF
:10512000CA78D2B2150616D452060DD51B4B1B7980
:105130005B0609D51E4B1F491B6800220A7003B18C
:105140001A70164B3C22DA70F0BC70474022D979B5
:105150005A7462B6E3E70B791C06E5D5164B174E79
:105160001C783378E4B2DBB29C420ED0144D01E0DF
:10517000A3420AD00133402B28BF00230879E85C02
:10518000C0B2C871087D0728F2D9DBB20349337079
:105190000B79180644BF7C23CB70C5E700A00640FE
:1051A00078EA022079EA0220BCEA022074EA0220AE
:1051B00000EB0220FCEA022004EB0220FDEA0220C0
:1051C0007CEA0220054A064B10781B78C0B2DBB29D
:1051D000984238BF4030C01A704700BF78EB0220B9
:1051E0000DEB0220F0B4384B1A7912F0300F2CD0AE
:1051F00072B6997D01F0FF0200293DD062B6334FAF
:10520000334938780D78334E1C46C0B2EDB2431C9A
:10521000402BE17928BF0023AB4202F1FF32C9B233
:105220001CBFF154184612F0FF02F0D12A4B1B6844
:10523000C2B23A704BB1A84236BFC5F14005401B1F
:1052400040192728C4BF01221A701F49CA78D2B258
:10525000150616D452060DD51B4B1B795B0609D5D6
:105260001E4B1F491B6800220A7003B11A70164BAF
:105270003C22DA70F0BC70474022D9795A7462B689
:10528000E3E70B791C06E5D5164B174E1C783378EF
:10529000E4B2DBB29C420ED0144D01E0A3420AD02E
:1052A0000133282B28BF00230879E85CC0B2C871FD
:1052B000087D0728F2D9DBB2034933700B79180651
:1052C00044BF7C23CB70C5E700B0064078EB0220DA
:1052D0000DEB022038EB022008EB02207CEB0220D1
:1052E0000CEB022080EB022079EB022010EB022075
:1052F000054A064B10781B78C0B2DBB2984238BF23
:105300004030C01A704700BF88EB022089EB0220B2
:1053100030B42B4B1A7994061FD52A48DA790378D2
:10532000294901333F2B0978C8BF00238B42D2B2F1
:1053300003D0264CD9B2E2540170254A116861B1FC
:10534000244A1278D2B2934236BFC2F140029B1A6D
:105350009B18272BC4BF01230B70194AD378DBB2EB
:10536000180611D45A060DD5154B1B795B0609D5C5
:10537000194B1A491B6800220A7003B11A70104BAE
:105380002C22DA7030BC704711790906EAD514492D
:1053900010480C780178C9B28C420DD04A1C272ADB
:1053A00084BF00210A460F4D054C98BFD1B2AA5CBC
:1053B000D2B2E2710170D5E76C21D170D2E700BFA3
:1053C00000C0064088EB022089EB0220B4EB0220EB
:1053D00084EB0220F5EB0220F8EB0220F4EB022034
:1053E000FCEB02208CEB0220054A064B10781B7860
:1053F000C0B2DBB2984238BF4030C01A704700BF1D
:1054000004EC022005EC022030B42B4B1A799406F0
:105410001FD52A48DA790378294901333F2B0978C7
:10542000C8BF00238B42D2B203D0264CD9B2E2547B
:105430000170254A116861B1244A1278D2B29342B0
:1054400036BFC2F140029B1A9B18272BC4BF012311
:105450000B70194AD378DBB2180611D45A060DD551
:10546000154B1B795B0609D5194B1A491B6800229D
:105470000A7003B11A70104B2C22DA7030BC7047DE
:1054800011790906EAD5144910480C780178C9B297
:105490008C420DD04A1C272A84BF00210A460F4D9A
:1054A000054C98BFD1B2AA5CD2B2E2710170D5E7C7
:1054B0006C21D170D2E700BF00D0064004EC02207E
:1054C00005EC022030EC022000EC022071EC0220FE
:1054D00074EC022070EC022078EC022008EC022030
:1054E000054A064B10781B78C0B2DBB2984238BF31
:1054F0004030C01A704700BF80EC022081EC0220CF
:1055000030B42B4B1A7994061FD52A48DA790378E0
:10551000294901333F2B0978C8BF00238B42D2B2FF
:1055200003D0264CD9B2E2540170254A116861B10A
:10553000244A1278D2B2934236BFC2F140029B1A7B
:105540009B18272BC4BF01230B70194AD378DBB2F9
:10555000180611D45A060DD5154B1B795B0609D5D3
:10556000194B1A491B6800220A7003B11A70104BBC
:105570002C22DA7030BC704711790906EAD514493B
:1055800010480C780178C9B28C420DD04A1C272AE9
:1055900084BF00210A460F4D054C98BFD1B2AA5CCA
:1055A000D2B2E2710170D5E76C21D170D2E700BFB1
:1055B00000A00E4080EC022081EC0220ACEC022026
:1055C0007CEC0220EDEC0220F0EC0220ECEC02205E
:1055D000F4EC022084EC0220054A064B10781B787C
:1055E000C0B2DBB2984238BF4030C01A704700BF2B
:1055F000FCEC0220FDEC022030B42B4B1A7994060F
:105600001FD52A48DA790378294901333F2B0978D5
:10561000C8BF00238B42D2B203D0264CD9B2E25489
:105620000170254A116861B1244A1278D2B29342BE
:1056300036BFC2F140029B1A9B18272BC4BF01231F
:105640000B70194AD378DBB2180611D45A060DD55F
:10565000154B1B795B0609D5194B1A491B680022AB
:105660000A7003B11A70104B2C22DA7030BC7047EC
:1056700011790906EAD5144910480C780178C9B2A5
:105680008C420DD04A1C272A84BF00210A460F4DA8
:10569000054C98BFD1B2AA5CD2B2E2710170D5E7D5
:1056A0006C21D170D2E700BF00B00E40FCEC0220AC
:1056B000FDEC022028ED0220F8EC022069ED02202A
:1056C0006CED022068ED022070ED022000ED02205A
:1056D00072B6184A184B19491160702280211A704D
:1056E0001A46197013781B06FCD510B5144B84B0FC
:1056F000186862B6134B144C984298BF00EB8000B8
:1057000001A998BF40000A2200F028F901A920460B
:10571000002311F8012B01333AB10A2B20F8022F94
:10572000F7D11623237004B010BD5B00DBB22370E9
:1057300004B010BD04000240000002400000074118
:105740000C0002407F969800B00CFF1F10B4EFF3DE
:10575000108272B6437F33B9017F012908D0032933
:1057600010D00123437702B962B65DF8044B70474D
:10577000114C2168A1B1114943610B688361086034
:105780005861EEE70E4C216881B10E4943610B6808
:105790008361086058610C4B4FF080511960E0E75D
:1057A000064B4161816120601860DAE7054B416179
:1057B000816120601860EEE784ED022080ED022018
:1057C00074ED022078ED022004ED00E010B4047FB7
:1057D0004160022CC26003D05DF8044BFFF7B6BFF6
:1057E00083685DF8044B184770B5EFF3108272B60A
:1057F0000C4C206880B10C4E00254369236073B1C6
:105800009D6102B962B6457783689847EFF31082CD
:1058100072B620680028F0D102B962B670BD33605C
:10582000EFE700BF74ED022078ED0220FFF7DCBF48
:10583000184A30B41468002C27D0036821688B42C2
:105840000ED2CB1A00218460C1602360E06010603A
:105850000223037530BC704711688B42144608D38D
:10586000A2685B1A0360002AF6D18260C460A0605F
:10587000EEE7D268C2608460E060C568CB1A02229D
:10588000A8602360027530BC70478460C4601060FB
:10589000DEE700BF7CED0220F8B5224E34682CB361
:1058A0002368002B3AD1204F1D4604E03468ECB148
:1058B0002368002B32D1A36803B1DD602069336017
:1058C000036825751B68BB4221D1037F4560022B0D
:1058D000C46020D0FFF73AFF6368002BE6D0236056
:1058E0002046FFF7A5FF3468002CE1D1EFF31083C9
:1058F00072B60E4A00211068116003B962B628B171
:105900008468FFF795FF20460028F9D1F8BD2246AC
:1059100000219847E0E783689847DDE7013B236073
:10592000E4E700BF7CED0220CD5700008CED0220A3
:10593000024A136801331360FFF7AEBF74E9022017
:10594000704700BF704700BF704700BF704700BF7F
:10595000704700BF704700BF704700BFF0B44D1ED6
:105960002E46002400E00134B0FBF2F302FB1300EA
:10597000092800F130078ABF3730F8B2C0B206F804
:10598000010F1846002BEED10A1953704CB1107854
:1059900015F8016F28700133E01A834202F801699B
:1059A000F5DB0846F0BC704770B50F4E0F4D761B07
:1059B000B61018BF002405D0013455F8043B9847B1
:1059C000A642F9D10A4E0B4D761B00F0C7F9B6106E
:1059D00018BF002406D0013455F8043B9847A6426E
:1059E000F9D170BD70BD00BF705D0000705D00003A
:1059F000785D0000705D0000024B13B1024800F0BA
:105A000005B8704700000000195A00000023014645
:105A10001A46184600F014B838B5074D074C2C1B31
:105A2000A41005D0013C55F8043D9847002CF9D14D
:105A3000BDE8384000F0A0B9000000000000000000
:105A40002DE9F047254C2568D5F84841064688469B
:105A500092469946C4B360681F2817DC431C76B190
:105A600004EB80050122C5F888A0D4F88811824093
:105A70001143022EC4F88811C5F808911ED00230D7
:105A8000636044F820800020BDE8F087144B03B326
:105A90004FF4C870AFF300800446D0B1D5F8483158
:105AA000002780E88800C5F8484138460123C4F83B
:105AB0008871C4F88C71002EE1D0D1E7D4F88C1134
:105AC0000A43C4F88C21DAE705F5A674C5F8484105
:105AD000C1E74FF0FF30BDE8F08700BF585D000020
