:1000000000800020BD010000D52C00008D2C0000D8
:100010008D2C00008D2C00008D2C00008D2C0000FC
:100020008D2C00008D2C00008D2C0000D52C0000A4
:10003000D52C00008D2C00009D310000A132000065
:10004000D52C0000D52C0000D52C0000D52C0000AC
:10005000D52C0000D52C0000D52C0000D52C00009C
:10006000D52C0000D52C0000D52C0000D52C00008C
:10007000D52C0000D52C0000D52C0000D52C00007C
:10008000D52C0000D52C0000D52C0000D52C00006C
:10009000D52C0000D52C0000D52C0000D52C00005C
:1000A000D52C0000D52C0000D52C0000D52C00004C
:1000B000D52C0000D52C0000D52C0000D52C00003C
:1000C000D52C0000D52C0000D52C0000D52C00002C
:1000D000D52C0000D52C0000D52C0000D52C00001C
:1000E000D52C0000D52C0000D52C0000D52C00000C
:1000F000D52C00000D2D0000D52C0000392E00005D
:10010000D52C0000652F0000D52C0000D52C000058
:10011000D52C0000D52C0000D52C0000D52C0000DB
:10012000D52C0000D52C0000D52C0000D52C0000CB
:10013000D52C0000D52C0000D52C0000D52C0000BB
:10014000D52C0000D52C0000D52C0000D52C0000AB
:10015000D52C0000D52C0000D52C0000D52C00009B
:10016000D52C0000991F0000D52C0000D52C0000D4
:10017000D52C0000D52C0000D52C0000D52C00007B
:10018000D52C0000D52C0000D52C0000D52C00006B
:10019000D52C0000D52C0000D52C0000D52C00005B
:1001A000D52C0000D52C0000D52C0000D52C00004B
:1001B000D52C0000D52C0000D52C0000564B4CF25D
:1001C000205210B51A804DF628121A8000BF00BFC9
:1001D00002F084FD514B4FF010621A60504A9A6051
:1001E000504ADA60504A136813F4807304D14F49BF
:1001F0000B604FF4A85313604D4B1A78110703D5C9
:100200001A7842F008021A704A4B4B492A221A7097
:100210004A4A4B4B8B4204D252F8040F43F8040B6A
:10022000F8E7484B484900228B4202D243F8042B9E
:10023000FAE74649464A002352F8230041F82300D2
:1002400001336F2BF8D1434B434A802103F8011B44
:100250009342FBD1414B3D4A1A60414B8A221A70AE
:10026000A3F5805324225A70A0221A709A7992071B
:10027000FCD59A79D406FCD43A4A937903F00C035E
:10028000082B384BF9D103221A7140225A719A79FE
:100290009006FCD5334A9179324B4906FBD5324A58
:1002A000324911600221516020221A709A7902F0BD
:1002B0000C020C2AFAD12E4B2E4A1A602E4B2F4AD2
:1002C0001A6000225A60072243F8042C2C4AC3F813
:1002D0000C2D62B601F038FD144B1B68DA0705D50A
:1002E000284801F0CBFC284B284A1A60284B1B7881
:1002F0005B0609D5244C254B22689A4204D121483B
:1003000001F0BCFC0023236003F000F802F0ECFCD9
:1003100002F0F6FBFEE700BF0E20054030800440EF
:10032000823F04000100002B10D0034014D0034092
:1003300002D0074000E00740F88BFF1FE0350000C7
:100340002087FF1FF88BFF1F047700200082FF1F0C
:100350000000000000E400E05FE400E008ED00E0E1
:100360000050064000400640448004400000030165
:1003700004800440C010050014E000E0FF76010096
:100380000000202029B96C5B1CE00340A5C3945AEF
:1003900000F00740FFFFFFFFFFFFFFFFFFFFFFFF32
:1003A000FFFFFFFFFFFFFFFFFFFFFFFFFFFFFFFF5D
:1003B000FFFFFFFFFFFFFFFFFFFFFFFFFFFFFFFF4D
:1003C000FFFFFFFFFFFFFFFFFFFFFFFFFFFFFFFF3D
:1003D000FFFFFFFFFFFFFFFFFFFFFFFFFFFFFFFF2D
:1003E000FFFFFFFFFFFFFFFFFFFFFFFFFFFFFFFF1D
:1003F000FFFFFFFFFFFFFFFFFFFFFFFFFFFFFFFF0D
:10040000FFFFFFFFFFFFFFFFFFFFFFFFDEF9FFFF23
:1004100010B5054C237833B9044B13B10448AFF33E
:1004200000800123237010BDF88BFF1F0000000027
:10043000E4350000084B10B51BB108490848AFF37C
:1004400000800848036803B910BD074B002BFBD0A0
:10045000BDE81040184700BF00000000FC8BFF1FE4
:10046000E4350000F88BFF1F00000000064B074832
:100470001B68074A82B020210193019B96330360D9
:10048000116002B0704700BF48740020248CFF1F29
:1004900084F00F40064B07481B68074A82B02021B2
:1004A0000193019B0A330360116002B0704700BFE3
:1004B00048740020248CFF1F84F00F40F8B5722888
:1004C0003BD8DFE800F0575B623A683A3A3A3A3A8A
:1004D000433A3A433A3A3A433A433A3A3A3A3A3A58
:1004E0003A3A3A3A3A3A3A3A3A3A3A3A3A3A3A3A6C
:1004F0003A3A3A3A3A3A3A4368623A433A3A3A3AF4
:100500003A3A3A3A3A3A3A3A3A3A3A3A3A3A3A3A4B
:100510003A3A3A3A3A3A3A3A3A3A3A3A3A3A3A3A3B
:100520003A3A3A3A3A3A3A3A3A3A3A3A3A3A3A3A2B
:100530003A3A3A3A3A3A3A3A4400384B384A18701A
:100540000424002001215C7198711170F8BD354BB5
:10055000CB603548354A4FF400634B630B6300278B
:1005600007261025202401230F614E608D60046052
:100570001360F8BD2D4B00221A60F8BD2A492B4BA1
:100580002020012208601A60F8BD04212848BDE837
:10059000F84002F001BA012002F082FA0821254851
:1005A00002F0FAF9002002F07BFA022002F078FA59
:1005B0000321214802F0F0F9002002F071FA212015
:1005C00002F06EFA002002F06BFA002002F068FAE6
:1005D000102002F065FA002002F062FA232002F0F7
:1005E0005FFA002002F05CFA0F2002F059FA422074
:1005F00002F056FA402002F053FA402002F050FA7E
:10060000082002F04DFA412002F04AFA022002F0DE
:1006100047FA0020BDE8F84002F042BA288CFF1FDC
:10062000218CFF1F808D5B0084F00F401C8CFF1F0E
:1006300048340000503400005C3400007B4A1378DA
:10064000803B4E2B50D8DFE813F05F00D200CC0087
:10065000E400A6004F004F004F004F004F004F0036
:100660004F004F004F004F004F004F004F004F0012
:100670004F004F004F004F004F004F004F004F0002
:100680004F004F004F004F004F004F004F004F00F2
:100690004F004F004F004F004F004F004F004F00E2
:1006A0004F004F004F004F004F004F004F004F00D2
:1006B0004F004F004F004F004F004F004F004F00C2
:1006C0004F004F004F004F004F00B200B600BD007A
:1006D0004F007000740078004F0087008B008F007F
:1006E0004F009E00A2005000704790785378127916
:1006F00003EB0023A1F85030130715D5CB6B013362
:1007000012D10323CB63704710B453885278484CFE
:10071000484842EA03234B600133B0FBF3F3CB605C
:10072000B4FBF3F310BC8B607047537881F8423010
:100730007047537881F84630704790785378127933
:1007400003EB00231007A1F84C30EDD5CB6B013340
:10075000EAD10123CB637047537881F84330704767
:10076000537881F84730704790785378127903EBCB
:1007700000231207A1F84E30D6D5CB6B0133D3D16D
:100780000223CB637047537881F844307047537825
:1007900081F848307047B2F803009378527843EA02
:1007A000002342EA032301339B004B6370475378D5
:1007B00081F841307047537881F845304FF0FF336E
:1007C000CB63704790785378127903EB0023A1F83C
:1007D0004A301307A8D5CB6B0133A5D10023CB63D7
:1007E0007047937803F0010381F85C307047B2F8EA
:1007F0000130B2F8032001339B0001329200B3F5BF
:10080000503F4B630A614A618ED14FF4E8234B633A
:100810007047B2F803009378527843EA002342EA23
:10082000032301339B000B614B617047288CFF1F32
:1008300000D8B805006CDC0210B5064B20241C6003
:10084000962001F033FA044B64201C60BDE8104090
:1008500001F02CBA84F00F4088F00F4008B5002159
:10086000022001F01DFA00210E2001F019FA0021EA
:10087000072001F015FA0021082001F011FA0021EB
:10088000062001F00DFA0021142001F009FA0021E0
:10089000152001F005FA0021052001F001FA0121DF
:1008A0000D2001F0FDF9FFF7C7FF034A034B044990
:1008B000116000221A6008BD2087FF1F1C8CFF1FDB
:1008C000006CDC0238B50E4C2378ABB1012B04D0A0
:1008D000FFF7B2FF0023237038BD02460948837931
:1008E00045790133DBB29D428371C254F4D1FFF7E5
:1008F000A5FE0023237038BDBDE83840FFF7DEBDFC
:10090000218CFF1F288CFF1F10B412490B6885B083
:10091000E3B1114802680192019A934216D20F4B3B
:100920000F4A20241C6003680293029B00200F33AF
:10093000136008603BB10849096803910399994223
:1009400084BF0023136005B010BC7047044A1368CD
:10095000F0E700BF248CFF1F4874002088F00F4090
:10096000148CFF1F494B826DDFF840C12DE9F04F19
:10097000DFF828E1476D464EDFF83491454C0125FC
:100980004FF020080561C3F80080DEF800304FF416
:10099000007823F00203CEF8003083B0C6F8008060
:1009A00090F845A08DF803A00023924601948CF89E
:1009B00000503D46834690F8416088464F462A469F
:1009C000184619465446019D9DF80390002E0DD0FF
:1009D0003B782B7813F0FB0F25D119463B7803EABF
:1009E00006004845F5D103EB012103E039783B7857
:1009F000090219443B78090219443B78090201EBCA
:100A00000300397842F8040B3B7803EB01213B7873
:100A100003EB01213B7803EB0120A24242F8040BD7
:100A20003978E4DB01E04FF001055FFA89F38BF8D8
:100A300041608BF84530DEF800308DF80390DB0321
:100A40000195CBF8584004D5134A136843F08063EE
:100A50001360124A1248136843F002031360019BAB
:100A60004FF400750021012B05608CF8001004D1B3
:100A70000C4A0D4B2020106019600A4B01212022E6
:100A8000C8F808101A6003B0BDE8F08F84F00F407A
:100A900088E100E08020074004ED00E010E000E085
:100AA00008E100E088F00F401C8CFF1F188CFF1F2E
:100AB000D0F00F402DE9F04FC26A8369D0F854801E
:100AC000846D87B00133039111460592013990F886
:100AD00041208446C8EB04055803C9B200EB9525B4
:100AE0000491002A00F0D9809B00764A043B202123
:100AF00043441160DFF8E4917349D9F8002073484A
:100B0000734E22F002024FF40077C9F800200F6004
:100B10009CF8457002932B466E4D8DF807700022AD
:100B2000A3460121297037460546114610465E4608
:100B30009CF841E0029A9DF807B04446C246BEF1D7
:100B4000000F4DD0287800BF00BF00BF00BF00BF1E
:100B500000BF297801EB002000BF00BF00BF00BF2D
:100B6000297801EB002000BF00BF00BF00BF29783B
:100B700001EB002044F8040B9442E3DB287800BF2B
:100B800000BF297801EB0020397811F0FB0F29789C
:100B900001EB002046D100BF297801EB002044F88A
:100BA000040BA64298BF5446287801EA0E01594525
:100BB000E7D1297801EB0020A4EBD3225245297814
:100BC00001EB00204FEA435338BF02EBD3222978D0
:100BD00001EB002044F8040BA64298BF4FEA0A0438
:100BE000287800BF00BF00BF297801EB002000BFBC
:100BF00000BF00BF00BF297801EB002000BF00BF8D
:100C000000BF00BF297801EB002044F8040BA64286
:100C100098BF544600BF287800BF00BF00BF944271
:100C2000E2D101E04FF001078DF807B09DF80730E1
:100C30008CF845308CF841E00292D9F80020CCF8CD
:100C40005860D303CCF854A004D523490A6842F075
:100C500080620A60214922480A6842F002020A6062
:100C60004FF4007101601B490022012F0A7023D04C
:100C70009CF84120DCF818108AB9049B04981044B1
:100C8000C31A039A8B4293601CBF01231370154B48
:100C900020221A6007B0BDE8F08F231F2AE7029BCD
:100CA0009DF8142003EB8103C8EB03084FEAA80862
:100CB00002FB08F20323E1E70A480B492024046001
:100CC0000A60D5E784F00F4088E100E0D0F00F40E3
:100CD00080200740188CFF1F04ED00E010E000E0CA
:100CE00008E100E088F00F401C8CFF1F2DE9F04F59
:100CF000C36A426DD0F85880476AD0F828E08DB0BA
:100D000015460B910A93194690F84130059301F16D
:100D1000FF3C1C460192436B90F84520B3FBF1FB6E
:100D20005FFA8CFCB0F84A3007900CF10101049294
:100D30000393002C00F00C81836905EB8309C845FF
:100D40004FF0000A40F20681844D854B2A68002648
:100D500022F002024FEA8B00099006962A60814A2F
:100D60004FF40070106080480296012425460470FC
:100D70003246019CCDF820C00DE0186870B91868A3
:100D800060B9186850B9186840B9186830B918685F
:100D900020B9186810B918680028EED073481D6093
:100DA000006802FA0EF238400139024422D144F8B8
:100DB000042BA04517D86E4A127812F0FB0F40F0B2
:100DC000BF800122019C02920DE01A6872B91A6874
:100DD00062B91A6852B91A6842B91A6832B91A68FF
:100DE00022B91A6812B91A68002AEED05F4A1D604B
:100DF00012686146BAF1010F7AD0BAF1050FCAD86C
:100E000001A050F82AF000BFA10E0000970D0000CD
:100E1000B30E0000310E0000210E00003D0E000058
:100E2000019881457ED209984FF0050A8144B2E7C6
:100E30005048202606604FF0040AACE7A145AAD12D
:100E4000464B1B68DB0304D54B4A136843F08063B1
:100E50001360424A494913680B9C434843F002031C
:100E60001360079A4FF400730B6093690199526BFA
:100E700009EB83035B1A9DF828109B1001FB03C349
:100E800008995B1A0021A3600170934220469DF8E7
:100E90000840047024BF9B1A83600DB0BDE8F08F3A
:100EA000A1453FF678AF3648202606604FF0010A8C
:100EB00071E70398013803907FF46DAF0798069EA1
:100EC000C06B864231DA0698079E01300690B24622
:100ED0003018069E0AEB460A90F8416090F84500EB
:100EE0000490BAF84A00059603904FF0010A52E7C1
:100EF000059802EA00060498B0427FF44CAF0398CC
:100F0000D8B90798069EC06B86420EDA0698079EEF
:100F100001300690301890F8416090F84500059631
:100F2000049038E74FF0050A35E707980891806983
:100F30004FF0030AA4EB80092DE74FF0020A2AE7DD
:100F40000C4A104B2024146001220292196077E7AA
:100F50004FF0040AA8F10409F6E600BF10E000E033
:100F60000C71034088E100E0188CFF1FD0F00F40A7
:100F70008020074088F00F4004ED00E008E100E029
:100F800084F00F401C8CFF1F2DE9F04F93B090F8B8
:100F90004130C56A426D119101461C460993436B6D
:100FA000B3FBF5F310936B1EDBB2164601920A6891
:100FB000476A0C900593581C0B9291F8453091F8B4
:100FC00040200D920A938A6AB1F84A30D1F858C08D
:100FD00002927F080493002C00F049818A69DFF8AF
:100FE000B88206EB8209CC4540F24381A24EDFF87D
:100FF000ACA23268A14BDFF8A8E2002122F0020285
:10100000EDB2079508913260109A9D4D92004FF411
:10101000007BCAF800B001240E92059A2C700E468F
:1010200003910691019C0F924FF0FF3500970DE060
:101030001A6872B91A6862B91A6852B91A6842B95C
:101040001A6832B91A6822B91A6812B91A68002ADD
:10105000EED04FF0010AC3F800A0DEF80020009F98
:101060003A409542934600F0CD80002840F0B08091
:1010700044F8041BA44508D88249097811F0FB0FF5
:1010800040F01A81019CCDF818A00598114600285F
:1010900000F0A5800026012800F0C48048F0010A75
:1010A0005D465047099F3A400A9F9742CED1049A25
:1010B000002A40F0D9800C9A089FD26B974280F2A8
:1010C000C980089A0C9F01320892BA1892F84170B0
:1010D00092F8452009970A92B8E7049A013A0492D7
:1010E000B4D10C9A089FD26B974280F2B380089AD1
:1010F0000C9F01320892B846BA18089F08EB4708BF
:1011000092F8417092F845200A92B8F84A2009975F
:101110000492DFF8908199E7A14597D1564B1B685F
:10112000DB0304D5584A136843F080631360524AC6
:1011300056491368119D43F0020313604FF4007386
:101140000B600C9908464A6B8B690399C161019940
:10115000059804EB83035B1A07999B1001FB0303BB
:101160000F9947485B1A0021934201702846AB60F3
:1011700028BF9B1A9DF8185028BF8360A1450570B1
:101180000CD0019BC3EB0902931044BF109A9B182B
:10119000079A02FB03F21346119A536013B0BDE89D
:1011A000F08FA1453FF652AF394FDFF8F88020228B
:1011B0003A604BE7019A914541D20E9ADFF8E880F8
:1011C000914443E7334FDFF8E48020223A603DE763
:1011D000029D0138A940114400287FF45BAF44F818
:1011E000041BA44507D82749097811F0FB0F6ED1DD
:1011F0000121019C0691002648F0010A5D46314616
:101200000798504726B9029EB1400D9E01383144DF
:10121000009E01318E4315D000286ED148F0010A9E
:1012200001265047D4F800A00B9D039F35EA0A051C
:1012300018BF574648F0010A5D4603975047DFF84C
:10124000688003E770B10F4E367816F0FB064AD17E
:10125000AB4620E70C9ADFF8588092690F90A4EB18
:101260008209F3E6AB46BAE7DFF84880EEE6DFF83E
:101270003C80ACF10409B9E610E000E00C710340D9
:10128000188CFF1F8020074004ED00E008E100E01B
:1012900084F00F4088F00F40A211000088E100E0C8
:1012A000D0F00F40A410000018110000B41100008D
:1012B000C4110000DA100000114A124BCDF818A03A
:1012C00020214C461160DDF80490186026E70C4A96
:1012D0000C4B2021116000221A6001234C4606931A
:1012E000DDF804901AE70649064B20204A460860BC
:1012F0000021A1461960144610E7AB460126CAE654
:1013000088F00F401C8CFF1F84B02DE9F04F8DB08A
:101310002B9E09961A9E0A9616AE259CDDF87CE057
:10132000209F219D9DF8B5C0079486E80F001E9B65
:101330000B939DF8983000932E9B9DF8B4909B687A
:101340000593002CC0F2B7800DF1A2030393079B15
:1013500001330693002302934FF0FF3308936FF09D
:1013600006030493009B4FF00108DB4301934E46B4
:101370004346DDF8249005F1FF3BA8460DF1990A9C
:101380001D46049B059A184699181DE0002E43D16E
:10139000ADB1B1FBF8F208FB1213C3EB0B0359F824
:1013A000222007FB03F322FA03F303EA0E039AF861
:1013B00000209AF8044013409C425ED00125013081
:1013C000012801F1010109D0B1F1704FDED916BB3E
:1013D00001300128354601F10101F5D1039A029B44
:1013E00002320392069A01339A4202930AF1010AE9
:1013F000C7D1059B089A1946914207D32E9B1B78AB
:10140000002B4FD02E9B1A46089B93600DB0BDE871
:10141000F04F04B070470025B1FBF8F408FB14123C
:10142000C2EB0B0259F8243007FB02F2D34003EA67
:101430000E03BCF1000F01D1019A1340009A1A4229
:1014400001D00025BBE7002DB9D008FB1412C2EB78
:101450000B0259F8244007FB02F324FA03F303EAD2
:101460000E03BCF1000FA2D1019A9AF80440134078
:101470009AF8002013409C42A0D1079B029A934205
:101480001DD0C31D0BD0039B1B880344002B04936A
:101490004FF00105A2DD6FF0060304939EE7049070
:1014A00001259BE70A9B19469142AFD82E9B1A460D
:1014B000089B9360AAE74FF0FF33089399E7073042
:1014C0000DD0039B1B880B4408930B9B022BE7D189
:1014D000059B2E9A013B0593936001257EE70891B9
:1014E000F3E700BF84B02DE9F04FA1B03F9C189402
:1014F000319C1C94349C1794369C1B94379C1994F3
:101500002AACDDF8E0909DF8E9E0DDF8B8B0DDF850
:10151000CCA0359E9DF8E88084E80F004D469DF8EC
:1015200004719DF80541BEF1000F40F01E81449BFF
:10153000B3EB0B031A9300F14681CDF878E0439AA0
:10154000002A0DDB1A9B4B44013B9D1A48BF199B97
:10155000199A48BFED18AA4298BFAD1AC5EB090504
:101560001A9B199A05EB030909F1FF394A4570D80E
:10157000C2EB09091B9AAA4211D91B944FF0010B27
:101580002C461546552001F08BFA02342A2001F032
:1015900087FAA542F6D81B9CBBF1000F62D0199BBD
:1015A000B9F1000F03F1FF35C0F215815FFA8AF33C
:1015B0001C93DB436FEA08021D93731E1F95CDF841
:1015C00064804FF0550BB0461B9226461D464C4694
:1015D000DDF8609011E0002E40F0A9801B9B03EA2B
:1015E0000E0E5FFA8EF001F05BFA6FEA0B03DBB2CE
:1015F00003F07F0B14F1FF3425D3B4FBF8F0179BF5
:1016000008FB104ECEEB050E59F8200003FB0EFE32
:1016100020FA0EFE0EEA0A0E002FDCD15FFA8EF0E1
:10162000002E40F091801C9B18401D9B0BEA030E7E
:101630007044C0B201F034FA6FEA0B0314F1FF34C6
:101640005FFA83FBD9D234461F9D4646DDF864809D
:101650000BE01B9AAA4205D91B944FF0000B2C46B5
:1016600015468FE74D464FF0550B1A9B9D4245DBC3
:101670009DF87890CDF8709008EA09031B93731ECB
:1016800019933346DDF868905E469B4611E0C0B280
:10169000002C39D15FFA8AFE00EA0E0026EA0E0E0F
:1016A0007044C0B201F0FCF9F243D6B2013D4D45A1
:1016B00024DBB5FBFBF0199B0BFB105ECEEB030E9E
:1016C000189B53F82000179B03FB0EFE20FA0EF028
:1016D00000EA0A00002FDAD024BB20EA080E4D45AC
:1016E0007CD084B920EA0800C0B201F0D9F9F243F5
:1016F000D6B2013D4D4506F07F06DADA21B0BDE8ED
:10170000F04F04B07047C0B218EA000F0CD020EAC6
:10171000080040F0800001F0C3F9F243D6B2002F78
:10172000C4D0E6E78646DAE7002FDED1B2E7199BA0
:101730005FFA8EF018423FF456AF1B9B03EA0E008F
:1017400060F07F00C0B24EE7199B03423FF46BAFDD
:101750001B9B03EA0E0060F07F00C0B201F0A0F90D
:101760006FEA0B035FFA83FB44E742AB50222EA9DA
:101770006846149300F0ACF92AAB0FCBFFF7C4FD19
:10178000449BB3EB0B031A9321D4D7B1721E38D408
:10179000179BDDF85CC0DDF870B002FB03F100239D
:1017A0005FFA8AF09E462BFA01F3034013EA080F12
:1017B00002F1FF3208BF9E46531CCCEB0101F2D16F
:1017C000BBE61E97BBE61A9B4B441A93B5E61A9BE1
:1017D0004B441A93D9E74FF0550B46E71EF0800FA4
:1017E0003FF47FAF1C98002C3FF47FAF1B9B002B76
:1017F0003FF47BAF1E9B23EA080060F07F00C0B27D
:1018000073E700231E939AE67F4BF0B520221A60FF
:10181000436B0363B3F5E82F9DB0044640F2A78005
:101820004FF4E82301224363026294F85C50002DD8
:1018300000F0998022699342A26838BF2361082A88
:1018400000F283800822B3F5684F22620AD9226928
:101850009A420CBF4FF468434FF4E84323614FF4BE
:1018600068436363E26B002A80F2968008210022BD
:101870000229E2636FD0042940F0858008220F27F7
:101880004FF08836A162E26284F840201046676219
:10189000266020215D4F94F84120A3631944B1FBD9
:1018A000F0F607EB86066163A6656765002A00F01F
:1018B000848021695A1A226100235549B2FBF0F253
:1018C0000132A2611B930A6852488DF8643042F4D9
:1018D00000024FF0FF361A9684F85D3067680A60A0
:1018E00001684D4A4D4E21F00201016013603760DE
:1018F000116841F001011160A268052A5FD9082A28
:1019000066D947490B7015B1236A072B69D819AD01
:1019100029462046FFF7EAF9424E336813B994F896
:101920005C3073B195E8070014AB83E807005022E0
:1019300004F11001684600F0CBF894E80F00FFF7BF
:10194000D1FD002333601DB0F0BDE26B216A002A97
:101950008DDB02298FD110220326A162E26210469C
:101960006662402196E762690232226163E7B3F55D
:10197000683F02D90122026257E7B3F5E83F3BD93D
:101980000222026251E7012906D120226162A1628E
:10199000E262104680217DE704224FF080314FF053
:1019A000FF0E082780262160E2621046C4F824E07A
:1019B000A76284F8406010216CE722617CE7184B35
:1019C00019AD0222294620461A70FEF7CBFFA3E785
:1019D000134B19AD0222294620461A70FFF76AF808
:1019E0009AE7302A93D9012319AD84F85D3029464E
:1019F0002046FFF7C9FA8FE7B3F5684F8CBF042282
:101A00000822026211E700BF88F00F40308CFF1FF0
:101A10003C800440007003400871034000710340A3
:101A2000208CFF1F1C8CFF1F2DE9F0439BB000236F
:101A3000234E244D069308220793089309930E938F
:101A40000F938DF848308DF864308DF865308DF83F
:101A500049301193FF2104231B4C1C4F0A92B146BD
:101A6000A8460C920B910D9311E033680093009BF4
:101A70002A689B1AB3F5FA6F07D9D9F80030019399
:101A80002368019AC8F80020BBB1FEF73DFF00F0C3
:101A900075FF002807DD236863B100F04BFF02A942
:101AA000C0B2FEF70FFF3B68002BDED002A8FFF7A5
:101AB000ABFEDAE7FEF7EEFCEFE7FEF7D7FCE4E774
:101AC0004874002044740020148CFF1F1C8CFF1FDE
:101AD000844641EA000313F003036DD1403A41D339
:101AE00051F8043B40F8043B51F8043B40F8043BF8
:101AF00051F8043B40F8043B51F8043B40F8043BE8
:101B000051F8043B40F8043B51F8043B40F8043BD7
:101B100051F8043B40F8043B51F8043B40F8043BC7
:101B200051F8043B40F8043B51F8043B40F8043BB7
:101B300051F8043B40F8043B51F8043B40F8043BA7
:101B400051F8043B40F8043B51F8043B40F8043B97
:101B500051F8043B40F8043B51F8043B40F8043B87
:101B6000403ABDD2303211D351F8043B40F8043B27
:101B700051F8043B40F8043B51F8043B40F8043B67
:101B800051F8043B40F8043B103AEDD20C3205D337
:101B900051F8043B40F8043B043AF9D2043208D02F
:101BA000D2071CBF11F8013B00F8013B01D30B88A1
:101BB00003806046704700BF082A13D38B078DD07F
:101BC00010F003038AD0C3F10403D21ADB071CBF51
:101BD00011F8013B00F8013B80D331F8023B20F8BB
:101BE000023B7BE7043AD9D3013A11F8013B00F8F4
:101BF000013BF9D20B7803704B7843708B7883707C
:101C0000604670471C4A02EBC00301295B6811D093
:101C100004291BD052F83000002280F8802229B11C
:101C2000022920D0032922D01A6070474FF4807215
:101C30001A60704752F830004FF4A27280F8801298
:101C40001A601A6822F020021A60704752F83010A9
:101C50004FF4A272012081F880021A601A6842F0E3
:101C600020021A60704740F203121A6070474FF466
:101C700081721A60704700BF6034000030B4054BB9
:101C8000054D064C002210211A602A602060196060
:101C900030BC704714D0034004D0034000D0034050
:101CA000212801D8FFF7AEBF704700BF2DE9F843E8
:101CB000054672B6204F214B214A1B683C681268CA
:101CC00062B6520102D5322B88BF013495B3C3F5F9
:101CD000BB331C4EDFF86490DFF86480FF334FF4B1
:101CE0007A72A6FB031302FB04F404EB931472B69E
:101CF000D9F800103A68D8F800E062B6C1F5BB33F5
:101D0000FF33A6FB03031EF0806FC4EB93134FF465
:101D10007A7002D0322988BF013200FB0233B3F55A
:101D20007A7F04D3013D05D004F57A74DFE700F033
:101D3000EFFEDCE7BDE8F8834874002018E000E01F
:101D400004ED00E0ABAAAAAAF8B52D4B2D49DFF8A7
:101D5000D0E0DFF8D0C02C4E2C4D2D4C2D4A2E4F0C
:101D60004FF4000018604FF0807018604FF0007062
:101D700018604FF0806018604FF00060186000201D
:101D8000086028234BF6FF71CCF80010CEF8003025
:101D9000336013602B6023603B60B362936209225F
:101DA00045F8242CC4F8D80F05F57F65C7F8D41F73
:101DB00007F5FF2707F5FA67C6F8F83F2B6006F529
:101DC000FF26C4F8D42F05F5FD2504F5FF2438605F
:101DD00006F2F4761148316005F5FF6504F5FD64FF
:101DE0002B602360026000F0E1FE3220FFF75EFF0F
:101DF00000F0FEFC4FF4AF70BDE8F840FFF756BFAF
:101E000008E100E004800340148003402480034084
:101E10002C8003401C8003403480034000800B4032
:101E20000C80034008800340431E032B14D872B675
:101E30000A4951F8230068B170B4094C058834F898
:101E40001320466841F82360521B24F8132062B621
:101E500070BC704762B6704700207047A4740020C1
:101E6000F0760020013803280BD872B6074B53F8E0
:101E7000203043B100205B680130002BFBD162B6FB
:101E80007047002070471846F9E700BFF87400203B
:101E9000F0B472B61A491B4E012311F8014B194FC9
:101EA0009A00240742F0010505D556F8324064B186
:101EB00056F83520BAB10133052BEED162B6124B7C
:101EC00000221A70F0BC00F00FBD0F4C0F4D2178AE
:101ED00047F8325007EB431308304A1E586022700F
:101EE00062B6F0BC70470849094B0A7847F83530AC
:101EF00007EBC5030830013A58600A7062B6F0E794
:101F0000703500000080FF1F217500208800400010
:101F1000C8004000431E032B1DD81B4A400140F05F
:101F2000100030B4104472B6184CE25C032A1BD87F
:101F3000DFE802F00212151703220D88E25410F0B8
:101F4000080F14BFC823882343EA05430831036000
:101F5000416062B630BC704708300222EDE70522CE
:101F6000EBE708300422E8E7094A52F8230038B1C9
:101F7000084A52F82300416042F8231062B6E9E7AC
:101F800042F82310034AF7E70080FF1F3075002056
:101F9000F8740020087500202DE9F04FDFF804A345
:101FA000DFF804B387B044E0A94F4FEA930807EB8A
:101FB000C809013ED9F8042003F00803F6B2A2F1E3
:101FC000080003F0FF04002B40F0FE8057F8383083
:101FD0001B0C99B222F8081C002B00F0EC809D4BE2
:101FE00022F8064C42F8044C53F82620002A00F050
:101FF0002B82994D55F826305860984C45F82600AC
:1020000034F81630194424F8161000F04DFC00285E
:1020100000F01382924A934B19F0080F00F1080068
:1020200018BF1346C9F8040047F8383008238AF867
:1020300000309AF80040E4B260071AD58A4B1B784A
:10204000A3B18A490A7802F0FF0322B1013BDBB257
:102050000B7003B900BE86490A7802F0FF032AB16B
:10206000013BDBB20B70002B00F0BD8104238AF82A
:10207000003004F0080303F0FF02002B00F0C880DA
:102080009BF80030DBB21E098ED19C08704F57F8C8
:10209000342007EBC401C2F38302013A49680C2AD9
:1020A00000F28580DFE802F079798383838383837C
:1020B00042838383070008686E4B6F4D0193684B22
:1020C0004A686E4E47F8343081B240F28164694B01
:1020D0006A60286000220120A1421A603A61BA6158
:1020E000307000F2E380B1F5D06F80F02782B1F557
:1020F000817F00F0E08100F2C381802900F0368208
:10210000822940F0DE81A9885D4B01F07F0104291E
:1021100000F2D8815B4C89000B44227062701A78FF
:10212000930740F122832070022023E2514B019358
:102130001A683AB3544B514E5449188834780D7884
:102140004028864645F0020828BF4FF0400E002C7C
:1021500084F001043470CEEB00000CBF8824C82446
:1021600007EBC80680B285F0010544EA0E447260B0
:10217000188047F8384072440D70002800F0B7808E
:10218000019B1A603C4B1A88B2F5A06F0FD1002159
:102190009A7859703E4B1A7009E0374A108842F21B
:1021A0002102904200F0A8802D4A47F83420394A95
:1021B000012313703AE72A4A2A4B19F0080F18BF77
:1021C000134647F8383031E700F08EFB324A334986
:1021D00052F82630002B00F03B8158688C5D42F8A5
:1021E000260003F10802C9F80420032C05D8DFE813
:1021F00004F02C02292602228A551A8819F0080FA9
:102200000CBF8823C82343EA024347F838300DE760
:10221000E00700F1EB80210600F12881A20706D536
:102220001F4A204913780220DBB213700870E306BE
:1022300002D51C4B10221A7007B0BDE8F08F0422A3
:102240008A55DAE705228A55D7E703228A55D4E76B
:102250000080FF1FA474002050740020F07600203E
:10226000C8004000880040002C750020B574002094
:10227000347500204C74002018750020B4740020C0
:10228000C0200740247500206074002020750020C5
:102290009820074094200740F874002030750020F3
:1022A00088200740802007409020074042F2210408
:1022B000A14200F0948043D8B1F5086F00F0A881E6
:1022C000B1F5106F40F0FD80B84AB94CA978117093
:1022D00004F1800503E00834AC4200F09E81236ADB
:1022E0001906F8D5606A083800F0FEFAF3E7BEF187
:1022F000400F18BF002243E7AE4ACD1D11F8013B45
:1023000002F8013FA942F9D1AB4A1268862A00F0CF
:102310001181AA49AA4E0A78307882F00105002876
:1023200042F002020D700CBF8821C82147F832101C
:1023300007EBC20280F0010000213070516033E7EA
:1023400042F22124A14240F0FE81DFF8BCC29D4B45
:102350009D49AC78DCF800501D6081460C7000206F
:10236000029080468446044694490D7845F0020E5A
:1023700007EBCE03B9F1000F5C600CBF8824C824C2
:1023800044EA080385F0010447F83E3032700C70CF
:10239000DFF81CE28A4BDFF82482002840F09880A6
:1023A000BCF1400F1BD144F0020407EBC403029FB1
:1023B000DFF8FCE15F60002A40F09F80020442F0F9
:1023C000880207444EF8342086F800900D703B4692
:1023D000402804D100207D4A019910800B607C4A7E
:1023E00001231370E3E600F067FB3FE6704B78488B
:1023F00072491A614FF0020E80F800E0754F0A70C2
:10240000754919609960754E754D764C9A610D212C
:102410003970FF213170DFF8F4E129702270724DBC
:10242000724A8EF800109F27012406F8047C5D6034
:102430000470DA6007B0BDE8F08F6D4A47F83800E5
:10244000137801331370F1E543F82600694DD4E5A4
:102450008B5D032B67D801A252F823F02D200000DA
:102460002D200000B1240000AB24000059495C4B32
:1024700080220D2008701A70A2077FF5D8AECFE633
:1024800040F20232914240F05681A98801F07F016A
:10249000042916D86A88A2B94E4C89000C4481469A
:1024A000217841F00201217059E701238B55BDE5E8
:1024B00000238B55BAE5A98801F07F01042940F279
:1024C0004781444B0F221A70414A012313706EE674
:1024D00040287FF668AF44F002040EEBC401029E70
:1024E0004E60AAB1444A83F800903346403888F8D9
:1024F000005040334EF834206DE70204029B86F80A
:10250000009042F0C8020D7003444EF834205FE79B
:1025100083F80090029B304A88F8005040384033DE
:102520004EF8342057E719F0080F0CBF022303239D
:102530008B557BE5314A0F211170EAE6304A546829
:10254000002CBED06888B5F804E003E00C32546873
:10255000002CB6D013888342F8D153887345F5D147
:10256000000A03280CBF2078108903E0254C0220C4
:1025700022706270EA88824280F00C810F490D78E7
:10258000402A45F0020E944607EBCE0028BF4FF0DC
:10259000400C04EB0C0344600293CCEB02004FEAC6
:1025A0000C484FF001090022C824E9E62C750020F0
:1025B0000080FF1FF7760020F876002020750020AD
:1025C000B47400200077002044750020607400205F
:1025D00094200740C0200740880040008820074022
:1025E000802007409820074064740020B8740020C1
:1025F0002175002050740020C8004000B5740020F0
:102600007435000024750020487400208C20074099
:10261000684A694C12782270ACE76849684B694A8D
:1026200002916949694C6A4D039405964FF000097F
:1026300088461C4616460495206828B1456800F077
:1026400053F92846002DF9D100232360049B3068FC
:102650001A46002342F8293028B1456800F044F9B1
:102660002846002DF9D100223260029A98F80030F5
:102670001146002241F8042B039A0291023B4FF0CD
:10268000000122F81910032B07D8DFE803F0340209
:1026900034024FF0010388F8003009F10109B9F163
:1026A000040F04F1040406F1040608F10108C3D183
:1026B000484B059EDFF83091DFF83081002119701A
:1026C000012518F8013B09F8043B1A0718D4AC009F
:1026D00044F0020244F00304002347F8323047F884
:1026E00034303D4B994505F10105EAD196F800904B
:1026F00089F0010233E64FF0000388F80030CCE7A0
:1027000000F0D2F8AC0007EB451300F108020028F6
:1027100037D05A60314B47F8343000F0C5F844F0F8
:10272000010307EBC30200F1080100B351602C4A1A
:1027300047F83320CCE7B1F5A06F7FF4C2AE00229A
:102740004FF001090BE642F221329142F7D0B8E690
:102750006A88002A7FF4B5AE224C89000C44814679
:10276000217821F002012170F9E5022002E7194BDE
:1027700044F001021B7847F83200164A0133137007
:10278000A6E7144B134A1B78AC00013347F834001A
:102790001370C2E74028844628BF4FF0400C04EB7A
:1027A0000C03CCEB00004FEA0C48029300224FF0E0
:1027B0000109D9E52C75002024750020087500203A
:1027C000A4740020F874002030750020F0760020FA
:1027D0005074002021750020D4200740880040005C
:1027E000C8004000C0200740C420074070350000EA
:1027F0002DE9F843204C00F021FC002204F1880070
:1028000023461A605A60083383424FF00001F8D122
:102810001A4A1B4F13681B4D1B481C4EDFF878806B
:10282000DFF878C0DFF87890DFF878E043F48023B1
:102830001360C4F307233B70C4F307432B70240ECB
:10284000FF2302F528320470114D88F8003011483A
:102850008CF80030D4323370012389F800307026B0
:102860008EF800104FF40074102107F8183C2E70F9
:1028700004601170BDE8F8830080FF1F34800440BD
:102880009C200740B0200740B4200740102007409C
:1028900049E400E008E100E080200740882007408C
:1028A000942007400021074072B60D480268B2FA32
:1028B00082F30B2B10DC4FF00041D94022EA0102D9
:1028C000026062B6074803EBC303DB00C2180021B5
:1028D000C15010465160704762B60020704700BF7B
:1028E0002487FF1FBC83FF1F0D4B0E4AC31AA2FB98
:1028F00003231B090B2B0CD80B4A127852B972B662
:102900000A484FF00041026821FA03F31A430260BB
:1029100062B67047064A1278002AF0D0FFF7B8BABC
:10292000BC83FF1F398EE338217500202487FF1FE9
:102930002C75002038B50F4D286878B1438802887F
:10294000C118013393420C7A02D24380204638BD2D
:10295000FFF7CAFF002320462B6038BD064B1B78CB
:102960002BB10320FFF760FA28600028E6D14FF072
:10297000FF3038BD407500202C750020044B054AFF
:102980001B6890881BB11A885B88D31A184470475B
:1029900040750020F07600202DE9F04FDFF8F89028
:1029A00083B0012289F80020019169B3DFF8EC803F
:1029B000364F019E8346D8F80000B0B3344D4488AA
:1029C000C4F14001B14228BF314604EB010E0022A0
:1029D0001FFA8EFE2A70761AA0F802E000F10802B3
:1029E00051B1013C224459441BF8014B02F8014FFC
:1029F0008B45F9D1B0F802E0BEF13F0F0BD8254A64
:102A000005211170002ED6D10198002389F80030DD
:102A100003B0BDE8F08F4022028001460420FFF79A
:102A200079FA0022C8F80020E9E73A782AB3184D6D
:102A30004AF2F9244FF0010A07E0013C16D02A7847
:102A4000A2B900F065F83A78BAB10420FFF70AFAA3
:102A50000728F2D889F800A0FFF726FFC8F8000081
:102A60000028ACD10C4B013C1870E8D101234FF089
:102A7000FF302B7003B0BDE8F08F00234FF0FF3024
:102A800089F8003003B0BDE8F08F00BF2C7500203E
:102A90003C75002034750020357500203875002005
:102AA00000B583B002AB012103F8010D1846FFF712
:102AB00073FF03B05DF804FB38B50E4B1B7873B998
:102AC0000D4C216861B103F0FF054B880B80042099
:102AD000FFF720FA256038BD084B01221A7038BD77
:102AE000FFF7E2FE0028F7D00146BDE83840042099
:102AF000FFF710BA357500203875002034750020B6
:102B000008B5FDF7ABFEFEF78FFF00F001F8FAE71E
:102B100038B5224C237803B138BD01232370FFF769
:102B20002DFF70BB00F0E2F840BB00F075F910BB60
:102B300000F008FAE0B900232370EFF30583002BBF
:102B4000EAD1EFF3108172B6154B1868E0B1154C5D
:102B50002278CAB945691D6001232370C5B1AA61F5
:102B600001B962B600254577836898472570D3E799
:102B700000F0A2FBDFE700F09DFBD9E700F098FB37
:102B8000D3E700F09BFBCDE70029C5D162B638BD85
:102B9000054B1D600029E5D1E3E700BF4575002026
:102BA000E4760020E8760020E076002030B4294862
:102BB000294A2A4B2A4D6024E121047011701B78A8
:102BC000284C082B30D00A2B2748284937D00C2B0B
:102BD0000CBF35223D2212232A60236002600B6065
:102BE000234B24491B78244ABBB101230B6013609B
:102BF000224B23491B78234A012B26D9042B0FD9BA
:102C0000082B1ED9102B94BF862387230B601360DB
:102C10001D4B01221A7030BC70470B601360E7E750
:102C200084230B601360F3E700F58E200F49083012
:102C3000012213232A60236002600B60D0E739224F
:102C4000F7E785230B601360E2E780230B601360D6
:102C5000DEE700BF00400740014007402887FF1F14
:102C600008B003400CB0034008B00B400CB00B4060
:102C70004775002020B0034020B00B402987FF1F7C
:102C800024B0034024B00B404675002008B5104C1A
:102C900008E0236859050DD423681A050FD423686A
:102CA000DB0411D423685803F3D5FFF775F92368C3
:102CB0005905F1D500F02AF823681A05EFD500F080
:102CC000BBF82368DB04EDD500F04CF9EAE700BF60
:102CD0003480044008B5FFF7D9FF00BF014B102234
:102CE0001A80704700200540704700BF054A064B18
:102CF00010781B78C0B2DBB2984238BF4030C01A9F
:102D0000704700BF4C7500204D750020F0B4384B63
:102D10001A7912F0300F2CD072B6997D01F0FF02B3
:102D200000293DD062B6334F334938780D78334EA1
:102D30001C46C0B2EDB2431C402BE17928BF0023F2
:102D4000AB4202F1FF32C9B21CBFF154184612F077
:102D5000FF02F0D12A4B1B68C2B23A704BB1A842B5
:102D600036BFC5F14005401B40192728C4BF0122CA
:102D70001A701F49CA78D2B2150616D452060DD55C
:102D80001B4B1B795B0609D51E4B1F491B68002294
:102D90000A7003B11A70164B3C22DA70F0BC70470F
:102DA0004022D9795A7462B6E3E70B791C06E5D55F
:102DB000164B174E1C783378E4B2DBB29C420ED02F
:102DC000144D01E0A3420AD00133402B28BF002359
:102DD0000879E85CC0B2C871087D0728F2D9DBB277
:102DE000034933700B79180644BF7C23CB70C5E7C9
:102DF00000A006404C7500204D7500209075002005
:102E000048750020D4750020D0750020D8750020AA
:102E1000D175002050750020054A064B10781B78AC
:102E2000C0B2DBB2984238BF4030C01A704700BF12
:102E30004C760020E1750020F0B4384B1A7912F07E
:102E4000300F2CD072B6997D01F0FF0200293DD0E1
:102E500062B6334F334938780D78334E1C46C0B2D2
:102E6000EDB2431C402BE17928BF0023AB4202F1B5
:102E7000FF32C9B21CBFF154184612F0FF02F0D164
:102E80002A4B1B68C2B23A704BB1A84236BFC5F19B
:102E90004005401B40192728C4BF01221A701F4952
:102EA000CA78D2B2150616D452060DD51B4B1B7923
:102EB0005B0609D51E4B1F491B6800220A7003B12F
:102EC0001A70164B3C22DA70F0BC70474022D97958
:102ED0005A7462B6E3E70B791C06E5D5164B174E1C
:102EE0001C783378E4B2DBB29C420ED0144D01E082
:102EF000A3420AD00133282B28BF00230879E85CBD
:102F0000C0B2C871087D0728F2D9DBB2034933701B
:102F10000B79180644BF7C23CB70C5E700B0064090
:102F20004C760020E17500200C760020DC75002036
:102F300050760020E0750020547600204D76002069
:102F4000E4750020054A064B10781B78C0B2DBB24E
:102F5000984238BF4030C01A704700BF5C760020EE
:102F60005D76002030B42B4B1A7994061FD52A4881
:102F7000DA790378294901333F2B0978C8BF002348
:102F80008B42D2B203D0264CD9B2E2540170254A0A
:102F9000116861B1244A1278D2B2934236BFC2F1AD
:102FA00040029B1A9B18272BC4BF01230B70194AA0
:102FB000D378DBB2180611D45A060DD5154B1B7900
:102FC0005B0609D5194B1A491B6800220A7003B128
:102FD0001A70104B2C22DA7030BC70471179090638
:102FE000EAD5144910480C780178C9B28C420DD04A
:102FF0004A1C272A84BF00210A460F4D054C98BF62
:10300000D1B2AA5CD2B2E2710170D5E76C21D17065
:10301000D2E700BF00C006405C7600205D7600204D
:103020008876002058760020C9760020CC760020D3
:10303000C8760020D07600206076002070B584B07D
:1030400072B6194B194D1A48702241260F2480215F
:103050001A702E701A460470197013781B06FCD56E
:10306000144B186862B6144B144C984298BF00EB8E
:10307000800001A998BF40000A2200F021F901A9AF
:103080002046002311F8012B01333AB10A2B20F816
:10309000022FF7D11623237004B070BD5B00DBB2A2
:1030A000237004B070BD00BF000002400700024062
:1030B00006000240080002407F969800B887FF1F74
:1030C00010B4EFF3108272B6437F33B9017F012948
:1030D00007D003290FD00123437702B962B610BC91
:1030E0007047124C2168A1B1114943610B6883619B
:1030F00008605861EFE70F4C216881B10E494361C8
:103100000B688361086058610C4B4FF08051196067
:10311000E1E7074B4161816120601860DBE7064B06
:103120004161816120601860EEE700BFE476002015
:10313000E0760020D4760020D876002004ED00E070
:1031400010B4047F4160022CC26002D010BCFFF7B3
:10315000B7BF836810BC184770B5EFF3108272B622
:103160000C4C206880B10C4E00254369236073B17C
:103170009D6102B962B6457783689847EFF3108284
:1031800072B620680028F0D102B962B670BD336013
:10319000EFE700BFD4760020D8760020FFF7DCBF31
:1031A000184A30B41468002C27D0036821688B4279
:1031B0000ED2CB1A00218460C1602360E0601060F1
:1031C0000223037530BC704711688B42144608D344
:1031D000A2685B1A0360002AF6D18260C460A06016
:1031E000EEE7D268C2608460E060C568CB1A022254
:1031F000A8602360027530BC70478460C4601060B2
:10320000DEE700BFDC760020F8B5224E34682CB330
:103210002368002B3AD1204F1D4604E03468ECB1FE
:103220002368002B32D1A36803B1DD6020693360CD
:10323000036825751B68BB4221D1037F4560022BC3
:10324000C46020D0FFF73CFF6368002BE6D023600A
:103250002046FFF7A5FF3468002CE1D1EFF310837F
:1032600072B60E4A00211068116003B962B628B127
:103270008468FFF795FF20460028F9D1F8BD224663
:1032800000219847E0E783689847DDE7013B23602A
:10329000E4E700BFDC76002041310000EC7600203E
:1032A000024A136801331360FFF7AEBF4874002071
:1032B000704700BF704700BF704700BF704700BF36
:1032C000F0B44D1E2E46002400E00134B0FBF2F3B2
:1032D00002FB1300092800F130078ABF3730F8B22B
:1032E000C0B206F8010F1846002BEED10A19537030
:1032F0004CB1107815F8016F28700133E01A834241
:1033000002F80169F5DB0846F0BC704770B50F4E56
:103310000F4D761BB61018BF002405D0013455F8A8
:10332000043B9847A642F9D10A4E0B4D761B00F09C
:103330004DF9B61018BF002406D0013455F8043BEF
:103340009847A642F9D170BD70BD00BFD8350000C6
:10335000D8350000E0350000D8350000024B13B12D
:10336000024800F005B87047000000007D330000FF
:10337000002301461A46184600F014B838B5074D28
:10338000074C2C1BA41005D0013C55F8043D984770
:10339000002CF9D1BDE8384000F022B9000000004F
:1033A000000000002DE9F047254C2568D5F848417C
:1033B0000646884692469946C4B360681F2817DCC3
:1033C000431C76B104EB80050122C5F888A0D4F82F
:1033D000881182401143022EC4F88811C5F8089163
:1033E0001ED00230636044F820800020BDE8F087E2
:1033F000144B03B34FF4C870AFF300800446D0B150
:10340000D5F84831002780E88800C5F8484138469B
:103410000123C4F88871C4F88C71002EE1D0D1E783
:10342000D4F88C110A43C4F88C21DAE705F5A674A8
:10343000C5F84841C1E74FF0FF30BDE8F08700BF55
:10344000C83500000000000031414C53000000006E
:103450005465656E7379393600000000342E3000F3
:103460004008FE4340A004404408FE4344A00440FA
:103470000018FE4300C004403000FE43309004407A
:103480003400FE43349004401C18FE431CC004402A
:103490001018FE4310C004400818FE4308C0044042
:1034A0000C18FE430CC004400C10FE430CB004404A
:1034B0001010FE4310B004401810FE4318B0044032
:1034C0001C10FE431CB004401410FE4314B0044012
:1034D0000418FE4304C004400010FE4300B0044042
:1034E0000008FE4300A004400408FE4304A004407A
:1034F0000C08FE430CA004400808FE4308A004404A
:103500001418FE4314C004401818FE4318C00440A9
:103510000410FE4304B004400810FE4308B0044009
:103520001400FE43149004404C08FE434CA0044099
:103530000420FE4304D004402410FE4324B0044081
:103540002010FE4320B004402810FE4328B0044061
:103550002C10FE432CB004400020FE4300D0044059
:103560004808FE4348A004401000FE431090044069
:1035700000151915000100002C87FF1F1200000024
:10358000000200005887FF1F4300000000030000F6
:10359000B487FF1F00000000010309044087FF1FDC
:1035A00000000000020309049C87FF1F00000000C8
:1035B00003030904B887FF1F00000000000000009B
:1035C0000000000000000000D087FF1FF8B500BF1A
:1035D000F8BC08BC9E4670475D330000350400000F
:0435E000F8B500BF7B
:1035E400006CDC02FFFFFFFF0A040000120101016E
:1035F40002000040C016830400020102030100001F
:1036040018035400650065006E00730079006400BF
:10361400750069006E006F0009024300020100C0DA
:103624003209040000010202010005240010010512
:103634002401010104240206052406000107058271
:103644000310004009040100020A000000070503FA
:1036540002400000070584024000000016035500E4
:1036640053004200200053006500720069006100AD
:103674006C000000040309040C03000000000000B7
:103684000000000000000000000000000000000036
:1036940000000000BC8AFF1F248BFF1F8C8BFF1FC0
:1036A4000000000000000000000000000000000016
:1036B4000000000000000000000000000000000006
:1036C40000000000000000000000000000000000F6
:1036D40000000000000000000000000000000000E6
:1036E40000000000000000000000000000000000D6
:1036F40000000000000000000000000000000000C6
:1037040000000000000000000000000000000000B5
:1037140000000000000000000000000000000000A5
:103724000000000000000000000000000000000095
:103734000000000000000000010000000000000084
:103744000E33CDAB34126DE6ECDE05000B00000049
:103754000000000000000000000000000000000065
:103764000000000000000000000000000000000055
:103774000000000000000000000000000000000045
:103784000000000000000000000000000000000035
:00000001FF
