:1000000000000320D101000011340000C9330000BA
:10001000C9330000C9330000C9330000C9330000F0
:10002000C9330000C9330000C93300001134000097
:1000300011340000C9330000393C00003D3D000090
:10004000113400001134000011340000113400009C
:10005000113400001134000011340000113400008C
:10006000113400001134000011340000113400007C
:10007000113400001134000011340000113400006C
:10008000113400001134000011340000113400005C
:10009000113400001134000011340000113400004C
:1000A000113400001134000011340000113400003C
:1000B000113400001134000011340000B13400008C
:1000C00011340000DD350000113400000937000054
:1000D0001134000001380000113400001134000018
:1000E00011340000113400001134000011340000FC
:1000F00011340000113400001134000011340000EC
:1001000011340000113400001134000011340000DB
:1001100011340000252600001134000011340000C5
:1001200011340000113400001134000011340000BB
:1001300011340000113400001134000011340000AB
:100140001134000011340000F938000011340000AF
:10015000113400001134000011340000113400008B
:10016000113400001134000011340000113400007B
:10017000113400001134000011340000113400006B
:10018000113400001134000011340000113400005B
:100190001134000011340000F13900001134000066
:1001A000113400001134000011340000113400003B
:1001B000113400001134000011340000113400002B
:1001C000113400001134000011340000113400001B
:1001D0005C4B4CF2205210B51A804DF628121A8052
:1001E00000BF00BF03F018F9574B4FF030621A60A0
:1001F000564A9A60564ADA60564B4FF470021A60BB
:10020000554B564A1A60564A136813F4807304D14A
:1002100054490B604FF4A8531360534B1A781107DD
:1002200003D51A7842F008021A70504B5049AA229E
:100230001A70504A504B8B4204D252F8040F43F8C4
:10024000040BF8E74D4B4E4900228B4202D243F893
:10025000042BFAE74B494C4A002352F8230041F89B
:1002600023000133742BF8D1484B494A802103F80D
:10027000011B9342FBD1474B424A1A60464B8A22EC
:100280001A70A3F5805324225A70A0221A709A790A
:100290009207FCD59A79D406FCD4404A937903F0AE
:1002A0000C03082BFAD13E4B60221A7002331A78E5
:1002B000802AFCD1394B00221A714E225A719A7948
:1002C0009006FCD59979354A4906FBD5354B364918
:1002D00019600821596020231370937903F00C03EF
:1002E0000C2BFAD1314B324A1A60324B324A1A6027
:1002F00000225A60072243F8042C304AC3F80C2D20
:1003000062B602F021F8174B1B68DA0705D52C48B6
:1003100001F06CFD2B4B2C4A1A602C4B1B785B06B2
:1003200009D5284C284B22689A4204D1244801F070
:100330005DFD0023236003F03DFD03F073F802F040
:100340002DFFFEE70E20054030800440823F040070
:100350000100002B88ED00E0002008E0030000858C
:1003600010D0034014D0034002D0074000E0074003
:10037000100CFF1F844100003007FF1F100CFF1FEF
:1003800090F802200002FF1F0000000000E400E0DF
:1003900064E400E008ED00E0005006400040064044
:1003A00001E007404480044000000703048004404B
:1003B000C010050014E000E07FA903000000202029
:1003C0007F83635B1CE00340A5C3945A00F00740A1
:1003D000FFFFFFFFFFFFFFFFFFFFFFFFFFFFFFFF2D
:1003E000FFFFFFFFFFFFFFFFFFFFFFFFFFFFFFFF1D
:1003F000FFFFFFFFFFFFFFFFFFFFFFFFFFFFFFFF0D
:10040000FFFFFFFFFFFFFFFFFFFFFFFFDEF9FFFF23
:1004100010B5054C237833B9044B13B10448AFF33E
:1004200000800123237010BD100CFF1F000000008E
:1004300088410000084B10B51BB108490848AFF3CC
:1004400000800848036803B910BD074B002BFBD0A0
:10045000BDE81040184700BF00000000140CFF1F4B
:1004600088410000100CFF1F00000000064B0748E9
:100470001B68074A82B020210193019B96330360D9
:10048000116002B0704700BF60F402203C0CFF1FF7
:1004900084F00F40064B07481B68074A82B02021B2
:1004A0000193019B0A330360116002B0704700BFE3
:1004B00060F402203C0CFF1F84F00F4007EE900A0E
:1004C000DFED336A9FED337AB8EEE76A38B5C6EEF2
:1004D000267A314B1860F4EEC77AF1EE10FA4ADC56
:1004E0009FED2E7AF4EEC77AF1EE10FA3DDC9FED27
:1004F0002C7AF4EEC77AF1EE10FA42DCDFED296ACD
:100500009FED297A9FED290AF4EEE67AF1EE10FAD2
:100510004CF2503346F2A814C8BFB0EE470AC6BF2B
:100520001C4603250125032001F012FE0C210320A7
:1005300001F06EFC94FBF5F300EE103A0620B8EEE5
:10054000C00A01F005FE4021062001F061FC7F2178
:10055000142001F05DFC8021152001F059FCC02120
:100560000520BDE8384001F053BC46F2A8149FEDC9
:10057000100A0325D7E746F2A8149FED0E0A0425BA
:10058000D1E79FED0D0A46F2A8140225CBE700BF84
:10059000C0E1644C295C7F403007FF1F295C3F406D
:1005A00052B8FE3F52B8BE3F00C2224700247447F3
:1005B00000C2A246002474460024F446F8B572280E
:1005C0003BD8DFE800F0565A613A673A3A3A3A3A8D
:1005D000433A3A433A3A3A433A433A3A3A3A3A3A57
:1005E0003A3A3A3A3A3A3A3A3A3A3A3A3A3A3A3A6B
:1005F0003A3A3A3A3A3A3A4367613A433A3A3A3AF5
:100600003A3A3A3A3A3A3A3A3A3A3A3A3A3A3A3A4A
:100610003A3A3A3A3A3A3A3A3A3A3A3A3A3A3A3A3A
:100620003A3A3A3A3A3A3A3A3A3A3A3A3A3A3A3A2A
:100630003A3A3A3A3A3A3A3A44003A4B3A4A187015
:100640000424002001215C7198711170F8BD374BB2
:10065000374D3848CB604FF400622023002707262F
:1006600001244A630A630F614E608B602B60046053
:10067000F8BD304B00221A60F8BD2D492D4B2020CB
:10068000012208601A60F8BD04212B48BDE8F8403B
:1006900002F0D0BC012002F051FD0421274802F0F5
:1006A000C9FC0C21264802F0C5FC002002F046FDE2
:1006B000022002F043FD0321224802F0BBFC00208F
:1006C00002F03CFD212002F039FD002002F036FD51
:1006D000002002F033FD102002F030FD002002F077
:1006E0002DFD232002F02AFD002002F027FD0F201F
:1006F00002F024FD422002F021FD402002F01EFD08
:10070000402002F01BFD082002F018FD412002F0FD
:1007100015FD022002F012FD0020BDE8F84002F0B5
:100720000DBD00BF400CFF1F390CFF1FE0707200B1
:1007300084F00F40340CFF1FF03E0000F83E000034
:10074000003F0000103F00007C4A1378803B4E2B96
:1007500050D8DFE813F05F00D300CD00E500A7001C
:100760004F004F004F004F004F004F004F004F0011
:100770004F004F004F004F004F004F004F004F0001
:100780004F004F004F004F004F004F004F004F00F1
:100790004F004F004F004F004F004F004F004F00E1
:1007A0004F004F004F004F004F004F004F004F00D1
:1007B0004F004F004F004F004F004F004F004F00C1
:1007C0004F004F004F004F004F004F004F004F00B1
:1007D0004F004F004F00B300B700BE004F00710044
:1007E000750079004F0088008C0090004F009F003A
:1007F000A3005000704790785378127903EB0023E0
:10080000A1F85030130716D5CB6B013313D1032356
:10081000CB63704710B453885278494C494842EA38
:1008200003234B600133B0FBF3F3CB60B4FBF3F372
:100830005DF8044B8B607047537881F84230704705
:10084000537881F84630704790785378127903EBEB
:1008500000231007A1F84C30EDD5CB6B0133EAD162
:100860000123CB637047537881F843307047537846
:1008700081F84730704790785378127903EB002362
:100880001207A1F84E30D6D5CB6B0133D3D102235A
:10089000CB637047537881F844307047537881F8C0
:1008A00048307047B2F803009378527843EA002347
:1008B00042EA032301339B004B637047537881F86E
:1008C00041307047537881F845304FF0FF33CB63A8
:1008D000704790785378127903EB0023A1F84A30DF
:1008E0001307A8D5CB6B0133A5D10023CB63704789
:1008F000937803F0010381F85C307047B2F801305F
:10090000B2F8032001339B0001329200B3F5503F4F
:100910004B630A614A618ED14FF4E8234B63704701
:10092000B2F803009378527843EA002342EA0323A3
:1009300001339B000B614B61704700BF400CFF1FF0
:10094000001C4E0E0087930310B5064B20241C603C
:10095000962001F0A9FC044B64201C60BDE8104007
:1009600001F0A2BC84F00F4088F00F4008B50021D0
:10097000022001F093FC00210E2001F08FFC0021E9
:10098000072001F08BFC0021082001F087FC0021EA
:10099000062001F083FC0021142001F07FFC0021DF
:1009A000152001F07BFC0021052001F077FC0121DE
:1009B0000D2001F073FCFFF7C7FF0348FFF77EFD32
:1009C000024B00221A6008BD00879303340CFF1FFE
:1009D00038B50E4C2378ABB1012B04D0FFF7B4FF30
:1009E0000023237038BD02460948837945790133D5
:1009F000DBB29D428371C254F4D1FFF7A5FE002300
:100A0000237038BDBDE83840FFF7D8BD390CFF1F53
:100A1000400CFF1F10B412490B6885B0EBB11148B0
:100A200002680192019A934217D20F4B0F4A202479
:100A30001C6003680293029B00200F331360086060
:100A40003BB10849096803910399994284BF002387
:100A5000136005B05DF8044B7047044A1368EFE774
:100A60003C0CFF1F60F4022088F00F402C0CFF1F8D
:100A7000494B826DDFF840C12DE9F04FDFF828E1E6
:100A8000476D464EDFF83491454C01254FF0200864
:100A90000561C3F80080DEF800304FF4001823F041
:100AA0000203CEF8003083B0C6F8008090F845A06D
:100AB0008DF803A00023924601948CF800503D4627
:100AC000834690F8416088464F462A4618461946A4
:100AD0005446019D9DF80390002E0DD03B782B7855
:100AE00013F0FB0F25D119463B7803EA0600484571
:100AF000F5D103EB012103E039783B780902194471
:100B00003B78090219443B78090201EB030039786C
:100B100042F8040B3B7803EB01213B7803EB012106
:100B20003B7803EB0120A24242F8040B3978E4DB66
:100B300001E04FF001055FFA89F38BF841608BF813
:100B40004530DEF800308DF80390DB030195CBF8DB
:100B5000584004D5134A136843F080631360124A67
:100B60001248136843F002031360019B4FF4001511
:100B70000021012B05608CF8001004D10C4A0D4BAC
:100B80002020106019600A4B01212022C8F80810AB
:100B90001A6003B0BDE8F08F84F00F4084E100E0FC
:100BA0008020074004ED00E010E000E004E100E0F8
:100BB00088F00F40340CFF1F300CFF1FD0F00F40A7
:100BC0002DE9F04FC26A8369D0F85480846D87B0F4
:100BD0000133039111460592013990F84120844672
:100BE000C8EB04055803C9B200EB95250491002A0F
:100BF00000F0D9809B00764A043B202143441160D9
:100C0000DFF8E4917349D9F800207348734E22F05D
:100C100002024FF40017C9F800200F609CF84570DD
:100C200002932B466E4D8DF807700022A3460121DA
:100C3000297037460546114610465E469CF841E04D
:100C4000029A9DF807B04446C246BEF1000F4DD04F
:100C5000287800BF00BF00BF00BF00BF00BF2978D9
:100C600001EB002000BF00BF00BF00BF297801EBEF
:100C7000002000BF00BF00BF00BF297801EB0020AB
:100C800044F8040B9442E3DB287800BF00BF2978C6
:100C900001EB0020397811F0FB0F297801EB0020DF
:100CA00046D100BF297801EB002044F8040BA6428E
:100CB00098BF5446287801EA0E015945E7D12978B2
:100CC00001EB0020A4EBD3225245297801EB002050
:100CD0004FEA435338BF02EBD322297801EB0020BF
:100CE00044F8040BA64298BF4FEA0A04287800BFD4
:100CF00000BF00BF297801EB002000BF00BF00BF8C
:100D000000BF297801EB002000BF00BF00BF00BF7B
:100D1000297801EB002044F8040BA64298BF544602
:100D200000BF287800BF00BF00BF9442E2D101E0BD
:100D30004FF001078DF807B09DF807308CF845306B
:100D40008CF841E00292D9F80020CCF85860D30327
:100D5000CCF854A004D523490A6842F080620A60A6
:100D6000214922480A6842F002020A604FF4001149
:100D700001601B490022012F0A7023D09CF84120FA
:100D8000DCF818108AB9049B04981044C31A039A1B
:100D90008B4293601CBF01231370154B20221A60F5
:100DA00007B0BDE8F08F231F2AE7029B9DF81420AF
:100DB00003EB8103C8EB03084FEAA80802FB08F223
:100DC0000323E1E70A480B49202404600A60D5E7C1
:100DD00084F00F4084E100E0D0F00F408020074015
:100DE000300CFF1F04ED00E010E000E004E100E043
:100DF00088F00F40340CFF1F2DE9F04FC36A426D9D
:100E0000D0F85880476AD0F828E08DB015460B918D
:100E10000A93194690F84130059301F1FF3C1C46B6
:100E20000192436B90F84520B3FBF1FB5FFA8CFC19
:100E3000B0F84A3007900CF1010104920393002CA2
:100E400000F00C81836905EB8309C8454FF0000A67
:100E500040F20681844D854B2A68002622F002026A
:100E60004FEA8B00099006962A60814A4FF40010E1
:100E70001060804802960124254604703246019C89
:100E8000CDF820C00DE0186870B9186860B918680E
:100E900050B9186840B9186830B9186820B918688E
:100EA00010B918680028EED073481D60006802FA77
:100EB0000EF238400139024422D144F8042BA045F7
:100EC00017D86E4A127812F0FB0F40F0BF80012253
:100ED000019C02920DE01A6872B91A6862B91A6828
:100EE00052B91A6842B91A6832B91A6822B91A682E
:100EF00012B91A68002AEED05F4A1D601268614676
:100F0000BAF1010F7AD0BAF1050FCAD801A050F892
:100F10002AF000BFAD0F0000A30E0000BF0F0000BD
:100F20003D0F00002D0F0000490F00000198814582
:100F30007ED209984FF0050A8144B2E75048202636
:100F400006604FF0040AACE7A145AAD1464B1B68E6
:100F5000DB0304D54B4A136843F080631360424AB5
:100F6000494913680B9C434843F002031360079AF6
:100F70004FF400130B6093690199526B09EB8303E3
:100F80005B1A9DF828109B1001FB03C308995B1A9C
:100F90000021A3600170934220469DF80840047030
:100FA00024BF9B1A83600DB0BDE8F08FA1453FF6CA
:100FB00078AF3648202606604FF0010A71E70398A3
:100FC000013803907FF46DAF0798069EC06B864290
:100FD00031DA0698079E01300690B2463018069E18
:100FE0000AEB460A90F8416090F845000490BAF880
:100FF0004A00059603904FF0010A52E7059802EA6D
:1010000000060498B0427FF44CAF0398D8B9079813
:10101000069EC06B86420EDA0698079E0130069047
:10102000301890F8416090F845000596049038E734
:101030004FF0050A35E70798089180694FF0030AD9
:10104000A4EB80092DE74FF0020A2AE70C4A104B67
:101050002024146001220292196077E74FF0040AFD
:10106000A8F10409F6E600BF10E000E00C710340AF
:1010700084E100E0300CFF1FD0F00F4080200740DB
:1010800088F00F4004ED00E004E100E084F00F4040
:10109000340CFF1F2DE9F04F436A90F84120C56AD8
:1010A000D0F8588093B04FEA530E90F84030119129
:1010B0001446416D08920D93426B836AB2FBF5F2C0
:1010C00010926A1ED2B2029390F8453001910E46FA
:1010D0000592511C09930268B0F84A300B900A92AD
:1010E0000493002C00F07281876906EB8703984512
:1010F0000093A64E40F26B81DFF8A092DFF8C4A205
:10110000D9F80020A24BDFF8C0C2002722F002026B
:101110004FF40010EDB20C970795C9F80020CAF8FB
:1011200000009C480397012404701098059C0F94BC
:1011300080000E903A46069701984FF0FF34BB4668
:101140000DE01F6877B91F6867B91F6857B91F6836
:1011500047B91F6837B91F6827B91F6817B91F68D3
:10116000002FEED04FF0010AC3F800A0DCF80070A9
:101170000EEA0707BC42B94600F0D080002940F0D3
:10118000B28040F8042B804508D8834A127812F0C8
:10119000FB0F40F020810198CDF818A005993A4640
:1011A000002900F0A7804FF0000B012900F0C98052
:1011B0004C4646F001094847089D2F40099DBD4215
:1011C000CDD1049D002D40F0DE800B9DEF6B0C9D7A
:1011D000BD4280F2CE800C9D0B9F01352F440C95B3
:1011E00097F84150089597F845500995B7E7049D41
:1011F000013D0495B3D10B9DEF6B0C9DBD4280F278
:10120000B8800C9D0B9F013507EB050A07EB4509DC
:101210000C959AF8415008959AF845500995B9F8F7
:101220004A5004959BE7009D854298D15B4B1B6813
:10123000DB0304D55A4A136843F080631360574AAE
:1012400058491368119D43F0020313604FF40013D3
:101250000B600B990C464A6B8B690399E16101990C
:10126000059C00EB83035B1A07999B1001FB03436A
:101270000F99484C5B1A93424FF00001AB6021700C
:1012800028BF9B1A2C46009A28BFA3609DF81850CF
:101290002570824213460BD0019A9F1ABB1044BF9F
:1012A000109A9B18079A02FB03F21346119A536097
:1012B00013B0BDE8F08F009D85423FF650AF3A4D28
:1012C00020262E60394E4AE7009E019FBE423546D9
:1012D00044D20E9E35440095354E40E7354D2026CC
:1012E0002E60354E3BE7029C0139A2403A4400296A
:1012F0007FF459AF40F8042B804507D8264A12786E
:1013000012F0FB0F72D10122019806924FF0000BF0
:101310004C4646F001095A4607994847BBF1000F71
:1013200004D1029DAA400D9D01392A4401323EEAB2
:10133000020515D000296FD146F001094FF0010BCD
:101340004847D0F800A00A9C039D34EA0A0418BF5D
:1013500055464C4646F0010903954847144EFEE6B3
:1013600079B10D4D2D7815F0FB054BD1A146AB465B
:101370001BE70B9D114EAF690F91A0EB8705009500
:10138000EDE6A146B6E70E4EE9E600BFB612000054
:101390000C710340300CFF1F8020074010E000E07C
:1013A00004ED00E004E100E084F00F40B81100001B
:1013B0002612000088F00F40C8120000DC12000066
:1013C000EE11000084E100E0D0F00F40144EA8F1CF
:1013D0000403009390E6134A134B0098CDF818A02D
:1013E00020241460019A009219601FE70D4A0E4BE9
:1013F00000982021116000221A60019B00930123B4
:10140000069313E70749009A074B009020240C60CD
:1014100000211046196009E7A1464FF0010BC4E610
:10142000C812000088F00F40340CFF1F84B02DE973
:10143000F04F8DB02B9E09961A9E0A9616AE259CEB
:10144000DDF87CE0209F219D9DF8B5C0079486E8DB
:101450000F001E9B0B939DF8983000932E9B9DF8D8
:10146000B4909B680593002CC0F2B7800DF1A203E5
:101470000393079B01330693002302934FF0FF333E
:1014800008936FF006030493009B4FF00108DB43C1
:1014900001934E464346DDF8249005F1FF3BA846F4
:1014A0000DF1990A1D46049B059A184699181DE0EE
:1014B000002E43D1ADB1B1FBF8F208FB1213C3EB20
:1014C0000B0359F8222007FB03F322FA03F303EA84
:1014D0000E039AF800209AF8044013409C425ED014
:1014E00001250130012801F1010109D0B1F1704F4E
:1014F000DED916BB01300128354601F10101F5D1D5
:10150000039A029B02320392069A01339A42029393
:101510000AF1010AC7D1059B089A1946914207D3DF
:101520002E9B1B78002B4FD02E9B1A46089B936056
:101530000DB0BDE8F04F04B070470025B1FBF8F4E2
:1015400008FB1412C2EB0B0259F8243007FB02F21D
:10155000D34003EA0E03BCF1000F01D1019A1340FE
:10156000009A1A4201D00025BBE7002DB9D008FB34
:101570001412C2EB0B0259F8244007FB02F324FAC1
:1015800003F303EA0E03BCF1000FA2D1019A9AF80B
:10159000044013409AF8002013409C42A0D1079BBE
:1015A000029A93421DD0C31D0BD0039B1B8803449A
:1015B000002B04934FF00105A2DD6FF006030493A6
:1015C0009EE7049001259BE70A9B19469142AFD8FC
:1015D0002E9B1A46089B9360AAE74FF0FF330893AF
:1015E00099E707300DD0039B1B880B4408930B9B96
:1015F000022BE7D1059B2E9A013B059393600125B1
:101600007EE70891F3E700BF84B02DE9F04FA1B069
:101610003F9C1894319C1C94349C1794369C1B94CA
:10162000379C19942AACDDF8E0909DF8E9E0DDF8EC
:10163000B8B0DDF8CCA0359E9DF8E88084E80F00B6
:101640004D469DF804719DF80541BEF1000F40F034
:101650001E81449BB3EB0B031A9300F14681CDF836
:1016600078E0439A002A0DDB1A9B4B44013B9D1AFC
:1016700048BF199B199A48BFED18AA4298BFAD1AE6
:10168000C5EB09051A9B199A05EB030909F1FF3906
:101690004A4570D8C2EB09091B9AAA4211D91B947A
:1016A0004FF0010B2C461546552001F047FD023442
:1016B0002A2001F043FDA542F6D81B9CBBF1000F88
:1016C00062D0199BB9F1000F03F1FF35C0F215810B
:1016D0005FFA8AF31C93DB436FEA08021D93731EC3
:1016E0001F95CDF864804FF0550BB0461B922646EF
:1016F0001D464C46DDF8609011E0002E40F0A980B8
:101700001B9B03EA0E0E5FFA8EF001F017FD6FEAE5
:101710000B03DBB203F07F0B14F1FF3425D3B4FBD2
:10172000F8F0179B08FB104ECEEB050E59F8200081
:1017300003FB0EFE20FA0EFE0EEA0A0E002FDCD18D
:101740005FFA8EF0002E40F091801C9B18401D9B8C
:101750000BEA030E7044C0B201F0F0FC6FEA0B0319
:1017600014F1FF345FFA83FBD9D234461F9D4646FD
:10177000DDF864800BE01B9AAA4205D91B944FF058
:10178000000B2C4615468FE74D464FF0550B1A9B24
:101790009D4245DB9DF87890CDF8709008EA0903EA
:1017A0001B93731E19933346DDF868905E469B4683
:1017B00011E0C0B2002C39D15FFA8AFE00EA0E00B7
:1017C00026EA0E0E7044C0B201F0B8FCF243D6B265
:1017D000013D4D4524DBB5FBFBF0199B0BFB105E77
:1017E000CEEB030E189B53F82000179B03FB0EFE55
:1017F00020FA0EF000EA0A00002FDAD024BB20EA1B
:10180000080E4D457CD084B920EA0800C0B201F032
:1018100095FCF243D6B2013D4D4506F07F06DADA7B
:1018200021B0BDE8F04F04B07047C0B218EA000F15
:101830000CD020EA080040F0800001F07FFCF24369
:10184000D6B2002FC4D0E6E78646DAE7002FDED115
:10185000B2E7199B5FFA8EF018423FF456AF1B9B1C
:1018600003EA0E0060F07F00C0B24EE7199B03420E
:101870003FF46BAF1B9B03EA0E0060F07F00C0B229
:1018800001F05CFC6FEA0B035FFA83FB44E742ABB9
:1018900050222EA96846149300F0ACF92AAB0FCB66
:1018A000FFF7C4FD449BB3EB0B031A9321D4D7B1CC
:1018B000721E38D4179BDDF85CC0DDF870B002FBF7
:1018C00003F100235FFA8AF09E462BFA01F30340EE
:1018D00013EA080F02F1FF3208BF9E46531CCCEBFF
:1018E0000101F2D1BBE61E97BBE61A9B4B441A934B
:1018F000B5E61A9B4B441A93D9E74FF0550B46E7D0
:101900001EF0800F3FF47FAF1C98002C3FF47FAF98
:101910001B9B002B3FF47BAF1E9B23EA080060F06B
:101920007F00C0B273E700231E939AE67F4BF0B5A9
:1019300020221A60436B0363B3F5FA1F9DB004467F
:1019400040F2A7804FF4FA1301224363026294F835
:101950005C50002D00F0998022699342A26838BF44
:101960002361082A00F283800822B3F57A3F2262BD
:101970000AD922699A420CBF4FF47A334FF4FA33F2
:1019800023614FF47A336363E26B002A80F296801E
:10199000082100220229E2636FD0042940F08580EB
:1019A00008220F274FF08836A162E26284F84020B7
:1019B00010466762266020215D4F94F84120A363A2
:1019C0001944B1FBF0F607EB86066163A66567650F
:1019D000002A00F0848021695A1A226100235549A7
:1019E000B2FBF0F20132A2611B930A6852488DF8F3
:1019F000643042F400024FF0FF361A9684F85D30EE
:101A000067680A6001684D4A4D4E21F0020101608D
:101A100013603760116841F001011160A268052A66
:101A20005FD9082A66D947490B7015B1236A072B7D
:101A300069D819AD29462046FFF7DEF9424E3368D2
:101A400013B994F85C3073B195E8070014AB83E8E0
:101A50000700502204F11001684600F0CBF894E82A
:101A60000F00FFF7D1FD002333601DB0F0BDE26B26
:101A7000216A002A8DDB02298FD110220326A16260
:101A8000E26210466662402196E762690232226194
:101A900063E7B3F57A2F02D90122026257E7B3F563
:101AA000FA2F3BD90222026251E7012906D12022F6
:101AB0006162A162E262104680217DE704224FF05C
:101AC00080314FF0FF0E082780262160E262104629
:101AD000C4F824E0A76284F8406010216CE722611A
:101AE0007CE7184B19AD0222294620461A70FEF7F2
:101AF000BFFFA3E7134B19AD0222294620461A70F7
:101B0000FFF75EF89AE7302A93D9012319AD84F8DC
:101B10005D3029462046FFF7BDFA8FE7B3F57A3FDF
:101B20008CBF04220822026211E700BF88F00F4038
:101B3000480CFF1F3C8004400070034008710340C4
:101B400000710340380CFF1F340CFF1F2DE9F043D8
:101B50009BB00023234E244D06930822079308933D
:101B600009930E930F938DF848308DF864308DF8FB
:101B700065308DF849301193FF2104231B4C1C4F15
:101B80000A92B146A8460C920B910D9311E033686E
:101B90000093009B2A689B1AB3F5FA6F07D9D9F80E
:101BA000003001932368019AC8F80020BBB1FEF70A
:101BB00031FF01F031FA002807DD236863B101F03D
:101BC00007FA02A9C0B2FEF703FF3B68002BDED084
:101BD00002A8FFF7ABFEDAE7FEF75CFCEFE7FEF7E3
:101BE00045FCE4E760F402205CF402202C0CFF1FAB
:101BF000340CFF1F844641EA000313F003036DD148
:101C0000403A41D351F8043B40F8043B51F8043BBF
:101C100040F8043B51F8043B40F8043B51F8043BC6
:101C200040F8043B51F8043B40F8043B51F8043BB6
:101C300040F8043B51F8043B40F8043B51F8043BA6
:101C400040F8043B51F8043B40F8043B51F8043B96
:101C500040F8043B51F8043B40F8043B51F8043B86
:101C600040F8043B51F8043B40F8043B51F8043B76
:101C700040F8043B51F8043B40F8043B51F8043B66
:101C800040F8043B403ABDD2303211D351F8043B06
:101C900040F8043B51F8043B40F8043B51F8043B46
:101CA00040F8043B51F8043B40F8043B103AEDD2B5
:101CB0000C3205D351F8043B40F8043B043AF9D206
:101CC000043208D0D2071CBF11F8013B00F8013BD9
:101CD00001D30B8803806046704700BF082A13D3E6
:101CE0008B078DD010F003038AD0C3F10403D21AFE
:101CF000DB071CBF11F8013B00F8013B80D331F832
:101D0000023B20F8023B7BE7043AD9D3013A11F8B1
:101D1000013B00F8013BF9D20B7803704B7843701C
:101D20008B7883706046704710B4114B53F83020A5
:101D300092F8804234B1012379B182F880305DF8A5
:101D4000044B704703EBC0035B681A6851B922F07B
:101D500002021A605DF8044B704782F800315DF8AA
:101D6000044B704742F003021A605DF8044B704761
:101D7000143F00001C4A02EBC00301295B6811D02C
:101D800004291BD052F83000002280F8802229B1AB
:101D9000022920D0032922D01A6070474FF48072A4
:101DA0001A60704752F830004FF4A27280F8801227
:101DB0001A601A6822F020021A60704752F8301038
:101DC0004FF4A272012081F880021A601A6842F072
:101DD00020021A60704740F203121A6070474FF4F5
:101DE00081721A60704700BF143F000030B4054B89
:101DF000054D064C002210211A602A6020601960EF
:101E000030BC704714D0034004D0034000D00340DE
:101E100038B5A0F14203012B044624D900297ADD0C
:101E2000994B1B78012505FA03F28A4202D83F2814
:101E30002CD938BDC21E012A30D9A0F11D02012AB9
:101E400078D90E285BD9A4F12302032A5CD9A4F126
:101E50001002012A94BF8D4A8D4A126802FB0112BA
:101E600022FA03F320E0884B1B780B2B0AD90C2BAA
:101E70001CBF0C3B1941422C084657D0BDE83840E6
:101E800001F084BAC3F10C039940F4E72946FFF747
:101E90004BFF2946BDE83840FFF76CBF7D4A12680A
:101EA00002FB011222FA03F3A21E242A00F2E380AD
:101EB000DFE812F0DA00D300CC00C500BE00B700A6
:101EC000B000A900A200E100E100E1009B00E100F8
:101ED00094008D00E100E10086007F007800710031
:101EE000E100E100E100E100E1006A006300E100DF
:101EF000E100E100E1005C0055004E00470044F2C3
:101F00008412C240D2079ED5634A126802FB0112B6
:101F100022FA03F3C8E73F288BD80021FFF704FF1C
:101F200020460121BDE83840FFF724BFBDE8384016
:101F300001F00EBA594A126802FB011222FA03F3A9
:101F4000B2E75749574A0B604FF45173136038BDDD
:101F50005549564A0B604FF45173136038BD5449CC
:101F6000544A0B604FF45173136038BD5249534AC1
:101F70000B604FF45173136038BD5149514A0B60E7
:101F80004FF45173136038BD4F49504A0B604FF402
:101F90005173136038BD4E494E4A0B6040F24443C2
:101FA000136038BD4C494D4A0B6040F24443136006
:101FB00038BD4B494B4A0B6040F24443136038BD77
:101FC00049494A4A0B6040F24443136038BD4849CE
:101FD000484A0B6040F24463136038BD4649474AA3
:101FE0000B6040F24463136038BD4549454A0B60BD
:101FF00040F24443136038BD4349444A0B6040F209
:102000004443136038BD4249424A0B6040F24443A6
:10201000136038BD4049414A0B6040F244431360AD
:1020200038BD3F493F4A0B6040F24443136038BD1E
:102030003D493E4A0B6040F24443136038BD3C4981
:102040003C4A0B6040F24443136038BD3A493B4A76
:102050000B604FF45173136038BD3949394A0B6036
:102060004FF45173136038BD3749384A0B6040F262
:102070004443136038BD3F2C3FF6DBAE7F29D4BF0D
:1020800000210121204649E73407FF1F08900C403A
:10209000088003400890034008900B4008800B40E4
:1020A00048900B402CB0044040900B4028B00440B6
:1020B00038900B4024B0044030900B4020B00440D6
:1020C00018800B404CA0044010800B4048A00440F6
:1020D0001880034008B004401080034004B004405E
:1020E0004080034018C004403880034014C00440BE
:1020F00018900C4004A0044010900C4000A0044034
:1021000018900B4004C004402880034010B00440E5
:10211000208003400CB0044028900B400CC00440C9
:1021200020900B4008C004403080034010C00440A1
:10213000488003401CC00440189003403490044081
:10214000109003403090044010900B4000C00440B9
:10215000A0F11001C9B2012970B45BD9DFED3B7A5F
:102160003B4AB4EEE70AF1EE10FA47F6122346BFF7
:102170001A4602250125DFED376A002322FA03F40F
:1021800007EE904AF8EEE77A27EEA67AB4EEC70A91
:10219000F1EE10FA07DA0133072BEFD1D20907EE7F
:1021A000902AF8EEE77A87EE807A4FF6FF74C21E27
:1021B000F6EE007A77EE677AFCEEE77A17EE906A31
:1021C000A64228BF2646012A344637D917280ED9F9
:1021D000A0F11D02012A35D90E281ED92338032863
:1021E00020D9012914D81C4A1C4E1D481DE01D4A47
:1021F000C24002F0010282F00106002AE8D01A4A29
:102200001A481B49166043EAC50306600C60136058
:1022100070BC7047174A0125ADE744F28412C240F2
:10222000D207DBD5144A154E154843EAC5030021F1
:10223000116031600460136070BC7047114A124E27
:102240001248F2E7124A134E1348EEE7C0E1E440A9
:10225000008793030000803700900C4004900C40EE
:1022600008900C406006F0000080034004800340AA
:10227000088003400024F40000900B4004900B40C1
:1022800008900B40009003400490034008900340E6
:1022900000800B4004800B4008800B403F2801D891
:1022A000FFF768BD704700BF2DE9F843054672B6D9
:1022B000214F224B224A1B683C68126862B65201C9
:1022C00002D5322B88BF0134A5B3C3F56A331D4E46
:1022D000DFF86890DFF8688003F27F134FF47A72BA
:1022E000A6FB031302FB04F404EBD31472B6D9F873
:1022F00000103A68D8F800E062B6C1F56A3303F21C
:102300007F13A6FB03031EF0806FC4EBD3134FF4BF
:102310007A7002D0322988BF013200FB0233B3F554
:102320007A7F04D3013D05D004F57A74DEE700F02E
:102330003DFFDBE7BDE8F88360F4022018E000E031
:1023400004ED00E089888888F8B54E4B4E48DFF8E8
:102350005CC14E4C4E49DFF858E14E4E4E4D4F4F4A
:102360004FF000621A604FF080521A604FF0005236
:102370001A604FF080421A604FF000421A6000224B
:10238000026028234EF6FF70CCF80000CEF8003033
:1023900023600EF5012E0B6033602B6006F50026DE
:1023A0003B6005F50025A36207F500278B6204F565
:1023B000012401F5012106F6E87605F6E87507F532
:1023C0007F6710310EF1100E203433602B60CEF891
:1023D00000303B600B602360314CBB618B61092195
:1023E0002160A7F5002704F58054203F08343A60A7
:1023F0002060BB60E36047F8041C04F5FD2407F58A
:10240000FE27043704F2FC7422603860A360FB608E
:1024100044F8041C083404F6FC74C7F8FC2F206050
:10242000A4F5E124A4F2DC7433602B60C7F8F81F34
:1024300021681C4841F40071216001681A4C0EF5B6
:102440007F4E0EF1E80E07F5883706F5803605F564
:10245000803541F000710160CEF8002047F6FF7131
:102460000822396033602B60226000F001FF3220C7
:10247000FFF71AFF00F002FD4FF4AF70BDE8F8401F
:10248000FFF712BF04E100E0048003401480034022
:102490001C800340248003402C8003403480034090
:1024A000008003400480044000900C4008800340FA
:1024B0000C800340431E032B14D872B60A4951F80E
:1024C000230068B170B4094C058834F813204668BD
:1024D00041F82360521B24F8132062B670BC704789
:1024E00062B6704700207047BCF402207CF80220DE
:1024F000013803280BD872B6074B53F8203043B18C
:1025000000205B680130002BFBD162B670470020D1
:1025100070471846F9E700BF10F50220F0B472B614
:102520001A491B4E012311F8014B194F9A00240739
:1025300042F0010505D556F8324064B156F8352011
:10254000BAB10133052BEED162B6124B00221A70DC
:10255000F0BC00F017BD0F4C0F4D217847F83250FA
:1025600007EB431308304A1E5860227062B6F0BC75
:1025700070470849094B0A7847F8353007EBC5031F
:102580000830013A58600A7062B6F0E71441000062
:102590000000FF1F39F5022088004000C8004000FD
:1025A000431E032B1DD81B4A400140F0100030B4DD
:1025B000104472B6184CE25C032A1BD8DFE802F024
:1025C0000212151703220D88E25410F0080F14BFF1
:1025D000C823882343EA054308310360416062B69B
:1025E00030BC704708300222EDE70522EBE70830E7
:1025F0000422E8E7094A52F8230038B1084A52F8A1
:102600002300416042F8231062B6E9E742F8231044
:10261000034AF7E70000FF1F48F5022010F50220EB
:1026200020F502202DE9F04FDFF804A3DFF804B312
:1026300087B044E0A94F4FEA930807EBC809013E71
:10264000D9F8042003F00803F6B2A2F1080003F061
:10265000FF04002B40F0FE8057F838301B0C99B275
:1026600022F8081C002B00F0EC809D4B22F8064C51
:1026700042F8044C53F82620002A00F02B82994D92
:1026800055F826305860984C45F8260034F8163036
:10269000194424F8161000F055FC002800F01382AD
:1026A000924A934B19F0080F00F1080018BF134627
:1026B000C9F8040047F8383008238AF800309AF83F
:1026C0000040E4B260071AD58A4B1B78A3B18A494F
:1026D0000A7802F0FF0322B1013BDBB20B7003B9B1
:1026E00000BE86490A7802F0FF032AB1013BDBB243
:1026F0000B70002B00F0BD8104238AF8003004F039
:10270000080303F0FF02002B00F0C8809BF80030A4
:10271000DBB21E098ED19C08704F57F8342007EBAE
:10272000C401C2F38302013A49680C2A00F2858091
:10273000DFE802F079798383838383834283838311
:10274000070008686E4B6F4D0193684B4A686E4EE8
:1027500047F8343081B240F28164694B6A60286086
:1027600000220120A1421A603A61BA61307000F281
:10277000E380B1F5D06F80F02782B1F5817F00F062
:10278000E08100F2C381802900F03682822940F086
:10279000DE81A9885D4B01F07F01042900F2D88118
:1027A0005B4C89000B44227062701A78930740F1E9
:1027B00022832070022023E2514B01931A683AB31E
:1027C000544B514E5449188834780D784028864629
:1027D00045F0020828BF4FF0400E002C84F00104A1
:1027E0003470CEEB00000CBF8824C82407EBC80669
:1027F00080B285F0010544EA0E447260188047F803
:10280000384072440D70002800F0B780019B1A60B8
:102810003C4B1A88B2F5A06F0FD100219A785970FD
:102820003E4B1A7009E0374A108842F2210290426A
:1028300000F0A8802D4A47F83420394A012313704C
:102840003AE72A4A2A4B19F0080F18BF134647F8EF
:10285000383031E700F096FB324A334952F82630DF
:10286000002B00F03B8158688C5D42F8260003F194
:102870000802C9F80420032C05D8DFE804F02C0274
:10288000292602228A551A8819F0080F0CBF8823BE
:10289000C82343EA024347F838300DE7E00700F168
:1028A000EB80210600F12881A20706D51F4A2049A6
:1028B00013780220DBB213700870E30602D51C4BBC
:1028C00010221A7007B0BDE8F08F04228A55DAE7AB
:1028D00005228A55D7E703228A55D4E70000FF1F57
:1028E000BCF4022068F402207CF80220C8004000FA
:1028F0008800400044F50220CDF402204CF502206F
:1029000064F4022030F50220CCF40220C0200740FD
:102910003CF5022078F4022038F502209820074088
:102920009420074010F5022048F502208820074037
:10293000802007409020074042F22104A14200F08D
:10294000948043D8B1F5086F00F0A881B1F5106FFD
:1029500040F0FD80B84AB94CA978117004F18005A7
:1029600003E00834AC4200F09E81236A1906F8D5D2
:10297000606A083800F006FBF3E7BEF1400F18BFAD
:10298000002243E7AE4ACD1D11F8013B02F8013F9A
:10299000A942F9D1AB4A1268862A00F01181AA49EE
:1029A000AA4E0A78307882F00105002842F002022F
:1029B0000D700CBF8821C82147F8321007EBC20206
:1029C00080F0010000213070516033E742F2212491
:1029D000A14240F0FE81DFF8BCC29D4B9D49AC781E
:1029E000DCF800501D6081460C700020029080468B
:1029F0008446044694490D7845F0020E07EBCE0359
:102A0000B9F1000F5C600CBF8824C82444EA0803B5
:102A100085F0010447F83E3032700C70DFF81CE29C
:102A20008A4BDFF82482002840F09880BCF1400FE8
:102A30001BD144F0020407EBC403029FDFF8FCE162
:102A40005F60002A40F09F80020442F08802074441
:102A50004EF8342086F800900D703B46402804D193
:102A600000207D4A019910800B607C4A012313707D
:102A7000E3E600F06FFB3FE6704B784872491A615D
:102A80004FF0020E80F800E0754F0A70754919602A
:102A90009960754E754D764C9A610D213970FF2104
:102AA0003170DFF8F4E129702270724D724A8EF8AD
:102AB00000109F27012406F8047C5D600470DA6032
:102AC00007B0BDE8F08F6D4A47F83800137801333E
:102AD0001370F1E543F82600694DD4E58B5D032BB7
:102AE00067D801A252F823F0B9260000B9260000E9
:102AF0003D2B0000372B000059495C4B80220D20F4
:102B000008701A70A2077FF5D8AECFE640F2023205
:102B1000914240F05681A98801F07F01042916D81E
:102B20006A88A2B94E4C89000C448146217841F054
:102B30000201217059E701238B55BDE500238B5518
:102B4000BAE5A98801F07F01042940F24781444B8E
:102B50000F221A70414A012313706EE640287FF657
:102B600068AF44F002040EEBC401029E4E60AAB1AD
:102B7000444A83F800903346403888F80050403388
:102B80004EF834206DE70204029B86F8009042F074
:102B9000C8020D7003444EF834205FE783F80090BC
:102BA000029B304A88F80050403840334EF83420B9
:102BB00057E719F0080F0CBF022303238B557BE561
:102BC000314A0F211170EAE6304A5468002CBED019
:102BD0006888B5F804E003E00C325468002CB6D0E5
:102BE00013888342F8D153887345F5D1000A03282E
:102BF0000CBF2078108903E0254C022022706270FF
:102C0000EA88824280F00C810F490D78402A45F015
:102C1000020E944607EBCE0028BF4FF0400C04EBA9
:102C20000C0344600293CCEB02004FEA0C484FF0D7
:102C300001090022C824E9E644F502200000FF1F34
:102C400083F8022084F8022038F50220CCF4022018
:102C50008CF802205CF5022078F4022094200740D2
:102C6000C02007408800400088200740802007409F
:102C7000982007407CF40220D0F4022039F502208D
:102C800068F40220C8004000CDF402201841000082
:102C90003CF5022060F402208C200740684A694C11
:102CA00012782270ACE76849684B694A0291694919
:102CB000694C6A4D039405964FF0000988461C46FE
:102CC00016460495206828B1456800F05BF928464F
:102CD000002DF9D100232360049B30681A4600239D
:102CE00042F8293028B1456800F04CF92846002DFB
:102CF000F9D100223260029A98F800301146002281
:102D000041F8042B039A0291023B4FF0000122F894
:102D10001910032B07D8DFE803F0340234024FF018
:102D2000010388F8003009F10109B9F1040F04F139
:102D3000040406F1040608F10108C3D1484B059EBE
:102D4000DFF83091DFF8308100211970012518F883
:102D5000013B09F8043B1A0718D4AC0044F0020206
:102D600044F00304002347F8323047F834303D4B39
:102D7000994505F10105EAD196F8009089F0010224
:102D800033E64FF0000388F80030CCE700F0DAF8C3
:102D9000AC0007EB451300F10802002837D05A6059
:102DA000314B47F8343000F0CDF844F0010307EB25
:102DB000C30200F1080100B351602C4A47F83320E8
:102DC000CCE7B1F5A06F7FF4C2AE00224FF001094D
:102DD0000BE642F221329142F7D0B8E66A88002A27
:102DE0007FF4B5AE224C89000C448146217821F055
:102DF00002012170F9E5022002E7194B44F00102BB
:102E00001B7847F83200164A01331370A6E7144BBB
:102E1000134A1B78AC00013347F834001370C2E743
:102E20004028844628BF4FF0400C04EB0C03CCEB49
:102E300000004FEA0C48029300224FF00109D9E547
:102E400044F502203CF5022020F50220BCF40220CB
:102E500010F5022048F502207CF8022068F40220D8
:102E600039F50220D420074088004000C800400007
:102E7000C0200740C4200740144100002DE9F8435A
:102E8000244C00F027FE002204F1880023461A603B
:102E90005A60083383424FF00001F8D11E481F4AA0
:102EA0000368DFF890E01E4F1E4D1F4EDFF888804C
:102EB000DFF888C0DFF8889043F48023036013684C
:102EC0001A4843F040731360C4F307238EF80030B0
:102ED000C4F307433B70240EFF2302F5C9222C7074
:102EE00002F5847288F80030114D8CF80030337090
:102EF000012389F8003070268EF864104FF4001416
:102F0000102107F82C3C2E70046011700EF1640E35
:102F1000BDE8F8830000FF1F3480044000D8004063
:102F2000B0200740B42007401020074004E100E033
:102F300035E400E09C2007408020074088200740BF
:102F40009420074072B60D480268B2FA82F30B2B48
:102F500010DC4FF00041D94022EA0102026062B663
:102F6000074803EBC303DB00C2180021C150104621
:102F70005160704762B60020704700BF3807FF1FDE
:102F8000D003FF1F0D4B0E4AC31AA2FB03231B09DC
:102F90000B2B0CD80B4A127852B972B60A484FF074
:102FA0000041026821FA03F31A43026062B67047D7
:102FB000064A1278002AF0D0FFF7B0BAD003FF1FFC
:102FC000398EE33839F502203807FF1F44F5022017
:102FD00038B50F4D286878B143880288C11801338D
:102FE00093420C7A02D24380204638BDFFF7CAFFD5
:102FF000002320462B6038BD064B1B782BB10320E5
:10300000FFF758FA28600028E6D14FF0FF3038BDAE
:1030100058F5022044F50220044B054A1B689088AD
:103020001BB11A885B88D31A1844704758F50220E0
:103030007CF802202DE9F04FDFF8F89083B00122F0
:1030400089F80020019169B3DFF8EC80354F019ECB
:103050008346D8F80000B0B3334D4488C4F1400132
:10306000B14228BF314604EB010E00221FFA8EFE4A
:103070002A70761AA0F802E000F1080251B1013C72
:10308000224459441BF8014B02F8014F8B45F9D1FA
:10309000B0F802E0BEF13F0F0BD8244A05211170B1
:1030A000002ED6D10198002389F8003003B0BDE886
:1030B000F08F4022028001460420FFF771FA0022BF
:1030C000C8F80020E9E73A7822B3194C164D4FF0C2
:1030D000010A07E0013C16D02A78A2B900F066F890
:1030E0003A78BAB10420FFF703FA0728F2D889F832
:1030F00000A0FFF727FFC8F800000028ADD10D4B56
:10310000013C1870E8D101234FF0FF302B7003B061
:10311000BDE8F08F00234FF0FF3089F8003003B096
:10312000BDE8F08F44F5022054F502204CF5022052
:1031300081B501004DF5022050F5022000B583B0A5
:1031400002AB012103F8010D1846FFF773FF03B02E
:103150005DF804FB38B50E4B1B7873B90D4C216834
:1031600061B103F0FF054B880B800420FFF718FACC
:10317000256038BD084B01221A7038BDFFF7E2FE0A
:103180000028F7D00146BDE838400420FFF708BA10
:103190004DF5022050F502204CF5022008B5FDF750
:1031A000E5FBFEF7D3FC00F001F8FAE738B52C4C4C
:1031B000237803B138BD01232370FFF72DFF0028CA
:1031C00042D100F065F900283BD100F0F7F9002862
:1031D00034D100F089FA70BB00F002FB40BB00F074
:1031E0007BFB10BB00F0F4FBE0B900232370EFF38E
:1031F0000583002BDED1EFF3108172B6194B1868EE
:1032000028B3194C227812BB45691D600123237035
:103210000DB3AA6101B962B6002545778368984766
:103220002570C7E700F09CFDDFE700F097FDD9E7C8
:1032300000F092FDD3E700F08DFDCDE700F088FDB2
:10324000C7E700F083FDC0E700F08CFDB9E7002977
:10325000B0D162B638BD054B1D600029DCD1DAE77C
:103260005DF5022070F8022074F802206CF802204C
:1032700030B42948294A2A4B2A4D6024E1210470A0
:1032800011701B78284C082B30D00A2B274828496E
:1032900037D00C2B0CBF35225D2212232A6023600D
:1032A00002600B60234B24491B78244ABBB10123E5
:1032B0000B601360224B23491B78234A012B26D92C
:1032C000042B0FD9082B1ED9102B94BF86238723DC
:1032D0000B6013601D4B01221A7030BC70470B60ED
:1032E0001360E7E784230B601360F3E700F58E209B
:1032F0000F490830212213232A60236002600B60EB
:10330000D0E73922F7E785230B601360E2E78023DB
:103310000B601360DEE700BF00400740014007403C
:103320003C07FF1F08B003400CB0034008B00B403F
:103330000CB00B405FF5022020B0034020B00B40E2
:103340003D07FF1F24B0034024B00B405EF5022070
:103350000A4A0B49136843F4805313600B7843B156
:10336000084B80221A7080F30C00074B00B21880C3
:103370007047044BC0221A70F5E700BF2C80044050
:103380005FF5022021C00C4000C00C400A4A0B49E6
:10339000136843F4005313600B7843B1084B802249
:1033A0001A7080F30C00074B00B218807047044B72
:1033B000C0221A70F5E700BF2C8004405FF50220A0
:1033C00021D00C4000D00C4008B5104C08E0236818
:1033D00059050DD423681A050FD42368DB0411D4D2
:1033E00023685803F3D5FFF71DF923685905F1D574
:1033F00000F05EF823681A05EFD500F0EFF82368B7
:10340000DB04EDD500F080F9EAE700BF348004402A
:1034100008B5FFF7D9FF00BF014B10221A80704793
:1034200000200540704700BF084A1378802B01D068
:10343000002070470649074B0748086000211970B3
:103440001378802BFCD00120704700BF03E00740B9
:103450004480044001E0074000001713094A137834
:10346000012B01D00020704703F1804303F5FC23BA
:10347000602119701378802BFCD1034B034A1A602A
:103480000120704703E00740448004400000070328
:10349000054A064B10781B78C0B2DBB2984238BFA1
:1034A0004030C01A704700BF64F5022065F5022065
:1034B000F0B4384B1A7912F0300F2CD072B6997DD7
:1034C00001F0FF0200293DD062B6334F334938780E
:1034D0000D78334E1C46C0B2EDB2431C402BE1794F
:1034E00028BF0023AB4202F1FF32C9B21CBFF15426
:1034F000184612F0FF02F0D12A4B1B68C2B23A7094
:103500004BB1A84236BFC5F14005401B40192728E2
:10351000C4BF01221A701F49CA78D2B2150616D448
:1035200052060DD51B4B1B795B0609D51E4B1F4957
:103530001B6800220A7003B11A70164B3C22DA7025
:10354000F0BC70474022D9795A7462B6E3E70B7930
:103550001C06E5D5164B174E1C783378E4B2DBB267
:103560009C420ED0144D01E0A3420AD00133402BFF
:1035700028BF00230879E85CC0B2C871087D07281D
:10358000F2D9DBB2034933700B79180644BF7C23B0
:10359000CB70C5E700A0064064F5022065F5022067
:1035A000A8F5022060F50220ECF50220E8F50220E3
:1035B000F0F50220E9F5022068F50220054A064BE5
:1035C00010781B78C0B2DBB2984238BF4030C01AC6
:1035D000704700BF64F60220F9F50220F0B4384BC2
:1035E0001A7912F0300F2CD072B6997D01F0FF02DB
:1035F00000293DD062B6334F334938780D78334EC9
:103600001C46C0B2EDB2431C402BE17928BF002319
:10361000AB4202F1FF32C9B21CBFF154184612F09E
:10362000FF02F0D12A4B1B68C2B23A704BB1A842DC
:1036300036BFC5F14005401B40192728C4BF0122F1
:103640001A701F49CA78D2B2150616D452060DD583
:103650001B4B1B795B0609D51E4B1F491B680022BB
:103660000A7003B11A70164B3C22DA70F0BC704736
:103670004022D9795A7462B6E3E70B791C06E5D586
:10368000164B174E1C783378E4B2DBB29C420ED056
:10369000144D01E0A3420AD00133282B28BF002398
:1036A0000879E85CC0B2C871087D0728F2D9DBB29E
:1036B000034933700B79180644BF7C23CB70C5E7F0
:1036C00000B0064064F60220F9F5022024F602203C
:1036D000F4F5022068F60220F8F502206CF60220CC
:1036E00065F60220FCF50220054A064B10781B788F
:1036F000C0B2DBB2984238BF4030C01A704700BF3A
:1037000074F6022075F6022030B42B4B1A79940619
:103710001FD52A48DA790378294901333F2B0978E4
:10372000C8BF00238B42D2B203D0264CD9B2E25498
:103730000170254A116861B1244A1278D2B29342CD
:1037400036BFC2F140029B1A9B18272BC4BF01232E
:103750000B70194AD378DBB2180611D45A060DD56E
:10376000154B1B795B0609D5194B1A491B680022BA
:103770000A7003B11A70104B2C22DA7030BC7047FB
:1037800011790906EAD5144910480C780178C9B2B4
:103790008C420DD04A1C272A84BF00210A460F4DB7
:1037A000054C98BFD1B2AA5CD2B2E2710170D5E7E4
:1037B0006C21D170D2E700BF00C0064074F6022031
:1037C00075F60220A0F6022070F60220E1F6022033
:1037D000E4F60220E0F60220E8F6022078F6022065
:1037E000054A064B10781B78C0B2DBB2984238BF4E
:1037F0004030C01A704700BFF0F60220F1F60220F8
:1038000030B42B4B1A7994061FD52A48DA790378FD
:10381000294901333F2B0978C8BF00238B42D2B21C
:1038200003D0264CD9B2E2540170254A116861B127
:10383000244A1278D2B2934236BFC2F140029B1A98
:103840009B18272BC4BF01230B70194AD378DBB216
:10385000180611D45A060DD5154B1B795B0609D5F0
:10386000194B1A491B6800220A7003B11A70104BD9
:103870002C22DA7030BC704711790906EAD5144958
:1038800010480C780178C9B28C420DD04A1C272A06
:1038900084BF00210A460F4D054C98BFD1B2AA5CE7
:1038A000D2B2E2710170D5E76C21D170D2E700BFCE
:1038B00000D00640F0F60220F1F602201CF70220AC
:1038C000ECF602205DF7022060F702205CF7022090
:1038D00064F70220F4F60220054A064B10781B78A4
:1038E000C0B2DBB2984238BF4030C01A704700BF48
:1038F0006CF702206DF7022030B42B4B1A79940636
:103900001FD52A48DA790378294901333F2B0978F2
:10391000C8BF00238B42D2B203D0264CD9B2E254A6
:103920000170254A116861B1244A1278D2B29342DB
:1039300036BFC2F140029B1A9B18272BC4BF01233C
:103940000B70194AD378DBB2180611D45A060DD57C
:10395000154B1B795B0609D5194B1A491B680022C8
:103960000A7003B11A70104B2C22DA7030BC704709
:1039700011790906EAD5144910480C780178C9B2C2
:103980008C420DD04A1C272A84BF00210A460F4DC5
:10399000054C98BFD1B2AA5CD2B2E2710170D5E7F2
:1039A0006C21D170D2E700BF00A00E406CF702205E
:1039B0006DF7022098F7022068F70220D9F702205D
:1039C000DCF70220D8F70220E0F7022070F702208F
:1039D000054A064B10781B78C0B2DBB2984238BF5C
:1039E0004030C01A704700BFE8F70220E9F7022014
:1039F00030B42C4B5A6894021FD52B48DA680378F0
:103A00002A4901333F2B0978C8BF00238B4204D0D9
:103A1000274CD2B2D9B2E2540170264A116861B182
:103A2000254A1278D2B2934236BFC2F140029B1AA5
:103A30009B18272BC4BF01230B701A4A93681802E6
:103A400002D55268110211D45A020DD5154B5B688C
:103A50005B0209D5194B1A491B6800220A7003B191
:103A60001A70184B00221A6030BC7047164A12496F
:103A700010780A78D2B290420DD00132272A84BF42
:103A800000200246114D074C98BFD0B2AA5CD2B2BA
:103A9000E2600870D8E70E480A4A00240121046059
:103AA0001160D1E700400C40E8F70220E9F702205E
:103AB00014F80220E4F7022055F8022058F80220FA
:103AC00054F80220580188435CF80220ECF70220E9
:103AD0005C01884310B584B072B6FFF7A5FC184AA4
:103AE000184B19491160702280211A701A461970FA
:103AF00013781B06FCD5154B1C68FFF7AFFC62B6AC
:103B0000134B9C429CBF04EB840464002046114C80
:103B100001A90A2200F028F901A92046002311F882
:103B2000012B01333AB10A2B20F8022FF7D11623CB
:103B3000237004B010BD5B00DBB2237004B010BD75
:103B40000400024000000240000007410C00024057
:103B50007F969800CC07FF1F10B4EFF3108272B667
:103B6000437F33B9017F012908D0032910D00123F5
:103B7000437702B962B65DF8044B7047114C216877
:103B8000A1B1114943610B68836108605861EEE798
:103B90000E4C216881B10E4943610B688361086056
:103BA00058610C4B4FF080511960E0E7064B4161C2
:103BB000816120601860DAE7054B41618161206016
:103BC0001860EEE770F802206CF8022060F802201E
:103BD00064F8022004ED00E010B4047F4160022C80
:103BE000C26003D05DF8044BFFF7B6BF83685DF891
:103BF000044B184770B5EFF3108272B60C4C206876
:103C000080B10C4E00254369236073B19D6102B9F8
:103C100062B6457783689847EFF3108272B62068E2
:103C20000028F0D102B962B670BD3360EFE700BF83
:103C300060F8022064F80220FFF7DCBF184A30B4B5
:103C40001468002C27D0036821688B420ED2CB1A4F
:103C500000218460C1602360E0601060022303756E
:103C600030BC704711688B42144608D3A2685B1AB7
:103C70000360002AF6D18260C460A060EEE7D268DB
:103C8000C2608460E060C568CB1A0222A86023602D
:103C9000027530BC70478460C4601060DEE700BF0E
:103CA00068F80220F8B5224E34682CB32368002B44
:103CB0003AD1204F1D4604E03468ECB12368002B54
:103CC00032D1A36803B1DD602069336003682575D4
:103CD0001B68BB4221D1037F4560022BC46020D00A
:103CE000FFF73AFF6368002BE6D023602046FFF71A
:103CF000A5FF3468002CE1D1EFF3108372B60E4AB1
:103D000000211068116003B962B628B18468FFF71A
:103D100095FF20460028F9D1F8BD2246002198479A
:103D2000E0E783689847DDE7013B2360E4E700BFF5
:103D300068F80220D93B000078F80220024A136894
:103D400001331360FFF7AEBF60F40220704700BF7D
:103D5000704700BF704700BF704700BF704700BF8B
:103D6000704700BF704700BFF0B44D1E2E460024C0
:103D700000E00134B0FBF2F302FB1300092800F16C
:103D800030078ABF3730F8B2C0B206F8010F1846C4
:103D9000002BEED10A1953704CB1107815F8016F51
:103DA00028700133E01A834202F80169F5DB084606
:103DB000F0BC704770B50F4E0F4D761BB61018BF94
:103DC000002405D0013455F8043B9847A642F9D1A8
:103DD0000A4E0B4D761B00F0CBF9B61018BF00242D
:103DE00006D0013455F8043B9847A642F9D170BD7E
:103DF00070BD00BF7C4100007C4100008441000098
:103E00007C410000024B13B1024800F005B8704736
:103E100000000000253E0000002301461A46184617
:103E200000F014B838B5074D074C2C1BA41005D072
:103E3000013C55F8043D9847002CF9D1BDE83840C5
:103E400000F0A0B900000000000000002DE9F047DC
:103E5000254C2568D5F8484106468846924699463D
:103E6000C4B360681F2817DC431C76B104EB8005DF
:103E70000122C5F888A0D4F8881182401143022E8F
:103E8000C4F88811C5F808911ED00230636044F868
:103E900020800020BDE8F087144B03B34FF4C870B6
:103EA000AFF300800446D0B1D5F84831002780E850
:103EB0008800C5F8484138460123C4F88871C4F821
:103EC0008C71002EE1D0D1E7D4F88C110A43C4F8EC
:103ED0008C21DAE705F5A674C5F84841C1E74FF033
:103EE000FF30BDE8F08700BF6C410000000000001B
:103EF00031414C530000000044656D6F000000002C
:103F00005465656E737933365F32343000000000DB
:103F1000342E30004008FE4340A004404408FE43D5
:103F200044A004400018FE4300C004403000FE439B
:103F3000309004403400FE43349004401C18FE438B
:103F40001CC004401018FE4310C004400818FE4373
:103F500008C004400C18FE430CC004400C10FE4383
:103F60000CB004401010FE4310B004401810FE4383
:103F700018B004401C10FE431CB004401410FE4353
:103F800014B004400418FE4304C004400010FE4373
:103F900000B004400008FE4300A004400408FE43B3
:103FA00004A004400C08FE430CA004400808FE4393
:103FB00008A004401418FE4314C004401818FE431F
:103FC00018C004400410FE4304B004400810FE432F
:103FD00008B004406820FE4368D004401400FE434B
:103FE000149004403800FE43389004403C00FE43E7
:103FF0003C9004404000FE43409004404808FE438B
:1040000048A004404C08FE434CA004402808FE434E
:1040100028A004402C08FE432CA004406020FE434E
:1040200060D004406420FE4364D004402010FE436E
:1040300020B004402410FE4324B004402810FE4366
:1040400028B004402C10FE432CB004404400FE4332
:10405000449004407000FE43709004407400FE439E
:10406000749004406800FE43689004405008FE438A
:1040700050A004405808FE4358A004405C08FE438A
:104080005CA004405408FE4354A004402018FE43A2
:1040900020C004402418FE4324C004401008FE43FE
:1040A00010A004401408FE4314A004403818FE4336
:1040B00038C004403418FE4334C004403018FE4376
:1040C00030C004403C18FE433CC004402C18FE4362
:1040D0002CC004402820FE4328D004402C20FE435E
:1040E0002CD004400020FE4300D004400420FE43B6
:1040F00004D004400820FE4308D004400C20FE43B6
:104100000CD004401020FE4310D004401420FE4385
:1041100014D0044000151915000100004007FF1FCE
:1041200012000000000200006C07FF1F43000000A7
:1041300000030000C807FF1F00000000010309047E
:104140005407FF1F0000000002030904B007FF1F0F
:104150000000000003030904CC07FF1F000000005B
:10416000000000000000000000000000E807FF1F42
:10417000F8B500BFF8BC08BC9E467047053E00007D
:044180003504000002
:04418400F8B500BFCB
:104188000087930308000000FFFFFFFF0A040000F8
:104198001201010102000040C0168304000201025E
:1041A8000301000018035400650065006E007300E9
:1041B80079006400750069006E006F000902430011
:1041C800020100C0320904000001020201000524B6
:1041D800001001052401010104240206052406003B
:1041E800010705820310004009040100020A0000CB
:1041F8000007050302400000070584024000000094
:104208001603550053004200200053006500720059
:10421800690061006C000000040309040C0300003D
:104228000000000000000000000000000000000086
:10423800000000000000000000000000D40AFF1F7A
:104248003C0BFF1FA40BFF1F000000000000000034
:104258000000000000000000000000000000000056
:104268000000000000000000000000000000000046
:104278000000000000000000000000000000000036
:104288000000000000000000000000000000000026
:104298000000000000000000000000000000000016
:1042A8000000000000000000000000000000000006
:1042B80000000000000000000000000000000000F6
:1042C80000000000000000000000000000000000E6
:1042D80000000000000000000000000000000000D6
:1042E80001000000000000000E33CDAB34126DE673
:1042F800ECDE05000B0000000000000000000000DC
:1043080000000000000000000000000000000000A5
:104318000000000000000000000000000000000095
:104328000000000000000000000000000000000085
:104338000000000000000000000000000000000075
:00000001FF
