:1000000000800020BD010000E52C0000A92C0000AC
:10001000A92C0000A92C0000A92C0000A92C00008C
:10002000A92C0000A92C0000A92C0000E52C000040
:10003000E52C0000A92C0000E52C0000992C000004
:10004000E52C0000E52C0000E52C0000E52C00006C
:10005000E52C0000E52C0000E52C0000E52C00005C
:10006000E52C0000E52C0000E52C0000E52C00004C
:10007000E52C0000E52C0000E52C0000E52C00003C
:10008000E52C0000E52C0000E52C0000E52C00002C
:10009000E52C0000E52C0000E52C0000E52C00001C
:1000A000E52C0000E52C0000E52C0000E52C00000C
:1000B000E52C0000E52C0000E52C0000E52C0000FC
:1000C000E52C0000E52C0000E52C0000E52C0000EC
:1000D000E52C0000E52C0000E52C0000E52C0000DC
:1000E000E52C0000E52C0000E52C0000E52C0000CC
:1000F000E52C000045330000E52C0000A93A000083
:10010000E52C000025400000E52C0000E52C000057
:10011000E52C0000E52C0000E52C0000E52C00009B
:10012000E52C0000E52C0000E52C0000E52C00008B
:10013000E52C0000E52C0000E52C0000E52C00007B
:10014000E52C0000E52C0000E52C0000E52C00006B
:10015000E52C0000E52C0000E52C0000E52C00005B
:10016000E52C000009200000E52C0000E52C000033
:10017000E52C0000E52C0000E52C0000E52C00003B
:10018000E52C0000E52C0000E52C0000E52C00002B
:10019000E52C0000E52C0000E52C0000E52C00001B
:1001A000E52C0000E52C0000E52C0000E52C00000B
:1001B000E52C0000E52C0000E52C0000574B4CF22C
:1001C000205210B51A804DF628121A8000BF00BFC9
:1001D00002F08CFD524B4FF010621A60514A9A6047
:1001E000514ADA60A3F53043203B1A6812F480725A
:1001F00004D14E490A604FF4A8521A604C4B1A7849
:10020000110703D51A7842F008021A70494B4A4C7C
:100210004A482A221A704A4A00239918A14203D256
:10022000195899500433F8E7464B474900228B424E
:1002300002D243F8042BFAE74448454900235A58B0
:100240001A500433B3F5DE7FF9D1424B424A802184
:1002500003F8011B9342FBD1404B3C4A1A60404BD0
:100260000A221A70A3F5805324225A70A0221A7011
:100270009A799207FCD59A79D406FCD4394A9379B5
:1002800003F00C03082B374BF9D103221A714C22CF
:100290005A719A799006FCD5324A9179314B4906C8
:1002A000FBD5314A4FF001711160042151602022C9
:1002B0001A709A7902F00C020C2AFAD12B4B2C4AB4
:1002C0001A602C4B2C4A1A6000225A60072243F80D
:1002D000042C2A4AC3F80C2D62B601F055FD134BCD
:1002E0001B68DA0705D5264801F090FC254B264A05
:1002F0001A60264B1B785B0609D5224C224A2368DC
:10030000934204D11E4801F081FC0023236004F0D5
:1003100049F902F0F1FC02F0DBFBFEE70E2005409C
:1003200030800440823F04000100002B14D00340C1
:1003300002D0074000E00740408CFF1F484A000001
:100340006087FF1F408CFF1F7C7700200082FF1F0B
:100350000000000000E400E05FE400E008ED00E0E1
:1003600000500640004006404480044004800440A1
:10037000C010050014E000E07F32020000002020E1
:10038000F60DD3571CE00340A5C3945A00F0074074
:10039000FFFFFFFFFFFFFFFFFFFFFFFFFFFFFFFF6D
:1003A000FFFFFFFFFFFFFFFFFFFFFFFFFFFFFFFF5D
:1003B000FFFFFFFFFFFFFFFFFFFFFFFFFFFFFFFF4D
:1003C000FFFFFFFFFFFFFFFFFFFFFFFFFFFFFFFF3D
:1003D000FFFFFFFFFFFFFFFFFFFFFFFFFFFFFFFF2D
:1003E000FFFFFFFFFFFFFFFFFFFFFFFFFFFFFFFF1D
:1003F000FFFFFFFFFFFFFFFFFFFFFFFFFFFFFFFF0D
:10040000FFFFFFFFFFFFFFFFFFFFFFFFDEF9FFFF23
:1004100010B5054C237833B9044B13B10448AFF33E
:1004200000800123237010BD408CFF1F00000000DE
:10043000484A000008B5064B1BB106480649AFF311
:1004400000800648036813B1054B03B1984708BD07
:1004500000000000484A0000448CFF1F408CFF1F32
:10046000000000005C4B984271D8A3F5F403A3F59B
:10047000905398426ED8A3F57413A3F51063984275
:100480006AD8A3F51213A3F5F853984266D8A3F5DA
:10049000C313A3F52063984262D8504B984262D8A8
:1004A000A3F59213A3F5786398425FD84C4B98421A
:1004B0005FD84C4B98425ED8A3F51223A3F5F8639E
:1004C00098425BD8484B98425AD8484B984259D8E2
:1004D000474B984259D8474B984258D8464B984278
:1004E00057D8464B984256D8454B984256D8454B1C
:1004F000984255D8444B984254D8444B984254D8CB
:10050000434B984253D8434B984252D8424B98425F
:1005100052D8424B984251D8414B984250D8414B07
:10052000984250D84FF2234398424ED849F27B2349
:1005300098424CD844F63D1398424AD83A4B3B4A2D
:1005400042F29E41884294BF1046184670474FF0D1
:100550000040704736487047002070473548704764
:100560004FF48030704741F2010070474FF4003083
:1005700070473148704742F2030070472F48704778
:100580002F48704743F2040070472E4870472E48AA
:1005900070472E48704744F2050070472C4870475A
:1005A0002C48704745F2060070472B4870472B488F
:1005B000704746F20700704729487047294870473E
:1005C00047F2080070472848704728487047284875
:1005D00070472848704700BFFF356E017F8D5B0074
:1005E000FF083D00BFC62D007F841E005FE316009C
:1005F0007F4F12003F420F0035140D00AF710B000A
:10060000BF2709001FA10700D7B80500DF9304002A
:100610008FD003006BDC0200EF49020047E80100C5
:10062000356E0100F72401000A9002000BA00100C2
:1006300000000180000002800110010001000200A2
:100640000320010003200200043001000320030006
:100650000430020005400100054002000650010080
:1006600006500200076001000760020008700100E8
:10067000086002000980020010B5722800F20D81A6
:10068000DFE810F073007E0077000B0185000B019E
:100690000B010B010B010B0114010B010B011401E8
:1006A0000B010B010B0114010B0114010B010B01D8
:1006B0000B010B010B010B010B010B010B010B01DA
:1006C0000B010B010B010B010B010B010B010B01CA
:1006D0000B010B010B010B010B010B010B010B01BA
:1006E0000B010B010B011401850077000B011401B4
:1006F0000B010B010B010B010B010B010B010B019A
:100700000B010B010B010B010B010B010B010B0189
:100710000B010B010B010B010B010B010B010B0179
:100720000B010B010B010B010B010B010B010B0169
:100730000B010B010B010B010B010B010B010B0159
:100740000B010B010B010B010B010B010B010B0149
:100750000B010B010B010B010B010B010B010B0139
:100760000B010B010B010B01F8000022504B1A602A
:1007700010BD504803685B684F490422984710BD7C
:1007800020224E4B1A600122494B1A6010BD494C81
:1007900023681B6820460121984723685B68204630
:1007A00047490322984723685B6820464549092248
:1007B000984723681B6820460021984723681B68D8
:1007C00020460221984723685B6820463E49032261
:1007D000984723681B6820460021984723681B68B8
:1007E00020462121984723681B682046002198470E
:1007F00023681B6820460021984723681B68204611
:100800001021984723681B682046002198472368D9
:100810001B6820462321984723681B682046002137
:10082000984723681B6820460F21984723681B6858
:1008300020464221984723681B682046402198475C
:1008400023681B6820464021984723681B68204680
:100850000821984723681B68204641219847236850
:100860001B6820460221984723681B682046002108
:10087000984710BD4FF400638B624B620023CB603E
:1008800007230B60114B8B6018234B6020220B4B0E
:100890001A600122064B1A6010BD0D4B187004221D
:1008A0005A7100229A7101220A4B1A7010BD00BFC2
:1008B0006C8CFF1F947500204C47000084F00F40A3
:1008C000544700005847000064470000808D5B00DB
:1008D0009074002088740020924B1B78803B4E2B34
:1008E00000F21E81DFE813F0D900C3001C010E01E5
:1008F000FF001C011C011C011C011C011C011C012E
:100900001C011C011C011C011C011C011C011C01FF
:100910001C011C011C011C011C011C011C011C01EF
:100920001C011C011C011C011C011C011C011C01DF
:100930001C011C011C011C011C011C011C011C01CF
:100940001C011C011C011C011C011C011C011C01BF
:100950001C011C011C011C011C011C011C011C01AF
:100960001C011C011C011C014F0063007A001C01CA
:1009700054006B008D001C01590070009F001C0189
:100980005E007500B100674B5B7881F834307047CA
:10099000644B5B7881F835307047624B5B7881F847
:1009A000363070475F4B5B7881F8373070475D4B6E
:1009B0005B7881F838304FF0FF330B637047594B49
:1009C0005B7881F839307047564B5B7881F83A3064
:1009D0007047544B5B7881F83B307047514B9878A7
:1009E0005A7802EB00228A871B7913F0080F00F077
:1009F00097800B6BB3F1FF3F40F0928000230B63B5
:100A00007047484B98785A7802EB0022CA871B79C6
:100A100013F0080F00F084800B6BB3F1FF3F7FD120
:100A200001230B6370473F4B98785A7802EB002202
:100A3000A1F840201B7913F0080F71D00B6BB3F1B4
:100A4000FF3F6DD102230B637047364B98785A787D
:100A500002EB0022A1F842201B7913F0080F5FD0AF
:100A60000B6BB3F1FF3F5BD103230B6370472D4B3F
:100A700098785A7842EA0022013292008A62187904
:100A8000DB7843EA00239B000633CB60B2F5503F8E
:100A900046D14FF4E8238B627047224BD8789A787E
:100AA00042EA00205B7843EA0020086001301E4BD8
:100AB000B3FBF0F38B601D4B1A6822F0706242F0BA
:100AC00080721A601A6822F4702242F440321A606E
:100AD000174AB2FBF0F38B6016480260164AB2FB6D
:100AE000F3F34B6070470F4B1879DA7842EA002035
:100AF0009A7842EA00225B7843EA022301339B00A2
:100B00008B627047074B1879DA7842EA00209A78AE
:100B100042EA00225B7843EA02239B000633CB6063
:100B2000704700BF90740020006CDC0244800440D9
:100B300000A24A046087FF1F0044950810B52024D6
:100B4000054B1C60962001F009F9044B1C606420E1
:100B500001F004F910BD00BF84F00F4088F00F4091
:100B600008B50120002101F085F80820002101F0DE
:100B700081F80D20012101F07DF8FFF7DFFF034A26
:100B8000034B1A600022034B1A6008BD006CDC02A4
:100B90006087FF1F6C8CFF1F08B50F4B1B7813B1CC
:100BA000012B03D012E0FFF767FD08BD0B4B9A79CC
:100BB0000132D2B29A7198545B7993420BD10748B3
:100BC000FFF78AFE0022044B1A7008BDFFF7B6FF3C
:100BD0000022014B1A7008BD887400209074002018
:100BE00084B0124B1B6893B1114A12680192019AAA
:100BF00093420CD220220F4B1A6000220B4B1A603A
:100C00000B4B1B680293029A0F320B4B1A600A4B74
:100C10001B6843B1064A12680392039A934202D2B8
:100C20000022054B1A6004B0704700BF8C7400208E
:100C30009C74002088F00F40608CFF1F82B0074B2F
:100C40001B684BB9064B1B680193019A9632054B02
:100C50001A602022044B1A6002B07047608CFF1F9C
:100C60009C7400208C74002084F00F4082B0074BED
:100C70001B684BB9064B1B680193019A0A32054B5E
:100C80001A602022044B1A6002B07047608CFF1F6C
:100C90009C7400208C74002084F00F400A4B1A686A
:100CA00042F400021A60094B1A6822F002021A602C
:100CB00003F5847300221A60054A10601A6842F036
:100CC00001021A60704700BF3C800440007003407E
:100CD00000710340064B1A6822F002021A604FF4BA
:100CE000007203F5BC731A600122024B1A70704740
:100CF00010E000E0648CFF1F0B4B1B6813F4803F77
:100D000004D00A4B1A6842F080621A60064B1A68D7
:100D100042F002021A604FF40072F8331A600022A7
:100D2000034B1A70704700BF10E000E004ED00E0D4
:100D3000648CFF1F2DE9F00F86B001904369012BF1
:100D40005CD9D0F84490D9F80430DB0F816C009165
:100D5000894553D25B00039309F1080A00230293EB
:100D60001E2504950593D3465AF8086CD9F80470EB
:100D70001F231E214FF00040002503E00295049937
:100D8000059D013B1C4600EA060C2CFA03FC0CFAFC
:100D900001FCAC4442B900EA0705DD4001F101085D
:100DA00005FA08F5654415E0002B08DD00EA470563
:100DB000DD4001F1010805FA08F565440AE0009DEF
:100DC000AB4505D2D9F80C70FD0F0CEB450501E0E1
:100DD000039D654440080239102CCFD0012BD0D59B
:100DE00002994BF8081CC9F8045009F10809019B45
:100DF0009B6C00930AF1080A4B45B4D806B0BDE8D5
:100E0000F00F7047054B1A6842F440521A604FF4D5
:100E1000007203F57F5310331A6070473C80044022
:100E2000084B1A6842F440521A604FF4007203F5FE
:100E3000005308331A604FF4407203F5FE53183321
:100E40001A6070473C80044010B5054C054B236088
:100E5000FFF708FB40F0F040E060034BE36210BD99
:100E600000C00240014C1F0000000A0838B5194BB1
:100E70001A68194B1A60194B1A68194B1A60194BEA
:100E800098420CD9134B1A6822F070621A601A68E3
:100E900022F4702242F440321A60134D0CE00D4BE4
:100EA0001A6822F0706242F080721A6040000F4BA4
:100EB000A3FB002040080E4D0E4C0F4B2360FFF7A4
:100EC000D1FA40F0F040E0600C4BE362034B1D6050
:100ED00038BD00BF44800440688CFF1F6087FF1F3F
:100EE0005C8CFF1FFF6BDC0200449508ABAAAAAA2A
:100EF00000A24A0400D00240014C1F0000000A0872
:100F000010B504460A2000F029FF0A4A0A4B1A606D
:100F100014B1A3F580531A60084B1A6822F44052AA
:100F20001A60074B1A68074B1A60074B1A68074B81
:100F30001A6010BD01401F0000D002403C800440F8
:100F4000688CFF1F448004405C8CFF1F6087FF1F7C
:100F50002DE9F04107468846446C866C083EFFF751
:100F60005FFFB868FFF782FFFFF7B4FE144B9A6B80
:100F70009A6B9A6B9A6B9A6B124A1A604FF0004206
:100F80005A635A635A635A631A464FF00045D36A4C
:100F900013F0E00FFBD0916B936B03EB014344F82C
:100FA000043B55635563A642F1D1FFF7A5FE3B6AAA
:100FB000C8F800300020FFF7A3FFBDE8F08100BFB4
:100FC00000D0024000001FC02DE9F04F85B006465A
:100FD0000291D0F84490856C90F8343090F8380045
:100FE000326AB16AB1FBF2FA013AD2B2039213F05B
:100FF000010314D03269063209EB82073BB110F0CD
:10100000010F14BF4FF000084FF0010801E04FF04E
:101010000108BD4288BF002407D8002402E0032451
:101020004FF00108A5F10807FFE7FFF7F9FEB068E8
:10103000FFF71CFFFFF74EFE4C4B9A6B9A6B9A6BB7
:101040009A6B9A6B4A4A1A604FF000425A635A638D
:101050005A635A634FEA8A0ACDF804A04A464FF011
:10106000000C4FF00040DFF818E14FF0200A00E0DC
:101070000424D96A11F0E00FFBD0D3F838B0996B93
:1010800001EB0B4142F8041B5863586395420CD89E
:10109000726C9EF800B01BF0FB0F06D02022354B7F
:1010A0001A600022344B1A6042E0052CE1D80FF29E
:1010B000080B5BF824F000BF0F110000D1100000F6
:1010C00073100000711000001D11000009110000D4
:1010D000B8F1000F03D0B8F1000F06D10AE011F10A
:1010E000000C18BF4FF0010C04E011F1010C18BF07
:1010F0004FF0010CBCF1000FBBD03169A2EB8101B4
:10110000A1F108070324B4E7BA42B2D110E0BA4211
:10111000AFD31A49C1F800A00124AAE7B94584BF9A
:10112000DDF804B05F441349C1F800A00524A0E72E
:10113000FFF7E2FD336907EB8303C9EB030292106B
:10114000336ADDF80CB003FB02B3DDF808B0CBF86E
:101150000030B26A934224BFC2EB0303CBF80030E5
:101160000020FFF7CDFE05B0BDE8F08F00D00240B3
:1011700000001FC088F00F406C8CFF1F84F00F40F0
:10118000802007402DE9F84380468946446C876CEF
:10119000083FFFF745FED8F80800FFF767FEFFF7A6
:1011A00031FED8F80800FFF74FFEFFF793FDD8F89F
:1011B0000420594B996B996B996B996B9B6B574BAF
:1011C000996B996B996B996B9B6B022A0DD8544B59
:1011D000544A4FF0004151484F4D534E06602E6027
:1011E00019601160196011606BE0042A11D84C4B32
:1011F0004C4A4FF000414948474D4B4E066000BFF6
:1012000000BF2E60196000BF00BF1160196011603F
:1012100057E0082A19D8424B424A4FF000413F4854
:101220003D4D414E066000BF00BF00BF00BF00BF84
:1012300000BF2E60196000BF00BF00BF00BF00BF2D
:1012400000BF1160196011603BE00C2A21D8344BBB
:10125000344A4FF0004131482F4D334E066000BFF5
:1012600000BF00BF00BF00BF00BF00BF00BF00BF86
:1012700000BF2E60196000BF00BF00BF00BF00BFED
:1012800000BF00BF00BF00BF00BF11601960116048
:1012900017E0224A254911601F4B1960996B996B21
:1012A000996B996B996B916B916B916B916B916B46
:1012B0001D49116019604FF000415163516359633A
:1012C0005963164A4FF000435363536302F580524B
:1012D000536353631E46114DD36A13F0E00FFBD0E6
:1012E000916B936B03EB0143236056635663A96BC9
:1012F000AB6B03EB0143636008346E636E63A7421C
:10130000EAD1FFF7F9FCD8F82030C9F80030012005
:10131000FFF7F6FDBDE8F88300D0024000C00240B0
:1013200034C0024034D0024000001FC0000C1F80B7
:101330002DE9F04F85B006460291446C0094856C0F
:1013400090F8342090F83830016A806AB0FBF1F9E7
:101350000139C9B2039112F0030220D003F0030354
:101360003169063104EB810B012A05D113F1FF38F5
:1013700018BF4FF001080CE0022A40F09C81002BBE
:1013800000F0A08190E1002B00F0A7819DE14FF0DB
:1013900007085D4588BF002407D8002402E0032425
:1013A0004FF00108A5F1080BFFE7FFF739FDB06822
:1013B000FFF75CFDFFF726FDB068FFF745FDFFF77F
:1013C00089FC72689D4B996B996B996B996B9B6BC0
:1013D0009B4B996B996B996B996B9B6B022A12D8FB
:1013E000984B994A4FF000419548DFF850E2DFF8FA
:1013F00060C200BFC0F800C0CEF800C01960116024
:101400001960116077E0042A15D88E4B8E4A4FF090
:1014100000418B48DFF824E2DFF834C2C0F800C096
:1014200000BF00BFCEF800C0196000BF00BF116050
:10143000196011605FE0082A1DD8824B824A4FF084
:1014400000417F48DFF8F4E1DFF804C2C0F800C0D3
:1014500000BF00BF00BF00BF00BF00BFCEF800C08C
:10146000196000BF00BF00BF00BF00BF00BF116018
:10147000196011603FE00C2A25D8724B724A4FF078
:1014800000416F48DFF8B4E1DFF8C4C1C0F800C024
:1014900000BF00BF00BF00BF00BF00BF00BF00BF54
:1014A00000BF00BFCEF800C0196000BF00BF00BF82
:1014B00000BF00BF00BF00BF00BF00BF00BF116082
:1014C0001960116017E05E4A604911605B4B19605A
:1014D000996B996B996B996B996B916B916B916B04
:1014E000916B916B5A49116019604FF00041516343
:1014F000516359635963524A4FF000435363536336
:1015000002F58052536353634FEA8909CDF8049082
:10151000009A4FF0000A494B4FF000404849DFF86D
:101520004091AE4600E00424DD6A15F0E00FFBD0E8
:101530009F6B9D6B05EB0747176058635863D1F8A5
:1015400038C08D6B05EB0C45556008324863486325
:1015500096450CD8726C99F800C01CF0FB0F06D0B1
:1015600020223C4B1A6000223B4B1A6084E0052C81
:10157000DAD80FF2080C5CF824F000BF2D1600003A
:1015800095150000291500002715000065160000BC
:1015900025160000B8F1070F3AD8DFE808F0040A72
:1015A00010161C232A3217F1000A18BF4FF0010A47
:1015B0002EE017F1010A18BF4FF0010A28E015F1DB
:1015C000000A18BF4FF0010A22E015F1010A18BF06
:1015D0004FF0010A1CE03D420CBF4FF0000A4FF0F3
:1015E000010A15E03D4315F1010A18BF4FF0010A49
:1015F0000EE037EA05050CBF4FF0000A4FF0010A74
:1016000006E067EA050515F1010A18BF4FF0010A67
:10161000BAF1000F88D03469A2EB8404A4F1080B5E
:10162000032481E75A457FF47FAF25E05A45FFF454
:101630007BAF2024094D2C60012475E700D00240C7
:1016400000C0024034C0024034D00240000C1F8071
:1016500000001FC088F00F406C8CFF1F84F00F400B
:1016600080200740009C5C4584BF019DAB44202442
:10167000204D2C60052457E7FFF73EFB33690BEB49
:101680008303009C1A1B9210336A039D03FB0253D1
:10169000029C2360B26A934224BFC2EB030323601F
:1016A0000120FFF72DFC22E0022B0CBF4FF00208B7
:1016B0004FF001086DE6032A18BF4FF001087FF4D0
:1016C00068AE60E64FF0030863E6012B0CD0022BF6
:1016D0003FF45DAE4FF0010801E04FF00508032B29
:1016E00008BF4FF0040854E64FF0060851E605B075
:1016F000BDE8F08F88F00F4038B504460D464369C9
:10170000012B08D990F8343013B1FFF711FE0BE02C
:10171000FFF738FD08E090F8343013B1FFF754FCC0
:1017200038BDFFF715FC38BD626820462946102AEF
:101730008CBF00220122FFF7FDFA38BD84B08DE88E
:101740000F001399089BB1FBF3F2581E03FB121311
:10175000C31A079800FB03F3119850F82200D840F1
:10176000069A1040C0B204B0704700BF84B02DE9A3
:10177000F04F95B01EAC84E80F002A9F002F6DDB60
:10178000239C12940DF1780A56464FF000094FF051
:10179000FF3411946FF00D0807F11C030AEB4304AA
:1017A000139451E0B4F1704F41D22A970F94EE4652
:1017B0000DF1880CBCE80F00AEE80F00BCE80F008C
:1017C000AEE80F00BCE80F00AEE80F009CE8070091
:1017D0008EE807000DF1780E9EE80F00FFF7AEFFD0
:1017E00096F8342096F83830104083421FD12246B4
:1017F0004F4510D115F10E0F04D0139CA388D318B8
:10180000119300E01194129C022C16D10BF1FF33BE
:10181000319C236011E015F10E0F0DD0BAF83C8019
:10182000A844B8F1110FA8BF6FF00D0805E001350D
:101830000134112DB6D100E0A84609F101090AF1E1
:10184000020A0136B9450CDCB8F1100FF5DC319C09
:10185000D4F800B008EB0B044546A3E74FF0FF3483
:101860001194319C23681033119CA34224BF3199F9
:101870000C6015B0BDE8F04F04B0704784B02DE99E
:10188000F04F95B01EAC84E80F00219F249C10946B
:10189000279EDDF8A0B0DDF8A4809DF8AC309BB1A8
:1018A00031AB0F936C4622AD0FCD0FC40FCD0FC4DB
:1018B0000FCD0FC495E8070084E807000DF1780EFE
:1018C0009EE80F00FFF752FF319BBB4204D313F594
:1018D000803F88BF3B4600E03B46DB1B129308F18C
:1018E000FF33129C1C4411945C4523BFCBEB0404D2
:1018F0001194012400241394B04512D24546544C4F
:101900004FF0550A4FF0AA0923681B68204651463C
:10191000984723681B682046494698470235B542D8
:10192000F2D3139C4CB10BF1FF35DDF844904C46DB
:10193000002CB8BF552449DB02E0119D552445E039
:101940005524DDF840E05FFA8EFA6FEA0A02119240
:1019500013954D4633464646B9465F4693469846EC
:10196000CDF88490109B2493CDF89C8028972996DD
:101970000F95EE460DF1880CBCE80F00AEE80F00A5
:10198000BCE80F00AEE80F00BCE80F00AEE80F00A7
:101990009CE807008EE807000DF1780E9EE80F0026
:1019A000FFF7CCFE00EA0A0004EA0B031844C0B2B9
:1019B00001F02CF8E443E4B2013DB5F1FF3FCFD193
:1019C000139DBB464346B0464F461E46129AAA4256
:1019D00039DC109B5FFA83F96FEA090A11964646D3
:1019E00090463B465F469B46CDF884B0109A2492C1
:1019F000119B2793289729960F95EE460DF1880C99
:101A0000BCE80F00AEE80F00BCE80F00AEE80F0026
:101A1000BCE80F00AEE80F009CE807008EE8070066
:101A20000DF1780E9EE80F00FFF788FE00EA09002E
:101A300004EA0A031844C0B200F0E8FFE443E4B249
:101A4000013DA845D0DD15B0BDE8F04F04B07047AA
:101A50009475002070B592B0044620224A4B1A605B
:101A6000836A4362B3F5E82F05D94FF4E823836214
:101A70000123436111E0B3F5683F02D901234361BB
:101A80000BE0B3F5E83F02D90223436105E0B3F56B
:101A9000684F8CBF042308234361A36AE2689A421B
:101AA00088BFE3606369022B84BF02236361236BF9
:101AB000002BBCBF002323636369022B09D0042BD6
:101AC0000ED0012B13D1202323620123A361E361F4
:101AD00013E0102323620323A3610223E3610CE0DC
:101AE000082323620F23A3610423E36105E0042399
:101AF0002362FF23A3610823E361A26AE262236AEF
:101B000002EB8302A26221496164B2FBF3F001EBB4
:101B10008001A16494F8341019B1E168521AE260AE
:101B200001E00022E260E268B2FBF3F35A1C12F01B
:101B3000010F0EBF22610233236112AD002345F86D
:101B4000043D2068FFF7AAF820462946FFF7D4FD98
:101B50000F4B1B6893B1119B0F936D4604F1100658
:101B60000FCE0FC50FCE0FC50FCE0FC596E80700DD
:101B700085E8070094E80F00FFF780FE0022044B81
:101B80001A6012B070BD00BF88F00F40708CFF1F4C
:101B90006C8CFF1F70B596B0002306930793082244
:101BA0000892FF2109910A9204220B920C930D9343
:101BB0008DF840300F93124E124D134C00F07EFE04
:101BC000002807DDFFF752F800F02CFEC0B203A991
:101BD000FEF7E2FF336813B103A8FFF73BFF2B6862
:101BE0000193019A2368D31AB3F5FA6F05D92B68CC
:101BF0000293029B2360FFF721F8FEF7F1FFDDE778
:101C00006C8CFF1F9C74002098740020044B0022F1
:101C10001A6004490A60044A106010221A60704772
:101C200014D0034004D0034000D0034021281ED824
:101C30000F4B53F8303093F8802212F0FF0F08D08A
:101C400019B1012283F880207047012283F8002116
:101C50007047074B03EBC000436821B11A6842F09C
:101C600003021A6070471A6822F002021A60704775
:101C70006847000021284AD8254B03EBC0035B6866
:101C8000012911D004291DD0214A52F8302000200A
:101C900082F8800200292FD0022931D003291FD0D9
:101CA00040F203121A607047194A52F8302001219D
:101CB00082F880124FF4A2721A601A6822F0200291
:101CC0001A607047124A52F83020012182F88012BF
:101CD0004FF4A2721A601A6842F020021A6070472C
:101CE0004FF480721A601A6842F002021A601A6891
:101CF00022F001021A6070474FF480721A60704738
:101D00004FF480721A601A6842F003021A6070473A
:101D10006847000072B60D4B1B680D4A12680D49EA
:101D2000096862B611F0806F02D0322B88BF013291
:101D3000C3F50C3303F27F230749A1FB03035B09BF
:101D40004FF47A7000FB0230704700BF18E000E0EB
:101D50009C74002004ED00E0398EE33838B5054668
:101D6000FFF7D8FF044625B938BD013D0AD004F578
:101D70007A74FFF7CFFF001BB0F57A7FF5D200F041
:101D8000DFFEF6E738BD00BF10B5264B4FF400026A
:101D90001A604FF080721A604FF000721A604FF0B4
:101DA00080621A604FF000621A6000201E4B1860BB
:101DB0004BF6FF710433196028231C4A1360083264
:101DC000136008321360083213600832136008325F
:101DD000136008321360083213600922144C226029
:101DE00004F58054043420600434216004342360FA
:101DF00008342360143C226004F5FE24043420607F
:101E00000C4801600C490B6008310B600B4B1A60E9
:101E100000F0B8FE4FF4C870FFF7A0FF00F074FCAC
:101E200010BD00BF08E100E0048003400C800340C7
:101E30000080034008800B400C800B4000800B406A
:101E400030B40E4B1B7843F002020D4C04EBC2047D
:101E500060600C48007800280CBF8824C82444EA3D
:101E60000141074D45F8321080F00100054A10701D
:101E700083F00103014A137030BC704708750020DD
:101E80000080FF1F8175002010B4431E032B11D862
:101E900072B60A4A52F8230050B14268074941F825
:101EA0002320074A32F813400188611A22F81310E0
:101EB00062B600E000205DF8044B7047F874002023
:101EC00068770020013803280DD872B6074B53F805
:101ED00020302BB1002001305B68002BFBD100E0EB
:101EE000002062B670470020704700BF4C7500208C
:101EF00038B572B601231B491B4C5A1812F8012C35
:101F000012F0080F24D09A0054F832506DB9164BD5
:101F100003EBC20108304860144943F83210144BF7
:101F20001A78013A1A7062B638BD42F0010254F8CC
:101F300032506DB90C4B03EBC201083048600D49BB
:101F400043F832100A4B1A78013A1A7062B638BD5B
:101F50000133052BD1D162B60022054B1A7000F077
:101F600037FC38BDA04800000080FF1F88004000FB
:101F700076750020C800400010B4431E032B37D8EC
:101F8000400140F010001C4A104472B61B4AD25C5B
:101F9000032A09D8DFE802F019021B0508300222E3
:101FA00016E00830042213E0154A52F823201AB92B
:101FB000134A42F8231003E0124A52F823205160DA
:101FC000104A42F8231062B612E0032200E0052214
:101FD0000A4CE25401F10803436000F00803002BAF
:101FE0000CBF8823C8230A8843EA0243036062B611
:101FF0005DF8044B704700BF0080FF1FB4740020E1
:102000004C7500205C7500202DE9F84FA34CDFF8DB
:10201000E092DFF8E0A2DFF8E0B22578EDB215F04B
:10202000040F1DD09E4B1B7813F0FF0F16D09D4B55
:102030001B7803F0FF022BB1531EDBB2994A1370D9
:1020400003B900BE984B1B7803F0FF0233B1531E57
:10205000DBB2954A13700BB900F016FD0423237010
:1020600015F0080F00F0E48299F80030DBB21D098A
:1020700040F021828D4D9E0805EBC6035A6855F845
:102080003630C3F38303013B0C2B00F21082DFE8F0
:1020900013F0CB01CB010E020E020E020E020E0255
:1020A0000E02E8010E020E020E020D0080491368B6
:1020B0000B6052684A607F4A45F8362000227E490C
:1020C0000A607A490A618A6101217C4A11709BB2D7
:1020D00040F28162934218D8B3F5D06F2ED2B3F597
:1020E000817F00F01E8106D8802B00F0C980822BF2
:1020F00000F0CC8066E140F20232934200F026818B
:10210000B3F5A06F00F062815CE142F221029342DC
:1021100000F0868107D8B3F5086F00F0AB80B3F507
:10212000106F11D04EE142F22122934200F0418122
:1021300042F22132934200F0498143E1604B5D68F5
:10214000002D40F0188130E1594B9A78544B1A70A9
:10215000564D05F180062B6A13F0800F03D0686A94
:10216000083800F035FB0835B542F4D1DFF88C8132
:1021700000263746534AB05828B1456800F028FB7E
:102180000DB12846F9E700234E4973504E4AB3502B
:102190004E4BF05828B1456800F01AFB0DB12846A7
:1021A000F9E7002349497350494AB35028F8023FE0
:1021B000484BFB5C023B032B0AD8DFE803F0020626
:1021C00002060022434BDA5502E00122414BDA5568
:1021D00001370436102ECDD100223F4B1A70012555
:1021E0003E4EDFF81C81314F05EB080313F8013C2C
:1021F00006F8043B13F0080F2DD000F0C9FA48B1DF
:10220000A90007EB451200F108035360344A47F870
:10221000312007E0AB00002247F833202E4B1A781C
:1022200001321A7000F0B4FA58B1AB0043F0010368
:1022300007EBC30100F108024A601E4A47F8332049
:1022400009E0AB0043F00103002247F83320224BA2
:102250001A7801321A70AA0042F00201002347F8EE
:10226000313042F0030247F8323001351D4B9E42B7
:10227000BAD11EE20A4B1B781B4D2B700127AAE036
:10228000194D00232B706B700227A4E0084B9B882C
:10229000042B37D90F22154B1A70C1E0802007405C
:1022A0008075002009750020827500200080FF1FC6
:1022B0006C750020C8004000A074002081750020CB
:1022C000A4480000F8740020A47400204C7500207D
:1022D0005C750020B474002076750020C42007408F
:1022E00088004000D420074078750020C0200740B7
:1022F00090200740942007409820074066770020F0
:10230000A0480000A04A0021117051709F4A12F8A5
:10231000233013F0020F5CD09B4D01232B7002275A
:1023200059E09B4B9B8803F07F03042B02DC984A07
:1023300052881AB10F22954B1A7071E0934A12F825
:10234000231021F0020102F82310B2E1904B9B8888
:1023500003F07F03042B02DC8D4A52881AB10F224E
:102360008A4B1A705CE0894A12F8231041F002018E
:1023700002F823109DE1864B5E889F88854BA3F170
:102380000C02114633F80C0CB04209D133F80A0C98
:10239000B84205D1360A032E0CBF2F7817891AE0F0
:1023A0000D690C330C32002DEBD10F22774B1A70D4
:1023B00036E0794B1A68794B1A60754B9A78784BEE
:1023C0001A7076E10F22714B1A7029E000273D4602
:1023D00001E002276C4D6E4BDB889F4228BF1F46F1
:1023E000402F34BF3E46402628463146FFF728FDA1
:1023F0003544BF1B03D13F2E00F2608110E0402F17
:1024000034BF3E46402628463146FFF719FD354485
:10241000BF1B01D13F2E03D9624B1D60624B1F8051
:1024200001238AF8003042E0594B198842F2210317
:10243000994212D15D4BD81D12F8011B03F8011F00
:102440008342F9D15A4B1B68862B02D10F22594B7C
:102450001A7000200146FFF7F3FC574B45F8363061
:1024600025E0504B1E68BEB14F4FB7F80080B8F161
:10247000400F34BF4546402530462946FFF7E0FC73
:10248000C5EB08039BB23B800BB9402D01D135440D
:1024900000E00025434B1D603D4B1B88B3F5A06F4A
:1024A00005D13B4B00225A709B788BF800300123FA
:1024B0008AF80030B9E0414E9F0806EBC708D8F80B
:1024C0000420A2F10800013DEDB213F0080F47D03F
:1024D00000F07EF93A4B53F825304BB35A6838492F
:1024E00041F8252003F10802C8F80420354A525D5E
:1024F000032A12D8DFE802F002060A0E0321314A4D
:1025000051550AE002212F4A515506E005212D4A76
:10251000515502E004212B4A515518F0080F0CBF09
:102520008822C8221B8842EA034346F837307CE001
:10253000244B5B5D032B0BD8DFE803F077770206B3
:102540000022204B5A5570E001221E4B5A556CE078
:1025500018F0080F0CBF022203221A4B5A5564E0F0
:1025600056F837301B0C22F8083C002B55D00023BE
:1025700022F8063C42F8043C134B53F825302BBBA1
:10258000114B43F8250025E078750020C020074056
:102590006C750020B04800009C7400207877002003
:1025A00090750020A0740020747500206F770020C3
:1025B0007077002009750020C80040000080FF1FD0
:1025C0004C750020B4740020F87400203F4B53F881
:1025D000253058603D4B43F825003D4B33F815102E
:1025E00032F8082C0A4423F8152000F0D1F860B125
:1025F00000F10803C8F8043018F0080F354B364ACC
:1026000008BF134646F837300FE0002346F837304E
:10261000324B1A7801321A7007E018F0080F2D4B70
:102620002D4A08BF134646F8373008232370F4E4D8
:1026300015F0010F22D02A4902230B700022294BEA
:102640001A70294B24481860284C5C609860284810
:10265000D8601A619A610D20264B1870FF23264816
:1026600003700838037018300270244A13709F22D8
:10267000234B1A7001230B70BDE8F88F15F0800F03
:1026800005D00D221B4B1A708022403B1A7015F0AA
:10269000020F06D0184B1A78D2B21A700222083BE9
:1026A0001A7015F0100F0ED01022164B1A70BDE8DC
:1026B000F88F00200146FFF7C3FBB1E62846002152
:1026C000FFF7BEFBACE6BDE8F88F00BFA4740020A6
:1026D00068770020C8004000880040007675002020
:1026E00094200740087500200080FF1FB874002068
:1026F0000C750020C0200740882007408C20074030
:10270000842007408020074008B501F0FFFC00232B
:102710001B491A465A50C81842600833882BF9D111
:10272000184B1A6842F480221A60154BC3F3072134
:10273000154A1170C3F30741143211701B0E043295
:102740001370FF23343A137008321370783A137001
:1027500001238432137000216C3211707C3A1370A3
:1027600070220A4B1A704FF40072A3F241331A60C0
:10277000102203F1C04303F5C8231A7008BD00BF3F
:102780000080FF1F348004409C20074049E400E0A3
:1027900072B60D4B1A68B2FA82F30B2B02D962B6ED
:1027A000002070474FF00041D94022EA010206495B
:1027B0000A6062B6054903EBC303DB00C8180022B8
:1027C000CA504260704700BF6487FF1F0084FF1F2C
:1027D00008B50F4BC31A0F4AA2FB03131B090B2B9F
:1027E00014D80D4A12783AB10C4A127812F0FF0F41
:1027F00002D0FFF77DFB08BD72B6094A4FF00041D9
:1028000021FA03F311681943116062B608BD00BFD5
:102810000084FF1F398EE338767500208075002014
:102820006487FF1F10B5134B1B6853B9124B1B78FD
:1028300013F0FF0F18D00320FFF726FB0D4B186095
:10284000A8B10C4B186843885A1C03441C7A0388AF
:102850009A4206D3FFF7BCFF0022064B1A602046BF
:1028600010BD4280204610BD4FF0FF3010BD4FF02C
:10287000FF3010BD8C7500208075002008B50D4B11
:102880001B6883B90C4B1B7813F0FF0F08D0032093
:10289000FFF7FAFA074B186028B94FF0FF3008BD70
:1028A0004FF0FF3008BD034B1B685A881344187A59
:1028B00008BD00BF8C75002080750020044B9888EF
:1028C000044B1B681BB11A885B88D31A18447047E5
:1028D000687700208C75002010B50B4B1B7813F027
:1028E000FF0F0FD0094B186820B1FFF771FF0022CE
:1028F000064B1A6003242046FFF7C6FA10B1FFF713
:1029000067FFF8E710BD00BF807500208C750020C0
:102910002DE9F04704460122374B1A700E46002974
:1029200064D0DFF8E080DFF8E0909A46334FD8F8C3
:10293000003083BB99F8003013F0FF0F06D100225E
:102940002D4B1A704FF0FF30BDE8F0874FF6D96578
:102950000420FFF7B7FA07280AD801238AF80030C5
:10296000FFF716FFC8F80000A8B900238AF8003066
:10297000013D01D03B7833B10122204B1A704FF05A
:10298000FF30BDE8F08700F0DBF899F8003013F075
:10299000FF0FDDD1D3E700233B70D8F800104A8841
:1029A000C2F14005AE4238BF354602F108030B4480
:1029B0002A444A80761B3DB1254414F8012B03F8C4
:1029C000012BAC42F9D100E025464B883F2B07D9BB
:1029D00040230B800420FFF7CFFA0023C8F8003013
:1029E0000522074B1A700EB12C46A0E70020024BBF
:1029F0001870BDE8F08700BF83750020887500203F
:102A000082750020847500208075002000B583B099
:102A100002AB03F8010D18460121FFF779FF03B05F
:102A20005DF804FB10B5144B1B7813F0FF0F21D099
:102A30000122124B1A70124B196851B10024114B2C
:102A40001C704B880B800420FFF796FA0C4B1C601F
:102A50000DE0FFF79DFE014630B10022094B1A70D0
:102A60000420FFF789FA02E00122064B1A700022C7
:102A7000024B1A7010BD00BF8075002083750020C6
:102A8000847500208275002008B50E4B1B7813F06A
:102A9000FF0F16D10C4B196841B14B880B800420F5
:102AA000FFF76AFA0022084B1A6008BDFFF770FEB4
:102AB000014618B10420FFF75FFA08BD0122034B5D
:102AC0001A7008BD8375002084750020827500206F
:102AD00008B5FEF745F8FFF75DF800F031F8FAE7C2
:102AE00008B5FFF7EBFE08BD08B5FFF79BFE08BD74
:102AF00008B5FFF7C3FE08BD08B5FFF793FF08BD93
:102B000008B5FFF7E9FE08BD08B50846FFF77EFFE8
:102B100008BD00BF08B508461146FFF7F9FE08BD1D
:102B2000704700BF044B00221A714FF47A7199600C
:102B30001A73024A1A60704794750020804800009A
:102B400008B50F4B1B78CBB901220D4B1A70FFF75C
:102B5000B5FE08B1FFF7E4FF00F06AFB08B101F031
:102B6000ABFB00F017FF08B101F048FC01F0E4F9FD
:102B700008B101F0E5FC0022014B1A7008BD00BF4E
:102B8000A475002060223A4B1A70E12201331A70BA
:102B9000384B1B78082B10D1012203F1804303F539
:102BA0006C331A60132334490B6001F5FF2101F2E5
:102BB000FC710A60314A13601FE00A2B0DD13922E3
:102BC0002F4B1A6013232C490B6001F5FF2101F2F2
:102BD000FC710A60294A13600FE00C2B0CBF3522F0
:102BE0003D22274B1A60122323490B6001F5FF2178
:102BF00001F2FC710A60214A1360224B1B7833B149
:102C00000123214A136002F50022136005E000232E
:102C10001D4A136002F5002213601C4B1B78012B28
:102C200006D880231A4A136002F5002213601AE0C6
:102C3000042B06D88423164A136002F50022136081
:102C400011E0082B06D88523114A136002F50022F3
:102C5000136008E0102B94BF862387230C4A13606F
:102C600002F50022136001220A4B1A70704700BF60
:102C7000004007406887FF1F0CB003400CB00B40BA
:102C800008B00340A675002020B003406987FF1FED
:102C900024B00340A5750020024B1A6801321A6067
:102CA000704700BF9C74002008B50D4C236813F4D6
:102CB000802F01D0FFF7A8F9236813F4806F01D0AB
:102CC00000F040FB236813F4006F01D000F0ECFE2D
:102CD000236813F4805FE9D001F0A4F9E6E700BFB0
:102CE0003480044008B5FFF7DFFF00BF1022014B1E
:102CF0001A80704700200540704700BFEFF3138330
:102D0000ABB9EFF31083ABB9EFF3058323B10F2B0E
:102D100005D9094A985C03E04FF4807000E0002078
:102D2000EFF311833BB1834238BF184670474FF031
:102D3000FF30704700207047F0E300E0254B1A6831
:102D400042F480621A600023234A1370234A1370EE
:102D5000234A1370234A1370234A1370234B1B78A2
:102D600013B1152B05D008E040F21332204B1A6046
:102D700003E040F213321F4B1A601F4B1B78012BEC
:102D800002D0052B05D008E04FF451721B4B1A609E
:102D900003E04FF451721A4B1A60C0F34432194BDE
:102DA0001A70C0F347125A7000F01F009872042284
:102DB0009A700221D9745A7588221A743C22DA70EA
:102DC0004022114B1A704FF40052A3F229331A60BB
:102DD000704700BF3480044034760020AD75002079
:102DE0003C76002035760020AC750020F075002080
:102DF00040A0044018C004406A87FF1F44A004405C
:102E00001CC0044000A006402DE400E0164B9B7857
:102E100003F0EC0300F00302134310F0040F18BF9B
:102E200043F01003104A937000F00F03042B04D1F9
:102E30001346927942F040029A710B4B5A7902F094
:102E4000EF0210F0100F18BF42F01002064B5A713B
:102E50009B7903F0EF0310F0200F18BF43F010032D
:102E6000014A9371704700BF00A0064010B5144B93
:102E70001B6813F4806F21D0124B1B7813F0FF0FE7
:102E800006D0104CFFF75CFE237813F0FF0FF9D14A
:102E90004FF400520C4B1A6000230C4AD37040F2DE
:102EA00003120B490A6004310A600A4A13700A4A85
:102EB00013700A4B1B680BB101221A7010BD00BFC2
:102EC00034800440AC75002084E100E000A006409E
:102ED00040A0044034760020AD750020A875002085
:102EE00010B50446094A137813F0FF0FFBD12046B2
:102EF0000121FEF7BFFE20460021FEF797FE044B9E
:102F000053F83420034B1A6010BD00BFAC7500208D
:102F1000684700003876002010B40C4609B140F034
:102F20008000184B1B78984228D0174A126812F478
:102F3000806F21D003F07F03012B02D0052B04D03A
:102F400006E00022114B1A6002E00022104B1A60CA
:102F5000002C0CBF4422602200F07F03012B02D022
:102F6000052B05D008E042F44072084B1A6003E0DC
:102F700042F44072064B1A60024B18705DF8044B25
:102F8000704700BF6A87FF1F3480044044A004409C
:102F90001CC00440114B1B7898421ED0104A126886
:102FA00012F4806F17D013B1152B04D006E0002265
:102FB0000C4B1A6002E000220B4B1A6010B115286E
:102FC00005D008E040F21332064B1A6003E040F2ED
:102FD0001332054B1A60014B18707047F0750020D2
:102FE0003480044040A0044018C0044010B50D4B8C
:102FF0001B6813F4806F12D021280CD80A4C0B4B9D
:1030000053F8303023600121FEF734FE236800229C
:103010001A70012010BD0020034B186010BD002065
:1030200010BD00BF34800440A87500206847000030
:10303000114B1B6813F4806F1BD0122804D140F28F
:1030400002320E4B1A600DE0142804D140F2023215
:103050000B4B1A6006E00B4B5A7B02F0FE025A73D0
:1030600000207047074B5A7B42F001025A7301203F
:1030700070470020704700BF348004400CA004401B
:1030800014C0044000A006402DE9F04107461F4B44
:103090001B6813F4806F37D01D4B1B680BB10122E6
:1030A0001A701C4B1C780134402C28BF00241A4D88
:1030B0001A4EDFF86C8017E0FFF720FE40280FDC87
:1030C000337913F0800F0FD02B780133402B28BFBA
:1030D000002318F80320D2B2F271DBB22B7003E0A8
:1030E000FF2801DDFFF72CFD2B78DBB29C42E3D0FB
:1030F000FFB20B4B1F5501220A4B1A70E4B2054B6D
:103100001C70BC22054BDA70BDE8F08134800440AD
:10311000387600203C7600203576002000A006405E
:10312000B0750020AC7500202DE9F84F0746284BFC
:103130001B6813F4806F49D0264B1B680BB101222A
:103140001A7007EB010B5F453DD2DFF89890224ED5
:10315000DFF88C80DFF890A099F800400134402C13
:1031600028BF00243578EDB2A54220D1BC2388F8D1
:103170000330FFF7C3FD402811DC98F8043013F04A
:10318000800F10D033780133402B28BF00231AF86A
:103190000320D2B288F80720DBB2337003E0FF28A7
:1031A00001DDFFF7CDFC3378DBB29D42E1D017F8AB
:1031B000013B0AF804300122084B1A70E4B289F886
:1031C00000405F45C8D1BC22054BDA70BDE8F88FDE
:1031D000348004403876002035760020AC7500201D
:1031E00000A006403C760020B075002010B5064BCC
:1031F0001B7813F0FF0F06D0034CFFF7A1FC2378D8
:1032000013F0FF0FF9D110BDAC750020064B1B78F1
:10321000DBB2064A1278D2B293422CBF3F3202F19F
:10322000FF32D01A704700BF3C7600203576002070
:10323000054B1878C0B2054B1B78DBB2984238BFFB
:103240004030C01A704700BF34760020AD750020B2
:1032500010B4184B1A78D2B2174B1B78DBB29A42D3
:1032600018D001333F2B18D81449C85CC0B2DCB267
:1032700011490C7012490968C9B19A4203D300E0A0
:103280000023D31A01E04032D31A1A2B0FDC00239B
:103290000B700CE04FF0FF3009E0084B1878C0B21B
:1032A0000021054B1970064B19680029E8D15DF81B
:1032B000044B704734760020AD750020F475002073
:1032C000A8750020094B1A78D2B2094B1B78DBB2E3
:1032D0009A4207D00133402B28BF0023054AD05C17
:1032E000C0B270474FF0FF30704700BF3476002007
:1032F000AD750020F47500200D4B1B6813F4806F32
:1033000014D00C4BDA7802F0CB02DA7040225A74F7
:10331000DA7842F03402DA70074B1A78D2B2074BEF
:103320001A70074B1B680BB100221A70704700BF60
:103330003480044000A00640AD75002034760020A3
:10334000A875002070B43D4B1B7913F0300F33D0BB
:1033500072B63A4B9B7D03F0FF022BB9374BDA79FB
:1033600040225A7462B627E062B6354B1978C9B26A
:10337000344B1C78E4B2314D334EEB79D8B24B1C50
:10338000402B28BF0023A3421CBFF0541946531EF4
:1033900013F0FF02F1D1CAB2294B1A702B4B1B68F4
:1033A00053B1A1422EBFC4EB0101C4F1400409197D
:1033B0002729C4BF01221A70204BDA78D2B212F04A
:1033C000800F27D01B7913F0800F23D0204B1C785F
:1033D000E4B2204B1B78DBB29C4210D017491E4D43
:1033E00001E0A3420BD00133402B28BF0023087912
:1033F000E85CC0B2C871087DC0B20728F1D9DBB261
:1034000014490B700D4B1B7913F0800F02D07C21F7
:103410000A4BD97012F0400F0ED0084B1B7913F0F5
:10342000400F09D000220D4B1A700D4B1B6803B1E1
:103430001A703C22014BDA7070BC704700A0064045
:1034400034760020AD750020F4750020A8750020AA
:103450003C76002035760020B0750020AC75002049
:1034600038760020254B1A6842F400621A60002367
:10347000234A1370234A1370234A1370234A13708C
:10348000234A1370234B1B78092B02D01A2B05D02B
:1034900008E040F21332204B1A6003E040F213328E
:1034A0001E4B1A601E4B1B780A2B02D01F2B05D017
:1034B00008E04FF451721B4B1A6003E04FF4517255
:1034C000194B1A60C0F34432184B1A70C0F34712FC
:1034D0005A7000F01F00987204229A700221D97469
:1034E0005A7588221A743C22DA704022104B1A70E6
:1034F0004FF40042A3F22B331A607047348004402B
:10350000B076002045760020B8760020B176002005
:10351000447600206B87FF1F0CB0044004D00440A9
:103520006C87FF1F10B0044000D0044000B006407C
:103530002FE400E0164B9B7803F0EC0300F003024D
:10354000134310F0040F18BF43F01003104A937098
:1035500000F00F03042B04D11346927942F040028D
:103560009A710B4B5A7902F0EF0210F0100F18BF4E
:1035700042F01002064B5A719B7903F0EF0310F0F2
:10358000200F18BF43F01003014A9371704700BF2A
:1035900000B0064010B5224B1B6813F4006F3ED0FC
:1035A000204B1B7813F0FF0F06D01E4CFFF7C8FA14
:1035B000237813F0FF0FF9D14FF400421A4B1A6031
:1035C00000221A4BDA701A4B1B78092B02D01A2BE7
:1035D00005D008E040F20312164B1A6003E040F2F7
:1035E0000312154B1A60154B1B7803F07F030A2B4F
:1035F00002D01F2B05D008E040F20312104B1A60D6
:1036000003E040F203120F4B1A6000230E4A1370BE
:103610000E4A13700E4B1B680BB101221A7010BDBD
:10362000348004404476002084E100E000B006408D
:103630006B87FF1F0CB0044004D004406C87FF1F51
:1036400010B0044000D00440B07600204576002041
:103650004076002010B50446094A137813F0FF0F96
:10366000FBD120460121FEF705FB20460021FEF795
:10367000DDFA044B53F83420034B1A6010BD00BF31
:103680004476002068470000B476002010B40C4651
:1036900009B140F08000184B1B78984228D0174A97
:1036A000126812F4006F21D003F07F030A2B02D0BE
:1036B0001F2B04D006E00022114B1A6002E000220A
:1036C000104B1A60002C0CBF4422602200F07F03D4
:1036D0000A2B02D01F2B05D008E042F44072084BA1
:1036E0001A6003E042F44072064B1A60024B1870F5
:1036F0005DF8044B704700BF6C87FF1F34800440A7
:1037000010B0044000D00440124B1B78984220D0E7
:10371000114A126812F4006F19D0092B02D01A2B2B
:1037200004D006E000220D4B1A6002E000220C4B90
:103730001A60092802D01A2805D008E040F2133296
:10374000064B1A6003E040F21332054B1A60014B3E
:10375000187070476B87FF1F348004400CB0044022
:1037600004D0044010B50D4B1B6813F4006F12D049
:1037700021280CD80A4C0B4B53F830302360012120
:10378000FEF778FA236800221A70012010BD00208D
:10379000034B186010BD002010BD00BF34800440F2
:1037A00040760020684700000D4B1B6813F4006F43
:1037B00013D017280AD140F202320A4B1A600A4B82
:1037C0005A7B42F001025A7301207047064B5A7B24
:1037D00002F0FE025A73002070470020704700BFBD
:1037E0003480044008B0044000B006402DE9F041A8
:1037F00007461F4B1B6813F4006F37D01D4B1B6827
:103800000BB101221A701C4B1C780134282C28BFE4
:1038100000241A4D1A4EDFF86C8017E0FFF76EFA9D
:1038200040280FDC337913F0800F0FD02B78013351
:10383000282B28BF002318F80320D2B2F271DBB284
:103840002B7003E0FF2801DDFFF77AF92B78DBB25C
:103850009C42E3D0FFB20B4B1F5501220A4B1A705A
:10386000E4B2054B1C70BC22054BDA70BDE8F08158
:1038700034800440B4760020B8760020B176002071
:1038800000B0064048760020447600202DE9F84F2D
:103890000746284B1B6813F4006F49D0264B1B6862
:1038A0000BB101221A7007EB010B5F453DD2DFF827
:1038B0009890224EDFF88C80DFF890A099F80040B5
:1038C0000134282C28BF00243578EDB2A54220D140
:1038D000BC2388F80330FFF711FA402811DC98F870
:1038E000043013F0800F10D033780133282B28BF19
:1038F00000231AF80320D2B288F80720DBB2337015
:1039000003E0FF2801DDFFF71BF93378DBB29D42AE
:10391000E1D017F8013B0AF804300122084B1A7075
:10392000E4B289F800405F45C8D1BC22054BDA708B
:10393000BDE8F88F34800440B4760020B1760020D2
:103940004476002000B00640B8760020487600207B
:1039500010B5064B1B7813F0FF0F06D0034CFFF792
:10396000EFF8237813F0FF0FF9D110BD4476002053
:10397000064B1B78DBB2064A1278D2B293422CBFB8
:10398000273202F1FF32D01A704700BFB87600200C
:10399000B1760020054B1878C0B2054B1B78DBB21E
:1039A000984238BF4030C01A704700BFB076002040
:1039B0004576002010B4184B1A78D2B2174B1B78FA
:1039C000DBB29A4218D001333F2B18D81449C85C97
:1039D000C0B2DCB211490C7012490968C9B19A42EF
:1039E00003D300E00023D31A01E04032D31A1A2B8C
:1039F0000FDC00230B700CE04FF0FF3009E0084BA8
:103A00001878C0B20021054B1970064B19680029BF
:103A1000E8D15DF8044B7047B07600204576002071
:103A20007076002040760020094B1A78D2B2094BFC
:103A30001B78DBB29A4207D00133402B28BF00230A
:103A4000054AD05CC0B270474FF0FF30704700BFEE
:103A5000B076002045760020707600200D4B1B6864
:103A600013F4006F14D00C4BDA7802F0CB02DA704A
:103A700040225A74DA7842F03402DA70074B1A782E
:103A8000D2B2074B1A70074B1B680BB100221A7099
:103A9000704700BF3480044000B0064045760020E7
:103AA000B07600204076002070B43D4B1B7913F0B7
:103AB000300F33D072B63A4B9B7D03F0FF022BB927
:103AC000374BDA7940225A7462B627E062B6354B3A
:103AD0001978C9B2344B1C78E4B2314D334EEB79CE
:103AE000D8B24B1C402B28BF0023A3421CBFF0546C
:103AF0001946531E13F0FF02F1D1CAB2294B1A70B6
:103B00002B4B1B6853B1A1422EBFC4EB0101C4F182
:103B1000400409192729C4BF01221A70204BDA7802
:103B2000D2B212F0800F27D01B7913F0800F23D070
:103B3000204B1C78E4B2204B1B78DBB29C4210D0A7
:103B400017491E4D01E0A3420BD00133282B28BF9B
:103B500000230879E85CC0B2C871087DC0B20728AC
:103B6000F1D9DBB214490B700D4B1B7913F0800FA8
:103B700002D07C210A4BD97012F0400F0ED0084BB6
:103B80001B7913F0400F09D000220D4B1A700D4B1A
:103B90001B6803B11A703C22014BDA7070BC70478D
:103BA00000B00640B07600204576002070760020F8
:103BB00040760020B8760020B176002048760020BC
:103BC00044760020B4760020174B1A6842F48052E5
:103BD0001A600023154A1370154A1370154A1370A2
:103BE000154A1370154A137040F21331144A1160CC
:103BF0004FF4517104321160C0F34431114A117015
:103C0000C0F34711517000F01F009072937013744D
:103C10002C23D37040220C4B1A704FF40032A3F2C5
:103C20002D331A60704700BF348004402C77002089
:103C3000C1760020347700202D770020C076002048
:103C400008C0044000C0064031E400E0164B9B78F9
:103C500003F0EC0300F00302134310F0040F18BF4D
:103C600043F01003104A937000F00F03042B04D1AB
:103C70001346927942F040029A710B4B5A7902F046
:103C8000EF0210F0100F18BF42F01002064B5A71ED
:103C90009B7903F0EF0310F0200F18BF43F01003DF
:103CA000014A9371704700BF00C0064010B5144B25
:103CB0001B6813F4805F21D0124B1B7813F0FF0FA9
:103CC00006D0104CFEF73CFF237813F0FF0FF9D11C
:103CD0004FF400320C4B1A6000230C4AD37040F2B0
:103CE00003120B490A6004310A600A4A13700A4A37
:103CF00013700A4B1B680BB101221A7010BD00BF74
:103D000034800440C076002084E100E000C006401A
:103D100008C004402C770020C1760020BC7600202B
:103D200010B50446094A137813F0FF0FFBD1204663
:103D30000121FDF79FFF20460021FDF777FF044B8F
:103D400053F83420034B1A6010BD00BFC07600202A
:103D5000684700003077002010B40C4609B140F0ED
:103D60008000104B1B78984219D00F4A126812F449
:103D7000805F12D003F07F03082B02D100220B4B8F
:103D80001A60002C0CBF4422602200F07F03082B35
:103D900003D142F44072054B1A60024B18705DF873
:103DA000044B70476D87FF1F348004400CC00440F3
:103DB000704700BF10B50D4B1B6813F4805F12D025
:103DC00021280CD80A4C0B4B53F8303023600121CA
:103DD000FDF750FF236800221A70012010BD00205B
:103DE000034B186010BD002010BD00BF348004409C
:103DF000BC760020684700000D4B1B6813F4805F01
:103E000013D00E280AD140F202320A4B1A600A4B34
:103E10005A7B42F001025A7301207047064B5A7BCD
:103E200002F0FE025A73002070470020704700BF66
:103E30003480044004C0044000C006402DE9F04135
:103E400007461F4B1B6813F4805F37D01D4B1B6860
:103E50000BB101221A701C4B1C780134282C28BF8E
:103E600000241A4D1A4EDFF86C8017E0FEF746FF6B
:103E700040280FDC337913F0800F0FD02B780133FB
:103E8000282B28BF002318F80320D2B2F271DBB22E
:103E90002B7003E0FF2801DDFEF752FE2B78DBB22A
:103EA0009C42E3D0FFB20B4B1F5501220A4B1A7004
:103EB000E4B2054B1C70AC22054BDA70BDE8F08112
:103EC0003480044030770020347700202D770020A4
:103ED00000C00640C4760020C076002038B50546F4
:103EE0000C4629B115F8010BFFF7A8FF013CF9D1E9
:103EF00038BD00BF10B5064B1B7813F0FF0F06D07E
:103F0000034CFEF71DFE237813F0FF0FF9D110BD0F
:103F1000C0760020064B1B78DBB2064A1278D2B27C
:103F200093422CBF273202F1FF32D01A704700BFF4
:103F3000347700202D770020054B1878C0B2054B50
:103F40001B78DBB2984238BF4030C01A704700BFC0
:103F50002C770020C176002010B4184B1A78D2B20A
:103F6000174B1B78DBB29A4218D001333F2B18D87D
:103F70001449C85CC0B2DCB211490C70124909681E
:103F8000C9B19A4203D300E00023D31A01E04032C2
:103F9000D31A1A2B0FDC00230B700CE04FF0FF300C
:103FA00009E0084B1878C0B20021054B1970064B88
:103FB00019680029E8D15DF8044B70472C77002080
:103FC000C1760020EC760020BC760020094B1A78E0
:103FD000D2B2094B1B78DBB29A4207D00133402B97
:103FE00028BF0023054AD05CC0B270474FF0FF30B5
:103FF000704700BF2C770020C1760020EC760020AF
:10400000054B1A78D2B2054B1A70054B1B680BB1E1
:1040100000221A70704700BFC17600202C77002064
:10402000BC7600202F4B1B7913F0200F23D02D4B93
:10403000DB79D9B22C4B1B780133402B28BF0023EE
:104040002A4A1278D2B29A4204D0294AD154D9B21B
:10405000254A1170274A116869B1274A1278D2B2ED
:1040600093422EBFC2EB0303C2F140029B18272BE1
:10407000C4BF01230B701B4BDB78DBB213F0800F46
:104080001CD0184A127912F0800F17D01B4A1178F1
:10409000C9B2194A1278D2B2914203D16C21114AA5
:1040A000D1700BE00132282A28BF00221449885C15
:1040B000C0B20C49C871D2B20F490A7013F0400F58
:1040C0000ED0084B1B7913F0400F09D000220D4B86
:1040D0001A700D4B1B6803B11A702C22014BDA7059
:1040E000704700BF00C006402C770020C17600203A
:1040F000EC760020BC7600202D770020347700205D
:10410000C4760020C07600203077002000B585B04E
:1041100072B61B4B70221A7041211A4A11700F217E
:10412000013A117080221A701A46137813F0800F2A
:10413000FBD0154B186862B6144B98429CBF00EB3D
:104140008000400001A90A2200F00AFA9DF804301C
:104150007BB908E001A9595C31B191800232013389
:104160000A2BF7D100E0002301335B00084A1370EB
:1041700003E0074A53800123ECE705B05DF804FB38
:104180000000024007000240080002407F969800AD
:10419000FC87FF1F08B503681B68C9B2984708BDB4
:1041A00008B503681B68C9B2984708BD08B503681D
:1041B0001B68C9B2984708BD08B503681B68C9B237
:1041C000984708BD08B5044800EB5100B0FBF1F07A
:1041D000FEF7B4FD08BD00BF00882A1110B51446D3
:1041E000054800EB5100B0FBF1F0FEF7A7FD2046BB
:1041F000FEF70CFE10BD00BF00882A1108B5FEF7BF
:1042000035FE08BD08B50846FEF76AFE08BD00BFCA
:1042100008B50846FEF7BEFE08BD00BF08B5084653
:104220001146FEF779FE08BD08B50846FEF7DEFE2A
:10423000003018BF012008BD08B50846FEF7F8FE9B
:10424000003018BF012008BD08B5FEF7F1FF08BD1A
:1042500008B5FFF737F808BD08B5FEF7F9FF08BD48
:1042600008B5FEF7C3FF08BD08B5FFF745F808BD60
:1042700008B5FEF7CBFF08BD08B50846FEF704FFFA
:10428000012008BD08B50846FEF7FEFE012008BD66
:1042900010B5144608461146FEF746FF204610BDED
:1042A00038B50D46084600F0A5F9044628462146D3
:1042B000FEF73AFF204638BD704700BF044B00228E
:1042C0001A714FF47A7199601A73024A1A60704732
:1042D000387700200049000008B503681B68C9B2A0
:1042E000984708BD08B503681B68C9B2984708BD60
:1042F00008B503681B68C9B2984708BD08B50368CC
:104300001B68C9B2984708BD08B5044800EB5100C6
:10431000B0FBF1F0FFF7A6F808BD00BF00882A1136
:1043200010B51446054800EB5100B0FBF1F0FFF763
:1043300099F82046FFF7FEF810BD00BF00882A114B
:1043400008B5FFF727F908BD08B50846FFF782F959
:1043500008BD00BF08B50846FFF7D6F908BD00BF85
:1043600008B508461146FFF791F908BD08B508469B
:10437000FFF7F8F9003018BF012008BD08B508465E
:10438000FFF712FA003018BF012008BD08B5FFF78B
:1043900001FB08BD08B5FFF747FB08BD08B5FFF7EF
:1043A00009FB08BD08B5FFF7D3FA08BD08B5FFF74C
:1043B00055FB08BD08B5FFF7DBFA08BD08B5084690
:1043C000FFF714FA012008BD08B50846FFF70EFAFA
:1043D000012008BD10B5144608461146FFF756FAED
:1043E000204610BD38B50D46084600F003F90446D6
:1043F00028462146FFF74AFA204638BD704700BFDD
:10440000044B00221A714FF47A7199601A73024AB0
:104410001A607047487700206049000008B50368BB
:104420001B68C9B2984708BD08B503681B68C9B2C4
:10443000984708BD08B503681B68C9B2984708BD0E
:1044400008B503681B68C9B2984708BD08B54B0892
:1044500003F1B76000F55840B0FBF1F0FFF7B4FB93
:1044600008BD00BF10B514464B0803F1B76000F556
:104470005840B0FBF1F0FFF7A7FB2046FFF7E6FB43
:1044800010BD00BF08B5FFF711FC08BD08B5084610
:10449000FFF746FC08BD00BF08B50846FFF788FCDB
:1044A00008BD00BF08B508461146FFF755FC08BD1A
:1044B00008B50846FFF77EFC003018BF012008BD94
:1044C00008B50846FFF798FC003018BF012008BD6A
:1044D00008B5FFF731FD08BD08B5FFF777FD08BD4A
:1044E00008B5FFF739FD08BD08B5FFF703FD08BDA6
:1044F00008B5FFF785FD08BD08B5FFF70BFD08BD42
:1045000008B50846FFF79AFC012008BD08B5084623
:10451000FFF794FC012008BD10B51446084611466B
:10452000FFF7DCFC204610BD38B50D46084600F00C
:1045300061F8044628462146FFF7D0FC204638BDE6
:10454000704700BF044B00221A714FF47A719960D2
:104550001A73024A1A60704758770020C049000059
:1045600030B40023B0FBF2F402FB14041D46092C06
:1045700094BF30343734E4B2CC54B0FBF2F008B11D
:104580000133EFE70D4400226A70934207DD885C37
:10459000CC5C8C54C8540132013B9A42F7DB08468C
:1045A00030BC704770B50F4E0F4D761BB61007D05C
:1045B000043D0024013455F8043F9847A642F9D140
:1045C0000A4E0B4D761B00F02BFAB61008D0043DB6
:1045D0000024013455F8043F9847A642F9D170BD34
:1045E00070BD00BF2C4A00002C4A0000444A000065
:1045F0002C4A000020F0030110F00300C0F100007D
:1046000051F8043B00F1040C4FEACC0C6FF00002AF
:104610001CBF22FA0CF213434FF0010C4CEA0C2C95
:104620004CEA0C4CA3EB0C0222EA030212EACC1275
:1046300004BF51F8043B0430F4D013F0FF0F1FBF48
:10464000013013F47F4F013013F47F0F18BF013096
:10465000704700BF024B13B1024800F005B8704725
:104660000000000075460000014600200246034697
:1046700000F018B838B5094D094C641BA41018BFD8
:1046800005EB840505D0013C55F8043D9847002C06
:10469000F9D1BDE8384000F0D5B900BF00000000F6
:1046A00000000000F0B5274C2668D6F8484185B0D8
:1046B0000746002C41D065681F2D1EDD224818B921
:1046C0004FF0FF3005B0F0BD4FF4C8700391029277
:1046D0000193AFF300800399029A019B04460028DE
:1046E000EED0D6F848512560002060600546C6F837
:1046F0004841C4F88801C4F88C013FB9AB1C0020C4
:104700000135656044F8231005B0F0BD04EB850069
:104710004FF0010CC0F88820D4F888610CFA05F23B
:104720001643022FC4F88861C0F80831E6D1D4F8E6
:104730008C311A43C4F88C21E0E706F5A674C6F85C
:104740004841B8E71C4A00000000000031414C53CA
:104750000000000048575F005465656E737931347E
:1047600034000000332E32004008FE4340A00440D5
:104770004408FE4344A004400018FE4300C0044027
:104780003000FE43309004403400FE433490044037
:104790001C18FE431CC004401018FE4310C0044007
:1047A0000818FE4308C004400C18FE430CC0044027
:1047B0000C10FE430CB004401010FE4310B0044037
:1047C0001810FE4318B004401C10FE431CB00440F7
:1047D0001410FE4314B004400418FE4304C0044007
:1047E0000010FE4300B004400008FE4300A0044057
:1047F0000408FE4304A004400C08FE430CA004403F
:104800000808FE4308A004401418FE4314C00440E6
:104810001818FE4318C004400410FE4304B00440BE
:104820000810FE4308B004401400FE4314900440F6
:104830004C08FE434CA004400420FE4304D0044036
:104840002410FE4324B004402010FE4320B0044056
:104850002810FE4328B004402C10FE432CB0044026
:104860000020FE4300D004404808FE4348A0044016
:104870001000FE4310900440000000000000000003
:10488000092B0000152B0000E12A0000E92A000096
:10489000F12A0000F92A0000012B000000000000AE
:1048A00000151915000100007087FF1F120000009D
:1048B000000200009C87FF1F43000000000300006F
:1048C000F887FF1F00000000010309048487FF1F11
:1048D0000000000002030904E087FF1F0000000041
:1048E00003030904FC87FF1F000000000000000014
:1048F00000000000000000000000000000000000B8
:1049000079420000914200004942000059420000F3
:104910005142000061420000C5410000DD4100003D
:10492000FD41000005420000114200001D42000050
:104930002942000039420000694200007142000033
:1049400095410000A1410000AD410000B9410000C7
:10495000A1420000854200000000000000000000AD
:10496000BD430000D54300008D4300009D4300007F
:1049700095430000A54300000943000021430000C7
:1049800041430000494300005543000061430000DB
:104990006D4300007D430000AD430000B5430000BF
:1049A000D9420000E5420000F1420000FD42000053
:1049B000E5430000C94300000000000000000000C3
:1049C0000145000019450000D1440000E144000009
:1049D000D9440000E94400004D4400006544000053
:1049E000854400008D44000099440000A544000067
:1049F000B1440000C1440000F1440000F94400004B
:104A00001D440000294400003544000041440000DA
:104A1000294500000D450000430000001888FF1FD5
:104A2000F8B500BFF8BC08BC9E467047554600006C
:104A300035040000252B0000BD42000001440000A9
:044A400045450000E8
:044A4400F8B500BF02
:104A4800006CDC02FFFFFFFF0A0401090A080000EE
:104A58001201010102000040C01683040002010295
:104A68000301000018035400650065006E00730020
:104A780079006400750069006E006F000902430048
:104A8800020100C0320904000001020201000524ED
:104A98000010010524010101042402060524060072
:104AA800010705820310004009040100020A000002
:104AB80000070503024000000705840240000000CB
:104AC8001603550053004200200053006500720091
:104AD800690061006C000000040309040C03000075
:104AE80000000000000000000000000000000000BE
:104AF800000000000000000000000000048BFF1F01
:104B08006C8BFF1FD48BFF1F00000000000000000B
:104B1800000000000000000000000000000000008D
:104B2800000000000000000000000000184A00001B
:104B3800000000000000000000000000000000006D
:104B4800000000000000000000000000000000005D
:104B5800000000000000000000000000000000004D
:104B6800000000000000000000000000000000003D
:104B7800000000000000000000000000000000002D
:104B8800000000000000000000000000000000001D
:104B9800000000000000000000000000000000000D
:104BA80001000000000000000E33CDAB34126DE6AA
:104BB800ECDE05000B000000000000000000000013
:104BC80000000000000000000000000000000000DD
:104BD80000000000000000000000000000000000CD
:104BE80000000000000000000000000000000000BD
:104BF80000000000000000000000000000000000AD
:00000001FF
