:1000000000000320D1010000554E00000D4E0000FD
:100010000D4E00000D4E00000D4E00000D4E000074
:100020000D4E00000D4E00000D4E0000554E00001C
:10003000554E00000D4E00007D5600008157000017
:10004000554E0000554E0000554E0000554E000024
:10005000554E0000554E0000554E0000554E000014
:10006000554E0000554E0000554E0000554E000004
:10007000554E0000554E0000554E0000554E0000F4
:10008000554E0000554E0000554E0000554E0000E4
:10009000554E0000554E0000554E0000554E0000D4
:1000A000554E0000554E0000554E0000554E0000C4
:1000B000554E0000554E0000554E0000F54E000014
:1000C000554E000021500000554E00004D510000DB
:1000D000554E000045520000554E0000554E0000A0
:1000E000554E0000554E0000554E0000554E000084
:1000F000554E0000554E0000554E0000554E000074
:10010000554E0000554E0000554E0000554E000063
:10011000554E0000E1400000554E0000554E0000D5
:10012000554E0000554E0000554E0000554E000043
:10013000554E0000554E0000554E0000554E000033
:10014000554E0000554E00003D530000554E000036
:10015000554E0000554E0000554E0000554E000013
:10016000554E0000554E0000554E0000554E000003
:10017000554E0000554E0000554E0000554E0000F3
:10018000554E0000554E0000554E0000554E0000E3
:10019000554E0000554E000035540000554E0000ED
:1001A000554E0000554E0000554E0000554E0000C3
:1001B000554E0000554E0000554E0000554E0000B3
:1001C000554E0000554E0000554E0000554E0000A3
:1001D0005C4B4CF2205210B51A804DF628121A8052
:1001E00000BF00BF04F03AFE574B4FF030621A6078
:1001F000564A9A60564ADA60564B4FF470021A60BB
:10020000554B564A1A60564A136813F4807304D14A
:1002100054490B604FF4A8531360534B1A781107DD
:1002200003D51A7842F008021A70504B5049AA229E
:100230001A70504A504B8B4204D252F8040F43F8C4
:10024000040BF8E74D4B4E4900228B4202D243F893
:10025000042BFAE74B494C4A002352F8230041F89B
:1002600023000133742BF8D1484B494A802103F80D
:10027000011B9342FBD1474B424A1A60464B8A22EC
:100280001A70A3F5805324225A70A0221A709A790A
:100290009207FCD59A79D406FCD4404A937903F0AE
:1002A0000C03082BFAD13E4B60221A7002331A78E5
:1002B000802AFCD1394B00221A714E225A719A7948
:1002C0009006FCD59979354A4906FBD5354B364918
:1002D00019600821596020231370937903F00C03EF
:1002E0000C2BFAD1314B324A1A60324B324A1A6027
:1002F00000225A60072243F8042C304AC3F80C2D20
:1003000062B603F07FFD174B1B68DA0705D52C4852
:1003100003F010FD2B4B2C4A1A602C4B1B785B060C
:1003200009D5284C284B22689A4204D1244803F06E
:1003300001FD0023236005F05FFA04F095FD04F051
:100340008BFCFEE70E20054030800440823F040015
:100350000100002B88ED00E0002008E0030000858C
:1003600010D0034014D0034002D0074000E0074003
:100370002811FF1FC85B00003007FF1F2811FF1F57
:10038000DCED02200002FF1F0000000000E400E09E
:1003900064E400E008ED00E0005006400040064044
:1003A00001E007404480044000000703048004404B
:1003B000C010050014E000E07FA903000000202029
:1003C000CCC2F75B1CE00340A5C3945A00F0074081
:1003D000FFFFFFFFFFFFFFFFFFFFFFFFFFFFFFFF2D
:1003E000FFFFFFFFFFFFFFFFFFFFFFFFFFFFFFFF1D
:1003F000FFFFFFFFFFFFFFFFFFFFFFFFFFFFFFFF0D
:10040000FFFFFFFFFFFFFFFFFFFFFFFFDEF9FFFF23
:1004100010B5054C237833B9044B13B10448AFF33E
:1004200000800123237010BD2811FF1F0000000071
:10043000CC5B0000084B10B51BB108490848AFF36E
:1004400000800848036803B910BD074B002BFBD0A0
:10045000BDE81040184700BF000000002C11FF1F2E
:10046000CC5B00002811FF1F00000000064B07486E
:100470001B68074A82B020210193019B96330360D9
:10048000116002B0704700BFACE902205411FF1F99
:1004900084F00F40064B07481B68074A82B02021B2
:1004A0000193019B0A330360116002B0704700BFE3
:1004B000ACE902205411FF1F84F00F40014B0022D1
:1004C0001A6070474C11FF1F10B533281BD8DFE8A6
:1004D00000F0676B721A241A1A1A1A1A231A1A23AE
:1004E0001A1A1A231A231A1A1A1A1A1A1A1A1A1A5A
:1004F0001A1A1A1A1A1A1A1A1A1A1A1A1A1A1A1A5C
:100500001A1A1A2324722F4B2F4A18700424002021
:1005100001215C719871117010BD012004F06CFB19
:100520000C212A4804F0E4FA002004F065FB0220C4
:1005300004F062FB0321264804F0DAFA002004F0FC
:100540005BFB212004F058FB002004F055FB002049
:1005500004F052FB102004F04FFB002004F04CFB91
:10056000232004F049FB002004F046FB0F2004F098
:1005700043FB422004F040FB402004F03DFB4020C0
:1005800004F03AFB082004F037FB412004F034FB70
:10059000022004F031FB0020BDE8104004F02CBB29
:1005A0000C4B00221A6010BD0B490A4B202001227F
:1005B00008601A6010BD04210848BDE8104004F02E
:1005C00097BA00BF5811FF1F5111FF1F3C5900007F
:1005D0004C5900004C11FF1F84F00F4034590000AB
:1005E000824A1378803B4E2B50D8DFE813F05F002F
:1005F000DF00D900F100B3004F004F004F004F0063
:100600004F004F004F004F004F004F004F004F0072
:100610004F004F004F004F004F004F004F004F0062
:100620004F004F004F004F004F004F004F004F0052
:100630004F004F004F004F004F004F004F004F0042
:100640004F004F004F004F004F004F004F004F0032
:100650004F004F004F004F004F004F004F004F0022
:100660004F004F004F004F004F004F004F00BF00A2
:10067000C300CA004F007D00810085004F00940038
:1006800098009C004F00AB00AF005000704790787E
:100690005378127903EB0023A1F85030130722D5C9
:1006A000CB6B01331FD10323CB637047F0B4578862
:1006B00053784F4E4F4A504D504C514843EA072310
:1006C0004B600133B2FBF3F2CA603268B4FBF3F360
:1006D00022F0706242F0807232602C60F0BCB0FB9D
:1006E000F3F2CB608A607047537881F842307047EC
:1006F000537881F84630704790785378127903EB3D
:1007000000231007A1F84C30EDD5CB6B0133EAD1B3
:100710000123CB637047537881F843307047537897
:1007200081F84730704790785378127903EB0023B3
:100730001207A1F84E30D6D5CB6B0133D3D10223AB
:10074000CB637047537881F844307047537881F811
:1007500048307047B2F803009378527843EA002398
:1007600042EA032301339B004B637047537881F8BF
:1007700041307047537881F845304FF0FF33CB63F9
:10078000704790785378127903EB0023A1F84A3030
:100790001307A8D5CB6B0133A5D10023CB637047DA
:1007A000937803F0010381F860307047B2F80130AC
:1007B000B2F8032001339B0001329200B3F5503FA1
:1007C0004B630A614A618ED14FF4E8234B63704753
:1007D000B2F803009378527843EA002342EA0323F5
:1007E00001339B000B614B61704700BF5811FF1F25
:1007F0004480044000879303500CFF1F000E27071E
:10080000001C4E0E10B5064B20241C60962003F0F1
:10081000A9FA044B64201C60BDE8104003F0A2BAA2
:1008200084F00F4088F00F4008B50021022003F04B
:1008300093FA00210E2003F08FFA0021072003F025
:100840008BFA0021082003F087FA0021062003F02C
:1008500083FA0021142003F07FFA0021152003F011
:100860007BFA0021052003F077FA01210D2003F027
:1008700073FAFFF7C7FF034A034B044911600022D4
:100880001A6008BD500CFF1F4C11FF1F0087930317
:1008900038B50E4C2378ABB1012B04D0FFF7B2FF73
:1008A0000023237038BD0246094883794579013316
:1008B000DBB29D428371C254F4D1FFF791FE002355
:1008C000237038BDBDE83840FFF7FEBD5111FF1F52
:1008D0005811FF1F10B412490B6885B0EBB11148D5
:1008E00002680192019A934217D20F4B0F4A2024BB
:1008F0001C6003680293029B00200F3313600860A2
:100900003BB10849096803910399994284BF0023C8
:10091000136005B05DF8044B7047044A1368EFE7B5
:100920005411FF1FACE9022088F00F404411FF1F53
:1009300030B4074A074C136807494FF4001523F0F9
:100940000203012013602560087030BC704700BFAF
:1009500010E000E084E100E04811FF1F0B4B1B6832
:10096000DB0330B404D50A4A136843F08063136094
:10097000064A084C136808494FF4001543F0020377
:10098000002013602560087030BC704710E000E064
:1009900004ED00E004E100E04811FF1F4B4B826DC5
:1009A000DFF848C12DE9F04FDFF830E1476D484EE0
:1009B000DFF83C91474C01254FF020080561C3F852
:1009C0000080DEF800304FF4001823F00203CEF868
:1009D000003083B0C6F8008090F845A08DF803A0E1
:1009E0000023924601948CF800503D46834690F8CF
:1009F000416088464F462A46184619465446019D8E
:100A00009DF80390002E0DD03B78287810F0FB0F56
:100A100028D119463B7803EA06004845F5D103EB97
:100A2000012103E039783B78090219443B78090237
:100A300019443B78090201EB0300397800BF42F802
:100A4000040B00BF3B7803EB01213B7803EB012152
:100A50003B7803EB0120A24242F8040B00BF397837
:100A6000E1DB01E04FF001055FFA89F38BF84160AB
:100A70008BF84530DEF800308DF80390DB030195EC
:100A8000CBF8584004D5144A136843F080631360D0
:100A9000124A1348136843F002031360019B4FF49A
:100AA00000150021012B05608CF8001004D10D4ABF
:100AB0000D4B2020106019600A4B01212022C8F83C
:100AC00008101A6003B0BDE8F08F00BF84F00F403B
:100AD00084E100E08020074004ED00E010E000E049
:100AE00004E100E088F00F404C11FF1F4811FF1F88
:100AF000D0F00F402DE9F04F8B4685B09BF80020D9
:100B0000D0F85480846D8169029290F84130C26AB5
:100B10000392C8EB04054A03844602EB9525002B9B
:100B200000F0EB807C4B8900202241441A607B4B13
:100B3000DFF808E21B68794A79487A4E23F002030D
:100B40004FF400171360CEF800709CF845700191C7
:100B50002946754D8DF803700023A14601222A70A5
:100B6000374605461C4618464E469CF841E0019B18
:100B70009DF803904246C246BEF1000F57D000BF19
:100B8000287800BF00BF00BF00BF00BF00BF2C78A7
:100B900004EB002000BF00BF00BF00BF00BF2C78E7
:100BA00004EB002000BF00BF00BF00BF00BF2C78D7
:100BB00004EB002042F8040B9A42E1DB287800BFE6
:100BC00000BF01E000BF00BF2C7804EB002000BF95
:100BD0003C7814F0FB0F2C7804EB002049D100BFC7
:100BE00000BF2C7804EB002042F8040B964298BF1B
:100BF0005246287804EA0E044C45E5D100BF2C7813
:100C000004EB0020A2EBD123534500BF2C7804EB6A
:100C100000204FEA415138BF03EBD1232C7804EB7D
:100C2000002042F8040B964298BF4FEA0A02287847
:100C300000BF00BF00BFFFE72C7804EB002000BF1F
:100C400000BF00BF00BF2C7804EB002000BF00BF36
:100C500000BF00BF2C7804EB002042F8040B964242
:100C600098BF5246287800BF00BF00BF9A42E3D128
:100C700001E04FF001078DF8039001939DF80330D8
:100C80008CF84530254B8CF841E01B68CCF8586057
:100C9000DB03CCF854A004D52448036843F08063F8
:100CA00003601E48224C036843F0020303604FF4C4
:100CB000001020601C480023012F037025D09CF8F1
:100CC0004130E3B1DCF81830019901EB8301C8EB46
:100CD00001019DF80C30891003FB01F1CBF80810DD
:100CE00008F1040842451CBF01238BF80030114B6A
:100CF00020221A6005B0BDE8F08F211F17E7CBF85E
:100D00000830029B002BF2D0EAE70A4C0A48202563
:100D100025600360D3E700BF84F00F4010E000E0DF
:100D2000D0F00F40802007404811FF1F04ED00E085
:100D300004E100E088F00F404C11FF1F84E100E067
:100D40002DE9F04FC26D836BDFF850A0DFF85080C3
:100D500002F16042934285B028BF13469B0A0746C2
:100D60004FF0005403939B0200251A1944658D60CF
:100D70004FF4FA707B63BB63BA6502F0F3FF0123A3
:100D8000A3462846A9460449DFF818E002931A460C
:100D90000197AC4628E000BFD0F00F40802007400C
:100DA0004811FF1F10E000E0019A92F8415025B170
:100DB0000B4BC2F8109020221A60DEF8003023F0AE
:100DC0000203CEF8003000230293064B4FF40012CA
:100DD0001A604FF00103039A88F8003004E000BF66
:100DE00084F00F4084E100E0019C5646924694F85E
:100DF000454062465B46574603F10303002D13D07E
:100E00000A78307810F0FB0F41F012841A700A78DB
:100E100002EA0500A042F4D1A3F1010303F801297D
:100E200008E000BFAFF300800A7803F801290A78D0
:100E300003F801290A7803F801290A7803F8072B37
:100E40000A7803F801290A7803F801290A7803F8D7
:100E500001290A7803F8072B0A7803F801290A7890
:100E600003F801290A7803F801290A7803F8072B07
:100E70000A7803F801290A7803F801290A7803F8A7
:100E800001290A7803F8072B0A7803F801290A7860
:100E900003F801290A7803F801290A7803F8072BD7
:100EA0000A7803F801290A7803F801290A7803F877
:100EB00001290A7803F8072B0A7803F801290A7830
:100EC00003F801290A7803F801290A7803F8072BA7
:100ED0000A7803F801290A7803F801290A7803F847
:100EE00001290A7803F8072B0A7803F801290A7800
:100EF00003F801290A7803F801290A7803F8072B77
:100F00000A7803F801290A7803F801290A7803F816
:100F100001290A7803F8072B0A7803F801290A78CF
:100F200003F801290A7803F801290A7803F8072B46
:100F30000A7803F801290A7803F801290A7803F8E6
:100F400001290A7803F8072B0A7803F801290A789F
:100F500003F801290A7803F801290A7803F8072B16
:100F60000A7803F801290A7803F801290A7803F8B6
:100F700001290A7803F8072B0A7803F801290A786F
:100F800003F801290A7803F801290A7803F8072BE6
:100F90000A7803F801290A7803F801290A7803F886
:100FA00001290A7803F8072B0A7803F801290A783F
:100FB00003F801290A7803F801290A7803F8072BB6
:100FC0000A7803F801290A7803F801290A7803F856
:100FD00001290A7803F8072B0A7803F801290A780F
:100FE00003F801290A7803F801290A7803F8072B86
:100FF0000A7803F801290A7803F801290A7803F826
:1010000001290A7803F8072B0A7803F801290A78DE
:1010100003F801290A7803F801290A7803F8072B55
:101020000A7803F801290A7803F801290A7803F8F5
:1010300001290A7803F8072B0A7803F801290A78AE
:1010400003F801290A7803F801290A7803F8072B25
:101050000A7803F801290A7803F801290A7803F8C5
:1010600001290A7803F8072B0A7803F801290A787E
:1010700003F801290A7803F801290A7803F8072BF5
:101080000A7803F801290A7803F801290A7803F895
:1010900001290A7803F8072B0A7803F801290A784E
:1010A00003F801290A7803F801290A7803F8072BC5
:1010B0000A7803F801290A7803F801290A7803F865
:1010C00001290A7803F8072B0A7803F801290A781E
:1010D00003F801290A7803F801290A7803F8072B95
:1010E0000A7803F801290A7803F801290A7803F835
:1010F00001290A7803F8072B0A7803F801290A78EE
:1011000003F801290A7803F801290A7803F8072B64
:101110000A7803F801290A7803F801290A7803F804
:1011200001290A7803F8072B0A7803F801290A78BD
:1011300003F801290A7803F801290A7803F8072B34
:101140000A7803F801290A7803F801290A7803F8D4
:1011500001290A7803F8072B0A7803F801290A788D
:1011600003F801290A7803F801290A7803F8072B04
:101170000A7803F801290A7803F801290A7803F8A4
:1011800001290A7803F8072B0A7803F801290A785D
:1011900003F801290A7803F801290A7803F8072BD4
:1011A0000A7803F801290A7803F801290A7803F874
:1011B00001290A7803F8072B0A7803F801290A782D
:1011C00003F801290A7803F801290A7803F8072BA4
:1011D0000A7803F801290A7803F801290A7803F844
:1011E00001290A7803F8072B0A7803F801290A78FD
:1011F00003F801290A7803F801290A7803F8072B74
:101200000A7803F801290A7803F801290A7803F813
:1012100001290A7803F8072B0A7803F801290A78CC
:1012200003F801290A7803F801290A7803F8072B43
:101230000A7803F801290A7803F801290A7803F8E3
:1012400001290A7803F8072B0A7803F801290A789C
:1012500003F801290A7803F801290A7803F8072B13
:101260000A7803F801290A7803F801290A7803F8B3
:1012700001290A7803F8072B0A7803F801290A786C
:1012800003F801290A7803F801290A7803F8072BE3
:101290000A7803F801290A7803F801290A7803F883
:1012A00001290A7803F8072B0A7803F801290A783C
:1012B00003F801290A7803F801290A7803F8072BB3
:1012C0000A7803F801290A7803F801290A7803F853
:1012D00001290A7803F8072B0A7803F801290A780C
:1012E00003F801290A7803F801290A7803F8072B83
:1012F0000A7803F801290A7803F801290A7803F823
:1013000001290A7803F8072B0A7803F801290A78DB
:1013100003F801290A7803F801290A7803F8072B52
:101320000A7803F801290A7803F801290A7803F8F2
:1013300001290A7803F8072B0A7803F801290A78AB
:1013400003F801290A7803F801290A7803F8072B22
:101350000A7803F801290A7803F801290A7803F8C2
:1013600001290A7803F8072B0A7803F801290A787B
:1013700003F801290A7803F801290A7803F8072BF2
:101380000A7803F801290A7803F801290A7803F892
:1013900001290A7803F8072B0A7803F801290A784B
:1013A00003F801290A7803F801290A7803F8072BC2
:1013B0000A7803F801290A7803F801290A7803F862
:1013C00001290A7803F8072B0A7803F801290A781B
:1013D00003F801290A7803F801290A7803F8072B92
:1013E0000A7803F801290A7803F801290A7803F832
:1013F00001290A7803F8072B0A7803F801290A78EB
:1014000003F801290A7803F801290A7803F8072B61
:101410000A7803F801290A7803F801290A7803F801
:1014200001290A7803F8072B0A7803F801290A78BA
:1014300003F801290A7803F801290A7803F8072B31
:101440000A7803F801290A7803F801290A7803F8D1
:1014500001290A7803F8072B0A7803F801290A788A
:1014600003F801290A7803F801290A7803F8072B01
:101470000A7803F801290A7803F801290A7803F8A1
:1014800001290A7803F8072B0A7803F801290A785A
:1014900003F801290A7803F801290A7803F8072BD1
:1014A0000A7803F801290A7803F801290A7803F871
:1014B00001290A7803F8072B0A7803F801290A782A
:1014C00003F801290A7803F801290A7803F8072BA1
:1014D0000A7803F801290A7803F801290A7803F841
:1014E00001290A7803F8072B0A7803F801290A78FA
:1014F00003F801290A7803F801290A7803F8072B71
:101500000A7803F801290A7803F801290A7803F810
:1015100001290A7803F8072B0A7803F801290A78C9
:1015200003F801290A7803F801290A7803F8072B40
:101530000A7803F801290A7803F801290A7803F8E0
:1015400001290A7803F8072B0A7803F801290A7899
:1015500003F801290A7803F801290A7803F8072B10
:101560000A7803F801290A7803F801290A7803F8B0
:1015700001290A7803F8072B0A7803F801290A7869
:1015800003F801290A7803F801290A7803F8072BE0
:101590000A7803F801290A7803F801290A7803F880
:1015A00001290A7803F8072B0A7803F801290A7839
:1015B00003F801290A7803F801290A7803F8072BB0
:1015C0000A7803F801290A7803F801290A7803F850
:1015D00001290A7803F8072B0A7803F801290A7809
:1015E00003F801290A7803F801290A7803F8072B80
:1015F0000A7803F801290A7803F801290A7803F820
:1016000001290A7803F8072B0A7803F801290A78D8
:1016100003F801290A7803F801290A7803F8072B4F
:101620000A7803F801290A7803F801290A7803F8EF
:1016300001290A7803F8072B0A7803F801290A78A8
:1016400003F801290A7803F801290A7803F8072B1F
:101650000A7803F801290A7803F801290A7803F8BF
:1016600001290A7803F8072B0A7803F801290A7878
:1016700003F801290A7803F801290A7803F8072BEF
:101680000A7803F801290A7803F801290A7803F88F
:1016900001290A7803F8072B0A7803F801290A7848
:1016A00003F801290A7803F801290A7803F8072BBF
:1016B0000A7803F801290A7803F801290A7803F85F
:1016C00001290A7803F8072B0A7803F801290A7818
:1016D00003F801290A7803F801290A7803F8072B8F
:1016E0000A7803F801290A7803F801290A7803F82F
:1016F00001290A7803F8072B0A7803F801290A78E8
:1017000003F801290A7803F801290A7803F8072B5E
:101710000A7803F801290A7803F801290A7803F8FE
:1017200001290A7803F8072B0A7803F801290A78B7
:1017300003F801290A7803F801290A7803F8072B2E
:101740000A7803F801290A7803F801290A7803F8CE
:1017500001290A7803F8072B0A7803F801290A7887
:1017600003F801290A7803F801290A7803F8072BFE
:101770000A7803F801290A7803F801290A7803F89E
:1017800001290A7803F8072B0A7803F801290A7857
:1017900003F801290A7803F801290A7803F8072BCE
:1017A0000A7803F801290A7803F801290A7803F86E
:1017B00001290A7803F8072B0A7803F801290A7827
:1017C00003F801290A7803F801290A7803F8072B9E
:1017D0000A7803F801290A7803F801290A7803F83E
:1017E00001290A7803F8072B0A7803F801290A78F7
:1017F00003F801290A7803F801290A7803F8072B6E
:101800000A7803F801290A7803F801290A7803F80D
:1018100001290A7803F8072B0A7803F801290A78C6
:1018200003F801290A7803F801290A7803F8072B3D
:101830000A7803F801290A7803F801290A7803F8DD
:1018400001290A7803F8072B0A7803F801290A7896
:1018500003F801290A7803F801290A7803F8072B0D
:101860000A7803F801290A7803F801290A7803F8AD
:1018700001290A7803F8072B0A7803F801290A7866
:1018800003F801290A7803F801290A7803F8072BDD
:101890000A7803F801290A7803F801290A7803F87D
:1018A00001290A7803F8072B0A7803F801290A7836
:1018B00003F801290A7803F801290A7803F8072BAD
:1018C0000A7803F801290A7803F801290A7803F84D
:1018D00001290A7803F8072B0A7803F801290A7806
:1018E00003F801290A7803F801290A7803F8072B7D
:1018F0000A7803F801290A7803F801290A7803F81D
:1019000001290A7803F8072B0A7803F801290A78D5
:1019100003F801290A7803F801290A7803F8072B4C
:101920000A7803F801290A7803F801290A7803F8EC
:1019300001290A7803F8072B0A7803F801290A78A5
:1019400003F801290A7803F801290A7803F8072B1C
:101950000A7803F801290A7803F801290A7803F8BC
:1019600001290A7803F8072B0A7803F801290A7875
:1019700003F801290A7803F801290A7803F8072BEC
:101980000A7803F801290A7803F801290A7803F88C
:1019900001290A7803F8072B0A7803F801290A7845
:1019A00003F801290A7803F801290A7803F8072BBC
:1019B0000A7803F801290A7803F801290A7803F85C
:1019C00001290A7803F8072B0A7803F801290A7815
:1019D00003F801290A7803F801290A7803F8072B8C
:1019E0000A7803F801290A7803F801290A7803F82C
:1019F00001290A7803F8072B0A7803F801290A78E5
:101A000003F801290A7803F801290A7803F8072B5B
:101A10000A7803F801290A7803F801290A7803F8FB
:101A200001290A7803F8072B0A7803F801290A78B4
:101A300003F801290A7803F801290A7803F8072B2B
:101A40000A7803F801290A7803F801290A7803F8CB
:101A500001290A7803F8072B0A7803F801290A7884
:101A600003F801290A7803F801290A7803F8072BFB
:101A70000A7803F801290A7803F801290A7803F89B
:101A800001290A7803F8072B0A7803F801290A7854
:101A900003F801290A7803F801290A7803F8072BCB
:101AA0000A7803F801290A7803F801290A7803F86B
:101AB00001290A7803F8072B0A7803F801290A7824
:101AC00003F801290A7803F801290A7803F8072B9B
:101AD0000A7803F801290A7803F801290A7803F83B
:101AE00001290A7803F8072B0A7803F801290A78F4
:101AF00003F801290A7803F801290A7803F8072B6B
:101B00000A7803F801290A7803F801290A7803F80A
:101B100001290A7803F8072B0A7803F801290A78C3
:101B200003F801290A7803F801290A7803F8072B3A
:101B30000A7803F801290A7803F801290A7803F8DA
:101B400001290A7803F8072B0A7803F801290A7893
:101B500003F801290A7803F801290A7803F8072B0A
:101B60000A7803F801290A7803F801290A7803F8AA
:101B700001290A7803F8072B0A7803F801290A7863
:101B800003F801290A7803F801290A7803F8072BDA
:101B90000A7803F801290A7803F801290A7803F87A
:101BA00001290A7803F8072B0A7803F801290A7833
:101BB00003F801290A7803F801290A7803F8072BAA
:101BC0000A7803F801290A7803F801290A7803F84A
:101BD00001290A7803F8072B0A7803F801290A7803
:101BE00003F801290A7803F801290A7803F8072B7A
:101BF0000A7803F801290A7803F801290A7803F81A
:101C000001290A7803F8072B0A7803F801290A78D2
:101C100003F801290A7803F801290A7803F8072B49
:101C20000A7803F801290A7803F801290A7803F8E9
:101C300001290A7803F8072B0A7803F801290A78A2
:101C400003F801290A7803F801290A7803F8072B19
:101C50000A7803F801290A7803F801290A7803F8B9
:101C600001290A7803F8072B0A7803F801290A7872
:101C700003F801290A7803F801290A7803F8072BE9
:101C80000A7803F801290A7803F801290A7803F889
:101C900001290A7803F8072B0A7803F801290A7842
:101CA00003F801290A7803F801290A7803F8072BB9
:101CB0000A7803F801290A7803F801290A7803F859
:101CC00001290A7803F8072B0A7803F801290A7812
:101CD00003F801290A7803F801290A7803F8072B89
:101CE0000A7803F801290A7803F801290A7803F829
:101CF00001290A7803F8072B0A7803F801290A78E2
:101D000003F801290A7803F801290A7803F8072B58
:101D10000A7803F801290A7803F801290A7803F8F8
:101D200001290A7803F8072B0A7803F801290A78B1
:101D300003F801290A7803F801290A7803F8072B28
:101D40000A7803F801290A7803F801290A7803F8C8
:101D500001290A7803F8072B0A7803F801290A7881
:101D600003F801290A7803F801290A7803F8072BF8
:101D70000A7803F801290A7803F801290A7803F898
:101D800001290A7803F8072B0A7803F801290A7851
:101D900003F801290A7803F801290A7803F8072BC8
:101DA0000A7803F801290A7803F801290A7803F868
:101DB00001290A7803F8072B0A7803F801290A7821
:101DC00003F801290A7803F801290A7803F8072B98
:101DD0000A7803F801290A7803F801290A7803F838
:101DE00001290A7803F8072B0A7803F801290A78F1
:101DF00003F801290A7803F801290A7803F8072B68
:101E00000A7803F801290A7803F801290A7803F807
:101E100001290A7803F8072B0A7803F801290A78C0
:101E200003F801290A7803F801290A7803F8072B37
:101E30000A7803F801290A7803F801290A7803F8D7
:101E400001290A7803F8072B0A7803F801290A7890
:101E500003F801290A7803F801290A7803F8072B07
:101E60000A7803F801290A7803F801290A7803F8A7
:101E700001290A7803F8072B0A7803F801290A7860
:101E800003F801290A7803F801290A7803F8072BD7
:101E90000A7803F801290A7803F801290A7803F877
:101EA00001290A7803F8072B0A7803F801290A7830
:101EB00003F801290A7803F801290A7803F8072BA7
:101EC0000A7803F801290A7803F801290A7803F847
:101ED00001290A7803F8072B0A7803F801290A7800
:101EE00003F801290A7803F801290A7803F8072B77
:101EF0000A7803F801290A7803F801290A7803F817
:101F000001290A7803F8072B0A7803F801290A78CF
:101F100003F801290A7803F801290A7803F8072B46
:101F20000A7803F801290A7803F801290A7803F8E6
:101F300001290A7803F8072B0A7803F801290A789F
:101F400003F801290A7803F801290A7803F8072B16
:101F50000A7803F801290A7803F801290A7803F8B6
:101F600001290A7803F8072B0A7803F801290A786F
:101F700003F801290A7803F801290A7803F8072BE6
:101F80000A7803F801290A7803F801290A7803F886
:101F900001290A7803F8072B0A7803F801290A783F
:101FA00003F801290A7803F801290A7803F8072BB6
:101FB0000A7803F801290A7803F801290A7803F856
:101FC00001290A7803F8072B0A7803F801290A780F
:101FD00003F801290A7803F801290A7803F8072B86
:101FE0000A7803F801290A7803F801290A7803F826
:101FF00001290A7803F8072B0A7803F801290A78DF
:1020000003F801290A7803F801290A7803F8072B55
:102010000A7803F801290A7803F801290A7803F8F5
:1020200001290A7803F8072B0A7803F801290A78AE
:1020300003F801290A7803F801290A7803F8072B25
:102040000A7803F801290A7803F801290A7803F8C5
:1020500001290A7803F8072B0A7803F801290A787E
:1020600003F801290A7803F801290A7803F8072BF5
:102070000A7803F801290A7803F801290A7803F895
:1020800001290A7803F8072B0A7803F801290A784E
:1020900003F801290A7803F801290A7803F8072BC5
:1020A0000A7803F801290A7803F801290A7803F865
:1020B00001290A7803F8072B0A7803F801290A781E
:1020C00003F801290A7803F801290A7803F8072B95
:1020D0000A7803F801290A7803F801290A7803F835
:1020E00001290A7803F8072B0A7803F801290A78EE
:1020F00003F801290A7803F801290A7803F8072B65
:102100000A7803F801290A7803F801290A7803F804
:1021100001290A7803F8072B0A7803F801290A78BD
:1021200003F801290A7803F801290A7803F8072B34
:102130000A7803F801290A7803F801290A7803F8D4
:1021400001290A7803F8072B0A7803F801290A788D
:1021500003F801290A7803F801290A7803F8072B04
:102160000A7803F801290A7803F801290A7803F8A4
:1021700001290A7803F8072B0A7803F801290A785D
:1021800003F801290A7803F801290A7803F8072BD4
:102190000A7803F801290A7803F801290A7803F874
:1021A00001290A7803F8072B0A7803F801290A782D
:1021B00003F801290A7803F801290A7803F8072BA4
:1021C0000A7803F801290A7803F801290A7803F844
:1021D00001290A7803F8072B0A7803F801290A78FD
:1021E00003F801290A7803F801290A7803F8072B74
:1021F0000A7803F801290A7803F801290A7803F814
:1022000001290A7803F8072B0A7803F801290A78CC
:1022100003F801290A7803F801290A7803F8072B43
:102220000A7803F801290A7803F801290A7803F8E3
:1022300001290A7803F8072B0A7803F801290A789C
:1022400003F801290A7803F801290A7803F8072B13
:102250000A7803F801290A7803F801290A7803F8B3
:1022600001290A7803F8072B0A7803F801290A786C
:1022700003F801290A7803F801290A7803F8072BE3
:102280000A7803F801290A7803F801290A7803F883
:1022900001290A7803F8072B0A7803F801290A783C
:1022A00003F801290A7803F801290A7803F8072BB3
:1022B0000A7803F801290A7803F801290A7803F853
:1022C00001290A7803F8072B0A7803F801290A780C
:1022D00003F801290A7803F801290A7803F8072B83
:1022E0000A7803F801290A7803F801290A7803F823
:1022F00001290A7803F8072B0A7803F801290A78DC
:1023000003F801290A7803F801290A7803F8072B52
:102310000A7803F801290A7803F801290A7803F8F2
:1023200001290A7803F8072B0A7803F801290A78AB
:1023300003F801290A7803F801290A7803F8072B22
:102340000A7803F801290A7803F801290A7803F8C2
:1023500001290A7803F8072B0A7803F801290A787B
:1023600003F801290A7803F801290A7803F8072BF2
:102370000A7803F801290A7803F801290A7803F892
:1023800001290A7803F8072B0A7803F801290A784B
:1023900003F801290A7803F801290A7803F8072BC2
:1023A0000A7803F801290A7803F801290A7803F862
:1023B00001290A7803F8072B0A7803F801290A781B
:1023C00003F801290A7803F801290A7803F8072B92
:1023D0000A7803F801290A7803F801290A7803F832
:1023E00001290A7803F8072B0A7803F801290A78EB
:1023F00003F801290A7803F801290A7803F8072B62
:102400000A7803F801290A7803F801290A7803F801
:1024100001290A7803F8072B0A7803F801290A78BA
:1024200003F801290A7803F801290A7803F8072B31
:102430000A7803F801290A7803F801290A7803F8D1
:1024400001290A7803F8072B0A7803F801290A788A
:1024500003F801290A7803F801290A7803F8072B01
:102460000A7803F801290A7803F801290A7803F8A1
:1024700001290A7803F8072B0A7803F801290A785A
:1024800003F801290A7803F801290A7803F8072BD1
:102490000A7803F801290A7803F801290A7803F871
:1024A00001290A7803F8072B0A7803F801290A782A
:1024B00003F801290A7803F801290A7803F8072BA1
:1024C0000A7803F801290A7803F801290A7803F841
:1024D00001290A7803F8072B0A7803F801290A78FA
:1024E00003F801290A7803F801290A7803F8072B71
:1024F0000A7803F801290A7803F801290A7803F811
:1025000001290A7803F8072B0A7803F801290A78C9
:1025100003F801290A7803F801290A7803F8072B40
:102520000A7803F801290A7803F801290A7803F8E0
:1025300001290A7803F8072B0A7803F801290A7899
:1025400003F801290A7803F801290A7803F8072B10
:102550000A7803F801290A7803F801290A7803F8B0
:1025600001290A7803F8072B0A7803F801290A7869
:1025700003F801290A7803F801290A7803F8072BE0
:102580000A7803F801290A7803F801290A7803F880
:1025900001290A7803F8072B0A7803F801290A7839
:1025A00003F801290A7803F801290A7803F8072BB0
:1025B0000A7803F801290A7803F801290A7803F850
:1025C00001290A7803F8072B0A7803F801290A7809
:1025D00003F801290A7803F801290A7803F8072B80
:1025E0000A7803F801290A7803F801290A7803F820
:1025F00001290A7803F8072B0A7803F801290A78D9
:1026000003F801290A7803F801290A7803F8072B4F
:102610000A7803F801290A7803F801290A7803F8EF
:1026200001290A7803F8072B013F7EF4FDAB01E096
:102630004FF00106019B83F84540DEF80040E303BC
:102640009446B24604D5124B1A6842F080621A6072
:10265000DEF800200F4B42F00202CEF800204FF4CB
:1026600000121A60029B88F80090002B7EF49CAB4D
:10267000012E9C4605D1084A084B20211160C3F861
:1026800000C0054B20221A6005B0BDE8F08F00BFE6
:1026900004ED00E004E100E088F00F404C11FF1F62
:1026A0002DE9F04FD0F82CE090F841308BB0814606
:1026B0001A460293406BB0FBFEF300930EF1FF331A
:1026C000DBB209910793591C99F845300393B9F887
:1026D0004A30D9F854B0D9F85880D9F82450D9F8EC
:1026E00028600193002A00F06C82D9F818700BEB77
:1026F000870CE0454FF0000740F264829548964B06
:10270000026822F0020205925FFA8EF20892009AA5
:10271000920000240692059A0494A646026022467E
:102720004FF40014C0F874418C48079CCDF800E0C9
:102730004FF0010A80F800A0DDF820A0059458466B
:10274000D3F800E0BEF1000F18D1D3F800E0BEF1DD
:10275000000F13D196460DE01A6872B91A6862B973
:102760001A6852B91A6842B91A6832B91A6822B995
:102770001A6812B91A68002AEED072464FF0010E9C
:10278000774CC3F800E0D4F800E0B24005EA0E0E42
:10279000013972440DD140F8042B804508D87149A5
:1027A000097811F0FB0F40F0028201215846009198
:1027B0005146012F50D0062FC2D801A454F827F05B
:1027C000192800004127000041270000AB29000024
:1027D00043290000AB280000F1280000D3F800E0F6
:1027E000BEF1000FB1D001241C605D4CD4F800E0B4
:1027F000B24005EA0E0E01397244DAD140F8042BDA
:102800008045D5D857490978012011F0FB0F009079
:1028100040F0CD81584651468445DFD8524C2027A0
:1028200027601F6827B34FF0010EC3F800E0E76C84
:10283000B2402F4001393A440ED140F8042B804574
:102840007746B5D84749097811F0FB0F40F0AF81C2
:10285000CDF800E058465146029F039C1740A7421E
:102860004FF0010E00F019811F68002F40F0F48036
:1028700001276AE74FF0010EC3F800E0A76CB240F1
:102880002F4001393A4440F0608140F8042B8045E4
:102890004FF005078CD83349097811F0FB0F40F051
:1028A0008681CDF800E058465146E3451F6801D9BE
:1028B000069CA4442FB34FF0010E294CC3F800E04E
:1028C0002768B2402F4001393A4440F0EF8040F889
:1028D000042B80454FF006073FF66AAF214909787F
:1028E00011F0FB0F40F06381CDF800E058465146EF
:1028F00084454FF0010E00F0F7801F68002F40F074
:10290000D780062721E7164C4FF0010EC3F800E0F0
:102910002768B2402F404C1E3A4440F0428140F8B4
:10292000042B80454FF0040700F23F810D480078EA
:10293000059110F0FB0F40F03A81CDF800E05846C9
:1029400051460A4C202727601F68002F92D1052787
:10295000FBE600BF10E000E00C7103404811FF1FD0
:10296000D0F00F408020074084F00F4088F00F40E7
:102970004FF0010E954CC3F800E02768B2402F409D
:1029800001393A4440F00B8140F8042B80454FF068
:1029900003073FF60DAF8E49097811F0FB0F40F0A9
:1029A0000681CDF800E0584651464FF0010E019CDB
:1029B000013C019440F0CB80D9F83C40049FBC42DC
:1029C00040F3E280049C013409EB040709EB440E58
:1029D00004941C68019797F841700297019F97F83B
:1029E00045700397BEF84A700197002C3FF440AF42
:1029F0004FF0010E754CC3F800E02768B2402F403D
:102A000001393A447FF428AF40F8042B80457746DB
:102A10003FF6CEAE6E490978CDF800E011F0FB0F1D
:102A200040F0C5805846514616E7D9F83C70049CE2
:102A3000A74240F3A980049C013409EB04070494E5
:102A40001C68039797F841700297039F97F84570A9
:102A50000397002C3FF40CAF5C4CC3F800E02768F0
:102A6000B2402F4001393A447FF4F6AE40F8042BCF
:102A700080454FF001073FF69BAE5549097811F0AC
:102A8000FB0F40F09480029F039C17400121A74256
:102A90000091584651467FF4E7AE019C002CC4D00B
:102AA0001F68002F7FF464AF03274EE6062782E6F7
:102AB000464CC3F800E02768B2402F4001393A4441
:102AC0004FF00607F2D140F8042B80453FF670AE78
:102AD0003F490978012011F0FB0F009067D158465B
:102AE000844551467FF409AF3A4B1B68DB0304D59C
:102AF000394A136843F080631360364A37491368D4
:102B0000099C43F0020313604FF400130B60D9F8E3
:102B100018300899D9F8342000EB8303CBEB03037A
:102B200007989B1001FB030305992D485B1A0021B0
:102B3000A3600170934220469DF80040047024BFBA
:102B40009B1A83600BB0BDE8F08F052733E61F6842
:102B5000002FA9D01D4CC3F800E02768B2402F40D9
:102B600001393A444FF0030719D140F8042B80454E
:102B70003FF61EAE16490978012011F0FB0F0090B8
:102B800015D15846514612E7D9F818401F68A0EBF6
:102B9000840C002F7FF4B7AE05910427D5E50327F9
:102BA00009E605910427214605E6059100E60D4A50
:102BB0000D4B2021116000221A6001236046009312
:102BC00092E70527A8F1040C98E500BFD0F00F406C
:102BD0008020074010E000E004ED00E004E100E0A8
:102BE0004811FF1F88F00F404C11FF1F2DE9F04FD7
:102BF000D0F82CB090F84130466AD0F858C0D0F8E0
:102C000028A091B01A460893436BB3FBFBF30F93D4
:102C10000BF1FF33DBB204935C1C03680A9390F85A
:102C200040300B9390F845300E910993416DB0F808
:102C30004A300191864676080393002A00F05F81AE
:102C40008369DFF8F08201EB8309CC4540F25981BA
:102C5000AD4DAE4B2A68002722F002025FFA8BF1DD
:102C6000069107972A60AA4AAA49019D4FF40010CD
:102C700010604FF0010008700F99029789000C91C5
:102C800004990D913A46384605974FF0FF31D3F835
:102C900000B0BBF1000F18D1D3F800B0BBF1000FAA
:102CA00013D193460DE01A6872B91A6862B91A68AE
:102CB00052B91A6842B91A6832B91A6822B91A6840
:102CC00012B91A68002AEED05A464FF0010B924F03
:102CD000C3F800B0D7F800B006EA0B0B8B4500F044
:102CE000DF8039683140002C40F0C18045F8042B6A
:102CF000AC4500F2E480894A127812F0FB0F40F0F4
:102D000025810120019D049C05900A46002C00F0BD
:102D1000B5800020012C08D1D5F800B00A9F37EA11
:102D20000B07029F18BF5F46029748F0010B5847F8
:102D3000089F01EA070B099F5F45A8D1039F002F59
:102D400040F0DA80079FBB46DEF83C70BB4580F25E
:102D5000CB80079F01370EEB070B07979BF841705D
:102D600008979BF84570099791E7039F013F0397E8
:102D70008DD1079FB846DEF83C70B84580F2B4802C
:102D8000079F01370EEB07080EEB470B0797BBF8C1
:102D90004AB098F84170089798F8457009970BF178
:102DA000FF37DFF89481039771E7A9457FF46FAF90
:102DB0004D46554B1B68DB0304D5594A136843F055
:102DC00080631360504A5749136804980E9C43F07F
:102DD000020313604FF400130B60DEF81830029901
:102DE000CEF81C100199DEF8342009EB83035B1A3E
:102DF00006999B1001FB03030D9946485B1A0021BD
:102E0000934201702046A36028BF9B1A9DF814408E
:102E100028BF8360A94504700BD0019BED1AAD104B
:102E200044BF0F9BED18069B03FB05F31D460E9B4D
:102E30005D6011B0BDE8F08FA9453FF628AF3A4F6D
:102E40004FF02008C7F80080DFF8EC801FE7019FF3
:102E5000B94537D20C9FDFF8E480B94417E7334F08
:102E60004FF02008C7F80080DFF8D4800FE702FA9F
:102E70000AF2013C0A44002C7FF44BAF45F8042BC6
:102E8000AC4507D8254A127812F0FB0F67D1012212
:102E9000019D0592002048F0010B0246069C584710
:102EA00020B90B9802FA0AF20244013C013236EAD8
:102EB00002000AD00120002C3FF437AF2AE70A466F
:102EC000049C23E7DFF87480E1E6002CD6D0134899
:102ED000007810F0FB003FF41DAF144A144B202182
:102EE000116000221A6064E7DEF81870DFF8548081
:102EF0000D94A5EB8709CAE6DFF84C80C7E6DFF83A
:102F00004080ACF10409A3E610E000E00C7103403E
:102F100084E100E04811FF1FD0F00F4080200740FF
:102F200004ED00E004E100E084F00F4088F00F4081
:102F30004C11FF1F382E0000302D0000AA2D00007C
:102F40004E2E00005E2E00006A2D0000094B0A4A3A
:102F5000019D202111601C600123059329E7064A89
:102F6000044B019D2021116000221A60012305936A
:102F70001FE700BF4C11FF1F88F00F4084B02DE900
:102F8000F04F8DB0259C099426461F9C029416ACE8
:102F9000DDF880E0219D9DF898C084E80F001E9B1D
:102FA0000B932F9B2B9F9B689DF8B9400793002E96
:102FB000C0F29C809DF8B83001930DF1A2030493F8
:102FC000099B01330893002303934FF0FF330A93C7
:102FD0006FF006030693029B0DF1990901226E1E04
:102FE00003EA0C0B069B0799184659186FEA0C0365
:102FF000059322E0A046002C41D1CAB1B1FBF5F205
:1030000005FB1213F31A57F822200EFB03F322FAE2
:1030100003F3029A1340019A002A46D1DDF8048096
:1030200099F8002099F804A013409A4546D001224F
:103030000130012801F1010109D0B1F1704FD9D956
:10304000E4B901300128224601F10101F5D10499CA
:10305000039B02310491089901338B42039309F1D8
:103060000109BFD10A9A07998A4202D82F9B1946B3
:103070008A600DB0BDE8F04F04B070470022B1FB8C
:10308000F5F805FB1813F31A57F828800EFB03F325
:1030900028FA03F30BEA0308C445C9D0002AC7D0B5
:1030A000029A4FF001081340BAE7059A99F804A074
:1030B000134099F8002013409A45B8D1039B099A10
:1030C000934217D0C31D0ED0B8F1000F0BD1049B53
:1030D0001B880344002B06934FF00102B7DD6FF00D
:1030E00006030693B3E706900122B0E74FF0FF33E3
:1030F0000A93B7E7073005D0B8F1000F02D1049B5F
:103100001B8819440B9B022B02D00A9101229EE7D7
:10311000079B2F9A0A91013B93600793012296E740
:1031200084B02DE9F04FA1B0379D3F9C19959DF8D3
:10313000E85018941795349C9DF8E9E0DDF8B8B094
:10314000319FDDF8CC901A942AAD359E369C85E8E7
:103150000F009DF809319DF808811693389DBEF146
:10316000000F40F02281459BB3EB0B0B00F14C812B
:10317000CDF874E0449A002A0CDB05EB0B03013B0D
:103180009B1A48BF199A199948BF9B18994298BF32
:103190005B1AED1A05EB0B07199A013FBA4278D872
:1031A000AC42A7EB020715D943464FF0010AB046DF
:1031B0001E46552001F020FD2A2006B9AA2002351E
:1031C00001F01AFDAC42F4D8334646469846BAF1AF
:1031D000000F66D0199B002F03F1FF3AC0F21A814D
:1031E0005FFA89F31B93DB431C93179BCDF878A000
:1031F000741E5525DB43AA46CDF87CB03D46B34648
:10320000199346461A9FA046189C12E0169B002B65
:1032100040F0B180199B03EA0E0E5FFA8EF001F0C8
:10322000EBFC6FEA0A03DBB203F07F0A15F1FF350E
:1032300027D3B5FBFBF00BFB105ECEEB080E54F86A
:10324000200007FB0EFE20FA0EFE0EEA090E002EED
:10325000DCD1169B5FFA8EF01BB1179B034240F046
:1032600097801B9B18401C9B0AEA030E7044C0B257
:1032700001F0C2FC6FEA0A0315F1FF355FFA83FA29
:10328000D7D25546B046DDF878A05E46DDF87CB072
:1032900009E0AC4205D943464FF0000AB0461E464D
:1032A00087E7BA465525DA4541DB9DF87470179BD0
:1032B0003B401993731E4446DDF868801A973746E1
:1032C00056469A460FE0002B36D1179B2EEA030E86
:1032D0005FFA8EF001F090FCEA43D5B205F07F056D
:1032E000013E5E4523DBB6FBF7F0189B07FB106E33
:1032F000CEEB0A0E53F82000169B08FB0EFE20FAB8
:103300000EFE0EEA090E002CDDD1ABB95FFA8EF08D
:103310005FFA89FC0CEA000E25EA0C007044C0B28A
:10332000013E01F069FCEA435E45D5B2DBDA21B02B
:10333000BDE8F04F04B070475E456DD05CB1179B9F
:103340005FFA8EF00342C5D0179B2EEA030060F0AF
:103350007F00C0B2BEE7179B5FFA8EF00342D7D062
:10336000179B2EEA030060F07F00C0B201F044FC1E
:10337000EA43D5B2B4E7179B5FFA8EF018423FF4E8
:103380004EAF199B03EA0E0060F07F00C0B246E723
:10339000199B03EA0E0060F07F00C0B201F02CFC24
:1033A0006FEA0A035FFA83FA40E743AB54222EA97F
:1033B0006846159300F0E8FB2AAB0FCBFFF7DEFD64
:1033C000459BB3EB0B0B22D4169BD3B1721E38D4A2
:1033D0001A9BDDF868C0DDF85CA002FB03F1002356
:1033E0005FFA89F09E4627FA01F303401AEA030FB9
:1033F00002F1FF3208BF9E46531CCCEB0101F2D113
:10340000B6E6169B1D93B5E6199B9B44B0E6199B47
:103410009B44D9E7552546E71EF0800F8ED0199BB7
:103420001A988BB1179A1D9B23EA020060F07F0067
:10343000C0B201F0E1FBEA43D5B2002C7FF44EAFFD
:103440004EE700231D9395E6002C3FF461AF41E762
:10345000B64BB7492022F0B51A60426B02635300A5
:10346000A1FB03135B080021B3F5762FB5B004462A
:1034700080F8611040F2B38001230362A168032940
:1034800000F2B680AB4894F860500426082306701A
:103490002362B2F5F61F00F2B880B2F5762F00F283
:1034A0002281B2F5F62F00F2B080B2F5763F00F23D
:1034B0002181002D00F0B5802369934288BF2261ED
:1034C000082900F2BA800823B2F5763F236240F261
:1034D000F280236993420CBF4FF476334FF4F633F6
:1034E00023614FF47632944B6263E16B002980F2E2
:1034F000CF80082100250229E56300F0A880042977
:1035000000F0DC80012940F0C38020276162A162C5
:10351000E7624FF4F645894994F841E0B3FBF7F6CA
:103520000D4401EB8606A2636363A665E5656165EC
:10353000BEF1000F00F0BB802169521A22611032E7
:1035400000257F491A95B2FBF7F3A3610B687D4E06
:103550008DF8605043F400034FF0FF321992D4F815
:1035600004E00B603168784A784F037821F002015B
:1035700031601560C7F800E01168052B41F00101CA
:10358000116000F0CE80042B00F0E480062B00F0E8
:10359000F880002B00F0C080012B00F0F780022B98
:1035A00000F0F980032B00F00681694D2B6813B9F8
:1035B00094F860307BB118AB93E8070015AB83E853
:1035C0000700542204F11001684600F0DDFA94E887
:1035D0000F00FFF7A5FD00232B6035B0F0BDB3F55C
:1035E000F62F4ED9A1680223032903627FF64AAF62
:1035F000052934D84F4894F8605005260823B2F5C1
:10360000F61F067023627FF648AF236A042B00F092
:10361000B480082B04BF4FF476326263002D7FF430
:103620004BAF6369092994BF01330233934223618D
:1036300088BF226108297FF646AFE36B216A002B21
:1036400002F12003FFF656AF02297FF458AF03259D
:1036500010276562A162E7624FF476455BE70829AF
:1036600039D994F86050002D46D0236A072B43D9EE
:10367000302940F2A5802F480123037084F861307F
:103680003FE0B3F5763FCCBF042308230362F5E6A1
:10369000FF2180250427082661624FF0803184F8DD
:1036A0004050E762A66221604FF4763533E7C4F8F4
:1036B00010E0102244E702F1200316E708274FF03C
:1036C00088350F262560A162E76284F84070666243
:1036D0004FF4F6351FE7174894F860500626082384
:1036E00006702362D5E6236A022B8FD14FF476222F
:1036F0006263DEE6236A8CE7302951D90D48002346
:103700000370B2F5F61F7FF6C8AE236A012BEBD12A
:103710004FF4F6126263CCE618A92046FEF7C0FF0C
:1037200043E718A92046FDF739F93EE788F00F4036
:10373000ABAAAAAA5011FF1F20D803006011FF1FD7
:103740003C80044000700340087103400071034056
:103750004C11FF1F642221461BA800F015FA1BA87C
:1037600018A94FF480638DF8AD502993FDF7E8FA5E
:1037700018A92046FDF7E4FA17E74FF4F622626332
:1037800097E618A92046FDF7B5F90EE718A92046D7
:10379000FFF72CFA09E718A9204600F071F804E7B2
:1037A000182902D9236A072BA8D90A480226082318
:1037B000067023626DE618A9204602F0FDF9F4E6D2
:1037C0001829F2D9034803260123067084F86130D2
:1037D00097E700BF5011FF1F2DE9F0439DB0002374
:1037E000234E244D07930822089309930A930F93BD
:1037F00010938DF84C308DF86C308DF86D308DF85D
:103800004D301293FF2104231B4C1C4F0B92B146E9
:10381000A8460D920C910E9311E033680193019B21
:103820002A689B1AB3F5FA6F07D9D9F800300293CA
:103830002368029AC8F80020BBB1FDF74BF801F0ED
:1038400049F9002807DD236863B101F01FF903A9D6
:10385000C0B2FDF71DF83B68002BDED003A8FFF7D0
:10386000F7FDDAE7FCF716FEEFE7FCF7FFFDE4E70C
:10387000ACE9022080E902204411FF1F4C11FF1F18
:1038800000B5024697B0034692F84120019090F8A7
:1038900045000592CDF828A060F30F2A0598DFF8BF
:1038A000D0E203911A46B3F84A300293504460F3D1
:1038B000070A0298536D079300EB1A40936D049327
:1038C00080B2936806901293936906990893536B9C
:1038D000D26A0992079ACDF83090CDF82CC0CEF874
:1038E0000C2061F31F4ACEF810200999DDF810C0B2
:1038F000B3FBF1F3CEF80830089BCEF80430129BEE
:10390000CDF824B0182B019B11964FF000006FF3F7
:10391000000B88BF60F3041BCEF800000646D86B8E
:103920000E9598BF4BF0100B0D941097914675466D
:103930008D4C8E4FCDF83C806FF3820B002875D1F3
:10394000029B002B00F08980069B03EB4300059B44
:10395000801060F31F4A002B62D0079B089ADFF8A3
:10396000208203EB8203CEF81030814B04991B694F
:103970008B4202D37E4A0B1F13616FF3410BFCF79E
:10398000D7FF23781E46237803EB0626C04723780B
:1039900003EB0626C047237876484A4603EB062306
:1039A00042F8043B9146E14521461E4607D3037881
:1039B000D5F80C9013F0FB0F4BF0010B50D13A6887
:1039C000072AFCD800BF00BF0B781E46C0471BF07B
:1039D000020FD8D0FCF7C2FF019B2A6998690199B0
:1039E000EB68496BDDF828A0DDF82CC0DDF83090DD
:1039F000109F119E02EB80020DACD31A94E83001A7
:103A000003330398CBF300028B42DDF824B08360CC
:103A100028BF5B1A027028BF836017B05DF804FBF3
:103A2000049BDFF86081CEF810309EE701281DD09E
:103A300002286DD003282ED0002885DD4E4B02933E
:103A40000022029B03EB820101324B8803EB43030C
:103A50009B1090424B80F4DC76E74BF0040B73E74D
:103A6000464B20221A60FCF729FDB3E7019ACEF8F5
:103A7000000092F8461092F84230B2F84C2003EB66
:103A8000012303EB0242130C3B4903EB43039B105E
:103A90000A604B8058E70199CEF8000091F8462063
:103AA00091F8423091F847101291019991F8431022
:103AB0001391019991F84810149103EB0221019B95
:103AC000B3F84C200292139A93F84430159313469E
:103AD000129A03EB02221292159B149A03EB022313
:103AE0001393029B01EB0342234902910199B1F820
:103AF0004E3021498A60129A019902EB0343B1F8D2
:103B000050201D494B60139B03EB02420A6097E76C
:103B10000199CEF8000091F8462091F8423091F8D2
:103B200047101291019991F84310139103EB022170
:103B3000019AB2F84C300293B2F84E301493139BB2
:103B40001A46129B02EB0323029A01EB02421292E5
:103B5000149A0949029103EB02431393129B4B60A1
:103B6000139B0B606CE700BFD0F00F400471034063
:103B700094E902208020074084E9022088F00F4069
:103B8000F50AFF1F590BFF1F844641EA000313F09B
:103B900003036DD1403A41D351F8043B40F8043B54
:103BA00051F8043B40F8043B51F8043B40F8043B17
:103BB00051F8043B40F8043B51F8043B40F8043B07
:103BC00051F8043B40F8043B51F8043B40F8043BF7
:103BD00051F8043B40F8043B51F8043B40F8043BE7
:103BE00051F8043B40F8043B51F8043B40F8043BD7
:103BF00051F8043B40F8043B51F8043B40F8043BC7
:103C000051F8043B40F8043B51F8043B40F8043BB6
:103C100051F8043B40F8043B403ABDD2303211D356
:103C200051F8043B40F8043B51F8043B40F8043B96
:103C300051F8043B40F8043B51F8043B40F8043B86
:103C4000103AEDD20C3205D351F8043B40F8043B56
:103C5000043AF9D2043208D0D2071CBF11F8013B54
:103C600000F8013B01D30B8803806046704700BF1A
:103C7000082A13D38B078DD010F003038AD0C3F129
:103C80000403D21ADB071CBF11F8013B00F8013B0B
:103C900080D331F8023B20F8023B7BE7043AD9D3CA
:103CA000013A11F8013B00F8013BF9D20B7803709F
:103CB0004B7843708B788370604670471C4A02EBE8
:103CC000C00301295B6811D004291BD052F83000D1
:103CD000002280F8802229B1022920D0032922D095
:103CE0001A6070474FF480721A60704752F83000C3
:103CF0004FF4A27280F880121A601A6822F0200233
:103D00001A60704752F830104FF4A272012081F807
:103D100080021A601A6842F020021A60704740F26E
:103D200003121A6070474FF481721A60704700BF27
:103D30005059000030B4054B054D064C00221021AF
:103D40001A602A602060196030BC704714D00340AC
:103D500004D0034000D003403F2801D8FFF7AEBF96
:103D6000704700BF2DE9F843054672B6214F224B3C
:103D7000224A1B683C68126862B6520102D5322B97
:103D800088BF0134A5B3C3F56A331D4EDFF86890D0
:103D9000DFF8688003F27F134FF47A72A6FB0313F7
:103DA00002FB04F404EBD31472B6D9F800103A689D
:103DB000D8F800E062B6C1F56A3303F27F13A6FBC0
:103DC00003031EF0806FC4EBD3134FF47A7002D05C
:103DD000322988BF013200FB0233B3F57A7F04D366
:103DE000013D05D004F57A74DEE700F03DFFDBE726
:103DF000BDE8F883ACE9022018E000E004ED00E043
:103E000089888888F8B54E4B4E48DFF85CC14E4C27
:103E10004E49DFF858E14E4E4E4D4F4F4FF0006285
:103E20001A604FF080521A604FF000521A604FF043
:103E300080421A604FF000421A600022026028237C
:103E40004EF6FF70CCF80000CEF8003023600EF57F
:103E5000012E0B6033602B6006F500263B6005F5F4
:103E60000025A36207F500278B6204F5012401F504
:103E7000012106F6E87605F6E87507F57F6710314B
:103E80000EF1100E203433602B60CEF800303B6012
:103E90000B602360314CBB618B6109212160A7F568
:103EA000002704F58054203F08343A602060BB604E
:103EB000E36047F8041C04F5FD2407F5FE270437EA
:103EC00004F2FC7422603860A360FB6044F8041CB8
:103ED000083404F6FC74C7F8FC2F2060A4F5E12434
:103EE000A4F2DC7433602B60C7F8F81F21681C480B
:103EF00041F40071216001681A4C0EF57F4E0EF1FD
:103F0000E80E07F5883706F5803605F5803541F06F
:103F100000710160CEF8002047F6FF710822396079
:103F200033602B60226000F001FF3220FFF71AFFA0
:103F300000F002FD4FF4AF70BDE8F840FFF712BF8C
:103F400004E100E004800340148003401C8003402F
:103F5000248003402C8003403480034000800340D1
:103F60000480044000900C40088003400C80034013
:103F7000431E032B14D872B60A4951F8230068B1C6
:103F800070B4094C058834F81320466841F8236062
:103F9000521B24F8132062B670BC704762B670479B
:103FA0000020704708EA0220C8ED022001380328EB
:103FB0000BD872B6074B53F8203043B100205B6832
:103FC0000130002BFBD162B67047002070471846C5
:103FD000F9E700BF5CEA0220F0B472B61A491B4E42
:103FE000012311F8014B194F9A00240742F00105F3
:103FF00005D556F8324064B156F83520BAB10133D0
:10400000052BEED162B6124B00221A70F0BC00F004
:1040100017BD0F4C0F4D217847F8325007EB431373
:1040200008304A1E5860227062B6F0BC70470849DA
:10403000094B0A7847F8353007EBC5030830013AD9
:1040400058600A7062B6F0E7505B00000000FF1F86
:1040500085EA022088004000C8004000431E032B70
:104060001DD81B4A400140F0100030B4104472B615
:10407000184CE25C032A1BD8DFE802F00212151785
:1040800003220D88E25410F0080F14BFC8238823C0
:1040900043EA054308310360416062B630BC7047B3
:1040A00008300222EDE70522EBE708300422E8E7BA
:1040B000094A52F8230038B1084A52F823004160F7
:1040C00042F8231062B6E9E742F82310034AF7E703
:1040D0000000FF1F94EA02205CEA02206CEA022042
:1040E0002DE9F04FDFF804A3DFF804B387B044E014
:1040F000A94F4FEA930807EBC809013ED9F80420FD
:1041000003F00803F6B2A2F1080003F0FF04002B4D
:1041100040F0FE8057F838301B0C99B222F8081C8A
:10412000002B00F0EC809D4B22F8064C42F8044C2A
:1041300053F82620002A00F02B82994D55F826309E
:104140005860984C45F8260034F81630194424F885
:10415000161000F055FC002800F01382924A934B91
:1041600019F0080F00F1080018BF1346C9F8040041
:1041700047F8383008238AF800309AF80040E4B253
:1041800060071AD58A4B1B78A3B18A490A7802F0D6
:10419000FF0322B1013BDBB20B7003B900BE8649BD
:1041A0000A7802F0FF032AB1013BDBB20B70002B4F
:1041B00000F0BD8104238AF8003004F0080303F006
:1041C000FF02002B00F0C8809BF80030DBB21E0914
:1041D0008ED19C08704F57F8342007EBC401C2F30E
:1041E0008302013A49680C2A00F28580DFE802F078
:1041F0007979838383838383428383830700086879
:104200006E4B6F4D0193684B4A686E4E47F83430E1
:1042100081B240F28164694B6A602860002201200B
:10422000A1421A603A61BA61307000F2E380B1F5E0
:10423000D06F80F02782B1F5817F00F0E08100F23D
:10424000C381802900F03682822940F0DE81A9886E
:104250005D4B01F07F01042900F2D8815B4C89009D
:104260000B44227062701A78930740F12283207009
:10427000022023E2514B01931A683AB3544B514E3A
:104280005449188834780D784028864645F002084D
:1042900028BF4FF0400E002C84F001043470CEEBA8
:1042A00000000CBF8824C82407EBC80680B285F044
:1042B000010544EA0E447260188047F838407244A1
:1042C0000D70002800F0B780019B1A603C4B1A88E3
:1042D000B2F5A06F0FD100219A7859703E4B1A7039
:1042E00009E0374A108842F22102904200F0A8808B
:1042F0002D4A47F83420394A012313703AE72A4AF5
:104300002A4B19F0080F18BF134647F8383031E729
:1043100000F096FB324A334952F82630002B00F069
:104320003B8158688C5D42F8260003F10802C9F809
:104330000420032C05D8DFE804F02C0229260222F1
:104340008A551A8819F0080F0CBF8823C82343EA3E
:10435000024347F838300DE7E00700F1EB80210613
:1043600000F12881A20706D51F4A204913780220B0
:10437000DBB213700870E30602D51C4B10221A70D2
:1043800007B0BDE8F08F04228A55DAE705228A5586
:10439000D7E703228A55D4E70000FF1F08EA02206E
:1043A000B4E90220C8ED0220C800400088004000A7
:1043B00090EA022019EA022098EA0220B0E90220DD
:1043C0007CEA022018EA0220C020074088EA022086
:1043D000C4E9022084EA0220982007409420074084
:1043E0005CEA022094EA02208820074080200740EF
:1043F0009020074042F22104A14200F0948043D86B
:10440000B1F5086F00F0A881B1F5106F40F0FD80A4
:10441000B84AB94CA978117004F1800503E008345A
:10442000AC4200F09E81236A1906F8D5606A08380C
:1044300000F006FBF3E7BEF1400F18BF002243E790
:10444000AE4ACD1D11F8013B02F8013FA942F9D156
:10445000AB4A1268862A00F01181AA49AA4E0A784E
:10446000307882F00105002842F002020D700CBF86
:104470008821C82147F8321007EBC20280F0010002
:1044800000213070516033E742F22124A14240F014
:10449000FE81DFF8BCC29D4B9D49AC78DCF8005032
:1044A0001D6081460C7000200290804684460446C0
:1044B00094490D7845F0020E07EBCE03B9F1000FD9
:1044C0005C600CBF8824C82444EA080385F001041A
:1044D00047F83E3032700C70DFF81CE28A4BDFF890
:1044E0002482002840F09880BCF1400F1BD144F09A
:1044F000020407EBC403029FDFF8FCE15F60002ABF
:1045000040F09F80020442F0880207444EF83420B5
:1045100086F800900D703B46402804D100207D4A6B
:10452000019910800B607C4A01231370E3E600F0D0
:104530006FFB3FE6704B784872491A614FF0020EEC
:1045400080F800E0754F0A70754919609960754EE2
:10455000754D764C9A610D213970FF213170DFF86D
:10456000F4E129702270724D724A8EF800109F2774
:10457000012406F8047C5D600470DA6007B0BDE8D1
:10458000F08F6D4A47F83800137801331370F1E566
:1045900043F82600694DD4E58B5D032B67D801A253
:1045A00052F823F07541000075410000F945000004
:1045B000F345000059495C4B80220D2008701A70A9
:1045C000A2077FF5D8AECFE640F20232914240F02A
:1045D0005681A98801F07F01042916D86A88A2B9FA
:1045E0004E4C89000C448146217841F00201217033
:1045F00059E701238B55BDE500238B55BAE5A98802
:1046000001F07F01042940F24781444B0F221A70C8
:10461000414A012313706EE640287FF668AF44F0EC
:1046200002040EEBC401029E4E60AAB1444A83F814
:1046300000903346403888F8005040334EF834201C
:104640006DE70204029B86F8009042F0C8020D70EC
:1046500003444EF834205FE783F80090029B304A11
:1046600088F80050403840334EF8342057E719F0AE
:10467000080F0CBF022303238B557BE5314A0F2122
:104680001170EAE6304A5468002CBED06888B5F84C
:1046900004E003E00C325468002CB6D01388834247
:1046A000F8D153887345F5D1000A03280CBF207850
:1046B000108903E0254C022022706270EA88824251
:1046C00080F00C810F490D78402A45F0020E944687
:1046D00007EBCE0028BF4FF0400C04EB0C03446006
:1046E0000293CCEB02004FEA0C484FF00109002284
:1046F000C824E9E690EA02200000FF1FCFED022067
:10470000D0ED022084EA022018EA0220D8ED02202F
:10471000A8EA0220C4E9022094200740C0200740F4
:1047200088004000882007408020074098200740EC
:10473000C8E902201CEA022085EA0220B4E902202E
:10474000C800400019EA0220545B000088EA0220F9
:10475000ACE902208C200740684A694C127822702C
:10476000ACE76849684B694A02916949694C6A4DEE
:10477000039405964FF0000988461C46164604959A
:10478000206828B1456800F05BF92846002DF9D172
:1047900000232360049B30681A46002342F8293026
:1047A00028B1456800F04CF92846002DF9D10022C7
:1047B0003260029A98F800301146002241F8042B2A
:1047C000039A0291023B4FF0000122F81910032BCB
:1047D00007D8DFE803F0340234024FF0010388F811
:1047E000003009F10109B9F1040F04F1040406F1E4
:1047F000040608F10108C3D1484B059EDFF830914B
:10480000DFF8308100211970012518F8013B09F803
:10481000043B1A0718D4AC0044F0020244F003042D
:10482000002347F8323047F834303D4B994505F1C5
:104830000105EAD196F8009089F0010233E64FF0C5
:10484000000388F80030CCE700F0DAF8AC0007EBA2
:10485000451300F10802002837D05A60314B47F861
:10486000343000F0CDF844F0010307EBC30200F14F
:10487000080100B351602C4A47F83320CCE7B1F56A
:10488000A06F7FF4C2AE00224FF001090BE642F2A6
:1048900021329142F7D0B8E66A88002A7FF4B5AE9B
:1048A000224C89000C448146217821F002012170BC
:1048B000F9E5022002E7194B44F001021B7847F8A2
:1048C0003200164A01331370A6E7144B134A1B78C3
:1048D000AC00013347F834001370C2E74028844627
:1048E00028BF4FF0400C04EB0C03CCEB00004FEA68
:1048F0000C48029300224FF00109D9E590EA02200A
:1049000088EA02206CEA022008EA02205CEA02201F
:1049100094EA0220C8ED0220B4E9022085EA0220D0
:10492000D420074088004000C8004000C020074055
:10493000C4200740505B00002DE9F843244C00F0F0
:10494000EBFD002204F1880023461A605A60083308
:1049500083424FF00001F8D11E481F4A0368DFF878
:1049600090E01E4F1E4D1F4EDFF88880DFF888C094
:10497000DFF8889043F48023036013681A4843F0FB
:1049800040731360C4F307238EF80030C4F3074369
:104990003B70240EFF2302F5C9222C7002F58472AD
:1049A00088F80030114D8CF800303370012389F8FD
:1049B000003070268EF864104FF40014102107F8B0
:1049C0002C3C2E70046011700EF1640EBDE8F8836B
:1049D0000000FF1F3480044000D80040B020074092
:1049E000B42007401020074004E100E035E400E077
:1049F0009C200740802007408820074094200740E3
:104A000072B60D480268B2FA82F30B2B10DC4FF03D
:104A10000041D94022EA0102026062B6074803EB76
:104A2000C303DB00C2180021C1501046516070471B
:104A300062B60020704700BF540CFF1FD003FF1F59
:104A40000D4B0E4AC31AA2FB03231B090B2B0CD8D8
:104A50000B4A127852B972B60A484FF00041026808
:104A600021FA03F31A43026062B67047064A1278CD
:104A7000002AF0D0FFF7B0BAD003FF1F398EE33819
:104A800085EA0220540CFF1F90EA022038B50F4D32
:104A9000286878B143880288C118013393420C7AA0
:104AA00002D24380204638BDFFF7CAFF00232046CC
:104AB0002B6038BD064B1B782BB10320FFF758FA4B
:104AC00028600028E6D14FF0FF3038BDA4EA02206C
:104AD00090EA0220044B054A1B6890881BB11A8893
:104AE0005B88D31A18447047A4EA0220C8ED02205C
:104AF0002DE9F04FDFF8F89083B0012289F800200B
:104B0000019169B3DFF8EC80354F019E8346D8F8F8
:104B10000000B0B3334D4488C4F14001B14228BF16
:104B2000314604EB010E00221FFA8EFE2A70761A1F
:104B3000A0F802E000F1080251B1013C22445944BE
:104B40001BF8014B02F8014F8B45F9D1B0F802E098
:104B5000BEF13F0F0BD8244A05211170002ED6D18B
:104B60000198002389F8003003B0BDE8F08F40229F
:104B7000028001460420FFF771FA0022C8F80020E5
:104B8000E9E73A7822B3194C164D4FF0010A07E0D5
:104B9000013C16D02A78A2B900F066F83A78BAB18A
:104BA0000420FFF703FA0728F2D889F800A0FFF7DE
:104BB00027FFC8F800000028ADD10D4B013C18704C
:104BC000E8D101234FF0FF302B7003B0BDE8F08F28
:104BD00000234FF0FF3089F8003003B0BDE8F08FBC
:104BE00090EA0220A0EA022098EA022081B50100A2
:104BF00099EA02209CEA022000B583B002AB0121B1
:104C000003F8010D1846FFF773FF03B05DF804FBCE
:104C100038B50E4B1B7873B90D4C216861B103F0A8
:104C2000FF054B880B800420FFF718FA256038BD7C
:104C3000084B01221A7038BDFFF7E2FE0028F7D0BA
:104C40000146BDE838400420FFF708BA99EA02207F
:104C50009CEA022098EA022008B5FBF7E5FDFEF782
:104C6000BBFD00F001F8FAE738B52C4C237803B10E
:104C700038BD01232370FFF72DFF002842D100F03B
:104C800029F900283BD100F0BBF9002834D100F00D
:104C90004DFA70BB00F0C6FA40BB00F03FFB10BB02
:104CA00000F0B8FBE0B900232370EFF30583002B7D
:104CB000DED1EFF3108172B6194B186828B3194C86
:104CC000227812BB45691D60012323700DB3AA61D0
:104CD00001B962B600254577836898472570C7E714
:104CE00000F060FDDFE700F05BFDD9E700F056FD66
:104CF000D3E700F051FDCDE700F04CFDC7E700F031
:104D000047FDC0E700F050FDB9E70029B0D162B619
:104D100038BD054B1D600029DCD1DAE7A9EA022085
:104D2000BCED0220C0ED0220B8ED022030B42948CD
:104D3000294A2A4B2A4D6024E121047011701B7806
:104D4000284C082B30D00A2B2748284937D00C2B69
:104D50000CBF35225D2212232A60236002600B60A3
:104D6000234B24491B78244ABBB101230B601360F9
:104D7000224B23491B78234A012B26D9042B0FD918
:104D8000082B1ED9102B94BF862387230B6013603A
:104D90001D4B01221A7030BC70470B601360E7E7AF
:104DA00084230B601360F3E700F58E200F49083071
:104DB000212213232A60236002600B60D0E739228E
:104DC000F7E785230B601360E2E780230B60136035
:104DD000DEE700BF0040074001400740580CFF1FBE
:104DE00008B003400CB0034008B00B400CB00B40BF
:104DF000ABEA022020B0034020B00B40590CFF1F4B
:104E000024B0034024B00B40AAEA022008B5104C9D
:104E100008E0236859050DD423681A050FD42368C8
:104E2000DB0411D423685803F3D5FFF759F923683D
:104E30005905F1D500F05EF823681A05EFD500F0AA
:104E4000EFF82368DB04EDD500F080F9EAE700BF56
:104E50003480044008B5FFF7D9FF00BF014B102292
:104E60001A80704700200540704700BF084A137839
:104E7000802B01D0002070470649074B0748086087
:104E8000002119701378802BFCD00120704700BFDF
:104E900003E007404480044001E00740000017138E
:104EA000094A1378012B01D00020704703F1804399
:104EB00003F5FC23602119701378802BFCD1034B80
:104EC000034A1A600120704703E007404480044011
:104ED00000000703054A064B10781B78C0B2DBB20E
:104EE000984238BF4030C01A704700BFB0EA022075
:104EF000B1EA0220F0B4384B1A7912F0300F2CD0FE
:104F000072B6997D01F0FF0200293DD062B6334FA1
:104F1000334938780D78334E1C46C0B2EDB2431C8D
:104F2000402BE17928BF0023AB4202F1FF32C9B226
:104F30001CBFF154184612F0FF02F0D12A4B1B6837
:104F4000C2B23A704BB1A84236BFC5F14005401B12
:104F500040192728C4BF01221A701F49CA78D2B24B
:104F6000150616D452060DD51B4B1B795B0609D5C9
:104F70001E4B1F491B6800220A7003B11A70164BA2
:104F80003C22DA70F0BC70474022D9795A7462B67C
:104F9000E3E70B791C06E5D5164B174E1C783378E2
:104FA000E4B2DBB29C420ED0144D01E0A3420AD021
:104FB0000133402B28BF00230879E85CC0B2C871D8
:104FC000087D0728F2D9DBB2034933700B79180644
:104FD00044BF7C23CB70C5E700A00640B0EA0220A6
:104FE000B1EA0220F4EA0220ACEA022038EB022007
:104FF00034EB02203CEB022035EB0220B4EA022025
:10500000054A064B10781B78C0B2DBB2984238BF15
:105010004030C01A704700BFB0EB022045EB0220C1
:10502000F0B4384B1A7912F0300F2CD072B6997D4B
:1050300001F0FF0200293DD062B6334F3349387882
:105040000D78334E1C46C0B2EDB2431C402BE179C3
:1050500028BF0023AB4202F1FF32C9B21CBFF1549A
:10506000184612F0FF02F0D12A4B1B68C2B23A7008
:105070004BB1A84236BFC5F14005401B4019272857
:10508000C4BF01221A701F49CA78D2B2150616D4BD
:1050900052060DD51B4B1B795B0609D51E4B1F49CC
:1050A0001B6800220A7003B11A70164B3C22DA709A
:1050B000F0BC70474022D9795A7462B6E3E70B79A5
:1050C0001C06E5D5164B174E1C783378E4B2DBB2DC
:1050D0009C420ED0144D01E0A3420AD00133282B8C
:1050E00028BF00230879E85CC0B2C871087D072892
:1050F000F2D9DBB2034933700B79180644BF7C2325
:10510000CB70C5E700B00640B0EB022045EB0220B3
:1051100070EB022040EB0220B4EB022044EB0220B3
:10512000B8EB0220B1EB022048EB0220054A064B07
:1051300010781B78C0B2DBB2984238BF4030C01A3A
:10514000704700BFC0EB0220C1EB022030B42B4BF4
:105150001A7994061FD52A48DA7903782949013348
:105160003F2B0978C8BF00238B42D2B203D0264C14
:10517000D9B2E2540170254A116861B1244A12780B
:10518000D2B2934236BFC2F140029B1A9B18272B22
:10519000C4BF01230B70194AD378DBB2180611D4AF
:1051A0005A060DD5154B1B795B0609D5194B1A49C3
:1051B0001B6800220A7003B11A70104B2C22DA709F
:1051C00030BC704711790906EAD5144910480C78AB
:1051D0000178C9B28C420DD04A1C272A84BF002115
:1051E0000A460F4D054C98BFD1B2AA5CD2B2E2710B
:1051F0000170D5E76C21D170D2E700BF00C0064036
:10520000C0EB0220C1EB0220ECEB0220BCEB022041
:105210002DEC022030EC02202CEC022034EC022099
:10522000C4EB0220054A064B10781B78C0B2DBB2F3
:10523000984238BF4030C01A704700BF3CEC022093
:105240003DEC022030B42B4B1A7994061FD52A4826
:10525000DA790378294901333F2B0978C8BF002345
:105260008B42D2B203D0264CD9B2E2540170254A07
:10527000116861B1244A1278D2B2934236BFC2F1AA
:1052800040029B1A9B18272BC4BF01230B70194A9D
:10529000D378DBB2180611D45A060DD5154B1B79FD
:1052A0005B0609D5194B1A491B6800220A7003B125
:1052B0001A70104B2C22DA7030BC70471179090635
:1052C000EAD5144910480C780178C9B28C420DD047
:1052D0004A1C272A84BF00210A460F4D054C98BF5F
:1052E000D1B2AA5CD2B2E2710170D5E76C21D17063
:1052F000D2E700BF00D006403CEC02203DEC02208B
:1053000068EC022038EC0220A9EC0220ACEC022070
:10531000A8EC0220B0EC022040EC0220054A064B2B
:1053200010781B78C0B2DBB2984238BF4030C01A48
:10533000704700BFB8EC0220B9EC022030B42B4B10
:105340001A7994061FD52A48DA7903782949013356
:105350003F2B0978C8BF00238B42D2B203D0264C22
:10536000D9B2E2540170254A116861B1244A127819
:10537000D2B2934236BFC2F140029B1A9B18272B30
:10538000C4BF01230B70194AD378DBB2180611D4BD
:105390005A060DD5154B1B795B0609D5194B1A49D1
:1053A0001B6800220A7003B11A70104B2C22DA70AD
:1053B00030BC704711790906EAD5144910480C78B9
:1053C0000178C9B28C420DD04A1C272A84BF002123
:1053D0000A460F4D054C98BFD1B2AA5CD2B2E27119
:1053E0000170D5E76C21D170D2E700BF00A00E405C
:1053F000B8EC0220B9EC0220E4EC0220B4EC02206C
:1054000025ED022028ED022024ED02202CED0220C3
:10541000BCEC0220054A064B10781B78C0B2DBB208
:10542000984238BF4030C01A704700BF34ED0220A8
:1054300035ED022030B42C4B5A6894021FD52B480E
:10544000DA6803782A4901333F2B0978C8BF002363
:105450008B4204D0274CD2B2D9B2E2540170264A12
:10546000116861B1254A1278D2B2934236BFC2F1B7
:1054700040029B1A9B18272BC4BF01230B701A4AAA
:105480009368180202D55268110211D45A020DD540
:10549000154B5B685B0209D5194B1A491B68002242
:1054A0000A7003B11A70184B00221A6030BC7047A2
:1054B000164A124910780A78D2B290420DD00132C1
:1054C000272A84BF00200246114D074C98BFD0B256
:1054D000AA5CD2B2E2600870D8E70E480A4A0024FB
:1054E000012104601160D1E700400C4034ED02203E
:1054F00035ED022060ED022030ED0220A1ED02200A
:10550000A4ED0220A0ED022058018843A8ED02205E
:1055100038ED02205C01884310B584B072B6FFF705
:10552000A5FC184A184B19491160702280211A7085
:105530001A46197013781B06FCD5154B1C68FFF72B
:10554000AFFC62B6134B9C429CBF04EB8404640026
:105550002046114C01A90A2200F028F901A9204691
:10556000002311F8012B01333AB10A2B20F8022F46
:10557000F7D11623237004B010BD5B00DBB223709B
:1055800004B010BD040002400000024000000741CA
:105590000C0002407F969800E80CFF1F10B4EFF358
:1055A000108272B6437F33B9017F012908D00329E5
:1055B00010D00123437702B962B65DF8044B7047FF
:1055C000114C2168A1B1114943610B6883610860E6
:1055D0005861EEE70E4C216881B10E4943610B68BA
:1055E0008361086058610C4B4FF080511960E0E70F
:1055F000064B4161816120601860DAE7054B41612B
:10560000816120601860EEE7BCED0220B8ED022059
:10561000ACED0220B0ED022004ED00E010B4047FF8
:105620004160022CC26003D05DF8044BFFF7B6BFA7
:1056300083685DF8044B184770B5EFF3108272B6BB
:105640000C4C206880B10C4E00254369236073B177
:105650009D6102B962B6457783689847EFF310827F
:1056600072B620680028F0D102B962B670BD33600E
:10567000EFE700BFACED0220B0ED0220FFF7DCBF8A
:10568000184A30B41468002C27D0036821688B4274
:105690000ED2CB1A00218460C1602360E0601060EC
:1056A0000223037530BC704711688B42144608D33F
:1056B000A2685B1A0360002AF6D18260C460A06011
:1056C000EEE7D268C2608460E060C568CB1A02224F
:1056D000A8602360027530BC70478460C4601060AD
:1056E000DEE700BFB4ED0220F8B5224E34682CB3DB
:1056F0002368002B3AD1204F1D4604E03468ECB1FA
:105700002368002B32D1A36803B1DD6020693360C8
:10571000036825751B68BB4221D1037F4560022BBE
:10572000C46020D0FFF73AFF6368002BE6D0236007
:105730002046FFF7A5FF3468002CE1D1EFF310837A
:1057400072B60E4A00211068116003B962B628B122
:105750008468FFF795FF20460028F9D1F8BD22465E
:1057600000219847E0E783689847DDE7013B236025
:10577000E4E700BFB4ED02201D560000C4ED022096
:10578000024A136801331360FFF7AEBFACE9022091
:10579000704700BF704700BF704700BF704700BF31
:1057A000704700BF704700BF704700BFF0B44D1E88
:1057B0002E46002400E00134B0FBF2F302FB13009C
:1057C000092800F130078ABF3730F8B2C0B206F8B6
:1057D000010F1846002BEED10A1953704CB1107806
:1057E00015F8016F28700133E01A834202F801694D
:1057F000F5DB0846F0BC704770B50F4E0F4D761BB9
:10580000B61018BF002405D0013455F8043B984762
:10581000A642F9D10A4E0B4D761B00F0C7F9B6101F
:1058200018BF002406D0013455F8043B9847A6421F
:10583000F9D170BD70BD00BFC05B0000C05B00004F
:10584000C85B0000C05B0000024B13B1024800F0CF
:1058500005B87047000000006958000000230146A9
:105860001A46184600F014B838B5074D074C2C1BE3
:10587000A41005D0013C55F8043D9847002CF9D1FF
:10588000BDE8384000F0A0B90000000000000000B2
:105890002DE9F047254C2568D5F84841064688464D
:1058A00092469946C4B360681F2817DC431C76B142
:1058B00004EB80050122C5F888A0D4F88811824045
:1058C0001143022EC4F88811C5F808911ED0023089
:1058D000636044F820800020BDE8F087144B03B3D8
:1058E0004FF4C870AFF300800446D0B1D5F848310A
:1058F000002780E88800C5F8484138460123C4F8ED
:105900008871C4F88C71002EE1D0D1E7D4F88C11E5
:105910000A43C4F88C21DAE705F5A674C5F84841B6
:10592000C1E74FF0FF30BDE8F08700BFA85B000083
:105930000000000031414C53000000005465656ECA
:10594000737933365F32343000000000342E31007A
:105950004008FE4340A004404408FE4344A00440E5
:105960000018FE4300C004403000FE433090044065
:105970003400FE43349004401C18FE431CC0044015
:105980001018FE4310C004400818FE4308C004402D
:105990000C18FE430CC004400C10FE430CB0044035
:1059A0001010FE4310B004401810FE4318B004401D
:1059B0001C10FE431CB004401410FE4314B00440FD
:1059C0000418FE4304C004400010FE4300B004402D
:1059D0000008FE4300A004400408FE4304A0044065
:1059E0000C08FE430CA004400808FE4308A0044035
:1059F0001418FE4314C004401818FE4318C0044095
:105A00000410FE4304B004400810FE4308B00440F4
:105A10006820FE4368D004401400FE431490044004
:105A20003800FE43389004403C00FE433C90044064
:105A30004000FE43409004404808FE4348A0044014
:105A40004C08FE434CA004402808FE4328A0044014
:105A50002C08FE432CA004406020FE4360D004408C
:105A60006420FE4364D004402010FE4320B0044074
:105A70002410FE4324B004402810FE4328B0044004
:105A80002C10FE432CB004404400FE4344900440DC
:105A90007000FE43709004407400FE437490044014
:105AA0006800FE43689004405008FE4350A0044044
:105AB0005808FE4358A004405C08FE435CA0044024
:105AC0005408FE4354A004402018FE4320C0044064
:105AD0002418FE4324C004401008FE4310A00440D4
