:1000000000800020BD010000E94F0000A14F00006A
:10001000A14F0000A14F0000A14F0000A14F000020
:10002000A14F0000A14F0000A14F0000E94F0000C8
:10003000E94F0000A14F0000B1540000B555000089
:10004000E94F0000E94F0000E94F0000E94F0000D0
:10005000E94F0000E94F0000E94F0000E94F0000C0
:10006000E94F0000E94F0000E94F0000E94F0000B0
:10007000E94F0000E94F0000E94F0000E94F0000A0
:10008000E94F0000E94F0000E94F0000E94F000090
:10009000E94F0000E94F0000E94F0000E94F000080
:1000A000E94F0000E94F0000E94F0000E94F000070
:1000B000E94F0000E94F0000E94F0000E94F000060
:1000C000E94F0000E94F0000E94F0000E94F000050
:1000D000E94F0000E94F0000E94F0000E94F000040
:1000E000E94F0000E94F0000E94F0000E94F000030
:1000F000E94F000021500000E94F00004D51000081
:10010000E94F000079520000E94F0000E94F00007C
:10011000E94F0000E94F0000E94F0000E94F0000FF
:10012000E94F0000E94F0000E94F0000E94F0000EF
:10013000E94F0000E94F0000E94F0000E94F0000DF
:10014000E94F0000E94F0000E94F0000E94F0000CF
:10015000E94F0000E94F0000E94F0000E94F0000BF
:10016000E94F000015400000E94F0000E94F000092
:10017000E94F0000E94F0000E94F0000E94F00009F
:10018000E94F0000E94F0000E94F0000E94F00008F
:10019000E94F0000E94F0000E94F0000E94F00007F
:1001A000E94F0000E94F0000E94F0000E94F00006F
:1001B000E94F0000E94F0000E94F0000564B4CF2B8
:1001C000205210B51A804DF628121A8000BF00BFC9
:1001D00004F00EFF514B4FF010621A60504A9A60C3
:1001E000504ADA60504A136813F4807304D14F49BF
:1001F0000B604FF4A85313604D4B1A78110703D5C9
:100200001A7842F008021A704A4B4B492A221A7097
:100210004A4A4B4B8B4204D252F8040F43F8040B6A
:10022000F8E7484B484900228B4202D243F8042B9E
:10023000FAE74649464A002352F8230041F82300D2
:1002400001336F2BF8D1434B434A802103F8011B44
:100250009342FBD1414B3D4A1A60414B8A221A70AE
:10026000A3F5805324225A70A0221A709A7992071B
:10027000FCD59A79D406FCD43A4A937903F00C035E
:10028000082B384BF9D103221A7140225A719A79FE
:100290009006FCD5334A9179324B4906FBD5324A58
:1002A000324911600221516020221A709A7902F0BD
:1002B0000C020C2AFAD12E4B2E4A1A602E4B2F4AD2
:1002C0001A6000225A60072243F8042C2C4AC3F813
:1002D0000C2D62B603F054FD144B1B68DA0705D5EC
:1002E000284803F0E7FC284B284A1A60284B1B7863
:1002F0005B0609D5244C254B22689A4204D121483B
:1003000003F0D8FC0023236005F08AF904F076FEA0
:1003100004F080FDFEE700BF0E2005403080044061
:10032000823F04000100002B10D0034014D0034092
:1003300002D0074000E007401891FF1F005900005D
:100340002087FF1F1891FF1F587800200082FF1F91
:100350000000000000E400E05FE400E008ED00E0E1
:100360000050064000400640448004400000030165
:1003700004800440C010050014E000E0FF76010096
:10038000000020202102F85B1CE00340A5C3945A22
:1003900000F00740FFFFFFFFFFFFFFFFFFFFFFFF32
:1003A000FFFFFFFFFFFFFFFFFFFFFFFFFFFFFFFF5D
:1003B000FFFFFFFFFFFFFFFFFFFFFFFFFFFFFFFF4D
:1003C000FFFFFFFFFFFFFFFFFFFFFFFFFFFFFFFF3D
:1003D000FFFFFFFFFFFFFFFFFFFFFFFFFFFFFFFF2D
:1003E000FFFFFFFFFFFFFFFFFFFFFFFFFFFFFFFF1D
:1003F000FFFFFFFFFFFFFFFFFFFFFFFFFFFFFFFF0D
:10040000FFFFFFFFFFFFFFFFFFFFFFFFDEF9FFFF23
:1004100010B5054C237833B9044B13B10448AFF33E
:1004200000800123237010BD1891FF1F0000000001
:1004300004590000084B10B51BB108490848AFF338
:1004400000800848036803B910BD074B002BFBD0A0
:10045000BDE81040184700BF000000001C91FF1FBE
:10046000045900001891FF1F00000000064B0748C8
:100470001B68074A82B020210193019B96330360D9
:10048000116002B0704700BF9C7500204491FF1FAF
:1004900084F00F40064B07481B68074A82B02021B2
:1004A0000193019B0A330360116002B0704700BFE3
:1004B0009C7500204491FF1F84F00F40014B0022E7
:1004C0001A6070473C91FF1F10B533281BD8DFE836
:1004D00000F0676B721A241A1A1A1A1A231A1A23AE
:1004E0001A1A1A231A231A1A1A1A1A1A1A1A1A1A5A
:1004F0001A1A1A1A1A1A1A1A1A1A1A1A1A1A1A1A5C
:100500001A1A1A2324722F4B2F4A18700424002021
:1005100001215C719871117010BD012004F04AFC3A
:1005200008212A4804F0C2FB002004F043FC02200A
:1005300004F040FC0321264804F0B8FB002004F03E
:1005400039FC212004F036FC002004F033FC0020AC
:1005500004F030FC102004F02DFC002004F02AFCF4
:10056000232004F027FC002004F024FC0F2004F0DA
:1005700021FC422004F01EFC402004F01BFC402023
:1005800004F018FC082004F015FC412004F012FCD3
:10059000022004F00FFC0020BDE8104004F00ABC6B
:1005A0000C4B00221A6010BD0B490A4B202001227F
:1005B00008601A6010BD04210848BDE8104004F02E
:1005C00075BB00BF4891FF1F4191FF1F645700009A
:1005D000705700003C91FF1F84F00F405C570000F3
:1005E0007B4A1378803B4E2B50D8DFE813F05F0036
:1005F000D200CC00E400A6004F004F004F004F0097
:100600004F004F004F004F004F004F004F004F0072
:100610004F004F004F004F004F004F004F004F0062
:100620004F004F004F004F004F004F004F004F0052
:100630004F004F004F004F004F004F004F004F0042
:100640004F004F004F004F004F004F004F004F0032
:100650004F004F004F004F004F004F004F004F0022
:100660004F004F004F004F004F004F004F00B200AF
:10067000B600BD004F007000740078004F00870086
:100680008B008F004F009E00A200500070479078B2
:100690005378127903EB0023A1F85030130715D5D6
:1006A000CB6B013312D10323CB63704710B4538853
:1006B0005278484C484842EA03234B600133B0FB70
:1006C000F3F3CB60B4FBF3F310BC8B60704753784B
:1006D00081F842307047537881F8463070479078FF
:1006E0005378127903EB00231007A1F84C30EDD5B5
:1006F000CB6B0133EAD10123CB637047537881F888
:1007000043307047537881F847307047907853787A
:10071000127903EB00231207A1F84E30D6D5CB6B2C
:100720000133D3D10223CB637047537881F844302F
:100730007047537881F848307047B2F803009378D7
:10074000527843EA002342EA032301339B004B63C0
:100750007047537881F841307047537881F84530BD
:100760004FF0FF33CB63704790785378127903EBE7
:100770000023A1F84A301307A8D5CB6B0133A5D1CC
:100780000023CB637047937803F0010381F8603056
:100790007047B2F80130B2F8032001339B000132F8
:1007A0009200B3F5503F4B630A614A618ED14FF41A
:1007B000E8234B637047B2F803009378527843EA1A
:1007C000002342EA032301339B000B614B61704716
:1007D0004891FF1F00D8B805006CDC0210B5064B2D
:1007E00020241C60962003F07DFA044B64201C60DA
:1007F000BDE8104003F076BA84F00F4088F00F4057
:1008000008B50021022003F067FA00210E2003F052
:1008100063FA0021072003F05FFA0021082003F0AB
:100820005BFA0021062003F057FA0021142003F0A0
:1008300053FA0021152003F04FFA0021052003F0A0
:100840004BFA01210D2003F047FAFFF7C7FF034AD7
:10085000034B0449116000221A6008BD408CFF1F41
:100860003C91FF1F006CDC0238B50E4C2378ABB115
:10087000012B04D0FFF7B2FF0023237038BD0246DE
:100880000948837945790133DBB29D428371C254B3
:10089000F4D1FFF7A5FE0023237038BDBDE8384032
:1008A000FFF712BE4191FF1F4891FF1F10B412497C
:1008B0000B6885B0E3B1114802680192019A934236
:1008C00016D20F4B0F4A20241C6003680293029B30
:1008D00000200F33136008603BB108490968039199
:1008E0000399994284BF0023136005B010BC704780
:1008F000044A1368F0E700BF4491FF1F9C75002075
:1009000088F00F403491FF1F30B4074A074C13683A
:1009100007494FF4007523F002030120136025609E
:10092000087030BC704700BF10E000E088E100E0D4
:100930003891FF1F0B4B1B68DB0330B404D50A4A08
:10094000136843F080631360064A084C1368084933
:100950004FF4007543F00203002013602560087017
:1009600030BC704710E000E004ED00E008E100E07A
:100970003891FF1F4B4B826DDFF848C12DE9F04FD6
:10098000DFF830E1476D484EDFF83C91474C0125D8
:100990004FF020080561C3F80080DEF800304FF406
:1009A000007823F00203CEF8003083B0C6F8008050
:1009B00090F845A08DF803A00023924601948CF88E
:1009C00000503D46834690F8416088464F462A468F
:1009D000184619465446019D9DF80390002E0DD0EF
:1009E0003B78287810F0FB0F28D119463B7803EAB2
:1009F00006004845F5D103EB012103E039783B7847
:100A0000090219443B78090219443B78090201EBB9
:100A10000300397800BF42F8040B00BF3B7803EBBA
:100A200001213B7803EB01213B7803EB0120A2423B
:100A300042F8040B00BF3978E1DB01E04FF001051B
:100A40005FFA89F38BF841608BF84530DEF80030AF
:100A50008DF80390DB030195CBF8584004D5144A78
:100A6000136843F080631360124A1348136843F01D
:100A700002031360019B4FF400750021012B0560F8
:100A80008CF8001004D10D4A0D4B20201060196025
:100A90000A4B01212022C8F808101A6003B0BDE8F3
:100AA000F08F00BF84F00F4088E100E08020074015
:100AB00004ED00E010E000E008E100E088F00F4005
:100AC0003C91FF1F3891FF1FD0F00F402DE9F04FF0
:100AD0008B4685B09BF80020D0F85480846D8169E6
:100AE000029290F84130C26A0392C8EB04054A03AF
:100AF000844602EB9525002B00F0E580794B8900B8
:100B0000202241441A60784BDFF8FCE11B68764AEA
:100B10007648774E23F002034FF400771360CEF847
:100B200000709CF8457001912946724D8DF8037054
:100B30000023A14601222A70374605461C46184666
:100B40004E469CF841E0019B9DF803904246C24608
:100B5000BEF1000F51D000BF287800BF00BF00BF1A
:100B600000BF00BF00BF2C7804EB002000BF00BF17
:100B700000BF00BF2C7804EB002000BF00BF00BF07
:100B800000BF2C7804EB002042F8040B9A42E3DB10
:100B9000287801E000BF00BF2C7804EB002000BFE4
:100BA0003C7814F0FB0F2C7804EB002047D100BFF9
:100BB00000BF2C7804EB002042F8040B964298BF4B
:100BC0005246287804EA0E044C45E5D12C7804EB13
:100BD0000020A2EBD12353452C7804EB00204FEAF0
:100BE000415138BF03EBD1232C7804EB002042F8AD
:100BF000040B964298BF4FEA0A02287800BF00BF54
:100C000000BFFFE72C7804EB002000BF00BF00BF4F
:100C100000BF2C7804EB002000BF00BF00BF00BF66
:100C20002C7804EB002042F8040B964298BF524601
:100C3000287800BF00BF00BF9A42E3D101E04FF027
:100C400001078DF8039001939DF803308CF845302F
:100C5000254B8CF841E01B68CCF85860DB03CCF8DE
:100C600054A004D52448036843F0806303601E4801
:100C7000224C036843F0020303604FF400702060CD
:100C80001C480023012F037025D09CF84130E3B1AC
:100C9000DCF81830019901EB8301C8EB01019DF8E4
:100CA0000C30891003FB01F1CBF8081008F104089F
:100CB00042451CBF01238BF80030114B20221A60E3
:100CC00005B0BDE8F08F211F1DE7CBF80830029B6F
:100CD000002BF2D0EAE70A4C0A4820252560036081
:100CE000D3E700BF84F00F4010E000E0D0F00F40E9
:100CF000802007403891FF1F04ED00E008E100E08C
:100D000088F00F403C91FF1F88E100E0FFFFFFFFEC
:100D10002DE9F843C66D836B90F8417006F160468B
:100D2000B34228BF33469E0A8146B3024FF00050BB
:100D30001A180024C9F854008C604FF4FA70C9F8EE
:100D40003430C9F83830C9F8582002F0CBFF99F890
:100D5000413023B10F4BC9F8104020221A60DFF850
:100D600044E00D4ADEF80030DFF83CC00B480C4C84
:100D700023F002034FF40071CEF800304FF0010869
:100D80001160002399F845208CF800804FF0005145
:100D90001D460BE084F00F4088E100E0D0F00F40EA
:100DA0008020074010E000E03891FF1F01F10301AF
:100DB000002F11D00578237813F0FB0F41F0108439
:100DC0000D70057805EA07039342F4D1A1F1010102
:100DD00001F8015906E000BF057801F801590578CE
:100DE00001F80159057801F80159057801F8075B08
:100DF000057801F80159057801F80159057801F8DD
:100E00000159057801F8075B057801F80159057863
:100E100001F80159057801F80159057801F8075BD7
:100E2000057801F80159057801F80159057801F8AC
:100E30000159057801F8075B057801F80159057833
:100E400001F80159057801F80159057801F8075BA7
:100E5000057801F80159057801F80159057801F87C
:100E60000159057801F8075B057801F80159057803
:100E700001F80159057801F80159057801F8075B77
:100E8000057801F80159057801F80159057801F84C
:100E90000159057801F8075B057801F801590578D3
:100EA00001F80159057801F80159057801F8075B47
:100EB000057801F80159057801F80159057801F81C
:100EC0000159057801F8075B057801F801590578A3
:100ED00001F80159057801F80159057801F8075B17
:100EE000057801F80159057801F80159057801F8EC
:100EF0000159057801F8075B057801F80159057873
:100F000001F80159057801F80159057801F8075BE6
:100F1000057801F80159057801F80159057801F8BB
:100F20000159057801F8075B057801F80159057842
:100F300001F80159057801F80159057801F8075BB6
:100F4000057801F80159057801F80159057801F88B
:100F50000159057801F8075B057801F80159057812
:100F600001F80159057801F80159057801F8075B86
:100F7000057801F80159057801F80159057801F85B
:100F80000159057801F8075B057801F801590578E2
:100F900001F80159057801F80159057801F8075B56
:100FA000057801F80159057801F80159057801F82B
:100FB0000159057801F8075B057801F801590578B2
:100FC00001F80159057801F80159057801F8075B26
:100FD000057801F80159057801F80159057801F8FB
:100FE0000159057801F8075B057801F80159057882
:100FF00001F80159057801F80159057801F8075BF6
:10100000057801F80159057801F80159057801F8CA
:101010000159057801F8075B057801F80159057851
:1010200001F80159057801F80159057801F8075BC5
:10103000057801F80159057801F80159057801F89A
:101040000159057801F8075B057801F80159057821
:1010500001F80159057801F80159057801F8075B95
:10106000057801F80159057801F80159057801F86A
:101070000159057801F8075B057801F801590578F1
:1010800001F80159057801F80159057801F8075B65
:10109000057801F80159057801F80159057801F83A
:1010A0000159057801F8075B057801F801590578C1
:1010B00001F80159057801F80159057801F8075B35
:1010C000057801F80159057801F80159057801F80A
:1010D0000159057801F8075B057801F80159057891
:1010E00001F80159057801F80159057801F8075B05
:1010F000057801F80159057801F80159057801F8DA
:101100000159057801F8075B057801F80159057860
:1011100001F80159057801F80159057801F8075BD4
:10112000057801F80159057801F80159057801F8A9
:101130000159057801F8075B057801F80159057830
:1011400001F80159057801F80159057801F8075BA4
:10115000057801F80159057801F80159057801F879
:101160000159057801F8075B057801F80159057800
:1011700001F80159057801F80159057801F8075B74
:10118000057801F80159057801F80159057801F849
:101190000159057801F8075B057801F801590578D0
:1011A00001F80159057801F80159057801F8075B44
:1011B000057801F80159057801F80159057801F819
:1011C0000159057801F8075B057801F801590578A0
:1011D00001F80159057801F80159057801F8075B14
:1011E000057801F80159057801F80159057801F8E9
:1011F0000159057801F8075B057801F80159057870
:1012000001F80159057801F80159057801F8075BE3
:10121000057801F80159057801F80159057801F8B8
:101220000159057801F8075B057801F8015905783F
:1012300001F80159057801F80159057801F8075BB3
:10124000057801F80159057801F80159057801F888
:101250000159057801F8075B057801F8015905780F
:1012600001F80159057801F80159057801F8075B83
:10127000057801F80159057801F80159057801F858
:101280000159057801F8075B057801F801590578DF
:1012900001F80159057801F80159057801F8075B53
:1012A000057801F80159057801F80159057801F828
:1012B0000159057801F8075B057801F801590578AF
:1012C00001F80159057801F80159057801F8075B23
:1012D000057801F80159057801F80159057801F8F8
:1012E0000159057801F8075B057801F8015905787F
:1012F00001F80159057801F80159057801F8075BF3
:10130000057801F80159057801F80159057801F8C7
:101310000159057801F8075B057801F8015905784E
:1013200001F80159057801F80159057801F8075BC2
:10133000057801F80159057801F80159057801F897
:101340000159057801F8075B057801F8015905781E
:1013500001F80159057801F80159057801F8075B92
:10136000057801F80159057801F80159057801F867
:101370000159057801F8075B057801F801590578EE
:1013800001F80159057801F80159057801F8075B62
:10139000057801F80159057801F80159057801F837
:1013A0000159057801F8075B057801F801590578BE
:1013B00001F80159057801F80159057801F8075B32
:1013C000057801F80159057801F80159057801F807
:1013D0000159057801F8075B057801F8015905788E
:1013E00001F80159057801F80159057801F8075B02
:1013F000057801F80159057801F80159057801F8D7
:101400000159057801F8075B057801F8015905785D
:1014100001F80159057801F80159057801F8075BD1
:10142000057801F80159057801F80159057801F8A6
:101430000159057801F8075B057801F8015905782D
:1014400001F80159057801F80159057801F8075BA1
:10145000057801F80159057801F80159057801F876
:101460000159057801F8075B057801F801590578FD
:1014700001F80159057801F80159057801F8075B71
:10148000057801F80159057801F80159057801F846
:101490000159057801F8075B057801F801590578CD
:1014A00001F80159057801F80159057801F8075B41
:1014B000057801F80159057801F80159057801F816
:1014C0000159057801F8075B057801F8015905789D
:1014D00001F80159057801F80159057801F8075B11
:1014E000057801F80159057801F80159057801F8E6
:1014F0000159057801F8075B057801F8015905786D
:1015000001F80159057801F80159057801F8075BE0
:10151000057801F80159057801F80159057801F8B5
:101520000159057801F8075B057801F8015905783C
:1015300001F80159057801F80159057801F8075BB0
:10154000057801F80159057801F80159057801F885
:101550000159057801F8075B057801F8015905780C
:1015600001F80159057801F80159057801F8075B80
:10157000057801F80159057801F80159057801F855
:101580000159057801F8075B057801F801590578DC
:1015900001F80159057801F80159057801F8075B50
:1015A000057801F80159057801F80159057801F825
:1015B0000159057801F8075B057801F801590578AC
:1015C00001F80159057801F80159057801F8075B20
:1015D000057801F80159057801F80159057801F8F5
:1015E0000159057801F8075B057801F8015905787C
:1015F00001F80159057801F80159057801F8075BF0
:10160000057801F80159057801F80159057801F8C4
:101610000159057801F8075B057801F8015905784B
:1016200001F80159057801F80159057801F8075BBF
:10163000057801F80159057801F80159057801F894
:101640000159057801F8075B057801F8015905781B
:1016500001F80159057801F80159057801F8075B8F
:10166000057801F80159057801F80159057801F864
:101670000159057801F8075B057801F801590578EB
:1016800001F80159057801F80159057801F8075B5F
:10169000057801F80159057801F80159057801F834
:1016A0000159057801F8075B057801F801590578BB
:1016B00001F80159057801F80159057801F8075B2F
:1016C000057801F80159057801F80159057801F804
:1016D0000159057801F8075B057801F8015905788B
:1016E00001F80159057801F80159057801F8075BFF
:1016F000057801F80159057801F80159057801F8D4
:101700000159057801F8075B057801F8015905785A
:1017100001F80159057801F80159057801F8075BCE
:10172000057801F80159057801F80159057801F8A3
:101730000159057801F8075B057801F8015905782A
:1017400001F80159057801F80159057801F8075B9E
:10175000057801F80159057801F80159057801F873
:101760000159057801F8075B057801F801590578FA
:1017700001F80159057801F80159057801F8075B6E
:10178000057801F80159057801F80159057801F843
:101790000159057801F8075B057801F801590578CA
:1017A00001F80159057801F80159057801F8075B3E
:1017B000057801F80159057801F80159057801F813
:1017C0000159057801F8075B057801F8015905789A
:1017D00001F80159057801F80159057801F8075B0E
:1017E000057801F80159057801F80159057801F8E3
:1017F0000159057801F8075B057801F8015905786A
:1018000001F80159057801F80159057801F8075BDD
:10181000057801F80159057801F80159057801F8B2
:101820000159057801F8075B057801F80159057839
:1018300001F80159057801F80159057801F8075BAD
:10184000057801F80159057801F80159057801F882
:101850000159057801F8075B057801F80159057809
:1018600001F80159057801F80159057801F8075B7D
:10187000057801F80159057801F80159057801F852
:101880000159057801F8075B057801F801590578D9
:1018900001F80159057801F80159057801F8075B4D
:1018A000057801F80159057801F80159057801F822
:1018B0000159057801F8075B057801F801590578A9
:1018C00001F80159057801F80159057801F8075B1D
:1018D000057801F80159057801F80159057801F8F2
:1018E0000159057801F8075B057801F80159057879
:1018F00001F80159057801F80159057801F8075BED
:10190000057801F80159057801F80159057801F8C1
:101910000159057801F8075B057801F80159057848
:1019200001F80159057801F80159057801F8075BBC
:10193000057801F80159057801F80159057801F891
:101940000159057801F8075B057801F80159057818
:1019500001F80159057801F80159057801F8075B8C
:10196000057801F80159057801F80159057801F861
:101970000159057801F8075B057801F801590578E8
:1019800001F80159057801F80159057801F8075B5C
:10199000057801F80159057801F80159057801F831
:1019A0000159057801F8075B057801F801590578B8
:1019B00001F80159057801F80159057801F8075B2C
:1019C000057801F80159057801F80159057801F801
:1019D0000159057801F8075B057801F80159057888
:1019E00001F80159057801F80159057801F8075BFC
:1019F000057801F80159057801F80159057801F8D1
:101A00000159057801F8075B057801F80159057857
:101A100001F80159057801F80159057801F8075BCB
:101A2000057801F80159057801F80159057801F8A0
:101A30000159057801F8075B057801F80159057827
:101A400001F80159057801F80159057801F8075B9B
:101A5000057801F80159057801F80159057801F870
:101A60000159057801F8075B057801F801590578F7
:101A700001F80159057801F80159057801F8075B6B
:101A8000057801F80159057801F80159057801F840
:101A90000159057801F8075B057801F801590578C7
:101AA00001F80159057801F80159057801F8075B3B
:101AB000057801F80159057801F80159057801F810
:101AC0000159057801F8075B057801F80159057897
:101AD00001F80159057801F80159057801F8075B0B
:101AE000057801F80159057801F80159057801F8E0
:101AF0000159057801F8075B057801F80159057867
:101B000001F80159057801F80159057801F8075BDA
:101B1000057801F80159057801F80159057801F8AF
:101B20000159057801F8075B057801F80159057836
:101B300001F80159057801F80159057801F8075BAA
:101B4000057801F80159057801F80159057801F87F
:101B50000159057801F8075B057801F80159057806
:101B600001F80159057801F80159057801F8075B7A
:101B7000057801F80159057801F80159057801F84F
:101B80000159057801F8075B057801F801590578D6
:101B900001F80159057801F80159057801F8075B4A
:101BA000057801F80159057801F80159057801F81F
:101BB0000159057801F8075B057801F801590578A6
:101BC00001F80159057801F80159057801F8075B1A
:101BD000057801F80159057801F80159057801F8EF
:101BE0000159057801F8075B057801F80159057876
:101BF00001F80159057801F80159057801F8075BEA
:101C0000057801F80159057801F80159057801F8BE
:101C10000159057801F8075B057801F80159057845
:101C200001F80159057801F80159057801F8075BB9
:101C3000057801F80159057801F80159057801F88E
:101C40000159057801F8075B057801F80159057815
:101C500001F80159057801F80159057801F8075B89
:101C6000057801F80159057801F80159057801F85E
:101C70000159057801F8075B057801F801590578E5
:101C800001F80159057801F80159057801F8075B59
:101C9000057801F80159057801F80159057801F82E
:101CA0000159057801F8075B057801F801590578B5
:101CB00001F80159057801F80159057801F8075B29
:101CC000057801F80159057801F80159057801F8FE
:101CD0000159057801F8075B057801F80159057885
:101CE00001F80159057801F80159057801F8075BF9
:101CF000057801F80159057801F80159057801F8CE
:101D00000159057801F8075B057801F80159057854
:101D100001F80159057801F80159057801F8075BC8
:101D2000057801F80159057801F80159057801F89D
:101D30000159057801F8075B057801F80159057824
:101D400001F80159057801F80159057801F8075B98
:101D5000057801F80159057801F80159057801F86D
:101D60000159057801F8075B057801F801590578F4
:101D700001F80159057801F80159057801F8075B68
:101D8000057801F80159057801F80159057801F83D
:101D90000159057801F8075B057801F801590578C4
:101DA00001F80159057801F80159057801F8075B38
:101DB000057801F80159057801F80159057801F80D
:101DC0000159057801F8075B057801F80159057894
:101DD00001F80159057801F80159057801F8075B08
:101DE000057801F80159057801F80159057801F8DD
:101DF0000159057801F8075B057801F80159057864
:101E000001F80159057801F80159057801F8075BD7
:101E1000057801F80159057801F80159057801F8AC
:101E20000159057801F8075B057801F80159057833
:101E300001F80159057801F80159057801F8075BA7
:101E4000057801F80159057801F80159057801F87C
:101E50000159057801F8075B057801F80159057803
:101E600001F80159057801F80159057801F8075B77
:101E7000057801F80159057801F80159057801F84C
:101E80000159057801F8075B057801F801590578D3
:101E900001F80159057801F80159057801F8075B47
:101EA000057801F80159057801F80159057801F81C
:101EB0000159057801F8075B057801F801590578A3
:101EC00001F80159057801F80159057801F8075B17
:101ED000057801F80159057801F80159057801F8EC
:101EE0000159057801F8075B057801F80159057873
:101EF00001F80159057801F80159057801F8075BE7
:101F0000057801F80159057801F80159057801F8BB
:101F10000159057801F8075B057801F80159057842
:101F200001F80159057801F80159057801F8075BB6
:101F3000057801F80159057801F80159057801F88B
:101F40000159057801F8075B057801F80159057812
:101F500001F80159057801F80159057801F8075B86
:101F6000057801F80159057801F80159057801F85B
:101F70000159057801F8075B057801F801590578E2
:101F800001F80159057801F80159057801F8075B56
:101F9000057801F80159057801F80159057801F82B
:101FA0000159057801F8075B057801F801590578B2
:101FB00001F80159057801F80159057801F8075B26
:101FC000057801F80159057801F80159057801F8FB
:101FD0000159057801F8075B057801F80159057882
:101FE00001F80159057801F80159057801F8075BF6
:101FF000057801F80159057801F80159057801F8CB
:102000000159057801F8075B057801F80159057851
:1020100001F80159057801F80159057801F8075BC5
:10202000057801F80159057801F80159057801F89A
:102030000159057801F8075B057801F80159057821
:1020400001F80159057801F80159057801F8075B95
:10205000057801F80159057801F80159057801F86A
:102060000159057801F8075B057801F801590578F1
:1020700001F80159057801F80159057801F8075B65
:10208000057801F80159057801F80159057801F83A
:102090000159057801F8075B057801F801590578C1
:1020A00001F80159057801F80159057801F8075B35
:1020B000057801F80159057801F80159057801F80A
:1020C0000159057801F8075B057801F80159057891
:1020D00001F80159057801F80159057801F8075B05
:1020E000057801F80159057801F80159057801F8DA
:1020F0000159057801F8075B057801F80159057861
:1021000001F80159057801F80159057801F8075BD4
:10211000057801F80159057801F80159057801F8A9
:102120000159057801F8075B057801F80159057830
:1021300001F80159057801F80159057801F8075BA4
:10214000057801F80159057801F80159057801F879
:102150000159057801F8075B057801F80159057800
:1021600001F80159057801F80159057801F8075B74
:10217000057801F80159057801F80159057801F849
:102180000159057801F8075B057801F801590578D0
:1021900001F80159057801F80159057801F8075B44
:1021A000057801F80159057801F80159057801F819
:1021B0000159057801F8075B057801F801590578A0
:1021C00001F80159057801F80159057801F8075B14
:1021D000057801F80159057801F80159057801F8E9
:1021E0000159057801F8075B057801F80159057870
:1021F00001F80159057801F80159057801F8075BE4
:10220000057801F80159057801F80159057801F8B8
:102210000159057801F8075B057801F8015905783F
:1022200001F80159057801F80159057801F8075BB3
:10223000057801F80159057801F80159057801F888
:102240000159057801F8075B057801F8015905780F
:1022500001F80159057801F80159057801F8075B83
:10226000057801F80159057801F80159057801F858
:102270000159057801F8075B057801F801590578DF
:1022800001F80159057801F80159057801F8075B53
:10229000057801F80159057801F80159057801F828
:1022A0000159057801F8075B057801F801590578AF
:1022B00001F80159057801F80159057801F8075B23
:1022C000057801F80159057801F80159057801F8F8
:1022D0000159057801F8075B057801F8015905787F
:1022E00001F80159057801F80159057801F8075BF3
:1022F000057801F80159057801F80159057801F8C8
:102300000159057801F8075B057801F8015905784E
:1023100001F80159057801F80159057801F8075BC2
:10232000057801F80159057801F80159057801F897
:102330000159057801F8075B057801F8015905781E
:1023400001F80159057801F80159057801F8075B92
:10235000057801F80159057801F80159057801F867
:102360000159057801F8075B057801F801590578EE
:1023700001F80159057801F80159057801F8075B62
:10238000057801F80159057801F80159057801F837
:102390000159057801F8075B057801F801590578BE
:1023A00001F80159057801F80159057801F8075B32
:1023B000057801F80159057801F80159057801F807
:1023C0000159057801F8075B057801F8015905788E
:1023D00001F80159057801F80159057801F8075B02
:1023E000057801F80159057801F80159057801F8D7
:1023F0000159057801F8075B057801F8015905785E
:1024000001F80159057801F80159057801F8075BD1
:10241000057801F80159057801F80159057801F8A6
:102420000159057801F8075B057801F8015905782D
:1024300001F80159057801F80159057801F8075BA1
:10244000057801F80159057801F80159057801F876
:102450000159057801F8075B057801F801590578FD
:1024600001F80159057801F80159057801F8075B71
:10247000057801F80159057801F80159057801F846
:102480000159057801F8075B057801F801590578CD
:1024900001F80159057801F80159057801F8075B41
:1024A000057801F80159057801F80159057801F816
:1024B0000159057801F8075B057801F8015905789D
:1024C00001F80159057801F80159057801F8075B11
:1024D000057801F80159057801F80159057801F8E6
:1024E0000159057801F8075B057801F8015905786D
:1024F00001F80159057801F80159057801F8075BE1
:10250000057801F80159057801F80159057801F8B5
:102510000159057801F8075B057801F8015905783C
:1025200001F80159057801F80159057801F8075BB0
:10253000057801F80159057801F80159057801F885
:102540000159057801F8075B057801F8015905780C
:1025500001F80159057801F80159057801F8075B80
:10256000057801F80159057801F80159057801F855
:102570000159057801F8075B057801F801590578DC
:1025800001F80159057801F80159057801F8075B50
:10259000057801F80159057801F80159057801F825
:1025A0000159057801F8075B057801F801590578AC
:1025B00001F80159057801F80159057801F8075B20
:1025C000057801F80159057801F80159057801F8F5
:1025D0000159057801F8075B013E7EF4FDAB01E08F
:1025E0004FF0010489F84520DEF80030DB0304D504
:1025F0000E4A136843F0806313600D4A0D48136858
:102600004FF4007543F002030021012C13600560B4
:102610008CF8001004D1084A084B20201060196083
:10262000054B20221A60BDE8F88300BF04ED00E0EE
:1026300010E000E008E100E088F00F403C91FF1F4F
:102640002DE9F04FD0F82CE090F841308BB0814666
:102650001A460293406BB0FBFEF300930EF1FF337A
:10266000DBB209910793591C99F845300393B9F8E7
:102670004A30D9F854B0D9F85880D9F82450D9F84C
:1026800028600193002A00F06C82D9F818700BEBD7
:10269000870CE0454FF0000740F264829548964B66
:1026A000026822F0020205925FFA8EF20892009A06
:1026B000920000240692059A0494A64602602246DF
:1026C0004FF40074C0F878418C48079CCDF800E0C6
:1026D0004FF0010A80F800A0DDF820A005945846CC
:1026E000D3F800E0BEF1000F18D1D3F800E0BEF13E
:1026F000000F13D196460DE01A6872B91A6862B9D4
:102700001A6852B91A6842B91A6832B91A6822B9F5
:102710001A6812B91A68002AEED072464FF0010EFC
:10272000774CC3F800E0D4F800E0B24005EA0E0EA2
:10273000013972440DD140F8042B804508D8714905
:10274000097811F0FB0F40F00282012158460091F8
:102750005146012F50D0062FC2D801A454F827F0BB
:10276000B9270000E1260000E12600004B29000007
:10277000E32800004B28000091280000D3F800E077
:10278000BEF1000FB1D001241C605D4CD4F800E014
:10279000B24005EA0E0E01397244DAD140F8042B3A
:1027A0008045D5D857490978012011F0FB0F0090DA
:1027B00040F0CD81584651468445DFD8524C202701
:1027C00027601F6827B34FF0010EC3F800E0E76CE5
:1027D000B2402F4001393A440ED140F8042B8045D5
:1027E0007746B5D84749097811F0FB0F40F0AF8123
:1027F000CDF800E058465146029F039C1740A7427F
:102800004FF0010E00F019811F68002F40F0F48096
:1028100001276AE74FF0010EC3F800E0A76CB24051
:102820002F4001393A4440F0608140F8042B804544
:102830004FF005078CD83349097811F0FB0F40F0B1
:102840008681CDF800E058465146E3451F6801D91E
:10285000069CA4442FB34FF0010E294CC3F800E0AE
:102860002768B2402F4001393A4440F0EF8040F8E9
:10287000042B80454FF006073FF66AAF21490978DF
:1028800011F0FB0F40F06381CDF800E0584651464F
:1028900084454FF0010E00F0F7801F68002F40F0D4
:1028A000D780062721E7164C4FF0010EC3F800E051
:1028B0002768B2402F404C1E3A4440F0428140F815
:1028C000042B80454FF0040700F23F810D4800784B
:1028D000059110F0FB0F40F03A81CDF800E058462A
:1028E00051460A4C202727601F68002F92D10527E8
:1028F000FBE600BF10E000E00C7103403891FF1FC1
:10290000D0F00F408020074084F00F4088F00F4047
:102910004FF0010E954CC3F800E02768B2402F40FD
:1029200001393A4440F00B8140F8042B80454FF0C8
:1029300003073FF60DAF8E49097811F0FB0F40F009
:102940000681CDF800E0584651464FF0010E019C3B
:10295000013C019440F0CB80D9F83C40049FBC423C
:1029600040F3E280049C013409EB040709EB440EB8
:1029700004941C68019797F841700297019F97F89B
:1029800045700397BEF84A700197002C3FF440AFA2
:102990004FF0010E754CC3F800E02768B2402F409D
:1029A00001393A447FF428AF40F8042B804577463C
:1029B0003FF6CEAE6E490978CDF800E011F0FB0F7E
:1029C00040F0C5805846514616E7D9F83C70049C43
:1029D000A74240F3A980049C013409EB0407049446
:1029E0001C68039797F841700297039F97F845700A
:1029F0000397002C3FF40CAF5C4CC3F800E0276851
:102A0000B2402F4001393A447FF4F6AE40F8042B2F
:102A100080454FF001073FF69BAE5549097811F00C
:102A2000FB0F40F09480029F039C17400121A742B6
:102A30000091584651467FF4E7AE019C002CC4D06B
:102A40001F68002F7FF464AF03274EE6062782E657
:102A5000464CC3F800E02768B2402F4001393A44A1
:102A60004FF00607F2D140F8042B80453FF670AED8
:102A70003F490978012011F0FB0F009067D15846BB
:102A8000844551467FF409AF3A4B1B68DB0304D5FC
:102A9000394A136843F080631360364A3749136834
:102AA000099C43F0020313604FF400730B60D9F8E4
:102AB00018300899D9F8342000EB8303CBEB0303DB
:102AC00007989B1001FB030305992D485B1A002111
:102AD000A3600170934220469DF80040047024BF1B
:102AE0009B1A83600BB0BDE8F08F052733E61F68A3
:102AF000002FA9D01D4CC3F800E02768B2402F403A
:102B000001393A444FF0030719D140F8042B8045AE
:102B10003FF61EAE16490978012011F0FB0F009018
:102B200015D15846514612E7D9F818401F68A0EB56
:102B3000840C002F7FF4B7AE05910427D5E5032759
:102B400009E605910427214605E6059100E60D4AB0
:102B50000D4B2021116000221A6001236046009372
:102B600092E70527A8F1040C98E500BFD0F00F40CC
:102B70008020074010E000E004ED00E008E100E004
:102B80003891FF1F88F00F403C91FF1F2DE9F04F57
:102B9000D0F82CB090F84130466AD0F858C0D0F840
:102BA00028A091B01A460893436BB3FBFBF30F9335
:102BB0000BF1FF33DBB204935C1C03680A9390F8BB
:102BC00040300B9390F845300E910993416DB0F869
:102BD0004A300191864676080393002A00F05F810F
:102BE0008369DFF8F08201EB8309CC4540F259811B
:102BF000AD4DAE4B2A68002722F002025FFA8BF13E
:102C0000069107972A60AA4AAA49019D4FF40070CD
:102C100010604FF0010008700F99029789000C9125
:102C200004990D913A46384605974FF0FF31D3F895
:102C300000B0BBF1000F18D1D3F800B0BBF1000F0A
:102C400013D193460DE01A6872B91A6862B91A680E
:102C500052B91A6842B91A6832B91A6822B91A68A0
:102C600012B91A68002AEED05A464FF0010B924F63
:102C7000C3F800B0D7F800B006EA0B0B8B4500F0A4
:102C8000DF8039683140002C40F0C18045F8042BCA
:102C9000AC4500F2E480894A127812F0FB0F40F054
:102CA00025810120019D049C05900A46002C00F01E
:102CB000B5800020012C08D1D5F800B00A9F37EA72
:102CC0000B07029F18BF5F46029748F0010B584759
:102CD000089F01EA070B099F5F45A8D1039F002FBA
:102CE00040F0DA80079FBB46DEF83C70BB4580F2BF
:102CF000CB80079F01370EEB070B07979BF84170BE
:102D000008979BF84570099791E7039F013F039748
:102D10008DD1079FB846DEF83C70B84580F2B4808C
:102D2000079F01370EEB07080EEB470B0797BBF821
:102D30004AB098F84170089798F8457009970BF1D8
:102D4000FF37DFF89481039771E7A9457FF46FAFF0
:102D50004D46554B1B68DB0304D5594A136843F0B5
:102D600080631360504A5749136804980E9C43F0DF
:102D7000020313604FF400730B60DEF81830029901
:102D8000CEF81C100199DEF8342009EB83035B1A9E
:102D900006999B1001FB03030D9946485B1A00211D
:102DA000934201702046A36028BF9B1A9DF81440EF
:102DB00028BF8360A94504700BD0019BED1AAD10AC
:102DC00044BF0F9BED18069B03FB05F31D460E9BAE
:102DD0005D6011B0BDE8F08FA9453FF628AF3A4FCE
:102DE0004FF02008C7F80080DFF8EC801FE7019F54
:102DF000B94537D20C9FDFF8E480B94417E7334F69
:102E00004FF02008C7F80080DFF8D4800FE702FAFF
:102E10000AF2013C0A44002C7FF44BAF45F8042B26
:102E2000AC4507D8254A127812F0FB0F67D1012272
:102E3000019D0592002048F0010B0246069C584770
:102E400020B90B9802FA0AF20244013C013236EA38
:102E500002000AD00120002C3FF437AF2AE70A46CF
:102E6000049C23E7DFF87480E1E6002CD6D01348F9
:102E7000007810F0FB003FF41DAF144A144B2021E2
:102E8000116000221A6064E7DEF81870DFF85480E1
:102E90000D94A5EB8709CAE6DFF84C80C7E6DFF89A
:102EA0004080ACF10409A3E610E000E00C7103409F
:102EB00088E100E03891FF1FD0F00F4080200740EC
:102EC00004ED00E008E100E084F00F4088F00F40DE
:102ED0003C91FF1FD82D0000D02C00004A2D00008F
:102EE000EE2D0000FE2D00000A2D0000094B0A4ABD
:102EF000019D202111601C600123059329E7064AEA
:102F0000044B019D2021116000221A6001230593CA
:102F10001FE700BF3C91FF1F88F00F4084B02DE9F0
:102F2000F04F8DB0259C099426461F9C029416AC48
:102F3000DDF880E0219D9DF898C084E80F001E9B7D
:102F40000B932F9B2B9F9B689DF8B9400793002EF6
:102F5000C0F29C809DF8B83001930DF1A203049358
:102F6000099B01330893002303934FF0FF330A9327
:102F70006FF006030693029B0DF1990901226E1E64
:102F800003EA0C0B069B0799184659186FEA0C03C5
:102F9000059322E0A046002C41D1CAB1B1FBF5F265
:102FA00005FB1213F31A57F822200EFB03F322FA43
:102FB00003F3029A1340019A002A46D1DDF80480F7
:102FC00099F8002099F804A013409A4546D00122B0
:102FD0000130012801F1010109D0B1F1704FD9D9B7
:102FE000E4B901300128224601F10101F5D104992B
:102FF000039B02310491089901338B42039309F139
:103000000109BFD10A9A07998A4202D82F9B194613
:103010008A600DB0BDE8F04F04B070470022B1FBEC
:10302000F5F805FB1813F31A57F828800EFB03F385
:1030300028FA03F30BEA0308C445C9D0002AC7D015
:10304000029A4FF001081340BAE7059A99F804A0D4
:10305000134099F8002013409A45B8D1039B099A70
:10306000934217D0C31D0ED0B8F1000F0BD1049BB3
:103070001B880344002B06934FF00102B7DD6FF06D
:1030800006030693B3E706900122B0E74FF0FF3343
:103090000A93B7E7073005D0B8F1000F02D1049BBF
:1030A0001B8819440B9B022B02D00A9101229EE738
:1030B000079B2F9A0A91013B93600793012296E7A1
:1030C00084B02DE9F04FA1B0379D3F9C19959DF834
:1030D000E85018941795349C9DF8E9E0DDF8B8B0F5
:1030E000319FDDF8CC901A942AAD359E369C85E848
:1030F0000F009DF809319DF808811693389DBEF1A7
:10310000000F40F02281459BB3EB0B0B00F14C818B
:10311000CDF874E0449A002A0CDB05EB0B03013B6D
:103120009B1A48BF199A199948BF9B18994298BF92
:103130005B1AED1A05EB0B07199A013FBA4278D8D2
:10314000AC42A7EB020715D943464FF0010AB0463F
:103150001E46552001F02EFE2A2006B9AA2002356F
:1031600001F028FEAC42F4D8334646469846BAF100
:10317000000F66D0199B002F03F1FF3AC0F21A81AD
:103180005FFA89F31B93DB431C93179BCDF878A060
:10319000741E5525DB43AA46CDF87CB03D46B346A8
:1031A000199346461A9FA046189C12E0169B002BC6
:1031B00040F0B180199B03EA0E0E5FFA8EF001F029
:1031C000F9FD6FEA0A03DBB203F07F0A15F1FF3560
:1031D00027D3B5FBFBF00BFB105ECEEB080E54F8CB
:1031E000200007FB0EFE20FA0EFE0EEA090E002E4E
:1031F000DCD1169B5FFA8EF01BB1179B034240F0A7
:1032000097801B9B18401C9B0AEA030E7044C0B2B7
:1032100001F0D0FD6FEA0A0315F1FF355FFA83FA7A
:10322000D7D25546B046DDF878A05E46DDF87CB0D2
:1032300009E0AC4205D943464FF0000AB0461E46AD
:1032400087E7BA465525DA4541DB9DF87470179B30
:103250003B401993731E4446DDF868801A97374641
:1032600056469A460FE0002B36D1179B2EEA030EE6
:103270005FFA8EF001F09EFDEA43D5B205F07F05BE
:10328000013E5E4523DBB6FBF7F0189B07FB106E93
:10329000CEEB0A0E53F82000169B08FB0EFE20FA18
:1032A0000EFE0EEA090E002CDDD1ABB95FFA8EF0EE
:1032B0005FFA89FC0CEA000E25EA0C007044C0B2EB
:1032C000013E01F077FDEA435E45D5B2DBDA21B07D
:1032D000BDE8F04F04B070475E456DD05CB1179B00
:1032E0005FFA8EF00342C5D0179B2EEA030060F010
:1032F0007F00C0B2BEE7179B5FFA8EF00342D7D0C3
:10330000179B2EEA030060F07F00C0B201F052FD6F
:10331000EA43D5B2B4E7179B5FFA8EF018423FF448
:103320004EAF199B03EA0E0060F07F00C0B246E783
:10333000199B03EA0E0060F07F00C0B201F03AFD75
:103340006FEA0A035FFA83FA40E743AB54222EA9DF
:103350006846159300F0D8FB2AAB0FCBFFF7DEFDD4
:10336000459BB3EB0B0B22D4169BD3B1721E38D402
:103370001A9BDDF868C0DDF85CA002FB03F10023B6
:103380005FFA89F09E4627FA01F303401AEA030F19
:1033900002F1FF3208BF9E46531CCCEB0101F2D173
:1033A000B6E6169B1D93B5E6199B9B44B0E6199BA8
:1033B0009B44D9E7552546E71EF0800F8ED0199B18
:1033C0001A988BB1179A1D9B23EA020060F07F00C8
:1033D000C0B201F0EFFCEA43D5B2002C7FF44EAF4F
:1033E0004EE700231D9395E6002C3FF461AF41E7C3
:1033F000BB4BBC492022F0B51A60426B02635300FC
:10340000A1FB03135B080021B3F5643F9DB00446A4
:1034100080F8611040F2B48001230362A16803299F
:1034200000F2B780B04D94F86000042608232E7097
:103430002362B2F5E42F00F2B980B2F5643F00F2E6
:103440002381B2F5E43F00F2B180B2F5644F00F29F
:103450002281002800F0B6802369934288BF226150
:10346000082900F2BB800823B2F5644F236240F2C2
:10347000F380236993420CBF4FF464434FF4E44359
:103480004FF46442236162634EF22043E16B0029F2
:1034900080F2CF80082100200229E06300F0A8809C
:1034A000042900F0DC80012940F0C38020276162FC
:1034B000A162E7624FF4E4508C4994F841E0B3FB19
:1034C000F7F6084401EB8606A2636363A665E06530
:1034D0006165BEF1000F00F0BB802169521A2261C4
:1034E0001032002082491B90B2FBF7F3A3610B68F6
:1034F000804E8DF8640043F400034FF0FF321A92BF
:10350000D4F804E00B6031687B4A7C4F2B7821F0C3
:10351000020131601060C7F800E01168052B41F02E
:103520000101116000F0CE80042B00F0D080062B4A
:1035300000F0E880002B00F0C080012B00F0E78055
:10354000022B00F0E980032B00F0F6806C4D2B6815
:1035500013B994F860307BB11CAB13E9070015ABCD
:1035600083E80700542204F11001684600F0CCFA09
:1035700094E80F00FFF7A4FD00232B601DB0F0BD01
:10358000B3F5E43F4ED9A1680223032903627FF615
:1035900049AF052934D8544D94F860000526082316
:1035A000B2F5E42F2E7023627FF647AF236A042B17
:1035B00000F09280082B04BF4FF46442626300283D
:1035C0007FF44AAF6369092994BF01330233934200
:1035D000236188BF226108297FF645AFE36B216A2A
:1035E000002B02F12003FFF656AF02297FF458AFFB
:1035F000032010276062A162E7624FF464505BE72A
:10360000082939D994F86000002846D0236A072B8E
:1036100043D9302940F29580334D01232B7084F833
:1036200061303FE0B3F5644FCCBF0423082303624D
:10363000F4E6FF2180200427082661624FF08031E4
:1036400084F84000E762A66221604FF4644033E7EB
:10365000C4F810E0102244E702F1200316E708271F
:103660004FF088300F262060A162E76284F8407036
:1036700066624FF4E4401FE71B4D94F86000062695
:1036800008232E702362D4E6236A022B8FD14FF4D5
:1036900064326263DDE6236A8CE7302941D9124D3A
:1036A00000232B70B2F5E42F7FF6C7AE236A012BFF
:1036B000EBD14FF4E4226263CBE619A92046FEF772
:1036C000BFFF43E719A92046FDF754F93EE719A9C2
:1036D0002046FDF71DFB39E74FF4E4326263B8E69C
:1036E00088F00F40ABAAAAAA4091FF1F5091FF1F7C
:1036F0003C800440007003400871034000710340A7
:103700003C91FF1F19A92046FDF7E0F91EE719A912
:103710002046FFF73BFA19E719A9204600F070F898
:1037200014E7182902D9236A072BB8D9094D0226B4
:1037300008232E7023627CE619A9204602F0D8F8EF
:1037400004E71829F2D9034D032601232E7084F8CB
:103750006130A7E74091FF1F2DE9F0439DB00023A2
:10376000234E244D07930822089309930A930F933D
:1037700010938DF84C308DF86C308DF86D308DF8DD
:103780004D301293FF2104231B4C1C4F0B92B1466A
:10379000A8460D920C910E9311E033680193019BA2
:1037A0002A689B1AB3F5FA6F07D9D9F8003002934B
:1037B0002368029AC8F80020BBB1FDF777F801F042
:1037C00067FA002807DD236863B101F03DFA03A919
:1037D000C0B2FDF749F83B68002BDED003A8FFF725
:1037E00007FEDAE7FCF756FEEFE7FCF73FFEE4E7FB
:1037F0009C750020707500203491FF1F3C91FF1FC5
:1038000000B5024697B0034692F84120019090F827
:1038100045000592CDF828A060F30F2A0598DFF83F
:10382000D0E203911A46B3F84A300293504460F351
:10383000070A0298536D079300EB1A40936D0493A7
:1038400080B2936806901293936906990893536B1C
:10385000D26A0992079ACDF83090CDF82CC0CEF8F4
:103860000C2061F31F4ACEF810200999DDF810C032
:10387000B3FBF1F3CEF80830089BCEF80430129B6E
:10388000CDF824B0182B019B11964FF000006FF378
:10389000000B88BF60F3041BCEF800000646D86B0F
:1038A0000E9598BF4BF0100B0D94109791467546EE
:1038B0008D4C8E4FCDF83C806FF3820B002875D174
:1038C000029B002B00F08980069B03EB4300059BC5
:1038D000801060F31F4A002B62D0079B089ADFF824
:1038E000208203EB8203CEF81030814B04991B69D0
:1038F0008B4202D37E4A0B1F13616FF3410BFDF71E
:1039000003F823781E46237803EB0626C047237866
:1039100003EB0626C047237876484A4603EB062386
:1039200042F8043B9146E14521461E4607D3037801
:10393000D5F80C9013F0FB0F4BF0010B50D13A6807
:10394000072AFCD800BF00BF0B781E46C0471BF0FB
:10395000020FD8D0FCF7EEFF019B2A699869019904
:10396000EB68496BDDF828A0DDF82CC0DDF830905D
:10397000109F119E02EB80020DACD31A94E8300127
:1039800003330398CBF300028B42DDF824B083604D
:1039900028BF5B1A027028BF836017B05DF804FB74
:1039A000049BDFF86081CEF810309EE701281DD01F
:1039B00002286DD003282ED0002885DD4E4B0293BF
:1039C0000022029B03EB820101324B8803EB43038D
:1039D0009B1090424B80F4DC76E74BF0040B73E7CE
:1039E000464B20221A60FCF769FDB3E7019ACEF836
:1039F000000092F8461092F84230B2F84C2003EBE7
:103A0000012303EB0242130C3B4903EB43039B10DE
:103A10000A604B8058E70199CEF8000091F84620E3
:103A200091F8423091F847101291019991F84310A2
:103A30001391019991F84810149103EB0221019B15
:103A4000B3F84C200292139A93F84430159313461E
:103A5000129A03EB02221292159B149A03EB022393
:103A60001393029B01EB0342234902910199B1F8A0
:103A70004E3021498A60129A019902EB0343B1F852
:103A800050201D494B60139B03EB02420A6097E7ED
:103A90000199CEF8000091F8462091F8423091F853
:103AA00047101291019991F84310139103EB0221F1
:103AB000019AB2F84C300293B2F84E301493139B33
:103AC0001A46129B02EB0323029A01EB0242129266
:103AD000149A0949029103EB02431393129B4B6022
:103AE000139B0B606CE700BFD0F00F4004710340E4
:103AF00084750020802007407475002088F00F40F6
:103B0000E58AFF1F498BFF1F844641EA000313F03B
:103B100003036DD1403A41D351F8043B40F8043BD4
:103B200051F8043B40F8043B51F8043B40F8043B97
:103B300051F8043B40F8043B51F8043B40F8043B87
:103B400051F8043B40F8043B51F8043B40F8043B77
:103B500051F8043B40F8043B51F8043B40F8043B67
:103B600051F8043B40F8043B51F8043B40F8043B57
:103B700051F8043B40F8043B51F8043B40F8043B47
:103B800051F8043B40F8043B51F8043B40F8043B37
:103B900051F8043B40F8043B403ABDD2303211D3D7
:103BA00051F8043B40F8043B51F8043B40F8043B17
:103BB00051F8043B40F8043B51F8043B40F8043B07
:103BC000103AEDD20C3205D351F8043B40F8043BD7
:103BD000043AF9D2043208D0D2071CBF11F8013BD5
:103BE00000F8013B01D30B8803806046704700BF9B
:103BF000082A13D38B078DD010F003038AD0C3F1AA
:103C00000403D21ADB071CBF11F8013B00F8013B8B
:103C100080D331F8023B20F8023B7BE7043AD9D34A
:103C2000013A11F8013B00F8013BF9D20B7803701F
:103C30004B7843708B788370604670471C4A02EB68
:103C4000C00301295B6811D004291BD052F8300051
:103C5000002280F8802229B1022920D0032922D015
:103C60001A6070474FF480721A60704752F8300043
:103C70004FF4A27280F880121A601A6822F02002B3
:103C80001A60704752F830104FF4A272012081F888
:103C900080021A601A6842F020021A60704740F2EF
:103CA00003121A6070474FF481721A60704700BFA8
:103CB0007457000030B4054B054D064C002210210E
:103CC0001A602A602060196030BC704714D003402D
:103CD00004D0034000D00340212801D8FFF7AEBF35
:103CE000704700BF2DE9F843054672B6204F214BBF
:103CF000214A1B683C68126862B6520102D5322B19
:103D000088BF013495B3C3F5BB331C4EDFF8649014
:103D1000DFF86480FF334FF47A72A6FB031302FBD3
:103D200004F404EB931472B6D9F800103A68D8F88A
:103D300000E062B6C1F5BB33FF33A6FB03031EF000
:103D4000806FC4EB93134FF47A7002D0322988BF8E
:103D5000013200FB0233B3F57A7F04D3013D05D075
:103D600004F57A74DFE701F05DF8DCE7BDE8F8837D
:103D70009C75002018E000E004ED00E0ABAAAAAAC0
:103D8000F8B52D4B2D49DFF8D0E0DFF8D0C02C4E30
:103D90002C4D2D4C2D4A2E4F4FF4000018604FF043
:103DA000807018604FF0007018604FF080601860ED
:103DB0004FF0006018600020086028234BF6FF7168
:103DC000CCF80010CEF80030336013602B60236015
:103DD0003B60B3629362092245F8242CC4F8D80FE3
:103DE00005F57F65C7F8D41F07F5FF2707F5FA67C4
:103DF000C6F8F83F2B6006F5FF26C4F8D42F05F56A
:103E0000FD2504F5FF24386006F2F4761148316090
:103E100005F5FF6504F5FD642B602360026001F089
:103E20004FF81920FFF75EFF00F05CFE40F2131020
:103E3000BDE8F840FFF756BF08E100E0048003400A
:103E400014800340248003402C8003401C800340E6
:103E50003480034000800B400C8003400880034006
:103E6000431E032B14D872B60A4951F8230068B1D7
:103E700070B4094C058834F81320466841F8236073
:103E8000521B24F8132062B670BC704762B67047AC
:103E900000207047F875002044780020013803287E
:103EA0000BD872B6074B53F8203043B100205B6843
:103EB0000130002BFBD162B67047002070471846D6
:103EC000F9E700BF4C76002030B472B62B4A137865
:103ED0001D0706D52A4B196A002936D0996A002990
:103EE00041D053781C0706D5254B196C00293ED0CC
:103EF000996C002939D09378190705D5204B196E94
:103F0000002936D0996E89B1D3781B0707D51C4B91
:103F1000D3F880207AB3D3F8882011213AB162B661
:103F2000184B00221A7030BC00F068BE0D21154CF1
:103F3000154D227843F8315003EBC1030830013AA4
:103F40005860227062B630BC704704220D4C0F4D91
:103F5000217843F8325003EBC20308304A1E586000
:103F6000227062B6EFE70521E1E70921DFE70822C9
:103F7000ECE70C22EAE71022E8E700BF84580000D3
:103F80000080FF1F75760020C800400088004000B8
:103F9000431E032B1DD81B4A400140F0100030B4D3
:103FA000104472B6184CE25C032A1BD8DFE802F01A
:103FB0000212151703220D88E25410F0080F14BFE7
:103FC000C823882343EA054308310360416062B691
:103FD00030BC704708300222EDE70522EBE70830DD
:103FE0000422E8E7094A52F8230038B1084A52F897
:103FF0002300416042F8231062B6E9E742F823103B
:10400000034AF7E70080FF1F847600204C760020EB
:104010005C7600202DE9F04FDFF80CB3DFF80CA33D
:1040200087B044E0AB4F4FEA930807EBC809013E65
:10403000D9F8042003F00803F6B2A2F1080003F057
:10404000FF04002B40F0028157F838301B0C99B266
:1040500022F8081C002B00F0F0809F4B22F8064C41
:1040600042F8044C53F82620002A00F0C5829B4DEC
:1040700055F8263058609A4C45F8260034F816302A
:10408000194424F8161000F099FD002800F0AD82C4
:10409000944A954B19F0080F00F1080018BF134619
:1040A000C9F8040047F8383008238BF800309BF833
:1040B0000040E4B261071AD58C4B1B78A3B18C4940
:1040C0000A7802F0FF0322B1013BDBB20B7003B9A7
:1040D00000BE88490A7802F0FF032AB1013BDBB237
:1040E0000B70002B00F0578204238BF8003004F093
:1040F000080303F0FF02002B00F0CC809AF8003098
:10410000DBB21E098ED19C08DFF8C89159F8342023
:1041100009EBC401C2F38302013A49680C2A00F298
:104120008880DFE802F07C7C8686868686864786E5
:10413000868607000868704D4A68704F704E286088
:1041400081B240F28160674B6A604FF0010E00223D
:10415000814249F834303A60C9F81020C9F8182073
:1041600086F800E05B4C00F2E380B1F5D06F80F0A0
:104170004683B1F5817F00F0FC8200F28D828029B8
:1041800000F07783822940F0FA82A98801F07F014C
:10419000042900F2F4825B485B4C890008442270D9
:1041A00062700278930740F1588484F800E04FF081
:1041B000020E42E3514F3A6832B3544B504E5449C9
:1041C000188834780D784028864645F0020828BFC4
:1041D0004FF0400E002C84F001043470CEEB000050
:1041E0000CBF8824C82409EBC80680B285F00105FD
:1041F00044EA0E447260188049F8384072440D70E9
:10420000002800F045813A603B4B1A88B2F5A06F58
:104210000FD100219A7859703E4B1A7009E0364A46
:10422000108842F22102904200F037812D4A49F86D
:104230003420394A0123137036E72A4A2A4B19F0F1
:10424000080F18BF134647F838302DE700F0D6FCAA
:10425000324A334952F82630002B00F0D181586899
:104260008C5D42F8260003F10802C9F80420032CF3
:1042700005D8DFE804F02C02292602228A551A8884
:1042800019F0080F0CBF8823C82343EA024347F8FC
:10429000383009E7E00700F18181210600F1F28161
:1042A000A20706D51F4A204913780220DBB21370FB
:1042B0000870E30602D51C4B10221A7007B0BDE847
:1042C000F08F04228A55DAE705228A55D7E70322C0
:1042D0008A55D4E70080FF1FF8750020A4750020E0
:1042E00044780020C800400088004000807600200C
:1042F00009760020887600206C760020A0750020CA
:1043000008760020C020074078760020B475002091
:104310007476002098200740942007404C760020B7
:1043200084760020882007408020074090200740A6
:1043300042F22100814200F02A8100F2D880B1F5DA
:10434000086F00F07682B1F5106F40F01882226A93
:10435000B349A8780870120600F13A83D9F82820EA
:10436000B049130600F10C83D9F83020AD49150689
:1043700000F10183D9F83820AA49140600F1F68229
:10438000D9F84020A749100600F14A83D9F84820FF
:10439000A449120600F13F83D9F85020A149130621
:1043A00000F13483D9F858209E49150600F129837D
:1043B000D9F860209B49140600F11E83D9F86820C3
:1043C0009849100600F11383D9F870209549120618
:1043D00000F10883D9F878209249130600F1FD8294
:1043E000D9F880208F49150600F13183D9F888204B
:1043F0008C49140600F12583D9F8902089491006CC
:1044000000F11983D9F898208649120600F10D832E
:104410008548864A864901908648874D874C04978F
:1044200000230596029580460F4616461D460394C6
:10443000306828B1446800F0E1FB2046002CF9D137
:1044400000233360029B38681A46002342F8253067
:1044500028B1446800F0D2FB2046002CF9D100229C
:104460003A60019A98F800301146002241F8042B76
:10447000039A0191023B4FF0000122F81510032B23
:1044800000F22B81DFE813F0700125017001250196
:10449000BEF1400F18BF0022B5E6694A0D78487892
:1044A000157050708D78C8789570D07010680D793F
:1044B000157186284D7989795571917100F09B812C
:1044C0006049614E0A78307882F00105002842F098
:1044D00002020D700CBF8821C82149F8321009EB87
:1044E000C20280F001000021307051609EE642F26D
:1044F0002120814240F0CB81544B554C5549A8783E
:104500001D682560CDF804E0087000200290804608
:10451000844604464B490D7845F0020E09EBCE0364
:104520000393019B002B039B5C600CBF8824C82471
:1045300044EA080385F0010449F83E3032700C70FB
:10454000DFF8E0E0404BDFF8FC80002840F01E81FF
:10455000BCF1400F1BD144F0020C09EBCC03029CD0
:10456000DFF8C0E05C60002A40F02681020442F0DF
:1045700088029DF804304EF83C20044433700D70DE
:104580002346402803D10020334A3B601080334A41
:10459000012313704DE600F019FCA5E5214B2F48CF
:1045A00028491A614FF0020E80F800E02C4F0A7083
:1045B0002C49196099602C4E2C4D2D4C9A610D217F
:1045C0003970FF213170DFF8B8E029702270294D71
:1045D000294A8EF800109F27012406F8047C5D60AC
:1045E0000470DA6007B0BDE8F08F244A47F838005D
:1045F00013780133137057E543F826000E4D3AE562
:104600008B5D032B00F2F08001A252F823F000BF73
:10461000A9400000A9400000CD460000C7460000A8
:10462000807600200080FF1F5C760020F875002057
:104630004C76002084760020A47500204478002069
:104640004C78002074760020087600209C750020AD
:104650005478002098760020B475002094200740FC
:10466000C020074088004000882007408020074085
:1046700098200740B87500200C7600207576002041
:104680008C200740C149C24B80220D2008701A704F
:10469000A2077FF50EAE05E640F20232914240F0ED
:1046A000EE80A98801F07F01042968D86A88002A71
:1046B00065D1B648CDF804E089000844017841F09E
:1046C0000201017021E701238B55EDE400238B5596
:1046D000EAE44FF0010388F800300135042D06F1BB
:1046E000040607F1040708F101087FF4A1AEA94C04
:1046F000A94B2278A94D049F059E002129701A70AC
:10470000130700F105816278A549DFF8A0820A70DD
:1047100010074FF00001C9F83010C9F8381000F147
:10472000E080A049A2780A700021C9F85010C9F8A9
:1047300058101107DFF8748200F10181E2789A497C
:104740009A4C0A7000211207C9F87010C9F8781045
:1047500000F1B08033780193002183F00102C9F8A1
:104760009010C9F89810D0E64FF0000388F8003098
:10477000B3E7A98801F07F01042940F28D80834AC4
:104780000F2313708A4A0123137052E540287FF6E5
:10479000E2AE44F002040EEBC401029E4E60BAB1D8
:1047A0009DF80410834A19703346403888F8005049
:1047B00040334EF83420E7E69DF8043033700204AD
:1047C000029B0D7042F0C80203444EF83C20D8E62C
:1047D0009DF804101970029B774A88F80050403801
:1047E00040334EF83420CFE619F0080F0CBF0223F7
:1047F00003238B5558E4714A0F21117060E6704A0B
:104800005468002CBBD06888B5F804E003E00C3293
:104810005468002CB3D013888342F8D15388734571
:10482000F5D1000A03280CBF94F800E0B2F808E0C4
:1048300003E0644A644C12782270E888704580F086
:104840003F8162490D784028844645F0020E28BF1A
:104850004FF0400C04EB0C0309EBCE020293012352
:104860005460CCEB00004FEA0C4800220193C824AE
:104870005EE6554C4FF0020E22706270DDE7B1F536
:10488000A06F7FF47CAF0123002201933DE642F24A
:1048900021329142F7D072E76A88002A7FF46FAF25
:1048A0003A48CDF804E089000844017821F002017B
:1048B00001702AE600F082F9002800F0EF8008304D
:1048C0003D4AC4F88400C4F8802000F077F900283D
:1048D00000F0DE800830374AC9F88C00C9F888201B
:1048E00038E700F06BF9002800F0C0800830324A49
:1048F000C8F84400C8F8402000F060F9002800F033
:10490000AF8008302B4AC9F84C00C9F8482008E7A6
:1049100000F054F9002800F0CD800830264AC9F88C
:104920002400C9F8202000F049F9002800F0BC80DC
:104930000830204AC9F82C00C9F82820E3E600F026
:104940003DF9002800F09E8008301B4AC8F864003A
:10495000C8F8602000F032F9002800F08D8008309F
:10496000144AC9F86C00C9F86820E7E6C86B083833
:1049700000F044F904E5486B083800F03FF9F9E429
:10498000C86A083800F03AF9EEE400BFC0200740DA
:104990008020074084580000C4200740757600201E
:1049A000C8200740CC200740D02007400080FF1FD0
:1049B00094200740C800400088004000097600208D
:1049C00088580000807600207876002074760020D9
:1049D000606A083800F012F9C0E4C86F083800F0C7
:1049E0000DF9FDE4486F083800F008F9F2E4C86EEC
:1049F000083800F003F9E7E4486E083800F0FEF8E4
:104A0000DCE4C86D083800F0F9F8D1E4486D0838E6
:104A100000F0F4F8C6E4C86C083800F0EFF8BBE426
:104A2000486C083800F0EAF8B0E4D1F89C00083887
:104A300000F0E4F8ECE4D1F89400083800F0DEF877
:104A4000E0E4D1F88C00083800F0D8F8D4E4D1F8CC
:104A50008400083800F0D2F8C8E44FF0020EECE60B
:104A60002A78C9F8480001322A705AE62A78C8F82C
:104A7000400001322A703FE72A78C9F86800013205
:104A80002A705BE62A78C8F8600001322A7061E774
:104A90002A78C9F8880001322A705BE62A78C4F8BF
:104AA000800001322A7010E72A78C9F82800013204
:104AB0002A7028E62A78C9F8200001322A7032E7E5
:104AC000BEF1400FF44628BF4FF0400C04EB0C033E
:104AD00002930123CCEB0E004FEA0C480022019315
:104AE00018E500BFF8B500F033FC294B29482A4CE3
:104AF0002A4F2B4DDFF8BCC0DFF8BCE0294E002266
:104B00001A605A609A60DA601A615A619A61DA61D1
:104B10001A625A629A62DA621A635A639A63DA63B1
:104B20001A645A649A64DA641A655A659A65DA6591
:104B30001A665A669A66DA661A675A679A67DA6771
:104B4000C3F880200168C3F8842041F4802101600B
:104B5000C3F307212170C3F30740134938701B0EBC
:104B60002B70FF238CF80030104D8EF80030104869
:104B70000B700123337084F8642070264FF40074A6
:104B8000102207F82C3C2E70046081F8F820F8BD44
:104B90000080FF1F348004409C200740B020074065
:104BA000B4200740942007401020074049E400E06B
:104BB00008E100E0802007408820074072B60D48D9
:104BC0000268B2FA82F30B2B10DC4FF00041D9409F
:104BD00022EA0102026062B6074803EBC303DB006E
:104BE000C2180021C15010465160704762B60020C3
:104BF000704700BF448CFF1FBC83FF1F0D4B0E4A44
:104C0000C31AA2FB03231B090B2B0CD80B4A1278E7
:104C100052B972B60A484FF00041026821FA03F314
:104C20001A43026062B67047064A1278002AF0D032
:104C3000FFF74AB9BC83FF1F398EE3387576002031
:104C4000448CFF1F8076002038B50F4D286878B15E
:104C500043880288C118013393420C7A02D2438000
:104C6000204638BDFFF7CAFF002320462B6038BD21
:104C7000064B1B782BB10320FFF7F2F828600028C1
:104C8000E6D14FF0FF3038BD9476002080760020CA
:104C9000044B054A1B6890881BB11A885B88D31A9D
:104CA0001844704794760020447800202DE9F04F96
:104CB000DFF8F89083B0012289F80020019169B3F0
:104CC000DFF8EC80364F019E8346D8F80000B0B381
:104CD000344D4488C4F14001B14228BF314604EB51
:104CE000010E00221FFA8EFE2A70761AA0F802E04A
:104CF00000F1080251B1013C224459441BF8014B18
:104D000002F8014F8B45F9D1B0F802E0BEF13F0F38
:104D10000BD8254A05211170002ED6D10198002309
:104D200089F8003003B0BDE8F08F402202800146D0
:104D30000420FFF72DF90022C8F80020E9E73A78AF
:104D40002AB3184D4AF2F9244FF0010A07E0013C5A
:104D500016D02A78A2B900F065F83A78BAB10420E2
:104D6000FFF79CF80728F2D889F800A0FFF726FF84
:104D7000C8F800000028ACD10C4B013C1870E8D1F9
:104D800001234FF0FF302B7003B0BDE8F08F0023FC
:104D90004FF0FF3089F8003003B0BDE8F08F00BF5E
:104DA000807600209076002088760020897600208A
:104DB0008C76002000B583B002AB012103F8010D11
:104DC0001846FFF773FF03B05DF804FB38B50E4BD0
:104DD0001B7873B90D4C216861B103F0FF054B8856
:104DE0000B800420FFF7D4F8256038BD084B012262
:104DF0001A7038BDFFF7E2FE0028F7D00146BDE883
:104E000038400420FFF7C4B8897600208C76002053
:104E10008876002008B5FBF7F3FCFEF79DFC00F058
:104E200001F8FAE738B5224C237803B138BD0123E5
:104E30002370FFF72DFF70BB00F0E2F840BB00F0DD
:104E400075F910BB00F008FAE0B900232370EFF306
:104E50000583002BEAD1EFF3108172B6154B186869
:104E6000E0B1154C2278CAB945691D600123237051
:104E7000C5B1AA6101B962B6002545778368984734
:104E80002570D3E700F0A2FBDFE700F09DFBD9E738
:104E900000F098FBD3E700F09BFBCDE70029C5D1DC
:104EA00062B638BD054B1D600029E5D1E3E700BFC0
:104EB00099760020387800203C7800203478002053
:104EC00030B42948294A2A4B2A4D6024E121047034
:104ED00011701B78284C082B30D00A2B2748284902
:104EE00037D00C2B0CBF35223D2212232A602360C1
:104EF00002600B60234B24491B78244ABBB1012379
:104F00000B601360224B23491B78234A012B26D9BF
:104F1000042B0FD9082B1ED9102B94BF862387236F
:104F20000B6013601D4B01221A7030BC70470B6080
:104F30001360E7E784230B601360F3E700F58E202E
:104F40000F490830012213232A60236002600B609E
:104F5000D0E73922F7E785230B601360E2E780236F
:104F60000B601360DEE700BF0040074001400740D0
:104F7000488CFF1F08B003400CB0034008B00B4042
:104F80000CB00B409B76002020B0034020B00B40BB
:104F9000498CFF1F24B0034024B00B409A760020B8
:104FA00008B5104C08E0236859050DD423681A058C
:104FB0000FD42368DB0411D423685803F3D5FFF71B
:104FC00029F823685905F1D500F02AF823681A0555
:104FD000EFD500F0BBF82368DB04EDD500F04CF909
:104FE000EAE700BF3480044008B5FFF7D9FF00BFEF
:104FF000014B10221A80704700200540704700BF07
:10500000054A064B10781B78C0B2DBB2984238BF15
:105010004030C01A704700BFA0760020A176002063
:10502000F0B4384B1A7912F0300F2CD072B6997D4B
:1050300001F0FF0200293DD062B6334F3349387882
:105040000D78334E1C46C0B2EDB2431C402BE179C3
:1050500028BF0023AB4202F1FF32C9B21CBFF1549A
:10506000184612F0FF02F0D12A4B1B68C2B23A7008
:105070004BB1A84236BFC5F14005401B4019272857
:10508000C4BF01221A701F49CA78D2B2150616D4BD
:1050900052060DD51B4B1B795B0609D51E4B1F49CC
:1050A0001B6800220A7003B11A70164B3C22DA709A
:1050B000F0BC70474022D9795A7462B6E3E70B79A5
:1050C0001C06E5D5164B174E1C783378E4B2DBB2DC
:1050D0009C420ED0144D01E0A3420AD00133402B74
:1050E00028BF00230879E85CC0B2C871087D072892
:1050F000F2D9DBB2034933700B79180644BF7C2325
:10510000CB70C5E700A00640A0760020A176002065
:10511000E47600209C760020287700202477002069
:105120002C77002025770020A4760020054A064B26
:1051300010781B78C0B2DBB2984238BF4030C01A3A
:10514000704700BFA077002035770020F0B4384BBF
:105150001A7912F0300F2CD072B6997D01F0FF024F
:1051600000293DD062B6334F334938780D78334E3D
:105170001C46C0B2EDB2431C402BE17928BF00238E
:10518000AB4202F1FF32C9B21CBFF154184612F013
:10519000FF02F0D12A4B1B68C2B23A704BB1A84251
:1051A00036BFC5F14005401B40192728C4BF012266
:1051B0001A701F49CA78D2B2150616D452060DD5F8
:1051C0001B4B1B795B0609D51E4B1F491B68002230
:1051D0000A7003B11A70164B3C22DA70F0BC7047AB
:1051E0004022D9795A7462B6E3E70B791C06E5D5FB
:1051F000164B174E1C783378E4B2DBB29C420ED0CB
:10520000144D01E0A3420AD00133282B28BF00230C
:105210000879E85CC0B2C871087D0728F2D9DBB212
:10522000034933700B79180644BF7C23CB70C5E764
:1052300000B00640A077002035770020607700207E
:1052400030770020A477002034770020A877002052
:10525000A177002038770020054A064B10781B788C
:10526000C0B2DBB2984238BF4030C01A704700BFAE
:10527000B0770020B177002030B42B4B1A79940618
:105280001FD52A48DA790378294901333F2B097859
:10529000C8BF00238B42D2B203D0264CD9B2E2540D
:1052A0000170254A116861B1244A1278D2B2934242
:1052B00036BFC2F140029B1A9B18272BC4BF0123A3
:1052C0000B70194AD378DBB2180611D45A060DD5E3
:1052D000154B1B795B0609D5194B1A491B6800222F
:1052E0000A7003B11A70104B2C22DA7030BC704770
:1052F00011790906EAD5144910480C780178C9B229
:105300008C420DD04A1C272A84BF00210A460F4D2B
:10531000054C98BFD1B2AA5CD2B2E2710170D5E758
:105320006C21D170D2E700BF00C00640B0770020EA
:10533000B1770020DC770020AC7700201D780020BA
:10534000207800201C78002024780020B4770020EA
:1053500070B584B072B6194B194D1A4870224126A7
:105360000F2480211A702E701A4604701970137859
:105370001B06FCD5144B186862B6144B144C9842AB
:1053800098BF00EB800001A998BF40000A2200F0FE
:1053900021F901A92046002311F8012B01333AB16C
:1053A0000A2B20F8022FF7D11623237004B070BD0A
:1053B0005B00DBB2237004B070BD00BF0000024090
:1053C0000700024006000240080002407F96980055
:1053D000D88CFF1F10B4EFF3108272B6437F33B93D
:1053E000017F012907D003290FD00123437702B998
:1053F00062B610BC7047124C2168A1B111494361DB
:105400000B68836108605861EFE70F4C216881B138
:105410000E4943610B688361086058610C4B4FF083
:1054200080511960E1E7074B41618161206018609C
:10543000DBE7064B4161816120601860EEE700BF49
:105440003878002034780020287800202C7800203C
:1054500004ED00E010B4047F4160022CC26002D071
:1054600010BCFFF7B7BF836810BC184770B5EFF3E7
:10547000108272B60C4C206880B10C4E0025436936
:10548000236073B19D6102B962B64577836898471E
:10549000EFF3108272B620680028F0D102B962B62C
:1054A00070BD3360EFE700BF287800202C78002023
:1054B000FFF7DCBF184A30B41468002C27D003680B
:1054C00021688B420ED2CB1A00218460C160236018
:1054D000E06010600223037530BC704711688B4296
:1054E000144608D3A2685B1A0360002AF6D18260D2
:1054F000C460A060EEE7D268C2608460E060C56806
:10550000CB1A0222A8602360027530BC7047846009
:10551000C4601060DEE700BF30780020F8B5224E8E
:1055200034682CB32368002B3AD1204F1D4604E089
:105530003468ECB12368002B32D1A36803B1DD607D
:1055400020693360036825751B68BB4221D1037F46
:105550004560022BC46020D0FFF73CFF6368002B3E
:10556000E6D023602046FFF7A5FF3468002CE1D188
:10557000EFF3108372B60E4A00211068116003B970
:1055800062B628B18468FFF795FF20460028F9D15C
:10559000F8BD224600219847E0E783689847DDE799
:1055A000013B2360E4E700BF307800205554000041
:1055B00040780020024A136801331360FFF7AEBF42
:1055C0009C750020704700BF704700BF704700BF48
:1055D000704700BFF0B44D1E2E46002400E0013499
:1055E000B0FBF2F302FB1300092800F130078ABF79
:1055F0003730F8B2C0B206F8010F1846002BEED1D2
:105600000A1953704CB1107815F8016F28700133E6
:10561000E01A834202F80169F5DB0846F0BC7047E6
:1056200070B50F4E0F4D761BB61018BF002405D075
:10563000013455F8043B9847A642F9D10A4E0B4D68
:10564000761B00F04DF9B61018BF002406D00134C7
:1056500055F8043B9847A642F9D170BD70BD00BF14
:10566000F8580000F858000000590000F8580000F1
:10567000024B13B1024800F005B87047000000006B
:1056800091560000002301461A46184600F014B84F
:1056900038B5074D074C2C1BA41005D0013C55F81C
:1056A000043D9847002CF9D1BDE8384000F028B9F6
:1056B00000000000000000002DE9F047254C25689F
:1056C000D5F848410646884692469946C4B3606874
:1056D0001F2817DC431C76B104EB80050122C5F8B6
:1056E00088A0D4F8881182401143022EC4F8881192
:1056F000C5F808911ED00230636044F82080002075
:10570000BDE8F087144B03B34FF4C870AFF30080CB
:105710000446D0B1D5F84831002780E88800C5F8A4
:10572000484138460123C4F88871C4F88C71002EB2
:10573000E1D0D1E7D4F88C110A43C4F88C21DAE720
:1057400005F5A674C5F84841C1E74FF0FF30BDE844
:10575000F08700BFDC5800000000000031414C53CE
:10576000000000005465656E737939360000000052
:10577000342E31004008FE4340A004404408FE435C
:1057800044A004400018FE4300C004403000FE4323
:10579000309004403400FE43349004401C18FE4313
:1057A0001CC004401018FE4310C004400818FE43FB
:1057B00008C004400C18FE430CC004400C10FE430B
:1057C0000CB004401010FE4310B004401810FE430B
:1057D00018B004401C10FE431CB004401410FE43DB
:1057E00014B004400418FE4304C004400010FE43FB
:1057F00000B004400008FE4300A004400408FE433B
:1058000004A004400C08FE430CA004400808FE431A
:1058100008A004401418FE4314C004401818FE43A6
:1058200018C004400410FE4304B004400810FE43B6
:1058300008B004401400FE43149004404C08FE439A
:105840004CA004400420FE4304D004402410FE4336
:1058500024B004402010FE4320B004402810FE4332
:1058600028B004402C10FE432CB004400020FE431E
:1058700000D004404808FE4348A004401000FE4306
:105880001090044000151915000100004C8CFF1FFA
:105890001200000000020000788CFF1F430000008F
:1058A00000030000D48CFF1F000000000103090466
:1058B000608CFF1F0000000002030904BC8CFF1F66
:1058C0000000000003030904D88CFF1F0000000043
:1058D000000000000000000000000000F08CFF1F2E
:1058E000F8B500BFF8BC08BC9E467047FFFFFFFF3D
:1058F0005FF800F02187FF1F71560000350400009B
:04590000F8B500BF37
:105904002DE9F04F8DB00746049090F8410097F8C8
:105914004560B7F84A20FB6B7D6BFC6A07914FF03A
:10592400000C60F3070C66F30F2CB5FBF4F462F380
:105934001F4C0694D7F85490D7F858804BB1012BDC
:1059440000F04881022B00F09981032B00F04F8175
:1059540000230393002800F02481049BDFF800E374
:105964009F6909EB87039845009340F21C81B24973
:10597400DFF8F0A20A68B14BB14E22F002020A60CD
:10598400B04A4FF400740120CAF800401070069A1F
:105994000025920005920295284601954C46042163
:1059A4004FF0FF32AB461F680C2FFCD8376807F066
:1059B4007F07974200F0B780326802F07F02002927
:1059C40040F09B8044F8040BA04508D89E4800781A
:1059D40010F0FB0F40F0EB8001214C4602914EF099
:1059E400010710464FF0000B032138475FFA8CF78C
:1059F4001740CCF3072A5745D5D15FEA1C4540F040
:105A0400CD80039D002D00F0C180039D0CAF013DAE
:105A140007EB8507039557F810CCC4E7CCF30F4781
:105A2400013FBFB267F31F4C002FBCD1039D002D73
:105A340000F0AC80039DDFF830E2013D0CAF07EBD2
:105A44008507039557F810CCADE7009FBC42AAD157
:105A5400794B1B68DB0304D57C4A136843F08063ED
:105A64001360754A049813687949079D43F002034B
:105A740013604FF400730B600346416B8269019815
:105A8400D861009B6F4803EB8202C9EB0202D31C6E
:105A940000228B4202702846AB6024BF5B1A8360ED
:105AA400009B2A469C429DF80850057008D0C9EB1B
:105AB40004039B1044BF069A9B18079A9B005360EB
:105AC4000DB0BDE8F08F009D4D452F465BD2059D7E
:105AD400DFF898E12F44009765E7009FBC42FFF48C
