:1000000000200020F9000000854F00003D4F000057
:100010003D4F00003D4F00003D4F00003D4F0000B0
:100020003D4F00003D4F00003D4F0000854F000058
:10003000854F00003D4F0000F5530000F9540000CB
:10004000854F0000854F0000854F0000854F000060
:10005000854F0000854F0000854F0000854F000050
:10006000854F0000854F0000854F0000854F000040
:10007000854F0000854F0000854F0000854F000030
:10008000BD4F0000854F0000E9500000854F000083
:10009000BD510000854F0000854F0000854F0000D6
:1000A000854F0000854F0000854F0000854F000000
:1000B000854F0000854F0000854F0000854F0000F0
:1000C000854F0000854F0000854F0000A53F0000D0
:1000D000854F0000854F0000854F0000854F0000D0
:1000E000854F0000854F0000854F0000854F0000C0
:1000F000854F0000854F0000544B4CF2205210B544
:100100001A804DF628121A8000BF00BF04F03EFF8F
:100110004F4B504A1A60504A5A60504A136813F4C1
:10012000807304D14E490B604FF4A85313604D4BBC
:100130001A78110703D51A7842F008021A704A4B50
:100140004A492A221A704A4A4A4B8B4204D252F830
:10015000040F43F8040BF8E7474B484900228B4251
:1001600002D243F8042BFAE74549464A002352F8E5
:10017000230041F8230001333E2BF8D1424B434A80
:10018000802103F8011B9342FBD1414B3C4A1A608A
:10019000404B8A221A70A3F5805324225A70A02261
:1001A0001A709A799207FCD59A79D406FCD43A4A07
:1001B000937903F00C03082B374BF9D103221A7102
:1001C00040225A719A799006FCD5334A9179324B84
:1001D0004906FBD5314A3249116002215160202283
:1001E0001A709A7902F00C020C2AFAD12D4B2E4A81
:1001F0001A602E4B2E4A1A6000225A60072243F8DA
:10020000042C2C4AC3F80C2D62B603F097FD144B56
:100210001B68DA0705D5284803F02AFD274B284A32
:100220001A60284B1B785B0609D5244C244B2268A6
:100230009A4204D1204803F01BFD0023236005F0FF
:1002400091F904F0A9FE04F0ADFDFEE70E20054093
:1002500038800440823F04000100002B10D003408E
:1002600014D0034002D0074000E0074050EFFF1FCA
:100270004058000058E5FF1F50EFFF1F881800206E
:1002800000E1FF1F0000000000E400E02EE400E0B9
:1002900008ED00E000500640004006404480044065
:1002A0000000030104800440C010050014E000E0D9
:1002B000FF76010000002020F831F95B1CE00340CC
:1002C000A5C3945A00F00740FFFFFFFFFFFFFFFFA9
:1002D000FFFFFFFFFFFFFFFFFFFFFFFFFFFFFFFF2E
:1002E000FFFFFFFFFFFFFFFFFFFFFFFFFFFFFFFF1E
:1002F000FFFFFFFFFFFFFFFFFFFFFFFFFFFFFFFF0E
:10030000FFFFFFFFFFFFFFFFFFFFFFFFFFFFFFFFFD
:10031000FFFFFFFFFFFFFFFFFFFFFFFFFFFFFFFFED
:10032000FFFFFFFFFFFFFFFFFFFFFFFFFFFFFFFFDD
:10033000FFFFFFFFFFFFFFFFFFFFFFFFFFFFFFFFCD
:10034000FFFFFFFFFFFFFFFFFFFFFFFFFFFFFFFFBD
:10035000FFFFFFFFFFFFFFFFFFFFFFFFFFFFFFFFAD
:10036000FFFFFFFFFFFFFFFFFFFFFFFFFFFFFFFF9D
:10037000FFFFFFFFFFFFFFFFFFFFFFFFFFFFFFFF8D
:10038000FFFFFFFFFFFFFFFFFFFFFFFFFFFFFFFF7D
:10039000FFFFFFFFFFFFFFFFFFFFFFFFFFFFFFFF6D
:1003A000FFFFFFFFFFFFFFFFFFFFFFFFFFFFFFFF5D
:1003B000FFFFFFFFFFFFFFFFFFFFFFFFFFFFFFFF4D
:1003C000FFFFFFFFFFFFFFFFFFFFFFFFFFFFFFFF3D
:1003D000FFFFFFFFFFFFFFFFFFFFFFFFFFFFFFFF2D
:1003E000FFFFFFFFFFFFFFFFFFFFFFFFFFFFFFFF1D
:1003F000FFFFFFFFFFFFFFFFFFFFFFFFFFFFFFFF0D
:10040000FFFFFFFFFFFFFFFFFFFFFFFFDEF9FFFF23
:1004100010B5054C237833B9044B13B10448AFF33E
:1004200000800123237010BD50EFFF1F000000006B
:1004300044580000084B10B51BB108490848AFF3F9
:1004400000800848036803B910BD074B002BFBD0A0
:10045000BDE81040184700BF0000000054EFFF1F28
:100460004458000050EFFF1F00000000064B0748F3
:100470001B68074A82B020210193019B96330360D9
:10048000116002B0704700BFD41500207CEFFF1F41
:1004900084F00F40064B07481B68074A82B02021B2
:1004A0000193019B0A330360116002B0704700BFE3
:1004B000D41500207CEFFF1F84F00F40014B002279
:1004C0001A60704774EFFF1F10B533281BD8DFE8A0
:1004D00000F0676B721A241A1A1A1A1A231A1A23AE
:1004E0001A1A1A231A231A1A1A1A1A1A1A1A1A1A5A
:1004F0001A1A1A1A1A1A1A1A1A1A1A1A1A1A1A1A5C
:100500001A1A1A2324722F4B2F4A18700424002021
:1005100001215C719871117010BD012004F012FC72
:100520000B212A4804F08AFB002004F00BFC022077
:1005300004F008FC0321264804F080FB002004F0AE
:1005400001FC212004F0FEFB002004F0FBFB002056
:1005500004F0F8FB102004F0F5FB002004F0F2FB9F
:10056000232004F0EFFB002004F0ECFB0F2004F04C
:10057000E9FB422004F0E6FB402004F0E3FB4020CE
:1005800004F0E0FB082004F0DDFB412004F0DAFB7E
:10059000022004F0D7FB0020BDE8104004F0D2BBDD
:1005A0000C4B00221A6010BD0B490A4B202001227F
:1005B00008601A6010BD04210848BDE8104004F02E
:1005C0003DBB00BF80EFFF1F79EFFF1FA856000063
:1005D000B456000074EFFF1F84F00F40A0560000D7
:1005E000704A1378803B4E2B36D8DFE803F028B5ED
:1005F000A2A87C3535353535353535353535353584
:10060000353535353535353535353535353535359A
:10061000353535353535353535353535353535358A
:100620003535353535353535353535353535888CD0
:100630009335464A4E355D6165357478360050888D
:10064000537843EA0023062B40F09580564A082051
:1006500003234B60CA6088607047907853781279A2
:1006600003EB0023A1F85030130740F18380CB6BDC
:1006700001337FD10323CB637047537881F8423035
:100680007047537881F846307047907853781279E4
:1006900003EB00231007A1F84C306BD5CB6B013373
:1006A00068D10123CB637047537881F8433070479A
:1006B000537881F84730704790785378127903EB7C
:1006C00000231207A1F84E3054D5CB6B013351D122
:1006D0000223CB637047537881F8443070475378D6
:1006E00081F848307047B2F803009378527843EAB3
:1006F000002342EA032301339B004B637047537886
:1007000081F841307047537881F845304FF0FF331E
:10071000CB63704790785378127903EB0023A1F8EC
:100720004A30130726D5CB6B013323D10023CB638B
:100730007047937803F0010381F860307047B2F896
:1007400003009378527843EA002342EA03230133FB
:100750009B000B614B617047B2F80130B2F8032087
:1007600001339B0001329200B3F5503F4B630A61A5
:100770004A610FD07047022B10D010B40B4A0C48BE
:100780004B605C1CB2FBF4F210BCB0FBF2F0CA6030
:100790008860EFE74FF4E8234B6370471846034A3D
:1007A000002356E780EFFF1F001BB700006CDC0240
:1007B00000D8B80510B5064B20241C60962003F025
:1007C0006FFA044B64201C60BDE8104003F068BA67
:1007D00084F00F4088F00F4008B50021022003F09C
:1007E00059FA00210E2003F055FA0021072003F0EA
:1007F00051FA0021082003F04DFA0021062003F0F1
:1008000049FA0021142003F045FA0021152003F0D5
:1008100041FA0021052003F03DFA01210D2003F0EB
:1008200039FAFFF7C7FF034A034B0449116000225E
:100830001A6008BD74EAFF1F74EFFF1F006CDC0232
:1008400038B50E4C2378ABB1012B04D0FFF7B2FFC3
:100850000023237038BD0246094883794579013366
:10086000DBB29D428371C254F4D1FFF7B9FE00237D
:10087000237038BDBDE83840FFF726BE79EFFF1F73
:1008800080EFFF1F10B412490B6885B0E3B1114827
:1008900002680192019A934216D20F4B0F4A20240C
:1008A0001C6003680293029B00200F3313600860F2
:1008B0003BB10849096803910399994284BF002319
:1008C000136005B010BC7047044A1368F0E700BF1E
:1008D0007CEFFF1FD415002088F00F406CEFFF1F46
:1008E00030B4064A064C13680649082523F0020373
:1008F000012013602560087030BC704710E000E0F4
:1009000084E100E070EFFF1F0B4B1B68DB0330B48A
:1009100004D50A4A136843F080631360064A084C02
:1009200013680849082543F002030020136025607E
:10093000087030BC704700BF10E000E004ED00E03C
:1009400004E100E070EFFF1F4A4B826DDFF844C105
:100950002DE9F04FDFF82CE1476D474EDFF8389175
:10096000464C01254FF020080561C3F80080DEF8F1
:1009700000304FF0080823F00203CEF8003083B0B7
:10098000C6F8008090F845A08DF803A00023924699
:1009900001948CF800503D46834690F841608846AB
:1009A0004F462A46184619465446019D9DF8039025
:1009B000002E0DD03B78287810F0FB0F28D1194677
:1009C0003B7803EA06004845F5D103EB012103E03B
:1009D00039783B78090219443B78090219443B787D
:1009E000090201EB0300397800BF42F8040B00BF95
:1009F0003B7803EB01213B7803EB01213B7803EBD0
:100A00000120A24242F8040B00BF3978E1DB01E08B
:100A10004FF001055FFA89F38BF841608BF84530A0
:100A2000DEF800308DF80390DB030195CBF85840D9
:100A300004D5134A136843F080631360114A1248C7
:100A4000136843F002031360019B08250021012B6A
:100A500005608CF8001004D10C4A0D4B202010606A
:100A600019600A4B01212022C8F808101A6003B04F
:100A7000BDE8F08F84F00F4084E100E08020074063
:100A800004ED00E010E000E004E100E088F00F4039
:100A900074EFFF1F70EFFF1FD0F00F402DE9F04FF4
:100AA0008B4685B09BF80020D0F85480846D816916
:100AB000029290F84130C26A0392C8EB04054A03DF
:100AC000844602EB9525002B00F0E180774B8900EE
:100AD000202241441A60764BDFF8F4E11B68744A27
:100AE0007448754E23F0020308271360CEF8007097
:100AF0009CF8457001912946704D8DF803700023D4
:100B0000A14601222A70374605461C4618464E4625
:100B10009CF841E0019B9DF803904246C246BEF11D
:100B2000000F50D0287800BF00BF00BF00BF00BF3B
:100B300000BF2C7804EB002000BF00BF00BF00BF47
:100B40002C7804EB002000BF00BF00BF00BF2C7852
:100B500004EB002042F8040B9A42E3DB287801E022
:100B600000BF00BF2C7804EB002000BF3C7814F0DD
:100B7000FB0F2C7804EB002046D100BF00BF2C787F
:100B800004EB002042F8040B964298BF52462878A6
:100B900004EA0E044C45E5D12C7804EB0020A2EBCE
:100BA000D12353452C7804EB00204FEA415138BF44
:100BB00003EBD1232C7804EB002042F8040B96427F
:100BC00098BF4FEA0A02287800BF00BF00BFFFE7C6
:100BD0002C7804EB002000BF00BF00BF00BF2C78C2
:100BE00004EB002000BF00BF00BF00BF2C7804EB67
:100BF000002042F8040B964298BF5246287800BF66
:100C000000BF9A42E4D101E04FF001078DF8039054
:100C100001939DF803308CF84530254B8CF841E06A
:100C20001B68CCF85860DB03CCF854A004D52448EA
:100C3000036843F0806303601D48224C036843F05F
:100C400002030360082020601C480023012F03706A
:100C500025D09CF84130E3B1DCF81830019901EB64
:100C60008301C8EB01019DF80C30891003FB01F1F1
:100C7000CBF8081008F1040842451CBF01238BF88B
:100C80000030114B20221A6005B0BDE8F08F211F03
:100C900021E7CBF80830029B002BF2D0EAE70A4CA0
:100CA0000A48202525600360D3E700BF84F00F4089
:100CB00010E000E0D0F00F408020074070EFFF1FF1
:100CC00004ED00E004E100E088F00F4074EFFF1F46
:100CD00084E100E0FFFFFFFF2DE9F843C66D836B61
:100CE00090F8417006F16046B34228BF33469E0A31
:100CF0008146B3024FF000501A180024C9F854007E
:100D00008C604FF4FA70C9F83430C9F83830C9F83B
:100D1000582002F0C5FF99F8413023B10F4BC9F8B4
:100D2000104020221A60DFF844E00D4ADEF800305F
:100D3000DFF83CC00B480C4C23F002030821CEF82E
:100D400000304FF001081160002399F845208CF81D
:100D500000804FF000511D460CE000BF84F00F40B2
:100D600084E100E0D0F00F408020074010E000E078
:100D700070EFFF1F01F10301002F11D005782378D8
:100D800013F0FB0F41F010840D70057805EA07039E
:100D90009342F4D1A1F1010101F8015906E000BF2D
:100DA000057801F80159057801F80159057801F82D
:100DB0000159057801F8075B057801F801590578B4
:100DC00001F80159057801F80159057801F8075B28
:100DD000057801F80159057801F80159057801F8FD
:100DE0000159057801F8075B057801F80159057884
:100DF00001F80159057801F80159057801F8075BF8
:100E0000057801F80159057801F80159057801F8CC
:100E10000159057801F8075B057801F80159057853
:100E200001F80159057801F80159057801F8075BC7
:100E3000057801F80159057801F80159057801F89C
:100E40000159057801F8075B057801F80159057823
:100E500001F80159057801F80159057801F8075B97
:100E6000057801F80159057801F80159057801F86C
:100E70000159057801F8075B057801F801590578F3
:100E800001F80159057801F80159057801F8075B67
:100E9000057801F80159057801F80159057801F83C
:100EA0000159057801F8075B057801F801590578C3
:100EB00001F80159057801F80159057801F8075B37
:100EC000057801F80159057801F80159057801F80C
:100ED0000159057801F8075B057801F80159057893
:100EE00001F80159057801F80159057801F8075B07
:100EF000057801F80159057801F80159057801F8DC
:100F00000159057801F8075B057801F80159057862
:100F100001F80159057801F80159057801F8075BD6
:100F2000057801F80159057801F80159057801F8AB
:100F30000159057801F8075B057801F80159057832
:100F400001F80159057801F80159057801F8075BA6
:100F5000057801F80159057801F80159057801F87B
:100F60000159057801F8075B057801F80159057802
:100F700001F80159057801F80159057801F8075B76
:100F8000057801F80159057801F80159057801F84B
:100F90000159057801F8075B057801F801590578D2
:100FA00001F80159057801F80159057801F8075B46
:100FB000057801F80159057801F80159057801F81B
:100FC0000159057801F8075B057801F801590578A2
:100FD00001F80159057801F80159057801F8075B16
:100FE000057801F80159057801F80159057801F8EB
:100FF0000159057801F8075B057801F80159057872
:1010000001F80159057801F80159057801F8075BE5
:10101000057801F80159057801F80159057801F8BA
:101020000159057801F8075B057801F80159057841
:1010300001F80159057801F80159057801F8075BB5
:10104000057801F80159057801F80159057801F88A
:101050000159057801F8075B057801F80159057811
:1010600001F80159057801F80159057801F8075B85
:10107000057801F80159057801F80159057801F85A
:101080000159057801F8075B057801F801590578E1
:1010900001F80159057801F80159057801F8075B55
:1010A000057801F80159057801F80159057801F82A
:1010B0000159057801F8075B057801F801590578B1
:1010C00001F80159057801F80159057801F8075B25
:1010D000057801F80159057801F80159057801F8FA
:1010E0000159057801F8075B057801F80159057881
:1010F00001F80159057801F80159057801F8075BF5
:10110000057801F80159057801F80159057801F8C9
:101110000159057801F8075B057801F80159057850
:1011200001F80159057801F80159057801F8075BC4
:10113000057801F80159057801F80159057801F899
:101140000159057801F8075B057801F80159057820
:1011500001F80159057801F80159057801F8075B94
:10116000057801F80159057801F80159057801F869
:101170000159057801F8075B057801F801590578F0
:1011800001F80159057801F80159057801F8075B64
:10119000057801F80159057801F80159057801F839
:1011A0000159057801F8075B057801F801590578C0
:1011B00001F80159057801F80159057801F8075B34
:1011C000057801F80159057801F80159057801F809
:1011D0000159057801F8075B057801F80159057890
:1011E00001F80159057801F80159057801F8075B04
:1011F000057801F80159057801F80159057801F8D9
:101200000159057801F8075B057801F8015905785F
:1012100001F80159057801F80159057801F8075BD3
:10122000057801F80159057801F80159057801F8A8
:101230000159057801F8075B057801F8015905782F
:1012400001F80159057801F80159057801F8075BA3
:10125000057801F80159057801F80159057801F878
:101260000159057801F8075B057801F801590578FF
:1012700001F80159057801F80159057801F8075B73
:10128000057801F80159057801F80159057801F848
:101290000159057801F8075B057801F801590578CF
:1012A00001F80159057801F80159057801F8075B43
:1012B000057801F80159057801F80159057801F818
:1012C0000159057801F8075B057801F8015905789F
:1012D00001F80159057801F80159057801F8075B13
:1012E000057801F80159057801F80159057801F8E8
:1012F0000159057801F8075B057801F8015905786F
:1013000001F80159057801F80159057801F8075BE2
:10131000057801F80159057801F80159057801F8B7
:101320000159057801F8075B057801F8015905783E
:1013300001F80159057801F80159057801F8075BB2
:10134000057801F80159057801F80159057801F887
:101350000159057801F8075B057801F8015905780E
:1013600001F80159057801F80159057801F8075B82
:10137000057801F80159057801F80159057801F857
:101380000159057801F8075B057801F801590578DE
:1013900001F80159057801F80159057801F8075B52
:1013A000057801F80159057801F80159057801F827
:1013B0000159057801F8075B057801F801590578AE
:1013C00001F80159057801F80159057801F8075B22
:1013D000057801F80159057801F80159057801F8F7
:1013E0000159057801F8075B057801F8015905787E
:1013F00001F80159057801F80159057801F8075BF2
:10140000057801F80159057801F80159057801F8C6
:101410000159057801F8075B057801F8015905784D
:1014200001F80159057801F80159057801F8075BC1
:10143000057801F80159057801F80159057801F896
:101440000159057801F8075B057801F8015905781D
:1014500001F80159057801F80159057801F8075B91
:10146000057801F80159057801F80159057801F866
:101470000159057801F8075B057801F801590578ED
:1014800001F80159057801F80159057801F8075B61
:10149000057801F80159057801F80159057801F836
:1014A0000159057801F8075B057801F801590578BD
:1014B00001F80159057801F80159057801F8075B31
:1014C000057801F80159057801F80159057801F806
:1014D0000159057801F8075B057801F8015905788D
:1014E00001F80159057801F80159057801F8075B01
:1014F000057801F80159057801F80159057801F8D6
:101500000159057801F8075B057801F8015905785C
:1015100001F80159057801F80159057801F8075BD0
:10152000057801F80159057801F80159057801F8A5
:101530000159057801F8075B057801F8015905782C
:1015400001F80159057801F80159057801F8075BA0
:10155000057801F80159057801F80159057801F875
:101560000159057801F8075B057801F801590578FC
:1015700001F80159057801F80159057801F8075B70
:10158000057801F80159057801F80159057801F845
:101590000159057801F8075B057801F801590578CC
:1015A00001F80159057801F80159057801F8075B40
:1015B000057801F80159057801F80159057801F815
:1015C0000159057801F8075B057801F8015905789C
:1015D00001F80159057801F80159057801F8075B10
:1015E000057801F80159057801F80159057801F8E5
:1015F0000159057801F8075B057801F8015905786C
:1016000001F80159057801F80159057801F8075BDF
:10161000057801F80159057801F80159057801F8B4
:101620000159057801F8075B057801F8015905783B
:1016300001F80159057801F80159057801F8075BAF
:10164000057801F80159057801F80159057801F884
:101650000159057801F8075B057801F8015905780B
:1016600001F80159057801F80159057801F8075B7F
:10167000057801F80159057801F80159057801F854
:101680000159057801F8075B057801F801590578DB
:1016900001F80159057801F80159057801F8075B4F
:1016A000057801F80159057801F80159057801F824
:1016B0000159057801F8075B057801F801590578AB
:1016C00001F80159057801F80159057801F8075B1F
:1016D000057801F80159057801F80159057801F8F4
:1016E0000159057801F8075B057801F8015905787B
:1016F00001F80159057801F80159057801F8075BEF
:10170000057801F80159057801F80159057801F8C3
:101710000159057801F8075B057801F8015905784A
:1017200001F80159057801F80159057801F8075BBE
:10173000057801F80159057801F80159057801F893
:101740000159057801F8075B057801F8015905781A
:1017500001F80159057801F80159057801F8075B8E
:10176000057801F80159057801F80159057801F863
:101770000159057801F8075B057801F801590578EA
:1017800001F80159057801F80159057801F8075B5E
:10179000057801F80159057801F80159057801F833
:1017A0000159057801F8075B057801F801590578BA
:1017B00001F80159057801F80159057801F8075B2E
:1017C000057801F80159057801F80159057801F803
:1017D0000159057801F8075B057801F8015905788A
:1017E00001F80159057801F80159057801F8075BFE
:1017F000057801F80159057801F80159057801F8D3
:101800000159057801F8075B057801F80159057859
:1018100001F80159057801F80159057801F8075BCD
:10182000057801F80159057801F80159057801F8A2
:101830000159057801F8075B057801F80159057829
:1018400001F80159057801F80159057801F8075B9D
:10185000057801F80159057801F80159057801F872
:101860000159057801F8075B057801F801590578F9
:1018700001F80159057801F80159057801F8075B6D
:10188000057801F80159057801F80159057801F842
:101890000159057801F8075B057801F801590578C9
:1018A00001F80159057801F80159057801F8075B3D
:1018B000057801F80159057801F80159057801F812
:1018C0000159057801F8075B057801F80159057899
:1018D00001F80159057801F80159057801F8075B0D
:1018E000057801F80159057801F80159057801F8E2
:1018F0000159057801F8075B057801F80159057869
:1019000001F80159057801F80159057801F8075BDC
:10191000057801F80159057801F80159057801F8B1
:101920000159057801F8075B057801F80159057838
:1019300001F80159057801F80159057801F8075BAC
:10194000057801F80159057801F80159057801F881
:101950000159057801F8075B057801F80159057808
:1019600001F80159057801F80159057801F8075B7C
:10197000057801F80159057801F80159057801F851
:101980000159057801F8075B057801F801590578D8
:1019900001F80159057801F80159057801F8075B4C
:1019A000057801F80159057801F80159057801F821
:1019B0000159057801F8075B057801F801590578A8
:1019C00001F80159057801F80159057801F8075B1C
:1019D000057801F80159057801F80159057801F8F1
:1019E0000159057801F8075B057801F80159057878
:1019F00001F80159057801F80159057801F8075BEC
:101A0000057801F80159057801F80159057801F8C0
:101A10000159057801F8075B057801F80159057847
:101A200001F80159057801F80159057801F8075BBB
:101A3000057801F80159057801F80159057801F890
:101A40000159057801F8075B057801F80159057817
:101A500001F80159057801F80159057801F8075B8B
:101A6000057801F80159057801F80159057801F860
:101A70000159057801F8075B057801F801590578E7
:101A800001F80159057801F80159057801F8075B5B
:101A9000057801F80159057801F80159057801F830
:101AA0000159057801F8075B057801F801590578B7
:101AB00001F80159057801F80159057801F8075B2B
:101AC000057801F80159057801F80159057801F800
:101AD0000159057801F8075B057801F80159057887
:101AE00001F80159057801F80159057801F8075BFB
:101AF000057801F80159057801F80159057801F8D0
:101B00000159057801F8075B057801F80159057856
:101B100001F80159057801F80159057801F8075BCA
:101B2000057801F80159057801F80159057801F89F
:101B30000159057801F8075B057801F80159057826
:101B400001F80159057801F80159057801F8075B9A
:101B5000057801F80159057801F80159057801F86F
:101B60000159057801F8075B057801F801590578F6
:101B700001F80159057801F80159057801F8075B6A
:101B8000057801F80159057801F80159057801F83F
:101B90000159057801F8075B057801F801590578C6
:101BA00001F80159057801F80159057801F8075B3A
:101BB000057801F80159057801F80159057801F80F
:101BC0000159057801F8075B057801F80159057896
:101BD00001F80159057801F80159057801F8075B0A
:101BE000057801F80159057801F80159057801F8DF
:101BF0000159057801F8075B057801F80159057866
:101C000001F80159057801F80159057801F8075BD9
:101C1000057801F80159057801F80159057801F8AE
:101C20000159057801F8075B057801F80159057835
:101C300001F80159057801F80159057801F8075BA9
:101C4000057801F80159057801F80159057801F87E
:101C50000159057801F8075B057801F80159057805
:101C600001F80159057801F80159057801F8075B79
:101C7000057801F80159057801F80159057801F84E
:101C80000159057801F8075B057801F801590578D5
:101C900001F80159057801F80159057801F8075B49
:101CA000057801F80159057801F80159057801F81E
:101CB0000159057801F8075B057801F801590578A5
:101CC00001F80159057801F80159057801F8075B19
:101CD000057801F80159057801F80159057801F8EE
:101CE0000159057801F8075B057801F80159057875
:101CF00001F80159057801F80159057801F8075BE9
:101D0000057801F80159057801F80159057801F8BD
:101D10000159057801F8075B057801F80159057844
:101D200001F80159057801F80159057801F8075BB8
:101D3000057801F80159057801F80159057801F88D
:101D40000159057801F8075B057801F80159057814
:101D500001F80159057801F80159057801F8075B88
:101D6000057801F80159057801F80159057801F85D
:101D70000159057801F8075B057801F801590578E4
:101D800001F80159057801F80159057801F8075B58
:101D9000057801F80159057801F80159057801F82D
:101DA0000159057801F8075B057801F801590578B4
:101DB00001F80159057801F80159057801F8075B28
:101DC000057801F80159057801F80159057801F8FD
:101DD0000159057801F8075B057801F80159057884
:101DE00001F80159057801F80159057801F8075BF8
:101DF000057801F80159057801F80159057801F8CD
:101E00000159057801F8075B057801F80159057853
:101E100001F80159057801F80159057801F8075BC7
:101E2000057801F80159057801F80159057801F89C
:101E30000159057801F8075B057801F80159057823
:101E400001F80159057801F80159057801F8075B97
:101E5000057801F80159057801F80159057801F86C
:101E60000159057801F8075B057801F801590578F3
:101E700001F80159057801F80159057801F8075B67
:101E8000057801F80159057801F80159057801F83C
:101E90000159057801F8075B057801F801590578C3
:101EA00001F80159057801F80159057801F8075B37
:101EB000057801F80159057801F80159057801F80C
:101EC0000159057801F8075B057801F80159057893
:101ED00001F80159057801F80159057801F8075B07
:101EE000057801F80159057801F80159057801F8DC
:101EF0000159057801F8075B057801F80159057863
:101F000001F80159057801F80159057801F8075BD6
:101F1000057801F80159057801F80159057801F8AB
:101F20000159057801F8075B057801F80159057832
:101F300001F80159057801F80159057801F8075BA6
:101F4000057801F80159057801F80159057801F87B
:101F50000159057801F8075B057801F80159057802
:101F600001F80159057801F80159057801F8075B76
:101F7000057801F80159057801F80159057801F84B
:101F80000159057801F8075B057801F801590578D2
:101F900001F80159057801F80159057801F8075B46
:101FA000057801F80159057801F80159057801F81B
:101FB0000159057801F8075B057801F801590578A2
:101FC00001F80159057801F80159057801F8075B16
:101FD000057801F80159057801F80159057801F8EB
:101FE0000159057801F8075B057801F80159057872
:101FF00001F80159057801F80159057801F8075BE6
:10200000057801F80159057801F80159057801F8BA
:102010000159057801F8075B057801F80159057841
:1020200001F80159057801F80159057801F8075BB5
:10203000057801F80159057801F80159057801F88A
:102040000159057801F8075B057801F80159057811
:1020500001F80159057801F80159057801F8075B85
:10206000057801F80159057801F80159057801F85A
:102070000159057801F8075B057801F801590578E1
:1020800001F80159057801F80159057801F8075B55
:10209000057801F80159057801F80159057801F82A
:1020A0000159057801F8075B057801F801590578B1
:1020B00001F80159057801F80159057801F8075B25
:1020C000057801F80159057801F80159057801F8FA
:1020D0000159057801F8075B057801F80159057881
:1020E00001F80159057801F80159057801F8075BF5
:1020F000057801F80159057801F80159057801F8CA
:102100000159057801F8075B057801F80159057850
:1021100001F80159057801F80159057801F8075BC4
:10212000057801F80159057801F80159057801F899
:102130000159057801F8075B057801F80159057820
:1021400001F80159057801F80159057801F8075B94
:10215000057801F80159057801F80159057801F869
:102160000159057801F8075B057801F801590578F0
:1021700001F80159057801F80159057801F8075B64
:10218000057801F80159057801F80159057801F839
:102190000159057801F8075B057801F801590578C0
:1021A00001F80159057801F80159057801F8075B34
:1021B000057801F80159057801F80159057801F809
:1021C0000159057801F8075B057801F80159057890
:1021D00001F80159057801F80159057801F8075B04
:1021E000057801F80159057801F80159057801F8D9
:1021F0000159057801F8075B057801F80159057860
:1022000001F80159057801F80159057801F8075BD3
:10221000057801F80159057801F80159057801F8A8
:102220000159057801F8075B057801F8015905782F
:1022300001F80159057801F80159057801F8075BA3
:10224000057801F80159057801F80159057801F878
:102250000159057801F8075B057801F801590578FF
:1022600001F80159057801F80159057801F8075B73
:10227000057801F80159057801F80159057801F848
:102280000159057801F8075B057801F801590578CF
:1022900001F80159057801F80159057801F8075B43
:1022A000057801F80159057801F80159057801F818
:1022B0000159057801F8075B057801F8015905789F
:1022C00001F80159057801F80159057801F8075B13
:1022D000057801F80159057801F80159057801F8E8
:1022E0000159057801F8075B057801F8015905786F
:1022F00001F80159057801F80159057801F8075BE3
:10230000057801F80159057801F80159057801F8B7
:102310000159057801F8075B057801F8015905783E
:1023200001F80159057801F80159057801F8075BB2
:10233000057801F80159057801F80159057801F887
:102340000159057801F8075B057801F8015905780E
:1023500001F80159057801F80159057801F8075B82
:10236000057801F80159057801F80159057801F857
:102370000159057801F8075B057801F801590578DE
:1023800001F80159057801F80159057801F8075B52
:10239000057801F80159057801F80159057801F827
:1023A0000159057801F8075B057801F801590578AE
:1023B00001F80159057801F80159057801F8075B22
:1023C000057801F80159057801F80159057801F8F7
:1023D0000159057801F8075B057801F8015905787E
:1023E00001F80159057801F80159057801F8075BF2
:1023F000057801F80159057801F80159057801F8C7
:102400000159057801F8075B057801F8015905784D
:1024100001F80159057801F80159057801F8075BC1
:10242000057801F80159057801F80159057801F896
:102430000159057801F8075B057801F8015905781D
:1024400001F80159057801F80159057801F8075B91
:10245000057801F80159057801F80159057801F866
:102460000159057801F8075B057801F801590578ED
:1024700001F80159057801F80159057801F8075B61
:10248000057801F80159057801F80159057801F836
:102490000159057801F8075B057801F801590578BD
:1024A00001F80159057801F80159057801F8075B31
:1024B000057801F80159057801F80159057801F806
:1024C0000159057801F8075B057801F8015905788D
:1024D00001F80159057801F80159057801F8075B01
:1024E000057801F80159057801F80159057801F8D6
:1024F0000159057801F8075B057801F8015905785D
:1025000001F80159057801F80159057801F8075BD0
:10251000057801F80159057801F80159057801F8A5
:102520000159057801F8075B057801F8015905782C
:1025300001F80159057801F80159057801F8075BA0
:10254000057801F80159057801F80159057801F875
:102550000159057801F8075B057801F801590578FC
:1025600001F80159057801F80159057801F8075B70
:10257000057801F80159057801F80159057801F845
:102580000159057801F8075B057801F801590578CC
:1025900001F80159057801F80159057801F8075B40
:1025A000013E7EF4FDAB01E04FF0010489F84520C7
:1025B000DEF80030DB0304D50D4A136843F0806376
:1025C00013600C4A0C481368082543F002030021ED
:1025D000012C136005608CF8001004D1074A084BE9
:1025E000202010601960054B20221A60BDE8F88396
:1025F00004ED00E010E000E004E100E088F00F40AE
:1026000074EFFF1F2DE9F04FD0F82CE090F8413027
:102610008BB081461A460293406BB0FBFEF30093E9
:102620000EF1FF33DBB209910793591C99F845303D
:102630000393B9F84A30D9F854B0D9F85880D9F88A
:102640002450D9F828600193002A00F06B82D9F851
:1026500018700BEB870CE0454FF0000740F26382E7
:102660009548964B026822F0020205925FFA8EF2BC
:102670000892009A920000240692059A0494A646B5
:10268000026022460824C0F874418D48079CCDF8AA
:1026900000E04FF0010A80F800A0DDF820A00594CA
:1026A0005846D3F800E0BEF1000F18D1D3F800E08F
:1026B000BEF1000F13D196460DE01A6872B91A6880
:1026C00062B91A6852B91A6842B91A6832B91A68F6
:1026D00022B91A6812B91A68002AEED072464FF071
:1026E000010E784CC3F800E0D4F800E0B24005EAEF
:1026F0000E0E013972440DD140F8042B804508D8E4
:102700007149097811F0FB0F40F00282012158460F
:1027100000915146012F51D0062FC2D801A454F880
:1027200027F000BF7D270000A3260000A32600009D
:102730000F290000A72800000F28000055280000DE
:10274000D3F800E0BEF1000FB0D001241C605D4C56
:10275000D4F800E0B24005EA0E0E01397244D9D136
:1027600040F8042B8045D4D857490978012011F04E
:10277000FB0F009040F0CC81584651468445DFD88D
:10278000524C202727601F6827B34FF0010EC3F873
:1027900000E0E76CB2402F4001393A440ED140F8D6
:1027A000042B80457746B4D84749097811F0FB0FD0
:1027B00040F0AE81CDF800E058465146029F039CA0
:1027C0001740A7424FF0010E00F019811F68002F3B
:1027D00040F0F480012769E74FF0010EC3F800E0F4
:1027E000A76CB2402F4001393A4440F05F8140F875
:1027F000042B80454FF005078BD83349097811F039
:10280000FB0F40F08581CDF800E058465146E34586
:102810001F6801D9069CA4442FB34FF0010E294C28
:10282000C3F800E02768B2402F4001393A4440F035
:10283000EF8040F8042B80454FF006073FF669AF64
:102840002149097811F0FB0F40F06281CDF800E0DA
:102850005846514684454FF0010E00F0F7801F683E
:10286000002F40F0D780062720E7164C4FF0010ECE
:10287000C3F800E02768B2402F404C1E3A4440F0B5
:10288000418140F8042B80454FF0040700F23E815F
:102890000D480078059110F0FB0F40F03981CDF81C
:1028A00000E0584651460A4C202727601F68002F39
:1028B00092D10527FAE600BF10E000E00C7103405A
:1028C00070EFFF1FD0F00F408020074084F00F40D2
:1028D00088F00F404FF0010E944CC3F800E02768D9
:1028E000B2402F4001393A4440F00A8140F8042BAD
:1028F00080454FF003073FF60CAF8D49097811F082
:10290000FB0F40F00581CDF800E0584651464FF0EE
:10291000010E019C013C019440F0CA80D9F83C4072
:10292000049FBC4240F3E180049C013409EB04079E
:1029300009EB440E04941C68019797F841700297C4
:10294000019F97F845700397BEF84A700197002CD5
:102950003FF440AF4FF0010E744CC3F800E027681D
:10296000B2402F4001393A447FF428AF40F8042B9D
:10297000804577463FF6CDAE6D490978CDF800E049
:1029800011F0FB0F40F0C4805846514616E7D9F8C5
:102990003C70049CA74240F3A880049C013409EBDE
:1029A000040704941C68039797F841700297039FEB
:1029B00097F845700397002C3FF40CAF5B4CC3F8BD
:1029C00000E02768B2402F4001393A447FF4F6AE68
:1029D00040F8042B80454FF001073FF69AAE54496A
:1029E000097811F0FB0F40F09380029F039C174081
:1029F0000121A7420091584651467FF4E7AE019C61
:102A0000002CC4D01F68002F7FF464AF03274DE66D
:102A1000062781E6454CC3F800E02768B2402F4006
:102A200001393A444FF00607F2D140F8042B8045B3
:102A30003FF66FAE3E490978012011F0FB0F009080
:102A400066D15846844551467FF409AF394B1B681F
:102A5000DB0304D5384A136843F080631360354ABA
:102A600036491368099C43F00203136008230B6086
:102A7000D9F818300899D9F8342000EB8303CBEB50
:102A8000030307989B1001FB030305992C485B1A6D
:102A90000021A3600170934220469DF8004004701D
:102AA00024BF9B1A83600BB0BDE8F08F052733E687
:102AB0001F68002FAAD01D4CC3F800E02768B24061
:102AC0002F4001393A444FF0030719D140F8042B45
:102AD00080453FF61EAE16490978012011F0FB0F24
:102AE000009015D15846514613E7D9F818401F6891
:102AF000A0EB840C002F7FF4B8AE05910427D5E538
:102B0000032709E605910427214605E6059100E61D
:102B10000C4A0D4B2021116000221A6001236046EF
:102B2000009393E70527A8F1040C99E5D0F00F4036
:102B30008020074010E000E004ED00E004E100E048
:102B400070EFFF1F88F00F4074EFFF1F2DE9F04F6B
:102B5000D0F82CB090F84130466AD0F858C0D0F880
:102B600028A091B01A460893436BB3FBFBF30F9375
:102B70000BF1FF33DBB204935C1C03680A9390F8FB
:102B800040300B9390F845300E910993416DB0F8A9
:102B90004A300191864676080393002A00F05D8151
:102BA0008369DFF8EC8201EB8309CC4540F2578161
:102BB000AC4DAD4B2A68002722F002025FFA8BF180
:102BC000069107972A60A94AA949019D082010602B
:102BD0004FF0010008700F99029789000C91049939
:102BE0000D913A46384605974FF0FF31D3F800B0C3
:102BF000BBF1000F18D1D3F800B0BBF1000F13D117
:102C000093460DE01A6872B91A6862B91A6852B927
:102C10001A6842B91A6832B91A6822B91A6812B920
:102C20001A68002AEED05A464FF0010B914FC3F8B4
:102C300000B0D7F800B006EA0B0B8B4500F0DE8041
:102C400039683140002C40F0C08045F8042BAC4579
:102C500000F2E380884A127812F0FB0F40F02481E2
:102C60000120019D049C05900A46002C00F0B480D0
:102C70000020012C08D1D5F800B00A9F37EA0B07D5
:102C8000029F18BF5F46029748F0010B5847089F04
:102C900001EA070B099F5F45A8D1039F002F40F071
:102CA000D980079FBB46DEF83C70BB4580F2CA80E6
:102CB000079F01370EEB070B07979BF841700897AA
:102CC0009BF84570099791E7039F013F03978DD1CA
:102CD000079FB846DEF83C70B84580F2B380079F86
:102CE00001370EEB07080EEB470B0797BBF84AB00E
:102CF00098F84170089798F8457009970BF1FF37DD
:102D0000DFF89081039771E7A9457FF46FAF4D46D7
:102D1000544B1B68DB0304D5584A136843F08063A7
:102D20001360504A5649136804980E9C43F00203FE
:102D3000136008230B60DEF818300299CEF81C10DF
:102D40000199DEF8342009EB83035B1A06999B1086
:102D500001FB03030D9946485B1A00219342017061
:102D60002046A36028BF9B1A9DF8144028BF8360AB
:102D7000A94504700BD0019BED1AAD1044BF0F9B09
:102D8000ED18069B03FB05F31D460E9B5D6011B01D
:102D9000BDE8F08FA9453FF629AF3A4F4FF0200824
:102DA000C7F80080DFF8EC8020E7019FB94537D2F3
:102DB0000C9FDFF8E480B94418E7334F4FF0200848
:102DC000C7F80080DFF8D48010E702FA0AF2013C6D
:102DD0000A44002C7FF44CAF45F8042BAC4507D8CF
:102DE000254A127812F0FB0F67D10122019D05924E
:102DF000002048F0010B0246069C584720B90B986A
:102E000002FA0AF20244013C013236EA02000AD018
:102E10000120002C3FF438AF2BE70A46049C24E73E
:102E2000DFF87480E2E6002CD6D01348007810F06A
:102E3000FB003FF41EAF144A144B20211160002206
:102E40001A6065E7DEF81870DFF854800D94A5EB82
:102E50008709CBE6DFF84C80C8E6DFF84080ACF1AC
:102E60000409A5E610E000E00C71034084E100E0F5
:102E700070EFFF1FD0F00F408020074004ED00E00E
:102E800004E100E084F00F4088F00F4074EFFF1F72
:102E9000942D00008E2C0000082D0000AA2D0000AB
:102EA000BA2D0000C82C0000094B0A4A019D2021C0
:102EB00011601C60012305932AE7064A044B019D1B
:102EC0002021116000221A600123059320E700BF32
:102ED00074EFFF1F88F00F4084B02DE9F04F8DB0E4
:102EE000259C099426461F9C029416ACDDF880E0D0
:102EF000219D9DF898C084E80F001E9B0B932F9B8B
:102F00002B9F9B689DF8B9400793002EC0F29C80D0
:102F10009DF8B83001930DF1A2030493099B01338E
:102F20000893002303934FF0FF330A936FF00603D7
:102F30000693029B0DF1990901226E1E03EA0C0B08
:102F4000069B0799184659186FEA0C03059322E06F
:102F5000A046002C41D1CAB1B1FBF5F205FB12131A
:102F6000F31A57F822200EFB03F322FA03F3029A16
:102F70001340019A002A46D1DDF8048099F8002018
:102F800099F804A013409A4546D001220130012847
:102F900001F1010109D0B1F1704FD9D9E4B9013083
:102FA0000128224601F10101F5D10499039B023168
:102FB0000491089901338B42039309F10109BFD1B0
:102FC0000A9A07998A4202D82F9B19468A600DB047
:102FD000BDE8F04F04B070470022B1FBF5F805FBE7
:102FE0001813F31A57F828800EFB03F328FA03F39B
:102FF0000BEA0308C445C9D0002AC7D0029A4FF093
:1030000001081340BAE7059A99F804A0134099F80B
:10301000002013409A45B8D1039B099A934217D0D8
:10302000C31D0ED0B8F1000F0BD1049B1B880344C5
:10303000002B06934FF00102B7DD6FF006030693F5
:10304000B3E706900122B0E74FF0FF330A93B7E7EA
:10305000073005D0B8F1000F02D1049B1B8819443A
:103060000B9B022B02D00A9101229EE7079B2F9A0D
:103070000A91013B93600793012296E784B02DE902
:10308000F04FA1B0379D3F9C19959DF8E8501894DA
:103090001795349C9DF8E9E0DDF8B8B0319FDDF874
:1030A000CC901A942AAD359E369C85E80F009DF889
:1030B00009319DF808811693389DBEF1000F40F04C
:1030C0002281459BB3EB0B0B00F14C81CDF874E0F2
:1030D000449A002A0CDB05EB0B03013B9B1A48BF0B
:1030E000199A199948BF9B18994298BF5B1AED1A13
:1030F00005EB0B07199A013FBA4278D8AC42A7EB0F
:10310000020715D943464FF0010AB0461E46552026
:1031100001F018FE2A2006B9AA20023501F012FE9D
:10312000AC42F4D8334646469846BAF1000F66D012
:10313000199B002F03F1FF3AC0F21A815FFA89F35D
:103140001B93DB431C93179BCDF878A0741E552569
:10315000DB43AA46CDF87CB03D46B34619934646BC
:103160001A9FA046189C12E0169B002B40F0B180DD
:10317000199B03EA0E0E5FFA8EF001F0E3FD6FEA91
:103180000A03DBB203F07F0A15F1FF3527D3B5FB45
:10319000FBF00BFB105ECEEB080E54F8200007FB93
:1031A0000EFE20FA0EFE0EEA090E002EDCD1169B52
:1031B0005FFA8EF01BB1179B034240F097801B9B78
:1031C00018401C9B0AEA030E7044C0B201F0BAFD1D
:1031D0006FEA0A0315F1FF355FFA83FAD7D2554635
:1031E000B046DDF878A05E46DDF87CB009E0AC4280
:1031F00005D943464FF0000AB0461E4687E7BA4657
:103200005525DA4541DB9DF87470179B3B401993B7
:10321000731E4446DDF868801A97374656469A462C
:103220000FE0002B36D1179B2EEA030E5FFA8EF0CB
:1032300001F088FDEA43D5B205F07F05013E5E4509
:1032400023DBB6FBF7F0189B07FB106ECEEB0A0EE4
:1032500053F82000169B08FB0EFE20FA0EFE0EEA25
:10326000090E002CDDD1ABB95FFA8EF05FFA89FC54
:103270000CEA000E25EA0C007044C0B2013E01F0D9
:1032800061FDEA435E45D5B2DBDA21B0BDE8F04F1F
:1032900004B070475E456DD05CB1179B5FFA8EF04D
:1032A0000342C5D0179B2EEA030060F07F00C0B236
:1032B000BEE7179B5FFA8EF00342D7D0179B2EEA2A
:1032C000030060F07F00C0B201F03CFDEA43D5B2DC
:1032D000B4E7179B5FFA8EF018423FF44EAF199B8C
:1032E00003EA0E0060F07F00C0B246E7199B03EAD4
:1032F0000E0060F07F00C0B201F024FD6FEA0A0307
:103300005FFA83FA40E743AB54222EA9684615932F
:1033100000F0D8FB2AAB0FCBFFF7DEFD459BB3EBEC
:103320000B0B22D4169BD3B1721E38D41A9BDDF836
:1033300068C0DDF85CA002FB03F100235FFA89F0AE
:103340009E4627FA01F303401AEA030F02F1FF3207
:1033500008BF9E46531CCCEB0101F2D1B6E6169B8A
:103360001D93B5E6199B9B44B0E6199B9B44D9E796
:10337000552546E71EF0800F8ED0199B1A988BB109
:10338000179A1D9B23EA020060F07F00C0B201F093
:10339000D9FCEA43D5B2002C7FF44EAF4EE70023B0
:1033A0001D9395E6002C3FF461AF41E7BB4BBC4950
:1033B0002022F0B51A60426B02635300A1FB031395
:1033C0005B080021B3F5184F9DB0044680F86110EA
:1033D00040F2B48001230362A168032900F2B780A0
:1033E000B04D94F86000042608232E702362B2F5D5
:1033F000983F00F2B980B2F5184F00F22381B2F580
:10340000984F00F2B180B2F5185F00F222810028D7
:1034100000F0B6802369934288BF2261082900F238
:10342000BB800823B2F5185F236240F2F380236962
:1034300093420CBF4FF418534FF498534FF4185263
:103440002361626342F22063E16B002980F2CF8046
:10345000082100200229E06300F0A880042900F080
:10346000DC80012940F0C38020276162A162E7620D
:103470004FF498608C4994F841E0B3FBF7F60844A8
:1034800001EB8606A2636363A665E0656165BEF134
:10349000000F00F0BB802169521A22611032002017
:1034A00082491B90B2FBF7F3A3610B68804E8DF845
:1034B000640043F400034FF0FF321A92D4F804E0A2
:1034C0000B6031687B4A7C4F2B7821F00201316020
:1034D0001060C7F800E01168052B41F00101116090
:1034E00000F0CE80042B00F0D080062B00F0E880A6
:1034F000002B00F0C080012B00F0E780022B00F0D1
:10350000E980032B00F0F6806C4D2B6813B994F81A
:1035100060307BB11CAB13E9070015AB83E80700F3
:10352000542204F11001684600F0CCFA94E80F0030
:10353000FFF7A4FD00232B601DB0F0BDB3F5984F3D
:103540004ED9A1680223032903627FF649AF0529FA
:1035500034D8544D94F8600005260823B2F5983FFE
:103560002E7023627FF647AF236A042B00F092800F
:10357000082B04BF4FF41852626300287FF44AAF4F
:103580006369092994BF013302339342236188BFE1
:10359000226108297FF645AFE36B216A002B02F117
:1035A0002003FFF656AF02297FF458AF03201027FF
:1035B0006062A162E7624FF418605BE7082939D9BD
:1035C00094F86000002846D0236A072B43D930299D
:1035D00040F29580334D01232B7084F861303FE039
:1035E000B3F5185FCCBF042308230362F4E6FF2180
:1035F00080200427082661624FF0803184F8400063
:10360000E762A66221604FF4185033E7C4F810E077
:10361000102244E702F1200316E708274FF0883014
:103620000F262060A162E76284F8407066624FF462
:1036300098501FE71B4D94F86000062608232E7053
:103640002362D4E6236A022B8FD14FF418426263BF
:10365000DDE6236A8CE7302941D9124D00232B7017
:10366000B2F5983F7FF6C7AE236A012BEBD14FF43A
:1036700098326263CBE619A92046FEF7C3FF43E701
:1036800019A92046FDF760F93EE719A92046FDF784
:1036900023FB39E74FF498426263B8E688F00F40A5
:1036A000ABAAAAAA78EFFF1F88EFFF1F3C80044057
:1036B00000700340087103400071034074EFFF1F66
:1036C00019A92046FDF7EAF91EE719A92046FFF7D8
:1036D0003DFA19E719A9204600F070F814E71829F7
:1036E00002D9236A072BB8D9094D022608232E7068
:1036F00023627CE619A9204602F09AF804E718290B
:10370000F2D9034D032601232E7084F86130A7E718
:1037100078EFFF1F2DE9F0439DB00023234E244D89
:1037200007930822089309930A930F9310938DF837
:103730004C308DF86C308DF86D308DF84D30129323
:10374000FF2104231B4C1C4F0B92B146A8460D923F
:103750000C910E9311E033680193019B2A689B1A28
:10376000B3F5FA6F07D9D9F8003002932368029AAB
:10377000C8F80020BBB1FDF785F801F051FA002828
:1037800007DD236863B101F027FA03A9C0B2FDF792
:1037900057F83B68002BDED003A8FFF707FEDAE7F7
:1037A000FCF778FEEFE7FCF761FEE4E7D4150020B4
:1037B000A81500206CEFFF1F74EFFF1F00B5024635
:1037C00097B0034692F84120019090F84500059289
:1037D000CDF828A060F30F2A0598DFF8D0E2039116
:1037E0001A46B3F84A300293504460F3070A02982D
:1037F000536D079300EB1A40936D049380B2936866
:1038000006901293936906990893536BD26A0992B2
:10381000079ACDF83090CDF82CC0CEF80C2061F38B
:103820001F4ACEF810200999DDF810C0B3FBF1F360
:10383000CEF80830089BCEF80430129BCDF824B0A7
:10384000182B019B11964FF000006FF3000B88BFFF
:1038500060F3041BCEF800000646D86B0E9598BFA7
:103860004BF0100B0D941097914675468D4C8E4F72
:10387000CDF83C806FF3820B002875D1029B002BA2
:1038800000F08980069B03EB4300059B801060F3EA
:103890001F4A002B62D0079B089ADFF8208203EBB7
:1038A0008203CEF81030814B04991B698B4202D3FE
:1038B0007E4A0B1F13616FF3410BFDF711F823785C
:1038C0001E46237803EB0626C047237803EB062623
:1038D000C047237876484A4603EB062342F8043B68
:1038E0009146E14521461E4607D30378D5F80C9052
:1038F00013F0FB0F4BF0010B50D13A68072AFCD8AC
:1039000000BF00BF0B781E46C0471BF0020FD8D087
:10391000FCF7FAFF019B2A6998690199EB68496BEA
:10392000DDF828A0DDF82CC0DDF83090109F119E46
:1039300002EB80020DACD31A94E8300103330398F4
:10394000CBF300028B42DDF824B0836028BF5B1A02
:10395000027028BF836017B05DF804FB049BDFF89A
:103960006081CEF810309EE701281DD002286DD06E
:1039700003282ED0002885DD4E4B02930022029BA7
:1039800003EB820101324B8803EB43039B1090420F
:103990004B80F4DC76E74BF0040B73E7464B2022B8
:1039A0001A60FCF78BFDB3E7019ACEF8000092F89D
:1039B000461092F84230B2F84C2003EB012303EB9F
:1039C0000242130C3B4903EB43039B100A604B80FC
:1039D00058E70199CEF8000091F8462091F842305E
:1039E00091F847101291019991F8431013910199A0
:1039F00091F84810149103EB0221019BB3F84C207D
:103A00000292139A93F8443015931346129A03EBDB
:103A100002221292159B149A03EB02231393029B2A
:103A200001EB0342234902910199B1F84E3021493B
:103A30008A60129A019902EB0343B1F850201D49A4
:103A40004B60139B03EB02420A6097E70199CEF8A3
:103A5000000091F8462091F8423091F847101291F9
:103A6000019991F84310139103EB0221019AB2F8E6
:103A70004C300293B2F84E301493139B1A46129BAB
:103A800002EB0323029A01EB02421292149A0949B3
:103A9000029103EB02431393129B4B60139B0B6049
:103AA0006CE700BFD0F00F4004710340BC1500204C
:103AB00080200740AC15002088F00F4019E9FF1F57
:103AC0007DE9FF1F844641EA000313F003036DD133
:103AD000403A41D351F8043B40F8043B51F8043BD1
:103AE00040F8043B51F8043B40F8043B51F8043BD8
:103AF00040F8043B51F8043B40F8043B51F8043BC8
:103B000040F8043B51F8043B40F8043B51F8043BB7
:103B100040F8043B51F8043B40F8043B51F8043BA7
:103B200040F8043B51F8043B40F8043B51F8043B97
:103B300040F8043B51F8043B40F8043B51F8043B87
:103B400040F8043B51F8043B40F8043B51F8043B77
:103B500040F8043B403ABDD2303211D351F8043B17
:103B600040F8043B51F8043B40F8043B51F8043B57
:103B700040F8043B51F8043B40F8043B103AEDD2C6
:103B80000C3205D351F8043B40F8043B043AF9D217
:103B9000043208D0D2071CBF11F8013B00F8013BEA
:103BA00001D30B8803806046704700BF082A13D3F7
:103BB0008B078DD010F003038AD0C3F10403D21A0F
:103BC000DB071CBF11F8013B00F8013B80D331F843
:103BD000023B20F8023B7BE7043AD9D3013A11F8C3
:103BE000013B00F8013BF9D20B7803704B7843702E
:103BF0008B788370604670471C4A02EBC003012932
:103C00005B6811D004291BD052F83000002280F8E4
:103C1000802229B1022920D0032922D01A607047BE
:103C20004FF480721A60704752F830004FF4A2725D
:103C300080F880121A601A6822F020021A60704719
:103C400052F830104FF4A272012081F880021A60FD
:103C50001A6842F020021A60704740F203121A609C
:103C600070474FF481721A60704700BFB856000069
:103C700030B4054B054D064C002210211A602A6015
:103C80002060196030BC704714D0034004D003405A
:103C900000D00340212801D8FFF7AEBF704700BF16
:103CA0002DE9F843054672B6204F214B214A1B6887
:103CB0003C68126862B6520102D5322B88BF0134CB
:103CC00095B3C3F5BB331C4EDFF86490DFF8648016
:103CD000FF334FF47A72A6FB031302FB04F404EBE8
:103CE000931472B6D9F800103A68D8F800E062B6BA
:103CF000C1F5BB33FF33A6FB03031EF0806FC4EB9B
:103D000093134FF47A7002D0322988BF013200FB3E
:103D10000233B3F57A7F04D3013D05D004F57A74FC
:103D2000DFE701F047F8DCE7BDE8F883D4150020B1
:103D300018E000E004ED00E0ABAAAAAAF8B5224B17
:103D40002249DFF8A4E0DFF8A4C0214D214C224A2B
:103D5000224F234E4FF4807018604FF400701860AB
:103D60004FF4806018604FF4006018604FF480508A
:103D700018600020086028234BF6FF71CCF8001073
:103D8000CEF800302B60136023603B603360AB6281
:103D90009362092244F8242CC7F8D80F04F57F64F5
:103DA0001048C6F8D41FC5F8F83F2360026001F040
:103DB0004FF81920FFF774FF00F05CFE40F213107B
:103DC000BDE8F840FFF76CBF04E100E00480034069
:103DD00014800340248003401C8003402C80034057
:103DE00034800340009003400C800340088003406F
:103DF000431E032B14D872B60A4951F8230068B148
:103E000070B4094C058834F81320466841F82360E3
:103E1000521B24F8132062B670BC704762B670471C
:103E20000020704730160020741800200138032845
:103E30000BD872B6074B53F8203043B100205B68B3
:103E40000130002BFBD162B6704700207047184646
:103E5000F9E700BF8416002030B472B62B4A1378FD
:103E60001D0706D52A4B196A002936D0996A002900
:103E700041D053781C0706D5254B196C00293ED03C
:103E8000996C002939D09378190705D5204B196E04
:103E9000002936D0996E89B1D3781B0707D51C4B02
:103EA000D3F880207AB3D3F8882011213AB162B6D2
:103EB000184B00221A7030BC00F068BE0D21154C62
:103EC000154D227843F8315003EBC1030830013A15
:103ED0005860227062B630BC704704220D4C0F4D02
:103EE000217843F8325003EBC20308304A1E586071
:103EF000227062B6EFE70521E1E70921DFE708223A
:103F0000ECE70C22EAE71022E8E700BFC857000000
:103F100000E0FF1FAD160020C800400088004000F0
:103F2000431E032B1DD81B4A400140F0100030B443
:103F3000104472B6184CE25C032A1BD8DFE802F08A
:103F40000212151703220D88E25410F0080F14BF57
:103F5000C823882343EA054308310360416062B601
:103F600030BC704708300222EDE70522EBE708304D
:103F70000422E8E7094A52F8230038B1084A52F807
:103F80002300416042F8231062B6E9E742F82310AB
:103F9000034AF7E700E0FF1FBC160020841600204C
:103FA000941600202DE9F04FDFF80CB3DFF80CA3D6
:103FB00087B044E0AB4F4FEA930807EBC809013ED6
:103FC000D9F8042003F00803F6B2A2F1080003F0C8
:103FD000FF04002B40F0028157F838301B0C99B2D7
:103FE00022F8081C002B00F0F0809F4B22F8064CB2
:103FF00042F8044C53F82620002A00F0C5829B4D5D
:1040000055F8263058609A4C45F8260034F816309A
:10401000194424F8161000F099FD002800F0AD8234
:10402000944A954B19F0080F00F1080018BF134689
:10403000C9F8040047F8383008238BF800309BF8A3
:104040000040E4B261071AD58C4B1B78A3B18C49B0
:104050000A7802F0FF0322B1013BDBB20B7003B917
:1040600000BE88490A7802F0FF032AB1013BDBB2A7
:104070000B70002B00F0578204238BF8003004F003
:10408000080303F0FF02002B00F0CC809AF8003008
:10409000DBB21E098ED19C08DFF8C89159F8342094
:1040A00009EBC401C2F38302013A49680C2A00F209
:1040B0008880DFE802F07C7C868686868686478656
:1040C000868607000868704D4A68704F704E2860F9
:1040D00081B240F28160674B6A604FF0010E0022AE
:1040E000814249F834303A60C9F81020C9F81820E4
:1040F00086F800E05B4C00F2E380B1F5D06F80F011
:104100004683B1F5817F00F0FC8200F28D82802928
:1041100000F07783822940F0FA82A98801F07F01BC
:10412000042900F2F4825B485B4C89000844227049
:1041300062700278930740F1588484F800E04FF0F1
:10414000020E42E3514F3A6832B3544B504E544939
:10415000188834780D784028864645F0020828BF34
:104160004FF0400E002C84F001043470CEEB0000C0
:104170000CBF8824C82409EBC80680B285F001056D
:1041800044EA0E447260188049F8384072440D7059
:10419000002800F045813A603B4B1A88B2F5A06FC9
:1041A0000FD100219A7859703E4B1A7009E0364AB7
:1041B000108842F22102904200F037812D4A49F8DE
:1041C0003420394A0123137036E72A4A2A4B19F062
:1041D000080F18BF134647F838302DE700F0D6FC1B
:1041E000324A334952F82630002B00F0D18158680A
:1041F0008C5D42F8260003F10802C9F80420032C64
:1042000005D8DFE804F02C02292602228A551A88F4
:1042100019F0080F0CBF8823C82343EA024347F86C
:10422000383009E7E00700F18181210600F1F281D1
:10423000A20706D51F4A204913780220DBB213706B
:104240000870E30602D51C4B10221A7007B0BDE8B7
:10425000F08F04228A55DAE705228A55D7E7032230
:104260008A55D4E700E0FF1F30160020DC1500203F
:1042700074180020C800400088004000B8160020D4
:1042800041160020C0160020A4160020D8150020DA
:1042900040160020C0200740B0160020EC1500207A
:1042A000AC16002098200740942007408416002078
:1042B000BC1600208820074080200740902007403F
:1042C00042F22100814200F02A8100F2D880B1F54B
:1042D000086F00F07682B1F5106F40F01882226A04
:1042E000B349A8780870120600F13A83D9F828205B
:1042F000B049130600F10C83D9F83020AD491506FA
:1043000000F10183D9F83820AA49140600F1F68299
:10431000D9F84020A749100600F14A83D9F848206F
:10432000A449120600F13F83D9F85020A149130691
:1043300000F13483D9F858209E49150600F12983ED
:10434000D9F860209B49140600F11E83D9F8682033
:104350009849100600F11383D9F870209549120688
:1043600000F10883D9F878209249130600F1FD8204
:10437000D9F880208F49150600F13183D9F88820BB
:104380008C49140600F12583D9F89020894910063C
:1043900000F11983D9F898208649120600F10D839F
:1043A0008548864A864901908648874D874C049700
:1043B00000230596029580460F4616461D46039437
:1043C000306828B1446800F0E1FB2046002CF9D1A8
:1043D00000233360029B38681A46002342F82530D8
:1043E00028B1446800F0D2FB2046002CF9D100220D
:1043F0003A60019A98F800301146002241F8042BE7
:10440000039A0191023B4FF0000122F81510032B93
:1044100000F22B81DFE813F0700125017001250106
:10442000BEF1400F18BF0022B5E6694A0D78487802
:10443000157050708D78C8789570D07010680D79AF
:10444000157186284D7989795571917100F09B819C
:104450006049614E0A78307882F00105002842F008
:1044600002020D700CBF8821C82149F8321009EBF7
:10447000C20280F001000021307051609EE642F2DD
:104480002120814240F0CB81544B554C5549A878AE
:104490001D682560CDF804E0087000200290804679
:1044A000844604464B490D7845F0020E09EBCE03D5
:1044B0000393019B002B039B5C600CBF8824C824E2
:1044C00044EA080385F0010449F83E3032700C706C
:1044D000DFF8E0E0404BDFF8FC80002840F01E8170
:1044E000BCF1400F1BD144F0020C09EBCC03029C41
:1044F000DFF8C0E05C60002A40F02681020442F050
:1045000088029DF804304EF83C20044433700D704E
:104510002346402803D10020334A3B601080334AB1
:10452000012313704DE600F019FCA5E5214B2F483F
:1045300028491A614FF0020E80F800E02C4F0A70F3
:104540002C49196099602C4E2C4D2D4C9A610D21EF
:104550003970FF213170DFF8B8E029702270294DE1
:10456000294A8EF800109F27012406F8047C5D601C
:104570000470DA6007B0BDE8F08F244A47F83800CD
:1045800013780133137057E543F826000E4D3AE5D2
:104590008B5D032B00F2F08001A252F823F000BFE4
:1045A00039400000394000005D46000057460000D9
:1045B000B816002000E0FF1F9416002030160020DF
:1045C00084160020BC160020DC1500207418002082
:1045D0007C180020AC16002040160020D4150020C6
:1045E00084180020D0160020EC15002094200740ED
:1045F000C0200740880040008820074080200740F6
:1046000098200740F015002044160020AD16002029
:104610008C200740C149C24B80220D2008701A70BF
:10462000A2077FF50EAE05E640F20232914240F05D
:10463000EE80A98801F07F01042968D86A88002AE1
:1046400065D1B648CDF804E089000844017841F00E
:104650000201017021E701238B55EDE400238B5506
:10466000EAE44FF0010388F800300135042D06F12B
:10467000040607F1040708F101087FF4A1AEA94C74
:10468000A94B2278A94D049F059E002129701A701C
:10469000130700F105816278A549DFF8A0820A704E
:1046A00010074FF00001C9F83010C9F8381000F1B8
:1046B000E080A049A2780A700021C9F85010C9F81A
:1046C00058101107DFF8748200F10181E2789A49ED
:1046D0009A4C0A7000211207C9F87010C9F87810B6
:1046E00000F1B08033780193002183F00102C9F812
:1046F0009010C9F89810D0E64FF0000388F8003009
:10470000B3E7A98801F07F01042940F28D80834A34
:104710000F2313708A4A0123137052E540287FF655
:10472000E2AE44F002040EEBC401029E4E60BAB148
:104730009DF80410834A19703346403888F80050B9
:1047400040334EF83420E7E69DF80430337002041D
:10475000029B0D7042F0C80203444EF83C20D8E69C
:104760009DF804101970029B774A88F80050403871
:1047700040334EF83420CFE619F0080F0CBF022367
:1047800003238B5558E4714A0F21117060E6704A7B
:104790005468002CBBD06888B5F804E003E00C3204
:1047A0005468002CB3D013888342F8D153887345E2
:1047B000F5D1000A03280CBF94F800E0B2F808E035
:1047C00003E0644A644C12782270E888704580F0F7
:1047D0003F8162490D784028844645F0020E28BF8B
:1047E0004FF0400C04EB0C0309EBCE0202930123C3
:1047F0005460CCEB00004FEA0C4800220193C8241F
:104800005EE6554C4FF0020E22706270DDE7B1F5A6
:10481000A06F7FF47CAF0123002201933DE642F2BA
:1048200021329142F7D072E76A88002A7FF46FAF95
:104830003A48CDF804E089000844017821F00201EB
:1048400001702AE600F082F9002800F0EF800830BD
:104850003D4AC4F88400C4F8802000F077F90028AD
:1048600000F0DE800830374AC9F88C00C9F888208B
:1048700038E700F06BF9002800F0C0800830324AB9
:10488000C8F84400C8F8402000F060F9002800F0A3
:10489000AF8008302B4AC9F84C00C9F8482008E717
:1048A00000F054F9002800F0CD800830264AC9F8FD
:1048B0002400C9F8202000F049F9002800F0BC804D
:1048C0000830204AC9F82C00C9F82820E3E600F097
:1048D0003DF9002800F09E8008301B4AC8F86400AB
:1048E000C8F8602000F032F9002800F08D80083010
:1048F000144AC9F86C00C9F86820E7E6C86B0838A4
:1049000000F044F904E5486B083800F03FF9F9E499
:10491000C86A083800F03AF9EEE400BFC02007404A
:1049200080200740C8570000C4200740AD16002073
:10493000C8200740CC200740D020074000E0FF1FE0
:1049400094200740C8004000880040004116002025
:10495000CC570000B8160020B0160020AC1600207E
:10496000606A083800F012F9C0E4C86F083800F037
:104970000DF9FDE4486F083800F008F9F2E4C86E5C
:10498000083800F003F9E7E4486E083800F0FEF854
:10499000DCE4C86D083800F0F9F8D1E4486D083857
:1049A00000F0F4F8C6E4C86C083800F0EFF8BBE497
:1049B000486C083800F0EAF8B0E4D1F89C000838F8
:1049C00000F0E4F8ECE4D1F89400083800F0DEF8E8
:1049D000E0E4D1F88C00083800F0D8F8D4E4D1F83D
:1049E0008400083800F0D2F8C8E44FF0020EECE67C
:1049F0002A78C9F8480001322A705AE62A78C8F89D
:104A0000400001322A703FE72A78C9F86800013275
:104A10002A705BE62A78C8F8600001322A7061E7E4
:104A20002A78C9F8880001322A705BE62A78C4F82F
:104A3000800001322A7010E72A78C9F82800013274
:104A40002A7028E62A78C9F8200001322A7032E755
:104A5000BEF1400FF44628BF4FF0400C04EB0C03AE
:104A600002930123CCEB0E004FEA0C480022019385
:104A700018E500BFF8B500F00DFC294B29482A4C79
:104A80002A4F2B4DDFF8BCC0DFF8BCE0294E0022D6
:104A90001A605A609A60DA601A615A619A61DA6142
:104AA0001A625A629A62DA621A635A639A63DA6322
:104AB0001A645A649A64DA641A655A659A65DA6502
:104AC0001A665A669A66DA661A675A679A67DA67E2
:104AD000C3F880200168C3F8842041F4802101607C
:104AE000C3F307212170C3F30740134938701B0E2D
:104AF0002B70FF238CF80030104D8EF800301048DA
:104B00000B700123337084F864207026082410226F
:104B100007F82C3C2E70046081F8F820F8BD00BF27
:104B200000E0FF1F348004409C200740B020074075
:104B3000B4200740942007401020074023E400E001
:104B400004E100E0802007408820074072B60D484D
:104B50000268B2FA82F30B2B10DC4FF00041D9400F
:104B600022EA0102026062B6074803EBC303DB00DE
:104B7000C2180021C15010465160704762B6002033
:104B8000704700BF78EAFF1FF8E1FF1F0D4B0E4A88
:104B9000C31AA2FB03231B090B2B0CD80B4A127858
:104BA00052B972B60A484FF00041026821FA03F385
:104BB0001A43026062B67047064A1278002AF0D0A3
:104BC000FFF74AB9F8E1FF1F398EE338AD16002030
:104BD00078EAFF1FB816002038B50F4D286878B165
:104BE00043880288C118013393420C7A02D2438071
:104BF000204638BDFFF7CAFF002320462B6038BD92
:104C0000064B1B782BB10320FFF7F2F82860002831
:104C1000E6D14FF0FF3038BDCC160020B81600208A
:104C2000044B054A1B6890881BB11A885B88D31A0D
:104C300018447047CC160020741800202DE9F04F5E
:104C4000DFF8F89083B0012289F80020019169B360
:104C5000DFF8EC80364F019E8346D8F80000B0B3F1
:104C6000344D4488C4F14001B14228BF314604EBC1
:104C7000010E00221FFA8EFE2A70761AA0F802E0BA
:104C800000F1080251B1013C224459441BF8014B88
:104C900002F8014F8B45F9D1B0F802E0BEF13F0FA9
:104CA0000BD8254A05211170002ED6D1019800237A
:104CB00089F8003003B0BDE8F08F40220280014641
:104CC0000420FFF72DF90022C8F80020E9E73A7820
:104CD0002AB3184D4AF2F9244FF0010A07E0013CCB
:104CE00016D02A78A2B900F065F83A78BAB1042053
:104CF000FFF79CF80728F2D889F800A0FFF726FFF5
:104D0000C8F800000028ACD10C4B013C1870E8D169
:104D100001234FF0FF302B7003B0BDE8F08F00236C
:104D20004FF0FF3089F8003003B0BDE8F08F00BFCE
:104D3000B8160020C8160020C0160020C11600209A
:104D4000C416002000B583B002AB012103F8010DA9
:104D50001846FFF773FF03B05DF804FB38B50E4B40
:104D60001B7873B90D4C216861B103F0FF054B88C6
:104D70000B800420FFF7D4F8256038BD084B0122D2
:104D80001A7038BDFFF7E2FE0028F7D00146BDE8F3
:104D900038400420FFF7C4B8C1160020C416002014
:104DA000C016002008B5FBF717FDFEF7B3FC00F0B6
:104DB00001F8FAE738B5224C237803B138BD012356
:104DC0002370FFF72DFF70BB00F0E8F840BB00F048
:104DD0007BF910BB00F0E2F9E0B900232370EFF398
:104DE0000583002BEAD1EFF3108172B6154B1868DA
:104DF000E0B1154C2278CAB945691D6001232370C2
:104E0000C5B1AA6101B962B60025457783689847A4
:104E10002570D3E700F07CFBDFE700F077FBD9E7F4
:104E200000F072FBD3E700F075FBCDE70029C5D198
:104E300062B638BD054B1D600029E5D1E3E700BF30
:104E4000D1160020681800206C180020641800207B
:104E500010B43048304A314BE121602404701170A5
:104E60001B782F49082B37D00A2B3BD00C2B3FD077
:104E70002C4B3D20122208601A602B4B1B78ABB1E3
:104E80002A4B01221A602A4B1B78012B14D9042BC0
:104E90001AD9082B35D9102B264B94BF862287228E
:104EA0001A60254B01221A7010BC70471F4A13600C
:104EB0001F4B1B78012BEAD81E4B80221A601E4B19
:104EC00001221A7010BC70471A4B84221A601A4BC8
:104ED00001221A7010BC7047124B01201322086087
:104EE0001A60CAE70F4B3920132208601A60C4E722
:104EF00003F1804303F56C333520122208601A60F9
:104F0000BBE70C4B85221A600B4B01221A7010BCB8
:104F1000704700BF00400740014007407CEAFF1F88
:104F200008B003400CB00340D316002020B003406B
:104F30007DEAFF1F24B00340D216002008B5104CB4
:104F400008E0236859050DD423681A050FD4236897
:104F5000DB0411D423685803F3D5FFF723F8236843
:104F60005905F1D500F02AF823681A05EFD500F0AD
:104F7000BBF82368DB04EDD500F020F9EAE700BFB9
:104F80003480044008B5FFF7D9FF00BF014B102261
:104F90001A80704700200540704700BF054A064B45
:104FA00010781B78C0B2DBB2984238BF4030C01ACC
:104FB000704700BFD8160020D9160020F0B4384B37
:104FC0001A7912F0300F2CD072B6997D01F0FF02E1
:104FD00000293DD062B6334F334938780D78334ECF
:104FE0001C46C0B2EDB2431C402BE17928BF002320
:104FF000AB4202F1FF32C9B21CBFF154184612F0A5
:10500000FF02F0D12A4B1B68C2B23A704BB1A842E2
:1050100036BFC5F14005401B40192728C4BF0122F7
:105020001A701F49CA78D2B2150616D452060DD589
:105030001B4B1B795B0609D51E4B1F491B680022C1
:105040000A7003B11A70164B3C22DA70F0BC70473C
:105050004022D9795A7462B6E3E70B791C06E5D58C
:10506000164B174E1C783378E4B2DBB29C420ED05C
:10507000144D01E0A3420AD00133402B28BF002386
:105080000879E85CC0B2C871087D0728F2D9DBB2A4
:10509000034933700B79180644BF7C23CB70C5E7F6
:1050A00000A00640D8160020D91600201C170020AA
:1050B000D4160020601700205C1700206417002021
:1050C0005D170020DC160020054A064B10781B787F
:1050D000C0B2DBB2984238BF4030C01A704700BF40
:1050E000651700206617002030B4234B1A79940608
:1050F0000FD52249DA790B78214801333F2B00780C
:10510000C8BF00238342D2B203D01E4CD8B2E254AF
:105110000870194AD378DBB2180611D45A060DD597
:10512000154B1B795B0609D5174B18491B680022E4
:105130000A7003B11A70104B2C22DA7030BC704721
:1051400011790906EAD5124912480C780178C9B2DA
:105150008C420DD04A1C272A84BF00210A460E4DDE
:10516000054C98BFD1B2AA5CD2B2E2710170D5E70A
:105170006C21D170D2E700BF00B006406517002057
:105180006617002090170020D4170020D0170020A9
:10519000D8170020D117002068170020054A064BB9
:1051A00010781B78C0B2DBB2984238BF4030C01ACA
:1051B000704700BFE0170020E117002030B42B4BF0
:1051C0001A7994061FD52A48DA79037829490133D8
:1051D0003F2B0978C8BF00238B42D2B203D0264CA4
:1051E000D9B2E2540170254A116861B1244A12789B
:1051F000D2B2934236BFC2F140029B1A9B18272BB2
:10520000C4BF01230B70194AD378DBB2180611D43E
:105210005A060DD5154B1B795B0609D5194B1A4952
:105220001B6800220A7003B11A70104B2C22DA702E
:1052300030BC704711790906EAD5144910480C783A
:105240000178C9B28C420DD04A1C272A84BF0021A4
:105250000A460F4D054C98BFD1B2AA5CD2B2E2719A
:105260000170D5E76C21D170D2E700BF00C00640C5
:10527000E0170020E11700200C180020DC170020A8
:105280004D180020501800204C1800205418002001
:10529000E417002070B584B072B6194B194D1A4846
:1052A000702241260F2480211A702E701A46047035
:1052B000197013781B06FCD5144B186862B6144B92
:1052C000144C984298BF00EB800001A998BF4000A1
:1052D0000A2200F021F901A92046002311F8012B30
:1052E00001333AB10A2B20F8022FF7D1162323708D
:1052F00004B070BD5B00DBB2237004B070BD00BFB2
:105300000000024007000240060002400800024080
:105310007F9698000CEBFF1F10B4EFF3108272B66B
:10532000437F33B9017F012907D003290FD001231F
:10533000437702B962B610BC7047124C2168A1B124
:10534000114943610B68836108605861EFE70F4CB6
:10535000216881B10E4943610B688361086058611F
:105360000C4B4FF080511960E1E7074B41618161BF
:1053700020601860DBE7064B4161816120601860A6
:10538000EEE700BF681800206418002058180020BD
:105390005C18002004ED00E010B4047F4160022C92
:1053A000C26002D010BCFFF7B7BF836810BC1847BB
:1053B00070B5EFF3108272B60C4C206880B10C4EC1
:1053C00000254369236073B19D6102B962B64577D8
:1053D00083689847EFF3108272B620680028F0D1F6
:1053E00002B962B670BD3360EFE700BF5818002005
:1053F0005C180020FFF7DCBF184A30B41468002C9A
:1054000027D0036821688B420ED2CB1A002184601A
:10541000C1602360E06010600223037530BC7047F8
:1054200011688B42144608D3A2685B1A0360002AF5
:10543000F6D18260C460A060EEE7D268C26084608A
:10544000E060C568CB1A0222A8602360027530BCF8
:1054500070478460C4601060DEE700BF6018002001
:10546000F8B5224E34682CB32368002B3AD1204F74
:105470001D4604E03468ECB12368002B32D1A368E8
:1054800003B1DD6020693360036825751B68BB428A
:1054900021D1037F4560022BC46020D0FFF73CFF81
:1054A0006368002BE6D023602046FFF7A5FF346831
:1054B000002CE1D1EFF3108372B60E4A0021106880
:1054C000116003B962B628B18468FFF795FF2046E2
:1054D0000028F9D1F8BD224600219847E0E783680B
:1054E0009847DDE7013B2360E4E700BF6018002038
:1054F0009953000070180020024A136801331360AA
:10550000FFF7AEBFD4150020704700BF704700BF43
:10551000704700BF704700BFF0B44D1E2E460024F8
:1055200000E00134B0FBF2F302FB1300092800F1A4
:1055300030078ABF3730F8B2C0B206F8010F1846FC
:10554000002BEED10A1953704CB1107815F8016F89
:1055500028700133E01A834202F80169F5DB08463E
:10556000F0BC704770B50F4E0F4D761BB61018BFCC
:10557000002405D0013455F8043B9847A642F9D1E0
:105580000A4E0B4D761B00F04DF9B61018BF0024E3
:1055900006D0013455F8043B9847A642F9D170BDB6
:1055A00070BD00BF38580000385800004058000057
:1055B00038580000024B13B1024800F005B870479C
:1055C00000000000D5550000002301461A46184689
:1055D00000F014B838B5074D074C2C1BA41005D0AB
:1055E000013C55F8043D9847002CF9D1BDE83840FE
:1055F00000F026B900000000000000002DE9F0478F
:10560000254C2568D5F84841064688469246994675
:10561000C4B360681F2817DC431C76B104EB800517
:105620000122C5F888A0D4F8881182401143022EC7
:10563000C4F88811C5F808911ED00230636044F8A0
:1056400020800020BDE8F087144B03B34FF4C870EE
:10565000AFF300800446D0B1D5F84831002780E888
:105660008800C5F8484138460123C4F88871C4F859
:105670008C71002EE1D0D1E7D4F88C110A43C4F824
:105680008C21DAE705F5A674C5F84841C1E74FF06B
:10569000FF30BDE8F08700BF205800000000000088
:1056A00031414C53000000005465656E737933300E
:1056B0005F393600342E31004008FE4340A00440DC
:1056C0004408FE4344A004400018FE4300C00440C8
:1056D0003000FE43309004403400FE4334900440D8
:1056E0001C18FE431CC004401018FE4310C00440A8
:1056F0000818FE4308C004400C18FE430CC00440C8
:105700000C10FE430CB004401010FE4310B00440D7
:105710001810FE4318B004401C10FE431CB0044097
:105720001410FE4314B004400418FE4304C00440A7
:105730000010FE4300B004400008FE4300A00440F7
:105740000408FE4304A004400C08FE430CA00440DF
:105750000808FE4308A004401418FE4314C0044087
:105760001818FE4318C004400410FE4304B004405F
:105770000810FE4308B004401400FE431490044097
:105780004C08FE434CA004400420FE4304D00440D7
:105790002410FE4324B004402010FE4320B00440F7
:1057A0002810FE4328B004402C10FE432CB00440C7
:1057B0000020FE4300D004404808FE4348A00440B7
:1057C0001000FE4310900440001519150001000060
:1057D00080EAFF1F1200000000020000ACEAFF1F79
:1057E000430000000003000008EBFF1F0000000062
:1057F0000103090494EAFF1F0000000002030904EA
:10580000F0EAFF1F00000000030309040CEBFF1F78
:105810000000000000000000000000000000000088
:1058200028EBFF1FF8B500BFF8BC08BC9E467047C8
:105830005FF800F059E5FF1FB55500003504000082
:04584000F8B500BFF8
:105844002DE9F04F8DB00746049090F8410097F889
:105854004560B7F84A20FB6B7D6BFC6A07914FF0FB
:10586400000C60F3070C66F30F2CB5FBF4F462F341
:105874001F4C0694D7F85490D7F858804BB1012B9D
:1058840000F04681022B00F09781032B00F04D813C
:1058940000230393002800F02281049BDFF8FCE23C
:1058A4009F6909EB87039845009340F21A81B14937
:1058B400DFF8ECA20A68B04BB04E22F002020A6094
:1058C400AF4A08240120CAF800401070069A002547
:1058D400920005920295284601954C4604214FF00A
:1058E400FF32AB461F680C2FFCD8376807F07F07E0
:1058F400974200F0B680326802F07F02002940F03F
:105904009A8044F8040BA04508D89E48007810F00B
:10591400FB0F40F0EA8001214C4602914EF0010752
:1059240010464FF0000B032138475FFA8CF71740FD
:10593400CCF3072A5745D5D15FEA1C4540F0CC800B
:10594400039D002D00F0C080039D0CAF013D07EBCB
:105954008507039557F810CCC4E7CCF30F47013FF4
:10596400BFB267F31F4C002FBCD1039D002D00F084
:10597400AB80039DDFF82CE2013D0CAF07EB8507FC
:10598400039557F810CCADE7009FBC42AAD1794BE0
:105994001B68DB0304D57C4A136843F080631360FF
:1059A400744A049813687949079D43F0020313600D
:1059B40008230B600346416B82690198D861009B00
:1059C4006F4803EB8202C9EB0202D31C00228B4214
:1059D40002702846AB6024BF5B1A8360009B2A4692
:1059E4009C429DF80850057008D0C9EB04039B1035
:1059F40044BF069A9B18079A9B0053600DB0BDE8FC
:105A0400F08F009D4D452F465BD2059DDFF898E150
:105A14002F44009766E7009FBC42FFF463AF5C4DE0
:105A2400DFF880E120272F605CE75A4DDFF87CE146
:105A340020272F6056E7013902EB00203ED144F8BD
:105A4400040BA04534D84F49097811F0FB0555D112
:105A540001210291AB4628464C4604214EF0010731
:105A64003847BBF1000F14D10002813001394FF0E7
:105A7400010B0029F2D00129F0D12568019F05F01E
:105A8400803ABAF1803F18BF2F4601974EF00107C4
:105A94003847013000F07F057F2DE8D10029CED0B2
:105AA400384D2D7815F0FB0540F09F80AB46E2E7BA
:105AB40000204EF001078346042138474FF0000BC5
:105AC400D9E7DFF8E4E00DE7049DDFF8E4E0AF692F
:105AD400A4EB8705009505E7DFF8D8E002E7DFF8D7
