:1000000000180020C1000000F9210000BD210000FF
:10001000BD210000BD210000BD210000BD21000068
:10002000BD210000BD210000BD210000F92100001C
:10003000F9210000BD210000F9210000AD210000E0
:10004000F9210000F9210000F9210000F921000048
:10005000F9210000F9210000F9210000F921000038
:10006000F9210000F9210000F9210000F921000028
:10007000D12600006D2B000009300000F92100009E
:10008000F9210000F9210000F9210000F921000008
:10009000F9210000F9210000F9210000F9210000F8
:1000A00085150000F9210000F9210000F921000068
:1000B000F9210000F9210000F9210000F9210000D8
:1000C000F8B502F09DF8494A494B1A60494A4A4B33
:1000D0001A604A4A4A4B1A604A4B08221978114260
:1000E00002D019780A431A70474B2A22474C4848D5
:1000F00048491A7000231A19824203D2CD5804339A
:100100001560F8E7444B45490022181D043B8B421B
:1001100002D21A60031CF8E7414A424900235858AA
:10012000944698500433C02BF9D100230326FF25B1
:1001300080249A083C4992005218191C3140C90089
:1001400010682F1C8F40B843071C201C8840011CDE
:10015000394301331160202BEBD1344B61461960D8
:10016000334B8A221A70334B24225A70A0221A7001
:10017000022299791142FCD0102299791142FCD1C6
:100180000C2198792B4A08400828FAD103211171D3
:1001900040215171202299791142FCD04022997955
:1001A0001142FCD02449254A1160224A20211170B5
:1001B0000C22997911400C29FBD1214A214B1A605C
:1001C000214A224B1A60224B00221A60214B07223F
:1001D0001A60214A214B1A6062B601F091F803F0CF
:1001E00023FA02F013F801F027FFFEE7300004F0D5
:1001F00034800440823F0000388004400100000F3A
:100200003C80044002D0074000E0074060FDFF1F33
:1002100038020020483E00003C0200206C150020FF
:1002200000F9FF1F0000000000E400E008ED00E01E
:100230000050064000400640000001104480044089
:10024000C0000505048004407FBB000014E000E00E
:1002500018E000E010E000E00000202020ED00E0C9
:10026000FFFFFFFFFFFFFFFFFFFFFFFFFFFFFFFF9E
:10027000FFFFFFFFFFFFFFFFFFFFFFFFFFFFFFFF8E
:10028000FFFFFFFFFFFFFFFFFFFFFFFFFFFFFFFF7E
:10029000FFFFFFFFFFFFFFFFFFFFFFFFFFFFFFFF6E
:1002A000FFFFFFFFFFFFFFFFFFFFFFFFFFFFFFFF5E
:1002B000FFFFFFFFFFFFFFFFFFFFFFFFFFFFFFFF4E
:1002C000FFFFFFFFFFFFFFFFFFFFFFFFFFFFFFFF3E
:1002D000FFFFFFFFFFFFFFFFFFFFFFFFFFFFFFFF2E
:1002E000FFFFFFFFFFFFFFFFFFFFFFFFFFFFFFFF1E
:1002F000FFFFFFFFFFFFFFFFFFFFFFFFFFFFFFFF0E
:10030000FFFFFFFFFFFFFFFFFFFFFFFFFFFFFFFFFD
:10031000FFFFFFFFFFFFFFFFFFFFFFFFFFFFFFFFED
:10032000FFFFFFFFFFFFFFFFFFFFFFFFFFFFFFFFDD
:10033000FFFFFFFFFFFFFFFFFFFFFFFFFFFFFFFFCD
:10034000FFFFFFFFFFFFFFFFFFFFFFFFFFFFFFFFBD
:10035000FFFFFFFFFFFFFFFFFFFFFFFFFFFFFFFFAD
:10036000FFFFFFFFFFFFFFFFFFFFFFFFFFFFFFFF9D
:10037000FFFFFFFFFFFFFFFFFFFFFFFFFFFFFFFF8D
:10038000FFFFFFFFFFFFFFFFFFFFFFFFFFFFFFFF7D
:10039000FFFFFFFFFFFFFFFFFFFFFFFFFFFFFFFF6D
:1003A000FFFFFFFFFFFFFFFFFFFFFFFFFFFFFFFF5D
:1003B000FFFFFFFFFFFFFFFFFFFFFFFFFFFFFFFF4D
:1003C000FFFFFFFFFFFFFFFFFFFFFFFFFFFFFFFF3D
:1003D000FFFFFFFFFFFFFFFFFFFFFFFFFFFFFFFF2D
:1003E000FFFFFFFFFFFFFFFFFFFFFFFFFFFFFFFF1D
:1003F000FFFFFFFFFFFFFFFFFFFFFFFFFFFFFFFF0D
:10040000FFFFFFFFFFFFFFFFFFFFFFFFFEFFFFFFFD
:1004100010B5064C2378002B07D1054B002B02D0DA
:10042000044800E000BF0123237010BD3802002003
:1004300000000000483E000008B5084B002B03D028
:100440000748084900E000BF07480368002B03D0B5
:10045000064B002B00D0984708BDC04600000000A6
:10046000483E00003C02002038020020000000004E
:1004700010B5722800D99BE08300524AD3589F469A
:100480000022514B1A609CE0504803685B68504959
:100490000422984795E020224E4B1A6001224A4BD5
:1004A0001A608EE0494C23681B68201C0121984784
:1004B00023685B68201C48490A22984723681B6808
:1004C000201C0021984723681B68201C02219847A4
:1004D00023685B68201C41490322984723681B68F6
:1004E000201C0021984723681B68201C2121984765
:1004F00023681B68201C0021984723681B68201C68
:100500000021984723681B68201C10219847236806
:100510001B68201C0021984723681B68201C23218E
:10052000984723681B68201C0021984723681B6894
:10053000201C0F21984723681B68201C42219847E4
:1005400023681B68201C4021984723681B68201CD7
:100550004021984723681B68201C0821984723687E
:100560001B68201C4121984723681B68201C02211E
:10057000984723681B68201C0021984721E08023AE
:100580001B01174A1360174A13600022164B1A60AA
:100590000722164B1A60164A164B1A601022164B89
:1005A0001A6020220B4B1A600122074B1A6008E0E8
:1005B000124B187004225A7100229A710122104BBA
:1005C0001A7010BD1C38000068020020981300202B
:1005D0003C3B0000840000F8443B0000503B00001E
:1005E0009012002054020020600200206C020020C3
:1005F000C0C62D0058020020700200209412002076
:100600006502002008B56E4B1B78803BDAB24E2A9B
:1006100000D9D4E093006B4AD3589F46684B5A7870
:100620003423CA54CBE0664B5A783523CA54C6E00B
:10063000634B5A783623CA54C1E0614B5A7837234A
:10064000CA54BCE05E4B5A783823CA5401235B423B
:100650000B63B4E05A4B5A783923CA54AFE0584B75
:100660005A783A23CA54AAE0554B5A783B23CA54C5
:10067000A5E0534B9A781202587882188A871B7922
:100680001A0700D49BE00B6B013300D097E00023E6
:100690000B6394E04A4B9A78120258788218CA8702
:1006A0001B791A0700D48AE00B6B013300D086E077
:1006B00001230B6383E0424B987800025A781018AC
:1006C000402288521B791A0779D50B6B013376D1FA
:1006D00002230B6373E03A4B987800025A781018A3
:1006E000422288521B791A0769D50B6B013366D1F8
:1006F00003230B6363E0324B9A78120259780A4362
:100700000132920030490A6019790902DB781943F5
:10071000890006312D4B1960D0239B029A4204D1E7
:10072000E822D2022A4B1A6007E0274B1B68284AAE
:10073000136080221202934207D980221202224BB8
:100740001A600122234B1A701AE08022D2019342D0
:1007500003D901221F4B1A7012E0802292019342AA
:1007600003D902221B4B1A700AE0802252019342E5
:1007700003D90422174B1A7002E00822154B1A7095
:10078000114B1B68114A12689A4218D90F4A13601C
:1007900015E00B4BD97809029A78114309025B786E
:1007A00019430D4B196001310C4802F0CFFE011CBA
:1007B0000B4B18600B4802F0C9FE0B4B186008BDCC
:1007C00094120020E83900009012002060020020FE
:1007D00054020020640200206C02002000366E01EA
:1007E00058020020006CDC027002002010B52024AA
:1007F000054B1C60962000F069FD044B1C606420D2
:1008000000F064FD10BDC046840000F8880000F8C8
:1008100008B50220002100F003FD0E20002100F0A9
:10082000FFFC0720002100F0FBFC0820002100F065
:10083000F7FC0620002100F0F3FC1420002100F05A
:10084000EFFC1520002100F0EBFC0520002100F05A
:10085000E7FC0D20012100F0E3FCFFF7C7FF0022B9
:10086000014B1A6008BDC0466802002008B5104B55
:100870001B78002B02D0012B03D012E0FFF7F8FD0C
:1008800014E00C4B9A790132D2B29A7198545B7988
:1008900093420BD10748FFF7B5FE0022044B1A70B4
:1008A00004E0FFF7A3FF0022014B1A7008BDC04609
:1008B000650200209412002010B52024054B1C6016
:1008C0000A2000F003FD044B1C600F2000F0FEFC2A
:1008D00010BDC046840000F8880000F80A4B196873
:1008E000802212040A431A60084B1A6802218A43C4
:1008F0001A60074B00221A60064A1060196801222C
:100900000A431A607047C0463C80044000700340B0
:100910000871034000710340064B1A6802218A43A4
:100920001A6080225204044B1A600122034B1A7091
:100930007047C04610E000E080E100E05C0200206B
:100940000B4B1B68DA0305D50A4B19688022D204C9
:100950000A431A60064B196802220A431A60802271
:100960005204054B1A600022044B1A707047C046AF
:1009700010E000E004ED00E000E100E05C02002097
:10098000F0B557464E464546E0B4051C8A46426CD3
:100990009046031C343304D00123C3602022304B23
:1009A0001A60FFF7B9FF3423EC5C002C16D02D4BF6
:1009B0001F683823E85C2B492B4EB14604260B6890
:1009C0001A1C2240824203D13A02D218944608E00F
:1009D0004F463A78B24335D11F1CF0E700229446C7
:1009E0000023AA6C47461F4900206646002C03D10D
:1009F0000E680B683602F6180B68C0463602F61809
:100A00000B68C0463602F0180E68386004370B6871
:100A10003602F6180B68C0463602F6180B68360226
:100A2000F018386004370E689742E2DBAA6434237A
:100A3000EC54FFF785FF012357463B6020220B4B08
:100A40001A6007E0FFF77CFF2022084B1A600022A3
:100A5000074B1A601CBC90469946A246F0BDC046A2
:100A6000840000F8D0F00F4080200740880000F894
:100A700068020020F0B55F4656464D464446F0B445
:100A80008DB080460B91056A0995806A291C02F099
:100A90005DFD81464646766C04964546AD6C0395F1
:100AA0004646B66901964046C769099B013BDBB2E1
:100AB0009B461C1C01343423C35C06933823C35C5F
:100AC0009A46858F0595069E002E0AD000698500FE
:100AD000049E751902950025039E0298864204D84B
:100AE00000E00425039E043E0296FFF715FF4846EA
:100AF00080000A905E460896049900200790002224
:100B0000744B0126B146B44602E0009882460225A5
:100B10001E68002E14D11E68002E11D11E68002EF2
:100B20000ED11E68002E0BD11E68002E08D11E6843
:100B3000002E05D11E68002E02D11E68002EE7D0BF
:100B400066461E60101CB840634A1668019A16403B
:100B50008219013C002C2DD104C1039E8E420CD879
:100B60005E48027804218A4306D020225C4B1A603A
:100B700000225C4B1A608CE004991A68002A14D198
:100B80001A68002A11D11A68002A0ED11A68002AA0
:100B90000BD11A68002A08D11A68002A05D11A68F0
:100BA000002A02D11A68002AE7D04A461A604A4E43
:100BB00032685C46012D21D1069E164000965645AE
:100BC000A6D1059E002EA0D107984646366BB042AE
:100BD00009DB4046006985004D1B0295009DAA4631
:100BE0000894032594E7079E01360796464434206F
:100BF000805D069038363678B24689E7052D87D86D
:100C0000AE0039488659B746059E013E0596002E2E
:100C100000D07DE7079845462D6BA84207DB464686
:100C20003669B5004D1B02950894032570E70798B7
:100C300001300790051C45442E1C30363679069647
:100C400038352D78AA46051C1C356D004544AD8805
:100C500005954D465CE7029EB14200D058E718E08A
:100C6000029EB14200D253E7204D202028604D461D
:100C70004EE70525029E0498864200D348E70A9D68
:100C800076190296052543E72026154806600425B7
:100C90003EE7FFF755FE414609698A00029DAA1802
:100CA000049E921B9210FF23099D2B4053435B44EB
:100CB000089E9B1B0B9D2B604646B26A934201D354
:100CC0009B1A2B600DB03CBC90469946A246AB46A1
:100CD000F0BDC0460C710340D0F00F4080200740AB
:100CE000880000F868020020243B0000840000F81F
:100CF00084B0F8B506900791089209930E9C199854
:100D0000211C02F023FC179E8700651E1998211CE8
:100D100002F060FC681A0D9B5843BB59C340181C75
:100D20000C9B1840C0B2F8BC08BC04B01847C046C1
:100D300084B0F0B55F4656464D464446F0B497B091
:100D4000209021912292239333998B462C9A90469E
:100D5000002A61DB259914912FAA11922DAE002350
:100D60009A4601235B42139307235B42994643460D
:100D70001C335B0020A9C918159142E0BC422ED853
:100D800042462C920F94684624A93C2202F070FC43
:100D900020982199229A239BFFF7AAFF3278337972
:100DA000104083421BD12B1CD0450FD1073304D0F8
:100DB00015998B88E318139300E01394149A022A70
:100DC00017D1129B013B59460B6012E0EA1D0BD074
:100DD00011990A88AB189946002B07DC09E0013508
:100DE0000134012DCAD104E0A94602E007235B4289
:100DF000994601229244119B023311930136C24558
:100E00000DDC49460029F4DC5A4612681292141C83
:100E10004C444D460A4FB1E701235B4213935946B8
:100E20000968139A914201D35B461A6017B03CBC23
:100E300090469946A246AB46F0BC08BC04B01847A1
:100E4000FFFFFFEF84B0F0B55F4656464D4644467F
:100E5000F0B495B01E901F91209221939946249A48
:100E60001192279E289B9A46299A904634231EAABF
:100E7000D35C002B0CD031AB0F93684622A93C22E7
:100E800002F0F6FB1E981F99209A219BFFF750FF56
:100E9000319B4B4503D34D4A934202D802E04B4667
:100EA00000E04B464A469A1A1292171C4744013FEB
:100EB00000229346574503DB5346FF1A012293460F
:100EC000B0450EDA4546424C23681B68201C55216C
:100ED000984723681B68201CAA2198470235B54211
:100EE000F2DB5B46002B34D05546013D002F33DB4F
:100EF0005524119AD2B29346D2431392331C5646CC
:100F0000AA46454698464B462193119A2492434659
:100F10002793289629950F97684622A93C2202F02C
:100F2000A7FB1E981F99209A219BFFF7E1FE5A46C6
:100F30001040139B2340C018C0B201F01BF8E443DB
:100F4000E4B2013FDFD24346A8465546B2461E1CD6
:100F500003E03D1C552400E05524129BAB422BDCE2
:100F6000119AD7B2FB439B46331C46463A1C574660
:100F7000924698464A462192119B249342462792D4
:100F8000289729960F95684622A93C2202F070FB0B
:100F90001E981F99209A219BFFF7AAFE53461840DE
:100FA0005B462340C018C0B200F0E4FFE443E4B263
:100FB000013D129AAA42DDDD15B03CBC904699462F
:100FC000A246AB46F0BC08BC04B018470000FFFFC7
:100FD00098130020F0B593B0041C554B1B68082BE8
:100FE00019D80822534B1A70534B1B6880225201A8
:100FF000934210D9514A1268934204D1802252017F
:101000004E4B1A6003E0802212014C4B1A60802282
:101010005201494B1A60236B002B01DA0023236332
:10102000444B1B78022B09D0042B0ED0012B13D17B
:10103000202323620123A361E36113E010232362D1
:101040000323A3610223E3610CE0082323620F233F
:10105000A3610423E36105E004232362FF23A3616A
:101060000823E361364B1B682360314B1B686360C8
:10107000344B1B68A3602F4B1B786361256A2E4B92
:101080001E68A8008019A0622F4B1B686362E6628D
:101090002E4F6764291C02F059FA80003F18A7649C
:1010A0003423E35C002B04D0244B1B68F61AE66063
:1010B00001E00023E360E068291C02F047FA0130F8
:1010C0002061002311931E4B1868FFF707FC184B93
:1010D0001B68062B07D802221D4B1A70201C11A971
:1010E000FFF74EFC0CE0082B03D80222184B1A70B5
:1010F00006E00022164B1A70201C11A9FFF7BAFC5B
:10110000144B1B68002B0DD0119B0F93211C103129
:1011100068463C2202F0ACFA20686168A268E36885
:10112000FFF790FE00220B4B1A6013B0F0BDC046D3
:101130007002002064020020901200206002002053
:101140006C02002058020020540200207802002087
:10115000740200206802002070B594B001AB002238
:101160000492059208210691FF200790089104211E
:10117000099134215A540D92114E124D124C00F027
:101180006BFE002807DDFFF797FB00F017FEC0B2EB
:1011900001A9FFF76BFB3368002B02D001A8FFF712
:1011A00019FF2A682368D21AFA23DB009A42E6D98B
:1011B000044B1A68044B1A60FFF718FBDFE7C046C0
:1011C00068020020A01200209C12002030B51A28CE
:1011D00022D8124B42001418A400E458257D12189E
:1011E00092009B181B7A1D4205D0002901D0237163
:1011F00012E0237210E0430018188000074B181803
:101200004368002904D0196803220A431A6003E0E6
:101210001A6802218A431A6030BDC046543B000060
:1012200070B51A282BD843001B189B00144AD318FA
:101230005D6801290ED141000B189B009B581C7D55
:10124000081880001218127A22431A75A2235B0034
:101250002B6014E00A4A440023189B009B581E7D13
:10126000201880001218127A96431E75002903D1A7
:1012700080235B002B6002E00423FF332B6070BDF2
:10128000543B000072B60C4B1A680C4B1B680C499F
:10129000096862B6480104D5322191428941494228
:1012A0005B18FA20800043430648821A06484243EE
:1012B000920D98187047C04618E000E0A012002078
:1012C00004ED00E07FBB00005555010070B5051C22
:1012D000FFF7D8FF041C002D0ED0084EFFF7D2FFF9
:1012E000001BB04205D9013D002D05D0FA239B001B
:1012F000E41800F0D5FEF1E770BDC046E70300003A
:1013000010B51C4B8022D2051A60802212061A608A
:101310000020194B18601949194B19602823194AE4
:101320001360194A1360194A1360194A1360194A65
:101330001360194A13600922184C2260184C20606F
:10134000184C2160184C2360184C2360184C226004
:10135000184C20601848016018490B6018490B6050
:10136000184B1A6000F0C2FEFA20FFF7AFFF00F042
:1013700085FC10BD00E100E004800340FFBF0000D9
:10138000088003400C800340148003401C8003400D
:10139000248003402C8003403480034000800340BD
:1013A00004900340089003400C90034014900340C5
:1013B0000090034004A0034008A003400CA0034099
:1013C00014A0034000A0034030B50D4B1A7802234F
:1013D0001343DC000B4D2C1960600B480078882407
:1013E000002800D0C824DB0009040C43054D5C51E3
:1013F0000123584004490870534001490B7030BD27
:101400000C13002000F8FF1F8513002010B5431EA9
:10141000032B11D872B69A0008495058002809D0F9
:10142000111C064A44688C50054A5B009C5A01888E
:10143000611A995262B600E0002010BDFC12002033
:101440005C150020431E0020032B0CD872B69B00B5
:10145000054A9B58002B04D001305B68002BFBD160
:1014600000E0002062B6704750130020F8B572B655
:1014700001231B4C082101261A19013A1278114246
:1014800023D09A005D01174FED59002D0BD1D200EA
:10149000B918083048601449D151144B1A78013AF0
:1014A0001A7062B61AE03243D5000E4FED59002D86
:1014B0000BD1D200B918083048600D49D1510B4BFF
:1014C0001A78013A1A7062B608E00133052BD3D1BD
:1014D00062B60022054B1A7000F048FCF8BDC04609
:1014E000B83C000000F8FF1F880040007A1300207D
:1014F000C800400010B5431E032B39D880000222DB
:101500001043C0001B4A101872B61B4AD25C012A55
:1015100006D0002A1BD0022A1BD0032A03D005E0E4
:101520000830022416E00830042413E09A0013481F
:101530001258002A02D19A00115003E09A00104874
:10154000125851609B000E4A995062B610E0032475
:1015500000E00524084AD4540B1C08334360882358
:10156000020700D5C8230A8812041343036062B639
:1015700010BDC04600F8FF1FB81200205013002015
:1015800060130020F8B55F4656464D464446F0B419
:10159000C34DC44FA037C44B1C78E4B260071ED5BE
:1015A0002B78002B18D0C14B1B78DBB2002B06D058
:1015B000013BDBB2BD4A1370002B00D100BEBC4B17
:1015C0001B78DBB2002B07D0013BDBB2B84A1370AB
:1015D000002B01D100F00CFD0422B34B1A7021073F
:1015E00000D4C7E2B34B1B78DBB21A0900D02BE260
:1015F0009B08DB00AB4CE4186268206883061B0F75
:10160000092B00D1F4E104D8013B012B00D8D5E12E
:1016100016E20D2B00D013E2A74913680B60526845
:101620004A60A64A22600022A5490A609D490A61D3
:101630008A610121A34A11709BB2A34A93421DD82B
:10164000D022D200934231D281225200934200D163
:10165000F9E081225200934206D8802B00D1D4E0D9
:10166000822B00D1D7E073E1984A934200D100E188
:10167000A022D200934200D16EE169E1944A9342E4
:1016800000D197E109D888221201934200D1B6E037
:101690009022120193420FD05AE18E4A934200D118
:1016A00051E18D4A934200D156E151E18B4B5C6888
:1016B000002C00D02EE142E17F4B9A78784B1A70D3
:1016C000784C203480262168314203D06068083885
:1016D00000F04CFB0834BC42F5D1814A9146814B65
:1016E000984600268048834682465A46B0580028CD
:1016F00006D0446800F03AFB002C01D0201CF8E72B
:1017000000235046335079497350794BF0580028E4
:1017100006D0446800F02AFB002C01D0201CF8E71A
:101720000023734AB350734AB3504A46138042466B
:101730001378032B0DD0D9B2032902D8022B05D080
:1017400009E0042B02D0052B03D004E00023137022
:1017500001E00123137004360223994401208044E0
:10176000102EC2D10022644B1A700124634E6449CA
:1017700088464246A318013B1B783370043618078D
:101780002DD500F0D3FA002807D0464B62019918F6
:10179000083048605B49D15007E063010021414AAD
:1017A0009950554B1A7801321A7000F0BFFA002890
:1017B0000AD0A20001231A433A4BD20099180830EC
:1017C00048603E49D1500AE0A20001231343DB00E8
:1017D000002234495A50484A137801331370A1004B
:1017E000304B02200843C0000022C25003200143B6
:1017F000C900CA500134444B9E42BAD1F6E1284B8D
:101800001B78424C23700126ABE0404C0023237030
:1018100063700226A5E0284B9B88042B03D90F2276
:101820003B4B1A70C6E0394A0021117051709B0081
:1018300037481B181B78990700D490E0141C01232B
:10184000137002268DE01C4B9B887F221340042BD3
:1018500003DC194A5288002A03D00F222C4B1A703D
:10186000A8E09B002A4A9B181A7802218A431A7022
:10187000BCE1114B9B887F221340042B03DC0E4AF2
:101880005288002A03D00F22214B1A7092E09B004D
:101890001F481B18197802220A431A70A6E1C04695
:1018A0008413002000F8FF1F802007400D13002044
:1018B000861300209020074070130020C8004000CD
:1018C000A4120020851300208106000002030000FE
:1018D000212000002122000021230000BC3C000048
:1018E0005C150020B8120020FC120020A812002075
:1018F00050130020601300207A130020C4200740FA
:10190000B83C000088004000D42007407C13002031
:10191000C0200740BA4B59889888BA4B1A888A4227
:1019200009D15A88824206D1090A032901D12678B1
:1019300017E01E8915E00C335C68002CEED10F22F5
:10194000B14B1A7036E0AE4B9A78B04B1A704DE13D
:101950000F22AD4B1A702DE00026002401E0022674
:10196000AB4CA74BDB889E4200D91E1CB046402ED4
:1019700001D940218846201C4146FFF725FDA1469C
:10198000C1444346F61A03D13F2B00D933E111E09D
:10199000341E402C00D940244846211CFFF714FD7A
:1019A00048460319361B01D13F2C03D9994A1360CD
:1019B000994B1E800122994B1A7041E0904B198877
:1019C000974B994211D100239648D15CC154013301
:1019D000072BFAD1934B1B68862B02D10F22924B17
:1019E0001A7000200021FFF7EFFC904B236027E0E6
:1019F000884B19688846002916D0874B1E88341EEC
:101A0000402C00D940244046211CFFF7DDFC361B4A
:101A1000B6B2814B1E80002E02D10023402C01D192
:101A2000404603197B4A1360754B1A88A023DB00DC
:101A30009A4205D1724B00225A709A787C4B1A70E8
:101A40000122764B1A7091E09C08E40079490C1948
:101A50006168081C0838013AD6B21A074BD500F065
:101A600085F9B300744A9B58002B29D0B200724903
:101A7000586850501A1C08326260704A925D012A00
:101A80000AD0002A04D0022A0AD0032A0CD00EE081
:101A900003216A4A91550AE00221684A915506E0FD
:101AA0000521664A915502E00421644A9155882235
:101AB000210700D5C8221B881B041A43226055E069
:101AC0005E4B9B5D022B05D0DAB2022A4ED3032B6C
:101AD00004D007E00022594B9A5547E00122574BAA
:101AE0009A5543E008231C40634263410322D21A03
:101AF000524B9A553AE063880A1C083A1380002B2F
:101B00002ED000220B1C083B5A805A60B3004C4A6E
:101B10009B58002B02D1B300985003E0B300494A10
:101B20009B585860B200474BD050474B760008395D
:101B3000F05A0A888218F25200F0F8F8002808D00B
:101B400008306060220701D5384B00E03F4B23602E
:101B50000CE0002323603E4B1A7801321A7005E036
:101B6000230701D5314B00E0384B23600822394B65
:101B70001A7010E5E00721D5284902230B700022D6
:101B8000354B1A702B4B31481860344C5C609860B0
:101B90003348D8601A619A610D201B4B1870FF23DF
:101BA000304803702B480370214802702E4A13708E
:101BB0009F222E4B1A7001230B7059E063B2002B49
:101BC00005DA0D22104B1A708022224B1A70A107E1
:101BD00006D5244B1A78D2B21A7002221D4B1A7005
:101BE000E20645D510221B4B1A7041E0002000216F
:101BF000FFF7EAFBDEE648460021FFF7E5FBD9E602
:101C000070130020BC3C0000C0200740941300204B
:101C10007C130020A4120020781300209420074099
:101C200021200000641500200D130020C800400092
:101C30009820074000F8FF1F50130020B812002022
:101C4000FC120020A81200205C1500208800400033
:101C50007A130020802007400C130020BC120020C3
:101C600010130020882007408C2007408420074064
:101C70003CBC90469946A246AB46F8BD08B501F07B
:101C80002BFA1C4B181C191C883100221A605A6050
:101C900008338B42FAD1184B19688022D2020A43CA
:101CA0001A60020AD2B2154B1A70020CD2B2144B4F
:101CB0001A70000E134B1870FF23134A1370134A47
:101CC0001370134A1370012212490A70002012493E
:101CD000087012490A70124A1168994370230B4325
:101CE0001360802252040F4B1A6010220E4B1A70A0
:101CF00008BDC04600F8FF1F348004409C20074008
:101D0000B0200740B42007408020074088200740CB
:101D100010200740942007400021074084200740FE
:101D200018E400E000E100E00821074010B572B6B9
:101D30000C4B1C68201C01F059FC0B2802D962B620
:101D400000200EE080231B06C3409C43054B1C6013
:101D500062B6C3001818C000034B181800230360B4
:101D6000436010BD60FDFF1F00FAFF1F10B5041C8B
:101D70000E48201A482101F0E9FB0B2815D80C4A1F
:101D80001278002A07D00B4A1278002A03D0201CB0
:101D9000FFF76CFB09E072B6074A802109060B1CAD
:101DA000C34011680B43136062B610BD00FAFF1FF9
:101DB0007A1300208413002060FDFF1F10B5144B20
:101DC0001B68002B0AD1134B1B78002B19D0032062
:101DD000FFF71CFB0E4B1860002815D00C4B186841
:101DE00043885A1CC3181C7A03889A4206D3FFF70B
:101DF000BDFF0022064B1A60201C07E04280201C19
:101E000004E00120404201E00120404210BDC046F4
:101E1000901300208413002008B50D4B1B68002B85
:101E200010D10C4B1B78002B09D00320FFF7EEFAE2
:101E3000074B1860002805D10120404207E001202F
:101E4000404204E0024B1B685A889B18187A08BD70
:101E50009013002084130020054B9888054B1B68C5
:101E6000002B03D01A885B88D31AC0187047C0466D
:101E70005C15002090130020F0B5474680B4061C86
:101E80000F1C0122354B1A70002960D0344D2A688E
:101E9000002A31D1334A1378002B05D100222F4B71
:101EA0001A700120404256E02F4C2D4B98460420DA
:101EB000FFF7C8FA07280BD80123284A1370FFF749
:101EC00035FF43461860002816D10023234A1370BB
:101ED000013C002C03D0254B1B78002B05D00122A0
:101EE000224B1A700120404235E000F0D9F81D4B1A
:101EF0001B78002BDBD1D1E700221C4B1A70184B4A
:101F000019684B884022D21A3C1E944200D9141CF6
:101F1000181C083008181B194B803F1B002C06D0DA
:101F20000023F25CC2540133A342FAD136194B8824
:101F30003F2B07D940230B800420FFF7DBFA002258
:101F4000074B1A6005220A4B1A70002F9FD10022FE
:101F5000024B1A70002004BC9046F0BD871300208D
:101F60008813002084130020097500008C130020C2
:101F70008613002000B583B06B46D8710733181C58
:101F80000121FFF779FF03B000BDC04610B5144B27
:101F90001B78002B22D00122124B1A70124B1968A9
:101FA00000290AD00024114B1C704B880B800420A0
:101FB000FFF7A0FA0C4B1C600DE0FFF7B7FE011E07
:101FC00006D00022094B1A700420FFF793FA02E0B2
:101FD0000122064B1A700022024B1A7010BDC04637
:101FE000841300208713002088130020861300200C
:101FF00008B50E4B1B78002B17D10D4B1968002923
:1020000008D04B880B800420FFF774FA0022084B9D
:102010001A600AE0FFF78AFE011E03D00420FFF7D2
:1020200069FA02E00122034B1A7008BD87130020F1
:10203000881300208613002008B5FEF7E9FBFFF7A0
:102040008BF800F02DF8FAE708B5FFF705FF08BD9B
:1020500008B5FFF7B3FE08BD08B5FFF7DDFE08BD04
:1020600008B5FFF793FF08BD08B5081CFFF782FF0E
:1020700008BDC04608B5081C111CFFF7FDFE08BDD1
:102080007047C046044B00221A71FA2189009960FA
:102090001A73024A1A60704798130020A03C00008F
:1020A00008B5114B1B78002B1DD101220E4B1A7065
:1020B000FFF7D2FE002801D0FFF7E2FF00F084FA1C
:1020C000002801D001F0D8F800F0FAFC002801D077
:1020D00001F068F900F042FF002801D001F0F8F9A2
:1020E0000022014B1A7008BDA8130020274B1B7853
:1020F000082B06D10022264B1A601322254B1A60AA
:1021000017E00A2B06D13822214B1A601322214BEB
:102110001A600EE00C2B06D134221D4B1A601222DD
:102120001C4B1A6005E03C22194B1A601222194B15
:102130001A60194B1B78002B03D00022174B1A6032
:1021400002E00122154B1A60154B1B78012B03D8B6
:102150008022144B1A6014E0042B03D88422114B04
:102160001A600EE0082B03D885220E4B1A6008E097
:10217000102B03D886220B4B1A6002E08722094BF2
:102180001A600122084B1A707047C04664FDFF1F99
:1021900008B003400CB00340AA13002020B0034055
:1021A00065FDFF1F24B00340A9130020024B1A68ED
:1021B00001321A607047C046A012002070B50D4C65
:1021C0008026F6028025ED002368334201D0FFF718
:1021D000D9F923682B4201D000F07AFA23681A0556
:1021E00001D500F0C3FC2368DA04EDD500F00CFF44
:1021F000EAE7C0463480044008B5FFF7DFFFC04679
:102200000022014B1A607047008104407047C046AD
:10221000EFF31383002B23D1EFF310830020002B67
:1022200020D1EFF30582002A0FD00F2A0FD9111CFD
:102230001039890889000C4BC91803231A40D200B1
:102240000B68D340FF22134001E080235B00EFF3D3
:102250001182181C002A05D09A4203D2101C01E0FA
:10226000012040427047C04600E400E0164B196868
:102270008022D2000A431A600023144A1370144AC1
:102280001370144A1370144A1370144A13701449CB
:10229000144A1160D1218900134A1160C104C90E8A
:1022A000124A1170C0B2507093702C23D370104B2F
:1022B000FF221968914340220A431A60802252018A
:1022C0000C4B1A607047C04634800440391400201B
:1022D000B1130020401400203A140020B013002055
:1022E0001303000040A0044044A0044000A00640A6
:1022F0000CE400E000E100E0144B9A7813239A43C9
:10230000032303401343420701D5102213430F4A0E
:1023100093700F230340042B04D1131C91794022A6
:102320000A439A71094B5A7910239A43034200D009
:102330001A43064B5A719B7910229343820601D5AA
:1023400010221343014A93717047C04600A0064013
:1023500010B5134B1B685A0521D5124B1B78002B67
:1023600005D0104CFFF79CFE2378002BFAD1802279
:1023700052010D4B1A6000230C4AD3700422FF3225
:102380000B490A600B490A600B4A13700B4A137021
:102390000B4B1B68002B02D00A4A12781A7110BD31
:1023A00034800440B013002080E100E000A006402B
:1023B00040A0044044A0044039140020B113002080
:1023C000AC130020F413002010B5041C0C4A137841
:1023D000002BFCD1201C0121FEF722FF201C002134
:1023E000FEF7F4FE074B620011198900C858064930
:1023F0000860121992009B181A7A044B1A7010BDCB
:10240000B0130020543B00003C140020381400207E
:1024100038B5114B1A68002351051AD51A2814D85B
:102420000E4D0F4B420011188900C95829600D4C00
:10243000121892009B181B7A23700121FEF7F0FE00
:102440002B6822781A72012303E00022034B1A60E2
:102450000023181C38BDC04634800440AC13002053
:10246000543B0000F41300200F4B1A680023510561
:1024700018D5122803D10D4A0D4B1A600CE0142810
:1024800003D10A4A0B4B1A6006E00B4B5A7B012121
:102490008A435A73002305E0074B597B01220A4304
:1024A0005A730123181C7047348004400203000053
:1024B0000CA0044014C0044000A0064070B5061CE7
:1024C000224B1B685A0540D5214B1B68002B02D0BC
:1024D000204A12781A71204B1C78013400233F22C5
:1024E000A2425B415B421C401C4D1EE0FFF790FE88
:1024F000402816DC1A4B1B795BB2002B15DA174A01
:102500001378013300223F21994252415242134035
:10251000144AD15CC9B2124AD171DBB20F4A1370AE
:1025200003E0FF2801DDFFF7BBFD2B78DBB29C4207
:10253000DCD0F6B20B4B1E5501220B4B1A70E4B2E5
:10254000054B1C70AC22064BDA7070BD3480044021
:102550003C14002038140020401400203A140020BD
:1025600000A00640B4130020B013002038B50029A5
:1025700008D0051C0C1C2878FFF7A0FF0135013C92
:10258000002CF8D138BDC04610B5054B1B78002B88
:1025900005D0034CFFF784FD2378002BFAD110BD42
:1025A000B0130020064B1B78DBB2064A1078C0B28D
:1025B000834202D33F30C01A01E00138C01A70478D
:1025C000401400203A140020064B1878C0B2064B85
:1025D0001B78DBB2984201D3C01A01E04030C01A28
:1025E0007047C04639140020B113002010B51A4BB3
:1025F0001A78D2B2194B1B78DBB29A4219D0013348
:102600003F2B1BD81649CC5CE4B2D9B213480170F9
:102610001449096800290FD09A4201D3D31A01E066
:102620004032D31A201C1A2B14DC0F4B1B780B7270
:1026300010E0012040420DE0201C0BE0084B1C780C
:10264000E4B20021054B1970064B1968002399422A
:10265000E4D1201C10BDC04639140020B113002065
:10266000F8130020AC130020F41300200A4B1A7852
:10267000D2B20A4B1B78DBB29A420AD00133002255
:102680003F219942524152421340054AD05CC0B2A8
:1026900001E001204042704739140020B1130020AE
:1026A000F8130020064B1A78D2B2064B1A70064B6C
:1026B0001B68002B02D0054A12781A727047C04678
:1026C000B113002039140020AC130020F4130020B3
:1026D000294B1B799A0615D5274BDB79D8B2274BA6
:1026E0001B78013300223F2199425241524213404C
:1026F000234A1278D2B29A4204D0224AD054DBB292
:102700001E4A13701C4BDB78DBB25AB2002A1FDA68
:10271000194A127952B2002A1ADA1B4A1178C9B240
:102720001A4A1278D2B2914203D16C21124AD17066
:102730000EE0013200213F209042494149420A40C7
:102740001349885CC0B20C49C871D2B20F490A70F3
:102750005A0610D5084B1B795A060CD500220D4B92
:102760001A700D4B1B68002B02D00C4A12781A729B
:102770002C22014BDA70704700A00640391400206B
:10278000B1130020F8130020401400203A14002058
:10279000B4130020B01300203C1400203814002093
:1027A000164B1968802212010A431A600023144A4A
:1027B0001370144A1370144A1370144A1370144A95
:1027C00013701449144A1160D1218900134A116011
:1027D000C104C90E124A1170C0B2507093702C23FC
:1027E000D370104B104A19680A408021C9010A436E
:1027F0001A60802292010D4B1A60704734800440A9
:10280000AD14002042140020B4140020AE140020A7
:1028100041140020130300000CB0044010B0044029
:1028200000B006400CE400E0FF00FFFF00E100E024
:10283000144B9A7813239A4303230340134342070C
:1028400001D5102213430F4A93700F230340042B2A
:1028500004D1131C917940220A439A71094B5A7989
:1028600010239A43034200D01A43064B5A719B79B6
:1028700010229343820601D510221343014A93711B
:102880007047C04600B0064010B5104B1B681A05D3
:102890001AD50F4B1B78002B05D00D4CFFF700FC11
:1028A0002378002BFAD1802292010A4B1A60002370
:1028B000094AD3700422FF3208490A6008490A60B5
:1028C000084A1370084A137010BDC0463480044093
:1028D0004114002080E100E000B006400CB004404C
:1028E00010B00440AD1400204214002010B5041CA8
:1028F0000C4A1378002BFCD1201C0121FEF790FC20
:10290000201C0021FEF762FC074B620011198900B0
:10291000C85806490860121992009B181A7A044B8D
:102920001A7010BD41140020543B0000B014002068
:10293000AC1400200C4B1A680023110512D5162880
:102940000AD1C0229200094B1A60094B597B082218
:102950000A435A73012305E0054B5A7B08218A4339
:102960005A730023181C70473480044004B004409C
:1029700000B006400C4B1A680023110512D5172829
:102980000AD1C0229200094B1A60094B597B0122DF
:102990000A435A73012305E0054B5A7B01218A4300
:1029A0005A730023181C70473480044008B0044058
:1029B00000B0064070B5061C224B1B681A0540D5B6
:1029C000214B1B68002B02D0204A12781A71204B31
:1029D0001C78013400232722A2425B415B421C4049
:1029E0001C4D1EE0FFF714FC402816DC1A4B1B7927
:1029F0005BB2002B15DA174A137801330022272126
:102A00009942524152421340144AD15CC9B2124A0F
:102A1000D171DBB20F4A137003E0FF2801DDFFF72D
:102A20003FFB2B78DBB29C42DCD0F6B20B4B1E5541
:102A300001220B4B1A70E4B2054B1C70AC22064B02
:102A4000DA7070BD34800440B0140020AC14002053
:102A5000B4140020AE14002000B00640441400203E
:102A60004114002038B5002908D0051C0C1C28781A
:102A7000FFF7A0FF0135013C002CF8D138BDC0465E
:102A800010B5054B1B78002B05D0034CFFF708FB56
:102A90002378002BFAD110BD41140020064B1B787F
:102AA000DBB2064A1078C0B2834202D32730C01A84
:102AB00001E00138C01A7047B4140020AE140020A1
:102AC000064B1878C0B2064B1B78DBB2984201D394
:102AD000C01A01E04030C01A7047C046AD14002053
:102AE000421400200B4B1A78D2B20B4B1B78DBB28E
:102AF0009A420CD0013300223F2199425241524266
:102B00001340064AD05CDBB2034A137001E0012097
:102B100040427047AD140020421400206C14002085
:102B20000A4B1A78D2B20A4B1B78DBB29A420AD00F
:102B3000013300223F219942524152421340054A3B
:102B4000D05CC0B201E0012040427047AD140020CB
:102B5000421400206C140020024B1A78D2B2024BAF
:102B60001A70704742140020AD140020294B1B79C5
:102B70009A0615D5274BDB79D8B2274B1B78013342
:102B800000223F219942524152421340234A127877
:102B9000D2B29A4204D0224AD054DBB21E4A1370F9
:102BA0001C4BDB78DBB25AB2002A1FDA194A1279C1
:102BB00052B2002A1ADA1B4A1178C9B21A4A12789C
:102BC000D2B2914203D16C21124AD1700EE001328F
:102BD000002127209042494149420A401349885C1C
:102BE000C0B20C49C871D2B20F490A705A0610D54A
:102BF000084B1B795A060CD500220D4B1A700D4B51
:102C00001B68002B02D00C4A12781A722C22014B3E
:102C1000DA70704700B00640AD1400204214002066
:102C20006C140020B4140020AE14002044140020C2
:102C300041140020B0140020AC140020164B196879
:102C4000802252010A431A600023144A1370144A66
:102C50001370144A1370144A1370144A13701449F1
:102C6000144A1160D1218900134A1160C104C90EB0
:102C7000124A1170C0B2507093702C23D370104B55
:102C8000104A19680A408021C9030A431A60802249
:102C9000D2010D4B1A60704734800440211500208A
:102CA000B61400202815002022150020B51400209D
:102CB0001303000008C004400CC0044000C00640DC
:102CC0000CE400E0FFFF00FF00E100E0144B9A7805
:102CD00013239A43032303401343420701D51022D1
:102CE00013430F4A93700F230340042B04D1131C8A
:102CF000917940220A439A71094B5A7910239A43D9
:102D0000034200D01A43064B5A719B791022934319
:102D1000820601D510221343014A93717047C046C1
:102D200000C0064010B5104B1B68DA041AD50F4BD3
:102D30001B78002B05D00D4CFFF7B2F92378002B40
:102D4000FAD18022D2010A4B1A600023094AD370BB
:102D50000422FF3208490A6008490A60084A1370D1
:102D6000084A137010BDC04634800440B5140020DA
:102D700080E100E000C0064008C004400CC00440F0
:102D800021150020B614002010B5041C0C4A13783D
:102D9000002BFCD1201C0121FEF742FA201C00214F
:102DA000FEF714FA074B620011198900C85806494A
:102DB0000860121992009B181A7A044B1A7010BD01
:102DC000B5140020543B00002415002020150020DD
:102DD0000C4B1A680023D10412D502280AD1C02254
:102DE0009200094B1A60094B597B08220A435A7317
:102DF000012305E0054B5A7B08218A435A730023BF
:102E0000181C70473480044000C0044000C00640D5
:102E10000C4B1A680023D10412D50E280AD1C02207
:102E20009200094B1A60094B597B01220A435A73DD
:102E3000012305E0054B5A7B01218A435A73002385
:102E4000181C70473480044004C0044000C0064091
:102E500070B5061C224B1B68DA0440D5214B1B6859
:102E6000002B02D0204A12781A71204B1C780134B2
:102E700000232722A2425B415B421C401C4D1EE006
:102E8000FFF7C6F9402816DC1A4B1B795BB2002B02
:102E900015DA174A1378013300222721994252414B
:102EA00052421340144AD15CC9B2124AD171DBB20A
:102EB0000F4A137003E0FF2801DDFFF7F1F82B78CC
:102EC000DBB29C42DCD0F6B20B4B1E5501220B4B01
:102ED0001A70E4B2054B1C70AC22064BDA7070BD60
:102EE00034800440241500202015002028150020DF
:102EF0002215002000C00640B8140020B5140020A0
:102F000038B5002908D0051C0C1C2878FFF7A0FF55
:102F10000135013C002CF8D138BDC04610B5054B39
:102F20001B78002B05D0034CFFF7BAF82378002B51
:102F3000FAD110BDB5140020064B1B78DBB2064A4F
:102F40001078C0B2834202D32730C01A01E00138A2
:102F5000C01A70472815002022150020064B18784B
:102F6000C0B2064B1B78DBB2984201D3C01A01E015
:102F70004030C01A7047C04621150020B61400200A
:102F80000B4B1A78D2B20B4B1B78DBB29A420CD0A7
:102F9000013300223F219942524152421340064AD6
:102FA000D05CDBB2034A137001E00120404270475D
:102FB00021150020B6140020E01400200A4B1A78D6
:102FC000D2B20A4B1B78DBB29A420AD001330022FC
:102FD0003F219942524152421340054AD05CC0B24F
:102FE00001E001204042704721150020B614002066
:102FF000E0140020024B1A78D2B2024B1A707047CC
:10300000B614002021150020294B1B799A0615D5EE
:10301000274BDB79D8B2274B1B78013300223F21A5
:103020009942524152421340234A1278D2B29A42F4
:1030300004D0224AD054DBB21E4A13701C4BDB78FA
:10304000DBB25AB2002A1FDA194A127952B2002AA8
:103050001ADA1B4A1178C9B21A4A1278D2B29142CE
:1030600003D16C21124AD1700EE0013200212720D9
:103070009042494149420A401349885CC0B20C4918
:10308000C871D2B20F490A705A0610D5084B1B7985
:103090005A060CD500220D4B1A700D4B1B68002BE5
:1030A00002D00C4A12781A722C22014BDA70704747
:1030B00000C0064021150020B6140020E0140020B6
:1030C0002815002022150020B8140020B514002077
:1030D000241500202015002010B584B072B61D4BB9
:1030E00070221A7041211C4A11700F211B4A117065
:1030F00080221A701A1C13785BB2002BFBDA184B73
:10310000186862B6174B984202D88300181840001E
:1031100001AC211C0A2200F0EBF92378002B11D11D
:103120000AE001AA9A5C002A07D0590041184A8097
:1031300001330A2BF5D100E0002301335B000A4A7A
:10314000137004E0084A53800123101CE9E704B01F
:1031500010BDC046000002400700024006000240C9
:10316000080002407F969800F4FDFF1F08B5036831
:10317000C9B21B68984708BD08B50368C9B21B6887
:10318000984708BD08B50368C9B21B68984708BDD1
:1031900008B50368C9B21B68984708BD08B5480858
:1031A000034BC01800F0D2F9FFF760F808BDC04625
:1031B000C0C62D0010B5141C4808054BC01800F0FF
:1031C000C5F9FFF753F8201CFFF796F810BDC0466D
:1031D000C0C62D0008B5FFF7BBF808BD08B5081C30
:1031E000FFF7F2F808BDC04608B5081CFFF710F954
:1031F000431E9841C0B208BD08B5081CFFF734F95A
:10320000431E9841C0B208BD08B5FFF7DDF908BDFF
:1032100008B5FFF72BFA08BD08B5FFF7E7F908BDB9
:1032200008B5FFF7B1F908BD08B5FFF73BFA08BDCF
:1032300008B5FFF7B7F908BD08B5081CFFF73EF958
:10324000012008BD08B5081CFFF738F9012008BDAA
:1032500010B5141C081C111CFFF788F9201C10BDA8
:1032600038B50D1C081C00F045FA041C281C211C54
:10327000FFF77CF9201C38BD7047C046044B002284
:103280001A71FA21890099601A73024A1A6070470C
:103290002C150020183D000008B50368C9B21B6852
:1032A000984708BD08B50368C9B21B68984708BDB0
:1032B00008B50368C9B21B68984708BD08B503681C
:1032C000C9B21B68984708BD08B54808034BC01829
:1032D00000F03CF9FFF764FA08BDC04660E3160051
:1032E00010B5141C4808054BC01800F02FF9FFF763
:1032F00057FA201CFFF79CFA10BDC046C0C62D002F
:1033000008B5FFF7C1FA08BD08B5081CFFF7EEFACB
:1033100008BDC04608B5081CFFF70CFB431E9841CA
:10332000C0B208BD08B5081CFFF724FB431E984136
:10333000C0B208BD08B5FFF7C3FB08BD08B5FFF76D
:10334000EFFB08BD08B5FFF7CDFB08BD08B5FFF7DB
:1033500097FB08BD08B5FFF7FFFB08BD08B5FFF7F1
:103360009DFB08BD08B5081CFFF724FB012008BD24
:1033700008B5081CFFF71EFB012008BD10B5141C82
:10338000081C111CFFF76EFB201C10BD38B50D1C6E
:10339000081C00F0AFF9041C281C211CFFF762FB7D
:1033A000201C38BD7047C046044B00221A71FA2118
:1033B000890099601A73024A1A6070473C15002010
:1033C000703D000008B50368C9B21B68984708BD86
:1033D00008B50368C9B21B68984708BD08B50368FB
:1033E000C9B21B68984708BD08B50368C9B21B6815
:1033F000984708BD08B54808034BC01800F0A6F868
:10340000FFF71CFC08BDC04660E3160010B5141C95
:103410004808054BC01800F099F8FFF70FFC201C76
:10342000FFF754FC10BDC04660E3160008B5FFF777
:1034300079FC08BD08B5081CFFF7A6FC08BDC0460E
:1034400008B5081CFFF7C4FC431E9841C0B208BD74
:1034500008B5081CFFF7DCFC431E9841C0B208BD4C
:1034600008B5FFF77BFD08BD08B5FFF7A7FD08BD50
:1034700008B5FFF785FD08BD08B5FFF74FFD08BD8E
:1034800008B5FFF7B7FD08BD08B5FFF755FD08BD46
:1034900008B5081CFFF7DCFC012008BD08B5081CB6
:1034A000FFF7D6FC012008BD10B5141C081C111C28
:1034B000FFF726FD201C10BD38B50D1C081C00F0C0
:1034C00019F9041C281C211CFFF71AFD201C38BD0B
:1034D0007047C046044B00221A71FA218900996096
:1034E0001A73024A1A6070474C150020C83D00004C
:1034F000F0B5474680B4061C0D1C90460024301CD5
:10350000414600F067F8271C092902D83031C9B2BA
:1035100001E03731C9B2E955301C414600F016F8D8
:10352000061E01D00134EAE7EF1900237B70002C5E
:1035300007DDEA5C295DE9542A550133013CA342C9
:10354000F7DB281C04BC9046F0BDC046002934D0EF
:103550000123002210B488422CD301242407A14265
:1035600004D2814202D209011B01F8E7E400A14222
:1035700004D2814202D249005B00F8E7884201D3BD
:10358000401A1A434C08A04202D3001B5C08224395
:103590008C08A04202D3001B9C082243CC08A04206
:1035A00002D3001BDC082243002803D01B0901D0F2
:1035B0000909E3E7101C10BC7047002801D0002067
:1035C000C04307B4024802A14018029003BDC046A0
:1035D000190000000029F0D003B5FFF7B9FF0EBCB9
:1035E0004243891A1847C0467047C0461C21012330
:1035F0001B04984201D3000C10391B0A984201D3D6
:10360000000A08391B09984201D30009043902A2B3
:10361000105C40187047C04604030202010101011A
:10362000000000000000000070B50D4E0D4D00249C
:10363000AD1BAD1005D0A300F35801349847A54247
:10364000F9D100F0EDFB084E084D0024AD1BAD1084
:1036500005D0A300F35801349847A542F9D170BDB5
:103660002C3E00002C3E00002C3E0000443E00009A
:10367000F0B50F2A35D9031C0B439C0735D1161C16
:10368000103E36093501451910350C1C031C2768FE
:103690001F6067685F60A7689F60E7681034DF603D
:1036A0001033AB42F3D1731C1B01C518C9180F238B
:1036B0001340032B1BD91C1FA4080134A4000023B2
:1036C000CE58EE500433A342FAD1ED18C9180323A3
:1036D0001A4005D00023CC5CEC5401339342FAD15C
:1036E000F0BD051C002AF5D1FAE7051CF2E71A1C0B
:1036F000F8E7C0460023C25C0133002AFBD1581E04
:103700007047C04608B5034B002B02D0024800F0BA
:1037100005F808BD000000002D37000008B5011CA9
:1037200000220020002300F019F808BD38B5094B2D
:10373000094DED1AAD1009D0013DAC00E41800E0D0
:10374000013D23689847043C002DF9D100F07AFB35
:1037500038BDC0460000000000000000F0B54F4634
:103760004646C0B498462B4BA4251B686D005C5997
:1037700083B0061C0F1C91460193002C44D0656851
:103780001F2D1ADD244B002B02D1012040421CE0EA
:10379000C820400000E000BF041EF6D000254560B0
:1037A000A42301985B00C05801992060CC50C42329
:1037B0005B00E550C6235B00E550002E0AD16B1C70
:1037C0000235AD00636000202F5103B00CBC904661
:1037D0009946F0BDAB00E318882248469850C420B3
:1037E0004000221810680121A9400843106084227B
:1037F000520040469850022EE1D1C6225200A31832
:10380000186801431960DAE71C1C4D34FF345C5121
:10381000B5E7C0461C3E0000000000008004000028
:103820009604000088040000B0050000A404000015
:10383000B0050000B0050000B0050000B0050000B4
:10384000B0050000C2050000B0050000B005000092
:10385000C2050000B0050000B0050000B005000082
:10386000C2050000B0050000C2050000B005000060
:10387000B0050000B0050000B0050000B005000074
:10388000B0050000B0050000B0050000B005000064
:10389000B0050000B0050000B0050000B005000054
:1038A000B0050000B0050000B0050000B005000044
:1038B000B0050000B0050000B0050000B005000034
:1038C000B0050000B0050000B0050000B005000024
:1038D000B0050000B0050000B0050000B005000014
:1038E000C2050000A404000088040000B005000028
:1038F000C2050000B0050000B0050000B0050000E2
:10390000B0050000B0050000B0050000B0050000E3
:10391000B0050000B0050000B0050000B0050000D3
:10392000B0050000B0050000B0050000B0050000C3
:10393000B0050000B0050000B0050000B0050000B3
:10394000B0050000B0050000B0050000B0050000A3
:10395000B0050000B0050000B0050000B005000093
:10396000B0050000B0050000B0050000B005000083
:10397000B0050000B0050000B0050000B005000073
:10398000B0050000B0050000B0050000B005000063
:10399000B0050000B0050000B0050000B005000053
:1039A000B0050000B0050000B0050000B005000043
:1039B000B0050000B0050000B0050000B005000033
:1039C000B0050000B0050000B0050000B005000023
:1039D000B0050000B0050000B0050000B005000013
:1039E000B00500007E05000092070000F60600000A
:1039F000BE070000BE070000BE070000BE070000B3
:103A0000BE070000BE070000BE070000BE070000A2
:103A1000BE070000BE070000BE070000BE07000092
:103A2000BE070000BE070000BE070000BE07000082
:103A3000BE070000BE070000BE070000BE07000072
:103A4000BE070000BE070000BE070000BE07000062
:103A5000BE070000BE070000BE070000BE07000052
:103A6000BE070000BE070000BE070000BE07000042
:103A7000BE070000BE070000BE070000BE07000032
:103A8000BE070000BE070000BE070000BE07000022
:103A9000BE070000BE070000BE070000BE07000012
:103AA000BE070000BE070000BE070000BE07000002
:103AB000BE070000BE070000BE070000BE070000F2
:103AC000BE070000BE070000BE070000BE070000E2
:103AD000BE070000BE070000BE070000BE070000D2
:103AE000BE070000BE0700001C06000044060000E0
:103AF00072060000BE070000260600005406000003
:103B000094060000BE070000300600005E060000BC
:103B1000B6060000BE0700003A0600006806000076
:103B2000D6060000600C0000100B0000080C00001E
:103B3000880C0000720C0000560C000031414C5300
:103B4000000000005465656E73794C433438000002
:103B5000332E3000420000F840A004400100000075
:103B6000420000F844A0044002000000C00000F839
:103B700000C0044001000000000000F80490044070
:103B800002000000000000F808900440040000005B
:103B9000C00000F81CC0044080000000C00000F815
:103BA00010C0044010000000C00000F808C004402D
:103BB00004000000C00000F80CC004400800000031
:103BC000800000F80CB0044008000000800000F8FD
:103BD00010B0044010000000800000F818B004404D
:103BE00040000000800000F81CB00440800000008D
:103BF000800000F814B0044020000000C00000F86D
:103C000004C0044002000000800000F800B004403E
:103C100001000000400000F800A004400100000086
:103C2000400000F804A0044002000000400000F83A
:103C30000CA0044008000000400000F808A0044068
:103C400004000000C00000F814C004402000000080
:103C5000C00000F818C0044040000000800000F8D8
:103C600004B0044002000000800000F808B00440E6
:103C700004000000020100F850D0044010000000D1
:103C8000020100F854D0044020000000030100F8B5
:103C900078D0044040000000000000000000000058
:103CA000692000007520000049200000512000001C
:103CB00059200000612000000015191500010000C6
:103CC00068FDFF1F120000000002000094FDFF1FAE
:103CD0004300000000030000F0FDFF1F0000000093
:103CE000010309047CFDFF1F00000000020309041A
:103CF000D8FDFF1F0000000003030904F4FDFF1FAF
:103D000000000000000000000000000000000000B3
:103D100000000000000000003932000051320000B5
:103D20000932000019320000113200002132000077
:103D30009D310000B5310000D5310000DD310000BB
:103D4000E9310000F9310000293200003132000071
:103D50006D310000793100008531000091310000A3
:103D60006132000045320000000000000000000049
:103D7000653300007D33000035330000453300001B
:103D80003D3300004D330000C9320000E132000035
:103D90000133000009330000153300002533000013
:103DA000553300005D33000099320000A532000059
:103DB000B1320000BD3200008D33000071330000CD
:103DC000000000000000000091340000A934000051
:103DD000613400007134000069340000793400005F
:103DE000F53300000D3400002D34000035340000A0
:103DF0004134000051340000813400008934000057
:103E0000C5330000D1330000DD330000E93300008A
:103E1000B93400009D3400004300000010FEFF1F75
:103E2000F8B5C046F8BC08BC9E4670470537000090
:103E300039040000852000007D320000A933000015
:043E4000D534000075
:043E4400F8B5C046C7
:103E4800FFFFFFFF0A040000120100020200004009
:103E5800C016830400010102030100001803540086
:103E6800650065006E0073007900640075006900E4
:103E78006E006F0009024300020100C0320904000D
:103E880000010202010005240010010524010101BE
:103E980004240206052406000107058203100040D9
:103EA80009040100020A000000070503024000009F
:103EB8000705840240000000160355005300420025
:103EC8002000530065007200690061006C0000006A
:103ED800040309040C0300000000000000000000B7
:103EE80000000000000000000000000000000000CA
:103EF80000000000FC00002064010020CC0100202C
:103F080000000000000000000000000000000000A9
:103F18000000000000000000000000000000000099
:103F280000000000183E0000000000000000000033
:103F38000000000000000000000000000000000079
:103F48000000000000000000000000000000000069
:103F58000000000000000000000000000000000059
:103F68000000000000000000000000000000000049
:103F78000000000000000000000000000000000039
:103F88000000000000000000000000000000000029
:103F98000000000000000000010000000000000018
:103FA8000E33CDAB34126DE6ECDE05000B000000DD
:103FB80000000000000000000000000000000000F9
:103FC80000000000000000000000000000000000E9
:103FD80000000000000000000000000000000000D9
:103FE80000000000000000000000000000000000C9
:00000001FF
