:1000000000180020C1000000F9280000A928000005
:10001000A9280000A9280000A9280000A92800009C
:10002000A9280000A9280000A9280000F92800003C
:10003000F9280000A9280000692D0000752E000095
:10004000F9280000F9280000F9280000F92800002C
:10005000F9280000F9280000F9280000F92800001C
:10006000F9280000F9280000F9280000F92800000C
:10007000312900001D2A0000092B0000F92800008A
:10008000F9280000F9280000F9280000F9280000EC
:10009000F9280000F9280000F9280000F9280000DC
:1000A000F51B0000F9280000F9280000F9280000DD
:1000B000F9280000F9280000F9280000F9280000BC
:1000C000F0B5474680B402F01BFC0821474A484B74
:1000D0001A60484A484B1A60484A494B1A60494BD3
:1000E0001A780A4202D01A780A431A702A22464B1A
:1000F000464C1A700023464846491A19824203D2D8
:10010000CD5804331560F8E70022434B43498B4236
:1001100001D204C3FBE70023414A424958589046A4
:1001200098500433C02BF9D100220327FF268025E5
:100130003D4930008C4611003940C9008840930881
:100140009B0063441C680132844320002C008C40D7
:10015000210001431960202AEAD14246334B1A603C
:100160008A22334B1A70334B663A5A707C321A70BB
:100170009E3A99791142FCD0102299791142FCD112
:100180000C209A792B490240082AFAD1053A0A71C3
:100190003D324A71203A99791142FCD04022997936
:1001A0001142FCD02449254A11602021214A1170B6
:1001B00014399A790A400C2AFBD1214A214B1A6042
:1001C000214A224B1A600022214B1A60214B073230
:1001D0001A60214A214B1A6062B601F0F5FB02F069
:1001E00033FF02F093FB02F0A1FAFEE7300004F0C7
:1001F00034800440823F0000388004400100000F3A
:100200003C80044002D0074000E0074020FDFF1F73
:10021000F80100202C370000F80100200015002014
:1002200000F9FF1F0000000000E400E008ED00E01E
:100230000050064000400640000001104480044089
:10024000C0000505048004407FBB000014E000E00E
:1002500018E000E010E000E00000202020ED00E0C9
:10026000FFFFFFFFFFFFFFFFFFFFFFFFFFFFFFFF9E
:10027000FFFFFFFFFFFFFFFFFFFFFFFFFFFFFFFF8E
:10028000FFFFFFFFFFFFFFFFFFFFFFFFFFFFFFFF7E
:10029000FFFFFFFFFFFFFFFFFFFFFFFFFFFFFFFF6E
:1002A000FFFFFFFFFFFFFFFFFFFFFFFFFFFFFFFF5E
:1002B000FFFFFFFFFFFFFFFFFFFFFFFFFFFFFFFF4E
:1002C000FFFFFFFFFFFFFFFFFFFFFFFFFFFFFFFF3E
:1002D000FFFFFFFFFFFFFFFFFFFFFFFFFFFFFFFF2E
:1002E000FFFFFFFFFFFFFFFFFFFFFFFFFFFFFFFF1E
:1002F000FFFFFFFFFFFFFFFFFFFFFFFFFFFFFFFF0E
:10030000FFFFFFFFFFFFFFFFFFFFFFFFFFFFFFFFFD
:10031000FFFFFFFFFFFFFFFFFFFFFFFFFFFFFFFFED
:10032000FFFFFFFFFFFFFFFFFFFFFFFFFFFFFFFFDD
:10033000FFFFFFFFFFFFFFFFFFFFFFFFFFFFFFFFCD
:10034000FFFFFFFFFFFFFFFFFFFFFFFFFFFFFFFFBD
:10035000FFFFFFFFFFFFFFFFFFFFFFFFFFFFFFFFAD
:10036000FFFFFFFFFFFFFFFFFFFFFFFFFFFFFFFF9D
:10037000FFFFFFFFFFFFFFFFFFFFFFFFFFFFFFFF8D
:10038000FFFFFFFFFFFFFFFFFFFFFFFFFFFFFFFF7D
:10039000FFFFFFFFFFFFFFFFFFFFFFFFFFFFFFFF6D
:1003A000FFFFFFFFFFFFFFFFFFFFFFFFFFFFFFFF5D
:1003B000FFFFFFFFFFFFFFFFFFFFFFFFFFFFFFFF4D
:1003C000FFFFFFFFFFFFFFFFFFFFFFFFFFFFFFFF3D
:1003D000FFFFFFFFFFFFFFFFFFFFFFFFFFFFFFFF2D
:1003E000FFFFFFFFFFFFFFFFFFFFFFFFFFFFFFFF1D
:1003F000FFFFFFFFFFFFFFFFFFFFFFFFFFFFFFFF0D
:10040000FFFFFFFFFFFFFFFFFFFFFFFFDEF9FFFF23
:1004100010B5064C2378002B07D1054B002B02D0DA
:10042000044800E000BF0123237010BDF801002044
:10043000000000002C370000084B10B5002B03D043
:100440000749084800E000BF07480368002B00D1B7
:1004500010BD064B002BFBD09847F9E700000000C9
:10046000FC0100202C370000F801002000000000F3
:10047000064B82B01B68064A0193019B96331360BA
:100480002022044B1A6002B07047C0465012002070
:1004900040120020840000F8064B82B01B68064A18
:1004A0000193019B0A3313602022044B1A6002B0AF
:1004B0007047C0465012002040120020840000F80F
:1004C00010B5722803D8364A8300D3589F460422B9
:1004D000344B5A71002218709A71334B01321A70E2
:1004E00010BD80231B014B630B6300230B6107339B
:1004F0004B602E4BCB6010238B6020222C4B1A605C
:100500002C4B1F3A1A60EBE700222A4B1A60E7E7F0
:100510000421294802F04AF8E2E7012002F0D6F867
:100520000A21264802F042F8002002F0CFF802200B
:1005300002F0CCF80321224802F038F8002002F043
:10054000C5F8212002F0C2F8002002F0BFF8002018
:1005500002F0BCF8102002F0B9F8002002F0B6F862
:10056000232002F0B3F8002002F0B0F80F2002F0D0
:10057000ADF8422002F0AAF8402002F0A7F840208F
:1005800002F0A4F8082002F0A1F8412002F09EF841
:10059000022002F09BF8002002F098F8A0E7C04685
:1005A0003C320000441200203C120020C0C62D0046
:1005B000840000F81C0200205C3500006435000057
:1005C0007035000010B55B4A0C001378803BDBB23D
:1005D0004E2B11D858499B00CB589F4693785178A1
:1005E0001B02CB184A21635213791B0704D5E36B16
:1005F000013301D10023E36310BD937851781B02CE
:10060000CB185021635213791B07F5D5E36B0133E7
:10061000F2D10323E363EFE75188537809021943CA
:1006200061604648013102F065FC0100E060444829
:1006300002F060FCA060DFE7937851781B020B4367
:10064000D1781279013312020A43013292002261F9
:100650006261D0229B00636392029342CCD1E82373
:10066000DB026363C8E79378012213405B32A35433
:10067000C2E71379D1781B020B4391781B025278A1
:100680000B431B02134301339B0023616361B3E7F8
:100690001379D1781B020B4391781B0252780B43DC
:1006A0001B02134301339B006363A5E74123527888
:1006B000E254A1E745235278E254463BE3639BE7CB
:1006C00042235278E25497E746235278E25493E764
:1006D000937851781B02CB184C21635213791B0776
:1006E00000D489E7E36B013300D085E70123E3639E
:1006F00082E743235278E2547EE747235278E2545C
:100700007AE7937851781B02CB184E216352137904
:100710001B0700D470E7E36B013300D06CE70223C2
:10072000E36369E744235278E25465E7482352784B
:10073000E25461E7441200200834000000366E01E4
:10074000006CDC0210B52024054B96201C6001F0E3
:10075000DFF8044B64201C6001F0DAF810BDC046DD
:10076000840000F8880000F810B50021022001F094
:10077000C9F800210E2001F0C5F80021072001F082
:10078000C1F80021082001F0BDF80021062001F089
:10079000B9F80021142001F0B5F80021152001F06E
:1007A000B1F80021052001F0ADF801210D2001F084
:1007B000A9F8FFF7C7FF034A034B1A600022034B57
:1007C0001A6010BD00366E0120FDFF1F1C020020C4
:1007D00010B50E4C2378002B15D0012B04D0FFF759
:1007E000B1FF0023237010BD094A93790133DBB2B6
:1007F000D054507993719842F5D11000FFF7E2FE82
:1008000000232370EFE7FFF75BFEECE73C120020CC
:1008100044120020124A84B01368002B05D01149FD
:1008200008680190019883420DD30F4A1368002B8A
:1008300007D00C49096803910399994201D9002313
:10084000136004B070472020084B18600023136029
:100850000B68054A0293029B0F331360E7E7C0461B
:10086000401200205012002014020020880000F8DE
:10087000F0B54D465F46444656460122F0B420246A
:100880000225436D02619C464B4B8B461C604B4CD2
:100890002368AB4323608024494B64041C60494BAC
:1008A0001A7099464123C45C002C18D0464B443240
:1008B0001D68825C1E00454B90469A46042706E060
:1008C000524612781D001300BB4300D057E02200AF
:1008D00033681A409045F3D12A02D21801E0002271
:1008E0000023394E6746B4460026B046856D6646FD
:1008F0004146002C04D1C046326833681202D21837
:100900003368C0461202D2183368C0461202D118AA
:1009100032683960043733681202D2183368C0462F
:100920001202D21833681202D118396004373268C3
:10093000AF42E2DB41238565C454204B1B68DB03D7
:1009400005D58020224AC0041368034313600223A4
:100950001A4A10680343136080221E4B52041A6027
:1009600000234A4613705A460133936020221A4BE3
:100970001A603CBC90469946A246AB46F0BD0F4B70
:100980001B68DB0305D58021114AC90413680B439A
:1009900013600223094A11680B43136080220D4B38
:1009A00052041A6000234A46202113700A4A11603B
:1009B0000A4A1360DDE7C046840000F810E000E05A
:1009C00080E100E018020020D0F00F4080200740B6
:1009D00004ED00E000E100E0880000F81C020020C7
:1009E000F0B55F46444656464D46C36AF0B41E0015
:1009F0008FB007000D91406B19000C9302F07AFA4A
:100A00003300013BDBB29B46591C41237A6D050044
:100A100003921000BA6D029214007A6AFB5C94464D
:100A2000BA6A089390461A004523FB5C07934A2351
:100A3000FB5A0693002A00D120E18146BB690020C1
:100A40009B004B4404939C4200D818E102248E4A38
:100A50008E4E1368B146A343136080228C4B520420
:100A60001A6001238B4A039C1370AB000B935B4607
:100A70000A930023002209930593874D874B019722
:100A800014E01E68002E14D11E68002E11D11E68BD
:100A9000002E0ED11E68002E0BD11E68002E08D12C
:100AA0001E68002E05D11E68002E02D11E68002E81
:100AB000E7D001261E6046466746B2402E680139DF
:100AC0003E40B21800292BD104C4029AA2426DD82C
:100AD0000424734A1278A24300D091E00122039CBF
:100AE0000592019F14E01A68002A14D11A68002A9E
:100AF00011D11A68002A0ED11A68002A0BD11A687F
:100B0000002A08D11A68002A05D11A68002A02D1E1
:100B10001A68002AE7D00122594601971A602A680C
:100B2000012834D00528C1D84F468600BE59B746A3
:100B3000049F039E0520B742B8D23E000B9FBA46E1
:100B400056440496B2E72026564806600420ADE7D6
:100B5000069E013E0696002EA8D1019F0998FE6BC5
:100B6000B04227DB380080690A918000201A049087
:100B700003209BE7049EA64298D1019F48E0049E73
:100B8000A64293D820264848066001208EE7089E9A
:100B9000079F1640B74289D1069E002E08D1019FBB
:100BA000099EFF6BBE421BDB0198DCE7019FAFE7AC
:100BB00002207BE7019E0998B246013007000990A8
:100BC0005044060045300078413607903800243004
:100BD000400050444088367806900896012065E72A
:100BE000019F099EBA464127013609965644BA46E6
:100BF000B244574645363F7836780897079655E70A
:100C00002022284B019F1A60284B1960012305936D
:100C10001D4B1B68DB0305D58021254AC9041368D9
:100C20000B4313600223184A68461168007D0B438A
:100C3000136080221F4B52041A600023154A0C993E
:100C40001370049ABB6994469B00039A63449B1AF1
:100C5000FF229B100A4053430A9A5B449B1A0D994A
:100C60007A6B8B600870934201D39B1A8B600FB034
:100C70003CBC90469946A246AB46F0BD0420029B80
:100C8000043B0493E2E6C04610E000E04435000077
:100C900080E100E018020020D0F00F400C7103400A
:100CA00080200740880000F8840000F81C02002023
:100CB00004ED00E000E100E0F0B556464D46444644
:100CC0005F46F0B40400C26A95B00C901391406B7B
:100CD00011001500089202F00DF92200A36D616D5C
:100CE00001931C00536A129000935E0813680291EE
:100CF00004934023D35C08000F93936A03932B0063
:100D0000013BDBB20693591C4123D35C0A931D00BF
:100D10004523D35C0B934A23D35A0593002D00D16E
:100D200060E18346936900939B009B445C4500D837
:100D30007EE1C14B9C460220C04A01251368029CFB
:100D4000834313608022BE4B52041A600123BD4AC4
:100D500000201370129B01229B001093069B6D4292
:100D6000119300239146099398460D93079300969B
:100D7000B54B14E01A68002A14D11A68002A11D160
:100D80001A68002A0ED11A68002A0BD11A68002AA4
:100D900008D11A68002A05D11A68002A02D11A68F7
:100DA000002AE7D04A461A60A84A009E12683240DC
:100DB0001700954200D1E5E0002900D0C8E001C449
:100DC0000198A04200D9F3E00424A1480078A04390
:100DD00000D00DE101251000029C0699079500291D
:100DE00000D1BCE00025A8463D00012900D0E7461F
:100DF0002768049E3E40B246049E5645F7D00D97A4
:100E0000E7460A9E32400B9E9642C8D1059A002AB8
:100E100000D0E4E00C9AD66B0E960E9F099EBE425F
:100E200000DBD1E0099A0C9E01329246564437000D
:100E300009923200413745323E7812780A960B9279
:100E4000ADE7059A013A0592002AA8D10C9AD66B13
:100E50000E960E9F099EBE4200DBB5E0099A0C9EDD
:100E60000132924637005744160009923A00413742
:100E70003F7845320A97177832000C9E2432B246EA
:100E80005200524452880B97059288E7A34586D1B9
:100E90006A4B1B68DB0305D580216E4AC9041368C1
:100EA0000B4313600223654A029811686D460B4399
:100EB00013608022684B52041A600023FF21614AAC
:100EC0002D7F13700C9B0D9ADA61089A11409A6974
:100ED0005B6B00929200A218121A06989210844638
:100EE0004A4311986244121A1398826005709A421C
:100EF00001D3D21A8260A34508D05B46029A9B1A9E
:100F00009B1000D586E04B43139A536015B03CBC50
:100F100090469946A246AB46F0BD504A9446029A86
:100F2000934500D33BE7109A94464C4AE3449446D9
:100F300035E7A34500D932E72027494A1760494AD7
:100F400094462CE72027484A1760484A944626E7EB
:100F5000039D0139A8401018002900D042E70199EB
:100F600001C4A14207D804203949097881434AD1F4
:100F70000121029C0791FF2108983D0001400020BB
:100F80008046E7464646002E05D1039E0139B04013
:100F90000F9EB046404401300700009E3740BE42DD
:100FA00009D001262F00B046002900D01CE7E746F3
:100FB0001000069913E700290FD00426244F3F782C
:100FC000B7432BD12F000DE7926911910E92920039
:100FD000A21A9346264A9446E1E62F00BFE7254A27
:100FE0009446DCE6214B9C46019B043B9B46A2E6D3
:100FF00020221D4B1A60204B1960029B5C469B46C9
:101000000123079344E72022174B1A6000221A4B52
:101010001A60F2E7129A9446634474E72022124B56
:101020001A600022144B1A605B46A3461C002FE78F
:10103000014B9C46D8E7C046320F000010E000E0AC
:1010400080E100E0180200200C710340D0F00F4056
:101050008020074004ED00E000E100E08C0E00007D
:10106000840000F8020E0000880000F81A0F00004B
:10107000440F0000420E00001C02002084B0F0B5B6
:101080005F4656464D464446F0B491B01C925D22F0
:101090001D93239B1B910293249B1A9001932F9BDA
:1010A000259E00931AAB9A5C04921E9A0E92229A85
:1010B0000F92299A11000C9240229A5C05925C22B0
:1010C0009B5C9B46329B9B680A93002900DAC8E030
:1010D00010AA944672236344089369236344994693
:1010E0000C9B01330B9300230793013B0D93063BAD
:1010F000099308339846F0231B069A46731E039300
:10110000059BDB430693099D0A9A2B009446634492
:101110001C005B46544545D8002B47D14346002B65
:101120001AD03100200001F0E5FE310087002000D8
:1011300001F066FF039B029A591A019B5943009BD9
:10114000FB58CB4013404A46494612780979134070
:10115000994269D00123984601350134012DD8D137
:10116000089A079B02320892012294460B9A013397
:101170000793E1449A42C6D10A9B0D9A1900914205
:1011800006D3329B1B78002B63D0329B0D9A9A605A
:1011900011B03CBC90469946A246AB46F0BC08BC98
:1011A00004B01847002BD6D0002398463100200009
:1011B00001F0A0FE31008700200001F021FF039B19
:1011C000029A591A019B5943009BFB58CB4013408C
:1011D000049A002A01D1069A1340059A134202D0BC
:1011E00000239846B8E74346002BB5D031002000D5
:1011F00001F080FE31008700200001F001FF039B19
:10120000029A591A019B5943009BFB58CB4013404B
:10121000049A002A97D1069A494613404A4609790A
:1012200012781340994295D10C9B079A93421CD097
:10123000EB1D0AD0089B1B885B190993002B05DD69
:1012400001239846083B09938AE7099501239846AC
:1012500086E70E9B190091429AD8329B0D9A9A60AC
:1012600096E701235B420D9386E7EB1D0FD0089BA9
:101270001B881B190D93012398460F9B022B00D04E
:101280006EE70A9B329A013B0A93936068E70D94DC
:10129000F1E7C04684B0F0B55F4656464D46444639
:1012A000F0B4A1B02C9240222D933F9B2B91199327
:1012B0002E9B2A909846339B319C1793349B359FE5
:1012C0001893379B369D1B93389B42AE19001D9394
:1012D0002AAB9A5C8B461A925C229A5C91465D22FC
:1012E0009A5C924641229B5C002B00D00BE1424667
:1012F000B3689B1A984600D537E100231C937368A6
:10130000002B0DDB1D9A42441400013CE41A00D569
:101310002FE11B9AA24200D8D8E01D9B1B1B9B46C5
:101320005E461B9A4644013EB2425CD8B61A5C4601
:101330005D450DD901239B46552001F0C7F90234C4
:101340002A2001F0C3F9A542F6D85B46002B50D005
:101350001B9D013D002E00DA13E17B1E1B931A9B9F
:101360005C22DB431D936B469B181B7855241E9310
:10137000DB43AB461F930EE05246002A00D0A7E0A5
:101380001D9A1340D8B2E44301F0A0F97F23E4B2E0
:101390001C40013E25D33900300001F0ABFD39007F
:1013A0008500300001F02CFE1B9B179A591A189BE0
:1013B0005943199BEB58CB4013404A46002ADBD1D6
:1013C0005246D8B2002A00D08EE01E9B18401F9BC8
:1013D0002340E443C018C0B201F078F9E4B2013E02
:1013E000D9D25D4607E05C465D4502D900239B46A5
:1013F000A2E7350055247B1E9B46454549DB7022FC
:101400006B469B181B781A9A1B931A401D9213E087
:101410005346C0B2002B47D15C226B469B1822007A
:101420001B78E44318409A438018C0B201F04EF98B
:10143000E4B2013D45452CDB3900280001F05AFD9E
:1014400039008600280001F0DBFD5B46591A189B25
:101450005943199BF058179BC84018404B46002B26
:10146000D6D052460300002A01D11A9A934345452B
:1014700000D188E05346002B15D11A9B9843C0B287
:10148000E44301F023F9E4B27F23013D1C404545CC
:10149000D2DA21B03CBC90469946A246AB46F0BC9D
:1014A00008BC04B01847C0B21A9B18420AD098432F
:1014B0008023184301F00AF9E4434B46E4B2002BC1
:1014C000B7D0E1E74B46002BDAD1A5E7A41A24E711
:1014D0001A9AD8B2024200D155E780201D9A4042A4
:1014E00013400343D8B24EE71A9A104200D16CE77A
:1014F0008020E4431D9A404213400343D8B201F0D8
:10150000E5F8E4B245E70F322EA96846149601F0DB
:10151000BFFD2C9A2D9B2A982B99FFF7AFFD4246D1
:10152000B3689B1A984628D400231C934B46002B83
:1015300000D1E4E67A1E00D5E1E65C216B465B183B
:101540001878189B1E9619001E005143AC460500E2
:101550001A982300CB402B40184200D11C93891BC2
:10156000013AF6D265461E9EC9E61D9B9C46E044A4
:10157000C3E61B9B9C466444CBE61D9B9C46E04413
:10158000D2E7552437E71B0600D473E753461B9870
:10159000002B00D174E71D9B002B00D170E7802346
:1015A0001C981A9A904318436AE7C04620227D4B44
:1015B000F0B51A608023456B9DB0040005631B02E3
:1015C0009D4200D89AE01D001F3A436302625C23EB
:1015D000E35C002B00D18DE023699D4200D22561A0
:1015E000A368082B00D973E00823236280235B01E2
:1015F0009D4208D92269AA4201D080231B0180257F
:101600006D0123616563E36B002B00DA7DE0042349
:10161000802210200426E362FB336362F73BA3625F
:101620003833E254604B2360604F4019A563606318
:101630006765310001F05EFC412380003818A06529
:10164000E35C002B00D178E02369E81A20613100C7
:1016500001F050FC0023012280260130A06119AD69
:1016600053495D20AB6052426A600A6836043243D7
:10167000022667682B7023540A604E490A68B243F9
:101680000A604D4A4D4913600F60012711683943C4
:101690001160A268062A63D9082A51D8484B1E70E7
:1016A000484E3368002B03D15C33E35C002B0BD036
:1016B00014AB07CD07C3210050221031684601F05A
:1016C000E7FC0FCCFFF7E6FD002333601DB0F0BD53
:1016D000E36B002B63DB236A022B1BD0042B46D069
:1016E000012B00D093E720226362E262A362802094
:1016F000202699E76369023323616EE78023DB01CB
:101700009D420FD90123036261E708230022E263AF
:10171000022BE3D11022E2620D3A6262A362402002
:10172000102681E780239B019D422CD880235B01FA
:101730009D422BD90423036249E72361002086E7F9
:101740001F490B705C23E35C002B04D0236A072B3A
:1017500001D9302A1DD829002000FFF741F99FE761
:10176000174B290020001E70FFF782F898E7082227
:10177000A3620F214023E2626162E254124B2020F7
:101780002360082650E70223036220E70823036250
:101790001DE7275429002000FFF78EFA80E7236A0F
:1017A000B4E7C046880000F88080808028020020CE
:1017B0003C80044000700340087103400071034006
:1017C000200200201C02002088888888F0B54F463F
:1017D000464608220023C0B49BB002AD2A62AA622A
:1017E000043AEA623C32AB541C32AB540132AB5483
:1017F0001C3A2B616B61AB61EB612B636B63AB5488
:10180000EB631B4BFF219946FA23DB006962194FFA
:10181000194E1A4C98460FE0336822680093009BDB
:101820009B1A434506D933680193019B23603B68AB
:10183000002B19D0FEF7EEFF00F0A8FE002808DD0F
:101840003B68002B0DD000F07BFE2900C0B2FEF7F4
:10185000BFFF4B461B68002BDED02800FFF7A6FE1B
:10186000DAE7FEF719FEEEE7FEF702FEE2E7C04612
:101870001C02002014020020501200204C120020F4
:101880004300181810B51E4C800022185368012917
:1018900013D004291ED00459127A207D904320755C
:1018A000002906D0022923D0032925D000221A605E
:1018B00010BD802252001A60FAE70159127A087DA1
:1018C00002430A75A222202152001A601A688A4334
:1018D0001A60EDE70159127A087D02430A75A222C7
:1018E00052001A601968253AFF3A0A431A60DFE786
:1018F0000422FF321A60DBE7812252001A60D7E728
:101900007435000010B51A2801D8FFF7B9FF10BDD3
:10191000F8B54F4646460500C0B472B6244B254E76
:101920001C68254B31681B6862B65B0104D5322206
:10193000A242924152428918002D34D01F4B802779
:101940001C1B1F4BFF046343FA24A4004C439B0D54
:101950001C19174B9946184B984672B64B46186897
:10196000434631681B6862B63B4204D03222824251
:10197000924152428918114B114A1B1A5343FA22C1
:1019800092004A439B0D1B1B9B180E4A934207D99A
:10199000013D002D07D0FA239B009C466444DCE700
:1019A00000F0CCFED9E70CBC90469946F8BDC04685
:1019B00018E000E05012002004ED00E07FBB0000C2
:1019C00055550100E703000080221E4BD20510B5DB
:1019D0001A608022002012061A601B4B1B491860F7
:1019E0001B4B1C4A1960282313601B4A1B4C1360B5
:1019F0001B4A13601B4A13601B4A13601B4A136087
:101A0000092222601A4C20601A4C21601A4C236073
:101A10001A4C23601A4C22601A4C20601A4801604C
:101A20001A490B601A490B601A4B1A6000F0DAFE73
:101A30003220FFF76DFF00F0E3FCAF204000FFF71E
:101A400067FF10BD00E100E004800340FFBF00001D
:101A5000088003400C800340148003400080034052
:101A60001C800340248003402C80034034800340CA
:101A700004900340089003400C90034014900340EE
:101A80000090034004A0034008A003400CA00340C2
:101A900014A0034000A00340013810B5032810D85B
:101AA00072B6094A81008B58002B07D05C68400051
:101AB0008C5006491C88425A121B425262B61800CA
:101AC00010BD0020FCE7C046AC120020EC14002042
:101AD000431E0020032B0AD872B6064A9B009B586F
:101AE000002B05D05B680130002BFBD162B670473C
:101AF0000020FBE700130020F8B572B60122012395
:101B000008249446154D16495A1EAA5C14420AD060
:101B10005E0177589A00002F0FD066463243D200FC
:101B20005658002E14D00133052BEDD162B6002299
:101B30000C4B1A7000F0DCFCF8BD8B1908305860B3
:101B4000094B8B51074A1378013B137062B6F3E7D8
:101B50008B1808305860054B8B50F3E7B8360000FF
:101B600000F8FF1F2913002088004000C800400033
:101B7000421E10B5032A1FD8022380001843194BB8
:101B8000C000181872B6184CA35C012B20D0002B93
:101B900023D0022B1FD0032B0FD104230830A354D2
:101BA0000B0008334360C823020700D4403B0A8877
:101BB00012041343036062B610BD0C4B9200985898
:101BC00000280CD00A4B98584160995062B6F3E750
:101BD00008300223E3E70523E1E70323DFE7995019
:101BE000034BF2E700F8FF1F38130020001300201A
:101BF00010130020F0B55F4656464D464446B94B9B
:101C0000F0B49B46B84F83B0B84B1D78EDB26B076C
:101C10001CD55B461B78002B15D0B54A1378DBB278
:101C2000002B05D0013BDBB21370002B00D100BEAE
:101C3000B04A1378DBB2002B05D0013BDBB2137046
:101C4000002B00D1F3E10422A84B1A7008242300D2
:101C50002B4000D1BAE0A84B1B78DBB2190936D073
:101C60009E08A14AF600961970680139CAB2083870
:101C70009046234045D1728891B28C460180002A5B
:101C800021D04380436043469C4A9B00D1580029A1
:101C900000D1EFE19A4DEA585060E8504346994A26
:101CA00059008B5A63448B5200F002FC002800D18B
:101CB000E3E108307060330707D5934B33600822A7
:101CC0008A4B1A70A0E72642F7D1904BF6E79A08A4
:101CD000D200BA18136850689B061B0F092B00D15D
:101CE00091E034D8013B012B07D88949894B0988F9
:101CF000994200D12AE1844B13600122864B1A706D
:101D0000DDE700F0F5FB4346844A99005358002B69
:101D100000D1C4E1586888501A0008327260424607
:101D20007F498A5C012A00D1B5E1002A00D1AEE1E9
:101D3000022A00D1A7E1032A00D1A6E088223107B8
:101D400000D540321B881B041A433260B7E70D2BC5
:101D5000D3D103686E4D40682B6068606A489BB2BF
:101D60001060704A3961116000926F4AB961924601
:101D7000012251460A706D4A934200D989E0013A26
:101D8000934200D3EAE181225200934200D1B2E1B2
:101D900000D99CE1802B00D1F9E1822B00D0B0E189
:101DA0007F22AB881340042B00D9AAE10021604AAE
:101DB0009B00117051705F498C4663441B789B07F0
:101DC00000D4E1E2012313700133E5E1012129424E
:101DD00000D02FE16BB2002B00DA6DE102232B4221
:101DE00005D055490A78D2B20A70404A13701023C0
:101DF0002B4201D03D4A137003B03CBC904699463B
:101E0000A246AB46F0BD474B1868009300282FD080
:101E10004A4B1A8898461500402A5CD8484B1978D6
:101E2000894602214C462143C9003F4C7E18706010
:101E3000A246267888240191A446002E01D0C8210C
:101E40008C462C04210064460C432100019C521B4B
:101E50003951012154464E4026704C464C401C706E
:101E6000434692B21A804019002A36D0009B18606F
:101E7000A022274BD2001988914200D03DE70022D2
:101E80005A709A782F4B1A7037E7042240460A544A
:101E900054E7204A934200D1C5E079D88822120144
:101EA000934200D194E18032934200D029E1AA7894
:101EB0000C4B3D001A708026009C04E0224B083534
:101EC000AB4200D1C2E12B6A3342F7D0686A0838CE
:101ED00000F00EFBF2E74025A0E7402DC6D0002021
:101EE000C4E7C0463413002000F8FF1F80200740DD
:101EF000BD1200203C13002090200740AC120020AF
:101F000058120020EC140020C80040008800400057
:101F100020130020212000009420074000130020FF
:101F20003813002054120020BC120020810600004B
:101F30002C130020C0200740882007406812002092
:101F4000281300209820074080F8FF1F0023A34C8F
:101F5000C15CE1540133072BFAD12368862B00D1F1
:101F6000F8E0022100249E4B1D782943C90078180F
:101F700044609C48883482460078002800D0403471
:101F80007C50012154464840694020701970B2E6E7
:101F9000954A934200D0E5E1944B1A68944B1A603D
:101FA000AA78944B1A70002398460133994600236F
:101FB000002100259C46002201930220884B1E78B8
:101FC0003043C0003C1862604C468822002C00D090
:101FD000D8E1019C22433A505246404610700122FB
:101FE00072401A70002900D092E0604640281AD151
:101FF00002200243D200B81845604046002800D0B5
:10200000A2E008048446882064462043B850524623
:1020100048461E7010706D18402904D10021009BA5
:102020001D60754B19800122744B1A7065E600F033
:1020300059FB08E602227148714C0270684A714DE2
:102040001370714A14609460704C1361D4600D2455
:10205000936155606E4A1470FF226E4C22706E4C74
:1020600022706E4C23706E4B1A706E4B603A1A7071
:102070000170C1E6D0506C4D0FE66C4A30601378A9
:10208000013313701BE6052240460A5456E603222C
:1020900040460A5452E6022240460A544EE6424660
:1020A00063498A5C022A4CD000D208E6032A43D155
:1020B000012342468B5402E60D22554B1A70564BB3
:1020C00073321A7002232B4200D190E689E6594AF6
:1020D000934200D03CE17F22AB881340042B10D800
:1020E0006A88002A0DD14A4A9B0094460222634422
:1020F00019780A4356E77F22AB881340042B00D897
:1021000034E10F22424B1A7001223C4B1A70F4E565
:10211000402900D86CE702200243D200B81845607D
:1021200040464039002813D04348B85052464846EC
:102130001E701070403572E73440624262410323E2
:102140009B1A42468B54BAE508048446C8205BE7D4
:102150002B48EAE70F21394B197002E7384B5A68D0
:10216000002ACED06888AE88009C03E00C335A6801
:10217000002AC6D019888142F8D15988B142F5D1D8
:102180000094000A032800D10EE11B8904E000231B
:102190002C4A137053700233E988994200D305E149
:1021A0008C46402901D940239C4663461B04019379
:1021B00063460220D518C91A094B1E783043C00067
:1021C0003C1862600122914600229046C83200E726
:1021D0001D4B1C4A1B7813700123DDE7F41400200B
:1021E00028130020BC1200202122000050120020E1
:1021F000FC1400204C13002068120020942007409B
:10220000880040006C12002000F8FF1FC012002060
:10221000C0200740882007408020074098200740C2
:102220008C200740842007405812002029130020EA
:102230003813002002030000C8004000BD12002037
:10224000BC3600002C1300203413002000225F4B0A
:102250005F4D01935F4BA846914616001D00009408
:102260005D4B9859002804D0446800F041F9201EC5
:10227000FAD14A46584B9A5143469A51574B98596E
:10228000002804D0446800F033F9201EFAD14A46F1
:10229000524B9A51524B9A514A46019B1A802B78C5
:1022A000032B35D037D9042B37D0052B30D0019BE9
:1022B0000436023301930135102ED1D10023494A4F
:1022C0000F3E1370484B9846484B45469946009B35
:1022D00098464A46731ED35C08222B7004351A4276
:1022E0001ED1B400022300222343DB00FA50032353
:1022F0002343DB000136FA50052EEAD14346009312
:1023000053461B78994601234A465A4090464EE66A
:1023100001232B70CBE7022BC9D14B462B70C6E7AC
:1023200000F0C6F8B4007301002836D0FA1808305F
:1023300050602F4AFA5000F0BBF801232343DB0022
:10234000002823D0FA18083050602A4AFA50C9E70A
:10235000FF32FF32934200D0D3E600239846013388
:10236000994624E6244A9342F7D0CAE66A88002AAE
:1023700000D0C6E6214A022194469B0063441A78A5
:102380008A430FE6403224E6022305E7F850154B56
:10239000144A1B7801331370A4E7F850114B114A0B
:1023A0001B7801331370C6E71378F5E69C46402B83
:1023B00001D940218C4661460904019161465518B6
:1023C000591A0023984601339946F6E5EC1400208B
:1023D0005812002038130020AC12002000130020F7
:1023E0001013002029130020C4200740B836000035
:1023F00088004000C800400021230000C0200740A2
:1024000010B500F0FDFB1C480022010003008831DC
:102410001A605A6008338B42FAD18021174AC902E8
:1024200013680B431360030A154ADBB21370030CE5
:10243000144ADBB21370144B000E1870FF23134ABA
:1024400000201370124A13491370134A13700122AB
:102450000A701249087012490A7012490A689A43B0
:102460008F3B134380220B600F4B52041A601022E3
:102470000E4B1A7010BDC04600F8FF1F3480044098
:102480009C200740B0200740B42007408020074030
:102490008820074094200740102007400021074073
:1024A0008420074018E400E000E100E00821074034
:1024B00070B572B60C4D2C68200000F0A7FD0B28FB
:1024C0000EDC80231B06C3409C432C6062B6C30015
:1024D0001818064BC000181800230360436070BD35
:1024E00062B60020FBE7C04624FDFF1FC0F9FF1FB6
:1024F00010B504000E484821201A00F0FBFC0B2800
:102500000CD80C4B1B78002B09D172B680231B060C
:10251000C340094A11680B43136062B610BD074BF4
:102520001B78002BF1D02000FFF7E6FAF6E7C04653
:10253000C0F9FF1F2913002024FDFF1F34130020C2
:1025400070B5104D286800280FD043885A1CC31856
:102550001C7A03889A4202D24280200070BDFFF7A5
:10256000C7FF002320002B60F8E7074B1B78002BE8
:1025700005D00320FFF790FA28600028E5D101205C
:102580004042EBE74813002034130020054B9888A5
:10259000054B1B68002B03D01A885B88D31AC01820
:1025A0007047C046EC14002048130020414BF0B5A2
:1025B0005F469B46444656464D4601235A46F0B474
:1025C00083B004000191137000292CD03A4B019E76
:1025D00099463A4B3A4F98464B461868384B9A46BC
:1025E00000282FD000235246402513704388ED1A4F
:1025F000B54200D9350001000831C9185B199BB2FA
:102600004380761B002D07D00023E25CCA540133BF
:102610009D42FAD1438864193F2B09D80522294BE2
:102620001A70002ED8D100235A460198137033E057
:102630004023010003800420FFF79AFA00234A4652
:102640001360EBE743461B78002B2CD01E4DBA4697
:102650000BE0013D002D1BD03B78002B18D100F082
:102660006DF843461B78002B1DD00420FFF730FA8D
:102670000728EED85B4601221A70FFF719FF4B4678
:1026800018600028AED15B46013D1870002DE3D1E3
:10269000012301203B70404203B03CBC9046994668
:1026A000A246AB46F0BD00235A46012013704042BB
:1026B000F2E7C0463D1300204013002034130020F1
:1026C000441300203C1300200975000000B583B0BE
:1026D0006B46D871073301211800FFF767FF03B07D
:1026E00000BDC04670B50E4B1C78E4B2002C09D179
:1026F0000C4D2968002906D04B8804200B80FFF779
:1027000037FA2C6070BDFFF7D3FE002804D001001B
:102710000420FFF72DFAF5E70122034B1A70F1E7C9
:102720003D130020401300203C13002010B5FEF79D
:102730001BF8FFF74BF800F001F8FAE770B5254CED
:102740002378002B00D070BD01332370FFF71EFFEC
:10275000002835D100F0DCF800282ED100F04EF929
:10276000002827D100F0C0F9002820D100232370D1
:10277000EFF30583002BE6D1EFF3108172B6164B11
:10278000186800281FD0154C2278002A1BD101257B
:10279000257045691D60002D19D0AA61002900D15E
:1027A00062B600258368457798472570CBE700F02F
:1027B0006FFBDBE700F06AFBD4E700F065FBCDE7D9
:1027C00000F068FBC6E70029BDD162B6BBE7044B49
:1027D0001D60E3E74D130020E0140020E414002006
:1027E000DC140020284B1B78082B30D00A2B35D066
:1027F0000C2B3AD03C22254B1A60254B2A3A1A6002
:10280000244B1B78002B10D00022234B1A60234B43
:102810001B78012B10D9042B12D9082B30D9102B7F
:102820002AD987221E4B1A600DE001221A4B1A602A
:102830001A4B1B78012BEED88022194B1A6002E04C
:102840008422174B1A600122164B1A70704700221F
:102850000E4B1A600E4B13321A60D1E738220B4B25
:102860001A600B4B253A1A60CAE73422074B1A60EC
:10287000074B223A1A60C3E78622094B1A60E2E747
:102880008522074B1A60DEE728FDFF1F08B00340D2
:102890000CB003404F13002020B0034029FDFF1F60
:1028A00024B003404E13002070B580268025114CC3
:1028B000F602ED0008E023682B420DD123681B05CA
:1028C0000FD42368DB0411D423683342F3D0FFF71D
:1028D00091F923682B42F1D000F02AF823681B05F8
:1028E000EFD500F09BF82368DB04EDD500F00CF980
:1028F000EAE7C0463480044010B5FFF7D5FFC04674
:102900000022014B1A607047008104407047C046A6
:10291000054B1878054BC0B21B78DBB2984200D249
:102920004030C01A7047C046501300205113002099
:1029300010B5284B1A7992060FD52748DB79027813
:10294000D9B2013200233F2A22DD244A1278934271
:1029500003D0234AD154DBB203701E4AD378DBB2D2
:1029600059B200291ADB40221A4210D0194B1B79A8
:102970001A420CD000221B4B1A701B4B1B68002BF9
:1029800002D01A4A12781A722C22124BDA7010BD39
:102990001300124A12789342DBD1DEE7117949B273
:1029A0000029E0DA124913480C780178C9B28C4248
:1029B0000DD04A1C3F2A07D8D1B20F4CA25C054C5F
:1029C000D2B2E2710170CEE700210022F5E76C215E
:1029D000D170C8E700A0064050130020511300201A
:1029E00094130020D5130020D8130020D413002006
:1029F000DC130020D613002054130020054B187858
:102A0000054BC0B21B78DBB2984200D24030C01AEE
:102A10007047C046DD130020DE13002010B5284BA0
:102A20001A7992060FD52748DB790278D9B201329C
:102A300000233F2A22DD244A1278934203D0234AFE
:102A4000D154DBB203701E4AD378DBB259B20029ED
:102A50001ADB40221A4210D0194B1B791A420CD0B3
:102A600000221B4B1A701B4B1B68002B02D01A4A0A
:102A700012781A722C22124BDA7010BD1300124A0F
:102A800012789342DBD1DEE7117949B20029E0DA0E
:102A9000124913480C780178C9B28C420DD04A1CF7
:102AA000272A07D8D1B20F4CA25C054CD2B2E271F2
:102AB0000170CEE700210022F5E76C21D170C8E754
:102AC00000B00640DD130020DE13002008140020B3
:102AD000491400204C1400204814002050140020F9
:102AE0004A140020E0130020054B1878054BC0B2B3
:102AF0001B78DBB2984200D24030C01A7047C04603
:102B0000581400205914002010B5314B1A79920640
:102B10001ED53048DB790278D9B2013200233F2A32
:102B200031DD2D4A1278934203D02C4AD154DAB2C7
:102B300002702B4A116800290AD02A4A1278D2B2B0
:102B400093423CD39B1A272B02DD274B1B780B713A
:102B50001F4AD378DBB259B200291ADB40221A424D
:102B600010D01B4B1B791A420CD000221F4B1A703D
:102B70001F4B1B68002B02D01E4A12781A722C229F
:102B8000134BDA7010BD1300134A12789342CCD164
:102B9000CFE7117949B20029E0DA174911480C78DA
:102BA0000178C9B28C4210D04A1C272A0AD8D1B267
:102BB000124CA25C064CD2B2E2710170CEE79B1AB5
:102BC0004033C0E700210022F2E76C21D170C5E755
:102BD00000C006405814002059140020841400201E
:102BE00054140020C6140020C7140020C51400206F
:102BF000C8140020C4140020CC1400205C14002051
:102C000010B584B072B670234121174A1370174B68
:102C10001970174B323919708023137013785BB217
:102C2000002BFBDA134B186862B6134B984202D89C
:102C300083001818400001AC0A22210000F02CF992
:102C400000230E48821CE15C002908D0013311806A
:102C500002320A2BF7D10C33037004B010BD0133DC
:102C60005B00DBB2F8E7C04600000240070002400C
:102C700006000240080002407F969800B8FDFF1F42
:102C800010B5EFF3108272B6437F002B06D1017F9F
:102C9000012907D0032910D001234377002A00D14E
:102CA00062B610BD124C2168002915D04361114B4A
:102CB0001968186081614861EEE70F4C21680029AE
:102CC00010D043610D4B1968186081614861802103
:102CD0000B4B49051960DFE7064B416181612060BC
:102CE0001860D9E7054B4161816120601860EEE70B
:102CF000E0140020DC140020D0140020D4140020A4
:102D000004ED00E0037F10B54160C260022B02D0E9
:102D1000FFF7B6FF10BD83689847FBE770B5EFF388
:102D2000108272B60E4C2068002815D00D4E00257A
:102D30000CE09D61002A00D162B645778368984710
:102D4000EFF3108272B62068002805D04369236033
:102D5000002BEED13360EDE7002A00D162B670BDE2
:102D6000D0140020D414002010B5FFF7D7FF10BDF9
:102D7000174A30B51468002C25D0036821688B42AF
:102D80000DD20025CB1A8460C5602360E06010601E
:102D90000223037530BD116814008B4208D3A2686A
:102DA0005B1A0360002AF6D18260C460A060EFE77E
:102DB0008260D268CB1AC260E060C2689060236013
:102DC00002230375E6E78460C4601060E0E7C04654
:102DD000D8140020F8B5244E3468002C27D023687E
:102DE000002B3DD1214F002505E03468002C1ED07A
:102DF0002368002B34D1A368002B00D0DD6020694C
:102E00003360036825751B68BB4222D1037F456090
:102E1000C460022B21D0FFF733FF6368002BE4D09E
:102E200023602000FFF7A4FF3468002CE0D1EFF30B
:102E3000108372B600210E4A10681160002B05D174
:102E400062B603E08468FFF793FF20000028F9D101
:102E5000F8BD220000219847DFE783689847DCE748
:102E6000013B2360E3E7C046D8140020052D000095
:102E7000E814002010B5034A136801331360FFF70C
:102E8000A9FF10BD501200207047C0467047C046D1
:102E90007047C0467047C046F8B506000D001700E1
:102EA000002409E03031C9B229553000390000F062
:102EB00021F8061E0FD001343900300000F0A0F8D0
:102EC0000929EFD93731C9B229553000390000F04E
:102ED00011F8061EEFD12B1958700023002C07D0D3
:102EE000EA5C295DE9542A550133013CA342F7DB32
:102EF0002800F8BD002243088B4274D303098B429B
:102F00005FD3030A8B4244D3030B8B4228D3030CB9
:102F10008B420DD3FF22090212BA030C8B4202D35B
:102F20001212090265D0030B8B4219D300E0090A83
:102F3000C30B8B4201D3CB03C01A5241830B8B428C
:102F400001D38B03C01A5241430B8B4201D34B0375
:102F5000C01A5241030B8B4201D30B03C01A5241DA
:102F6000C30A8B4201D3CB02C01A5241830A8B425F
:102F700001D38B02C01A5241430A8B4201D34B0248
:102F8000C01A5241030A8B4201D30B02C01A5241AC
:102F9000CDD2C3098B4201D3CB01C01A5241830960
:102FA0008B4201D38B01C01A524143098B4201D39A
:102FB0004B01C01A524103098B4201D30B01C01AC5
:102FC0005241C3088B4201D3CB00C01A524183083F
:102FD0008B4201D38B00C01A524143088B4201D36C
:102FE0004B00C01A5241411A00D2014652411046CC
:102FF0007047FFE701B5002000F006F802BDC046AB
:103000000029F7D076E770477047C0461C2101239E
:103010001B04984201D3000C10391B0A984201D3BB
:10302000000A08391B09984201D30009043902A299
:10303000105C40187047C046040302020101010100
:10304000000000000000000070B50D4E0D4D002482
:10305000AD1BAD1005D0A300F35801349847A5422D
:10306000F9D100F057FB084E084D0024AD1BAD1000
:1030700005D0A300F35801349847A542F9D170BD9B
:1030800020370000203700002037000028370000DC
:1030900070B50F2A32D90C0004430B00A40731D1BC
:1030A00015000400103D2D0901352D0149191E6838
:1030B00026605E6866609E68A660DE681033E66023
:1030C00010349942F3D10F2345191340032B1BD918
:1030D0001C1F0023A4080134A400CE58EE50043372
:1030E0009C42FAD103232D1909191A4005D0002357
:1030F000CC5CEC5401339A42FAD170BD0500002A31
:10310000F5D1FAE70500F2E71A00F8E7034B10B52E
:10311000002B02D0024800F005F810BD00000000AE
:103120003531000010B5010000230022002000F01E
:103130001BF810BD70B5094B094CE41AA41009D056
:10314000084AA518AD00ED182B68013C9847043DCE
:10315000002CF9D100F0E8FA70BDC0460000000074
:1031600000000000FFFFFF3FF8B544465F465646AB
:103170004D469B462F4BF0B41C68A4235B00050012
:10318000E0580E00904600284BD043681F2B0DDC02
:103190005C1C002D21D102339B0044601E50002096
:1031A0003CBC90469946A246AB46F8BD224B002B4C
:1031B0003CD0C820400000E000BF002836D0A42248
:1031C00000235200A15843600160A0504032835058
:1031D000043283500124002DDDD09A0091468144B1
:1031E000424688214F467A50C4225200904680447D
:1031F00042468739994012688A460A4394464246B5
:1032000061461160842249465F4652008F50022D6C
:10321000C1D1020055468D32FF3211680D43156051
:10322000B9E720004D30FF30E050AEE701204042CA
:10323000B6E7C04610370000000000000805000097
:10324000FA04000010050000CE0400001A0500007A
:10325000CE040000CE040000CE040000CE04000026
:10326000CE040000E0040000CE040000CE04000004
:10327000E0040000CE040000CE040000CE040000F4
:10328000E0040000CE040000E0040000CE040000D2
:10329000CE040000CE040000CE040000CE040000E6
:1032A000CE040000CE040000CE040000CE040000D6
:1032B000CE040000CE040000CE040000CE040000C6
:1032C000CE040000CE040000CE040000CE040000B6
:1032D000CE040000CE040000CE040000CE040000A6
:1032E000CE040000CE040000CE040000CE04000096
:1032F000CE040000CE040000CE040000CE04000086
:10330000E00400001A05000010050000CE040000D3
:10331000E0040000CE040000CE040000CE04000053
:10332000CE040000CE040000CE040000CE04000055
:10333000CE040000CE040000CE040000CE04000045
:10334000CE040000CE040000CE040000CE04000035
:10335000CE040000CE040000CE040000CE04000025
:10336000CE040000CE040000CE040000CE04000015
:10337000CE040000CE040000CE040000CE04000005
:10338000CE040000CE040000CE040000CE040000F5
:10339000CE040000CE040000CE040000CE040000E5
:1033A000CE040000CE040000CE040000CE040000D5
:1033B000CE040000CE040000CE040000CE040000C5
:1033C000CE040000CE040000CE040000CE040000B5
:1033D000CE040000CE040000CE040000CE040000A5
:1033E000CE040000CE040000CE040000CE04000095
:1033F000CE040000CE040000CE040000CE04000085
:10340000CE040000E20400001806000038060000A8
:10341000660600007206000090060000F805000035
:10342000F8050000F8050000F8050000F8050000A8
:10343000F8050000F8050000F8050000F805000098
:10344000F8050000F8050000F8050000F805000088
:10345000F8050000F8050000F8050000F805000078
:10346000F8050000F8050000F8050000F805000068
:10347000F8050000F8050000F8050000F805000058
:10348000F8050000F8050000F8050000F805000048
:10349000F8050000F8050000F8050000F805000038
:1034A000F8050000F8050000F8050000F805000028
:1034B000F8050000F8050000F8050000F805000018
:1034C000F8050000F8050000F8050000F805000008
:1034D000F8050000F8050000F8050000F8050000F8
:1034E000F8050000F8050000F8050000F8050000E8
:1034F000F8050000F8050000F8050000F8050000D8
:10350000F8050000F8050000AC060000B406000055
:10351000DC050000F8050000C0060000C806000039
:10352000D0060000F8050000F2060000FA060000D0
:1035300002070000F8050000240700002C07000027
:10354000FA0500007E0B0000AC0A0000500B0000E2
:10355000460B0000300B0000740B000031414C534F
:10356000000000005465656E73794C4334380000E8
:10357000342E3000420000F840A00440010000005A
:10358000420000F844A0044002000000C00000F81F
:1035900000C0044001000000000000F80490044056
:1035A00002000000000000F8089004400400000041
:1035B000C00000F81CC0044080000000C00000F8FB
:1035C00010C0044010000000C00000F808C0044013
:1035D00004000000C00000F80CC004400800000017
:1035E000800000F80CB0044008000000800000F8E3
:1035F00010B0044010000000800000F818B0044033
:1036000040000000800000F81CB004408000000072
:10361000800000F814B0044020000000C00000F852
:1036200004C0044002000000800000F800B0044024
:1036300001000000400000F800A00440010000006C
:10364000400000F804A0044002000000400000F820
:103650000CA0044008000000400000F808A004404E
:1036600004000000C00000F814C004402000000066
:10367000C00000F818C0044040000000800000F8BE
:1036800004B0044002000000800000F808B00440CC
:1036900004000000020100F850D0044010000000B7
:1036A000020100F854D0044020000000030100F89B
:1036B00078D00440400000000015191500010000FA
:1036C0002CFDFF1F120000000002000058FDFF1F2C
:1036D0004300000000030000B4FDFF1F00000000D5
:1036E0000103090440FDFF1F00000000020309045C
:1036F0009CFDFF1F0000000003030904B8FDFF1F2D
:1037000000000000000000000000000000000000B9
:10371000D0FDFF1FF8B5C046F8BC08BC9E467047F8
:083720000D3100003904000026
:04372800F8B5C046EA
:10372C0000366E01FFFFFFFF0A04000012010101C9
:10373C0002000040C01683040002010203010000D5
:10374C0018035400650065006E0073007900640076
:10375C00750069006E006F0009024300020100C091
:10376C0032090400000102020100052400100105C9
:10377C002401010104240206052406000107058228
:10378C000310004009040100020A000000070503B1
:10379C00024000000705840240000000160355009B
:1037AC005300420020005300650072006900610064
:1037BC006C000000040309040C030000000000006E
:1037CC0000000000000000000000000000000000ED
:1037DC0000000000BC000020240100208C0100200F
:1037EC0000000000000000000000000000000000CD
:1037FC0000000000000000000000000000000000BD
:10380C0000000000000000000000000000000000AC
:10381C00000000000000000000000000000000009C
:10382C00000000000000000000000000000000008C
:10383C00000000000000000000000000000000007C
:10384C00000000000000000000000000000000006C
:10385C00000000000000000000000000000000005C
:10386C00000000000000000000000000000000004C
:10387C00000000000000000001000000000000003B
:10388C000E33CDAB34126DE6ECDE05000B00000000
:10389C00000000000000000000000000000000001C
:1038AC00000000000000000000000000000000000C
:1038BC0000000000000000000000000000000000FC
:1038CC0000000000000000000000000000000000EC
:00000001FF
