:1000000000200020F900000035300000ED2F000036
:10001000ED2F0000ED2F0000ED2F0000ED2F000070
:10002000ED2F0000ED2F0000ED2F00003530000017
:1000300035300000ED2F0000A5340000A935000088
:10004000353000003530000035300000353000001C
:10005000353000003530000035300000353000000C
:1000600035300000353000003530000035300000FC
:1000700035300000353000003530000035300000EC
:100080006D3000003530000099310000353000003F
:100090006D32000035300000353000003530000092
:1000A00035300000353000003530000035300000BC
:1000B00035300000353000003530000035300000AC
:1000C000353000003530000035300000ED220000F2
:1000D000353000003530000035300000353000008C
:1000E000353000003530000035300000353000007C
:1000F0003530000035300000544B4CF2205210B522
:100100001A804DF628121A8000BF00BF02F096FF39
:100110004F4B504A1A60504A5A60504A136813F4C1
:10012000807304D14E490B604FF4A85313604D4BBC
:100130001A78110703D51A7842F008021A704A4B50
:100140004A492A221A704A4A4A4B8B4204D252F830
:10015000040F43F8040BF8E7474B484900228B4251
:1001600002D243F8042BFAE74549464A002352F8E5
:10017000230041F8230001333E2BF8D1424B434A80
:10018000802103F8011B9342FBD1414B3C4A1A608A
:10019000404B8A221A70A3F5805324225A70A02261
:1001A0001A709A799207FCD59A79D406FCD43A4A07
:1001B000937903F00C03082B374BF9D103221A7102
:1001C00040225A719A799006FCD5334A9179324B84
:1001D0004906FBD5314A3249116002215160202283
:1001E0001A709A7902F00C020C2AFAD12D4B2E4A81
:1001F0001A602E4B2E4A1A6000225A60072243F8DA
:10020000042C2C4AC3F80C2D62B601F05DFF144B90
:100210001B68DA0705D5284801F0C8FD274B284A96
:100220001A60284B1B785B0609D5244C244B2268A6
:100230009A4204D1204801F0B9FD0023236003F065
:10024000DDFC02F001FF02F005FEFEE70E20054096
:1002500038800440823F04000100002B10D003408E
:1002600014D0034002D0074000E0074038EAFF1FE7
:10027000D83E000058E5FF1F38EAFF1F3C1500205C
:1002800000E1FF1F0000000000E400E02EE400E0B9
:1002900008ED00E000500640004006404480044065
:1002A0000000030104800440C010050014E000E0D9
:1002B000FF76010000002020DE91635B1CE003401C
:1002C000A5C3945A00F00740FFFFFFFFFFFFFFFFA9
:1002D000FFFFFFFFFFFFFFFFFFFFFFFFFFFFFFFF2E
:1002E000FFFFFFFFFFFFFFFFFFFFFFFFFFFFFFFF1E
:1002F000FFFFFFFFFFFFFFFFFFFFFFFFFFFFFFFF0E
:10030000FFFFFFFFFFFFFFFFFFFFFFFFFFFFFFFFFD
:10031000FFFFFFFFFFFFFFFFFFFFFFFFFFFFFFFFED
:10032000FFFFFFFFFFFFFFFFFFFFFFFFFFFFFFFFDD
:10033000FFFFFFFFFFFFFFFFFFFFFFFFFFFFFFFFCD
:10034000FFFFFFFFFFFFFFFFFFFFFFFFFFFFFFFFBD
:10035000FFFFFFFFFFFFFFFFFFFFFFFFFFFFFFFFAD
:10036000FFFFFFFFFFFFFFFFFFFFFFFFFFFFFFFF9D
:10037000FFFFFFFFFFFFFFFFFFFFFFFFFFFFFFFF8D
:10038000FFFFFFFFFFFFFFFFFFFFFFFFFFFFFFFF7D
:10039000FFFFFFFFFFFFFFFFFFFFFFFFFFFFFFFF6D
:1003A000FFFFFFFFFFFFFFFFFFFFFFFFFFFFFFFF5D
:1003B000FFFFFFFFFFFFFFFFFFFFFFFFFFFFFFFF4D
:1003C000FFFFFFFFFFFFFFFFFFFFFFFFFFFFFFFF3D
:1003D000FFFFFFFFFFFFFFFFFFFFFFFFFFFFFFFF2D
:1003E000FFFFFFFFFFFFFFFFFFFFFFFFFFFFFFFF1D
:1003F000FFFFFFFFFFFFFFFFFFFFFFFFFFFFFFFF0D
:10040000FFFFFFFFFFFFFFFFFFFFFFFFDEF9FFFF23
:1004100010B5054C237833B9044B13B10448AFF33E
:1004200000800123237010BD38EAFF1F0000000088
:10043000DC3E0000084B10B51BB108490848AFF37B
:1004400000800848036803B910BD074B002BFBD0A0
:10045000BDE81040184700BF000000003CEAFF1F45
:10046000DC3E000038EAFF1F00000000064B074892
:100470001B68074A82B020210193019B96330360D9
:10048000116002B0704700BF8812002064EAFF1FAD
:1004900084F00F40064B07481B68074A82B02021B2
:1004A0000193019B0A330360116002B0704700BFE3
:1004B0008812002064EAFF1F84F00F4038B52A4BF1
:1004C000186003F061F9294903F066FA28490446E7
:1004D00003F06AFB002838D12649204603F064FB6C
:1004E00070B92549204603F05FFBC0BB2046234975
:1004F00003F05AFB70B322494CF25035032403E059
:10050000204946F2A8150324032001F019FD0C210F
:10051000032001F05DFC95FBF4F003F035F9014692
:10052000062001F00DFD4021062001F051FC7F2145
:10053000142001F04DFC8021152001F049FCC02160
:100540000520BDE8384001F043BC46F2A8150E492D
:100550000424D9E746F2A8150C490124D4E746F251
:10056000A8150B490224CFE758E5FF1F001B374CA5
:10057000295C7F40295C3F4052B8FE3F52B8BE3FE5
:1005800000C2224700C2A2460024744600247447D9
:100590000024F446F8B572283BD8DFE800F0575B3A
:1005A000623A683A3A3A3A3A433A3A433A3A3A433A
:1005B0003A433A3A3A3A3A3A3A3A3A3A3A3A3A3A92
:1005C0003A3A3A3A3A3A3A3A3A3A3A3A3A3A3A4382
:1005D00068623A433A3A3A3A3A3A3A3A3A3A3A3A1C
:1005E0003A3A3A3A3A3A3A3A3A3A3A3A3A3A3A3A6B
:1005F0003A3A3A3A3A3A3A3A3A3A3A3A3A3A3A3A5B
:100600003A3A3A3A3A3A3A3A3A3A3A3A3A3A3A3A4A
:1006100044003A4B3A4A18700424002001215C71CE
:1006200098711170F8BD374BCB603748374A4FF49B
:1006300000634B630B63002707261025202401234A
:100640000F614E608D6004601360F8BD2F4B002277
:100650001A60F8BD2C492D4B2020012208601A6039
:10066000F8BD04212A48BDE8F84002F03FBB012054
:1006700002F0C0FB0421274802F038FB0B2126487A
:1006800002F034FB002002F0B5FB022002F0B2FBC6
:100690000321224802F02AFB002002F0ABFB2120BC
:1006A00002F0A8FB002002F0A5FB002002F0A2FB54
:1006B000102002F09FFB002002F09CFB232002F0A0
:1006C00099FB002002F096FB0F2002F093FB4220E2
:1006D00002F090FB402002F08DFB402002F08AFBEC
:1006E000082002F087FB412002F084FB022002F088
:1006F00081FB0020BDE8F84002F07CBB68EAFF1FE8
:1007000061EAFF1F808D5B0084F00F405CEAFF1FF1
:10071000383D0000403D0000483D0000543D0000D1
:100720007B4A1378803B4E2B50D8DFE813F05F00F4
:10073000D200CC00E400A6004F004F004F004F0055
:100740004F004F004F004F004F004F004F004F0031
:100750004F004F004F004F004F004F004F004F0021
:100760004F004F004F004F004F004F004F004F0011
:100770004F004F004F004F004F004F004F004F0001
:100780004F004F004F004F004F004F004F004F00F1
:100790004F004F004F004F004F004F004F004F00E1
:1007A0004F004F004F004F004F004F004F00B2006E
:1007B000B600BD004F007000740078004F00870045
:1007C0008B008F004F009E00A20050007047907871
:1007D0005378127903EB0023A1F85030130715D595
:1007E000CB6B013312D10323CB63704710B4538812
:1007F0005278484C484842EA03234B600133B0FB2F
:10080000F3F3CB60B4FBF3F310BC8B607047537809
:1008100081F842307047537881F8463070479078BD
:100820005378127903EB00231007A1F84C30EDD573
:10083000CB6B0133EAD10123CB637047537881F846
:1008400043307047537881F8473070479078537839
:10085000127903EB00231207A1F84E30D6D5CB6BEB
:100860000133D3D10223CB637047537881F84430EE
:100870007047537881F848307047B2F80300937896
:10088000527843EA002342EA032301339B004B637F
:100890007047537881F841307047537881F845307C
:1008A0004FF0FF33CB63704790785378127903EBA6
:1008B0000023A1F84A301307A8D5CB6B0133A5D18B
:1008C0000023CB637047937803F0010381F85C3019
:1008D0007047B2F80130B2F8032001339B000132B7
:1008E0009200B3F5503F4B630A614A618ED14FF4D9
:1008F000E8234B637047B2F803009378527843EAD9
:10090000002342EA032301339B000B614B617047D4
:1009100068EAFF1F00D8B805006CDC0210B5064B72
:1009200020241C60962001F081FB044B64201C6095
:10093000BDE8104001F07ABB84F00F4088F00F4012
:1009400008B50021022001F06BFB00210E2001F010
:1009500067FB0021072001F063FB0021082001F064
:100960005FFB0021062001F05BFB0021142001F059
:1009700057FB0021152001F053FB0021052001F059
:100980004FFB01210D2001F04BFBFFF7C7FF034890
:10099000FFF794FD024B00221A6008BD006CDC02D8
:1009A0005CEAFF1F38B50E4C2378ABB1012B04D0A5
:1009B000FFF7B4FF0023237038BD0246094883794E
:1009C00045790133DBB29D428371C254F4D1FFF704
:1009D000A7FE0023237038BDBDE83840FFF7DABD1D
:1009E00061EAFF1F68EAFF1F10B412490B6885B067
:1009F000E3B1114802680192019A934216D20F4B5B
:100A00000F4A20241C6003680293029B00200F33CE
:100A1000136008603BB10849096803910399994242
:100A200084BF0023136005B010BC7047044A1368EC
:100A3000F0E700BF64EAFF1F8812002088F00F4033
:100A400054EAFF1F494B826DDFF840C12DE9F04F9A
:100A5000DFF828E1476D464EDFF83491454C01251B
:100A60004FF020080561C3F80080DEF800304FF039
:100A7000080823F00203CEF8003083B0C6F80080E7
:100A800090F845A08DF803A00023924601948CF8BD
:100A900000503D46834690F8416088464F462A46BE
:100AA000184619465446019D9DF80390002E0DD01E
:100AB0003B782B7813F0FB0F25D119463B7803EADE
:100AC00006004845F5D103EB012103E039783B7876
:100AD000090219443B78090219443B78090201EBE9
:100AE0000300397842F8040B3B7803EB01213B7893
:100AF00003EB01213B7803EB0120A24242F8040BF7
:100B00003978E4DB01E04FF001055FFA89F38BF8F7
:100B100041608BF84530DEF800308DF80390DB0340
:100B20000195CBF8584004D5134A136843F080630D
:100B30001360124A1248136843F002031360019BCA
:100B400008250021012B05608CF8001004D10D4A06
:100B50000D4B2020106019600A4B01212022C8F89B
:100B600008101A6003B0BDE8F08F00BF84F00F409A
:100B700084E100E08020074004ED00E010E000E0A8
:100B800004E100E088F00F405CEAFF1F58EAFF1F15
:100B9000D0F00F402DE9F04FC26A8369D0F854803D
:100BA000846D87B00133039111460592013990F8A5
:100BB00041208446C8EB04055803C9B200EB9525D3
:100BC0000491002A00F0D8809B00764A043B202143
:100BD00043441160DFF8E4917349D9F80020734869
:100BE000734E22F002020827C9F800200F609CF81B
:100BF000457002932B466F4D8DF807700022A34677
:100C00000121297037460546114610465E469CF87C
:100C100041E0029A9DF807B04446C246BEF1000F7B
:100C20004ED000BF287800BF00BF00BF00BF00BF8C
:100C300000BF297801EB002000BF00BF00BF00BF4C
:100C4000297801EB002000BF00BF00BF00BF29785A
:100C500001EB002044F8040B9442E3DB287800BF4A
:100C600000BF297801EB0020397811F0FB0F2978BB
:100C700001EB002046D100BF297801EB002044F8A9
:100C8000040BA64298BF5446287801EA0E01594544
:100C9000E7D1297801EB0020A4EBD3225245297833
:100CA00001EB00204FEA435338BF02EBD3222978EF
:100CB00001EB002044F8040BA64298BF4FEA0A0457
:100CC000287800BF00BF00BF297801EB002000BFDB
:100CD00000BF00BF00BF297801EB002000BF00BFAC
:100CE00000BF00BF297801EB002044F8040BA642A6
:100CF00098BF544600BF287800BF00BF00BF944291
:100D0000E2D101E04FF001078DF807B09DF8073000
:100D10008CF845308CF841E00292D9F80020CCF8EC
:100D20005860D303CCF854A004D523490A6842F094
:100D300080620A60214922480A6842F002020A6081
:100D4000082101601B490022012F0A7023D09CF862
:100D50004120DCF818108AB9049B04981044C31A87
:100D6000039A8B4293601CBF01231370154B202202
:100D70001A6007B0BDE8F08F231F2BE7029B9DF898
:100D8000142003EB8103C8EB03084FEAA80802FB19
:100D900008F20323E1E70B480B49202404600A60B2
:100DA000D5E700BF84F00F4084E100E0D0F00F40B1
:100DB0008020074058EAFF1F04ED00E010E000E04B
:100DC00004E100E088F00F405CEAFF1F2DE9F04FDE
:100DD000C36A426DD0F85880476AD0F828E08DB0D9
:100DE00015460B910A93194690F84130059301F18D
:100DF000FF3C1C460192436B90F84520B3FBF1FB8E
:100E00005FFA8CFCB0F84A3007900CF101010492B3
:100E10000393002C00F00981836905EB8309C84521
:100E20004FF0000A40F20381824D834B2A6800266E
:100E300022F002024FEA8B00099006962A607F4A50
:100E4000082010607E480296012425460470324630
:100E5000019CCDF820C00DE0186870B9186860B921
:100E6000186850B9186840B9186830B9186820B9BE
:100E7000186810B918680028EED072481D60006824
:100E800002FA0EF238400139024422D144F8042B10
:100E9000A04517D86C4A127812F0FB0F40F0BD80C5
:100EA0000122019C02920DE01A6872B91A6862B9B7
:100EB0001A6852B91A6842B91A6832B91A6822B95E
:100EC0001A6812B91A68002AEED05E4A1D601268CC
:100ED0006146BAF1010F78D0BAF1050FCAD801A066
:100EE00050F82AF07B0F0000750E00008D0F0000F7
:100EF0000D0F0000FD0E0000190F00000198814544
:100F00007DD209984FF0050A8144B3E74F48202667
:100F100006604FF0040AADE7A145ABD1454B1B6815
:100F2000DB0304D54A4A136843F080631360414AE7
:100F3000484913680B9C424843F002031360079A28
:100F400008230B6093690199526B09EB83035B1AC9
:100F50009DF828109B1001FB03C308995B1A002120
:100F6000A3600170934220469DF80840047024BF9E
:100F70009B1A83600DB0BDE8F08FA1453FF67AAFB4
:100F80003548202606604FF0010A73E703980138C0
:100F900003907FF46FAF0798069EC06B864231DAEC
:100FA0000698079E01300690B2463018069E0AEB5E
:100FB000460A90F8416090F845000490BAF84A005B
:100FC000059603904FF0010A54E7059802EA0006DF
:100FD0000498B0427FF44EAF0398D8B90798069EA4
:100FE000C06B86420EDA0698079E013006903018D4
:100FF00090F8416090F84500059604903AE74FF06C
:10100000050A37E70798089180694FF0030AA4EBB7
:1010100080092FE74FF0020A2CE70C4A0F4B2024DF
:10102000146001220292196078E74FF0040AA8F1D7
:101030000409F9E610E000E00C71034084E100E0EF
:1010400058EAFF1FD0F00F408020074088F00F4083
:1010500004ED00E004E100E084F00F405CEAFF1FD3
:101060002DE9F04F436A90F84120C56AD0F85880C6
:1010700093B04FEA530E90F8403011911446416DF1
:1010800008920D93426B836AB2FBF5F210926A1ECE
:10109000D2B2029390F8453001910E460592511C50
:1010A00009930268B0F84A300B900A920493002C1E
:1010B00000F07081876906EB870398450093A54E81
:1010C00040F26981DFF89C92DFF8C0A2D9F80020D5
:1010D000A14BDFF8BCC2002722F002020820EDB2CB
:1010E0000C970795C9F80020CAF800009B480397A1
:1010F000012404701098059C0F9480000E903A46CD
:10110000069701984FF0FF34BB460DE01F6877B992
:101110001F6867B91F6857B91F6847B91F6837B993
:101120001F6827B91F6817B91F68002FEED04FF04E
:10113000010AC3F800A0DCF800700EEA0707BC4201
:10114000B94600F0CF80002940F0B18040F8042B70
:10115000804508D8824A127812F0FB0F40F01F81B8
:101160000198CDF818A005993A46002900F0A6800C
:101170004FF0000B012900F0C8804C4646F00109F1
:101180004847089D2F40099DBD42CDD1049D002DAB
:1011900040F0DD800B9DEF6B0C9DBD4280F2CD8059
:1011A0000C9D0B9F01352F440C9597F841500895E5
:1011B00097F845500995B7E7049D013D0495B3D1D3
:1011C0000B9DEF6B0C9DBD4280F2B7800C9D0B9F79
:1011D000013507EB050A07EB45090C959AF84150D4
:1011E00008959AF845500995B9F84A5004959BE737
:1011F000009D854298D15B4B1B68DB0304D55A4A9E
:10120000136843F080631360564A58491368119D70
:1012100043F00203136008230B600B990C464A6BE2
:101220008B690399E1610199059C00EB83035B1ACB
:1012300007999B1001FB03430F99484C5B1A93429B
:101240004FF00001AB60217028BF9B1A2C46009A1A
:1012500028BFA3609DF818502570824213460BD01A
:10126000019A9F1ABB1044BF109A9B18079A02FB61
:1012700003F21346119A536013B0BDE8F08F009D3E
:1012800085423FF651AF3A4D20262E60394E4BE74E
:10129000009E019FBE42354644D20E9E35440095C5
:1012A000354E41E7354D20262E60354E3CE7029CF9
:1012B0000139A2403A4400297FF45AAF40F8042B88
:1012C000804507D8264A127812F0FB0F72D101220E
:1012D000019806924FF0000B4C4646F001095A4621
:1012E00007994847BBF1000F04D1029DAA400D9D0C
:1012F00001392A4401323EEA020515D000296FD196
:1013000046F001094FF0010B4847D0F800A00A9CB5
:10131000039D34EA0A0418BF55464C4646F00109BD
:1013200003954847144EFFE679B10D4D2D7815F021
:10133000FB054BD1A146AB461CE70B9D114EAF6997
:101340000F91A0EB87050095EEE6A146B6E70E4E9D
:10135000EAE600BF7E1200000C71034058EAFF1F4E
:101360008020074010E000E004ED00E004E100E030
:1013700084F00F4082110000F011000088F00F404F
:1013800090120000A4120000B811000084E100E0F7
:10139000D0F00F40144EA8F10403009392E6134AD4
:1013A000134B0098CDF818A020241460019A0092E5
:1013B000196020E70D4A0E4B009820211160002291
:1013C0001A60019B00930123069314E70749009AD2
:1013D000074B009020240C600021104619600AE79A
:1013E000A1464FF0010BC5E69012000088F00F40B7
:1013F0005CEAFF1F84B02DE9F04F8DB02B9E09965B
:101400001A9E0A9616AE259CDDF87CE0209F219D51
:101410009DF8B5C0079486E80F001E9B0B939DF8BE
:10142000983000932E9B9DF8B4909B680593002CF8
:10143000C0F2B7800DF1A2030393079B013306931B
:10144000002302934FF0FF3308936FF006030493D9
:10145000009B4FF00108DB4301934E464346DDF805
:10146000249005F1FF3BA8460DF1990A1D46049B07
:10147000059A184699181DE0002E43D1ADB1B1FB75
:10148000F8F208FB1213C3EB0B0359F8222007FBF9
:1014900003F322FA03F303EA0E039AF800209AF802
:1014A000044013409C425ED001250130012801F127
:1014B000010109D0B1F1704FDED916BB013001280E
:1014C000354601F10101F5D1039A029B02320392E4
:1014D000069A01339A4202930AF1010AC7D1059B89
:1014E000089A1946914207D32E9B1B78002B4FD0A8
:1014F0002E9B1A46089B93600DB0BDE8F04F04B0D8
:1015000070470025B1FBF8F408FB1412C2EB0B0284
:1015100059F8243007FB02F2D34003EA0E03BCF172
:10152000000F01D1019A1340009A1A4201D0002500
:10153000BBE7002DB9D008FB1412C2EB0B0259F81F
:10154000244007FB02F324FA03F303EA0E03BCF181
:10155000000FA2D1019A9AF8044013409AF8002093
:1015600013409C42A0D1079B029A93421DD0C31DF9
:101570000BD0039B1B880344002B04934FF0010501
:10158000A2DD6FF0060304939EE7049001259BE71C
:101590000A9B19469142AFD82E9B1A46089B93602E
:1015A000AAE74FF0FF33089399E707300DD0039B6C
:1015B0001B880B4408930B9B022BE7D1059B2E9AAB
:1015C000013B0593936001257EE70891F3E700BF97
:1015D00084B02DE9F04FA1B03F9C1894319C1C942D
:1015E000349C1794369C1B94379C19942AACDDF8D4
:1015F000E0909DF8E9E0DDF8B8B0DDF8CCA0359ECC
:101600009DF8E88084E80F004D469DF804719DF830
:101610000541BEF1000F40F01E81449BB3EB0B036C
:101620001A9300F14681CDF878E0439A002A0DDB49
:101630001A9B4B44013B9D1A48BF199B199A48BFFE
:10164000ED18AA4298BFAD1AC5EB09051A9B199A65
:1016500005EB030909F1FF394A4570D8C2EB0909C6
:101660001B9AAA4211D91B944FF0010B2C46154628
:10167000552001F0BFFB02342A2001F0BBFBA5423C
:10168000F6D81B9CBBF1000F62D0199BB9F1000F7B
:1016900003F1FF35C0F215815FFA8AF31C93DB4337
:1016A0006FEA08021D93731E1F95CDF864804FF0FA
:1016B000550BB0461B9226461D464C46DDF8609001
:1016C00011E0002E40F0A9801B9B03EA0E0E5FFA8A
:1016D0008EF001F08FFB6FEA0B03DBB203F07F0BA0
:1016E00014F1FF3425D3B4FBF8F0179B08FB104E20
:1016F000CEEB050E59F8200003FB0EFE20FA0EFE7D
:101700000EEA0A0E002FDCD15FFA8EF0002E40F0B8
:1017100091801C9B18401D9B0BEA030E7044C0B2C5
:1017200001F068FB6FEA0B0314F1FF345FFA83FBEF
:10173000D9D234461F9D4646DDF864800BE01B9AE3
:10174000AA4205D91B944FF0000B2C4615468FE793
:101750004D464FF0550B1A9B9D4245DB9DF8789006
:10176000CDF8709008EA09031B93731E1993334652
:10177000DDF868905E469B4611E0C0B2002C39D17E
:101780005FFA8AFE00EA0E0026EA0E0E7044C0B22E
:1017900001F030FBF243D6B2013D4D4524DBB5FBF1
:1017A000FBF0199B0BFB105ECEEB030E189B53F85E
:1017B0002000179B03FB0EFE20FA0EF000EA0A0041
:1017C000002FDAD024BB20EA080E4D457CD084B926
:1017D00020EA0800C0B201F00DFBF243D6B2013D91
:1017E0004D4506F07F06DADA21B0BDE8F04F04B0CF
:1017F0007047C0B218EA000F0CD020EA080040F091
:10180000800001F0F7FAF243D6B2002FC4D0E6E729
:101810008646DAE7002FDED1B2E7199B5FFA8EF039
:1018200018423FF456AF1B9B03EA0E0060F07F00A6
:10183000C0B24EE7199B03423FF46BAF1B9B03EA18
:101840000E0060F07F00C0B201F0D4FA6FEA0B0323
:101850005FFA83FB44E742AB50222EA968461493FB
:1018600000F0ACF92AAB0FCBFFF7C4FD449BB3EB00
:101870000B031A9321D4D7B1721E38D4179BDDF80D
:101880005CC0DDF870B002FB03F100235FFA8AF060
:101890009E462BFA01F3034013EA080F02F1FF32D0
:1018A00008BF9E46531CCCEB0101F2D1BBE61E974C
:1018B000BBE61A9B4B441A93B5E61A9B4B441A930A
:1018C000D9E74FF0550B46E71EF0800F3FF47FAF8E
:1018D0001C98002C3FF47FAF1B9B002B3FF47BAF89
:1018E0001E9B23EA080060F07F00C0B273E700236C
:1018F0001E939AE67F4BF0B520221A60436B036378
:10190000B3F5A03F9DB0044640F2A7804FF4A0334A
:1019100001224363026294F85C50002D00F099802C
:1019200022699342A26838BF2361082A00F28380AB
:101930000822B3F5205F22620AD922699A420CBFBD
:101940004FF420534FF4A05323614FF420536363AB
:10195000E26B002A80F29680082100220229E263CD
:101960006FD0042940F0858008220F274FF0883679
:10197000A162E26284F8402010466762266020215E
:101980005D4F94F84120A3631944B1FBF0F607EBD7
:1019900086066163A6656765002A00F08480216978
:1019A0005A1A226100235549B2FBF0F20132A261BA
:1019B0001B930A6852488DF8643042F400024FF0DD
:1019C000FF361A9684F85D3067680A6001684D4AF0
:1019D0004D4E21F00201016013603760116841F043
:1019E00001011160A268052A5FD9082A66D9474912
:1019F0000B7015B1236A072B69D819AD294620460B
:101A0000FFF7E4F9424E336813B994F85C3073B1D0
:101A100095E8070014AB83E80700502204F1100199
:101A2000684600F0CBF894E80F00FFF7D1FD0023E3
:101A300033601DB0F0BDE26B216A002A8DDB022904
:101A40008FD110220326A162E26210466662402115
:101A500096E762690232226163E7B3F5204F02D94B
:101A60000122026257E7B3F5A04F3BD9022202627E
:101A700051E7012906D120226162A162E26210468B
:101A800080217DE704224FF080314FF0FF0E0827C0
:101A900080262160E2621046C4F824E0A76284F840
:101AA000406010216CE722617CE7184B19AD0222DF
:101AB000294620461A70FEF7C5FFA3E7134B19AD60
:101AC0000222294620461A70FFF764F89AE7302A66
:101AD00093D9012319AD84F85D3029462046FFF7DC
:101AE000BFFA8FE7B3F5205F8CBF042208220262A1
:101AF00011E700BF88F00F4070EAFF1F3C800440F0
:101B000000700340087103400071034060EAFF1F4A
:101B10005CEAFF1F2DE9F0439BB00023234E244DC8
:101B2000069308220793089309930E930F938DF859
:101B300048308DF864308DF865308DF84930119358
:101B4000FF2104231B4C1C4F0A92B146A8460C925D
:101B50000B910D9311E033680093009B2A689B1A48
:101B6000B3F5FA6F07D9D9F8003001932368019AC9
:101B7000C8F80020BBB1FEF737FF01F0A9F8002834
:101B800007DD236863B101F07FF802A9C0B2FEF758
:101B900009FF3B68002BDED002A8FFF7ABFEDAE7B7
:101BA000FEF778FCEFE7FEF761FCE4E7881200201F
:101BB0008412002054EAFF1F5CEAFF1F844641EABA
:101BC000000313F003036DD1403A41D351F8043BB5
:101BD00040F8043B51F8043B40F8043B51F8043B07
:101BE00040F8043B51F8043B40F8043B51F8043BF7
:101BF00040F8043B51F8043B40F8043B51F8043BE7
:101C000040F8043B51F8043B40F8043B51F8043BD6
:101C100040F8043B51F8043B40F8043B51F8043BC6
:101C200040F8043B51F8043B40F8043B51F8043BB6
:101C300040F8043B51F8043B40F8043B51F8043BA6
:101C400040F8043B51F8043B40F8043B403ABDD215
:101C5000303211D351F8043B40F8043B51F8043BB7
:101C600040F8043B51F8043B40F8043B51F8043B76
:101C700040F8043B103AEDD20C3205D351F8043B46
:101C800040F8043B043AF9D2043208D0D2071CBF12
:101C900011F8013B00F8013B01D30B88038060463B
:101CA000704700BF082A13D38B078DD010F00303B1
:101CB0008AD0C3F10403D21ADB071CBF11F8013B21
:101CC00000F8013B80D331F8023B20F8023B7BE770
:101CD000043AD9D3013A11F8013B00F8013BF9D29B
:101CE0000B7803704B7843708B7883706046704735
:101CF00010B40F4B53F8302092F880422CB10123DE
:101D000069B182F8803010BC704703EBC0035B6898
:101D10001A6841B922F002021A6010BC704782F8BA
:101D2000003110BC704742F003021A6010BC7047CB
:101D3000583D00001C4A02EBC00301295B6811D02A
:101D400004291BD052F83000002280F8802229B1EB
:101D5000022920D0032922D01A6070474FF48072E4
:101D60001A60704752F830004FF4A27280F8801267
:101D70001A601A6822F020021A60704752F8301078
:101D80004FF4A272012081F880021A601A6842F0B2
:101D900020021A60704740F203121A6070474FF435
:101DA00081721A60704700BF583D000030B4054B87
:101DB000054D064C002210211A602A60206019602F
:101DC00030BC704714D0034004D0034000D003401F
:101DD000002938B5044623DD424B1B78012505FA5E
:101DE00003F28A4202D8212825D938BDC21ED0B2BA
:101DF000012894BF3C483D48006800FB011020FAD0
:101E000003F3142A65D8DFE802F0252C333A646422
:101E100041486464646464646464644F565D1E0095
:101E20002128E2D80021FFF763FF20460121BDE809
:101E30003840FFF77FBF2946FFF75AFF2946BDE824
:101E40003840FFF777BF2A492A4A0B6040F24443E3
:101E5000136038BD2849294A0B604FF45173136051
:101E600038BD2749274A0B604FF45173136038BDC2
:101E70002549264A0B6040F24443136038BD24498B
:101E8000244A0B6040F24443136038BD2249234A80
:101E90000B6040F24443136038BD2149214A0B6076
:101EA00040F24443136038BD1F49204A0B6040F2A2
:101EB0004443136038BD1E491E4A0B6040F2444340
:101EC000136038BD1C491D4A0B6040F24443136047
:101ED00038BD212C89D87F29D4BF0021012120467B
:101EE000A1E700BF5CE5FF1F0890034008800340A6
:101EF0001880034008B00440109003403090044024
:101F00001890034034900440488003401CC00440B3
:101F10003080034010C00440208003400CB00440D7
:101F20002880034010B004403880034014C00440AF
:101F30004080034018C004401080034004B00440B7
:101F40002DE9F8430E4680462C492D4D304601F0D0
:101F50000DFE47F6122300281ABF1D464FF0020956
:101F60004FF00109002425FA04F001F009FC4FF0BC
:101F70005E51074601F05CFC0146304601F00AFE66
:101F800030B90134072CEED1E80901F0F9FB07461E
:101F90003146384601F000FD4FF07C5101F03EFB28
:101FA00001F00CFE4FF6FF729042A8F1030328BF28
:101FB0001046012B15D9B8F1170F10D8114B23FA81
:101FC00008F808F0010383F0010243B10E4B0F4DF6
:101FD0000F491A6044EAC9042A6008601C60BDE821
:101FE000F8830C4B0C4D0D49002244EAC9041A60D9
:101FF0002A6008601C60BDE8F88300BF001BB74082
:10200000006CDC026006F0000080034004800340A6
:102010000880034000900340049003400890034070
:10202000212801D8FFF786BE704700BF2DE9F8438D
:10203000054672B6204F214B214A1B683C68126846
:1020400062B6520102D5322B88BF013495B3C3F575
:10205000BB331C4EDFF86490DFF86480FF334FF42D
:102060007A72A6FB031302FB04F404EB931472B61A
:10207000D9F800103A68D8F800E062B6C1F5BB3371
:10208000FF33A6FB03031EF0806FC4EB93134FF4E2
:102090007A7002D0322988BF013200FB0233B3F5D7
:1020A0007A7F04D3013D05D004F57A74DFE700F0B0
:1020B000D9FEDCE7BDE8F8838812002018E000E0D4
:1020C00004ED00E0ABAAAAAAF8B5224B2249DFF83A
:1020D000A4E0DFF8A4C0214D214C224A224F234E18
:1020E0004FF4807018604FF4007018604FF48060F7
:1020F00018604FF4006018604FF4805018600020A2
:10210000086028234BF6FF71CCF80010CEF80030A1
:102110002B60136023603B603360AB6293620922E3
:1021200044F8242CC7F8D80F04F57F641048C6F88B
:10213000D41FC5F8F83F2360026000F0E1FE3220B2
:10214000FFF774FF00F0FEFC4FF4AF70BDE8F840FD
:10215000FFF76CBF04E100E00480034014800340FB
:10216000248003401C8003402C80034034800340C3
:10217000009003400C80034008800340431E032B63
:1021800014D872B60A4951F8230068B170B4094CEA
:10219000058834F81320466841F82360521B24F860
:1021A000132062B670BC704762B67047002070475B
:1021B000E412002028150020013803280BD872B63D
:1021C000074B53F8203043B100205B680130002BEF
:1021D000FBD162B67047002070471846F9E700BF90
:1021E00038130020F0B472B61A491B4E012311F8BF
:1021F000014B194F9A00240742F0010505D556F806
:10220000324064B156F83520BAB10133052BEED116
:1022100062B6124B00221A70F0BC00F00FBD0F4CDA
:102220000F4D217847F8325007EB431308304A1E10
:102230005860227062B6F0BC70470849094B0A78B2
:1022400047F8353007EBC5030830013A58600A708B
:1022500062B6F0E7683E000000E0FF1F6113002057
:1022600088004000C8004000431E032B1DD81B4AB5
:10227000400140F0100030B4104472B6184CE25CDB
:10228000032A1BD8DFE802F00212151703220D887B
:10229000E25410F0080F14BFC823882343EA054313
:1022A00008310360416062B630BC704708300222DA
:1022B000EDE70522EBE708300422E8E7094A52F887
:1022C000230038B1084A52F82300416042F8231035
:1022D00062B6E9E742F82310034AF7E700E0FF1F80
:1022E0007013002038130020481300202DE9F04F10
:1022F000DFF804A3DFF804B387B044E0A94F4FEA46
:10230000930807EBC809013ED9F8042003F008033D
:10231000F6B2A2F1080003F0FF04002B40F0FE80AB
:1023200057F838301B0C99B222F8081C002B00F02B
:10233000EC809D4B22F8064C42F8044C53F82620C2
:10234000002A00F02B82994D55F826305860984CA1
:1023500045F8260034F81630194424F8161000F019
:102360004DFC002800F01382924A934B19F0080F9D
:1023700000F1080018BF1346C9F8040047F83830C8
:1023800008238AF800309AF80040E4B260071AD5B2
:102390008A4B1B78A3B18A490A7802F0FF0322B165
:1023A000013BDBB20B7003B900BE86490A7802F02C
:1023B000FF032AB1013BDBB20B70002B00F0BD81A3
:1023C00004238AF8003004F0080303F0FF02002B16
:1023D00000F0C8809BF80030DBB21E098ED19C084B
:1023E000704F57F8342007EBC401C2F38302013A5F
:1023F00049680C2A00F28580DFE802F0797983834E
:102400008383838342838383070008686E4B6F4D09
:102410000193684B4A686E4E47F8343081B240F2FF
:102420008164694B6A60286000220120A1421A6021
:102430003A61BA61307000F2E380B1F5D06F80F09C
:102440002782B1F5817F00F0E08100F2C38180290D
:1024500000F03682822940F0DE81A9885D4B01F0D0
:102460007F01042900F2D8815B4C89000B44227063
:1024700062701A78930740F122832070022023E2D1
:10248000514B01931A683AB3544B514E5449188832
:1024900034780D784028864645F0020828BF4FF072
:1024A000400E002C84F001043470CEEB00000CBF11
:1024B0008824C82407EBC80680B285F0010544EAE9
:1024C0000E447260188047F8384072440D7000283E
:1024D00000F0B780019B1A603C4B1A88B2F5A06FE0
:1024E0000FD100219A7859703E4B1A7009E0374A93
:1024F000108842F22102904200F0A8802D4A47F84D
:102500003420394A012313703AE72A4A2A4B19F03A
:10251000080F18BF134647F8383031E700F08EFB3C
:10252000324A334952F82630002B00F03B8158687C
:102530008C5D42F8260003F10802C9F80420032C40
:1025400005D8DFE804F02C02292602228A551A88D1
:1025500019F0080F0CBF8823C82343EA024347F849
:1025600038300DE7E00700F1EB80210600F128810B
:10257000A20706D51F4A204913780220DBB2137048
:102580000870E30602D51C4B10221A7007B0BDE894
:10259000F08F04228A55DAE705228A55D7E703220D
:1025A0008A55D4E700E0FF1FE412002090120020BB
:1025B00028150020C8004000880040006C1300204F
:1025C000F5120020741300208C12002058130020F4
:1025D000F4120020C020074064130020A012002045
:1025E00060130020982007409420074038130020F3
:1025F000701300208820074080200740902007406B
:1026000042F22104A14200F0948043D8B1F5086F52
:1026100000F0A881B1F5106F40F0FD80B84AB94CC8
:10262000A978117004F1800503E00834AC4200F091
:102630009E81236A1906F8D5606A083800F0FEFA10
:10264000F3E7BEF1400F18BF002243E7AE4ACD1DAD
:1026500011F8013B02F8013FA942F9D1AB4A1268D7
:10266000862A00F01181AA49AA4E0A78307882F0B1
:102670000105002842F002020D700CBF8821C8211C
:1026800047F8321007EBC20280F0010000213070E1
:10269000516033E742F22124A14240F0FE81DFF88D
:1026A000BCC29D4B9D49AC78DCF800501D60814652
:1026B0000C700020029080468446044694490D78B0
:1026C00045F0020E07EBCE03B9F1000F5C600CBFC2
:1026D0008824C82444EA080385F0010447F83E3002
:1026E00032700C70DFF81CE28A4BDFF8248200287D
:1026F00040F09880BCF1400F1BD144F0020407EB7E
:10270000C403029FDFF8FCE15F60002A40F09F8075
:10271000020442F0880207444EF8342086F8009004
:102720000D703B46402804D100207D4A019910805D
:102730000B607C4A01231370E3E600F067FB3FE681
:10274000704B784872491A614FF0020E80F800E031
:10275000754F0A70754919609960754E754D764CC4
:102760009A610D213970FF213170DFF8F4E1297091
:102770002270724D724A8EF800109F27012406F8CD
:10278000047C5D600470DA6007B0BDE8F08F6D4ACC
:1027900047F83800137801331370F1E543F8260049
:1027A000694DD4E58B5D032B67D801A252F823F065
:1027B000812300008123000005280000FF2700007E
:1027C00059495C4B80220D2008701A70A2077FF5D2
:1027D000D8AECFE640F20232914240F05681A9884D
:1027E00001F07F01042916D86A88A2B94E4C8900ED
:1027F0000C448146217841F00201217059E7012300
:102800008B55BDE500238B55BAE5A98801F07F0102
:10281000042940F24781444B0F221A70414A012398
:1028200013706EE640287FF668AF44F002040EEBAA
:10283000C401029E4E60AAB1444A83F80090334618
:10284000403888F8005040334EF834206DE70204D9
:10285000029B86F8009042F0C8020D7003444EF8C7
:1028600034205FE783F80090029B304A88F80050DC
:10287000403840334EF8342057E719F0080F0CBFAA
:10288000022303238B557BE5314A0F211170EAE6C1
:10289000304A5468002CBED06888B5F804E003E0E4
:1028A0000C325468002CB6D013888342F8D1538878
:1028B0007345F5D1000A03280CBF2078108903E086
:1028C000254C022022706270EA88824280F00C81DE
:1028D0000F490D78402A45F0020E944607EBCE00D2
:1028E00028BF4FF0400C04EB0C0344600293CCEB88
:1028F00002004FEA0C484FF001090022C824E9E623
:102900006C13002000E0FF1F2F1500203015002061
:1029100060130020F41200203815002084130020DA
:10292000A012002094200740C020074088004000EB
:10293000882007408020074098200740A4120020EC
:10294000F81200206113002090120020C8004000FF
:10295000F51200206C3E0000641300208812002055
:102960008C200740684A694C12782270ACE76849AD
:10297000684B694A02916949694C6A4D039405960E
:102980004FF0000988461C4616460495206828B179
:10299000456800F053F92846002DF9D10023236043
:1029A000049B30681A46002342F8293028B1456854
:1029B00000F044F92846002DF9D100223260029A35
:1029C00098F800301146002241F8042B039A029136
:1029D000023B4FF0000122F81910032B07D8DFE863
:1029E00003F0340234024FF0010388F8003009F19B
:1029F0000109B9F1040F04F1040406F1040608F119
:102A00000108C3D1484B059EDFF83091DFF83081D3
:102A100000211970012518F8013B09F8043B1A0739
:102A200018D4AC0044F0020244F00304002347F839
:102A3000323047F834303D4B994505F10105EAD174
:102A400096F8009089F0010233E64FF0000388F811
:102A50000030CCE700F0D2F8AC0007EB451300F1F2
:102A60000802002837D05A60314B47F8343000F064
:102A7000C5F844F0010307EBC30200F1080100B3FD
:102A800051602C4A47F83320CCE7B1F5A06F7FF4B2
:102A9000C2AE00224FF001090BE642F22132914210
:102AA000F7D0B8E66A88002A7FF4B5AE224C8900D8
:102AB0000C448146217821F002012170F9E50220C1
:102AC00002E7194B44F001021B7847F83200164A1E
:102AD00001331370A6E7144B134A1B78AC00013383
:102AE00047F834001370C2E74028844628BF4FF0EF
:102AF000400C04EB0C03CCEB00004FEA0C480293B3
:102B000000224FF00109D9E56C1300206413002066
:102B100048130020E4120020381300207013002016
:102B2000281500209012002061130020D4200740B7
:102B300088004000C8004000C0200740C420074073
:102B4000683E00002DE9F843204C00F0FBFB00221A
:102B500004F1880023461A605A60083383424FF01C
:102B60000001F8D11A4A1B4F13681B4D1B481C4E1D
:102B7000DFF87880DFF878C0DFF87890DFF878E069
:102B800043F480231360C4F307233B70C4F307436B
:102B90002B70240EFF2302F528320470114D88F8A3
:102BA000003011488CF80030D4323370012389F89A
:102BB000003070268EF800100824102107F8183C09
:102BC0002E7004601170BDE8F88300BF00E0FF1FA5
:102BD000348004409C200740B0200740B4200740C8
:102BE0001020074023E400E004E100E080200740DB
:102BF00088200740942007400021074072B60D4806
:102C00000268B2FA82F30B2B10DC4FF00041D9407E
:102C100022EA0102026062B6074803EBC303DB004D
:102C2000C2180021C15010465160704762B60020A2
:102C3000704700BF60E5FF1FF8E1FF1F0D4B0E4A14
:102C4000C31AA2FB03231B090B2B0CD80B4A1278C7
:102C500052B972B60A484FF00041026821FA03F3F4
:102C60001A43026062B67047064A1278002AF0D012
:102C7000FFF7B8BAF8E1FF1F398EE338611300207F
:102C800060E5FF1F6C13002038B50F4D286878B140
:102C900043880288C118013393420C7A02D24380E0
:102CA000204638BDFFF7CAFF002320462B6038BD01
:102CB000064B1B782BB10320FFF760FA2860002831
:102CC000E6D14FF0FF3038BD801300206C13002098
:102CD000044B054A1B6890881BB11A885B88D31A7D
:102CE0001844704780130020281500202DE9F04F6C
:102CF000DFF8F89083B0012289F80020019169B3D0
:102D0000DFF8EC80364F019E8346D8F80000B0B360
:102D1000344D4488C4F14001B14228BF314604EB30
:102D2000010E00221FFA8EFE2A70761AA0F802E029
:102D300000F1080251B1013C224459441BF8014BF7
:102D400002F8014F8B45F9D1B0F802E0BEF13F0F18
:102D50000BD8254A05211170002ED6D101980023E9
:102D600089F8003003B0BDE8F08F402202800146B0
:102D70000420FFF779FA0022C8F80020E9E73A7842
:102D80002AB3184D4AF2F9244FF0010A07E0013C3A
:102D900016D02A78A2B900F065F83A78BAB10420C2
:102DA000FFF70AFA0728F2D889F800A0FFF726FFF4
:102DB000C8F800000028ACD10C4B013C1870E8D1D9
:102DC00001234FF0FF302B7003B0BDE8F08F0023DC
:102DD0004FF0FF3089F8003003B0BDE8F08F00BF3E
:102DE0006C1300207C130020741300207513002046
:102DF0007813002000B583B002AB012103F8010D68
:102E00001846FFF773FF03B05DF804FB38B50E4BAF
:102E10001B7873B90D4C216861B103F0FF054B8835
:102E20000B800420FFF720FA256038BD084B0122F3
:102E30001A7038BDFFF7E2FE0028F7D00146BDE862
:102E400038400420FFF710BA7513002078130020D3
:102E50007413002008B5FDF773FDFEF75BFE00F06C
:102E600001F8FAE738B5224C237803B138BD0123C5
:102E70002370FFF72DFF70BB00F0E8F840BB00F0B7
:102E80007BF910BB00F0E2F9E0B900232370EFF307
:102E90000583002BEAD1EFF3108172B6154B186849
:102EA000E0B1154C2278CAB945691D600123237031
:102EB000C5B1AA6101B962B6002545778368984714
:102EC0002570D3E700F07CFBDFE700F077FBD9E764
:102ED00000F072FBD3E700F075FBCDE70029C5D108
:102EE00062B638BD054B1D600029E5D1E3E700BFA0
:102EF000851300201C150020201500201815002027
:102F000010B43048304A314BE12160240470117014
:102F10001B782F49082B37D00A2B3BD00C2B3FD0E6
:102F20002C4B3D20122208601A602B4B1B78ABB152
:102F30002A4B01221A602A4B1B78012B14D9042B2F
:102F40001AD9082B35D9102B264B94BF86228722FD
:102F50001A60254B01221A7010BC70471F4A13607B
:102F60001F4B1B78012BEAD81E4B80221A601E4B88
:102F700001221A7010BC70471A4B84221A601A4B37
:102F800001221A7010BC7047124B012013220860F6
:102F90001A60CAE70F4B3920132208601A60C4E791
:102FA00003F1804303F56C333520122208601A6068
:102FB000BBE70C4B85221A600B4B01221A7010BC28
:102FC000704700BF004007400140074064E5FF1F15
:102FD00008B003400CB003408713002020B003402A
:102FE00065E5FF1F24B003408613002008B5104C90
:102FF00008E0236859050DD423681A050FD4236807
:10300000DB0411D423685803F3D5FFF76FF9236865
:103010005905F1D500F02AF823681A05EFD500F01C
:10302000BBF82368DB04EDD500F020F9EAE700BF28
:103030003480044008B5FFF7D9FF00BF014B1022D0
:103040001A80704700200540704700BF054A064BB4
:1030500010781B78C0B2DBB2984238BF4030C01A3B
:10306000704700BF8C1300208D130020F0B4384B44
:103070001A7912F0300F2CD072B6997D01F0FF0250
:1030800000293DD062B6334F334938780D78334E3E
:103090001C46C0B2EDB2431C402BE17928BF00238F
:1030A000AB4202F1FF32C9B21CBFF154184612F014
:1030B000FF02F0D12A4B1B68C2B23A704BB1A84252
:1030C00036BFC5F14005401B40192728C4BF012267
:1030D0001A701F49CA78D2B2150616D452060DD5F9
:1030E0001B4B1B795B0609D51E4B1F491B68002231
:1030F0000A7003B11A70164B3C22DA70F0BC7047AC
:103100004022D9795A7462B6E3E70B791C06E5D5FB
:10311000164B174E1C783378E4B2DBB29C420ED0CB
:10312000144D01E0A3420AD00133402B28BF0023F5
:103130000879E85CC0B2C871087D0728F2D9DBB213
:10314000034933700B79180644BF7C23CB70C5E765
:1031500000A006408C1300208D130020D013002007
:1031600088130020141400201014002018140020CC
:103170001114002090130020054A064B10781B788C
:10318000C0B2DBB2984238BF4030C01A704700BFAF
:10319000191400201A14002030B4234B1A79940615
:1031A0000FD52249DA790B78214801333F2B00787B
:1031B000C8BF00238342D2B203D01E4CD8B2E2541F
:1031C0000870194AD378DBB2180611D45A060DD507
:1031D000154B1B795B0609D5174B18491B68002254
:1031E0000A7003B11A70104B2C22DA7030BC704791
:1031F00011790906EAD5124912480C780178C9B24A
:103200008C420DD04A1C272A84BF00210A460E4D4D
:10321000054C98BFD1B2AA5CD2B2E2710170D5E779
:103220006C21D170D2E700BF00B006401914002015
:103230001A14002044140020881400208414002054
:103240008C140020851400201C140020054A064B15
:1032500010781B78C0B2DBB2984238BF4030C01A39
:10326000704700BF941400209514002030B42B4BFD
:103270001A7994061FD52A48DA7903782949013347
:103280003F2B0978C8BF00238B42D2B203D0264C13
:10329000D9B2E2540170254A116861B1244A12780A
:1032A000D2B2934236BFC2F140029B1A9B18272B21
:1032B000C4BF01230B70194AD378DBB2180611D4AE
:1032C0005A060DD5154B1B795B0609D5194B1A49C2
:1032D0001B6800220A7003B11A70104B2C22DA709E
:1032E00030BC704711790906EAD5144910480C78AA
:1032F0000178C9B28C420DD04A1C272A84BF002114
:103300000A460F4D054C98BFD1B2AA5CD2B2E27109
:103310000170D5E76C21D170D2E700BF00C0064034
:103320009414002095140020C01400209014002054
:1033300001150020041500200015002008150020AC
:103340009814002070B584B072B6194B194D1A4804
:10335000702241260F2480211A702E701A460470A4
:10336000197013781B06FCD5144B186862B6144B01
:10337000144C984298BF00EB800001A998BF400010
:103380000A2200F021F901A92046002311F8012B9F
:1033900001333AB10A2B20F8022FF7D116232370FC
:1033A00004B070BD5B00DBB2237004B070BD00BF21
:1033B00000000240070002400600024008000240F0
:1033C0007F969800F4E5FF1F10B4EFF3108272B6F9
:1033D000437F33B9017F012907D003290FD001238F
:1033E000437702B962B610BC7047124C2168A1B194
:1033F000114943610B68836108605861EFE70F4C26
:10340000216881B10E4943610B688361086058618E
:103410000C4B4FF080511960E1E7074B416181612E
:1034200020601860DBE7064B416181612060186015
:10343000EEE700BF1C150020181500200C15002019
:103440001015002004ED00E010B4047F4160022C50
:10345000C26002D010BCFFF7B7BF836810BC18472A
:1034600070B5EFF3108272B60C4C206880B10C4E30
:1034700000254369236073B19D6102B962B6457747
:1034800083689847EFF3108272B620680028F0D165
:1034900002B962B670BD3360EFE700BF0C150020C3
:1034A00010150020FFF7DCBF184A30B41468002C58
:1034B00027D0036821688B420ED2CB1A002184608A
:1034C000C1602360E06010600223037530BC704768
:1034D00011688B42144608D3A2685B1A0360002A65
:1034E000F6D18260C460A060EEE7D268C2608460FA
:1034F000E060C568CB1A0222A8602360027530BC68
:1035000070478460C4601060DEE700BF14150020BF
:10351000F8B5224E34682CB32368002B3AD1204FE3
:103520001D4604E03468ECB12368002B32D1A36857
:1035300003B1DD6020693360036825751B68BB42F9
:1035400021D1037F4560022BC46020D0FFF73CFFF0
:103550006368002BE6D023602046FFF7A5FF3468A0
:10356000002CE1D1EFF3108372B60E4A00211068EF
:10357000116003B962B628B18468FFF795FF204651
:103580000028F9D1F8BD224600219847E0E783687A
:103590009847DDE7013B2360E4E700BF14150020F6
:1035A0004934000024150020024A136801331360D7
:1035B000FFF7AEBF88120020704700BF704700BF02
:1035C000704700BF704700BFF0B44D1E2E46002468
:1035D00000E00134B0FBF2F302FB1300092800F114
:1035E00030078ABF3730F8B2C0B206F8010F18466C
:1035F000002BEED10A1953704CB1107815F8016FF9
:1036000028700133E01A834202F80169F5DB0846AD
:10361000F0BC704780F0004002E000BF81F0004144
:1036200042001FBF5FEA410392EA030F7FEA226C68
:103630007FEA236C6AD04FEA1262D2EB1363C1BFF8
:10364000D218414048404140B8BF5B42192B88BF67
:10365000704710F0004F40F4000020F07F4018BF8A
:10366000404211F0004F41F4000121F07F4118BFAA
:10367000494292EA030F3FD0A2F1010241FA03FC52
:1036800010EB0C00C3F1200301FA03F100F000433A
:1036900002D5494260EB4000B0F5000F13D3B0F102
:1036A000807F06D340084FEA310102F10102FE2A71
:1036B00051D2B1F1004F40EBC25008BF20F00100E1
:1036C00040EA03007047490040EB000010F4000F8F
:1036D000A2F10102EDD1B0FA80FCACF1080CB2EB22
:1036E0000C0200FA0CF0AABF00EBC2505242184381
:1036F000BCBFD0401843704792F0000F81F4000126
:1037000006BF80F400000132013BB5E74FEA4103F8
:103710007FEA226C18BF7FEA236C21D092EA030F64
:1037200004D092F0000F08BF0846704790EA010FDE
:103730001CBF0020704712F07F4F04D1400028BF0B
:1037400040F00040704712F100723CBF00F50000ED
:10375000704700F0004343F0FE4040F40000704723
:103760007FEA226216BF08467FEA236301464202CF
:1037700006BF5FEA412390EA010F40F480007047E2
:103780004FF0000304E000BF10F0004348BF404288
:103790005FEA000C08BF704743F0964301464FF0C4
:1037A00000001CE050EA010208BF70474FF0000320
:1037B0000AE000BF50EA010208BF704711F0004361
:1037C00002D5404261EB41015FEA010C02BF844631
:1037D0000146002043F0B64308BFA3F18053A3F590
:1037E0000003BCFA8CF2083AA3EBC25310DB01FAD7
:1037F00002FC634400FA02FCC2F12002BCF1004F5B
:1038000020FA02F243EB020008BF20F001007047EB
:1038100002F1200201FA02FCC2F1200250EA4C003F
:1038200021FA02F243EB020008BF20EADC70704785
:103830004FF0FF0C1CEAD0521EBF1CEAD15392EA93
:103840000C0F93EA0C0F6FD01A4480EA010C40026F
:1038500018BF5FEA41211ED04FF0006343EA5010C9
:1038600043EA5111A0FB01310CF00040B1F5000F0B
:103870003EBF490041EAD3715B0040EA010062F1BA
:103880007F02FD2A1DD8B3F1004F40EBC25008BFA4
:1038900020F00100704790F0000F0CF0004C08BFC2
:1038A00049024CEA502040EA51207F3AC2BFD2F18F
:1038B000FF0340EAC250704740F400004FF000039D
:1038C000013A5DDC12F1190FDCBF00F000407047D7
:1038D000C2F10002410021FA02F1C2F1200200FA15
:1038E00002FC5FEA310040F1000053EA4C0308BFDC
:1038F00020EADC70704792F0000F00F0004C02BF2D
:10390000400010F4000F013AF9D040EA0C0093F0A7
:10391000000F01F0004C02BF490011F4000F013B01
:10392000F9D041EA0C018FE70CEAD15392EA0C0F6F
:1039300018BF93EA0C0F0AD030F0004C18BF31F0DA
:10394000004CD8D180EA010000F00040704790F0B0
:10395000000F17BF90F0004F084691F0000F91F054
:10396000004F14D092EA0C0F01D142020FD193EA1A
:103970000C0F03D14B0218BF084608D180EA0100A2
:1039800000F0004040F0FE4040F40000704740F07E
:10399000FE4040F4400070474FF0FF0C1CEAD0524C
:1039A0001EBF1CEAD15392EA0C0F93EA0C0F69D0A8
:1039B000A2EB030280EA010C49024FEA402037D013
:1039C0004FF0805343EA111143EA10130CF000400A
:1039D0008B4238BF5B0042F17D024FF4000C8B42FA
:1039E00024BF5B1A40EA0C00B3EB510F24BFA3EBDA
:1039F000510340EA5C00B3EB910F24BFA3EB9103AA
:103A000040EA9C00B3EBD10F24BFA3EBD10340EA03
:103A1000DC001B0118BF5FEA1C1CE0D1FD2A3FF649
:103A200050AF8B4240EBC25008BF20F001007047FE
:103A30000CF0004C4CEA50207F32C2BFD2F1FF03A1
:103A400040EAC250704740F400004FF00003013AD2
:103A500037E792F0000F00F0004C02BF400010F476
:103A6000000F013AF9D040EA0C0093F0000F01F08A
:103A7000004C02BF490011F4000F013BF9D041EAAC
:103A80000C0195E70CEAD15392EA0C0F08D14202DF
:103A90007FF47DAF93EA0C0F7FF470AF084676E7B2
:103AA00093EA0C0F04D14B023FF44CAF08466EE78B
:103AB00030F0004C18BF31F0004CCAD130F0004259
:103AC0007FF45CAF31F000437FF43CAF5FE700BFB1
:103AD0004FF0FF3C06E000BF4FF0010C02E000BFDA
:103AE0004FF0010C4DF804CD4FEA40024FEA41037C
:103AF0007FEA226C18BF7FEA236C11D001B052EA32
:103B0000530C18BF90EA010F58BFB2EB030088BFF7
:103B1000C81738BF6FEAE17018BF40F00100704766
:103B20007FEA226C02D15FEA402C05D17FEA236C48
:103B3000E4D15FEA412CE1D05DF8040B704700BF8F
:103B4000844608466146FFE70FB5FFF7C9FF002826
:103B500048BF10F1000F0FBD4DF808EDFFF7F4FF5F
:103B60000CBF012000205DF808FB00BF4DF808EDF8
:103B7000FFF7EAFF34BF012000205DF808FB00BF1B
:103B80004DF808EDFFF7E0FF94BF012000205DF83D
:103B900008FB00BF4DF808EDFFF7D2FF94BF0120EE
:103BA00000205DF808FB00BF4DF808EDFFF7C8FFE7
:103BB00034BF012000205DF808FB00BF42000ED298
:103BC000B2F1FE4F0BD34FF09E03B3EB126209D458
:103BD0004FEA002343F0004323FA02F070474FF00E
:103BE0000000704712F1610F01D1420202D14FF083
:103BF000FF3070474FF00000704700BF70B50F4EA8
:103C00000F4D761BB61018BF002405D0013455F8AF
:103C1000043B9847A642F9D10A4E0B4D761B00F0A3
:103C200051F9B61018BF002406D0013455F8043BF2
:103C30009847A642F9D170BD70BD00BFD03E0000CC
:103C4000D03E0000D83E0000D03E0000024B13B131
:103C5000024800F005B87047000000006D3C00000D
:103C6000002301461A46184600F014B838B5074D2F
:103C7000074C2C1BA41005D0013C55F8043D984777
:103C8000002CF9D1BDE8384000F026B90000000052
:103C9000000000002DE9F047254C2568D5F8484183
:103CA0000646884692469946C4B360681F2817DCCA
:103CB000431C76B104EB80050122C5F888A0D4F836
:103CC000881182401143022EC4F88811C5F808916A
:103CD0001ED00230636044F820800020BDE8F087E9
:103CE000144B03B34FF4C870AFF300800446D0B157
:103CF000D5F84831002780E88800C5F848413846A3
:103D00000123C4F88871C4F88C71002EE1D0D1E78A
:103D1000D4F88C110A43C4F88C21DAE705F5A674AF
:103D2000C5F84841C1E74FF0FF30BDE8F08700BF5C
:103D3000C03E00000000000031414C530000000074
:103D400044656D6F000000005465656E7379333013
:103D50005F393600342E30004008FE4340A0044056
:103D60004408FE4344A004400018FE4300C0044041
:103D70003000FE43309004403400FE433490044051
:103D80001C18FE431CC004401018FE4310C0044021
:103D90000818FE4308C004400C18FE430CC0044041
:103DA0000C10FE430CB004401010FE4310B0044051
:103DB0001810FE4318B004401C10FE431CB0044011
:103DC0001410FE4314B004400418FE4304C0044021
:103DD0000010FE4300B004400008FE4300A0044071
:103DE0000408FE4304A004400C08FE430CA0044059
:103DF0000808FE4308A004401418FE4314C0044001
:103E00001818FE4318C004400410FE4304B00440D8
:103E10000810FE4308B004401400FE431490044010
:103E20004C08FE434CA004400420FE4304D0044050
:103E30002410FE4324B004402010FE4320B0044070
:103E40002810FE4328B004402C10FE432CB0044040
:103E50000020FE4300D004404808FE4348A0044030
:103E60001000FE43109004400015191500010000D9
:103E700068E5FF1F120000000002000094E5FF1F2C
:103E80004300000000030000F0E5FF1F00000000F9
:103E9000010309047CE5FF1F000000000203090480
:103EA000D8E5FF1F0000000003030904F4E5FF1F2D
:103EB0000000000000000000000000000000000002
:103EC00010E6FF1FF8B500BFF8BC08BC9E4670475F
:083ED0004D3C00003504000028
:043ED800F8B500BF7A
:103EDC00006CDC0208000000FFFFFFFF0A0400007A
:103EEC001201010102000040C0168304000201020D
:103EFC000301000018035400650065006E00730098
:103F0C0079006400750069006E006F0009024300BF
:103F1C00020100C032090400000102020100052464
:103F2C0000100105240101010424020605240600E9
:103F3C00010705820310004009040100020A000079
:103F4C000007050302400000070584024000000042
:103F5C001603550053004200200053006500720008
:103F6C00690061006C000000040309040C030000EC
:103F7C000000000000000000000000000000000035
:103F8C00000000000000000000000000FCE8FF1F23
:103F9C0064E9FF1FCCE9FF1F0000000000000000D7
:103FAC000000000000000000000000000000000005
:103FBC0000000000000000000000000000000000F5
:103FCC0000000000000000000000000000000000E5
:103FDC0000000000000000000000000000000000D5
:103FEC0000000000000000000000000000000000C5
:103FFC0000000000000000000000000000000000B5
:10400C0000000000000000000000000000000000A4
:10401C000000000000000000000000000000000094
:10402C000000000000000000000000000000000084
:10403C0001000000000000000E33CDAB34126DE621
:10404C00ECDE05000B00000000000000000000008A
:10405C000000000000000000000000000000000054
:10406C000000000000000000000000000000000044
:10407C000000000000000000000000000000000034
:10408C000000000000000000000000000000000024
:00000001FF
