:1000000000180020C10000005D2C0000212C000021
:10001000212C0000212C0000212C0000212C0000AC
:10002000212C0000212C0000212C00005D2C000060
:100030005D2C0000212C00005D2C0000112C000024
:100040005D2C00005D2C00005D2C00005D2C00008C
:100050005D2C00005D2C00005D2C00005D2C00007C
:100060005D2C00005D2C00005D2C00005D2C00006C
:1000700035310000D13500006D3A00005D2C0000E4
:100080005D2C00005D2C00005D2C00005D2C00004C
:100090005D2C00005D2C00005D2C00005D2C00003C
:1000A000E91F00005D2C00005D2C00005D2C0000AD
:1000B0005D2C00005D2C00005D2C00005D2C00001C
:1000C000F8B502F0CFFD494A494B1A60494A4A4BFC
:1000D0001A604A4A4A4B1A604A4B08221978114260
:1000E00002D019780A431A70474B2A22474C4848D5
:1000F00048491A7000231A19824203D2CD5804339A
:100100001560F8E7444B45490022181D043B8B421B
:1001100002D21A60031CF8E7414A424900235858AA
:10012000944698500433C02BF9D100230326FF25B1
:1001300080249A083C4992005218191C3140C90089
:1001400010682F1C8F40B843071C201C8840011CDE
:10015000394301331160202BEBD1344B61461960D8
:10016000334B8A221A70334B24225A70A0221A7001
:10017000022299791142FCD0102299791142FCD1C6
:100180000C2198792B4A08400828FAD103211171D3
:1001900040215171202299791142FCD04022997955
:1001A0001142FCD02449254A1160224A20211170B5
:1001B0000C22997911400C29FBD1214A214B1A605C
:1001C000214A224B1A60224B00221A60214B07223F
:1001D0001A60214A214B1A6062B601F0C3FD03F098
:1001E00055FF02F045FD02F059FCFEE7300004F037
:1001F00034800440823F0000388004400100000F3A
:100200003C80044002D0074000E0074060FDFF1F33
:1002100038020020404700003C0200206815002002
:1002200000F9FF1F0000000000E400E008ED00E01E
:100230000050064000400640000001104480044089
:10024000C0000505048004407FBB000014E000E00E
:1002500018E000E010E000E00000202020ED00E0C9
:10026000FFFFFFFFFFFFFFFFFFFFFFFFFFFFFFFF9E
:10027000FFFFFFFFFFFFFFFFFFFFFFFFFFFFFFFF8E
:10028000FFFFFFFFFFFFFFFFFFFFFFFFFFFFFFFF7E
:10029000FFFFFFFFFFFFFFFFFFFFFFFFFFFFFFFF6E
:1002A000FFFFFFFFFFFFFFFFFFFFFFFFFFFFFFFF5E
:1002B000FFFFFFFFFFFFFFFFFFFFFFFFFFFFFFFF4E
:1002C000FFFFFFFFFFFFFFFFFFFFFFFFFFFFFFFF3E
:1002D000FFFFFFFFFFFFFFFFFFFFFFFFFFFFFFFF2E
:1002E000FFFFFFFFFFFFFFFFFFFFFFFFFFFFFFFF1E
:1002F000FFFFFFFFFFFFFFFFFFFFFFFFFFFFFFFF0E
:10030000FFFFFFFFFFFFFFFFFFFFFFFFFFFFFFFFFD
:10031000FFFFFFFFFFFFFFFFFFFFFFFFFFFFFFFFED
:10032000FFFFFFFFFFFFFFFFFFFFFFFFFFFFFFFFDD
:10033000FFFFFFFFFFFFFFFFFFFFFFFFFFFFFFFFCD
:10034000FFFFFFFFFFFFFFFFFFFFFFFFFFFFFFFFBD
:10035000FFFFFFFFFFFFFFFFFFFFFFFFFFFFFFFFAD
:10036000FFFFFFFFFFFFFFFFFFFFFFFFFFFFFFFF9D
:10037000FFFFFFFFFFFFFFFFFFFFFFFFFFFFFFFF8D
:10038000FFFFFFFFFFFFFFFFFFFFFFFFFFFFFFFF7D
:10039000FFFFFFFFFFFFFFFFFFFFFFFFFFFFFFFF6D
:1003A000FFFFFFFFFFFFFFFFFFFFFFFFFFFFFFFF5D
:1003B000FFFFFFFFFFFFFFFFFFFFFFFFFFFFFFFF4D
:1003C000FFFFFFFFFFFFFFFFFFFFFFFFFFFFFFFF3D
:1003D000FFFFFFFFFFFFFFFFFFFFFFFFFFFFFFFF2D
:1003E000FFFFFFFFFFFFFFFFFFFFFFFFFFFFFFFF1D
:1003F000FFFFFFFFFFFFFFFFFFFFFFFFFFFFFFFF0D
:10040000FFFFFFFFFFFFFFFFFFFFFFFFFEFFFFFFFD
:1004100010B5064C2378002B07D1054B002B02D0DA
:10042000044800E000BF0123237010BD3802002003
:10043000000000004047000008B5084B002B03D027
:100440000748084900E000BF07480368002B03D0B5
:10045000064B002B00D0984708BDC04600000000A6
:10046000404700003C02002038020020000000004D
:1004700038B5041C0D1C4A080020A24200D8ECE04C
:100480008A081020944200D3E7E0081C062103F0FC
:100490008FFD031C20209C4200D3DEE0EA083020C0
:1004A000944200D3D9E0281C0A2103F081FD031CEB
:1004B00040209C4200D3D0E0281C0C2103F078FDA2
:1004C000031C50209C4200D3C7E0281C0E2103F0DF
:1004D0006FFD031C60209C4200D3BEE02A097020FF
:1004E000944200D3B9E0281C142103F061FD031CE1
:1004F00041209C4200D3B0E0281C182103F058FD95
:10050000031C51209C4200D3A7E0281C1C2103F0AF
:100510004FFD031C61209C4200D39EE06A097120BC
:10052000944200D399E0281C282103F041FD031CCC
:1005300042209C4200D390E0281C302103F038FD7B
:10054000031C52209C4200D387E0281C382103F072
:100550002FFD031C62209C427FD2AA097220944284
:100560007BD2281C502103F023FD031C43209C4216
:1005700073D2281C602103F01BFD031C53209C42F6
:100580006BD2281C702103F013FD031C63209C42D6
:1005900063D2EA09732094425FD2281CA02103F0A1
:1005A00007FD031C44209C4257D2281CC02103F0A5
:1005B000FFFC031C54209C424FD2281CE02103F076
:1005C000F7FC031C64209C4247D22A0A7420944200
:1005D00043D2281CA021490003F0EAFC031C45205B
:1005E0009C423AD2281CC021490003F0E1FC031CC4
:1005F00055209C4231D2281CE021490003F0D8FC50
:10060000031C65209C4228D26A0A7520944224D299
:10061000281CA021890003F0CBFC031C46209C422F
:100620001BD2281CC021890003F0C2FC031C5620E9
:100630009C4212D2281CA021C90003F0B9FC031C63
:1006400047209C4209D2281CA021090103F0B0FCDC
:10065000031C78209C4200D3482038BD10B5722876
:1006600000D9A1E08300554AD3589F460022544B3D
:100670001A60A2E0534803685B6853490422984714
:100680009BE02022514B1A6001224D4B1A6094E0EE
:100690004C4C23681B68201C0121984723685B6829
:1006A000201C4B490822984723685B68201C494955
:1006B0000A22984723681B68201C0021984723685A
:1006C0001B68201C0221984723685B68201C424954
:1006D0000322984723681B68201C00219847236841
:1006E0001B68201C2121984723681B68201C0021BF
:1006F000984723681B68201C0021984723681B68C3
:10070000201C1021984723681B68201C0021984753
:1007100023681B68201C2321984723681B68201C22
:100720000021984723681B68201C0F2198472368E5
:100730001B68201C4221984723681B68201C40210D
:10074000984723681B68201C4021984723681B6832
:10075000201C0821984723681B68201C41219847CA
:1007600023681B68201C0221984723681B68201CF3
:100770000021984721E080231B01184A1360184A82
:1007800013600022174B1A600722174B1A60174A92
:10079000174B1A601022174B1A6020220B4B1A605D
:1007A0000122074B1A6008E0134B187004225A719B
:1007B00000229A710122114B1A7010BDFC410000F9
:1007C000680200209413002028440000840000F8F0
:1007D000304400003C4400004844000088120020DF
:1007E00054020020600200206C020020C0C62D00D0
:1007F00058020020700200208C12002065020020A8
:1008000008B53F4B1B78DAB2812A13D002D8802A70
:100810005ED073E0DAB2C02A02D0C12A05D06DE002
:10082000374B5A78374B1A7068E0354B5A78364B4D
:100830001A7063E0324B9A78120259780A430132F7
:10084000920032490A6019790902DB78194389005C
:1008500006312F4B1960D0239B029A4204D1E82223
:10086000D2022C4B1A6007E0284B1B68294A136000
:1008700080221202934207D980221202234B1A606F
:100880000122254B1A701AE08022D201934203D92B
:100890000122214B1A7012E080229201934203D967
:1008A00002221D4B1A700AE080225201934203D9A2
:1008B0000422194B1A7002E00822174B1A70134BCE
:1008C0001B68134A12689A4218D9114A136015E03E
:1008D0000B4BD97809029A78114309025B781943C6
:1008E0000E4B196001310E4803F062FB011C0D4BE9
:1008F00018600D4803F05CFB0C4B186008BDC04647
:100900008C1200205D020020981200208812002026
:100910006002002054020020640200206C020020CB
:1009200000366E0158020020006CDC0270020020CC
:1009300010B52024054B1C60962001F0F9F9044BFA
:100940001C60642001F0F4F910BDC046840000F87A
:10095000880000F808B50120002101F093F9082073
:10096000002101F08FF90D20012101F08BF9FFF733
:10097000DFFF0022014B1A6008BDC046680200205C
:1009800008B5104B1B78002B02D0012B03D012E0CE
:10099000FFF764FE14E00C4B9A790132D2B29A71DF
:1009A00098545B7993420BD10748FFF729FF002247
:1009B000044B1A7004E0FFF7BBFF0022014B1A70D2
:1009C00008BDC046650200208C12002010B520240E
:1009D000054B1C600A2001F0ABF9044B1C600F2092
:1009E00001F0A6F910BDC046840000F8880000F8A8
:1009F0000A4B1968802212040A431A60084B1A68CD
:100A000002218A431A60074B00221A60064A1060CE
:100A1000196801220A431A607047C0463C800440AE
:100A2000007003400871034000710340064B1A68D0
:100A300002218A431A6080225204044B1A60012268
:100A4000034B1A707047C04610E000E080E100E000
:100A50005C0200200B4B1B68DA0305D50A4B1968B2
:100A60008022D2040A431A60064B196802220A4304
:100A70001A6080225204054B1A600022044B1A703F
:100A80007047C04610E000E004ED00E000E100E047
:100A90005C020020F0B55F4656464D464446F0B431
:100AA00083B0814694464069012847D94B465A6B2A
:100AB00090465388DB134F46BE6BB2423ED25B007A
:100AC00001931F208346341C66464246158857888A
:100AD00059460F23802212020020043CA4460097AE
:100AE0002C1C14401C415F00BC400419002E05D191
:100AF0000098104018418840201812E0002B06DDB5
:100B0000009F7800104018418840201809E0019F9C
:100B1000E019E04505D24046C0880090C00B400077
:100B2000201852080239013BDAD24246043290467C
:100B3000043A01C24B469C6B4445C6D803B03CBC4A
:100B400090469946A246AB46F0BDC0460A4B19688E
:100B50008022D2030A431A60084B5422DA704022E2
:100B60009A7090229200064B1A6080239B00054ADF
:100B70001360054A136070473480044000600740EA
:100B800018B004400CC0044004C00440094B19686C
:100B9000802212040A431A60074B5422DA70402262
:100BA0009A7080239B00054A1360054A1360054A2A
:100BB00013607047348004400070074018C0044040
:100BC00044A0044014C0044008B50449FFF750FC99
:100BD000C0B2034B58701B7808BDC04600366E018A
:100BE0000060074008B50449FFF742FCC0B2034B60
:100BF00058701B7808BDC046006CDC0200700740CE
:100C0000F0B5474680B4071C8846642001F090F890
:100C10007C6B3023F95C01221140F9543123F95CDB
:100C20000A40FA54BE6B043EFFF7B0FFB868FFF706
:100C3000D9FFFFF7FBFE144B00229A71DA71191CE1
:100C400020220B781342FCD00F4B00229A71DA71EC
:100C50001A1C002513785BB2002BFBDA9179D3794B
:100C60001B020B43238002349571D571A642F1D14A
:100C7000FFF7F0FE3F6A424617600022024BDA702F
:100C800004BC9046F0BDC04600700740F0B55F461A
:100C900056464D464446F0B487B0061C0591642084
:100CA00001F046F8746B0394B56B3022B35C0121FC
:100CB0000B40B3543122B05C0140B154002B31D011
:100CC00031698F00E419A346338E022B0BD0704A92
:100CD00093420FD09A1EFF3A511E8A41D2B29046DB
:100CE000032B0DD001E0032290460422FF329342F1
:100CF0000CD001E00224A046664A934209D001E0EC
:100D00000527B846644A934206D007E00621884684
:100D100004E00722904601E00423984600245D4544
:100D200005D802E002240127B846291F8B46FFF7A9
:100D30002DFFB068FFF756FFFFF778FE574B0022F4
:100D40009A71DA71191C20220B781342FCD0534B94
:100D500000229A71DA71039F02973A1C0F270497B9
:100D600000218A4600204E4FB94604218C4619784E
:100D700049B20029FBDA9F79D979090239430091F8
:100D8000118002329871D87195420DD8726B494624
:100D900009786746B94307D02022424B1A600022E7
:100DA000414B1A60029C46E0012C06D0002C29D051
:100DB000022C2ED0032C22D0D9E74146002902D0A4
:100DC000012906D00EE000994F1EB941C9B28A46EA
:100DD00008E0009FBA46354FBA4451464F1EB9410C
:100DE000C9B28A4651460029C1D0141F02943769FE
:100DF000B900641AA346002404940224B7E75A45B4
:100E0000B5D117E05A45B2D3202729490F600124F4
:100E1000ADE7039C5C4508D9B16ACC17240F611873
:100E200009114900594402398B461E4920270F6099
:100E300003249CE7029CFFF70DFE039FBC4207D2F0
:100E4000B36ADA17120FD3181B115B00E318029371
:100E5000029C039FE31B5B101B010F33049C1B1BB5
:100E6000059F3B607269012A08D1029CE40702D405
:100E700010333B6002E0103B059F3B600022074BB4
:100E8000DA7007B03CBC90469946A246AB46F0BD2E
:100E9000020200000302000003030000007007408C
:100EA00080200740880000F8680200200100FFFF52
:100EB000840000F8F8B55F4656464D464446F0B407
:100EC000051C8B46642000F033FF6C6BA86B8046DA
:100ED0003022AB5C01210B40AB543122A85C0140B5
:100EE000A9540126002B25D00023EB602B612B8E0B
:100EF000022B0AD0574A93420DD09A1EFF3A511E38
:100F00008A41D6B2032B0BD000E003260422FF3225
:100F100093420AD000E002264F4A934207D000E0F5
:100F200005264E4A934204D004E0062602E0072636
:100F300000E00426FFF72AFEA868FFF753FEFFF73C
:100F400075FD3023EB5C002B4FD045498A460123C9
:100F5000444A914644488446B20044495718524690
:100F60001168490C1940494289B248460268D208C2
:100F70001A40524292B2072E5FD8386887464A1EFE
:100F80009141C9B221E03A4A89184A1E9141C9B239
:100F90001BE0511E8A41D1B217E035481218511E8C
:100FA0008A41D1B211E011404A1E9141C9B20CE010
:100FB00011432F4A89184A1E9141C9B205E0914355
:100FC0004A1E9141C9B200E0191C60460278042013
:100FD000824308D02022274B1A600022264B1A6039
:100FE000FFF738FD2FE00029B9D0244B00229A7179
:100FF000DA71191C20220B781342FCD01F4B0022FF
:101000009A71DA711A1C00214746043F13785BB2CB
:10101000002BFBDA9079D3791B020343238002343F
:101020009171D171BC42F1D1FFF714FD2D6A59467F
:101030000D600022114BDA7005E060460278042151
:101040008A438CD0C6E73CBC90469946A246AB4644
:10105000F8BDC046020200000302000003030000C6
:10106000500000F8D00000F880200740C84300007E
:101070000100FFFF880000F86802002000700740B0
:10108000F0B5474680B4071C8846642000F050FE47
:101090007C6B3023F95C03221140F9543123F95C55
:1010A0000A40FA54BE6B043EFFF770FDB868FFF7C4
:1010B00099FDFFF74BFDB868FFF786FDFFF7B6FC1B
:1010C0007A68002335498B7135498B71042A08D819
:1010D000344B354A0021C0461970C046C0461170D5
:1010E00028E0082A0BD82F4B2F4A00211970C04640
:1010F000C046C046C046C046C04611701AE0102A1D
:1011000013D8284B284A00211970C046C046C04653
:10111000C046C046C046C046C046C046C046C0469F
:10112000C046C046C046117004E000231C4AD3717B
:101130001A4AD371194920220B781342FCD0174A5E
:1011400000239371D371164A11789371D371134AA6
:101150000021134D13785BB2002BFBDA9079D37921
:101160001B02034323809171D1712B78A879EB790D
:101170001B02034363800434A971E971A642E9D1DB
:10118000FFF768FC3F6A424617600023034AD370AA
:10119000034AD37004BC9046F0BDC04600700740BF
:1011A000006007400760074007700740F0B55F46E2
:1011B00056464D464446F0B489B0061C079164205B
:1011C00000F0B6FD746B0494B76BBB463022B35C81
:1011D00003210B40B3543122B05C0140B154002BC9
:1011E00032D030698700E7190297338E022B0BD07B
:1011F000B54A93420FD09A1EFF3A511E8A41D2B28D
:101200000592032B0DD001E0032405940422FF3244
:1012100093420CD001E002270597AC4A934209D0D3
:1012200001E005240594AA4A934206D007E0062768
:10123000059704E00724059401E00427059700249E
:10124000029FBB4506D802E00224012705975F46AE
:10125000043F0297FFF79AFCB068FFF7C3FCFFF763
:1012600075FCB068FFF7B0FCFFF7E0FB7368002285
:1012700098498A7198498A71042B08D8974B984AE3
:101280000021C0461970C046C046117028E0082BE6
:101290000BD8924B924A00211970C046C046C046F6
:1012A000C046C046C04611701AE0102B13D88B4BB5
:1012B0008B4A00211970C046C046C046C046C04691
:1012C000C046C046C046C046C046C046C046C046EE
:1012D000C046117004E000237F4AD3717D4AD37168
:1012E0007C4920220B781342FCD07A4A0023937168
:1012F000D371794A11789371D371049F03973A1C83
:10130000072706979C46734B00257349059FB80035
:10131000744F3F18BA46187840B20028FBDA9F791C
:10132000D87900023843019010809D71DD710F78EB
:101330008F79B846CF7938024746074300975780E0
:1013400004328D71CD7193450DD8726B664F3F7825
:101350000420874307D02022644B1A600022644B8C
:101360001A60039C80E0012C06D0002C60D0022C77
:1013700067D0032C57D0CEE7059F072F46D850469D
:10138000006887460198471EB841C0B284463DE0D8
:10139000019FBC46574FBC446046471EB841C0B28F
:1013A000844633E0009F781E8741FFB2BC462DE0A3
:1013B000009884464F4884446746781E8741FFB2B0
:1013C000BC4623E00198009F3840471EB841C0B298
:1013D00084461BE00198009F3843464FC019471EC2
:1013E000B841C0B2844611E00198009FB843471E3F
:1013F000B841C0B2844609E00098C7430198384319
:101400003C4FC019471EB841C0B284466046002810
:1014100081D0141F03943769B800201A0290002469
:101420000694022477E7029FBA4200D073E71AE0DD
:10143000029FBA4200D26EE720242F4804600124A4
:1014400069E7049C029FBC4208D9B06AC417640FC4
:101450002018C01040003818023802902024234879
:101460000460032457E7039CFFF7F4FA049FBC428F
:1014700007D2B36ADA17520FD318DB105B00E318F8
:101480000393039C049FE31B5B10DB000733069C64
:101490001B1B079F3B607269012A08D1039CE4076C
:1014A00002D410333B6002E0103B079F3B600023F7
:1014B000084AD370084AD37009B03CBC904699469C
:1014C000A246AB46F0BDC046020200000302000087
:1014D00003030000007007400060074007600740FA
:1014E00007700740E843000080200740880000F8AC
:1014F000680200200100FFFF840000F8F8B55F4695
:1015000056464D464446F0B4071C8846642000F019
:101510000FFC7C6BB86B81463022BB5C03210B4017
:10152000BB543122B85C0140B9540125002B25D0B1
:101530000023FB603B613B8E022B0AD07C4A934226
:101540000DD09D1EFF3D6A1E9541EDB2032B0BD0C1
:1015500000E003250422FF3293420AD000E0022576
:10156000744A934207D000E00525734A934204D0A1
:1015700004E0062502E0072500E00425FFF706FB4E
:10158000B868FFF72FFBFFF7E1FAB868FFF71CFB1D
:10159000FFF74CFA3023FB5C002B50D067498A469A
:1015A0000123674A9446AA00664EB618B3465046D1
:1015B0000168490C1940494289B266463268D2082E
:1015C0001A40524292B2072D00D9A4E05846006852
:1015D00087464A1E9141C9B221E05B4A89184A1EDA
:1015E0009141C9B21BE0511E8A41D1B217E0564E5B
:1015F0009219511E8A41D1B211E011404A1E914107
:10160000C9B20CE01143504809184A1E9141C9B2B1
:1016100005E091434A1E9141C9B200E0191C4B4EAE
:1016200032780420824308D02022494B1A600022DD
:10163000484B1A60FFF70EFA74E00029B7D07A68B9
:10164000002345498B7145498B71042A07D8444BC7
:10165000444A00211970C046C046117028E0082A8B
:101660000BD83F4B3F4A00211970C046C046C046C8
:10167000C046C046C04611701AE0102A13D8384B35
:10168000384A00211970C046C046C046C046C04610
:10169000C046C046C046C046C046C046C046C0461A
:1016A000C046117004E000232C4AD3712A4AD3713A
:1016B000294920220B781342FCD0274A002393713A
:1016C000D371264A11789371D371234A0026234D92
:1016D0004846043813785BB2002BFBDA9179D37952
:1016E0001B020B4323809671D6712B78A979EB7975
:1016F0001B020B4363800434AE71EE718442E9D166
:10170000FFF7A8F93F6A41460F600023124AD370E1
:10171000124AD37006E00D4E32780420824300D185
:1017200045E781E73CBC90469946A246AB46F8BDEA
:10173000020200000302000003030000500000F852
:10174000D00000F8084400000100FFFF802007409F
:10175000880000F868020020007007400060074021
:10176000076007400770074038B5041C0D1C41692D
:10177000012912D93023C35C002B0AD04368042B03
:1017800003D8291CFFF7BAFE1AE0291CFFF70EFD4B
:1017900016E0291CFFF774FC12E03023C35C002B19
:1017A0000AD04168022903D8291CFFF783FB11E006
:1017B000291CFFF76BFA0DE0291CFFF721FA09E05D
:1017C0000022102361688B425241D2B2201C291C96
:1017D000FFF760F938BDC04684B070B5049005913C
:1017E000069207930C9C1398211C02F0E1FB051C48
:1017F000099A012A06D0661E1398211C02F01CFCCF
:10180000701A07E0661E6008139B1818211C02F06E
:1018100013FC701AAD000B9A5043119AAB58C34099
:10182000181C0A9B1840C0B270BC08BC04B0184712
:1018300084B0F0B55F4656464D464446F0B48DB090
:10184000169017911892199325988246302316AA5C
:10185000D35C99463123D35C984604680E3C0E2530
:101860006D42184A93461AAE5C451CD80B946B46E1
:10187000321C83CA83C383CA83C383CA83C381CA16
:1018800081C316981799189A199BFFF7A5FF494627
:101890000840404507D1524614601B9B022B06D1DD
:1018A000013C146003E001350134102DDCD10DB092
:1018B0003CBC90469946A246AB46F0BC08BC04B07E
:1018C0001847C046FFFFFFEF84B0F0B55F465646AD
:1018D0004D464446F0B493B01C901D911E921F1CBF
:1018E0001F93229C0E94259DA846269883462799EF
:1018F000894630231CAAD35C002B11D02BAB0B9351
:1019000020AB6A4631CB31C232CB32C213CB13C2C9
:1019100021CB21C21C981D991E9A1F9BFFF788FF9F
:101920002B9A3B1E934200D2131CDB1B10931E1CF0
:101930004E44013E00239A465E4503DB5C46361B5F
:101940000125AA46C14514DA4D46484C4346B046E7
:101950001E1C23681B68201C5521984723681B68A0
:10196000201CAA2198470235B542F2DB331C4646BB
:1019700098465046002838D05D46013D002E37DBA2
:10198000552420A98A460E9BDBB20F93D8431190B1
:101990004B46A9460D931F970E9D229540462590D4
:1019A000594626910D9D27950B966B46524623CAA4
:1019B00023C323CA23C323CA23C303CA03C31C9854
:1019C0001D991E9A3B1CFFF707FF0F9D2840119B96
:1019D0002340C018C0B200F0FFFFE443E4B2013E70
:1019E000D9D20D9B4D46994603E0351C552400E0A5
:1019F00055241098A8422FDC20AE0E99C9B28A4611
:101A0000C9430F911197119B1F930E9F2297404638
:101A10002590594626914B4627930B956B46321CD1
:101A200083CA83C383CA83C383CA83C381CA81C36E
:101A30001C981D991E9A119BFFF7CEFE5146084037
:101A40000F9B2340C018C0B200F0C6FFE443E4B2CD
:101A5000013D109FAF42D6DD13B03CBC9046994685
:101A6000A246AB46F0BC08BC04B018479413002053
:101A7000F0B58FB0041C464B1B78022B02D9022212
:101A8000434B1A70434B1B68022B03D80122404B77
:101A90001A7007E03E4B1B78022B09D0042B0ED0A6
:101AA000012B13D1202323620123A361E36113E0FF
:101AB000102323620323A3610223E3610CE00823C4
:101AC00023620F23A3610423E36105E0042323625F
:101AD000FF23A3610823E3612F4B1B6823602D4B79
:101AE0001B6863602D4B1B68A360294B1B786361E7
:101AF000256A2B4B1E6868008019A062294B1B6861
:101B00006362E662284F6763291C02F051FA800085
:101B10003F18A763254B1B783022A354244A117821
:101B20003122A154002B04D0224B1B68F61AE66028
:101B300001E00023E360E068291C02F039FA01307B
:101B4000206100230D93144B1868FEF751FF201CF1
:101B50000DA9FFF709FE184B1B68002B12D00D983A
:101B60000B90231C10336A4623CB23C223CB23C202
:101B700023CB23C222CB22C220686168A268E3681B
:101B8000FFF7A2FE00220C4B1A600FB0F0BDC0465A
:101B900064020020700200206C0200205802002025
:101BA0008812002054020020780200205D020020EC
:101BB00098120020600200206802002070B590B0EA
:101BC00001AB00220492059208210691FF200790A4
:101BD00008910421099130215A5431215A54114E4F
:101BE000114D124C00F06AFE002807DDFEF7EEFEF4
:101BF00000F016FEC0B201A9FEF7C2FE3368002B4A
:101C000002D001A8FFF734FF2A682368D21AFA230A
:101C1000DB009A42E6D9044B1A68044B1A60FEF7BF
:101C200087FEDFE7680200209C120020941200204B
:101C300030B51A2822D8124B42001418A400E458D8
:101C4000257D121892009B181B7A1D4205D0002991
:101C500001D0237112E0237210E0430018188000B5
:101C6000074B18184368002904D0196803220A4357
:101C70001A6003E01A6802218A431A6030BDC04628
:101C80004C44000070B51A282BD843001B189B0049
:101C9000144AD3185D6801290ED141000B189B002E
:101CA0009B581C7D081880001218127A22431A755E
:101CB000A2235B002B6014E00A4A440023189B0017
:101CC0009B581E7D201880001218127A96431E75AC
:101CD000002903D180235B002B6002E00423FF3343
:101CE0002B6070BD4C44000072B60C4B1A680C4B54
:101CF0001B680C49096862B6480104D5322191423B
:101D0000894149425B18FA20800043430648821A01
:101D100006484243920D98187047C04618E000E00C
:101D20009C12002004ED00E07FBB0000555501002F
:101D300070B5051CFFF7D8FF041C002D0ED0084E0F
:101D4000FFF7D2FF001BB04205D9013D002D05D0A1
:101D5000FA239B00E41800F0D5FEF1E770BDC04601
:101D6000E703000010B51C4B8022D2051A608022C8
:101D700012061A600020194B18601949194B196096
:101D80002823194A1360194A1360194A1360194A23
:101D90001360194A1360194A13600922184C226013
:101DA000184C2060184C2160184C2360184C23609C
:101DB000184C2260184C20601848016018490B60CC
:101DC00018490B60184B1A6000F0C2FEFA20FFF7AA
:101DD000AFFF00F085FC10BD00E100E0048003408F
:101DE000FFBF0000088003400C80034014800340C4
:101DF0001C800340248003402C8003403480034037
:101E00000080034004900340089003400C9003407E
:101E1000149003400090034004A0034008A0034036
:101E20000CA0034014A0034000A0034030B50D4BAC
:101E30001A7802231343DC000B4D2C1960600B4809
:101E400000788824002800D0C824DB0009040C4353
:101E5000054D5C5101235840044908705340014925
:101E60000B7030BD0813002000F8FF1F8113002005
:101E700010B5431E032B11D872B69A00084950586A
:101E8000002809D0111C064A44688C50054A5B00A2
:101E90009C5A0188611A995262B600E0002010BD78
:101EA000F812002058150020431E0020032B0CD8E8
:101EB00072B69B00054A9B58002B04D001305B682A
:101EC000002BFBD100E0002062B670474C130020CD
:101ED000F8B572B601231B4C082101261A19013AE4
:101EE0001278114223D09A005D01174FED59002D51
:101EF0000BD1D200B918083048601449D151144BA5
:101F00001A78013A1A7062B61AE03243D5000E4FC1
:101F1000ED59002D0BD1D200B918083048600D4999
:101F2000D1510B4B1A78013A1A7062B608E00133AE
:101F3000052BD3D162B60022054B1A7000F048FC85
:101F4000F8BDC046B045000000F8FF1F8800400003
:101F500076130020C800400010B5431E032B39D86B
:101F6000800002221043C0001B4A101872B61B4AA0
:101F7000D25C012A06D0002A1BD0022A1BD0032AD9
:101F800003D005E00830022416E00830042413E0F2
:101F90009A0013481258002A02D19A00115003E007
:101FA0009A001048125851609B000E4A995062B630
:101FB00010E0032400E00524084AD4540B1C083325
:101FC00043608823020700D5C8230A8812041343FC
:101FD000036062B610BDC04600F8FF1FB4120020B7
:101FE0004C1300205C130020F8B55F4656464D4662
:101FF0004446F0B4C34DC44FA037C44B1C78E4B280
:1020000060071ED52B78002B18D0C14B1B78DBB294
:10201000002B06D0013BDBB2BD4A1370002B00D170
:1020200000BEBC4B1B78DBB2002B07D0013BDBB200
:10203000B84A1370002B01D100F00CFD0422B34B01
:102040001A70210700D4C7E2B34B1B78DBB21A0920
:1020500000D02BE29B08DB00AB4CE41862682068E0
:1020600083061B0F092B00D1F4E104D8013B012B9F
:1020700000D8D5E116E20D2B00D013E2A749136872
:102080000B6052684A60A64A22600022A5490A6095
:102090009D490A618A610121A34A11709BB2A34A3A
:1020A00093421DD8D022D200934231D281225200D5
:1020B000934200D1F9E081225200934206D8802B4E
:1020C00000D1D4E0822B00D1D7E073E1984A93424B
:1020D00000D100E1A022D200934200D16EE169E17B
:1020E000944A934200D197E109D888221201934281
:1020F00000D1B6E09022120193420FD05AE18E4AED
:10210000934200D151E18D4A934200D156E151E111
:102110008B4B5C68002C00D02EE142E17F4B9A781B
:10212000784B1A70784C203480262168314203D0D5
:102130006068083800F04CFB0834BC42F5D1814A95
:102140009146814B984600268048834682465A46EF
:10215000B058002806D0446800F03AFB002C01D0AB
:10216000201CF8E700235046335079497350794BCF
:10217000F058002806D0446800F02AFB002C01D05B
:10218000201CF8E70023734AB350734AB3504A4601
:10219000138042461378032B0DD0D9B2032902D8FD
:1021A000022B05D009E0042B02D0052B03D004E05C
:1021B0000023137001E001231370043602239944B5
:1021C00001208044102EC2D10022644B1A700124D9
:1021D000634E644988464246A318013B1B7833701E
:1021E000043618072DD500F0D3FA002807D0464B47
:1021F00062019918083048605B49D15007E06301DB
:102200000021414A9950554B1A7801321A7000F05A
:10221000BFFA00280AD0A20001231A433A4BD20089
:102220009918083048603E49D1500AE0A2000123C5
:102230001343DB00002234495A50484A13780133D3
:102240001370A100304B02200843C0000022C2508E
:1022500003200143C900CA500134444B9E42BAD105
:10226000F6E1284B1B78424C23700126ABE0404C32
:102270000023237063700226A5E0284B9B88042B63
:1022800003D90F223B4B1A70C6E0394A0021117066
:1022900051709B0037481B181B78990700D490E0B9
:1022A000141C0123137002268DE01C4B9B887F2297
:1022B0001340042B03DC194A5288002A03D00F2252
:1022C0002C4B1A70A8E09B002A4A9B181A7802210E
:1022D0008A431A70BCE1114B9B887F221340042B68
:1022E00003DC0E4A5288002A03D00F22214B1A70B9
:1022F00092E09B001F481B18197802220A431A70AB
:10230000A6E1C0468013002000F8FF1F8020074090
:102310000913002082130020902007406C13002036
:10232000C8004000A0120020811300208106000098
:1023300002030000212000002122000021230000D0
:10234000B445000058150020B4120020F8120020F7
:10235000A41200204C1300205C13002076130020F0
:10236000C4200740B045000088004000D42007404A
:1023700078130020C0200740BA4B59889888BA4B80
:102380001A888A4209D15A88824206D1090A032949
:1023900001D1267817E01E8915E00C335C68002C0B
:1023A000EED10F22B14B1A7036E0AE4B9A78B04B9B
:1023B0001A704DE10F22AD4B1A702DE0002600245B
:1023C00001E00226AB4CA74BDB889E4200D91E1CC5
:1023D000B046402E01D940218846201C4146FFF7D7
:1023E00025FDA146C1444346F61A03D13F2B00D92F
:1023F00033E111E0341E402C00D940244846211C12
:10240000FFF714FD48460319361B01D13F2C03D9B1
:10241000994A1360994B1E800122994B1A7041E032
:10242000904B1988974B994211D100239648D15C63
:10243000C1540133072BFAD1934B1B68862B02D171
:102440000F22924B1A7000200021FFF7EFFC904BF7
:10245000236027E0884B19688846002916D0874BEF
:102460001E88341E402C00D940244046211CFFF712
:10247000DDFC361BB6B2814B1E80002E02D100233C
:10248000402C01D1404603197B4A1360754B1A88D2
:10249000A023DB009A4205D1724B00225A709A7831
:1024A0007C4B1A700122764B1A7091E09C08E40074
:1024B00079490C196168081C0838013AD6B21A0724
:1024C0004BD500F085F9B300744A9B58002B29D0F6
:1024D000B2007249586850501A1C08326260704A43
:1024E000925D012A0AD0002A04D0022A0AD0032AC7
:1024F0000CD00EE003216A4A91550AE00221684A95
:10250000915506E00521664A915502E00421644A8E
:1025100091558822210700D5C8221B881B041A4325
:10252000226055E05E4B9B5D022B05D0DAB2022A99
:102530004ED3032B04D007E00022594B9A5547E0B5
:102540000122574B9A5543E008231C4063426341E4
:102550000322D21A524B9A553AE063880A1C083A71
:102560001380002B2ED000220B1C083B5A805A608F
:10257000B3004C4A9B58002B02D1B300985003E0A3
:10258000B300494A9B585860B200474BD050474B64
:1025900076000839F05A0A888218F25200F0F8F8EA
:1025A000002808D008306060220701D5384B00E0D1
:1025B0003F4B23600CE0002323603E4B1A7801322E
:1025C0001A7005E0230701D5314B00E0384B23603A
:1025D0000822394B1A7010E5E00721D5284902235B
:1025E0000B700022354B1A702B4B31481860344C5D
:1025F0005C6098603348D8601A619A610D201B4B6B
:102600001870FF23304803702B4803702148027074
:102610002E4A13709F222E4B1A7001230B7059E023
:1026200063B2002B05DA0D22104B1A708022224B68
:102630001A70A10706D5244B1A78D2B21A7002225A
:102640001D4B1A70E20645D510221B4B1A7041E053
:1026500000200021FFF7EAFBDEE648460021FFF7F5
:10266000E5FBD9E66C130020B4450000C02007400C
:102670009013002078130020A01200207413002073
:10268000942007402120000060150020091300203D
:10269000C80040009820074000F8FF1F4C1300209E
:1026A000B4120020F8120020A412002058150020B7
:1026B0008800400076130020802007400813002087
:1026C000B81200200C130020882007408C200740FF
:1026D000842007403CBC90469946A246AB46F8BDD4
:1026E00008B501F02BFA1C4B181C191C883100226C
:1026F0001A605A6008338B42FAD1184B196880224D
:10270000D2020A431A60020AD2B2154B1A70020CA6
:10271000D2B2144B1A70000E134B1870FF23134AD9
:102720001370134A1370134A1370012212490A706E
:1027300000201249087012490A70124A1168994320
:1027400070230B431360802252040F4B1A60102237
:102750000E4B1A7008BDC04600F8FF1F34800440BD
:102760009C200740B0200740B4200740802007404D
:102770008820074010200740942007400021074090
:102780008420074018E400E000E100E00821074051
:1027900010B572B60C4B1C68201C01F059FC0B28BC
:1027A00002D962B600200EE080231B06C3409C4382
:1027B000054B1C6062B6C3001818C000034B181804
:1027C00000230360436010BD60FDFF1F00FAFF1F80
:1027D00010B5041C0E48201A482101F0E9FB0B2813
:1027E00015D80C4A1278002A07D00B4A1278002A12
:1027F00003D0201CFFF76CFB09E072B6074A80216A
:1028000009060B1CC34011680B43136062B610BD70
:1028100000FAFF1F761300208013002060FDFF1FC9
:1028200010B5144B1B68002B0AD1134B1B78002BDF
:1028300019D00320FFF71CFB0E4B1860002815D0A1
:102840000C4B186843885A1CC3181C7A03889A4298
:1028500006D3FFF7BDFF0022064B1A60201C07E0DD
:102860004280201C04E00120404201E0012040425F
:1028700010BDC0468C1300208013002008B50D4BFE
:102880001B68002B10D10C4B1B78002B09D00320A8
:10289000FFF7EEFA074B1860002805D101204042EF
:1028A00007E00120404204E0024B1B685A889B1855
:1028B000187A08BD8C13002080130020054B9888DF
:1028C000054B1B68002B03D01A885B88D31AC018ED
:1028D0007047C046581500208C130020F0B54746BD
:1028E00080B4061C0F1C0122354B1A70002960D0E1
:1028F000344D2A68002A31D1334A1378002B05D190
:1029000000222F4B1A700120404256E02F4C2D4BD5
:1029100098460420FFF7C8FA07280BD80123284A55
:102920001370FFF735FF43461860002816D10023C7
:10293000234A1370013C002C03D0254B1B78002B3D
:1029400005D00122224B1A700120404235E000F0F0
:10295000D9F81D4B1B78002BDBD1D1E700221C4B93
:102960001A70184B19684B884022D21A3C1E9442A8
:1029700000D9141C181C083008181B194B803F1B69
:10298000002C06D00023F25CC2540133A342FAD1DA
:1029900036194B883F2B07D940230B800420FFF7C3
:1029A000DBFA0022074B1A6005220A4B1A70002F2F
:1029B0009FD10022024B1A70002004BC9046F0BD4B
:1029C0008313002084130020801300200975000069
:1029D000881300208213002000B583B06B46D871A5
:1029E0000733181C0121FFF779FF03B000BDC04673
:1029F00010B5144B1B78002B22D00122124B1A70F9
:102A0000124B196800290AD00024114B1C704B8806
:102A10000B800420FFF7A0FA0C4B1C600DE0FFF7C1
:102A2000B7FE011E06D00022094B1A700420FFF7E2
:102A300093FA02E00122064B1A700022024B1A7030
:102A400010BDC04680130020831300208413002093
:102A50008213002008B50E4B1B78002B17D10D4BAD
:102A60001968002908D04B880B800420FFF774FAFE
:102A70000022084B1A600AE0FFF78AFE011E03D00D
:102A80000420FFF769FA02E00122034B1A7008BD27
:102A900083130020841300208213002008B5FDF763
:102AA00059FFFFF78BF800F02DF8FAE708B5FFF7AC
:102AB00005FF08BD08B5FFF7B3FE08BD08B5FFF771
:102AC000DDFE08BD08B5FFF793FF08BD08B5081C7B
:102AD000FFF782FF08BDC04608B5081C111CFFF7B0
:102AE000FDFE08BD7047C046044B00221A71FA2152
:102AF000890099601A73024A1A6070479413002083
:102B00009845000008B5114B1B78002B1DD1012200
:102B10000E4B1A70FFF7D2FE002801D0FFF7E2FF3C
:102B200000F084FA002801D001F0D8F800F0FAFC97
:102B3000002801D001F068F900F042FF002801D020
:102B400001F0F8F90022014B1A7008BDA41300200F
:102B5000274B1B78082B06D10022264B1A60132224
:102B6000254B1A6017E00A2B06D13822214B1A6038
:102B70001322214B1A600EE00C2B06D134221D4B80
:102B80001A6012221C4B1A6005E03C22194B1A6095
:102B90001222194B1A60194B1B78002B03D000220C
:102BA000174B1A6002E00122154B1A60154B1B7877
:102BB000012B03D88022144B1A6014E0042B03D895
:102BC0008422114B1A600EE0082B03D885220E4B8D
:102BD0001A6008E0102B03D886220B4B1A6002E023
:102BE0008722094B1A600122084B1A707047C046B1
:102BF00064FDFF1F08B003400CB00340A613002083
:102C000020B0034065FDFF1F24B00340A513002042
:102C1000024B1A6801321A607047C0469C120020AD
:102C200070B50D4C8026F6028025ED0023683342F6
:102C300001D0FFF7D9F923682B4201D000F07AFACE
:102C400023681A0501D500F0C3FC2368DA04EDD52A
:102C500000F00CFFEAE7C0463480044008B5FFF7F7
:102C6000DFFFC0460022014B1A607047008104401C
:102C70007047C046EFF31383002B23D1EFF310838B
:102C80000020002B20D1EFF30582002A0FD00F2A5D
:102C90000FD9111C1039890889000C4BC91803235E
:102CA0001A40D2000B68D340FF22134001E080237A
:102CB0005B00EFF31182181C002A05D09A4203D260
:102CC000101C01E0012040427047C04600E400E0D3
:102CD000164B19688022D2000A431A600023144A56
:102CE0001370144A1370144A1370144A1370144A60
:102CF00013701449144A1160D1218900134A1160DC
:102D0000C104C90E124A1170C0B2507093702C23C6
:102D1000D370104BFF221968914340220A431A6076
:102D2000802252010C4B1A607047C0463480044028
:102D300035140020AD1300203C1400203614002070
:102D4000AC1300201303000040A0044044A0044042
:102D500000A006400CE400E000E100E0144B9A788B
:102D600013239A43032303401343420701D5102240
:102D700013430F4A93700F230340042B04D1131CF9
:102D8000917940220A439A71094B5A7910239A4348
:102D9000034200D01A43064B5A719B791022934389
:102DA000820601D510221343014A93717047C04631
:102DB00000A0064010B5134B1B685A0521D5124BD5
:102DC0001B78002B05D0104CFFF79CFE2378002BBE
:102DD000FAD1802252010D4B1A6000230C4AD370A5
:102DE0000422FF320B490A600B490A600B4A137038
:102DF0000B4A13700B4B1B68002B02D00A4A127847
:102E00001A7110BD34800440AC13002080E100E052
:102E100000A0064040A0044044A004403514002017
:102E2000AD130020A8130020F013002010B5041CDF
:102E30000C4A1378002BFCD1201C0121FEF722FF45
:102E4000201C0021FEF7F4FE074B620011198900D7
:102E5000C85806490860121992009B181A7A044B48
:102E60001A7010BDAC1300204C4400003814002030
:102E70003414002038B5114B1A68002351051AD5B7
:102E80001A2814D80E4D0F4B420011188900C9584A
:102E900029600D4C121892009B181B7A2370012197
:102EA000FEF7F0FE2B6822781A72012303E000225D
:102EB000034B1A600023181C38BDC0463480044000
:102EC000A81300204C440000F01300200F4B1A6898
:102ED0000023510518D5122803D10D4A0D4B1A6055
:102EE0000CE0142803D10A4A0B4B1A6006E00B4B86
:102EF0005A7B01218A435A73002305E0074B597B13
:102F000001220A435A730123181C7047348004407D
:102F1000020300000CA0044014C0044000A00640BE
:102F200070B5061C224B1B685A0540D5214B1B6807
:102F3000002B02D0204A12781A71204B1C780134E1
:102F400000233F22A2425B415B421C401C4D1EE01D
:102F5000FFF790FE402816DC1A4B1B795BB2002B62
:102F600015DA174A1378013300223F219942524162
:102F700052421340144AD15CC9B2124AD171DBB239
:102F80000F4A137003E0FF2801DDFFF7BBFD2B782C
:102F9000DBB29C42DCD0F6B20B4B1E5501220B4B30
:102FA0001A70E4B2054B1C70AC22064BDA7070BD8F
:102FB0003480044038140020341400203C140020D5
:102FC0003614002000A00640B0130020AC130020EF
:102FD00038B5002908D0051C0C1C2878FFF7A0FF85
:102FE0000135013C002CF8D138BDC04610B5054B69
:102FF0001B78002B05D0034CFFF784FD2378002BB2
:10300000FAD110BDAC130020064B1B78DBB2064A88
:103010001078C0B2834202D33F30C01A01E00138B9
:10302000C01A70473C14002036140020064B187854
:10303000C0B2064B1B78DBB2984201D3C01A01E044
:103040004030C01A7047C04635140020AD13002030
:1030500010B51A4B1A78D2B2194B1B78DBB29A42D0
:1030600019D001333F2B1BD81649CC5CE4B2D9B23E
:10307000134801701449096800290FD09A4201D3FE
:10308000D31A01E04032D31A201C1A2B14DC0F4B48
:103090001B780B7210E0012040420DE0201C0BE079
:1030A000084B1C78E4B20021054B1970064B1968D7
:1030B00000239942E4D1201C10BDC04635140020E5
:1030C000AD130020F4130020A8130020F0130020FB
:1030D0000A4B1A78D2B20A4B1B78DBB29A420AD05A
:1030E000013300223F219942524152421340054A86
:1030F000D05CC0B201E0012040427047351400208E
:10310000AD130020F4130020064B1A78D2B2064B00
:103110001A70064B1B68002B02D0054A12781A72EF
:103120007047C046AD13002035140020A8130020BE
:10313000F0130020294B1B799A0615D5274BDB7914
:10314000D8B2274B1B78013300223F2199425241CC
:1031500052421340234A1278D2B29A4204D0224AF1
:10316000D054DBB21E4A13701C4BDB78DBB25AB270
:10317000002A1FDA194A127952B2002A1ADA1B4AB7
:103180001178C9B21A4A1278D2B2914203D16C2195
:10319000124AD1700EE0013200213F209042494195
:1031A00049420A401349885CC0B20C49C871D2B286
:1031B0000F490A705A0610D5084B1B795A060CD5D0
:1031C00000220D4B1A700D4B1B68002B02D00C4ACD
:1031D00012781A722C22014BDA70704700A0064058
:1031E00035140020AD130020F41300203C140020FF
:1031F00036140020B0130020AC1300203814002037
:1032000034140020164B1968802212010A431A60F8
:103210000023144A1370144A1370144A1370144A8A
:103220001370144A13701449144A1160D121890093
:10323000134A1160C104C90E124A1170C0B2507015
:1032400093702C23D370104B104A19680A408021C8
:10325000C9010A431A60802292010D4B1A6070471F
:1032600034800440A91400203E140020B014002033
:10327000AA1400203D140020130300000CB00440E9
:1032800010B0044000B006400CE400E0FF00FFFF77
:1032900000E100E0144B9A7813239A430323034080
:1032A0001343420701D5102213430F4A93700F2393
:1032B0000340042B04D1131C917940220A439A71D4
:1032C000094B5A7910239A43034200D01A43064B04
:1032D0005A719B7910229343820601D51022134321
:1032E000014A93717047C04600B0064010B5104BBC
:1032F0001B681A051AD50F4B1B78002B05D00D4CF7
:10330000FFF700FC2378002BFAD1802292010A4BB0
:103310001A600023094AD3700422FF3208490A6068
:1033200008490A60084A1370084A137010BDC04665
:10333000348004403D14002080E100E000B00640ED
:103340000CB0044010B00440A91400203E1400202A
:1033500010B5041C0C4A1378002BFCD1201C012151
:10336000FEF790FC201C0021FEF762FC074B620078
:1033700011198900C85806490860121992009B1853
:103380001A7A044B1A7010BD3D1400204C44000002
:10339000AC140020A81400200C4B1A68002311055F
:1033A00012D516280AD1C0229200094B1A60094B87
:1033B000597B08220A435A73012305E0054B5A7BC7
:1033C00008218A435A730023181C70473480044034
:1033D00004B0044000B006400C4B1A6800231105ED
:1033E00012D517280AD1C0229200094B1A60094B46
:1033F000597B01220A435A73012305E0054B5A7B8E
:1034000001218A435A730023181C704734800440FA
:1034100008B0044000B0064070B5061C224B1B6883
:103420001A0540D5214B1B68002B02D0204A127888
:103430001A71204B1C78013400232722A2425B41E1
:103440005B421C401C4D1EE0FFF714FC402816DCBC
:103450001A4B1B795BB2002B15DA174A137801332C
:10346000002227219942524152421340144AD15C12
:10347000C9B2124AD171DBB20F4A137003E0FF28C0
:1034800001DDFFF73FFB2B78DBB29C42DCD0F6B2CC
:103490000B4B1E5501220B4B1A70E4B2054B1C70EE
:1034A000AC22064BDA7070BD34800440AC140020AE
:1034B000A8140020B0140020AA14002000B0064078
:1034C000401400203D14002038B5002908D0051C08
:1034D0000C1C2878FFF7A0FF0135013C002CF8D127
:1034E00038BDC04610B5054B1B78002B05D0034CEA
:1034F000FFF708FB2378002BFAD110BD3D14002004
:10350000064B1B78DBB2064A1078C0B2834202D366
:103510002730C01A01E00138C01A7047B0140020EB
:10352000AA140020064B1878C0B2064B1B78DBB2F9
:10353000984201D3C01A01E04030C01A7047C0461B
:10354000A91400203E1400200B4B1A78D2B20B4B6A
:103550001B78DBB29A420CD0013300223F21994202
:10356000524152421340064AD05CDBB2034A137008
:1035700001E0012040427047A91400203E140020C1
:10358000681400200A4B1A78D2B20A4B1B78DBB2BF
:103590009A420AD0013300223F21994252415242BD
:1035A0001340054AD05CC0B201E0012040427047A0
:1035B000A91400203E14002068140020024B1A7841
:1035C000D2B2024B1A7070473E140020A91400209A
:1035D000294B1B799A0615D5274BDB79D8B2274B97
:1035E0001B78013300223F2199425241524213403D
:1035F000234A1278D2B29A4204D0224AD054DBB283
:103600001E4A13701C4BDB78DBB25AB2002A1FDA59
:10361000194A127952B2002A1ADA1B4A1178C9B231
:103620001A4A1278D2B2914203D16C21124AD17057
:103630000EE00132002127209042494149420A40D0
:103640001349885CC0B20C49C871D2B20F490A70E4
:103650005A0610D5084B1B795A060CD500220D4B83
:103660001A700D4B1B68002B02D00C4A12781A728C
:103670002C22014BDA70704700B00640A9140020DC
:103680003E14002068140020B0140020AA1400206A
:10369000401400203D140020AC140020A814002089
:1036A000164B1968802252010A431A600023144AFB
:1036B0001370144A1370144A1370144A1370144A86
:1036C00013701449144A1160D1218900134A116002
:1036D000C104C90E124A1170C0B2507093702C23ED
:1036E000D370104B104A19680A408021C9030A435D
:1036F0001A608022D2010D4B1A607047348004405A
:103700001D150020B2140020241500201E150020D5
:10371000B11400201303000008C004400CC0044092
:1037200000C006400CE400E0FFFF00FF00E100E005
:10373000144B9A7813239A430323034013434207FD
:1037400001D5102213430F4A93700F230340042B1B
:1037500004D1131C917940220A439A71094B5A797A
:1037600010239A43034200D01A43064B5A719B79A7
:1037700010229343820601D510221343014A93710C
:103780007047C04600C0064010B5104B1B68DA04F5
:103790001AD50F4B1B78002B05D00D4CFFF7B2F953
:1037A0002378002BFAD18022D2010A4B1A60002321
:1037B000094AD3700422FF3208490A6008490A60A6
:1037C000084A1370084A137010BDC0463480044084
:1037D000B114002080E100E000C0064008C00440B1
:1037E0000CC004401D150020B214002010B5041CAC
:1037F0000C4A1378002BFCD1201C0121FEF742FA61
:10380000201C0021FEF714FA074B620011198900F1
:10381000C85806490860121992009B181A7A044B7E
:103820001A7010BDB11400204C4400002015002077
:103830001C1500200C4B1A680023D10412D5022855
:103840000AD1C0229200094B1A60094B597B082209
:103850000A435A73012305E0054B5A7B08218A432A
:103860005A730023181C70473480044000C0044081
:1038700000C006400C4B1A680023D10412D50E2854
:103880000AD1C0229200094B1A60094B597B0122D0
:103890000A435A73012305E0054B5A7B01218A43F1
:1038A0005A730023181C70473480044004C004403D
:1038B00000C0064070B5061C224B1B68DA0440D5D8
:1038C000214B1B68002B02D0204A12781A71204B22
:1038D0001C78013400232722A2425B415B421C403A
:1038E0001C4D1EE0FFF7C6F9402816DC1A4B1B7969
:1038F0005BB2002B15DA174A137801330022272117
:103900009942524152421340144AD15CC9B2124A00
:10391000D171DBB20F4A137003E0FF2801DDFFF71E
:10392000F1F82B78DBB29C42DCD0F6B20B4B1E5583
:1039300001220B4B1A70E4B2054B1C70AC22064BF3
:10394000DA7070BD34800440201500201C15002062
:10395000241500201E15002000C00640B4140020CD
:10396000B114002038B5002908D0051C0C1C28789B
:10397000FFF7A0FF0135013C002CF8D138BDC0464F
:1039800010B5054B1B78002B05D0034CFFF7BAF898
:103990002378002BFAD110BDB1140020064B1B7800
:1039A000DBB2064A1078C0B2834202D32730C01A75
:1039B00001E00138C01A7047241500201E150020B0
:1039C000064B1878C0B2064B1B78DBB2984201D385
:1039D000C01A01E04030C01A7047C0461D150020D3
:1039E000B21400200B4B1A78D2B20B4B1B78DBB20F
:1039F0009A420CD0013300223F2199425241524257
:103A00001340064AD05CDBB2034A137001E0012088
:103A1000404270471D150020B2140020DC14002025
:103A20000A4B1A78D2B20A4B1B78DBB29A420AD000
:103A3000013300223F219942524152421340054A2C
:103A4000D05CC0B201E00120404270471D1500204B
:103A5000B2140020DC140020024B1A78D2B2024BC0
:103A60001A707047B21400201D150020294B1B79D5
:103A70009A0615D5274BDB79D8B2274B1B78013333
:103A800000223F219942524152421340234A127868
:103A9000D2B29A4204D0224AD054DBB21E4A1370EA
:103AA0001C4BDB78DBB25AB2002A1FDA194A1279B2
:103AB00052B2002A1ADA1B4A1178C9B21A4A12788D
:103AC000D2B2914203D16C21124AD1700EE0013280
:103AD000002127209042494149420A401349885C0D
:103AE000C0B20C49C871D2B20F490A705A0610D53B
:103AF000084B1B795A060CD500220D4B1A700D4B42
:103B00001B68002B02D00C4A12781A722C22014B2F
:103B1000DA70704700C006401D150020B214002066
:103B2000DC140020241500201E150020B4140020F1
:103B3000B1140020201500201C15002010B584B001
:103B400072B61D4B70221A7041211C4A11700F2150
:103B50001B4A117080221A701A1C13785BB2002B5A
:103B6000FBDA184B186862B6174B984202D88300EC
:103B70001818400001AC211C0A2200F0EBF9237850
:103B8000002B11D10AE001AA9A5C002A07D0590043
:103B900041184A8001330A2BF5D100E0002301339C
:103BA0005B000A4A137004E0084A53800123101C8A
:103BB000E9E704B010BDC046000002400700024023
:103BC00006000240080002407F969800F4FDFF1FA7
:103BD00008B50368C9B21B68984708BD08B50368F3
:103BE000C9B21B68984708BD08B50368C9B21B680D
:103BF000984708BD08B50368C9B21B68984708BD57
:103C000008B54808034BC01800F0D2F9FFF760F878
:103C100008BDC046C0C62D0010B5141C4808054B91
:103C2000C01800F0C5F9FFF753F8201CFFF796F80D
:103C300010BDC046C0C62D0008B5FFF7BBF808BDD3
:103C400008B5081CFFF7F2F808BDC04608B5081C07
:103C5000FFF710F9431E9841C0B208BD08B5081C13
:103C6000FFF734F9431E9841C0B208BD08B5FFF70D
:103C7000DDF908BD08B5FFF72BFA08BD08B5FFF759
:103C8000E7F908BD08B5FFF7B1F908BD08B5FFF7BA
:103C90003BFA08BD08B5FFF7B7F908BD08B5081C21
:103CA000FFF73EF9012008BD08B5081CFFF738F9F9
:103CB000012008BD10B5141C081C111CFFF788F961
:103CC000201C10BD38B50D1C081C00F003FA041CA4
:103CD000281C211CFFF77CF9201C38BD7047C0460A
:103CE000044B00221A71FA21890099601A73024A62
:103CF0001A607047281500201046000008B50368B8
:103D0000C9B21B68984708BD08B50368C9B21B68EB
:103D1000984708BD08B50368C9B21B68984708BD35
:103D200008B50368C9B21B68984708BD08B54808BC
:103D3000034BC01800F03CF9FFF764FA08BDC04619
:103D400060E3160010B5141C4808054BC01800F0BD
:103D50002FF9FFF757FA201CFFF79CFA10BDC04659
:103D6000C0C62D0008B5FFF7C1FA08BD08B5081C8C
:103D7000FFF7EEFA08BDC04608B5081CFFF70CFBBC
:103D8000431E9841C0B208BD08B5081CFFF724FBCC
:103D9000431E9841C0B208BD08B5FFF7C3FB08BD7C
:103DA00008B5FFF7EFFB08BD08B5FFF7CDFB08BD71
:103DB00008B5FFF797FB08BD08B5FFF7FFFB08BD87
:103DC00008B5FFF79DFB08BD08B5081CFFF724FBED
:103DD000012008BD08B5081CFFF71EFB012008BD27
:103DE00010B5141C081C111CFFF76EFB201C10BD25
:103DF00038B50D1C081C00F06DF9041C281C211C92
:103E0000FFF762FB201C38BD7047C046044B002200
:103E10001A71FA21890099601A73024A1A60704770
:103E2000381500206846000008B50368C9B21B6851
:103E3000984708BD08B50368C9B21B68984708BD14
:103E400008B50368C9B21B68984708BD08B5036880
:103E5000C9B21B68984708BD08B54808034BC0188D
:103E600000F0A6F8FFF71CFC08BDC04660E3160092
:103E700010B5141C4808054BC01800F099F8FFF75E
:103E80000FFC201CFFF754FC10BDC04660E3160079
:103E900008B5FFF779FC08BD08B5081CFFF7A6FCBC
:103EA00008BDC04608B5081CFFF7C4FC431E984176
:103EB000C0B208BD08B5081CFFF7DCFC431E9841E2
:103EC000C0B208BD08B5FFF77BFD08BD08B5FFF718
:103ED000A7FD08BD08B5FFF785FD08BD08B5FFF7CC
:103EE0004FFD08BD08B5FFF7B7FD08BD08B5FFF7E2
:103EF00055FD08BD08B5081CFFF7DCFC012008BD16
:103F000008B5081CFFF7D6FC012008BD10B5141C2D
:103F1000081C111CFFF726FD201C10BD38B50D1C18
:103F2000081C00F0D7F8041C281C211CFFF71AFD00
:103F3000201C38BD7047C046044B00221A71FA217C
:103F4000890099601A73024A1A6070474815002068
:103F5000C0460000F0B5474680B4061C0D1C9046D4
:103F60000024301C414600F067F8271C092902D8BC
:103F70003031C9B201E03731C9B2E955301C414690
:103F800000F016F8061E01D00134EAE7EF1900230D
:103F90007B70002C07DDEA5C295DE9542A5501336A
:103FA000013CA342F7DB281C04BC9046F0BDC04690
:103FB000002934D00123002210B488422CD30124DC
:103FC0002407A14204D2814202D209011B01F8E771
:103FD000E400A14204D2814202D249005B00F8E72A
:103FE000884201D3401A1A434C08A04202D3001B56
:103FF0005C0822438C08A04202D3001B9C08224389
:10400000CC08A04202D3001BDC082243002803D0C6
:104010001B0901D00909E3E7101C10BC70470028F8
:1040200001D00020C04307B4024802A1401802900A
:1040300003BDC046190000000029F0D003B5FFF70A
:10404000B9FF0EBC4243891A1847C0467047C046A4
:104050001C2101231B04984201D3000C10391B0AB8
:10406000984201D3000A08391B09984201D300097C
:10407000043902A2105C40187047C04604030202D3
:1040800001010101000000000000000070B50D4EAC
:104090000D4D0024AD1BAD1005D0A300F358013425
:1040A0009847A542F9D100F037FB084E084D00248F
:1040B000AD1BAD1005D0A300F35801349847A542BD
:1040C000F9D170BD244700002447000024470000B8
:1040D0003C4700000023C25C0133002AFBD1581E7C
:1040E0007047C04608B5034B002B02D0024800F0D1
:1040F00005F808BD000000000D41000008B5011CD6
:1041000000220020002300F019F808BD38B5094B43
:10411000094DED1AAD1009D0013DAC00E41800E0E6
:10412000013D23689847043C002DF9D100F006FBBF
:1041300038BDC0460000000000000000F0B54F464A
:104140004646C0B498462B4BA4251B686D005C59AD
:1041500083B0061C0F1C91460193002C44D0656867
:104160001F2D1ADD244B002B02D1012040421CE000
:10417000C820400000E000BF041EF6D000254560C6
:10418000A42301985B00C05801992060CC50C4233F
:104190005B00E550C6235B00E550002E0AD16B1C86
:1041A0000235AD00636000202F5103B00CBC904677
:1041B0009946F0BDAB00E318882248469850C420C9
:1041C0004000221810680121A94008431060842291
:1041D000520040469850022EE1D1C6225200A31848
:1041E000186801431960DAE71C1C4D34FF345C5138
:1041F000B5E7C04614470000000000006C06000050
:104200008206000074060000A80700009006000067
:10421000A8070000A8070000A8070000A8070000E2
:10422000A8070000BA070000A8070000A8070000C0
:10423000BA070000A8070000A8070000A8070000B0
:10424000BA070000A8070000BA070000A80700008E
:10425000A8070000A8070000A8070000A8070000A2
:10426000A8070000A8070000A8070000A807000092
:10427000A8070000A8070000A8070000A807000082
:10428000A8070000A8070000A8070000A807000072
:10429000A8070000A8070000A8070000A807000062
:1042A000A8070000A8070000A8070000A807000052
:1042B000A8070000A8070000A8070000A807000042
:1042C000BA0700009006000074060000A80700006E
:1042D000BA070000A8070000A8070000A807000010
:1042E000A8070000A8070000A8070000A807000012
:1042F000A8070000A8070000A8070000A807000002
:10430000A8070000A8070000A8070000A8070000F1
:10431000A8070000A8070000A8070000A8070000E1
:10432000A8070000A8070000A8070000A8070000D1
:10433000A8070000A8070000A8070000A8070000C1
:10434000A8070000A8070000A8070000A8070000B1
:10435000A8070000A8070000A8070000A8070000A1
:10436000A8070000A8070000A8070000A807000091
:10437000A8070000A8070000A8070000A807000081
:10438000A8070000A8070000A8070000A807000071
:10439000A8070000A8070000A8070000A807000061
:1043A000A8070000A8070000A8070000A807000051
:1043B000A8070000A8070000A8070000A807000041
:1043C000A8070000760700007E0F0000860F00009F
:1043D000920F00009A0F0000A60F0000B00F00001F
:1043E000BE0F0000C80F00008413000090130000EF
:1043F000A4130000B0130000C4130000D413000085
:10440000E8130000F8130000D2150000DA150000D0
:10441000E6150000EE150000FA1500000416000075
:10442000121600001C16000031414C530000000021
:104430004861726477617265000000005465656EC2
:1044400073794C4334380000322E3000420000F8BB
:1044500040A0044001000000420000F844A00440D5
:1044600002000000C00000F800C00440010000008D
:10447000000000F80490044002000000000000F872
:104480000890044004000000C00000F81CC0044074
:1044900080000000C00000F810C0044010000000C0
:1044A000C00000F808C0044004000000C00000F88C
:1044B0000CC0044008000000800000F80CB004406C
:1044C00008000000800000F810B004401000000058
:1044D000800000F818B0044040000000800000F8A0
:1044E0001CB0044080000000800000F814B00440BC
:1044F00020000000C00000F804C0044002000000DA
:10450000800000F800B0044001000000400000F806
:1045100000A0044001000000400000F804A0044096
:1045200002000000400000F80CA004400800000059
:10453000400000F808A0044004000000C00000F89B
:1045400014C0044020000000C00000F818C004405F
:1045500040000000800000F804B0044002000000A9
:10456000800000F808B0044004000000020100F8D8
:1045700050D0044010000000020100F854D0044064
:1045800020000000030100F878D004404000000043
:104590000000000000000000CD2A0000D92A000021
:1045A000AD2A0000B52A0000BD2A0000C52A00007F
:1045B000001519150001000068FDFF1F1200000022
:1045C0000002000094FDFF1F4300000000030000F4
:1045D000F0FDFF1F00000000010309047CFDFF1F28
:1045E0000000000002030904D8FDFF1F00000000C6
:1045F00003030904F4FDFF1F000000000000000099
:1046000000000000000000000000000000000000AA
:104610009D3C0000B53C00006D3C00007D3C00006E
:10462000753C0000853C0000013C0000193C000086
:10463000393C0000413C00004D3C00005D3C000066
:104640008D3C0000953C0000D13B0000DD3B0000AC
:10465000E93B0000F53B0000C53C0000A93C000020
:104660000000000000000000C93D0000E13D000026
:10467000993D0000A93D0000A13D0000B13D0000B2
:104680002D3D0000453D0000653D00006D3D0000F2
:10469000793D0000893D0000B93D0000C13D0000AA
:1046A000FD3C0000093D0000153D0000213D0000DB
:1046B000F13D0000D53D00000000000000000000BA
:1046C000F53E00000D3F0000C53E0000D53E000055
:1046D000CD3E0000DD3E0000593E0000713E00006E
:1046E000913E0000993E0000A53E0000B53E00004E
:1046F000E53E0000ED3E0000293E0000353E000092
:10470000413E00004D3E00001D3F0000013F000003
:104710004300000010FEFF1FF8B5C046F8BC08BCFF
:104720009E467047E540000039040000E92A000079
:0C473000E13C00000D3E0000393F00009D
:04473C00F8B5C046C6
:10474000FFFFFFFF0A040000120100020200004008
:10475000C016830400010102030100001803540085
:10476000650065006E0073007900640075006900E3
:104770006E006F0009024300020100C0320904000C
:1047800000010202010005240010010524010101BD
:1047900004240206052406000107058203100040D8
:1047A00009040100020A000000070503024000009E
:1047B0000705840240000000160355005300420024
:1047C0002000530065007200690061006C00000069
:1047D000040309040C0300000000000000000000B6
:1047E00000000000000000000000000000000000C9
:1047F00000000000FC00002064010020CC0100202B
:1048000000000000000000000000000000000000A8
:104810000000000000000000000000000000000098
:104820000000000010470000000000000000000031
:104830000000000000000000000000000000000078
:104840000000000000000000000000000000000068
:104850000000000000000000000000000000000058
:104860000000000000000000000000000000000048
:104870000000000000000000000000000000000038
:104880000000000000000000000000000000000028
:104890000000000000000000010000000000000017
:1048A0000E33CDAB34126DE6ECDE05000B000000DC
:1048B00000000000000000000000000000000000F8
:1048C00000000000000000000000000000000000E8
:1048D00000000000000000000000000000000000D8
:1048E00000000000000000000000000000000000C8
:00000001FF
